{
  "_format": "hh-sol-artifact-1",
  "contractName": "GatedNFTFactory",
  "sourceName": "contracts/GatedNFTFactory.sol",
  "abi": [
    {
      "inputs": [],
      "stateMutability": "nonpayable",
      "type": "constructor"
    },
    {
      "anonymous": false,
      "inputs": [
        {
          "indexed": false,
          "internalType": "address",
          "name": "sender",
          "type": "address"
        },
        {
          "indexed": false,
          "internalType": "address",
          "name": "implementation",
          "type": "address"
        }
      ],
      "name": "Implementation",
      "type": "event"
    },
    {
      "anonymous": false,
      "inputs": [
        {
          "indexed": false,
          "internalType": "address",
          "name": "sender",
          "type": "address"
        },
        {
          "indexed": false,
          "internalType": "address",
          "name": "child",
          "type": "address"
        }
      ],
      "name": "NewChild",
      "type": "event"
    },
    {
      "inputs": [
        {
          "internalType": "bytes",
          "name": "data_",
          "type": "bytes"
        }
      ],
      "name": "createChild",
      "outputs": [
        {
          "internalType": "address",
          "name": "",
          "type": "address"
        }
      ],
      "stateMutability": "nonpayable",
      "type": "function"
    },
    {
      "inputs": [
        {
          "components": [
            {
              "internalType": "string",
              "name": "name",
              "type": "string"
            },
            {
              "internalType": "string",
              "name": "symbol",
              "type": "string"
            },
            {
              "internalType": "string",
              "name": "description",
              "type": "string"
            },
            {
              "internalType": "string",
              "name": "animationUrl",
              "type": "string"
            },
            {
              "internalType": "string",
              "name": "imageUrl",
              "type": "string"
            },
            {
              "internalType": "bytes32",
              "name": "animationHash",
              "type": "bytes32"
            },
            {
              "internalType": "bytes32",
              "name": "imageHash",
              "type": "bytes32"
            }
          ],
          "internalType": "struct GatedNFT.Config",
          "name": "config_",
          "type": "tuple"
        },
        {
          "internalType": "contract ITier",
          "name": "tier_",
          "type": "address"
        },
        {
          "internalType": "uint256",
          "name": "minimumStatus_",
          "type": "uint256"
        },
        {
          "internalType": "uint256",
          "name": "maxPerAddress_",
          "type": "uint256"
        },
        {
          "internalType": "enum GatedNFT.Transferrable",
          "name": "transferrable_",
          "type": "uint8"
        },
        {
          "internalType": "uint256",
          "name": "maxMintable_",
          "type": "uint256"
        },
        {
          "internalType": "address",
          "name": "royaltyRecipient_",
          "type": "address"
        },
        {
          "internalType": "uint256",
          "name": "royaltyBPS",
          "type": "uint256"
        }
      ],
      "name": "createChildTyped",
      "outputs": [
        {
          "internalType": "contract GatedNFT",
          "name": "",
          "type": "address"
        }
      ],
      "stateMutability": "nonpayable",
      "type": "function"
    },
    {
      "inputs": [
        {
          "internalType": "address",
          "name": "maybeChild_",
          "type": "address"
        }
      ],
      "name": "isChild",
      "outputs": [
        {
          "internalType": "bool",
          "name": "",
          "type": "bool"
        }
      ],
      "stateMutability": "view",
      "type": "function"
    }
  ],
  "bytecode": "0x60a060405234801561001057600080fd5b506001600090815560405161002490610096565b604051809103906000f080158015610040573d6000803e3d6000fd5b50604080513381526001600160a01b03831660208201529192507f7fac34ecf0b1b374cd9659e3d17db602659d53f1162b1f20142e6c02694aed70910160405180910390a16001600160a01b03166080526100a3565b6135fa80610bce83390190565b608051610b106100be60003960006102e70152610b106000f3fe608060405234801561001057600080fd5b50600436106100415760003560e01c80632ea72a4914610046578063eec513d014610083578063fc91a89714610096575b600080fd5b610059610054366004610495565b6100df565b60405173ffffffffffffffffffffffffffffffffffffffff90911681526020015b60405180910390f35b610059610091366004610730565b6101fd565b6100cf6100a43660046107cc565b73ffffffffffffffffffffffffffffffffffffffff1660009081526001602052604090205460ff1690565b604051901515815260200161007a565b600060026000541415610153576040517f08c379a000000000000000000000000000000000000000000000000000000000815260206004820152601f60248201527f5265656e7472616e637947756172643a207265656e7472616e742063616c6c0060448201526064015b60405180910390fd5b6002600090815561016484846102b7565b73ffffffffffffffffffffffffffffffffffffffff811660008181526001602081815260409283902080547fffffffffffffffffffffffffffffffffffffffffffffffffffffffffffffff00169092179091558151338152908101929092529192507f7da70c4e5387d7038610b79ca7d304caaef815826e51e67cf247135387a79bce910160405180910390a160016000559392505050565b60003073ffffffffffffffffffffffffffffffffffffffff16632ea72a49338b8b8b8b8b8b8b8b60405160200161023c99989796959493929190610896565b6040516020818303038152906040526040518263ffffffff1660e01b815260040161026791906109fb565b6020604051808303816000875af1158015610286573d6000803e3d6000fd5b505050506040513d601f19601f820116820180604052508101906102aa9190610a0e565b9998505050505050505050565b60008080808080808080806102ce8b8d018d610a2b565b985098509850985098509850985098509850600061030b7f00000000000000000000000000000000000000000000000000000000000000006103b3565b6040517f911e29e300000000000000000000000000000000000000000000000000000000815290915073ffffffffffffffffffffffffffffffffffffffff82169063911e29e390610370908d908d908d908d908d908d908d908d908d90600401610896565b600060405180830381600087803b15801561038a57600080fd5b505af115801561039e573d6000803e3d6000fd5b50929f9e505050505050505050505050505050565b60006040517f3d602d80600a3d3981f3363d3d373d3d3d363d7300000000000000000000000081528260601b60148201527f5af43d82803e903d91602b57fd5bf3000000000000000000000000000000000060288201526037816000f091505073ffffffffffffffffffffffffffffffffffffffff8116610490576040517f08c379a000000000000000000000000000000000000000000000000000000000815260206004820152601660248201527f455243313136373a20637265617465206661696c656400000000000000000000604482015260640161014a565b919050565b600080602083850312156104a857600080fd5b823567ffffffffffffffff808211156104c057600080fd5b818501915085601f8301126104d457600080fd5b8135818111156104e357600080fd5b8660208285010111156104f557600080fd5b60209290920196919550909350505050565b7f4e487b7100000000000000000000000000000000000000000000000000000000600052604160045260246000fd5b60405160e0810167ffffffffffffffff8111828210171561055957610559610507565b60405290565b600082601f83011261057057600080fd5b813567ffffffffffffffff8082111561058b5761058b610507565b604051601f83017fffffffffffffffffffffffffffffffffffffffffffffffffffffffffffffffe0908116603f011681019082821181831017156105d1576105d1610507565b816040528381528660208588010111156105ea57600080fd5b836020870160208301376000602085830101528094505050505092915050565b600060e0828403121561061c57600080fd5b610624610536565b9050813567ffffffffffffffff8082111561063e57600080fd5b61064a8583860161055f565b8352602084013591508082111561066057600080fd5b61066c8583860161055f565b6020840152604084013591508082111561068557600080fd5b6106918583860161055f565b604084015260608401359150808211156106aa57600080fd5b6106b68583860161055f565b606084015260808401359150808211156106cf57600080fd5b506106dc8482850161055f565b60808301525060a082013560a082015260c082013560c082015292915050565b73ffffffffffffffffffffffffffffffffffffffff8116811461071e57600080fd5b50565b80356003811061049057600080fd5b600080600080600080600080610100898b03121561074d57600080fd5b883567ffffffffffffffff81111561076457600080fd5b6107708b828c0161060a565b9850506020890135610781816106fc565b9650604089013595506060890135945061079d60808a01610721565b935060a0890135925060c08901356107b4816106fc565b8092505060e089013590509295985092959890939650565b6000602082840312156107de57600080fd5b81356107e9816106fc565b9392505050565b6000815180845260005b81811015610816576020818501810151868301820152016107fa565b81811115610828576000602083870101525b50601f017fffffffffffffffffffffffffffffffffffffffffffffffffffffffffffffffe0169290920160200192915050565b60038110610892577f4e487b7100000000000000000000000000000000000000000000000000000000600052602160045260246000fd5b9052565b600061012073ffffffffffffffffffffffffffffffffffffffff8c1683528060208401528a5160e0828501526108d06102008501826107f0565b91505060208b01517ffffffffffffffffffffffffffffffffffffffffffffffffffffffffffffffee0808584030161014086015261090e83836107f0565b925060408d01519150808584030161016086015261092c83836107f0565b925060608d01519150808584030161018086015261094a83836107f0565b925060808d0151915080858403016101a08601525061096982826107f0565b60a08d01516101c086015260c08d01516101e086015273ffffffffffffffffffffffffffffffffffffffff8c16604086015292506109a5915050565b8760608301528660808301526109be60a083018761085b565b8460c08301526109e660e083018573ffffffffffffffffffffffffffffffffffffffff169052565b826101008301529a9950505050505050505050565b6020815260006107e960208301846107f0565b600060208284031215610a2057600080fd5b81516107e9816106fc565b60008060008060008060008060006101208a8c031215610a4a57600080fd5b8935610a55816106fc565b985060208a013567ffffffffffffffff811115610a7157600080fd5b610a7d8c828d0161060a565b98505060408a0135610a8e816106fc565b965060608a0135955060808a01359450610aaa60a08b01610721565b935060c08a0135925060e08a0135610ac1816106fc565b809250506101008a01359050929598509295985092959856fea26469706673582212206ec196324ad0eead0cbb20fc5549c7d809f3e8fc24a36e50aa021c342768f6ff64736f6c634300080a0033608060405234801561001057600080fd5b506135da806100206000396000f3fe608060405234801561001057600080fd5b50600436106101825760003560e01c80636a627842116100d857806395d89b411161008c578063c87b56dd11610066578063c87b56dd1461035f578063e985e9c514610372578063f2fde38b146103bb57600080fd5b806395d89b4114610331578063a22cb46514610339578063b88d4fde1461034c57600080fd5b8063715018a6116100bd578063715018a6146102f85780638da5cb5b14610300578063911e29e31461031e57600080fd5b80636a627842146102d257806370a08231146102e557600080fd5b806316f4d0221161013a5780632a55205a116101145780632a55205a1461026d57806342842e0e146102ac5780636352211e146102bf57600080fd5b806316f4d0221461022457806318160ddd1461024457806323b872dd1461025a57600080fd5b8063081812fc1161016b578063081812fc146101c4578063095ea7b3146101fc5780630fc499f51461021157600080fd5b806301ffc9a71461018757806306fdde03146101af575b600080fd5b61019a6101953660046129ad565b6103ce565b60405190151581526020015b60405180910390f35b6101b761042a565b6040516101a69190612a47565b6101d76101d2366004612a5a565b6104bc565b60405173ffffffffffffffffffffffffffffffffffffffff90911681526020016101a6565b61020f61020a366004612aa5565b61059b565b005b61020f61021f366004612ad1565b610753565b60d1546101d79073ffffffffffffffffffffffffffffffffffffffff1681565b61024c6108f0565b6040519081526020016101a6565b61020f610268366004612aee565b61090c565b61028061027b366004612b2f565b6109ad565b6040805173ffffffffffffffffffffffffffffffffffffffff90931683526020830191909152016101a6565b61020f6102ba366004612aee565b610a34565b6101d76102cd366004612a5a565b610a4f565b61024c6102e0366004612ad1565b610b01565b61024c6102f3366004612ad1565b610d12565b61020f610de0565b60975473ffffffffffffffffffffffffffffffffffffffff166101d7565b61020f61032c366004612c6c565b610e6d565b6101b76111f8565b61020f610347366004612deb565b611207565b61020f61035a366004612e29565b611216565b6101b761036d366004612a5a565b6112be565b61019a610380366004612ea9565b73ffffffffffffffffffffffffffffffffffffffff9182166000908152606a6020908152604080832093909416825291909152205460ff1690565b61020f6103c9366004612ad1565b611354565b60007f2a55205a000000000000000000000000000000000000000000000000000000007fffffffff0000000000000000000000000000000000000000000000000000000083161480610424575061042482611484565b92915050565b60606065805461043990612ed7565b80601f016020809104026020016040519081016040528092919081815260200182805461046590612ed7565b80156104b25780601f10610487576101008083540402835291602001916104b2565b820191906000526020600020905b81548152906001019060200180831161049557829003601f168201915b5050505050905090565b60008181526067602052604081205473ffffffffffffffffffffffffffffffffffffffff16610572576040517f08c379a000000000000000000000000000000000000000000000000000000000815260206004820152602c60248201527f4552433732313a20617070726f76656420717565727920666f72206e6f6e657860448201527f697374656e7420746f6b656e000000000000000000000000000000000000000060648201526084015b60405180910390fd5b5060009081526069602052604090205473ffffffffffffffffffffffffffffffffffffffff1690565b60006105a682610a4f565b90508073ffffffffffffffffffffffffffffffffffffffff168373ffffffffffffffffffffffffffffffffffffffff161415610664576040517f08c379a000000000000000000000000000000000000000000000000000000000815260206004820152602160248201527f4552433732313a20617070726f76616c20746f2063757272656e74206f776e6560448201527f72000000000000000000000000000000000000000000000000000000000000006064820152608401610569565b3373ffffffffffffffffffffffffffffffffffffffff821614806106b8575073ffffffffffffffffffffffffffffffffffffffff81166000908152606a6020908152604080832033845290915290205460ff165b610744576040517f08c379a000000000000000000000000000000000000000000000000000000000815260206004820152603860248201527f4552433732313a20617070726f76652063616c6c6572206973206e6f74206f7760448201527f6e6572206e6f7220617070726f76656420666f7220616c6c00000000000000006064820152608401610569565b61074e8383611567565b505050565b73ffffffffffffffffffffffffffffffffffffffff81166107d0576040517f08c379a000000000000000000000000000000000000000000000000000000000815260206004820152601d60248201527f526563697069656e742063616e6e6f74206265203020616464726573730000006044820152606401610569565b60d65473ffffffffffffffffffffffffffffffffffffffff163314610877576040517f08c379a000000000000000000000000000000000000000000000000000000000815260206004820152602160248201527f4f6e6c792063757272656e7420726563697069656e742063616e20757064617460448201527f65000000000000000000000000000000000000000000000000000000000000006064820152608401610569565b60d680547fffffffffffffffffffffffff00000000000000000000000000000000000000001673ffffffffffffffffffffffffffffffffffffffff83169081179091556040519081527fe8fc99c58149b88bd3261c7bfa0257cb6276c555f2afc047f7b9bcfa4b2d05e79060200160405180910390a150565b600060016108fd60c95490565b6109079190612f5a565b905090565b6109163382611607565b6109a2576040517f08c379a000000000000000000000000000000000000000000000000000000000815260206004820152603160248201527f4552433732313a207472616e736665722063616c6c6572206973206e6f74206f60448201527f776e6572206e6f7220617070726f7665640000000000000000000000000000006064820152608401610569565b61074e838383611777565b60d654600090819073ffffffffffffffffffffffffffffffffffffffff166109f157505060d65473ffffffffffffffffffffffffffffffffffffffff166000610a2d565b60d65460d75473ffffffffffffffffffffffffffffffffffffffff9091169061271090610a1e9086612f71565b610a289190612fae565b915091505b9250929050565b61074e83838360405180602001604052806000815250611216565b60008181526067602052604081205473ffffffffffffffffffffffffffffffffffffffff1680610424576040517f08c379a000000000000000000000000000000000000000000000000000000000815260206004820152602960248201527f4552433732313a206f776e657220717565727920666f72206e6f6e657869737460448201527f656e7420746f6b656e00000000000000000000000000000000000000000000006064820152608401610569565b60d25460d1546040517fe053ea3100000000000000000000000000000000000000000000000000000000815273ffffffffffffffffffffffffffffffffffffffff848116600483015260009392610ba69291169063e053ea31906024015b602060405180830381865afa158015610b7c573d6000803e3d6000fd5b505050506040513d601f19601f82011682018060405250810190610ba09190612fe9565b4361195a565b1015610c0e576040517f08c379a000000000000000000000000000000000000000000000000000000000815260206004820152601d60248201527f41646472657373206d697373696e6720726571756972656420746965720000006044820152606401610569565b60d354610c1a83610d12565b10610c81576040517f08c379a000000000000000000000000000000000000000000000000000000000815260206004820152601f60248201527f41646472657373206861732065786861757374656420616c6c6f77616e6365006044820152606401610569565b6000610c8c60c95490565b905060d554811115610cfa576040517f08c379a000000000000000000000000000000000000000000000000000000000815260206004820152601660248201527f546f74616c20737570706c7920657868617573746564000000000000000000006044820152606401610569565b610d048382611994565b61042460c980546001019055565b600073ffffffffffffffffffffffffffffffffffffffff8216610db7576040517f08c379a000000000000000000000000000000000000000000000000000000000815260206004820152602a60248201527f4552433732313a2062616c616e636520717565727920666f7220746865207a6560448201527f726f2061646472657373000000000000000000000000000000000000000000006064820152608401610569565b5073ffffffffffffffffffffffffffffffffffffffff1660009081526068602052604090205490565b60975473ffffffffffffffffffffffffffffffffffffffff163314610e61576040517f08c379a000000000000000000000000000000000000000000000000000000000815260206004820181905260248201527f4f776e61626c653a2063616c6c6572206973206e6f7420746865206f776e65726044820152606401610569565b610e6b60006119ae565b565b600054610100900460ff16610e885760005460ff1615610e8c565b303b155b610f18576040517f08c379a000000000000000000000000000000000000000000000000000000000815260206004820152602e60248201527f496e697469616c697a61626c653a20636f6e747261637420697320616c72656160448201527f647920696e697469616c697a65640000000000000000000000000000000000006064820152608401610569565b600054610100900460ff16158015610f5757600080547fffffffffffffffffffffffffffffffffffffffffffffffffffffffffffff0000166101011790555b73ffffffffffffffffffffffffffffffffffffffff8316610fd4576040517f08c379a000000000000000000000000000000000000000000000000000000000815260206004820152601d60248201527f526563697069656e742063616e6e6f74206265203020616464726573730000006044820152606401610569565b610fe689600001518a60200151611a25565b610fee611ad6565b610ff78a611354565b60d180547fffffffffffffffffffffffff00000000000000000000000000000000000000001673ffffffffffffffffffffffffffffffffffffffff8a16179055885180518a9160ca916110519183916020909101906128e6565b50602082810151805161106a92600185019201906128e6565b50604082015180516110869160028401916020909101906128e6565b50606082015180516110a29160038401916020909101906128e6565b50608082015180516110be9160048401916020909101906128e6565b5060a0820151600582015560c09091015160069091015560d287905560d386905560d480548691907fffffffffffffffffffffffffffffffffffffffffffffffffffffffffffffff0016600183600281111561111c5761111c613002565b021790555060d584905560d680547fffffffffffffffffffffffff00000000000000000000000000000000000000001673ffffffffffffffffffffffffffffffffffffffff851617905560d782905560c9805460010190557fd85dcc7cee7af91644138b69b9dea25e7697ddbe6a27aa23720ab19a86581f40308b8b8b8b8b8b8b8b8b6040516111b59a9998979695949392919061306c565b60405180910390a180156111ec57600080547fffffffffffffffffffffffffffffffffffffffffffffffffffffffffffff00ff1690555b50505050505050505050565b60606066805461043990612ed7565b611212338383611b7d565b5050565b6112203383611607565b6112ac576040517f08c379a000000000000000000000000000000000000000000000000000000000815260206004820152603160248201527f4552433732313a207472616e736665722063616c6c6572206973206e6f74206f60448201527f776e6572206e6f7220617070726f7665640000000000000000000000000000006064820152608401610569565b6112b884848484611cab565b50505050565b60008181526067602052604090205460609073ffffffffffffffffffffffffffffffffffffffff1661134c576040517f08c379a000000000000000000000000000000000000000000000000000000000815260206004820152601160248201527f4e6f6e6578697374656e7420746f6b656e0000000000000000000000000000006044820152606401610569565b610424611d4e565b60975473ffffffffffffffffffffffffffffffffffffffff1633146113d5576040517f08c379a000000000000000000000000000000000000000000000000000000000815260206004820181905260248201527f4f776e61626c653a2063616c6c6572206973206e6f7420746865206f776e65726044820152606401610569565b73ffffffffffffffffffffffffffffffffffffffff8116611478576040517f08c379a000000000000000000000000000000000000000000000000000000000815260206004820152602660248201527f4f776e61626c653a206e6577206f776e657220697320746865207a65726f206160448201527f64647265737300000000000000000000000000000000000000000000000000006064820152608401610569565b611481816119ae565b50565b60007fffffffff0000000000000000000000000000000000000000000000000000000082167f80ac58cd00000000000000000000000000000000000000000000000000000000148061151757507fffffffff0000000000000000000000000000000000000000000000000000000082167f5b5e139f00000000000000000000000000000000000000000000000000000000145b8061042457507f01ffc9a7000000000000000000000000000000000000000000000000000000007fffffffff00000000000000000000000000000000000000000000000000000000831614610424565b600081815260696020526040902080547fffffffffffffffffffffffff00000000000000000000000000000000000000001673ffffffffffffffffffffffffffffffffffffffff841690811790915581906115c182610a4f565b73ffffffffffffffffffffffffffffffffffffffff167f8c5be1e5ebec7d5bd14f71427d1e84f3dd0314c0f7b2291e5b200ac8c7c3b92560405160405180910390a45050565b60008181526067602052604081205473ffffffffffffffffffffffffffffffffffffffff166116b8576040517f08c379a000000000000000000000000000000000000000000000000000000000815260206004820152602c60248201527f4552433732313a206f70657261746f7220717565727920666f72206e6f6e657860448201527f697374656e7420746f6b656e00000000000000000000000000000000000000006064820152608401610569565b60006116c383610a4f565b90508073ffffffffffffffffffffffffffffffffffffffff168473ffffffffffffffffffffffffffffffffffffffff16148061173257508373ffffffffffffffffffffffffffffffffffffffff1661171a846104bc565b73ffffffffffffffffffffffffffffffffffffffff16145b8061176f575073ffffffffffffffffffffffffffffffffffffffff8082166000908152606a602090815260408083209388168352929052205460ff165b949350505050565b600060d45460ff16600281111561179057611790613002565b14156117f8576040517f08c379a000000000000000000000000000000000000000000000000000000000815260206004820152601660248201527f5472616e73666572206e6f7420737570706f72746564000000000000000000006044820152606401610569565b600260d45460ff16600281111561181157611811613002565b14156118dc5760d25460d1546040517fe053ea3100000000000000000000000000000000000000000000000000000000815273ffffffffffffffffffffffffffffffffffffffff858116600483015261187492169063e053ea3190602401610b5f565b10156118dc576040517f08c379a000000000000000000000000000000000000000000000000000000000815260206004820152601d60248201527f41646472657373206d697373696e6720726571756972656420746965720000006044820152606401610569565b60d3546118e883610d12565b1061194f576040517f08c379a000000000000000000000000000000000000000000000000000000000815260206004820152601f60248201527f41646472657373206861732065786861757374656420616c6c6f77616e6365006044820152606401610569565b61074e838383611da9565b6000805b600881101561198a57828160200285901c63ffffffff161115611982579050610424565b60010161195e565b5060089392505050565b611212828260405180602001604052806000815250612010565b6097805473ffffffffffffffffffffffffffffffffffffffff8381167fffffffffffffffffffffffff0000000000000000000000000000000000000000831681179093556040519116919082907f8be0079c531659141344cd1fd0a4f28419497f9722a3daafe3b4186f6b6457e090600090a35050565b600054610100900460ff16611abc576040517f08c379a000000000000000000000000000000000000000000000000000000000815260206004820152602b60248201527f496e697469616c697a61626c653a20636f6e7472616374206973206e6f74206960448201527f6e697469616c697a696e670000000000000000000000000000000000000000006064820152608401610569565b611ac46120b3565b611acc6120b3565b611212828261214a565b600054610100900460ff16611b6d576040517f08c379a000000000000000000000000000000000000000000000000000000000815260206004820152602b60248201527f496e697469616c697a61626c653a20636f6e7472616374206973206e6f74206960448201527f6e697469616c697a696e670000000000000000000000000000000000000000006064820152608401610569565b611b756120b3565b610e6b612208565b8173ffffffffffffffffffffffffffffffffffffffff168373ffffffffffffffffffffffffffffffffffffffff161415611c13576040517f08c379a000000000000000000000000000000000000000000000000000000000815260206004820152601960248201527f4552433732313a20617070726f766520746f2063616c6c6572000000000000006044820152606401610569565b73ffffffffffffffffffffffffffffffffffffffff8381166000818152606a602090815260408083209487168084529482529182902080547fffffffffffffffffffffffffffffffffffffffffffffffffffffffffffffff001686151590811790915591519182527f17307eab39ab6107e8899845ad3d59bd9653f200f220920489ca2b5937696c31910160405180910390a3505050565b611cb6848484611777565b611cc2848484846122a8565b6112b8576040517f08c379a000000000000000000000000000000000000000000000000000000000815260206004820152603260248201527f4552433732313a207472616e7366657220746f206e6f6e20455243373231526560448201527f63656976657220696d706c656d656e74657200000000000000000000000000006064820152608401610569565b6060611d8560ca60cc611d5f612498565b604051602001611d71939291906132ae565b60405160208183030381529060405261254b565b604051602001611d95919061337f565b604051602081830303815290604052905090565b8273ffffffffffffffffffffffffffffffffffffffff16611dc982610a4f565b73ffffffffffffffffffffffffffffffffffffffff1614611e6c576040517f08c379a000000000000000000000000000000000000000000000000000000000815260206004820152602960248201527f4552433732313a207472616e73666572206f6620746f6b656e2074686174206960448201527f73206e6f74206f776e00000000000000000000000000000000000000000000006064820152608401610569565b73ffffffffffffffffffffffffffffffffffffffff8216611f0e576040517f08c379a0000000000000000000000000000000000000000000000000000000008152602060048201526024808201527f4552433732313a207472616e7366657220746f20746865207a65726f2061646460448201527f72657373000000000000000000000000000000000000000000000000000000006064820152608401610569565b611f19600082611567565b73ffffffffffffffffffffffffffffffffffffffff83166000908152606860205260408120805460019290611f4f908490612f5a565b909155505073ffffffffffffffffffffffffffffffffffffffff82166000908152606860205260408120805460019290611f8a9084906133c4565b909155505060008181526067602052604080822080547fffffffffffffffffffffffff00000000000000000000000000000000000000001673ffffffffffffffffffffffffffffffffffffffff86811691821790925591518493918716917fddf252ad1be2c89b69c2b068fc378daa952ba7f163c4a11628f55a4df523b3ef91a4505050565b61201a8383612724565b61202760008484846122a8565b61074e576040517f08c379a000000000000000000000000000000000000000000000000000000000815260206004820152603260248201527f4552433732313a207472616e7366657220746f206e6f6e20455243373231526560448201527f63656976657220696d706c656d656e74657200000000000000000000000000006064820152608401610569565b600054610100900460ff16610e6b576040517f08c379a000000000000000000000000000000000000000000000000000000000815260206004820152602b60248201527f496e697469616c697a61626c653a20636f6e7472616374206973206e6f74206960448201527f6e697469616c697a696e670000000000000000000000000000000000000000006064820152608401610569565b600054610100900460ff166121e1576040517f08c379a000000000000000000000000000000000000000000000000000000000815260206004820152602b60248201527f496e697469616c697a61626c653a20636f6e7472616374206973206e6f74206960448201527f6e697469616c697a696e670000000000000000000000000000000000000000006064820152608401610569565b81516121f49060659060208501906128e6565b50805161074e9060669060208401906128e6565b600054610100900460ff1661229f576040517f08c379a000000000000000000000000000000000000000000000000000000000815260206004820152602b60248201527f496e697469616c697a61626c653a20636f6e7472616374206973206e6f74206960448201527f6e697469616c697a696e670000000000000000000000000000000000000000006064820152608401610569565b610e6b336119ae565b600073ffffffffffffffffffffffffffffffffffffffff84163b1561248d576040517f150b7a0200000000000000000000000000000000000000000000000000000000815273ffffffffffffffffffffffffffffffffffffffff85169063150b7a029061231f9033908990889088906004016133dc565b6020604051808303816000875af1925050508015612378575060408051601f3d9081017fffffffffffffffffffffffffffffffffffffffffffffffffffffffffffffffe016820190925261237591810190613425565b60015b612442573d8080156123a6576040519150601f19603f3d011682016040523d82523d6000602084013e6123ab565b606091505b50805161243a576040517f08c379a000000000000000000000000000000000000000000000000000000000815260206004820152603260248201527f4552433732313a207472616e7366657220746f206e6f6e20455243373231526560448201527f63656976657220696d706c656d656e74657200000000000000000000000000006064820152608401610569565b805181602001fd5b7fffffffff00000000000000000000000000000000000000000000000000000000167f150b7a020000000000000000000000000000000000000000000000000000000014905061176f565b506001949350505050565b606060008060ca60040180546124ad90612ed7565b905011905060008060ca60030180546124c590612ed7565b90501190508180156124d45750805b15612504576040516124ee9060ce9060cd90602001613442565b6040516020818303038152906040529250505090565b811561251c576040516124ee9060ce906020016134d3565b8015612534576040516124ee9060cd90602001613532565b604051806020016040528060008152509250505090565b606081516000141561256b57505060408051602081019091526000815290565b6000604051806060016040528060408152602001613565604091399050600060038451600261259a91906133c4565b6125a49190612fae565b6125af906004612f71565b905060006125be8260206133c4565b67ffffffffffffffff8111156125d6576125d6612b51565b6040519080825280601f01601f191660200182016040528015612600576020820181803683370190505b509050818152600183018586518101602084015b8183101561266c576003830192508251603f8160121c168501518253600182019150603f81600c1c168501518253600182019150603f8160061c168501518253600182019150603f8116850151825350600101612614565b60038951066001811461268657600281146126d057612716565b7f3d3d0000000000000000000000000000000000000000000000000000000000007ffffffffffffffffffffffffffffffffffffffffffffffffffffffffffffffffe830152612716565b7f3d000000000000000000000000000000000000000000000000000000000000007fffffffffffffffffffffffffffffffffffffffffffffffffffffffffffffffff8301525b509398975050505050505050565b73ffffffffffffffffffffffffffffffffffffffff82166127a1576040517f08c379a000000000000000000000000000000000000000000000000000000000815260206004820181905260248201527f4552433732313a206d696e7420746f20746865207a65726f20616464726573736044820152606401610569565b60008181526067602052604090205473ffffffffffffffffffffffffffffffffffffffff161561282d576040517f08c379a000000000000000000000000000000000000000000000000000000000815260206004820152601c60248201527f4552433732313a20746f6b656e20616c7265616479206d696e746564000000006044820152606401610569565b73ffffffffffffffffffffffffffffffffffffffff821660009081526068602052604081208054600192906128639084906133c4565b909155505060008181526067602052604080822080547fffffffffffffffffffffffff00000000000000000000000000000000000000001673ffffffffffffffffffffffffffffffffffffffff861690811790915590518392907fddf252ad1be2c89b69c2b068fc378daa952ba7f163c4a11628f55a4df523b3ef908290a45050565b8280546128f290612ed7565b90600052602060002090601f016020900481019282612914576000855561295a565b82601f1061292d57805160ff191683800117855561295a565b8280016001018555821561295a579182015b8281111561295a57825182559160200191906001019061293f565b5061296692915061296a565b5090565b5b80821115612966576000815560010161296b565b7fffffffff000000000000000000000000000000000000000000000000000000008116811461148157600080fd5b6000602082840312156129bf57600080fd5b81356129ca8161297f565b9392505050565b60005b838110156129ec5781810151838201526020016129d4565b838111156112b85750506000910152565b60008151808452612a158160208601602086016129d1565b601f017fffffffffffffffffffffffffffffffffffffffffffffffffffffffffffffffe0169290920160200192915050565b6020815260006129ca60208301846129fd565b600060208284031215612a6c57600080fd5b5035919050565b73ffffffffffffffffffffffffffffffffffffffff8116811461148157600080fd5b8035612aa081612a73565b919050565b60008060408385031215612ab857600080fd5b8235612ac381612a73565b946020939093013593505050565b600060208284031215612ae357600080fd5b81356129ca81612a73565b600080600060608486031215612b0357600080fd5b8335612b0e81612a73565b92506020840135612b1e81612a73565b929592945050506040919091013590565b60008060408385031215612b4257600080fd5b50508035926020909101359150565b7f4e487b7100000000000000000000000000000000000000000000000000000000600052604160045260246000fd5b60405160e0810167ffffffffffffffff81118282101715612ba357612ba3612b51565b60405290565b600067ffffffffffffffff80841115612bc457612bc4612b51565b604051601f85017fffffffffffffffffffffffffffffffffffffffffffffffffffffffffffffffe0908116603f01168101908282118183101715612c0a57612c0a612b51565b81604052809350858152868686011115612c2357600080fd5b858560208301376000602087830101525050509392505050565b600082601f830112612c4e57600080fd5b6129ca83833560208501612ba9565b803560038110612aa057600080fd5b60008060008060008060008060006101208a8c031215612c8b57600080fd5b8935612c9681612a73565b985060208a013567ffffffffffffffff80821115612cb357600080fd5b908b019060e0828e031215612cc757600080fd5b612ccf612b80565b823582811115612cde57600080fd5b612cea8f828601612c3d565b825250602083013582811115612cff57600080fd5b612d0b8f828601612c3d565b602083015250604083013582811115612d2357600080fd5b612d2f8f828601612c3d565b604083015250606083013582811115612d4757600080fd5b612d538f828601612c3d565b606083015250608083013582811115612d6b57600080fd5b612d778f828601612c3d565b60808301525060a083013560a082015260c083013560c0820152809a50505050612da360408b01612a95565b965060608a0135955060808a01359450612dbf60a08b01612c5d565b935060c08a01359250612dd460e08b01612a95565b91506101008a013590509295985092959850929598565b60008060408385031215612dfe57600080fd5b8235612e0981612a73565b915060208301358015158114612e1e57600080fd5b809150509250929050565b60008060008060808587031215612e3f57600080fd5b8435612e4a81612a73565b93506020850135612e5a81612a73565b925060408501359150606085013567ffffffffffffffff811115612e7d57600080fd5b8501601f81018713612e8e57600080fd5b612e9d87823560208401612ba9565b91505092959194509250565b60008060408385031215612ebc57600080fd5b8235612ec781612a73565b91506020830135612e1e81612a73565b600181811c90821680612eeb57607f821691505b60208210811415612f25577f4e487b7100000000000000000000000000000000000000000000000000000000600052602260045260246000fd5b50919050565b7f4e487b7100000000000000000000000000000000000000000000000000000000600052601160045260246000fd5b600082821015612f6c57612f6c612f2b565b500390565b6000817fffffffffffffffffffffffffffffffffffffffffffffffffffffffffffffffff0483118215151615612fa957612fa9612f2b565b500290565b600082612fe4577f4e487b7100000000000000000000000000000000000000000000000000000000600052601260045260246000fd5b500490565b600060208284031215612ffb57600080fd5b5051919050565b7f4e487b7100000000000000000000000000000000000000000000000000000000600052602160045260246000fd5b60038110613068577f4e487b7100000000000000000000000000000000000000000000000000000000600052602160045260246000fd5b9052565b600061014073ffffffffffffffffffffffffffffffffffffffff808e168452808d166020850152508060408401528a5160e0828501526130b06102208501826129fd565b91505060208b01517ffffffffffffffffffffffffffffffffffffffffffffffffffffffffffffffec080858403016101608601526130ee83836129fd565b925060408d01519150808584030161018086015261310c83836129fd565b925060608d0151915080858403016101a086015261312a83836129fd565b925060808d0151915080858403016101c08601525061314982826129fd565b60a08d01516101e086015260c08d015161020086015273ffffffffffffffffffffffffffffffffffffffff8c1660608601529250613185915050565b8760808301528660a083015261319e60c0830187613031565b8460e08301526131c761010083018573ffffffffffffffffffffffffffffffffffffffff169052565b826101208301529b9a5050505050505050505050565b8054600090600181811c90808316806131f757607f831692505b6020808410821415613232577f4e487b7100000000000000000000000000000000000000000000000000000000600052602260045260246000fd5b8180156132465760018114613275576132a2565b7fffffffffffffffffffffffffffffffffffffffffffffffffffffffffffffff008616895284890196506132a2565b60008881526020902060005b8681101561329a5781548b820152908501908301613281565b505084890196505b50505050505092915050565b7f7b226e616d65223a202200000000000000000000000000000000000000000000815260006132e0600a8301866131dd565b7f222c20226465736372697074696f6e223a202200000000000000000000000000815261331060138201866131dd565b90507f2200000000000000000000000000000000000000000000000000000000000000815283516133488160018401602088016129d1565b7f7d000000000000000000000000000000000000000000000000000000000000006001929091019182015260020195945050505050565b7f646174613a6170706c69636174696f6e2f6a736f6e3b6261736536342c0000008152600082516133b781601d8501602087016129d1565b91909101601d0192915050565b600082198211156133d7576133d7612f2b565b500190565b600073ffffffffffffffffffffffffffffffffffffffff80871683528086166020840152508360408301526080606083015261341b60808301846129fd565b9695505050505050565b60006020828403121561343757600080fd5b81516129ca8161297f565b7f2c2022696d616765223a2022000000000000000000000000000000000000000081526000613474600c8301856131dd565b7f222c2022616e696d6174696f6e5f75726c223a2022000000000000000000000081526134a460158201856131dd565b7f2200000000000000000000000000000000000000000000000000000000000000815260010195945050505050565b7f2c2022696d616765223a2022000000000000000000000000000000000000000081526000613505600c8301846131dd565b7f220000000000000000000000000000000000000000000000000000000000000081526001019392505050565b7f2c2022616e696d6174696f6e5f75726c223a20220000000000000000000000008152600061350560148301846131dd56fe4142434445464748494a4b4c4d4e4f505152535455565758595a6162636465666768696a6b6c6d6e6f707172737475767778797a303132333435363738392b2fa2646970667358221220ae57ab35ac1cef678f62ed138c6ac4c566a2ce579e74aa7320f1aa0a083db60364736f6c634300080a0033",
  "linkReferences": {},
  "deployedLinkReferences": {}
}