{
  "_format": "hh-sol-artifact-1",
  "contractName": "OrderBook",
  "sourceName": "contracts/orderbook/OrderBook.sol",
  "abi": [
    {
      "inputs": [],
      "stateMutability": "nonpayable",
      "type": "constructor"
    },
    {
      "anonymous": false,
      "inputs": [
        {
          "indexed": false,
          "internalType": "address",
          "name": "sender",
          "type": "address"
        },
        {
          "components": [
            {
              "internalType": "address",
              "name": "owner",
              "type": "address"
            },
            {
              "internalType": "address",
              "name": "interpreter",
              "type": "address"
            },
            {
              "internalType": "EncodedDispatch",
              "name": "dispatch",
              "type": "uint256"
            },
            {
              "internalType": "EncodedDispatch",
              "name": "handleIODispatch",
              "type": "uint256"
            },
            {
              "components": [
                {
                  "internalType": "address",
                  "name": "token",
                  "type": "address"
                },
                {
                  "internalType": "uint8",
                  "name": "decimals",
                  "type": "uint8"
                },
                {
                  "internalType": "uint256",
                  "name": "vaultId",
                  "type": "uint256"
                }
              ],
              "internalType": "struct IO[]",
              "name": "validInputs",
              "type": "tuple[]"
            },
            {
              "components": [
                {
                  "internalType": "address",
                  "name": "token",
                  "type": "address"
                },
                {
                  "internalType": "uint8",
                  "name": "decimals",
                  "type": "uint8"
                },
                {
                  "internalType": "uint256",
                  "name": "vaultId",
                  "type": "uint256"
                }
              ],
              "internalType": "struct IO[]",
              "name": "validOutputs",
              "type": "tuple[]"
            },
            {
              "internalType": "bytes",
              "name": "data",
              "type": "bytes"
            }
          ],
          "indexed": false,
          "internalType": "struct Order",
          "name": "order",
          "type": "tuple"
        },
        {
          "indexed": false,
          "internalType": "uint256",
          "name": "orderHash",
          "type": "uint256"
        }
      ],
      "name": "AddOrder",
      "type": "event"
    },
    {
      "anonymous": false,
      "inputs": [
        {
          "components": [
            {
              "internalType": "uint256",
              "name": "aOutput",
              "type": "uint256"
            },
            {
              "internalType": "uint256",
              "name": "bOutput",
              "type": "uint256"
            },
            {
              "internalType": "uint256",
              "name": "aInput",
              "type": "uint256"
            },
            {
              "internalType": "uint256",
              "name": "bInput",
              "type": "uint256"
            }
          ],
          "indexed": false,
          "internalType": "struct ClearStateChange",
          "name": "clearStateChange",
          "type": "tuple"
        }
      ],
      "name": "AfterClear",
      "type": "event"
    },
    {
      "anonymous": false,
      "inputs": [
        {
          "indexed": false,
          "internalType": "address",
          "name": "sender",
          "type": "address"
        },
        {
          "components": [
            {
              "internalType": "address",
              "name": "owner",
              "type": "address"
            },
            {
              "internalType": "address",
              "name": "interpreter",
              "type": "address"
            },
            {
              "internalType": "EncodedDispatch",
              "name": "dispatch",
              "type": "uint256"
            },
            {
              "internalType": "EncodedDispatch",
              "name": "handleIODispatch",
              "type": "uint256"
            },
            {
              "components": [
                {
                  "internalType": "address",
                  "name": "token",
                  "type": "address"
                },
                {
                  "internalType": "uint8",
                  "name": "decimals",
                  "type": "uint8"
                },
                {
                  "internalType": "uint256",
                  "name": "vaultId",
                  "type": "uint256"
                }
              ],
              "internalType": "struct IO[]",
              "name": "validInputs",
              "type": "tuple[]"
            },
            {
              "components": [
                {
                  "internalType": "address",
                  "name": "token",
                  "type": "address"
                },
                {
                  "internalType": "uint8",
                  "name": "decimals",
                  "type": "uint8"
                },
                {
                  "internalType": "uint256",
                  "name": "vaultId",
                  "type": "uint256"
                }
              ],
              "internalType": "struct IO[]",
              "name": "validOutputs",
              "type": "tuple[]"
            },
            {
              "internalType": "bytes",
              "name": "data",
              "type": "bytes"
            }
          ],
          "indexed": false,
          "internalType": "struct Order",
          "name": "a",
          "type": "tuple"
        },
        {
          "components": [
            {
              "internalType": "address",
              "name": "owner",
              "type": "address"
            },
            {
              "internalType": "address",
              "name": "interpreter",
              "type": "address"
            },
            {
              "internalType": "EncodedDispatch",
              "name": "dispatch",
              "type": "uint256"
            },
            {
              "internalType": "EncodedDispatch",
              "name": "handleIODispatch",
              "type": "uint256"
            },
            {
              "components": [
                {
                  "internalType": "address",
                  "name": "token",
                  "type": "address"
                },
                {
                  "internalType": "uint8",
                  "name": "decimals",
                  "type": "uint8"
                },
                {
                  "internalType": "uint256",
                  "name": "vaultId",
                  "type": "uint256"
                }
              ],
              "internalType": "struct IO[]",
              "name": "validInputs",
              "type": "tuple[]"
            },
            {
              "components": [
                {
                  "internalType": "address",
                  "name": "token",
                  "type": "address"
                },
                {
                  "internalType": "uint8",
                  "name": "decimals",
                  "type": "uint8"
                },
                {
                  "internalType": "uint256",
                  "name": "vaultId",
                  "type": "uint256"
                }
              ],
              "internalType": "struct IO[]",
              "name": "validOutputs",
              "type": "tuple[]"
            },
            {
              "internalType": "bytes",
              "name": "data",
              "type": "bytes"
            }
          ],
          "indexed": false,
          "internalType": "struct Order",
          "name": "b",
          "type": "tuple"
        },
        {
          "components": [
            {
              "internalType": "uint256",
              "name": "aInputIOIndex",
              "type": "uint256"
            },
            {
              "internalType": "uint256",
              "name": "aOutputIOIndex",
              "type": "uint256"
            },
            {
              "internalType": "uint256",
              "name": "bInputIOIndex",
              "type": "uint256"
            },
            {
              "internalType": "uint256",
              "name": "bOutputIOIndex",
              "type": "uint256"
            },
            {
              "internalType": "uint256",
              "name": "aBountyVaultId",
              "type": "uint256"
            },
            {
              "internalType": "uint256",
              "name": "bBountyVaultId",
              "type": "uint256"
            }
          ],
          "indexed": false,
          "internalType": "struct ClearConfig",
          "name": "clearConfig",
          "type": "tuple"
        }
      ],
      "name": "Clear",
      "type": "event"
    },
    {
      "anonymous": false,
      "inputs": [
        {
          "indexed": false,
          "internalType": "address",
          "name": "sender",
          "type": "address"
        },
        {
          "components": [
            {
              "internalType": "address",
              "name": "token",
              "type": "address"
            },
            {
              "internalType": "uint256",
              "name": "vaultId",
              "type": "uint256"
            },
            {
              "internalType": "uint256",
              "name": "amount",
              "type": "uint256"
            }
          ],
          "indexed": false,
          "internalType": "struct DepositConfig",
          "name": "config",
          "type": "tuple"
        }
      ],
      "name": "Deposit",
      "type": "event"
    },
    {
      "anonymous": false,
      "inputs": [
        {
          "indexed": false,
          "internalType": "uint8",
          "name": "version",
          "type": "uint8"
        }
      ],
      "name": "Initialized",
      "type": "event"
    },
    {
      "anonymous": false,
      "inputs": [
        {
          "indexed": false,
          "internalType": "address",
          "name": "sender",
          "type": "address"
        },
        {
          "indexed": false,
          "internalType": "address",
          "name": "owner",
          "type": "address"
        },
        {
          "indexed": false,
          "internalType": "uint256",
          "name": "orderHash",
          "type": "uint256"
        }
      ],
      "name": "OrderExceedsMaxRatio",
      "type": "event"
    },
    {
      "anonymous": false,
      "inputs": [
        {
          "indexed": false,
          "internalType": "address",
          "name": "sender",
          "type": "address"
        },
        {
          "indexed": false,
          "internalType": "address",
          "name": "owner",
          "type": "address"
        },
        {
          "indexed": false,
          "internalType": "uint256",
          "name": "orderHash",
          "type": "uint256"
        }
      ],
      "name": "OrderNotFound",
      "type": "event"
    },
    {
      "anonymous": false,
      "inputs": [
        {
          "indexed": false,
          "internalType": "address",
          "name": "sender",
          "type": "address"
        },
        {
          "indexed": false,
          "internalType": "address",
          "name": "owner",
          "type": "address"
        },
        {
          "indexed": false,
          "internalType": "uint256",
          "name": "orderHash",
          "type": "uint256"
        }
      ],
      "name": "OrderZeroAmount",
      "type": "event"
    },
    {
      "anonymous": false,
      "inputs": [
        {
          "indexed": false,
          "internalType": "address",
          "name": "sender",
          "type": "address"
        },
        {
          "components": [
            {
              "internalType": "address",
              "name": "owner",
              "type": "address"
            },
            {
              "internalType": "address",
              "name": "interpreter",
              "type": "address"
            },
            {
              "internalType": "EncodedDispatch",
              "name": "dispatch",
              "type": "uint256"
            },
            {
              "internalType": "EncodedDispatch",
              "name": "handleIODispatch",
              "type": "uint256"
            },
            {
              "components": [
                {
                  "internalType": "address",
                  "name": "token",
                  "type": "address"
                },
                {
                  "internalType": "uint8",
                  "name": "decimals",
                  "type": "uint8"
                },
                {
                  "internalType": "uint256",
                  "name": "vaultId",
                  "type": "uint256"
                }
              ],
              "internalType": "struct IO[]",
              "name": "validInputs",
              "type": "tuple[]"
            },
            {
              "components": [
                {
                  "internalType": "address",
                  "name": "token",
                  "type": "address"
                },
                {
                  "internalType": "uint8",
                  "name": "decimals",
                  "type": "uint8"
                },
                {
                  "internalType": "uint256",
                  "name": "vaultId",
                  "type": "uint256"
                }
              ],
              "internalType": "struct IO[]",
              "name": "validOutputs",
              "type": "tuple[]"
            },
            {
              "internalType": "bytes",
              "name": "data",
              "type": "bytes"
            }
          ],
          "indexed": false,
          "internalType": "struct Order",
          "name": "order",
          "type": "tuple"
        },
        {
          "indexed": false,
          "internalType": "uint256",
          "name": "orderHash",
          "type": "uint256"
        }
      ],
      "name": "RemoveOrder",
      "type": "event"
    },
    {
      "anonymous": false,
      "inputs": [
        {
          "indexed": false,
          "internalType": "address",
          "name": "sender",
          "type": "address"
        },
        {
          "components": [
            {
              "components": [
                {
                  "internalType": "address",
                  "name": "owner",
                  "type": "address"
                },
                {
                  "internalType": "address",
                  "name": "interpreter",
                  "type": "address"
                },
                {
                  "internalType": "EncodedDispatch",
                  "name": "dispatch",
                  "type": "uint256"
                },
                {
                  "internalType": "EncodedDispatch",
                  "name": "handleIODispatch",
                  "type": "uint256"
                },
                {
                  "components": [
                    {
                      "internalType": "address",
                      "name": "token",
                      "type": "address"
                    },
                    {
                      "internalType": "uint8",
                      "name": "decimals",
                      "type": "uint8"
                    },
                    {
                      "internalType": "uint256",
                      "name": "vaultId",
                      "type": "uint256"
                    }
                  ],
                  "internalType": "struct IO[]",
                  "name": "validInputs",
                  "type": "tuple[]"
                },
                {
                  "components": [
                    {
                      "internalType": "address",
                      "name": "token",
                      "type": "address"
                    },
                    {
                      "internalType": "uint8",
                      "name": "decimals",
                      "type": "uint8"
                    },
                    {
                      "internalType": "uint256",
                      "name": "vaultId",
                      "type": "uint256"
                    }
                  ],
                  "internalType": "struct IO[]",
                  "name": "validOutputs",
                  "type": "tuple[]"
                },
                {
                  "internalType": "bytes",
                  "name": "data",
                  "type": "bytes"
                }
              ],
              "internalType": "struct Order",
              "name": "order",
              "type": "tuple"
            },
            {
              "internalType": "uint256",
              "name": "inputIOIndex",
              "type": "uint256"
            },
            {
              "internalType": "uint256",
              "name": "outputIOIndex",
              "type": "uint256"
            }
          ],
          "indexed": false,
          "internalType": "struct TakeOrderConfig",
          "name": "takeOrder",
          "type": "tuple"
        },
        {
          "indexed": false,
          "internalType": "uint256",
          "name": "input",
          "type": "uint256"
        },
        {
          "indexed": false,
          "internalType": "uint256",
          "name": "output",
          "type": "uint256"
        }
      ],
      "name": "TakeOrder",
      "type": "event"
    },
    {
      "anonymous": false,
      "inputs": [
        {
          "indexed": false,
          "internalType": "address",
          "name": "sender",
          "type": "address"
        },
        {
          "components": [
            {
              "internalType": "address",
              "name": "token",
              "type": "address"
            },
            {
              "internalType": "uint256",
              "name": "vaultId",
              "type": "uint256"
            },
            {
              "internalType": "uint256",
              "name": "amount",
              "type": "uint256"
            }
          ],
          "indexed": false,
          "internalType": "struct WithdrawConfig",
          "name": "config",
          "type": "tuple"
        },
        {
          "indexed": false,
          "internalType": "uint256",
          "name": "amount",
          "type": "uint256"
        }
      ],
      "name": "Withdraw",
      "type": "event"
    },
    {
      "inputs": [],
      "name": "CALLBACK_SUCCESS",
      "outputs": [
        {
          "internalType": "bytes32",
          "name": "",
          "type": "bytes32"
        }
      ],
      "stateMutability": "view",
      "type": "function"
    },
    {
      "inputs": [
        {
          "components": [
            {
              "internalType": "address",
              "name": "expressionDeployer",
              "type": "address"
            },
            {
              "internalType": "address",
              "name": "interpreter",
              "type": "address"
            },
            {
              "components": [
                {
                  "internalType": "bytes[]",
                  "name": "sources",
                  "type": "bytes[]"
                },
                {
                  "internalType": "uint256[]",
                  "name": "constants",
                  "type": "uint256[]"
                }
              ],
              "internalType": "struct StateConfig",
              "name": "interpreterStateConfig",
              "type": "tuple"
            },
            {
              "components": [
                {
                  "internalType": "address",
                  "name": "token",
                  "type": "address"
                },
                {
                  "internalType": "uint8",
                  "name": "decimals",
                  "type": "uint8"
                },
                {
                  "internalType": "uint256",
                  "name": "vaultId",
                  "type": "uint256"
                }
              ],
              "internalType": "struct IO[]",
              "name": "validInputs",
              "type": "tuple[]"
            },
            {
              "components": [
                {
                  "internalType": "address",
                  "name": "token",
                  "type": "address"
                },
                {
                  "internalType": "uint8",
                  "name": "decimals",
                  "type": "uint8"
                },
                {
                  "internalType": "uint256",
                  "name": "vaultId",
                  "type": "uint256"
                }
              ],
              "internalType": "struct IO[]",
              "name": "validOutputs",
              "type": "tuple[]"
            },
            {
              "internalType": "bytes",
              "name": "data",
              "type": "bytes"
            }
          ],
          "internalType": "struct OrderConfig",
          "name": "config_",
          "type": "tuple"
        }
      ],
      "name": "addOrder",
      "outputs": [],
      "stateMutability": "nonpayable",
      "type": "function"
    },
    {
      "inputs": [
        {
          "components": [
            {
              "internalType": "address",
              "name": "owner",
              "type": "address"
            },
            {
              "internalType": "address",
              "name": "interpreter",
              "type": "address"
            },
            {
              "internalType": "EncodedDispatch",
              "name": "dispatch",
              "type": "uint256"
            },
            {
              "internalType": "EncodedDispatch",
              "name": "handleIODispatch",
              "type": "uint256"
            },
            {
              "components": [
                {
                  "internalType": "address",
                  "name": "token",
                  "type": "address"
                },
                {
                  "internalType": "uint8",
                  "name": "decimals",
                  "type": "uint8"
                },
                {
                  "internalType": "uint256",
                  "name": "vaultId",
                  "type": "uint256"
                }
              ],
              "internalType": "struct IO[]",
              "name": "validInputs",
              "type": "tuple[]"
            },
            {
              "components": [
                {
                  "internalType": "address",
                  "name": "token",
                  "type": "address"
                },
                {
                  "internalType": "uint8",
                  "name": "decimals",
                  "type": "uint8"
                },
                {
                  "internalType": "uint256",
                  "name": "vaultId",
                  "type": "uint256"
                }
              ],
              "internalType": "struct IO[]",
              "name": "validOutputs",
              "type": "tuple[]"
            },
            {
              "internalType": "bytes",
              "name": "data",
              "type": "bytes"
            }
          ],
          "internalType": "struct Order",
          "name": "a_",
          "type": "tuple"
        },
        {
          "components": [
            {
              "internalType": "address",
              "name": "owner",
              "type": "address"
            },
            {
              "internalType": "address",
              "name": "interpreter",
              "type": "address"
            },
            {
              "internalType": "EncodedDispatch",
              "name": "dispatch",
              "type": "uint256"
            },
            {
              "internalType": "EncodedDispatch",
              "name": "handleIODispatch",
              "type": "uint256"
            },
            {
              "components": [
                {
                  "internalType": "address",
                  "name": "token",
                  "type": "address"
                },
                {
                  "internalType": "uint8",
                  "name": "decimals",
                  "type": "uint8"
                },
                {
                  "internalType": "uint256",
                  "name": "vaultId",
                  "type": "uint256"
                }
              ],
              "internalType": "struct IO[]",
              "name": "validInputs",
              "type": "tuple[]"
            },
            {
              "components": [
                {
                  "internalType": "address",
                  "name": "token",
                  "type": "address"
                },
                {
                  "internalType": "uint8",
                  "name": "decimals",
                  "type": "uint8"
                },
                {
                  "internalType": "uint256",
                  "name": "vaultId",
                  "type": "uint256"
                }
              ],
              "internalType": "struct IO[]",
              "name": "validOutputs",
              "type": "tuple[]"
            },
            {
              "internalType": "bytes",
              "name": "data",
              "type": "bytes"
            }
          ],
          "internalType": "struct Order",
          "name": "b_",
          "type": "tuple"
        },
        {
          "components": [
            {
              "internalType": "uint256",
              "name": "aInputIOIndex",
              "type": "uint256"
            },
            {
              "internalType": "uint256",
              "name": "aOutputIOIndex",
              "type": "uint256"
            },
            {
              "internalType": "uint256",
              "name": "bInputIOIndex",
              "type": "uint256"
            },
            {
              "internalType": "uint256",
              "name": "bOutputIOIndex",
              "type": "uint256"
            },
            {
              "internalType": "uint256",
              "name": "aBountyVaultId",
              "type": "uint256"
            },
            {
              "internalType": "uint256",
              "name": "bBountyVaultId",
              "type": "uint256"
            }
          ],
          "internalType": "struct ClearConfig",
          "name": "clearConfig_",
          "type": "tuple"
        }
      ],
      "name": "clear",
      "outputs": [],
      "stateMutability": "nonpayable",
      "type": "function"
    },
    {
      "inputs": [
        {
          "components": [
            {
              "internalType": "address",
              "name": "token",
              "type": "address"
            },
            {
              "internalType": "uint256",
              "name": "vaultId",
              "type": "uint256"
            },
            {
              "internalType": "uint256",
              "name": "amount",
              "type": "uint256"
            }
          ],
          "internalType": "struct DepositConfig",
          "name": "config_",
          "type": "tuple"
        }
      ],
      "name": "deposit",
      "outputs": [],
      "stateMutability": "nonpayable",
      "type": "function"
    },
    {
      "inputs": [
        {
          "internalType": "address",
          "name": "",
          "type": "address"
        },
        {
          "internalType": "uint256",
          "name": "",
          "type": "uint256"
        }
      ],
      "name": "flashFee",
      "outputs": [
        {
          "internalType": "uint256",
          "name": "",
          "type": "uint256"
        }
      ],
      "stateMutability": "pure",
      "type": "function"
    },
    {
      "inputs": [
        {
          "internalType": "contract IERC3156FlashBorrower",
          "name": "receiver_",
          "type": "address"
        },
        {
          "internalType": "address",
          "name": "token_",
          "type": "address"
        },
        {
          "internalType": "uint256",
          "name": "amount_",
          "type": "uint256"
        },
        {
          "internalType": "bytes",
          "name": "data_",
          "type": "bytes"
        }
      ],
      "name": "flashLoan",
      "outputs": [
        {
          "internalType": "bool",
          "name": "",
          "type": "bool"
        }
      ],
      "stateMutability": "nonpayable",
      "type": "function"
    },
    {
      "inputs": [
        {
          "internalType": "address",
          "name": "token_",
          "type": "address"
        }
      ],
      "name": "maxFlashLoan",
      "outputs": [
        {
          "internalType": "uint256",
          "name": "",
          "type": "uint256"
        }
      ],
      "stateMutability": "view",
      "type": "function"
    },
    {
      "inputs": [
        {
          "internalType": "bytes[]",
          "name": "data",
          "type": "bytes[]"
        }
      ],
      "name": "multicall",
      "outputs": [
        {
          "internalType": "bytes[]",
          "name": "results",
          "type": "bytes[]"
        }
      ],
      "stateMutability": "nonpayable",
      "type": "function"
    },
    {
      "inputs": [
        {
          "components": [
            {
              "internalType": "address",
              "name": "owner",
              "type": "address"
            },
            {
              "internalType": "address",
              "name": "interpreter",
              "type": "address"
            },
            {
              "internalType": "EncodedDispatch",
              "name": "dispatch",
              "type": "uint256"
            },
            {
              "internalType": "EncodedDispatch",
              "name": "handleIODispatch",
              "type": "uint256"
            },
            {
              "components": [
                {
                  "internalType": "address",
                  "name": "token",
                  "type": "address"
                },
                {
                  "internalType": "uint8",
                  "name": "decimals",
                  "type": "uint8"
                },
                {
                  "internalType": "uint256",
                  "name": "vaultId",
                  "type": "uint256"
                }
              ],
              "internalType": "struct IO[]",
              "name": "validInputs",
              "type": "tuple[]"
            },
            {
              "components": [
                {
                  "internalType": "address",
                  "name": "token",
                  "type": "address"
                },
                {
                  "internalType": "uint8",
                  "name": "decimals",
                  "type": "uint8"
                },
                {
                  "internalType": "uint256",
                  "name": "vaultId",
                  "type": "uint256"
                }
              ],
              "internalType": "struct IO[]",
              "name": "validOutputs",
              "type": "tuple[]"
            },
            {
              "internalType": "bytes",
              "name": "data",
              "type": "bytes"
            }
          ],
          "internalType": "struct Order",
          "name": "order_",
          "type": "tuple"
        }
      ],
      "name": "removeOrder",
      "outputs": [],
      "stateMutability": "nonpayable",
      "type": "function"
    },
    {
      "inputs": [
        {
          "components": [
            {
              "internalType": "address",
              "name": "output",
              "type": "address"
            },
            {
              "internalType": "address",
              "name": "input",
              "type": "address"
            },
            {
              "internalType": "uint256",
              "name": "minimumInput",
              "type": "uint256"
            },
            {
              "internalType": "uint256",
              "name": "maximumInput",
              "type": "uint256"
            },
            {
              "internalType": "uint256",
              "name": "maximumIORatio",
              "type": "uint256"
            },
            {
              "components": [
                {
                  "components": [
                    {
                      "internalType": "address",
                      "name": "owner",
                      "type": "address"
                    },
                    {
                      "internalType": "address",
                      "name": "interpreter",
                      "type": "address"
                    },
                    {
                      "internalType": "EncodedDispatch",
                      "name": "dispatch",
                      "type": "uint256"
                    },
                    {
                      "internalType": "EncodedDispatch",
                      "name": "handleIODispatch",
                      "type": "uint256"
                    },
                    {
                      "components": [
                        {
                          "internalType": "address",
                          "name": "token",
                          "type": "address"
                        },
                        {
                          "internalType": "uint8",
                          "name": "decimals",
                          "type": "uint8"
                        },
                        {
                          "internalType": "uint256",
                          "name": "vaultId",
                          "type": "uint256"
                        }
                      ],
                      "internalType": "struct IO[]",
                      "name": "validInputs",
                      "type": "tuple[]"
                    },
                    {
                      "components": [
                        {
                          "internalType": "address",
                          "name": "token",
                          "type": "address"
                        },
                        {
                          "internalType": "uint8",
                          "name": "decimals",
                          "type": "uint8"
                        },
                        {
                          "internalType": "uint256",
                          "name": "vaultId",
                          "type": "uint256"
                        }
                      ],
                      "internalType": "struct IO[]",
                      "name": "validOutputs",
                      "type": "tuple[]"
                    },
                    {
                      "internalType": "bytes",
                      "name": "data",
                      "type": "bytes"
                    }
                  ],
                  "internalType": "struct Order",
                  "name": "order",
                  "type": "tuple"
                },
                {
                  "internalType": "uint256",
                  "name": "inputIOIndex",
                  "type": "uint256"
                },
                {
                  "internalType": "uint256",
                  "name": "outputIOIndex",
                  "type": "uint256"
                }
              ],
              "internalType": "struct TakeOrderConfig[]",
              "name": "orders",
              "type": "tuple[]"
            }
          ],
          "internalType": "struct TakeOrdersConfig",
          "name": "takeOrders_",
          "type": "tuple"
        }
      ],
      "name": "takeOrders",
      "outputs": [
        {
          "internalType": "uint256",
          "name": "totalInput_",
          "type": "uint256"
        },
        {
          "internalType": "uint256",
          "name": "totalOutput_",
          "type": "uint256"
        }
      ],
      "stateMutability": "nonpayable",
      "type": "function"
    },
    {
      "inputs": [
        {
          "internalType": "address",
          "name": "",
          "type": "address"
        },
        {
          "internalType": "address",
          "name": "",
          "type": "address"
        },
        {
          "internalType": "uint256",
          "name": "",
          "type": "uint256"
        }
      ],
      "name": "vaultBalance",
      "outputs": [
        {
          "internalType": "uint256",
          "name": "",
          "type": "uint256"
        }
      ],
      "stateMutability": "view",
      "type": "function"
    },
    {
      "inputs": [
        {
          "components": [
            {
              "internalType": "address",
              "name": "token",
              "type": "address"
            },
            {
              "internalType": "uint256",
              "name": "vaultId",
              "type": "uint256"
            },
            {
              "internalType": "uint256",
              "name": "amount",
              "type": "uint256"
            }
          ],
          "internalType": "struct WithdrawConfig",
          "name": "config_",
          "type": "tuple"
        }
      ],
      "name": "withdraw",
      "outputs": [],
      "stateMutability": "nonpayable",
      "type": "function"
    }
  ],
  "bytecode": "0x60806040523480156200001157600080fd5b50600054610100900460ff1615808015620000335750600054600160ff909116105b8062000063575062000050306200015260201b620018991760201c565b15801562000063575060005460ff166001145b620000cc5760405162461bcd60e51b815260206004820152602e60248201527f496e697469616c697a61626c653a20636f6e747261637420697320616c72656160448201526d191e481a5b9a5d1a585b1a5e995960921b60648201526084015b60405180910390fd5b6000805460ff191660011790558015620000f0576000805461ff0019166101001790555b620000fa62000161565b62000104620001c9565b80156200014b576000805461ff0019169055604051600181527f7f26b83ff96e1f2b6a682f133852f6798a09c465da95921460cefb38474024989060200160405180910390a15b5062000287565b6001600160a01b03163b151590565b600054610100900460ff16620001bd5760405162461bcd60e51b815260206004820152602b602482015260008051602062004a5183398151915260448201526a6e697469616c697a696e6760a81b6064820152608401620000c3565b620001c762000225565b565b600054610100900460ff16620001c75760405162461bcd60e51b815260206004820152602b602482015260008051602062004a5183398151915260448201526a6e697469616c697a696e6760a81b6064820152608401620000c3565b600054610100900460ff16620002815760405162461bcd60e51b815260206004820152602b602482015260008051602062004a5183398151915260448201526a6e697469616c697a696e6760a81b6064820152608401620000c3565b60018055565b6147ba80620002976000396000f3fe608060405234801561001057600080fd5b50600436106100d45760003560e01c8063ac9650d811610081578063d9d98ce41161005b578063d9d98ce4146101e8578063e6b62636146101fe578063f7ae043a1461021157600080fd5b8063ac9650d814610184578063c325bfff146101a4578063d97b2e48146101b757600080fd5b80635cffe9de116100b25780635cffe9de14610114578063613255ab1461013c5780638237e5381461015d57600080fd5b80631f716e06146100d95780633d3d286f146100ee5780634f26618714610101575b600080fd5b6100ec6100e7366004613244565b610239565b005b6100ec6100fc366004613297565b610357565b6100ec61010f3660046132de565b610641565b610127610122366004613327565b61078b565b60405190151581526020015b60405180910390f35b61014f61014a3660046133c6565b6108d7565b604051908152602001610133565b61014f7f439148f0bbc682ca079e46d6e2c2f0c1e3b820f1a291b069d8882abf8cf18dd981565b6101976101923660046133e3565b61096e565b60405161013391906134c6565b6100ec6101b236600461385c565b610a63565b61014f6101c53660046138d2565b606760209081526000938452604080852082529284528284209052825290205481565b61014f6101f6366004613913565b600092915050565b6100ec61020c3660046132de565b611201565b61022461021f366004613297565b611309565b60408051928352602083019190915201610133565b6102416118b5565b61024e60208201826133c6565b73ffffffffffffffffffffffffffffffffffffffff163373ffffffffffffffffffffffffffffffffffffffff16146102e7576040517f08c379a000000000000000000000000000000000000000000000000000000000815260206004820152600560248201527f4f574e455200000000000000000000000000000000000000000000000000000060448201526064015b60405180910390fd5b60006102fa6102f58361393f565b611928565b60008181526066602052604080822091909155519091507f6dc347e6969ea1c8495368209ce006ca56804623691335f306536e8b00e7f7799061034290339085908590613ada565b60405180910390a15061035460018055565b50565b61035f6118b5565b600061036e60208301836133c6565b73ffffffffffffffffffffffffffffffffffffffff16631ed061d96103966040850185613bf1565b6103a260026000611977565b6040518363ffffffff1660e01b81526004016103bf929190613cc6565b6020604051808303816000875af11580156103de573d6000803e3d6000fd5b505050506040513d601f19601f820116820180604052508101906104029190613de9565b905060006040518060e001604052803373ffffffffffffffffffffffffffffffffffffffff16815260200184602001602081019061044091906133c6565b73ffffffffffffffffffffffffffffffffffffffff16815260200161046884600060026119ab565b8152602001600061047c6040870187613bf1565b6104869080613e06565b600181811061049757610497613e6e565b90506020028101906104a99190613e9d565b9050116104b75760006104c5565b6104c584600161ffff6119ab565b81526020016104d76060860186613f02565b808060200260200160405190810160405280939291908181526020016000905b828210156105235761051460608302860136819003810190613f69565b815260200190600101906104f7565b505050918352505060200161053b6080860186613f02565b808060200260200160405190810160405280939291908181526020016000905b828210156105875761057860608302860136819003810190613f69565b8152602001906001019061055b565b505050918352505060200161059f60a0860186613e9d565b8080601f0160208091040260200160405190810160405280939291908181526020018383808284376000920182905250939094525092935091506105e4905082611928565b6000818152606660205260409081902060019055519091507f7e4a3d1b8b320d979824450641b0d97507684bf55eafb4503032f4042f8fbf8d9061062d9033908590859061406e565b60405180910390a150505061035460018055565b6106496118b5565b3360009081526067602090815260408220908290610669908501856133c6565b73ffffffffffffffffffffffffffffffffffffffff168152602080820192909252604090810160009081208584013582529092528082205492506106b090840135836119da565b90506106bc81836140dc565b336000908152606760209081526040822091906106db908701876133c6565b73ffffffffffffffffffffffffffffffffffffffff1673ffffffffffffffffffffffffffffffffffffffff168152602001908152602001600020600085602001358152602001908152602001600020819055507f2538ccc7ad2a119a36f2e65c1e2fc908beef800cd59b5d6680db24de18e7847a33848360405161076193929190614127565b60405180910390a161078061077960208501856133c6565b33836119f0565b505061035460018055565b6000610798858786611ae8565b6040517f23e30c8b0000000000000000000000000000000000000000000000000000000081527f439148f0bbc682ca079e46d6e2c2f0c1e3b820f1a291b069d8882abf8cf18dd99073ffffffffffffffffffffffffffffffffffffffff8816906323e30c8b906108179033908a908a906000908b908b9060040161415f565b6020604051808303816000875af1158015610836573d6000803e3d6000fd5b505050506040513d601f19601f8201168201806040525081019061085a91906141b1565b146108c1576040517f08c379a000000000000000000000000000000000000000000000000000000000815260206004820152601c60248201527f466c6173684c656e6465723a2043616c6c6261636b206661696c65640000000060448201526064016102de565b6108cb8587611b53565b50600195945050505050565b6040517f70a0823100000000000000000000000000000000000000000000000000000000815230600482015260009073ffffffffffffffffffffffffffffffffffffffff8316906370a0823190602401602060405180830381865afa158015610944573d6000803e3d6000fd5b505050506040513d601f19601f8201168201806040525081019061096891906141b1565b92915050565b60608167ffffffffffffffff81111561098957610989613546565b6040519080825280602002602001820160405280156109bc57816020015b60608152602001906001900390816109a75790505b50905060005b82811015610a5c57610a2c308585848181106109e0576109e0613e6e565b90506020028101906109f29190613e9d565b8080601f016020809104026020016040519081016040528093929190818152602001838380828437600092019190915250611c9292505050565b828281518110610a3e57610a3e613e6e565b60200260200101819052508080610a54906141ca565b9150506109c2565b5092915050565b610a6b6118b5565b8151835173ffffffffffffffffffffffffffffffffffffffff918216911603610af0576040517f08c379a000000000000000000000000000000000000000000000000000000000815260206004820152600a60248201527f53414d455f4f574e45520000000000000000000000000000000000000000000060448201526064016102de565b8160800151816040013581518110610b0a57610b0a613e6e565b60200260200101516000015173ffffffffffffffffffffffffffffffffffffffff168360a00151826020013581518110610b4657610b46613e6e565b60200260200101516000015173ffffffffffffffffffffffffffffffffffffffff1614610bcf576040517f08c379a000000000000000000000000000000000000000000000000000000000815260206004820152600e60248201527f544f4b454e5f4d49534d4154434800000000000000000000000000000000000060448201526064016102de565b608083015180518235908110610be757610be7613e6e565b60200260200101516000015173ffffffffffffffffffffffffffffffffffffffff168260a00151826060013581518110610c2357610c23613e6e565b60200260200101516000015173ffffffffffffffffffffffffffffffffffffffff1614610cac576040517f08c379a000000000000000000000000000000000000000000000000000000000815260206004820152600e60248201527f544f4b454e5f4d49534d4154434800000000000000000000000000000000000060448201526064016102de565b600060666000610cbb86611928565b81526020019081526020016000205411610d31576040517f08c379a000000000000000000000000000000000000000000000000000000000815260206004820152600a60248201527f415f4e4f545f4c4956450000000000000000000000000000000000000000000060448201526064016102de565b600060666000610d4085611928565b81526020019081526020016000205411610db6576040517f08c379a000000000000000000000000000000000000000000000000000000000815260206004820152600a60248201527f425f4e4f545f4c4956450000000000000000000000000000000000000000000060448201526064016102de565b7f4578a20a33a65a80c6431b4b129eeadede7b9f012a55e153a492c294c6d7f47533848484604051610deb9493929190614202565b60405180910390a1610e426040518060c00160405280600081526020016000815260200160608152602001600073ffffffffffffffffffffffffffffffffffffffff16815260200160008152602001606081525090565b610e916040518060c00160405280600081526020016000815260200160608152602001600073ffffffffffffffffffffffffffffffffffffffff16815260200160008152602001606081525090565b610ebc6040518060800160405280600081526020016000815260200160008152602001600081525090565b610ed486856000013586602001358860000151611dd1565b9250610eee85856040013586606001358960000151611dd1565b60208101518151919350610f0d91610f059161272e565b8451906119da565b815260208301518351610f2c91610f24919061272e565b8351906119da565b60208201528051151580610f44575060008160200151115b610faa576040517f08c379a000000000000000000000000000000000000000000000000000000000815260206004820152600760248201527f305f434c4541520000000000000000000000000000000000000000000000000060448201526064016102de565b60208301518151610fba9161272e565b604082015260208083015190820151610fd29161272e565b81606001818152505061100286826040015183600001518660400151876060015188608001518960a00151612743565b61102985826060015183602001518560400151866060015187608001518860a00151612743565b6060810151815160009161103c916140dc565b905060008260400151836020015161105491906140dc565b905081156110fa57336000908152606760209081526040822060a08b01518051869492938b013590811061108a5761108a613e6e565b60200260200101516000015173ffffffffffffffffffffffffffffffffffffffff1673ffffffffffffffffffffffffffffffffffffffff16815260200190815260200160002060008860800135815260200190815260200160002060008282546110f4919061428c565b90915550505b801561119e5733600090815260676020526040812060a089015180518493919060608b013590811061112e5761112e613e6e565b60200260200101516000015173ffffffffffffffffffffffffffffffffffffffff1673ffffffffffffffffffffffffffffffffffffffff16815260200190815260200160002060008860a0013581526020019081526020016000206000828254611198919061428c565b90915550505b505060408051825181526020808401519082015282820151818301526060808401519082015290517f3e673c18070310617c4b157f17e875bbc59a81b0f5107d346dfed8775de6f0f79181900360800190a15050506111fc60018055565b505050565b6112096118b5565b3360009081526067602090815260408083209084013592909161122e908501856133c6565b73ffffffffffffffffffffffffffffffffffffffff1673ffffffffffffffffffffffffffffffffffffffff168152602001908152602001600020600083602001358152602001908152602001600020600082825461128c919061428c565b90915550506040517fadc7bd964a04a8a02261d33d2d09c6a7d9f539bc5eab77008e85fc6661ef1231906112c3903390849061429f565b60405180910390a1611300333060408401356112e260208601866133c6565b73ffffffffffffffffffffffffffffffffffffffff16929190612b8f565b61035460018055565b6000806113146118b5565b6040805161014081018252600060608083018281526080840183905260a0840183905260c0840183905260e0840182905261010084018290526101208401919091528252602082018190529181018290526113d16040518060e00160405280600073ffffffffffffffffffffffffffffffffffffffff168152602001600073ffffffffffffffffffffffffffffffffffffffff16815260200160008152602001600081526020016060815260200160608152602001606081525090565b60608601355b6113e460a0880188613e06565b9050841080156113f45750600081115b156117dc5761140660a0880188613e06565b8581811061141657611416613e6e565b905060200281019061142891906142c9565b611431906142fd565b80519093509150600061144383611928565b600081815260666020526040812054919250036114b75782516040805133815273ffffffffffffffffffffffffffffffffffffffff909216602083015281018290527fe721f6888210c87666d3888f93b4139a86ab7757999ce54e268cba700d642a3b9060600160405180910390a16117d0565b6114c460208901896133c6565b73ffffffffffffffffffffffffffffffffffffffff1683608001518560200151815181106114f4576114f4613e6e565b60200260200101516000015173ffffffffffffffffffffffffffffffffffffffff161461157d576040517f08c379a000000000000000000000000000000000000000000000000000000000815260206004820152600e60248201527f544f4b454e5f4d49534d4154434800000000000000000000000000000000000060448201526064016102de565b61158d6040890160208a016133c6565b73ffffffffffffffffffffffffffffffffffffffff168360a001518560400151815181106115bd576115bd613e6e565b60200260200101516000015173ffffffffffffffffffffffffffffffffffffffff1614611646576040517f08c379a000000000000000000000000000000000000000000000000000000000815260206004820152600e60248201527f544f4b454e5f4d49534d4154434800000000000000000000000000000000000060448201526064016102de565b600061165c848660200151876040015133611dd1565b90508860800135816020015111156116cc5783516040805133815273ffffffffffffffffffffffffffffffffffffffff909216602083015281018390527f460c258f27efac20e56c4607a28003d235168e76997ffb7542637d26d45ea6d8906060015b60405180910390a16117ce565b805160000361172a5783516040805133815273ffffffffffffffffffffffffffffffffffffffff909216602083015281018390527f3ba461a0ffd1b6782d4817ae7be605cfb1bbb4fa503c0dd613b8e50f1dcafacd906060016116bf565b805160009061173a9085906119da565b9050600061175583602001518361272e90919063ffffffff16565b905061176182866140dc565b945061176d818a61428c565b985061178e8682848660400151876060015188608001518960a00151612743565b7f41b0ea9331ded332ca7722c5f71c743f3a1a4c058177fee9488a8813ebbb21af338884846040516117c3949392919061435a565b60405180910390a150505b505b506001909301926113d7565b6117ea8160608901356140dc565b9550866040013586101561185a576040517f08c379a000000000000000000000000000000000000000000000000000000000815260206004820152600960248201527f4d494e5f494e505554000000000000000000000000000000000000000000000060448201526064016102de565b61186d3330876112e260208c018c6133c6565b6118876118806040890160208a016133c6565b33886119f0565b5050505061189460018055565b915091565b73ffffffffffffffffffffffffffffffffffffffff163b151590565b600260015403611921576040517f08c379a000000000000000000000000000000000000000000000000000000000815260206004820152601f60248201527f5265656e7472616e637947756172643a207265656e7472616e742063616c6c0060448201526064016102de565b6002600155565b60008160405160200161193b91906143b9565b604080517fffffffffffffffffffffffffffffffffffffffffffffffffffffffffffffffe0818403018152919052805160209091012092915050565b6040805160028082526060808301845292600092919060208301908036833750505060208101949094525050604082015290565b77ffffffffffffffffffffffffffffffffffffffff00000000602084901b16601083901b1781175b9392505050565b60008183106119e957816119d3565b5090919050565b73ffffffffffffffffffffffffffffffffffffffff80841660009081526065602090815260408083209386168352929052205480821115611a98578015611a675773ffffffffffffffffffffffffffffffffffffffff80851660009081526065602090815260408083209387168352929052908120555b611a9383611a7583856140dc565b73ffffffffffffffffffffffffffffffffffffffff87169190612c6b565b611ae2565b73ffffffffffffffffffffffffffffffffffffffff808516600090815260656020908152604080832093871683529290529081208054849290611adc9084906140dc565b90915550505b50505050565b73ffffffffffffffffffffffffffffffffffffffff808416600090815260656020908152604080832093861683529290529081208054839290611b2c90849061428c565b909155506111fc905073ffffffffffffffffffffffffffffffffffffffff84168383612c6b565b73ffffffffffffffffffffffffffffffffffffffff8083166000908152606560209081526040808320938516835292905220548015611bf857611bae73ffffffffffffffffffffffffffffffffffffffff8416833084612b8f565b73ffffffffffffffffffffffffffffffffffffffff808416600090815260656020908152604080832093861683529290529081208054839290611bf29084906140dc565b90915550505b73ffffffffffffffffffffffffffffffffffffffff808416600090815260656020908152604080832093861683529290522054156111fc576040517f08c379a000000000000000000000000000000000000000000000000000000000815260206004820152600860248201527f4241445f4445425400000000000000000000000000000000000000000000000060448201526064016102de565b606073ffffffffffffffffffffffffffffffffffffffff83163b611d38576040517f08c379a000000000000000000000000000000000000000000000000000000000815260206004820152602660248201527f416464726573733a2064656c65676174652063616c6c20746f206e6f6e2d636f60448201527f6e7472616374000000000000000000000000000000000000000000000000000060648201526084016102de565b6000808473ffffffffffffffffffffffffffffffffffffffff1684604051611d6091906143cc565b600060405180830381855af49150503d8060008114611d9b576040519150601f19603f3d011682016040523d82523d6000602084013e611da0565b606091505b5091509150611dc8828260405180606001604052806027815260200161475e60279139612cc1565b95945050505050565b611e206040518060c00160405280600081526020016000815260200160608152602001600073ffffffffffffffffffffffffffffffffffffffff16815260200160008152602001606081525090565b6000611e2b86611928565b60408051600480825260a0820190925291925060009190816020015b6060815260200190600190039081611e47579050509050611e9982886000015173ffffffffffffffffffffffffffffffffffffffff168673ffffffffffffffffffffffffffffffffffffffff16612cda565b81600081518110611eac57611eac613e6e565b602090810291909101015260408051600580825260c08201909252908160200160208202803683370190505081600281518110611eeb57611eeb613e6e565b602090810291909101015260408051600580825260c08201909252908160200160208202803683370190505081600381518110611f2a57611f2a613e6e565b602002602001018190525086608001518681518110611f4b57611f4b613e6e565b60200260200101516000015173ffffffffffffffffffffffffffffffffffffffff1681600281518110611f8057611f80613e6e565b6020026020010151600081518110611f9a57611f9a613e6e565b6020026020010181815250508660a001518581518110611fbc57611fbc613e6e565b60200260200101516000015173ffffffffffffffffffffffffffffffffffffffff1681600381518110611ff157611ff1613e6e565b602002602001015160008151811061200b5761200b613e6e565b6020026020010181815250508660800151868151811061202d5761202d613e6e565b60200260200101516020015160ff168160028151811061204f5761204f613e6e565b602002602001015160018151811061206957612069613e6e565b6020026020010181815250508660a00151858151811061208b5761208b613e6e565b60200260200101516020015160ff16816003815181106120ad576120ad613e6e565b60200260200101516001815181106120c7576120c7613e6e565b602002602001018181525050866080015186815181106120e9576120e9613e6e565b6020026020010151604001518160028151811061210857612108613e6e565b602002602001015160028151811061212257612122613e6e565b6020026020010181815250508660a00151858151811061214457612144613e6e565b6020026020010151604001518160038151811061216357612163613e6e565b602002602001015160028151811061217d5761217d613e6e565b60200260200101818152505060676000886000015173ffffffffffffffffffffffffffffffffffffffff1673ffffffffffffffffffffffffffffffffffffffff1681526020019081526020016000206000886080015188815181106121e4576121e4613e6e565b60200260200101516000015173ffffffffffffffffffffffffffffffffffffffff1673ffffffffffffffffffffffffffffffffffffffff16815260200190815260200160002060008860800151888151811061224257612242613e6e565b6020026020010151604001518152602001908152602001600020548160028151811061227057612270613e6e565b602002602001015160038151811061228a5761228a613e6e565b60200260200101818152505060676000886000015173ffffffffffffffffffffffffffffffffffffffff1673ffffffffffffffffffffffffffffffffffffffff16815260200190815260200160002060008860a0015187815181106122f1576122f1613e6e565b60200260200101516000015173ffffffffffffffffffffffffffffffffffffffff1673ffffffffffffffffffffffffffffffffffffffff16815260200190815260200160002060008860a00151878151811061234f5761234f613e6e565b6020026020010151604001518152602001908152602001600020548160038151811061237d5761237d613e6e565b602002602001015160038151811061239757612397613e6e565b6020026020010181815250506000876000015173ffffffffffffffffffffffffffffffffffffffff16905060008060008a6020015173ffffffffffffffffffffffffffffffffffffffff1663385e37fe858d60400151886040518463ffffffff1660e01b815260040161240c939291906143de565b600060405180830381865afa158015612429573d6000803e3d6000fd5b505050506040513d6000823e601f3d9081017fffffffffffffffffffffffffffffffffffffffffffffffffffffffffffffffe016820160405261246f91908101906144d3565b9250925092506000806124da61248d86805160209081029091010190565b7fffffffffffffffffffffffffffffffffffffffffffffffffffffffffffffffc08101517fffffffffffffffffffffffffffffffffffffffffffffffffffffffffffffffe0909101519091565b915091506125158d60a001518c815181106124f7576124f7613e6e565b60200260200101516020015160ff1683612d1790919063ffffffff16565b915061256e8d60a001518c8151811061253057612530613e6e565b6020026020010151602001518e608001518e8151811061255257612552613e6e565b60200260200101516020015183612d909092919063ffffffff16565b604080516002808252606082018352929350600092909160208301908036833701905050905082816000815181106125a8576125a8613e6e565b60200260200101818152505081816001815181106125c8576125c8613e6e565b60200260200101818152505080886001815181106125e8576125e8613e6e565b6020026020010181905250506126da606760008f6000015173ffffffffffffffffffffffffffffffffffffffff1673ffffffffffffffffffffffffffffffffffffffff16815260200190815260200160002060008f60a001518e8151811061265257612652613e6e565b60200260200101516000015173ffffffffffffffffffffffffffffffffffffffff1673ffffffffffffffffffffffffffffffffffffffff16815260200190815260200160002060008f60a001518e815181106126b0576126b0613e6e565b602002602001015160400151815260200190815260200160002054836119da90919063ffffffff16565b6040805160c0810182529182526020820192909252908101969096525073ffffffffffffffffffffffffffffffffffffffff909116606085015260808401929092525060a08201529150505b949350505050565b60006119d38383670de0b6b3a7640000612db3565b858460028151811061275757612757613e6e565b602002602001015160048151811061277157612771613e6e565b602002602001018181525050848460038151811061279157612791613e6e565b60200260200101516004815181106127ab576127ab613e6e565b602090810291909101015285156128b057865173ffffffffffffffffffffffffffffffffffffffff1660009081526067602052604081208551889290879060029081106127fa576127fa613e6e565b602002602001015160008151811061281457612814613e6e565b602002602001015173ffffffffffffffffffffffffffffffffffffffff1673ffffffffffffffffffffffffffffffffffffffff16815260200190815260200160002060008660028151811061286b5761286b613e6e565b602002602001015160028151811061288557612885613e6e565b6020026020010151815260200190815260200160002060008282546128aa919061428c565b90915550505b84156129aa57865173ffffffffffffffffffffffffffffffffffffffff1660009081526067602052604081208551879290879060039081106128f4576128f4613e6e565b602002602001015160008151811061290e5761290e613e6e565b602002602001015173ffffffffffffffffffffffffffffffffffffffff1673ffffffffffffffffffffffffffffffffffffffff16815260200190815260200160002060008660038151811061296557612965613e6e565b602002602001015160028151811061297f5761297f613e6e565b6020026020010151815260200190815260200160002060008282546129a491906140dc565b90915550505b805115612a38576040517f946aadc600000000000000000000000000000000000000000000000000000000815273ffffffffffffffffffffffffffffffffffffffff84169063946aadc690612a05908590859060040161454a565b600060405180830381600087803b158015612a1f57600080fd5b505af1158015612a33573d6000803e3d6000fd5b505050505b606087015115612b8657600080886020015173ffffffffffffffffffffffffffffffffffffffff1663385e37fe858b60600151896040518463ffffffff1660e01b8152600401612a8a939291906143de565b600060405180830381865afa158015612aa7573d6000803e3d6000fd5b505050506040513d6000823e601f3d9081017fffffffffffffffffffffffffffffffffffffffffffffffffffffffffffffffe0168201604052612aed91908101906144d3565b9250925050600081511115612b83576040517f946aadc600000000000000000000000000000000000000000000000000000000815273ffffffffffffffffffffffffffffffffffffffff83169063946aadc690612b50908790859060040161454a565b600060405180830381600087803b158015612b6a57600080fd5b505af1158015612b7e573d6000803e3d6000fd5b505050505b50505b50505050505050565b60405173ffffffffffffffffffffffffffffffffffffffff80851660248301528316604482015260648101829052611ae29085907f23b872dd00000000000000000000000000000000000000000000000000000000906084015b604080517fffffffffffffffffffffffffffffffffffffffffffffffffffffffffffffffe08184030181529190526020810180517bffffffffffffffffffffffffffffffffffffffffffffffffffffffff167fffffffff0000000000000000000000000000000000000000000000000000000090931692909217909152612e80565b60405173ffffffffffffffffffffffffffffffffffffffff83166024820152604481018290526111fc9084907fa9059cbb0000000000000000000000000000000000000000000000000000000090606401612be9565b60608315612cd05750816119d3565b6119d38383612f8c565b6040805160038082526080820190925260609160009190602082018480368337505050602081019590955250506040830191909152606082015290565b60008060128303612d2b5783915050610968565b8260121115612d5757506012829003612d4581600a614683565b612d4f90856146be565b915050610968565b507fffffffffffffffffffffffffffffffffffffffffffffffffffffffffffffffee8201612d4f612d8982600a614683565b8590612fd0565b600061272684612dae612da960ff8088169087166146f9565b61302a565b6130c3565b600080807fffffffffffffffffffffffffffffffffffffffffffffffffffffffffffffffff85870985870292508281108382030391505080600003612e0b57838281612e0157612e0161468f565b04925050506119d3565b808411612e1757600080fd5b60008486880960026001871981018816978890046003810283188082028403028082028403028082028403028082028403028082028403029081029092039091026000889003889004909101858311909403939093029303949094049190911702949350505050565b6000612ee2826040518060400160405280602081526020017f5361666545524332303a206c6f772d6c6576656c2063616c6c206661696c65648152508573ffffffffffffffffffffffffffffffffffffffff166131129092919063ffffffff16565b8051909150156111fc5780806020019051810190612f009190614719565b6111fc576040517f08c379a000000000000000000000000000000000000000000000000000000000815260206004820152602a60248201527f5361666545524332303a204552433230206f7065726174696f6e20646964206e60448201527f6f7420737563636565640000000000000000000000000000000000000000000060648201526084016102de565b815115612f9c5781518083602001fd5b806040517f08c379a00000000000000000000000000000000000000000000000000000000081526004016102de919061473b565b600082600003612fe257506000610968565b82820282848281612ff557612ff561468f565b04036130015780612726565b7fffffffffffffffffffffffffffffffffffffffffffffffffffffffffffffffff949350505050565b80600081900b81146130be576040517f08c379a000000000000000000000000000000000000000000000000000000000815260206004820152602560248201527f53616665436173743a2076616c756520646f65736e27742066697420696e203860448201527f206269747300000000000000000000000000000000000000000000000000000060648201526084016102de565b919050565b60008160000b6000036130d7575081610968565b60008260000b13156130ff576130f86130f183600a61474e565b8490612fd0565b9050610968565b60ff600083900316612d4581600a614683565b60606127268484600085856000808673ffffffffffffffffffffffffffffffffffffffff16858760405161314691906143cc565b60006040518083038185875af1925050503d8060008114613183576040519150601f19603f3d011682016040523d82523d6000602084013e613188565b606091505b5091509150613199878383876131a4565b979650505050505050565b6060831561323a5782516000036132335773ffffffffffffffffffffffffffffffffffffffff85163b613233576040517f08c379a000000000000000000000000000000000000000000000000000000000815260206004820152601d60248201527f416464726573733a2063616c6c20746f206e6f6e2d636f6e747261637400000060448201526064016102de565b5081612726565b6127268383612f8c565b60006020828403121561325657600080fd5b813567ffffffffffffffff81111561326d57600080fd5b820160e081850312156119d357600080fd5b600060c0828403121561329157600080fd5b50919050565b6000602082840312156132a957600080fd5b813567ffffffffffffffff8111156132c057600080fd5b6127268482850161327f565b60006060828403121561329157600080fd5b6000606082840312156132f057600080fd5b6119d383836132cc565b73ffffffffffffffffffffffffffffffffffffffff8116811461035457600080fd5b80356130be816132fa565b60008060008060006080868803121561333f57600080fd5b853561334a816132fa565b9450602086013561335a816132fa565b935060408601359250606086013567ffffffffffffffff8082111561337e57600080fd5b818801915088601f83011261339257600080fd5b8135818111156133a157600080fd5b8960208285010111156133b357600080fd5b9699959850939650602001949392505050565b6000602082840312156133d857600080fd5b81356119d3816132fa565b600080602083850312156133f657600080fd5b823567ffffffffffffffff8082111561340e57600080fd5b818501915085601f83011261342257600080fd5b81358181111561343157600080fd5b8660208260051b850101111561344657600080fd5b60209290920196919550909350505050565b60005b8381101561347357818101518382015260200161345b565b50506000910152565b60008151808452613494816020860160208601613458565b601f017fffffffffffffffffffffffffffffffffffffffffffffffffffffffffffffffe0169290920160200192915050565b6000602080830181845280855180835260408601915060408160051b870101925083870160005b82811015613539577fffffffffffffffffffffffffffffffffffffffffffffffffffffffffffffffc088860301845261352785835161347c565b945092850192908501906001016134ed565b5092979650505050505050565b7f4e487b7100000000000000000000000000000000000000000000000000000000600052604160045260246000fd5b6040516060810167ffffffffffffffff8111828210171561359857613598613546565b60405290565b60405160e0810167ffffffffffffffff8111828210171561359857613598613546565b604051601f82017fffffffffffffffffffffffffffffffffffffffffffffffffffffffffffffffe016810167ffffffffffffffff8111828210171561360857613608613546565b604052919050565b600067ffffffffffffffff82111561362a5761362a613546565b5060051b60200190565b803560ff811681146130be57600080fd5b60006060828403121561365757600080fd5b61365f613575565b9050813561366c816132fa565b815261367a60208301613634565b60208201526040820135604082015292915050565b600082601f8301126136a057600080fd5b813560206136b56136b083613610565b6135c1565b828152606092830285018201928282019190878511156136d457600080fd5b8387015b858110156136f7576136ea8982613645565b84529284019281016136d8565b5090979650505050505050565b600082601f83011261371557600080fd5b813567ffffffffffffffff81111561372f5761372f613546565b61376060207fffffffffffffffffffffffffffffffffffffffffffffffffffffffffffffffe0601f840116016135c1565b81815284602083860101111561377557600080fd5b816020850160208301376000918101602001919091529392505050565b600060e082840312156137a457600080fd5b6137ac61359e565b90506137b78261331c565b81526137c56020830161331c565b60208201526040820135604082015260608201356060820152608082013567ffffffffffffffff808211156137f957600080fd5b6138058583860161368f565b608084015260a084013591508082111561381e57600080fd5b61382a8583860161368f565b60a084015260c084013591508082111561384357600080fd5b5061385084828501613704565b60c08301525092915050565b6000806000610100848603121561387257600080fd5b833567ffffffffffffffff8082111561388a57600080fd5b61389687838801613792565b945060208601359150808211156138ac57600080fd5b506138b986828701613792565b9250506138c9856040860161327f565b90509250925092565b6000806000606084860312156138e757600080fd5b83356138f2816132fa565b92506020840135613902816132fa565b929592945050506040919091013590565b6000806040838503121561392657600080fd5b8235613931816132fa565b946020939093013593505050565b60006109683683613792565b60008083357fffffffffffffffffffffffffffffffffffffffffffffffffffffffffffffffe184360301811261398057600080fd5b830160208101925035905067ffffffffffffffff8111156139a057600080fd5b6060810236038213156139b257600080fd5b9250929050565b8183526000602080850194508260005b85811015613a225781356139dc816132fa565b73ffffffffffffffffffffffffffffffffffffffff16875260ff613a01838501613634565b168784015260408281013590880152606096870196909101906001016139c9565b509495945050505050565b60008083357fffffffffffffffffffffffffffffffffffffffffffffffffffffffffffffffe1843603018112613a6257600080fd5b830160208101925035905067ffffffffffffffff811115613a8257600080fd5b8036038213156139b257600080fd5b8183528181602085013750600060208284010152600060207fffffffffffffffffffffffffffffffffffffffffffffffffffffffffffffffe0601f840116840101905092915050565b600073ffffffffffffffffffffffffffffffffffffffff8086168352606060208401528435613b08816132fa565b166060830152613b1a6020850161331c565b73ffffffffffffffffffffffffffffffffffffffff8116608084015250604084013560a0830152606084013560c0830152613b58608085018561394b565b60e080850152613b6d610140850182846139b9565b915050613b7d60a086018661394b565b7fffffffffffffffffffffffffffffffffffffffffffffffffffffffffffffffa08086850301610100870152613bb48483856139b9565b9350613bc360c0890189613a2d565b93509150808685030161012087015250613bde838383613a91565b9350505050826040830152949350505050565b600082357fffffffffffffffffffffffffffffffffffffffffffffffffffffffffffffffc1833603018112613c2557600080fd5b9190910192915050565b60008083357fffffffffffffffffffffffffffffffffffffffffffffffffffffffffffffffe1843603018112613c6457600080fd5b830160208101925035905067ffffffffffffffff811115613c8457600080fd5b8060051b36038213156139b257600080fd5b600081518084526020808501945080840160005b83811015613a2257815187529582019590820190600101613caa565b60408152600060808201613cda8586613c2f565b6040808601528281845260a08601905060a08260051b87010193508260005b83811015613d54577fffffffffffffffffffffffffffffffffffffffffffffffffffffffffffffff60888703018352613d328286613a2d565b613d3d888284613a91565b975050506020928301929190910190600101613cf9565b5050505050613d666020860186613c2f565b7fffffffffffffffffffffffffffffffffffffffffffffffffffffffffffffffc08584030160608601528083527f07ffffffffffffffffffffffffffffffffffffffffffffffffffffffffffffff811115613dc057600080fd5b60051b80826020850137808301925050506020838203016020840152611dc86020820185613c96565b600060208284031215613dfb57600080fd5b81516119d3816132fa565b60008083357fffffffffffffffffffffffffffffffffffffffffffffffffffffffffffffffe1843603018112613e3b57600080fd5b83018035915067ffffffffffffffff821115613e5657600080fd5b6020019150600581901b36038213156139b257600080fd5b7f4e487b7100000000000000000000000000000000000000000000000000000000600052603260045260246000fd5b60008083357fffffffffffffffffffffffffffffffffffffffffffffffffffffffffffffffe1843603018112613ed257600080fd5b83018035915067ffffffffffffffff821115613eed57600080fd5b6020019150368190038213156139b257600080fd5b60008083357fffffffffffffffffffffffffffffffffffffffffffffffffffffffffffffffe1843603018112613f3757600080fd5b83018035915067ffffffffffffffff821115613f5257600080fd5b60200191506060810236038213156139b257600080fd5b600060608284031215613f7b57600080fd5b6119d38383613645565b600081518084526020808501945080840160005b83811015613a22578151805173ffffffffffffffffffffffffffffffffffffffff1688528381015160ff16848901526040908101519088015260609096019590820190600101613f99565b600073ffffffffffffffffffffffffffffffffffffffff808351168452806020840151166020850152506040820151604084015260608201516060840152608082015160e0608085015261403b60e0850182613f85565b905060a083015184820360a08601526140548282613f85565b91505060c083015184820360c0860152611dc8828261347c565b73ffffffffffffffffffffffffffffffffffffffff8416815260606020820152600061409d6060830185613fe4565b9050826040830152949350505050565b7f4e487b7100000000000000000000000000000000000000000000000000000000600052601160045260246000fd5b81810381811115610968576109686140ad565b80356140fa816132fa565b73ffffffffffffffffffffffffffffffffffffffff16825260208181013590830152604090810135910152565b73ffffffffffffffffffffffffffffffffffffffff8416815260a0810161415160208301856140ef565b826080830152949350505050565b600073ffffffffffffffffffffffffffffffffffffffff808916835280881660208401525085604083015284606083015260a060808301526141a560a083018486613a91565b98975050505050505050565b6000602082840312156141c357600080fd5b5051919050565b60007fffffffffffffffffffffffffffffffffffffffffffffffffffffffffffffffff82036141fb576141fb6140ad565b5060010190565b600061012073ffffffffffffffffffffffffffffffffffffffff8716835280602084015261423281840187613fe4565b905082810360408401526142468186613fe4565b9150508235606083015260208301356080830152604083013560a0830152606083013560c0830152608083013560e083015260a083013561010083015295945050505050565b80820180821115610968576109686140ad565b73ffffffffffffffffffffffffffffffffffffffff83168152608081016119d360208301846140ef565b600082357fffffffffffffffffffffffffffffffffffffffffffffffffffffffffffffffa1833603018112613c2557600080fd5b60006060823603121561430f57600080fd5b614317613575565b823567ffffffffffffffff81111561432e57600080fd5b61433a36828601613792565b825250602083013560208201526040830135604082015280915050919050565b73ffffffffffffffffffffffffffffffffffffffff8516815260806020820152600084516060608084015261439260e0840182613fe4565b602087015160a085015260409687015160c085015295830194909452506060015250919050565b6020815260006119d36020830184613fe4565b60008251613c25818460208701613458565b600060608201858352602085818501526060604085015281855180845260808601915060808160051b870101935082870160005b8281101561445e577fffffffffffffffffffffffffffffffffffffffffffffffffffffffffffffff8088870301845261444c868351613c96565b95509284019290840190600101614412565b50939998505050505050505050565b600082601f83011261447e57600080fd5b8151602061448e6136b083613610565b82815260059290921b840181019181810190868411156144ad57600080fd5b8286015b848110156144c857805183529183019183016144b1565b509695505050505050565b6000806000606084860312156144e857600080fd5b835167ffffffffffffffff8082111561450057600080fd5b61450c8783880161446d565b94506020860151915061451e826132fa565b60408601519193508082111561453357600080fd5b506145408682870161446d565b9150509250925092565b8281526040602082015260006127266040830184613c96565b600181815b808511156145bc57817fffffffffffffffffffffffffffffffffffffffffffffffffffffffffffffffff048211156145a2576145a26140ad565b808516156145af57918102915b93841c9390800290614568565b509250929050565b6000826145d357506001610968565b816145e057506000610968565b81600181146145f657600281146146005761461c565b6001915050610968565b60ff841115614611576146116140ad565b50506001821b610968565b5060208310610133831016604e8410600b841016171561463f575081810a610968565b6146498383614563565b807fffffffffffffffffffffffffffffffffffffffffffffffffffffffffffffffff0482111561467b5761467b6140ad565b029392505050565b60006119d383836145c4565b7f4e487b7100000000000000000000000000000000000000000000000000000000600052601260045260246000fd5b6000826146f4577f4e487b7100000000000000000000000000000000000000000000000000000000600052601260045260246000fd5b500490565b8181036000831280158383131683831282161715610a5c57610a5c6140ad565b60006020828403121561472b57600080fd5b815180151581146119d357600080fd5b6020815260006119d3602083018461347c565b60006119d360ff8416836145c456fe416464726573733a206c6f772d6c6576656c2064656c65676174652063616c6c206661696c6564a26469706673582212207cfd76d1ca6ae4cecfe302472a4cb541d7c222c026a0fbb692e7858cf2d4056964736f6c63430008110033496e697469616c697a61626c653a20636f6e7472616374206973206e6f742069",
  "linkReferences": {},
  "deployedLinkReferences": {}
}