{
  "_format": "hh-sol-artifact-1",
  "contractName": "OrderBook",
  "sourceName": "contracts/orderbook/OrderBook.sol",
  "abi": [
    {
      "inputs": [],
      "stateMutability": "nonpayable",
      "type": "constructor"
    },
    {
      "inputs": [
        {
          "internalType": "address",
          "name": "token",
          "type": "address"
        },
        {
          "internalType": "address",
          "name": "receiver",
          "type": "address"
        },
        {
          "internalType": "uint256",
          "name": "amount",
          "type": "uint256"
        }
      ],
      "name": "BadDebt",
      "type": "error"
    },
    {
      "inputs": [
        {
          "internalType": "bytes32",
          "name": "result",
          "type": "bytes32"
        }
      ],
      "name": "FlashLenderCallbackFailed",
      "type": "error"
    },
    {
      "inputs": [
        {
          "internalType": "uint256",
          "name": "minimumInput",
          "type": "uint256"
        },
        {
          "internalType": "uint256",
          "name": "input",
          "type": "uint256"
        }
      ],
      "name": "MinimumInput",
      "type": "error"
    },
    {
      "inputs": [
        {
          "internalType": "address",
          "name": "sender",
          "type": "address"
        },
        {
          "internalType": "address",
          "name": "owner",
          "type": "address"
        }
      ],
      "name": "NotOrderOwner",
      "type": "error"
    },
    {
      "inputs": [
        {
          "internalType": "address",
          "name": "owner",
          "type": "address"
        }
      ],
      "name": "SameOwner",
      "type": "error"
    },
    {
      "inputs": [
        {
          "internalType": "address",
          "name": "a",
          "type": "address"
        },
        {
          "internalType": "address",
          "name": "b",
          "type": "address"
        }
      ],
      "name": "TokenMismatch",
      "type": "error"
    },
    {
      "anonymous": false,
      "inputs": [
        {
          "indexed": false,
          "internalType": "address",
          "name": "sender",
          "type": "address"
        },
        {
          "indexed": false,
          "internalType": "contract IExpressionDeployerV1",
          "name": "expressionDeployer",
          "type": "address"
        },
        {
          "components": [
            {
              "internalType": "address",
              "name": "owner",
              "type": "address"
            },
            {
              "internalType": "address",
              "name": "interpreter",
              "type": "address"
            },
            {
              "internalType": "EncodedDispatch",
              "name": "dispatch",
              "type": "uint256"
            },
            {
              "internalType": "EncodedDispatch",
              "name": "handleIODispatch",
              "type": "uint256"
            },
            {
              "components": [
                {
                  "internalType": "address",
                  "name": "token",
                  "type": "address"
                },
                {
                  "internalType": "uint8",
                  "name": "decimals",
                  "type": "uint8"
                },
                {
                  "internalType": "uint256",
                  "name": "vaultId",
                  "type": "uint256"
                }
              ],
              "internalType": "struct IO[]",
              "name": "validInputs",
              "type": "tuple[]"
            },
            {
              "components": [
                {
                  "internalType": "address",
                  "name": "token",
                  "type": "address"
                },
                {
                  "internalType": "uint8",
                  "name": "decimals",
                  "type": "uint8"
                },
                {
                  "internalType": "uint256",
                  "name": "vaultId",
                  "type": "uint256"
                }
              ],
              "internalType": "struct IO[]",
              "name": "validOutputs",
              "type": "tuple[]"
            },
            {
              "internalType": "bytes",
              "name": "data",
              "type": "bytes"
            }
          ],
          "indexed": false,
          "internalType": "struct Order",
          "name": "order",
          "type": "tuple"
        },
        {
          "indexed": false,
          "internalType": "uint256",
          "name": "orderHash",
          "type": "uint256"
        }
      ],
      "name": "AddOrder",
      "type": "event"
    },
    {
      "anonymous": false,
      "inputs": [
        {
          "indexed": false,
          "internalType": "address",
          "name": "sender",
          "type": "address"
        },
        {
          "components": [
            {
              "internalType": "uint256",
              "name": "aOutput",
              "type": "uint256"
            },
            {
              "internalType": "uint256",
              "name": "bOutput",
              "type": "uint256"
            },
            {
              "internalType": "uint256",
              "name": "aInput",
              "type": "uint256"
            },
            {
              "internalType": "uint256",
              "name": "bInput",
              "type": "uint256"
            }
          ],
          "indexed": false,
          "internalType": "struct ClearStateChange",
          "name": "clearStateChange",
          "type": "tuple"
        }
      ],
      "name": "AfterClear",
      "type": "event"
    },
    {
      "anonymous": false,
      "inputs": [
        {
          "indexed": false,
          "internalType": "address",
          "name": "sender",
          "type": "address"
        },
        {
          "components": [
            {
              "internalType": "address",
              "name": "owner",
              "type": "address"
            },
            {
              "internalType": "address",
              "name": "interpreter",
              "type": "address"
            },
            {
              "internalType": "EncodedDispatch",
              "name": "dispatch",
              "type": "uint256"
            },
            {
              "internalType": "EncodedDispatch",
              "name": "handleIODispatch",
              "type": "uint256"
            },
            {
              "components": [
                {
                  "internalType": "address",
                  "name": "token",
                  "type": "address"
                },
                {
                  "internalType": "uint8",
                  "name": "decimals",
                  "type": "uint8"
                },
                {
                  "internalType": "uint256",
                  "name": "vaultId",
                  "type": "uint256"
                }
              ],
              "internalType": "struct IO[]",
              "name": "validInputs",
              "type": "tuple[]"
            },
            {
              "components": [
                {
                  "internalType": "address",
                  "name": "token",
                  "type": "address"
                },
                {
                  "internalType": "uint8",
                  "name": "decimals",
                  "type": "uint8"
                },
                {
                  "internalType": "uint256",
                  "name": "vaultId",
                  "type": "uint256"
                }
              ],
              "internalType": "struct IO[]",
              "name": "validOutputs",
              "type": "tuple[]"
            },
            {
              "internalType": "bytes",
              "name": "data",
              "type": "bytes"
            }
          ],
          "indexed": false,
          "internalType": "struct Order",
          "name": "a",
          "type": "tuple"
        },
        {
          "components": [
            {
              "internalType": "address",
              "name": "owner",
              "type": "address"
            },
            {
              "internalType": "address",
              "name": "interpreter",
              "type": "address"
            },
            {
              "internalType": "EncodedDispatch",
              "name": "dispatch",
              "type": "uint256"
            },
            {
              "internalType": "EncodedDispatch",
              "name": "handleIODispatch",
              "type": "uint256"
            },
            {
              "components": [
                {
                  "internalType": "address",
                  "name": "token",
                  "type": "address"
                },
                {
                  "internalType": "uint8",
                  "name": "decimals",
                  "type": "uint8"
                },
                {
                  "internalType": "uint256",
                  "name": "vaultId",
                  "type": "uint256"
                }
              ],
              "internalType": "struct IO[]",
              "name": "validInputs",
              "type": "tuple[]"
            },
            {
              "components": [
                {
                  "internalType": "address",
                  "name": "token",
                  "type": "address"
                },
                {
                  "internalType": "uint8",
                  "name": "decimals",
                  "type": "uint8"
                },
                {
                  "internalType": "uint256",
                  "name": "vaultId",
                  "type": "uint256"
                }
              ],
              "internalType": "struct IO[]",
              "name": "validOutputs",
              "type": "tuple[]"
            },
            {
              "internalType": "bytes",
              "name": "data",
              "type": "bytes"
            }
          ],
          "indexed": false,
          "internalType": "struct Order",
          "name": "b",
          "type": "tuple"
        },
        {
          "components": [
            {
              "internalType": "uint256",
              "name": "aInputIOIndex",
              "type": "uint256"
            },
            {
              "internalType": "uint256",
              "name": "aOutputIOIndex",
              "type": "uint256"
            },
            {
              "internalType": "uint256",
              "name": "bInputIOIndex",
              "type": "uint256"
            },
            {
              "internalType": "uint256",
              "name": "bOutputIOIndex",
              "type": "uint256"
            },
            {
              "internalType": "uint256",
              "name": "aBountyVaultId",
              "type": "uint256"
            },
            {
              "internalType": "uint256",
              "name": "bBountyVaultId",
              "type": "uint256"
            }
          ],
          "indexed": false,
          "internalType": "struct ClearConfig",
          "name": "clearConfig",
          "type": "tuple"
        }
      ],
      "name": "Clear",
      "type": "event"
    },
    {
      "anonymous": false,
      "inputs": [
        {
          "indexed": false,
          "internalType": "address",
          "name": "sender",
          "type": "address"
        },
        {
          "indexed": false,
          "internalType": "uint256[][]",
          "name": "context",
          "type": "uint256[][]"
        }
      ],
      "name": "Context",
      "type": "event"
    },
    {
      "anonymous": false,
      "inputs": [
        {
          "indexed": false,
          "internalType": "address",
          "name": "sender",
          "type": "address"
        },
        {
          "components": [
            {
              "internalType": "address",
              "name": "token",
              "type": "address"
            },
            {
              "internalType": "uint256",
              "name": "vaultId",
              "type": "uint256"
            },
            {
              "internalType": "uint256",
              "name": "amount",
              "type": "uint256"
            }
          ],
          "indexed": false,
          "internalType": "struct DepositConfig",
          "name": "config",
          "type": "tuple"
        }
      ],
      "name": "Deposit",
      "type": "event"
    },
    {
      "anonymous": false,
      "inputs": [
        {
          "indexed": false,
          "internalType": "uint8",
          "name": "version",
          "type": "uint8"
        }
      ],
      "name": "Initialized",
      "type": "event"
    },
    {
      "anonymous": false,
      "inputs": [
        {
          "indexed": false,
          "internalType": "address",
          "name": "sender",
          "type": "address"
        },
        {
          "indexed": false,
          "internalType": "address",
          "name": "owner",
          "type": "address"
        },
        {
          "indexed": false,
          "internalType": "uint256",
          "name": "orderHash",
          "type": "uint256"
        }
      ],
      "name": "OrderExceedsMaxRatio",
      "type": "event"
    },
    {
      "anonymous": false,
      "inputs": [
        {
          "indexed": false,
          "internalType": "address",
          "name": "sender",
          "type": "address"
        },
        {
          "indexed": false,
          "internalType": "address",
          "name": "owner",
          "type": "address"
        },
        {
          "indexed": false,
          "internalType": "uint256",
          "name": "orderHash",
          "type": "uint256"
        }
      ],
      "name": "OrderNotFound",
      "type": "event"
    },
    {
      "anonymous": false,
      "inputs": [
        {
          "indexed": false,
          "internalType": "address",
          "name": "sender",
          "type": "address"
        },
        {
          "indexed": false,
          "internalType": "address",
          "name": "owner",
          "type": "address"
        },
        {
          "indexed": false,
          "internalType": "uint256",
          "name": "orderHash",
          "type": "uint256"
        }
      ],
      "name": "OrderZeroAmount",
      "type": "event"
    },
    {
      "anonymous": false,
      "inputs": [
        {
          "indexed": false,
          "internalType": "address",
          "name": "sender",
          "type": "address"
        },
        {
          "components": [
            {
              "internalType": "address",
              "name": "owner",
              "type": "address"
            },
            {
              "internalType": "address",
              "name": "interpreter",
              "type": "address"
            },
            {
              "internalType": "EncodedDispatch",
              "name": "dispatch",
              "type": "uint256"
            },
            {
              "internalType": "EncodedDispatch",
              "name": "handleIODispatch",
              "type": "uint256"
            },
            {
              "components": [
                {
                  "internalType": "address",
                  "name": "token",
                  "type": "address"
                },
                {
                  "internalType": "uint8",
                  "name": "decimals",
                  "type": "uint8"
                },
                {
                  "internalType": "uint256",
                  "name": "vaultId",
                  "type": "uint256"
                }
              ],
              "internalType": "struct IO[]",
              "name": "validInputs",
              "type": "tuple[]"
            },
            {
              "components": [
                {
                  "internalType": "address",
                  "name": "token",
                  "type": "address"
                },
                {
                  "internalType": "uint8",
                  "name": "decimals",
                  "type": "uint8"
                },
                {
                  "internalType": "uint256",
                  "name": "vaultId",
                  "type": "uint256"
                }
              ],
              "internalType": "struct IO[]",
              "name": "validOutputs",
              "type": "tuple[]"
            },
            {
              "internalType": "bytes",
              "name": "data",
              "type": "bytes"
            }
          ],
          "indexed": false,
          "internalType": "struct Order",
          "name": "order",
          "type": "tuple"
        },
        {
          "indexed": false,
          "internalType": "uint256",
          "name": "orderHash",
          "type": "uint256"
        }
      ],
      "name": "RemoveOrder",
      "type": "event"
    },
    {
      "anonymous": false,
      "inputs": [
        {
          "indexed": false,
          "internalType": "address",
          "name": "sender",
          "type": "address"
        },
        {
          "components": [
            {
              "components": [
                {
                  "internalType": "address",
                  "name": "owner",
                  "type": "address"
                },
                {
                  "internalType": "address",
                  "name": "interpreter",
                  "type": "address"
                },
                {
                  "internalType": "EncodedDispatch",
                  "name": "dispatch",
                  "type": "uint256"
                },
                {
                  "internalType": "EncodedDispatch",
                  "name": "handleIODispatch",
                  "type": "uint256"
                },
                {
                  "components": [
                    {
                      "internalType": "address",
                      "name": "token",
                      "type": "address"
                    },
                    {
                      "internalType": "uint8",
                      "name": "decimals",
                      "type": "uint8"
                    },
                    {
                      "internalType": "uint256",
                      "name": "vaultId",
                      "type": "uint256"
                    }
                  ],
                  "internalType": "struct IO[]",
                  "name": "validInputs",
                  "type": "tuple[]"
                },
                {
                  "components": [
                    {
                      "internalType": "address",
                      "name": "token",
                      "type": "address"
                    },
                    {
                      "internalType": "uint8",
                      "name": "decimals",
                      "type": "uint8"
                    },
                    {
                      "internalType": "uint256",
                      "name": "vaultId",
                      "type": "uint256"
                    }
                  ],
                  "internalType": "struct IO[]",
                  "name": "validOutputs",
                  "type": "tuple[]"
                },
                {
                  "internalType": "bytes",
                  "name": "data",
                  "type": "bytes"
                }
              ],
              "internalType": "struct Order",
              "name": "order",
              "type": "tuple"
            },
            {
              "internalType": "uint256",
              "name": "inputIOIndex",
              "type": "uint256"
            },
            {
              "internalType": "uint256",
              "name": "outputIOIndex",
              "type": "uint256"
            }
          ],
          "indexed": false,
          "internalType": "struct TakeOrderConfig",
          "name": "takeOrder",
          "type": "tuple"
        },
        {
          "indexed": false,
          "internalType": "uint256",
          "name": "input",
          "type": "uint256"
        },
        {
          "indexed": false,
          "internalType": "uint256",
          "name": "output",
          "type": "uint256"
        }
      ],
      "name": "TakeOrder",
      "type": "event"
    },
    {
      "anonymous": false,
      "inputs": [
        {
          "indexed": false,
          "internalType": "address",
          "name": "sender",
          "type": "address"
        },
        {
          "components": [
            {
              "internalType": "address",
              "name": "token",
              "type": "address"
            },
            {
              "internalType": "uint256",
              "name": "vaultId",
              "type": "uint256"
            },
            {
              "internalType": "uint256",
              "name": "amount",
              "type": "uint256"
            }
          ],
          "indexed": false,
          "internalType": "struct WithdrawConfig",
          "name": "config",
          "type": "tuple"
        },
        {
          "indexed": false,
          "internalType": "uint256",
          "name": "amount",
          "type": "uint256"
        }
      ],
      "name": "Withdraw",
      "type": "event"
    },
    {
      "inputs": [
        {
          "components": [
            {
              "internalType": "address",
              "name": "expressionDeployer",
              "type": "address"
            },
            {
              "internalType": "address",
              "name": "interpreter",
              "type": "address"
            },
            {
              "components": [
                {
                  "internalType": "bytes[]",
                  "name": "sources",
                  "type": "bytes[]"
                },
                {
                  "internalType": "uint256[]",
                  "name": "constants",
                  "type": "uint256[]"
                }
              ],
              "internalType": "struct StateConfig",
              "name": "interpreterStateConfig",
              "type": "tuple"
            },
            {
              "components": [
                {
                  "internalType": "address",
                  "name": "token",
                  "type": "address"
                },
                {
                  "internalType": "uint8",
                  "name": "decimals",
                  "type": "uint8"
                },
                {
                  "internalType": "uint256",
                  "name": "vaultId",
                  "type": "uint256"
                }
              ],
              "internalType": "struct IO[]",
              "name": "validInputs",
              "type": "tuple[]"
            },
            {
              "components": [
                {
                  "internalType": "address",
                  "name": "token",
                  "type": "address"
                },
                {
                  "internalType": "uint8",
                  "name": "decimals",
                  "type": "uint8"
                },
                {
                  "internalType": "uint256",
                  "name": "vaultId",
                  "type": "uint256"
                }
              ],
              "internalType": "struct IO[]",
              "name": "validOutputs",
              "type": "tuple[]"
            },
            {
              "internalType": "bytes",
              "name": "data",
              "type": "bytes"
            }
          ],
          "internalType": "struct OrderConfig",
          "name": "config_",
          "type": "tuple"
        }
      ],
      "name": "addOrder",
      "outputs": [],
      "stateMutability": "nonpayable",
      "type": "function"
    },
    {
      "inputs": [
        {
          "components": [
            {
              "internalType": "address",
              "name": "owner",
              "type": "address"
            },
            {
              "internalType": "address",
              "name": "interpreter",
              "type": "address"
            },
            {
              "internalType": "EncodedDispatch",
              "name": "dispatch",
              "type": "uint256"
            },
            {
              "internalType": "EncodedDispatch",
              "name": "handleIODispatch",
              "type": "uint256"
            },
            {
              "components": [
                {
                  "internalType": "address",
                  "name": "token",
                  "type": "address"
                },
                {
                  "internalType": "uint8",
                  "name": "decimals",
                  "type": "uint8"
                },
                {
                  "internalType": "uint256",
                  "name": "vaultId",
                  "type": "uint256"
                }
              ],
              "internalType": "struct IO[]",
              "name": "validInputs",
              "type": "tuple[]"
            },
            {
              "components": [
                {
                  "internalType": "address",
                  "name": "token",
                  "type": "address"
                },
                {
                  "internalType": "uint8",
                  "name": "decimals",
                  "type": "uint8"
                },
                {
                  "internalType": "uint256",
                  "name": "vaultId",
                  "type": "uint256"
                }
              ],
              "internalType": "struct IO[]",
              "name": "validOutputs",
              "type": "tuple[]"
            },
            {
              "internalType": "bytes",
              "name": "data",
              "type": "bytes"
            }
          ],
          "internalType": "struct Order",
          "name": "a_",
          "type": "tuple"
        },
        {
          "components": [
            {
              "internalType": "address",
              "name": "owner",
              "type": "address"
            },
            {
              "internalType": "address",
              "name": "interpreter",
              "type": "address"
            },
            {
              "internalType": "EncodedDispatch",
              "name": "dispatch",
              "type": "uint256"
            },
            {
              "internalType": "EncodedDispatch",
              "name": "handleIODispatch",
              "type": "uint256"
            },
            {
              "components": [
                {
                  "internalType": "address",
                  "name": "token",
                  "type": "address"
                },
                {
                  "internalType": "uint8",
                  "name": "decimals",
                  "type": "uint8"
                },
                {
                  "internalType": "uint256",
                  "name": "vaultId",
                  "type": "uint256"
                }
              ],
              "internalType": "struct IO[]",
              "name": "validInputs",
              "type": "tuple[]"
            },
            {
              "components": [
                {
                  "internalType": "address",
                  "name": "token",
                  "type": "address"
                },
                {
                  "internalType": "uint8",
                  "name": "decimals",
                  "type": "uint8"
                },
                {
                  "internalType": "uint256",
                  "name": "vaultId",
                  "type": "uint256"
                }
              ],
              "internalType": "struct IO[]",
              "name": "validOutputs",
              "type": "tuple[]"
            },
            {
              "internalType": "bytes",
              "name": "data",
              "type": "bytes"
            }
          ],
          "internalType": "struct Order",
          "name": "b_",
          "type": "tuple"
        },
        {
          "components": [
            {
              "internalType": "uint256",
              "name": "aInputIOIndex",
              "type": "uint256"
            },
            {
              "internalType": "uint256",
              "name": "aOutputIOIndex",
              "type": "uint256"
            },
            {
              "internalType": "uint256",
              "name": "bInputIOIndex",
              "type": "uint256"
            },
            {
              "internalType": "uint256",
              "name": "bOutputIOIndex",
              "type": "uint256"
            },
            {
              "internalType": "uint256",
              "name": "aBountyVaultId",
              "type": "uint256"
            },
            {
              "internalType": "uint256",
              "name": "bBountyVaultId",
              "type": "uint256"
            }
          ],
          "internalType": "struct ClearConfig",
          "name": "clearConfig_",
          "type": "tuple"
        }
      ],
      "name": "clear",
      "outputs": [],
      "stateMutability": "nonpayable",
      "type": "function"
    },
    {
      "inputs": [
        {
          "components": [
            {
              "internalType": "address",
              "name": "token",
              "type": "address"
            },
            {
              "internalType": "uint256",
              "name": "vaultId",
              "type": "uint256"
            },
            {
              "internalType": "uint256",
              "name": "amount",
              "type": "uint256"
            }
          ],
          "internalType": "struct DepositConfig",
          "name": "config_",
          "type": "tuple"
        }
      ],
      "name": "deposit",
      "outputs": [],
      "stateMutability": "nonpayable",
      "type": "function"
    },
    {
      "inputs": [
        {
          "internalType": "address",
          "name": "",
          "type": "address"
        },
        {
          "internalType": "uint256",
          "name": "",
          "type": "uint256"
        }
      ],
      "name": "flashFee",
      "outputs": [
        {
          "internalType": "uint256",
          "name": "",
          "type": "uint256"
        }
      ],
      "stateMutability": "pure",
      "type": "function"
    },
    {
      "inputs": [
        {
          "internalType": "contract IERC3156FlashBorrower",
          "name": "receiver_",
          "type": "address"
        },
        {
          "internalType": "address",
          "name": "token_",
          "type": "address"
        },
        {
          "internalType": "uint256",
          "name": "amount_",
          "type": "uint256"
        },
        {
          "internalType": "bytes",
          "name": "data_",
          "type": "bytes"
        }
      ],
      "name": "flashLoan",
      "outputs": [
        {
          "internalType": "bool",
          "name": "",
          "type": "bool"
        }
      ],
      "stateMutability": "nonpayable",
      "type": "function"
    },
    {
      "inputs": [
        {
          "internalType": "address",
          "name": "token_",
          "type": "address"
        }
      ],
      "name": "maxFlashLoan",
      "outputs": [
        {
          "internalType": "uint256",
          "name": "",
          "type": "uint256"
        }
      ],
      "stateMutability": "view",
      "type": "function"
    },
    {
      "inputs": [
        {
          "internalType": "bytes[]",
          "name": "data",
          "type": "bytes[]"
        }
      ],
      "name": "multicall",
      "outputs": [
        {
          "internalType": "bytes[]",
          "name": "results",
          "type": "bytes[]"
        }
      ],
      "stateMutability": "nonpayable",
      "type": "function"
    },
    {
      "inputs": [
        {
          "components": [
            {
              "internalType": "address",
              "name": "owner",
              "type": "address"
            },
            {
              "internalType": "address",
              "name": "interpreter",
              "type": "address"
            },
            {
              "internalType": "EncodedDispatch",
              "name": "dispatch",
              "type": "uint256"
            },
            {
              "internalType": "EncodedDispatch",
              "name": "handleIODispatch",
              "type": "uint256"
            },
            {
              "components": [
                {
                  "internalType": "address",
                  "name": "token",
                  "type": "address"
                },
                {
                  "internalType": "uint8",
                  "name": "decimals",
                  "type": "uint8"
                },
                {
                  "internalType": "uint256",
                  "name": "vaultId",
                  "type": "uint256"
                }
              ],
              "internalType": "struct IO[]",
              "name": "validInputs",
              "type": "tuple[]"
            },
            {
              "components": [
                {
                  "internalType": "address",
                  "name": "token",
                  "type": "address"
                },
                {
                  "internalType": "uint8",
                  "name": "decimals",
                  "type": "uint8"
                },
                {
                  "internalType": "uint256",
                  "name": "vaultId",
                  "type": "uint256"
                }
              ],
              "internalType": "struct IO[]",
              "name": "validOutputs",
              "type": "tuple[]"
            },
            {
              "internalType": "bytes",
              "name": "data",
              "type": "bytes"
            }
          ],
          "internalType": "struct Order",
          "name": "order_",
          "type": "tuple"
        }
      ],
      "name": "removeOrder",
      "outputs": [],
      "stateMutability": "nonpayable",
      "type": "function"
    },
    {
      "inputs": [
        {
          "components": [
            {
              "internalType": "address",
              "name": "output",
              "type": "address"
            },
            {
              "internalType": "address",
              "name": "input",
              "type": "address"
            },
            {
              "internalType": "uint256",
              "name": "minimumInput",
              "type": "uint256"
            },
            {
              "internalType": "uint256",
              "name": "maximumInput",
              "type": "uint256"
            },
            {
              "internalType": "uint256",
              "name": "maximumIORatio",
              "type": "uint256"
            },
            {
              "components": [
                {
                  "components": [
                    {
                      "internalType": "address",
                      "name": "owner",
                      "type": "address"
                    },
                    {
                      "internalType": "address",
                      "name": "interpreter",
                      "type": "address"
                    },
                    {
                      "internalType": "EncodedDispatch",
                      "name": "dispatch",
                      "type": "uint256"
                    },
                    {
                      "internalType": "EncodedDispatch",
                      "name": "handleIODispatch",
                      "type": "uint256"
                    },
                    {
                      "components": [
                        {
                          "internalType": "address",
                          "name": "token",
                          "type": "address"
                        },
                        {
                          "internalType": "uint8",
                          "name": "decimals",
                          "type": "uint8"
                        },
                        {
                          "internalType": "uint256",
                          "name": "vaultId",
                          "type": "uint256"
                        }
                      ],
                      "internalType": "struct IO[]",
                      "name": "validInputs",
                      "type": "tuple[]"
                    },
                    {
                      "components": [
                        {
                          "internalType": "address",
                          "name": "token",
                          "type": "address"
                        },
                        {
                          "internalType": "uint8",
                          "name": "decimals",
                          "type": "uint8"
                        },
                        {
                          "internalType": "uint256",
                          "name": "vaultId",
                          "type": "uint256"
                        }
                      ],
                      "internalType": "struct IO[]",
                      "name": "validOutputs",
                      "type": "tuple[]"
                    },
                    {
                      "internalType": "bytes",
                      "name": "data",
                      "type": "bytes"
                    }
                  ],
                  "internalType": "struct Order",
                  "name": "order",
                  "type": "tuple"
                },
                {
                  "internalType": "uint256",
                  "name": "inputIOIndex",
                  "type": "uint256"
                },
                {
                  "internalType": "uint256",
                  "name": "outputIOIndex",
                  "type": "uint256"
                }
              ],
              "internalType": "struct TakeOrderConfig[]",
              "name": "orders",
              "type": "tuple[]"
            }
          ],
          "internalType": "struct TakeOrdersConfig",
          "name": "takeOrders_",
          "type": "tuple"
        }
      ],
      "name": "takeOrders",
      "outputs": [
        {
          "internalType": "uint256",
          "name": "totalInput_",
          "type": "uint256"
        },
        {
          "internalType": "uint256",
          "name": "totalOutput_",
          "type": "uint256"
        }
      ],
      "stateMutability": "nonpayable",
      "type": "function"
    },
    {
      "inputs": [
        {
          "internalType": "address",
          "name": "",
          "type": "address"
        },
        {
          "internalType": "address",
          "name": "",
          "type": "address"
        },
        {
          "internalType": "uint256",
          "name": "",
          "type": "uint256"
        }
      ],
      "name": "vaultBalance",
      "outputs": [
        {
          "internalType": "uint256",
          "name": "",
          "type": "uint256"
        }
      ],
      "stateMutability": "view",
      "type": "function"
    },
    {
      "inputs": [
        {
          "components": [
            {
              "internalType": "address",
              "name": "token",
              "type": "address"
            },
            {
              "internalType": "uint256",
              "name": "vaultId",
              "type": "uint256"
            },
            {
              "internalType": "uint256",
              "name": "amount",
              "type": "uint256"
            }
          ],
          "internalType": "struct WithdrawConfig",
          "name": "config_",
          "type": "tuple"
        }
      ],
      "name": "withdraw",
      "outputs": [],
      "stateMutability": "nonpayable",
      "type": "function"
    }
  ],
  "bytecode": "0x60806040523480156200001157600080fd5b50600054610100900460ff1615808015620000335750600054600160ff909116105b8062000063575062000050306200015260201b620016281760201c565b15801562000063575060005460ff166001145b620000cc5760405162461bcd60e51b815260206004820152602e60248201527f496e697469616c697a61626c653a20636f6e747261637420697320616c72656160448201526d191e481a5b9a5d1a585b1a5e995960921b60648201526084015b60405180910390fd5b6000805460ff191660011790558015620000f0576000805461ff0019166101001790555b620000fa62000161565b62000104620001c9565b80156200014b576000805461ff0019169055604051600181527f7f26b83ff96e1f2b6a682f133852f6798a09c465da95921460cefb38474024989060200160405180910390a15b5062000287565b6001600160a01b03163b151590565b600054610100900460ff16620001bd5760405162461bcd60e51b815260206004820152602b60248201526000805160206200486083398151915260448201526a6e697469616c697a696e6760a81b6064820152608401620000c3565b620001c762000225565b565b600054610100900460ff16620001c75760405162461bcd60e51b815260206004820152602b60248201526000805160206200486083398151915260448201526a6e697469616c697a696e6760a81b6064820152608401620000c3565b600054610100900460ff16620002815760405162461bcd60e51b815260206004820152602b60248201526000805160206200486083398151915260448201526a6e697469616c697a696e6760a81b6064820152608401620000c3565b60018055565b6145c980620002976000396000f3fe608060405234801561001057600080fd5b50600436106100c95760003560e01c8063ac9650d811610081578063d9d98ce41161005b578063d9d98ce4146101b6578063e6b62636146101cc578063f7ae043a146101df57600080fd5b8063ac9650d814610152578063c325bfff14610172578063d97b2e481461018557600080fd5b80634f266187116100b25780634f266187146100f65780635cffe9de14610109578063613255ab1461013157600080fd5b80631f716e06146100ce5780633d3d286f146100e3575b600080fd5b6100e16100dc366004612fee565b610207565b005b6100e16100f1366004613041565b610323565b6100e1610104366004613088565b610614565b61011c6101173660046130d1565b61075e565b60405190151581526020015b60405180910390f35b61014461013f366004613170565b610882565b604051908152602001610128565b61016561016036600461318d565b610919565b6040516101289190613270565b6100e1610180366004613606565b610a0e565b61014461019336600461367c565b606760209081526000938452604080852082529284528284209052825290205481565b6101446101c43660046136bd565b600092915050565b6100e16101da366004613088565b610fcc565b6101f26101ed366004613041565b6110d1565b60408051928352602083019190915201610128565b61020f611644565b61021c6020820182613170565b73ffffffffffffffffffffffffffffffffffffffff163373ffffffffffffffffffffffffffffffffffffffff16146102b3573361025c6020830183613170565b6040517f4702b91400000000000000000000000000000000000000000000000000000000815273ffffffffffffffffffffffffffffffffffffffff9283166004820152911660248201526044015b60405180910390fd5b60006102c66102c1836136e9565b6116b7565b60008181526066602052604080822091909155519091507f6dc347e6969ea1c8495368209ce006ca56804623691335f306536e8b00e7f7799061030e90339085908590613884565b60405180910390a15061032060018055565b50565b61032b611644565b600061033a6020830183613170565b9050600073ffffffffffffffffffffffffffffffffffffffff8216631ed061d9610367604086018661399b565b61037360026000611706565b6040518363ffffffff1660e01b8152600401610390929190613a70565b6020604051808303816000875af11580156103af573d6000803e3d6000fd5b505050506040513d601f19601f820116820180604052508101906103d39190613b93565b905060006040518060e001604052803373ffffffffffffffffffffffffffffffffffffffff1681526020018560200160208101906104119190613170565b73ffffffffffffffffffffffffffffffffffffffff168152602001610439846000600261173a565b8152602001600061044d604088018861399b565b6104579080613bb0565b600181811061046857610468613c18565b905060200281019061047a9190613c47565b905011610488576000610495565b610495846001600061173a565b81526020016104a76060870187613cac565b808060200260200160405190810160405280939291908181526020016000905b828210156104f3576104e460608302860136819003810190613d13565b815260200190600101906104c7565b505050918352505060200161050b6080870187613cac565b808060200260200160405190810160405280939291908181526020016000905b828210156105575761054860608302860136819003810190613d13565b8152602001906001019061052b565b505050918352505060200161056f60a0870187613c47565b8080601f0160208091040260200160405190810160405280939291908181526020018383808284376000920182905250939094525092935091506105b49050826116b7565b6000818152606660205260409081902060019055519091507ff2d122ec0221a265ba577c8d1cbc391d998c133e1214815df3c68e66d8ee3858906105ff903390879086908690613e18565b60405180910390a15050505061032060018055565b61061c611644565b336000908152606760209081526040822090829061063c90850185613170565b73ffffffffffffffffffffffffffffffffffffffff168152602080820192909252604090810160009081208584013582529092528082205492506106839084013583611769565b905061068f8183613e91565b336000908152606760209081526040822091906106ae90870187613170565b73ffffffffffffffffffffffffffffffffffffffff1673ffffffffffffffffffffffffffffffffffffffff168152602001908152602001600020600085602001358152602001908152602001600020819055507f2538ccc7ad2a119a36f2e65c1e2fc908beef800cd59b5d6680db24de18e7847a33848360405161073493929190613edc565b60405180910390a161075361074c6020850185613170565b338361177f565b505061032060018055565b600061076b858786611877565b6040517f23e30c8b00000000000000000000000000000000000000000000000000000000815260009073ffffffffffffffffffffffffffffffffffffffff8816906323e30c8b906107ca9033908a908a9087908b908b90600401613f14565b6020604051808303816000875af11580156107e9573d6000803e3d6000fd5b505050506040513d601f19601f8201168201806040525081019061080d9190613f66565b90507f439148f0bbc682ca079e46d6e2c2f0c1e3b820f1a291b069d8882abf8cf18dd9811461086b576040517f5b62c548000000000000000000000000000000000000000000000000000000008152600481018290526024016102aa565b61087586886118e2565b5060019695505050505050565b6040517f70a0823100000000000000000000000000000000000000000000000000000000815230600482015260009073ffffffffffffffffffffffffffffffffffffffff8316906370a0823190602401602060405180830381865afa1580156108ef573d6000803e3d6000fd5b505050506040513d601f19601f820116820180604052508101906109139190613f66565b92915050565b60608167ffffffffffffffff811115610934576109346132f0565b60405190808252806020026020018201604052801561096757816020015b60608152602001906001900390816109525790505b50905060005b82811015610a07576109d73085858481811061098b5761098b613c18565b905060200281019061099d9190613c47565b8080601f016020809104026020016040519081016040528093929190818152602001838380828437600092019190915250611a1992505050565b8282815181106109e9576109e9613c18565b602002602001018190525080806109ff90613f7f565b91505061096d565b5092915050565b610a16611644565b8151835173ffffffffffffffffffffffffffffffffffffffff918216911603610a865782516040517f227e4ce900000000000000000000000000000000000000000000000000000000815273ffffffffffffffffffffffffffffffffffffffff90911660048201526024016102aa565b8160800151816040013581518110610aa057610aa0613c18565b60200260200101516000015173ffffffffffffffffffffffffffffffffffffffff168360a00151826020013581518110610adc57610adc613c18565b60200260200101516000015173ffffffffffffffffffffffffffffffffffffffff1614610ba1578260a00151816020013581518110610b1d57610b1d613c18565b6020026020010151600001518260800151826040013581518110610b4357610b43613c18565b6020908102919091010151516040517ff902523f00000000000000000000000000000000000000000000000000000000815273ffffffffffffffffffffffffffffffffffffffff9283166004820152911660248201526044016102aa565b608083015180518235908110610bb957610bb9613c18565b60200260200101516000015173ffffffffffffffffffffffffffffffffffffffff168260a00151826060013581518110610bf557610bf5613c18565b60200260200101516000015173ffffffffffffffffffffffffffffffffffffffff1614610c5c578160a00151816060013581518110610c3657610c36613c18565b6020026020010151600001518360800151826000013581518110610b4357610b43613c18565b600060666000610c6b866116b7565b81526020019081526020016000205403610cea577fe721f6888210c87666d3888f93b4139a86ab7757999ce54e268cba700d642a3b338460000151610caf866116b7565b6040805173ffffffffffffffffffffffffffffffffffffffff94851681529390921660208401529082015260600160405180910390a1610fbe565b600060666000610cf9856116b7565b81526020019081526020016000205403610d3d577fe721f6888210c87666d3888f93b4139a86ab7757999ce54e268cba700d642a3b338360000151610caf856116b7565b7f4578a20a33a65a80c6431b4b129eeadede7b9f012a55e153a492c294c6d7f47533848484604051610d729493929190613fb7565b60405180910390a16000610d9484836000013584602001358660000151611b58565b90506000610db084846040013585606001358860000151611b58565b90506000610dbe838361222c565b9050610dd4868260400151836000015186612301565b610de8858260600151836020015185612301565b60608101518151600091610dfb91613e91565b9050600082604001518360200151610e139190613e91565b90508115610eb957336000908152606760209081526040822060a08b01518051869492938b0135908110610e4957610e49613c18565b60200260200101516000015173ffffffffffffffffffffffffffffffffffffffff1673ffffffffffffffffffffffffffffffffffffffff1681526020019081526020016000206000886080013581526020019081526020016000206000828254610eb39190614041565b90915550505b8015610f5d5733600090815260676020526040812060a089015180518493919060608b0135908110610eed57610eed613c18565b60200260200101516000015173ffffffffffffffffffffffffffffffffffffffff1673ffffffffffffffffffffffffffffffffffffffff16815260200190815260200160002060008860a0013581526020019081526020016000206000828254610f579190614041565b90915550505b5050604080513381528251602080830191909152830151818301529082015160608083019190915282015160808201527f3f20e55919cca701abb2a40ab72542b25ea7eed63a50f979dd2cd3231e5f488d9060a00160405180910390a15050505b610fc760018055565b505050565b610fd4611644565b7fadc7bd964a04a8a02261d33d2d09c6a7d9f539bc5eab77008e85fc6661ef12313382604051611005929190614054565b60405180910390a1611042333060408401356110246020860186613170565b73ffffffffffffffffffffffffffffffffffffffff169291906127a1565b3360009081526067602090815260408083209084013592909161106790850185613170565b73ffffffffffffffffffffffffffffffffffffffff1673ffffffffffffffffffffffffffffffffffffffff16815260200190815260200160002060008360200135815260200190815260200160002060008282546110c59190614041565b90915550506001805550565b6000806110dc611644565b6040805161014081018252600060608083018281526080840183905260a0840183905260c0840183905260e0840182905261010084018290526101208401919091528252602082018190529181018290526111996040518060e00160405280600073ffffffffffffffffffffffffffffffffffffffff168152602001600073ffffffffffffffffffffffffffffffffffffffff16815260200160008152602001600081526020016060815260200160608152602001606081525090565b60608601355b6111ac60a0880188613bb0565b9050841080156111bc5750600081115b1561158e576111ce60a0880188613bb0565b858181106111de576111de613c18565b90506020028101906111f0919061407e565b6111f9906140b2565b80519093509150600061120b836116b7565b60008181526066602052604090205490915061127e5782516040805133815273ffffffffffffffffffffffffffffffffffffffff909216602083015281018290527fe721f6888210c87666d3888f93b4139a86ab7757999ce54e268cba700d642a3b9060600160405180910390a1611582565b61128b6020890189613170565b73ffffffffffffffffffffffffffffffffffffffff1683608001518560200151815181106112bb576112bb613c18565b60200260200101516000015173ffffffffffffffffffffffffffffffffffffffff16146113685782608001518460200151815181106112fc576112fc613c18565b6020908102919091018101515190611316908a018a613170565b6040517ff902523f00000000000000000000000000000000000000000000000000000000815273ffffffffffffffffffffffffffffffffffffffff9283166004820152911660248201526044016102aa565b6113786040890160208a01613170565b73ffffffffffffffffffffffffffffffffffffffff168360a001518560400151815181106113a8576113a8613c18565b60200260200101516000015173ffffffffffffffffffffffffffffffffffffffff1614611408578260a001518460400151815181106113e9576113e9613c18565b6020026020010151600001518860200160208101906113169190613170565b600061141e848660200151876040015133611b58565b905088608001358160200151111561148e5783516040805133815273ffffffffffffffffffffffffffffffffffffffff909216602083015281018390527f460c258f27efac20e56c4607a28003d235168e76997ffb7542637d26d45ea6d8906060015b60405180910390a1611580565b80516000036114ec5783516040805133815273ffffffffffffffffffffffffffffffffffffffff909216602083015281018390527f3ba461a0ffd1b6782d4817ae7be605cfb1bbb4fa503c0dd613b8e50f1dcafacd90606001611481565b80516000906114fc908590611769565b9050600061151a836020015160018461287d9092919063ffffffff16565b90506115268286613e91565b9450611532818a614041565b985061154086828486612301565b7f41b0ea9331ded332ca7722c5f71c743f3a1a4c058177fee9488a8813ebbb21af33888484604051611575949392919061410f565b60405180910390a150505b505b5060019093019261119f565b61159c816060890135613e91565b955086604001358610156115e957604080517f45094d88000000000000000000000000000000000000000000000000000000008152908801356004820152602481018790526044016102aa565b6115fc33308761102460208c018c613170565b61161661160f6040890160208a01613170565b338861177f565b5050505061162360018055565b915091565b73ffffffffffffffffffffffffffffffffffffffff163b151590565b6002600154036116b0576040517f08c379a000000000000000000000000000000000000000000000000000000000815260206004820152601f60248201527f5265656e7472616e637947756172643a207265656e7472616e742063616c6c0060448201526064016102aa565b6002600155565b6000816040516020016116ca919061416e565b604080517fffffffffffffffffffffffffffffffffffffffffffffffffffffffffffffffe0818403018152919052805160209091012092915050565b6040805160028082526060808301845292600092919060208301908036833750505060208101949094525050604082015290565b77ffffffffffffffffffffffffffffffffffffffff00000000602084901b16601083901b1781175b9392505050565b60008183106117785781611762565b5090919050565b73ffffffffffffffffffffffffffffffffffffffff808416600090815260656020908152604080832093861683529290522054808211156118275780156117f65773ffffffffffffffffffffffffffffffffffffffff80851660009081526065602090815260408083209387168352929052908120555b611822836118048385613e91565b73ffffffffffffffffffffffffffffffffffffffff87169190612893565b611871565b73ffffffffffffffffffffffffffffffffffffffff80851660009081526065602090815260408083209387168352929052908120805484929061186b908490613e91565b90915550505b50505050565b73ffffffffffffffffffffffffffffffffffffffff8084166000908152606560209081526040808320938616835292905290812080548392906118bb908490614041565b90915550610fc7905073ffffffffffffffffffffffffffffffffffffffff84168383612893565b73ffffffffffffffffffffffffffffffffffffffff80831660009081526065602090815260408083209385168352929052205480156119875761193d73ffffffffffffffffffffffffffffffffffffffff84168330846127a1565b73ffffffffffffffffffffffffffffffffffffffff808416600090815260656020908152604080832093861683529290529081208054839290611981908490613e91565b90915550505b73ffffffffffffffffffffffffffffffffffffffff8084166000908152606560209081526040808320938616835292905220548015611871576040517fb3e596b400000000000000000000000000000000000000000000000000000000815273ffffffffffffffffffffffffffffffffffffffff808616600483015284166024820152604481018290526064016102aa565b606073ffffffffffffffffffffffffffffffffffffffff83163b611abf576040517f08c379a000000000000000000000000000000000000000000000000000000000815260206004820152602660248201527f416464726573733a2064656c65676174652063616c6c20746f206e6f6e2d636f60448201527f6e7472616374000000000000000000000000000000000000000000000000000060648201526084016102aa565b6000808473ffffffffffffffffffffffffffffffffffffffff1684604051611ae79190614181565b600060405180830381855af49150503d8060008114611b22576040519150601f19603f3d011682016040523d82523d6000602084013e611b27565b606091505b5091509150611b4f828260405180606001604052806027815260200161456d602791396128e9565b95945050505050565b611ba76040518060c00160405280600081526020016000815260200160608152602001600073ffffffffffffffffffffffffffffffffffffffff16815260200160008152602001606081525090565b6000611bb2866116b7565b60408051600480825260a0820190925291925060009190816020015b6060815260200190600190039081611bce579050509050611c2082886000015173ffffffffffffffffffffffffffffffffffffffff168673ffffffffffffffffffffffffffffffffffffffff16612902565b81600081518110611c3357611c33613c18565b6020026020010181905250611d9b87608001518781518110611c5757611c57613c18565b60200260200101516000015173ffffffffffffffffffffffffffffffffffffffff1688608001518881518110611c8f57611c8f613c18565b60200260200101516020015160ff1689608001518981518110611cb457611cb4613c18565b602002602001015160400151606760008c6000015173ffffffffffffffffffffffffffffffffffffffff1673ffffffffffffffffffffffffffffffffffffffff16815260200190815260200160002060008c608001518c81518110611d1b57611d1b613c18565b60200260200101516000015173ffffffffffffffffffffffffffffffffffffffff1673ffffffffffffffffffffffffffffffffffffffff16815260200190815260200160002060008c608001518c81518110611d7957611d79613c18565b602002602001015160400151815260200190815260200160002054600061293f565b81600281518110611dae57611dae613c18565b6020026020010181905250611ef48760a001518681518110611dd257611dd2613c18565b60200260200101516000015173ffffffffffffffffffffffffffffffffffffffff168860a001518781518110611e0a57611e0a613c18565b60200260200101516020015160ff168960a001518881518110611e2f57611e2f613c18565b602002602001015160400151606760008c6000015173ffffffffffffffffffffffffffffffffffffffff1673ffffffffffffffffffffffffffffffffffffffff16815260200190815260200160002060008c60a001518b81518110611e9657611e96613c18565b60200260200101516000015173ffffffffffffffffffffffffffffffffffffffff1673ffffffffffffffffffffffffffffffffffffffff16815260200190815260200160002060008c60a001518b81518110611d7957611d79613c18565b81600381518110611f0757611f07613c18565b60200260200101819052506000876000015173ffffffffffffffffffffffffffffffffffffffff16905060008060008a6020015173ffffffffffffffffffffffffffffffffffffffff1663385e37fe858d60400151886040518463ffffffff1660e01b8152600401611f7b939291906141e8565b600060405180830381865afa158015611f98573d6000803e3d6000fd5b505050506040513d6000823e601f3d9081017fffffffffffffffffffffffffffffffffffffffffffffffffffffffffffffffe0168201604052611fde919081019061426d565b925092509250600083600285510381518110611ffc57611ffc613c18565b6020026020010151905060008460018651038151811061201e5761201e613c18565b602002602001015190506120628d60a001518c8151811061204157612041613c18565b60200260200101516020015160ff1660008461298a9092919063ffffffff16565b91506120c48d60a001518c8151811061207d5761207d613c18565b60200260200101516020015160ff168e608001518e815181106120a2576120a2613c18565b60200260200101516020015160ff166001846129f9909392919063ffffffff16565b90506121ac606760008f6000015173ffffffffffffffffffffffffffffffffffffffff1673ffffffffffffffffffffffffffffffffffffffff16815260200190815260200160002060008f60a001518e8151811061212457612124613c18565b60200260200101516000015173ffffffffffffffffffffffffffffffffffffffff1673ffffffffffffffffffffffffffffffffffffffff16815260200190815260200160002060008f60a001518e8151811061218257612182613c18565b6020026020010151604001518152602001908152602001600020548361176990919063ffffffff16565b91506121b88282611706565b876001815181106121cb576121cb613c18565b60200260200101819052506040518060c001604052808381526020018281526020018881526020018573ffffffffffffffffffffffffffffffffffffffff16815260200187815260200184815250985050505050505050505b949350505050565b6122576040518060800160405280600081526020016000815260200160008152602001600081525090565b6122826040518060800160405280600081526020016000815260200160008152602001600081525090565b602083015183516122a1916122999190600161287d565b855190611769565b8152602084015184516122c2916122ba9190600161287d565b845190611769565b60208083019190915284015181516122db91600161287d565b6040820152602080840151908201516122f591600161287d565b60608201529392505050565b82816040015160028151811061231957612319613c18565b602002602001015160048151811061233357612333613c18565b60200260200101818152505081816040015160038151811061235757612357613c18565b602002602001015160048151811061237157612371613c18565b6020908102919091010152821561247e57835173ffffffffffffffffffffffffffffffffffffffff166000908152606760205260408082209083015180518693919060029081106123c4576123c4613c18565b60200260200101516000815181106123de576123de613c18565b602002602001015173ffffffffffffffffffffffffffffffffffffffff1673ffffffffffffffffffffffffffffffffffffffff1681526020019081526020016000206000836040015160028151811061243957612439613c18565b602002602001015160028151811061245357612453613c18565b6020026020010151815260200190815260200160002060008282546124789190614041565b90915550505b811561258057835173ffffffffffffffffffffffffffffffffffffffff166000908152606760205260408082209083015180518593919060039081106124c6576124c6613c18565b60200260200101516000815181106124e0576124e0613c18565b602002602001015173ffffffffffffffffffffffffffffffffffffffff1673ffffffffffffffffffffffffffffffffffffffff1681526020019081526020016000206000836040015160038151811061253b5761253b613c18565b602002602001015160028151811061255557612555613c18565b60200260200101518152602001908152602001600020600082825461257a9190613e91565b90915550505b7f17a5c0f3785132a57703932032f6863e7920434150aa1dc940e567b440fdce1f3382604001516040516125b59291906142e4565b60405180910390a160a0810151511561264257806060015173ffffffffffffffffffffffffffffffffffffffff1663946aadc682608001518360a001516040518363ffffffff1660e01b815260040161260f929190614313565b600060405180830381600087803b15801561262957600080fd5b505af115801561263d573d6000803e3d6000fd5b505050505b60608401511561187157600080856020015173ffffffffffffffffffffffffffffffffffffffff1663385e37fe8460800151886060015186604001516040518463ffffffff1660e01b815260040161269c939291906141e8565b600060405180830381865afa1580156126b9573d6000803e3d6000fd5b505050506040513d6000823e601f3d9081017fffffffffffffffffffffffffffffffffffffffffffffffffffffffffffffffe01682016040526126ff919081019061426d565b92509250506000815111156127995760808301516040517f946aadc600000000000000000000000000000000000000000000000000000000815273ffffffffffffffffffffffffffffffffffffffff84169163946aadc69161276691908590600401614313565b600060405180830381600087803b15801561278057600080fd5b505af1158015612794573d6000803e3d6000fd5b505050505b505050505050565b60405173ffffffffffffffffffffffffffffffffffffffff808516602483015283166044820152606481018290526118719085907f23b872dd00000000000000000000000000000000000000000000000000000000906084015b604080517fffffffffffffffffffffffffffffffffffffffffffffffffffffffffffffffe08184030181529190526020810180517bffffffffffffffffffffffffffffffffffffffffffffffffffffffff167fffffffff0000000000000000000000000000000000000000000000000000000090931692909217909152612a17565b60006122248484670de0b6b3a764000085612b23565b60405173ffffffffffffffffffffffffffffffffffffffff8316602482015260448101829052610fc79084907fa9059cbb00000000000000000000000000000000000000000000000000000000906064016127fb565b606083156128f8575081611762565b6117628383612b7e565b6040805160038082526080820190925260609160009190602082018480368337505050602081019590955250506040830191909152606082015290565b60408051600580825260c08201909252606091600091906020820160a0803683375050506020810197909752505060408501939093526060840191909152608083015260a082015290565b6000806012840361299e5784915050611762565b83601211156129c0578360120390506129b8858285612bc2565b915050611762565b507fffffffffffffffffffffffffffffffffffffffffffffffffffffffffffffffee83016129b86129f282600a61444c565b8690612c17565b6000611b4f85612a11612a0c8787614458565b612c71565b84612d0a565b6000612a79826040518060400160405280602081526020017f5361666545524332303a206c6f772d6c6576656c2063616c6c206661696c65648152508573ffffffffffffffffffffffffffffffffffffffff16612d599092919063ffffffff16565b805190915015610fc75780806020019051810190612a979190614478565b610fc7576040517f08c379a000000000000000000000000000000000000000000000000000000000815260206004820152602a60248201527f5361666545524332303a204552433230206f7065726174696f6e20646964206e60448201527f6f7420737563636565640000000000000000000000000000000000000000000060648201526084016102aa565b600080612b31868686612d68565b90506001836002811115612b4757612b4761449a565b148015612b64575060008480612b5f57612b5f6144c9565b868809115b15611b4f57612b74600182614041565b9695505050505050565b815115612b8e5781518083602001fd5b806040517f08c379a00000000000000000000000000000000000000000000000000000000081526004016102aa91906144f8565b600080612bd084600a61444c565b90506000612bde828761450b565b90506001846002811115612bf457612bf461449a565b148015612b645750612c068282614546565b8614611b4f57612b74600182614041565b600082600003612c2957506000610913565b82820282848281612c3c57612c3c6144c9565b0403612c485780612224565b7fffffffffffffffffffffffffffffffffffffffffffffffffffffffffffffffff949350505050565b80600081900b8114612d05576040517f08c379a000000000000000000000000000000000000000000000000000000000815260206004820152602560248201527f53616665436173743a2076616c756520646f65736e27742066697420696e203860448201527f206269747300000000000000000000000000000000000000000000000000000060648201526084016102aa565b919050565b60008260000b600003612d1e575082611762565b60008360000b1315612d4657612d3f612d3884600a61455d565b8590612c17565b9050611762565b60ff6000849003166129b8858285612bc2565b60606122248484600085612e35565b600080807fffffffffffffffffffffffffffffffffffffffffffffffffffffffffffffffff85870985870292508281108382030391505080600003612dc057838281612db657612db66144c9565b0492505050611762565b808411612dcc57600080fd5b60008486880960026001871981018816978890046003810283188082028403028082028403028082028403028082028403028082028403029081029092039091026000889003889004909101858311909403939093029303949094049190911702949350505050565b606082471015612ec7576040517f08c379a000000000000000000000000000000000000000000000000000000000815260206004820152602660248201527f416464726573733a20696e73756666696369656e742062616c616e636520666f60448201527f722063616c6c000000000000000000000000000000000000000000000000000060648201526084016102aa565b6000808673ffffffffffffffffffffffffffffffffffffffff168587604051612ef09190614181565b60006040518083038185875af1925050503d8060008114612f2d576040519150601f19603f3d011682016040523d82523d6000602084013e612f32565b606091505b5091509150612f4387838387612f4e565b979650505050505050565b60608315612fe4578251600003612fdd5773ffffffffffffffffffffffffffffffffffffffff85163b612fdd576040517f08c379a000000000000000000000000000000000000000000000000000000000815260206004820152601d60248201527f416464726573733a2063616c6c20746f206e6f6e2d636f6e747261637400000060448201526064016102aa565b5081612224565b6122248383612b7e565b60006020828403121561300057600080fd5b813567ffffffffffffffff81111561301757600080fd5b820160e0818503121561176257600080fd5b600060c0828403121561303b57600080fd5b50919050565b60006020828403121561305357600080fd5b813567ffffffffffffffff81111561306a57600080fd5b61222484828501613029565b60006060828403121561303b57600080fd5b60006060828403121561309a57600080fd5b6117628383613076565b73ffffffffffffffffffffffffffffffffffffffff8116811461032057600080fd5b8035612d05816130a4565b6000806000806000608086880312156130e957600080fd5b85356130f4816130a4565b94506020860135613104816130a4565b935060408601359250606086013567ffffffffffffffff8082111561312857600080fd5b818801915088601f83011261313c57600080fd5b81358181111561314b57600080fd5b89602082850101111561315d57600080fd5b9699959850939650602001949392505050565b60006020828403121561318257600080fd5b8135611762816130a4565b600080602083850312156131a057600080fd5b823567ffffffffffffffff808211156131b857600080fd5b818501915085601f8301126131cc57600080fd5b8135818111156131db57600080fd5b8660208260051b85010111156131f057600080fd5b60209290920196919550909350505050565b60005b8381101561321d578181015183820152602001613205565b50506000910152565b6000815180845261323e816020860160208601613202565b601f017fffffffffffffffffffffffffffffffffffffffffffffffffffffffffffffffe0169290920160200192915050565b6000602080830181845280855180835260408601915060408160051b870101925083870160005b828110156132e3577fffffffffffffffffffffffffffffffffffffffffffffffffffffffffffffffc08886030184526132d1858351613226565b94509285019290850190600101613297565b5092979650505050505050565b7f4e487b7100000000000000000000000000000000000000000000000000000000600052604160045260246000fd5b6040516060810167ffffffffffffffff81118282101715613342576133426132f0565b60405290565b60405160e0810167ffffffffffffffff81118282101715613342576133426132f0565b604051601f82017fffffffffffffffffffffffffffffffffffffffffffffffffffffffffffffffe016810167ffffffffffffffff811182821017156133b2576133b26132f0565b604052919050565b600067ffffffffffffffff8211156133d4576133d46132f0565b5060051b60200190565b803560ff81168114612d0557600080fd5b60006060828403121561340157600080fd5b61340961331f565b90508135613416816130a4565b8152613424602083016133de565b60208201526040820135604082015292915050565b600082601f83011261344a57600080fd5b8135602061345f61345a836133ba565b61336b565b8281526060928302850182019282820191908785111561347e57600080fd5b8387015b858110156134a15761349489826133ef565b8452928401928101613482565b5090979650505050505050565b600082601f8301126134bf57600080fd5b813567ffffffffffffffff8111156134d9576134d96132f0565b61350a60207fffffffffffffffffffffffffffffffffffffffffffffffffffffffffffffffe0601f8401160161336b565b81815284602083860101111561351f57600080fd5b816020850160208301376000918101602001919091529392505050565b600060e0828403121561354e57600080fd5b613556613348565b9050613561826130c6565b815261356f602083016130c6565b60208201526040820135604082015260608201356060820152608082013567ffffffffffffffff808211156135a357600080fd5b6135af85838601613439565b608084015260a08401359150808211156135c857600080fd5b6135d485838601613439565b60a084015260c08401359150808211156135ed57600080fd5b506135fa848285016134ae565b60c08301525092915050565b6000806000610100848603121561361c57600080fd5b833567ffffffffffffffff8082111561363457600080fd5b6136408783880161353c565b9450602086013591508082111561365657600080fd5b506136638682870161353c565b9250506136738560408601613029565b90509250925092565b60008060006060848603121561369157600080fd5b833561369c816130a4565b925060208401356136ac816130a4565b929592945050506040919091013590565b600080604083850312156136d057600080fd5b82356136db816130a4565b946020939093013593505050565b6000610913368361353c565b60008083357fffffffffffffffffffffffffffffffffffffffffffffffffffffffffffffffe184360301811261372a57600080fd5b830160208101925035905067ffffffffffffffff81111561374a57600080fd5b60608102360382131561375c57600080fd5b9250929050565b8183526000602080850194508260005b858110156137cc578135613786816130a4565b73ffffffffffffffffffffffffffffffffffffffff16875260ff6137ab8385016133de565b16878401526040828101359088015260609687019690910190600101613773565b509495945050505050565b60008083357fffffffffffffffffffffffffffffffffffffffffffffffffffffffffffffffe184360301811261380c57600080fd5b830160208101925035905067ffffffffffffffff81111561382c57600080fd5b80360382131561375c57600080fd5b8183528181602085013750600060208284010152600060207fffffffffffffffffffffffffffffffffffffffffffffffffffffffffffffffe0601f840116840101905092915050565b600073ffffffffffffffffffffffffffffffffffffffff80861683526060602084015284356138b2816130a4565b1660608301526138c4602085016130c6565b73ffffffffffffffffffffffffffffffffffffffff8116608084015250604084013560a0830152606084013560c083015261390260808501856136f5565b60e08085015261391761014085018284613763565b91505061392760a08601866136f5565b7fffffffffffffffffffffffffffffffffffffffffffffffffffffffffffffffa0808685030161010087015261395e848385613763565b935061396d60c08901896137d7565b9350915080868503016101208701525061398883838361383b565b9350505050826040830152949350505050565b600082357fffffffffffffffffffffffffffffffffffffffffffffffffffffffffffffffc18336030181126139cf57600080fd5b9190910192915050565b60008083357fffffffffffffffffffffffffffffffffffffffffffffffffffffffffffffffe1843603018112613a0e57600080fd5b830160208101925035905067ffffffffffffffff811115613a2e57600080fd5b8060051b360382131561375c57600080fd5b600081518084526020808501945080840160005b838110156137cc57815187529582019590820190600101613a54565b60408152600060808201613a8485866139d9565b6040808601528281845260a08601905060a08260051b87010193508260005b83811015613afe577fffffffffffffffffffffffffffffffffffffffffffffffffffffffffffffff60888703018352613adc82866137d7565b613ae788828461383b565b975050506020928301929190910190600101613aa3565b5050505050613b1060208601866139d9565b7fffffffffffffffffffffffffffffffffffffffffffffffffffffffffffffffc08584030160608601528083527f07ffffffffffffffffffffffffffffffffffffffffffffffffffffffffffffff811115613b6a57600080fd5b60051b80826020850137808301925050506020838203016020840152611b4f6020820185613a40565b600060208284031215613ba557600080fd5b8151611762816130a4565b60008083357fffffffffffffffffffffffffffffffffffffffffffffffffffffffffffffffe1843603018112613be557600080fd5b83018035915067ffffffffffffffff821115613c0057600080fd5b6020019150600581901b360382131561375c57600080fd5b7f4e487b7100000000000000000000000000000000000000000000000000000000600052603260045260246000fd5b60008083357fffffffffffffffffffffffffffffffffffffffffffffffffffffffffffffffe1843603018112613c7c57600080fd5b83018035915067ffffffffffffffff821115613c9757600080fd5b60200191503681900382131561375c57600080fd5b60008083357fffffffffffffffffffffffffffffffffffffffffffffffffffffffffffffffe1843603018112613ce157600080fd5b83018035915067ffffffffffffffff821115613cfc57600080fd5b602001915060608102360382131561375c57600080fd5b600060608284031215613d2557600080fd5b61176283836133ef565b600081518084526020808501945080840160005b838110156137cc578151805173ffffffffffffffffffffffffffffffffffffffff1688528381015160ff16848901526040908101519088015260609096019590820190600101613d43565b600073ffffffffffffffffffffffffffffffffffffffff808351168452806020840151166020850152506040820151604084015260608201516060840152608082015160e06080850152613de560e0850182613d2f565b905060a083015184820360a0860152613dfe8282613d2f565b91505060c083015184820360c0860152611b4f8282613226565b600073ffffffffffffffffffffffffffffffffffffffff808716835280861660208401525060806040830152613e516080830185613d8e565b905082606083015295945050505050565b7f4e487b7100000000000000000000000000000000000000000000000000000000600052601160045260246000fd5b8181038181111561091357610913613e62565b8035613eaf816130a4565b73ffffffffffffffffffffffffffffffffffffffff16825260208181013590830152604090810135910152565b73ffffffffffffffffffffffffffffffffffffffff8416815260a08101613f066020830185613ea4565b826080830152949350505050565b600073ffffffffffffffffffffffffffffffffffffffff808916835280881660208401525085604083015284606083015260a06080830152613f5a60a08301848661383b565b98975050505050505050565b600060208284031215613f7857600080fd5b5051919050565b60007fffffffffffffffffffffffffffffffffffffffffffffffffffffffffffffffff8203613fb057613fb0613e62565b5060010190565b600061012073ffffffffffffffffffffffffffffffffffffffff87168352806020840152613fe781840187613d8e565b90508281036040840152613ffb8186613d8e565b9150508235606083015260208301356080830152604083013560a0830152606083013560c0830152608083013560e083015260a083013561010083015295945050505050565b8082018082111561091357610913613e62565b73ffffffffffffffffffffffffffffffffffffffff83168152608081016117626020830184613ea4565b600082357fffffffffffffffffffffffffffffffffffffffffffffffffffffffffffffffa18336030181126139cf57600080fd5b6000606082360312156140c457600080fd5b6140cc61331f565b823567ffffffffffffffff8111156140e357600080fd5b6140ef3682860161353c565b825250602083013560208201526040830135604082015280915050919050565b73ffffffffffffffffffffffffffffffffffffffff8516815260806020820152600084516060608084015261414760e0840182613d8e565b602087015160a085015260409687015160c085015295830194909452506060015250919050565b6020815260006117626020830184613d8e565b600082516139cf818460208701613202565b600081518084526020808501808196508360051b8101915082860160005b858110156141db5782840389526141c9848351613a40565b988501989350908401906001016141b1565b5091979650505050505050565b838152826020820152606060408201526000611b4f6060830184614193565b600082601f83011261421857600080fd5b8151602061422861345a836133ba565b82815260059290921b8401810191818101908684111561424757600080fd5b8286015b84811015614262578051835291830191830161424b565b509695505050505050565b60008060006060848603121561428257600080fd5b835167ffffffffffffffff8082111561429a57600080fd5b6142a687838801614207565b9450602086015191506142b8826130a4565b6040860151919350808211156142cd57600080fd5b506142da86828701614207565b9150509250925092565b73ffffffffffffffffffffffffffffffffffffffff831681526040602082015260006122246040830184614193565b8281526040602082015260006122246040830184613a40565b600181815b8085111561438557817fffffffffffffffffffffffffffffffffffffffffffffffffffffffffffffffff0482111561436b5761436b613e62565b8085161561437857918102915b93841c9390800290614331565b509250929050565b60008261439c57506001610913565b816143a957506000610913565b81600181146143bf57600281146143c9576143e5565b6001915050610913565b60ff8411156143da576143da613e62565b50506001821b610913565b5060208310610133831016604e8410600b8410161715614408575081810a610913565b614412838361432c565b807fffffffffffffffffffffffffffffffffffffffffffffffffffffffffffffffff0482111561444457614444613e62565b029392505050565b6000611762838361438d565b8181036000831280158383131683831282161715610a0757610a07613e62565b60006020828403121561448a57600080fd5b8151801515811461176257600080fd5b7f4e487b7100000000000000000000000000000000000000000000000000000000600052602160045260246000fd5b7f4e487b7100000000000000000000000000000000000000000000000000000000600052601260045260246000fd5b6020815260006117626020830184613226565b600082614541577f4e487b7100000000000000000000000000000000000000000000000000000000600052601260045260246000fd5b500490565b808202811582820484141761091357610913613e62565b600061176260ff84168361438d56fe416464726573733a206c6f772d6c6576656c2064656c65676174652063616c6c206661696c6564a2646970667358221220d91d2de84da55f468f63cdc380cf1c26b272393a67d0b67c61b9dcdf8356545a64736f6c63430008110033496e697469616c697a61626c653a20636f6e7472616374206973206e6f742069",
  "linkReferences": {},
  "deployedLinkReferences": {}
}