{
  "_format": "hh-sol-artifact-1",
  "contractName": "OrderBook",
  "sourceName": "contracts/orderbook/OrderBook.sol",
  "abi": [
    {
      "inputs": [],
      "stateMutability": "nonpayable",
      "type": "constructor"
    },
    {
      "anonymous": false,
      "inputs": [
        {
          "indexed": false,
          "internalType": "address",
          "name": "sender",
          "type": "address"
        },
        {
          "components": [
            {
              "internalType": "address",
              "name": "owner",
              "type": "address"
            },
            {
              "internalType": "address",
              "name": "interpreter",
              "type": "address"
            },
            {
              "internalType": "EncodedDispatch",
              "name": "dispatch",
              "type": "uint256"
            },
            {
              "internalType": "EncodedDispatch",
              "name": "handleIODispatch",
              "type": "uint256"
            },
            {
              "components": [
                {
                  "internalType": "address",
                  "name": "token",
                  "type": "address"
                },
                {
                  "internalType": "uint8",
                  "name": "decimals",
                  "type": "uint8"
                },
                {
                  "internalType": "uint256",
                  "name": "vaultId",
                  "type": "uint256"
                }
              ],
              "internalType": "struct IO[]",
              "name": "validInputs",
              "type": "tuple[]"
            },
            {
              "components": [
                {
                  "internalType": "address",
                  "name": "token",
                  "type": "address"
                },
                {
                  "internalType": "uint8",
                  "name": "decimals",
                  "type": "uint8"
                },
                {
                  "internalType": "uint256",
                  "name": "vaultId",
                  "type": "uint256"
                }
              ],
              "internalType": "struct IO[]",
              "name": "validOutputs",
              "type": "tuple[]"
            },
            {
              "internalType": "bytes",
              "name": "data",
              "type": "bytes"
            }
          ],
          "indexed": false,
          "internalType": "struct Order",
          "name": "order",
          "type": "tuple"
        },
        {
          "indexed": false,
          "internalType": "uint256",
          "name": "orderHash",
          "type": "uint256"
        }
      ],
      "name": "AddOrder",
      "type": "event"
    },
    {
      "anonymous": false,
      "inputs": [
        {
          "components": [
            {
              "internalType": "uint256",
              "name": "aOutput",
              "type": "uint256"
            },
            {
              "internalType": "uint256",
              "name": "bOutput",
              "type": "uint256"
            },
            {
              "internalType": "uint256",
              "name": "aInput",
              "type": "uint256"
            },
            {
              "internalType": "uint256",
              "name": "bInput",
              "type": "uint256"
            }
          ],
          "indexed": false,
          "internalType": "struct ClearStateChange",
          "name": "stateChange",
          "type": "tuple"
        }
      ],
      "name": "AfterClear",
      "type": "event"
    },
    {
      "anonymous": false,
      "inputs": [
        {
          "indexed": false,
          "internalType": "address",
          "name": "sender",
          "type": "address"
        },
        {
          "components": [
            {
              "internalType": "address",
              "name": "owner",
              "type": "address"
            },
            {
              "internalType": "address",
              "name": "interpreter",
              "type": "address"
            },
            {
              "internalType": "EncodedDispatch",
              "name": "dispatch",
              "type": "uint256"
            },
            {
              "internalType": "EncodedDispatch",
              "name": "handleIODispatch",
              "type": "uint256"
            },
            {
              "components": [
                {
                  "internalType": "address",
                  "name": "token",
                  "type": "address"
                },
                {
                  "internalType": "uint8",
                  "name": "decimals",
                  "type": "uint8"
                },
                {
                  "internalType": "uint256",
                  "name": "vaultId",
                  "type": "uint256"
                }
              ],
              "internalType": "struct IO[]",
              "name": "validInputs",
              "type": "tuple[]"
            },
            {
              "components": [
                {
                  "internalType": "address",
                  "name": "token",
                  "type": "address"
                },
                {
                  "internalType": "uint8",
                  "name": "decimals",
                  "type": "uint8"
                },
                {
                  "internalType": "uint256",
                  "name": "vaultId",
                  "type": "uint256"
                }
              ],
              "internalType": "struct IO[]",
              "name": "validOutputs",
              "type": "tuple[]"
            },
            {
              "internalType": "bytes",
              "name": "data",
              "type": "bytes"
            }
          ],
          "indexed": false,
          "internalType": "struct Order",
          "name": "a",
          "type": "tuple"
        },
        {
          "components": [
            {
              "internalType": "address",
              "name": "owner",
              "type": "address"
            },
            {
              "internalType": "address",
              "name": "interpreter",
              "type": "address"
            },
            {
              "internalType": "EncodedDispatch",
              "name": "dispatch",
              "type": "uint256"
            },
            {
              "internalType": "EncodedDispatch",
              "name": "handleIODispatch",
              "type": "uint256"
            },
            {
              "components": [
                {
                  "internalType": "address",
                  "name": "token",
                  "type": "address"
                },
                {
                  "internalType": "uint8",
                  "name": "decimals",
                  "type": "uint8"
                },
                {
                  "internalType": "uint256",
                  "name": "vaultId",
                  "type": "uint256"
                }
              ],
              "internalType": "struct IO[]",
              "name": "validInputs",
              "type": "tuple[]"
            },
            {
              "components": [
                {
                  "internalType": "address",
                  "name": "token",
                  "type": "address"
                },
                {
                  "internalType": "uint8",
                  "name": "decimals",
                  "type": "uint8"
                },
                {
                  "internalType": "uint256",
                  "name": "vaultId",
                  "type": "uint256"
                }
              ],
              "internalType": "struct IO[]",
              "name": "validOutputs",
              "type": "tuple[]"
            },
            {
              "internalType": "bytes",
              "name": "data",
              "type": "bytes"
            }
          ],
          "indexed": false,
          "internalType": "struct Order",
          "name": "b",
          "type": "tuple"
        },
        {
          "components": [
            {
              "internalType": "uint256",
              "name": "aInputIOIndex",
              "type": "uint256"
            },
            {
              "internalType": "uint256",
              "name": "aOutputIOIndex",
              "type": "uint256"
            },
            {
              "internalType": "uint256",
              "name": "bInputIOIndex",
              "type": "uint256"
            },
            {
              "internalType": "uint256",
              "name": "bOutputIOIndex",
              "type": "uint256"
            },
            {
              "internalType": "uint256",
              "name": "aBountyVaultId",
              "type": "uint256"
            },
            {
              "internalType": "uint256",
              "name": "bBountyVaultId",
              "type": "uint256"
            }
          ],
          "indexed": false,
          "internalType": "struct ClearConfig",
          "name": "clearConfig",
          "type": "tuple"
        }
      ],
      "name": "Clear",
      "type": "event"
    },
    {
      "anonymous": false,
      "inputs": [
        {
          "indexed": false,
          "internalType": "address",
          "name": "sender",
          "type": "address"
        },
        {
          "components": [
            {
              "internalType": "address",
              "name": "token",
              "type": "address"
            },
            {
              "internalType": "uint256",
              "name": "vaultId",
              "type": "uint256"
            },
            {
              "internalType": "uint256",
              "name": "amount",
              "type": "uint256"
            }
          ],
          "indexed": false,
          "internalType": "struct DepositConfig",
          "name": "config",
          "type": "tuple"
        }
      ],
      "name": "Deposit",
      "type": "event"
    },
    {
      "anonymous": false,
      "inputs": [
        {
          "indexed": false,
          "internalType": "uint8",
          "name": "version",
          "type": "uint8"
        }
      ],
      "name": "Initialized",
      "type": "event"
    },
    {
      "anonymous": false,
      "inputs": [
        {
          "indexed": false,
          "internalType": "address",
          "name": "sender",
          "type": "address"
        },
        {
          "indexed": false,
          "internalType": "address",
          "name": "owner",
          "type": "address"
        },
        {
          "indexed": false,
          "internalType": "uint256",
          "name": "orderHash",
          "type": "uint256"
        }
      ],
      "name": "OrderExceedsMaxRatio",
      "type": "event"
    },
    {
      "anonymous": false,
      "inputs": [
        {
          "indexed": false,
          "internalType": "address",
          "name": "sender",
          "type": "address"
        },
        {
          "indexed": false,
          "internalType": "address",
          "name": "owner",
          "type": "address"
        },
        {
          "indexed": false,
          "internalType": "uint256",
          "name": "orderHash",
          "type": "uint256"
        }
      ],
      "name": "OrderNotFound",
      "type": "event"
    },
    {
      "anonymous": false,
      "inputs": [
        {
          "indexed": false,
          "internalType": "address",
          "name": "sender",
          "type": "address"
        },
        {
          "indexed": false,
          "internalType": "address",
          "name": "owner",
          "type": "address"
        },
        {
          "indexed": false,
          "internalType": "uint256",
          "name": "orderHash",
          "type": "uint256"
        }
      ],
      "name": "OrderZeroAmount",
      "type": "event"
    },
    {
      "anonymous": false,
      "inputs": [
        {
          "indexed": false,
          "internalType": "address",
          "name": "sender",
          "type": "address"
        },
        {
          "components": [
            {
              "internalType": "address",
              "name": "owner",
              "type": "address"
            },
            {
              "internalType": "address",
              "name": "interpreter",
              "type": "address"
            },
            {
              "internalType": "EncodedDispatch",
              "name": "dispatch",
              "type": "uint256"
            },
            {
              "internalType": "EncodedDispatch",
              "name": "handleIODispatch",
              "type": "uint256"
            },
            {
              "components": [
                {
                  "internalType": "address",
                  "name": "token",
                  "type": "address"
                },
                {
                  "internalType": "uint8",
                  "name": "decimals",
                  "type": "uint8"
                },
                {
                  "internalType": "uint256",
                  "name": "vaultId",
                  "type": "uint256"
                }
              ],
              "internalType": "struct IO[]",
              "name": "validInputs",
              "type": "tuple[]"
            },
            {
              "components": [
                {
                  "internalType": "address",
                  "name": "token",
                  "type": "address"
                },
                {
                  "internalType": "uint8",
                  "name": "decimals",
                  "type": "uint8"
                },
                {
                  "internalType": "uint256",
                  "name": "vaultId",
                  "type": "uint256"
                }
              ],
              "internalType": "struct IO[]",
              "name": "validOutputs",
              "type": "tuple[]"
            },
            {
              "internalType": "bytes",
              "name": "data",
              "type": "bytes"
            }
          ],
          "indexed": false,
          "internalType": "struct Order",
          "name": "order",
          "type": "tuple"
        },
        {
          "indexed": false,
          "internalType": "uint256",
          "name": "orderHash",
          "type": "uint256"
        }
      ],
      "name": "RemoveOrder",
      "type": "event"
    },
    {
      "anonymous": false,
      "inputs": [
        {
          "indexed": false,
          "internalType": "address",
          "name": "sender",
          "type": "address"
        },
        {
          "components": [
            {
              "components": [
                {
                  "internalType": "address",
                  "name": "owner",
                  "type": "address"
                },
                {
                  "internalType": "address",
                  "name": "interpreter",
                  "type": "address"
                },
                {
                  "internalType": "EncodedDispatch",
                  "name": "dispatch",
                  "type": "uint256"
                },
                {
                  "internalType": "EncodedDispatch",
                  "name": "handleIODispatch",
                  "type": "uint256"
                },
                {
                  "components": [
                    {
                      "internalType": "address",
                      "name": "token",
                      "type": "address"
                    },
                    {
                      "internalType": "uint8",
                      "name": "decimals",
                      "type": "uint8"
                    },
                    {
                      "internalType": "uint256",
                      "name": "vaultId",
                      "type": "uint256"
                    }
                  ],
                  "internalType": "struct IO[]",
                  "name": "validInputs",
                  "type": "tuple[]"
                },
                {
                  "components": [
                    {
                      "internalType": "address",
                      "name": "token",
                      "type": "address"
                    },
                    {
                      "internalType": "uint8",
                      "name": "decimals",
                      "type": "uint8"
                    },
                    {
                      "internalType": "uint256",
                      "name": "vaultId",
                      "type": "uint256"
                    }
                  ],
                  "internalType": "struct IO[]",
                  "name": "validOutputs",
                  "type": "tuple[]"
                },
                {
                  "internalType": "bytes",
                  "name": "data",
                  "type": "bytes"
                }
              ],
              "internalType": "struct Order",
              "name": "order",
              "type": "tuple"
            },
            {
              "internalType": "uint256",
              "name": "inputIOIndex",
              "type": "uint256"
            },
            {
              "internalType": "uint256",
              "name": "outputIOIndex",
              "type": "uint256"
            }
          ],
          "indexed": false,
          "internalType": "struct TakeOrderConfig",
          "name": "takeOrder",
          "type": "tuple"
        },
        {
          "indexed": false,
          "internalType": "uint256",
          "name": "input",
          "type": "uint256"
        },
        {
          "indexed": false,
          "internalType": "uint256",
          "name": "output",
          "type": "uint256"
        }
      ],
      "name": "TakeOrder",
      "type": "event"
    },
    {
      "anonymous": false,
      "inputs": [
        {
          "indexed": false,
          "internalType": "address",
          "name": "sender",
          "type": "address"
        },
        {
          "components": [
            {
              "internalType": "address",
              "name": "token",
              "type": "address"
            },
            {
              "internalType": "uint256",
              "name": "vaultId",
              "type": "uint256"
            },
            {
              "internalType": "uint256",
              "name": "amount",
              "type": "uint256"
            }
          ],
          "indexed": false,
          "internalType": "struct WithdrawConfig",
          "name": "config",
          "type": "tuple"
        },
        {
          "indexed": false,
          "internalType": "uint256",
          "name": "amount",
          "type": "uint256"
        }
      ],
      "name": "Withdraw",
      "type": "event"
    },
    {
      "inputs": [],
      "name": "CALLBACK_SUCCESS",
      "outputs": [
        {
          "internalType": "bytes32",
          "name": "",
          "type": "bytes32"
        }
      ],
      "stateMutability": "view",
      "type": "function"
    },
    {
      "inputs": [
        {
          "components": [
            {
              "internalType": "address",
              "name": "expressionDeployer",
              "type": "address"
            },
            {
              "internalType": "address",
              "name": "interpreter",
              "type": "address"
            },
            {
              "components": [
                {
                  "internalType": "bytes[]",
                  "name": "sources",
                  "type": "bytes[]"
                },
                {
                  "internalType": "uint256[]",
                  "name": "constants",
                  "type": "uint256[]"
                }
              ],
              "internalType": "struct StateConfig",
              "name": "interpreterStateConfig",
              "type": "tuple"
            },
            {
              "components": [
                {
                  "internalType": "address",
                  "name": "token",
                  "type": "address"
                },
                {
                  "internalType": "uint8",
                  "name": "decimals",
                  "type": "uint8"
                },
                {
                  "internalType": "uint256",
                  "name": "vaultId",
                  "type": "uint256"
                }
              ],
              "internalType": "struct IO[]",
              "name": "validInputs",
              "type": "tuple[]"
            },
            {
              "components": [
                {
                  "internalType": "address",
                  "name": "token",
                  "type": "address"
                },
                {
                  "internalType": "uint8",
                  "name": "decimals",
                  "type": "uint8"
                },
                {
                  "internalType": "uint256",
                  "name": "vaultId",
                  "type": "uint256"
                }
              ],
              "internalType": "struct IO[]",
              "name": "validOutputs",
              "type": "tuple[]"
            },
            {
              "internalType": "bytes",
              "name": "data",
              "type": "bytes"
            }
          ],
          "internalType": "struct OrderConfig",
          "name": "config_",
          "type": "tuple"
        }
      ],
      "name": "addOrder",
      "outputs": [],
      "stateMutability": "nonpayable",
      "type": "function"
    },
    {
      "inputs": [
        {
          "components": [
            {
              "internalType": "address",
              "name": "owner",
              "type": "address"
            },
            {
              "internalType": "address",
              "name": "interpreter",
              "type": "address"
            },
            {
              "internalType": "EncodedDispatch",
              "name": "dispatch",
              "type": "uint256"
            },
            {
              "internalType": "EncodedDispatch",
              "name": "handleIODispatch",
              "type": "uint256"
            },
            {
              "components": [
                {
                  "internalType": "address",
                  "name": "token",
                  "type": "address"
                },
                {
                  "internalType": "uint8",
                  "name": "decimals",
                  "type": "uint8"
                },
                {
                  "internalType": "uint256",
                  "name": "vaultId",
                  "type": "uint256"
                }
              ],
              "internalType": "struct IO[]",
              "name": "validInputs",
              "type": "tuple[]"
            },
            {
              "components": [
                {
                  "internalType": "address",
                  "name": "token",
                  "type": "address"
                },
                {
                  "internalType": "uint8",
                  "name": "decimals",
                  "type": "uint8"
                },
                {
                  "internalType": "uint256",
                  "name": "vaultId",
                  "type": "uint256"
                }
              ],
              "internalType": "struct IO[]",
              "name": "validOutputs",
              "type": "tuple[]"
            },
            {
              "internalType": "bytes",
              "name": "data",
              "type": "bytes"
            }
          ],
          "internalType": "struct Order",
          "name": "a_",
          "type": "tuple"
        },
        {
          "components": [
            {
              "internalType": "address",
              "name": "owner",
              "type": "address"
            },
            {
              "internalType": "address",
              "name": "interpreter",
              "type": "address"
            },
            {
              "internalType": "EncodedDispatch",
              "name": "dispatch",
              "type": "uint256"
            },
            {
              "internalType": "EncodedDispatch",
              "name": "handleIODispatch",
              "type": "uint256"
            },
            {
              "components": [
                {
                  "internalType": "address",
                  "name": "token",
                  "type": "address"
                },
                {
                  "internalType": "uint8",
                  "name": "decimals",
                  "type": "uint8"
                },
                {
                  "internalType": "uint256",
                  "name": "vaultId",
                  "type": "uint256"
                }
              ],
              "internalType": "struct IO[]",
              "name": "validInputs",
              "type": "tuple[]"
            },
            {
              "components": [
                {
                  "internalType": "address",
                  "name": "token",
                  "type": "address"
                },
                {
                  "internalType": "uint8",
                  "name": "decimals",
                  "type": "uint8"
                },
                {
                  "internalType": "uint256",
                  "name": "vaultId",
                  "type": "uint256"
                }
              ],
              "internalType": "struct IO[]",
              "name": "validOutputs",
              "type": "tuple[]"
            },
            {
              "internalType": "bytes",
              "name": "data",
              "type": "bytes"
            }
          ],
          "internalType": "struct Order",
          "name": "b_",
          "type": "tuple"
        },
        {
          "components": [
            {
              "internalType": "uint256",
              "name": "aInputIOIndex",
              "type": "uint256"
            },
            {
              "internalType": "uint256",
              "name": "aOutputIOIndex",
              "type": "uint256"
            },
            {
              "internalType": "uint256",
              "name": "bInputIOIndex",
              "type": "uint256"
            },
            {
              "internalType": "uint256",
              "name": "bOutputIOIndex",
              "type": "uint256"
            },
            {
              "internalType": "uint256",
              "name": "aBountyVaultId",
              "type": "uint256"
            },
            {
              "internalType": "uint256",
              "name": "bBountyVaultId",
              "type": "uint256"
            }
          ],
          "internalType": "struct ClearConfig",
          "name": "clearConfig_",
          "type": "tuple"
        }
      ],
      "name": "clear",
      "outputs": [],
      "stateMutability": "nonpayable",
      "type": "function"
    },
    {
      "inputs": [
        {
          "components": [
            {
              "internalType": "address",
              "name": "token",
              "type": "address"
            },
            {
              "internalType": "uint256",
              "name": "vaultId",
              "type": "uint256"
            },
            {
              "internalType": "uint256",
              "name": "amount",
              "type": "uint256"
            }
          ],
          "internalType": "struct DepositConfig",
          "name": "config_",
          "type": "tuple"
        }
      ],
      "name": "deposit",
      "outputs": [],
      "stateMutability": "nonpayable",
      "type": "function"
    },
    {
      "inputs": [
        {
          "internalType": "address",
          "name": "",
          "type": "address"
        },
        {
          "internalType": "uint256",
          "name": "",
          "type": "uint256"
        }
      ],
      "name": "flashFee",
      "outputs": [
        {
          "internalType": "uint256",
          "name": "",
          "type": "uint256"
        }
      ],
      "stateMutability": "pure",
      "type": "function"
    },
    {
      "inputs": [
        {
          "internalType": "contract IERC3156FlashBorrower",
          "name": "receiver_",
          "type": "address"
        },
        {
          "internalType": "address",
          "name": "token_",
          "type": "address"
        },
        {
          "internalType": "uint256",
          "name": "amount_",
          "type": "uint256"
        },
        {
          "internalType": "bytes",
          "name": "data_",
          "type": "bytes"
        }
      ],
      "name": "flashLoan",
      "outputs": [
        {
          "internalType": "bool",
          "name": "",
          "type": "bool"
        }
      ],
      "stateMutability": "nonpayable",
      "type": "function"
    },
    {
      "inputs": [
        {
          "internalType": "address",
          "name": "token_",
          "type": "address"
        }
      ],
      "name": "maxFlashLoan",
      "outputs": [
        {
          "internalType": "uint256",
          "name": "",
          "type": "uint256"
        }
      ],
      "stateMutability": "view",
      "type": "function"
    },
    {
      "inputs": [
        {
          "internalType": "bytes[]",
          "name": "data",
          "type": "bytes[]"
        }
      ],
      "name": "multicall",
      "outputs": [
        {
          "internalType": "bytes[]",
          "name": "results",
          "type": "bytes[]"
        }
      ],
      "stateMutability": "nonpayable",
      "type": "function"
    },
    {
      "inputs": [
        {
          "components": [
            {
              "internalType": "address",
              "name": "owner",
              "type": "address"
            },
            {
              "internalType": "address",
              "name": "interpreter",
              "type": "address"
            },
            {
              "internalType": "EncodedDispatch",
              "name": "dispatch",
              "type": "uint256"
            },
            {
              "internalType": "EncodedDispatch",
              "name": "handleIODispatch",
              "type": "uint256"
            },
            {
              "components": [
                {
                  "internalType": "address",
                  "name": "token",
                  "type": "address"
                },
                {
                  "internalType": "uint8",
                  "name": "decimals",
                  "type": "uint8"
                },
                {
                  "internalType": "uint256",
                  "name": "vaultId",
                  "type": "uint256"
                }
              ],
              "internalType": "struct IO[]",
              "name": "validInputs",
              "type": "tuple[]"
            },
            {
              "components": [
                {
                  "internalType": "address",
                  "name": "token",
                  "type": "address"
                },
                {
                  "internalType": "uint8",
                  "name": "decimals",
                  "type": "uint8"
                },
                {
                  "internalType": "uint256",
                  "name": "vaultId",
                  "type": "uint256"
                }
              ],
              "internalType": "struct IO[]",
              "name": "validOutputs",
              "type": "tuple[]"
            },
            {
              "internalType": "bytes",
              "name": "data",
              "type": "bytes"
            }
          ],
          "internalType": "struct Order",
          "name": "order_",
          "type": "tuple"
        }
      ],
      "name": "removeOrder",
      "outputs": [],
      "stateMutability": "nonpayable",
      "type": "function"
    },
    {
      "inputs": [
        {
          "components": [
            {
              "internalType": "address",
              "name": "output",
              "type": "address"
            },
            {
              "internalType": "address",
              "name": "input",
              "type": "address"
            },
            {
              "internalType": "uint256",
              "name": "minimumInput",
              "type": "uint256"
            },
            {
              "internalType": "uint256",
              "name": "maximumInput",
              "type": "uint256"
            },
            {
              "internalType": "uint256",
              "name": "maximumIORatio",
              "type": "uint256"
            },
            {
              "components": [
                {
                  "components": [
                    {
                      "internalType": "address",
                      "name": "owner",
                      "type": "address"
                    },
                    {
                      "internalType": "address",
                      "name": "interpreter",
                      "type": "address"
                    },
                    {
                      "internalType": "EncodedDispatch",
                      "name": "dispatch",
                      "type": "uint256"
                    },
                    {
                      "internalType": "EncodedDispatch",
                      "name": "handleIODispatch",
                      "type": "uint256"
                    },
                    {
                      "components": [
                        {
                          "internalType": "address",
                          "name": "token",
                          "type": "address"
                        },
                        {
                          "internalType": "uint8",
                          "name": "decimals",
                          "type": "uint8"
                        },
                        {
                          "internalType": "uint256",
                          "name": "vaultId",
                          "type": "uint256"
                        }
                      ],
                      "internalType": "struct IO[]",
                      "name": "validInputs",
                      "type": "tuple[]"
                    },
                    {
                      "components": [
                        {
                          "internalType": "address",
                          "name": "token",
                          "type": "address"
                        },
                        {
                          "internalType": "uint8",
                          "name": "decimals",
                          "type": "uint8"
                        },
                        {
                          "internalType": "uint256",
                          "name": "vaultId",
                          "type": "uint256"
                        }
                      ],
                      "internalType": "struct IO[]",
                      "name": "validOutputs",
                      "type": "tuple[]"
                    },
                    {
                      "internalType": "bytes",
                      "name": "data",
                      "type": "bytes"
                    }
                  ],
                  "internalType": "struct Order",
                  "name": "order",
                  "type": "tuple"
                },
                {
                  "internalType": "uint256",
                  "name": "inputIOIndex",
                  "type": "uint256"
                },
                {
                  "internalType": "uint256",
                  "name": "outputIOIndex",
                  "type": "uint256"
                }
              ],
              "internalType": "struct TakeOrderConfig[]",
              "name": "orders",
              "type": "tuple[]"
            }
          ],
          "internalType": "struct TakeOrdersConfig",
          "name": "takeOrders_",
          "type": "tuple"
        }
      ],
      "name": "takeOrders",
      "outputs": [
        {
          "internalType": "uint256",
          "name": "totalInput_",
          "type": "uint256"
        },
        {
          "internalType": "uint256",
          "name": "totalOutput_",
          "type": "uint256"
        }
      ],
      "stateMutability": "nonpayable",
      "type": "function"
    },
    {
      "inputs": [
        {
          "internalType": "address",
          "name": "",
          "type": "address"
        },
        {
          "internalType": "address",
          "name": "",
          "type": "address"
        },
        {
          "internalType": "uint256",
          "name": "",
          "type": "uint256"
        }
      ],
      "name": "vaultBalance",
      "outputs": [
        {
          "internalType": "uint256",
          "name": "",
          "type": "uint256"
        }
      ],
      "stateMutability": "view",
      "type": "function"
    },
    {
      "inputs": [
        {
          "components": [
            {
              "internalType": "address",
              "name": "token",
              "type": "address"
            },
            {
              "internalType": "uint256",
              "name": "vaultId",
              "type": "uint256"
            },
            {
              "internalType": "uint256",
              "name": "amount",
              "type": "uint256"
            }
          ],
          "internalType": "struct WithdrawConfig",
          "name": "config_",
          "type": "tuple"
        }
      ],
      "name": "withdraw",
      "outputs": [],
      "stateMutability": "nonpayable",
      "type": "function"
    }
  ],
  "bytecode": "0x60806040523480156200001157600080fd5b50600054610100900460ff1615808015620000335750600054600160ff909116105b8062000063575062000050306200015260201b6200135d1760201c565b15801562000063575060005460ff166001145b620000cc5760405162461bcd60e51b815260206004820152602e60248201527f496e697469616c697a61626c653a20636f6e747261637420697320616c72656160448201526d191e481a5b9a5d1a585b1a5e995960921b60648201526084015b60405180910390fd5b6000805460ff191660011790558015620000f0576000805461ff0019166101001790555b620000fa62000161565b62000104620001c9565b80156200014b576000805461ff0019169055604051600181527f7f26b83ff96e1f2b6a682f133852f6798a09c465da95921460cefb38474024989060200160405180910390a15b5062000287565b6001600160a01b03163b151590565b600054610100900460ff16620001bd5760405162461bcd60e51b815260206004820152602b602482015260008051602062003c5983398151915260448201526a6e697469616c697a696e6760a81b6064820152608401620000c3565b620001c762000225565b565b600054610100900460ff16620001c75760405162461bcd60e51b815260206004820152602b602482015260008051602062003c5983398151915260448201526a6e697469616c697a696e6760a81b6064820152608401620000c3565b600054610100900460ff16620002815760405162461bcd60e51b815260206004820152602b602482015260008051602062003c5983398151915260448201526a6e697469616c697a696e6760a81b6064820152608401620000c3565b60018055565b6139c280620002976000396000f3fe608060405234801561001057600080fd5b50600436106100a45760003560e01c80631f716e06146100a95780633d3d286f146100be5780634f266187146100d15780635cffe9de146100e4578063613255ab1461010c5780638237e5381461012d578063ac9650d814610154578063c325bfff14610174578063d97b2e4814610187578063d9d98ce4146101b8578063e6b62636146101ce578063f7ae043a146101e1575b600080fd5b6100bc6100b736600461276b565b610209565b005b6100bc6100cc3660046127bd565b6102f9565b6100bc6100df366004612803565b6105d9565b6100f76100f2366004612847565b610719565b60405190151581526020015b60405180910390f35b61011f61011a3660046128e5565b610825565b604051908152602001610103565b61011f7f439148f0bbc682ca079e46d6e2c2f0c1e3b820f1a291b069d8882abf8cf18dd981565b610167610162366004612902565b610896565b60405161010391906129c6565b6100bc610182366004612ce3565b61098a565b61011f610195366004612d58565b606760209081526000938452604080852082529284528284209052825290205481565b61011f6101c6366004612d99565b600092915050565b6100bc6101dc366004612803565b610ec5565b6101f46101ef3660046127bd565b610fc3565b60408051928352602083019190915201610103565b6002600154036102345760405162461bcd60e51b815260040161022b90612dc5565b60405180910390fd5b600260015561024660208201826128e5565b6001600160a01b0316336001600160a01b03161461028e5760405162461bcd60e51b815260206004820152600560248201526427aba722a960d91b604482015260640161022b565b60006102a161029c83612dfc565b61136c565b60008181526066602052604080822091909155519091507f6dc347e6969ea1c8495368209ce006ca56804623691335f306536e8b00e7f779906102e990339085908590612f2c565b60405180910390a1505060018055565b60026001540361031b5760405162461bcd60e51b815260040161022b90612dc5565b6002600155600061032f60208301836128e5565b6001600160a01b0316631ed061d961034a604085018561300c565b6103566002600061139d565b6040518363ffffffff1660e01b81526004016103739291906130a4565b60408051808303816000875af1158015610391573d6000803e3d6000fd5b505050506040513d601f19601f820116820180604052508101906103b59190613172565b50905060006040518060e00160405280336001600160a01b031681526020018460200160208101906103e791906128e5565b6001600160a01b0316815260200161040284600060026113d1565b81526020016000610416604087018761300c565b61042090806131a0565b6001818110610431576104316131e9565b905060200281019061044391906131ff565b90501161045157600061045f565b61045f84600161ffff6113d1565b81526020016104716060860186613245565b808060200260200160405190810160405280939291908181526020016000905b828210156104bd576104ae6060830286013681900381019061328d565b81526020019060010190610491565b50505091835250506020016104d56080860186613245565b808060200260200160405190810160405280939291908181526020016000905b82821015610521576105126060830286013681900381019061328d565b815260200190600101906104f5565b505050918352505060200161053960a08601866131ff565b8080601f01602080910402602001604051908101604052809392919081815260200183838082843760009201829052509390945250929350915061057e90508261136c565b6000818152606660205260409081902060019055519091507f7e4a3d1b8b320d979824450641b0d97507684bf55eafb4503032f4042f8fbf8d906105c790339085908590613377565b60405180910390a15050600180555050565b6002600154036105fb5760405162461bcd60e51b815260040161022b90612dc5565b60026001553360009081526067602090815260408220908290610620908501856128e5565b6001600160a01b031681526020808201929092526040908101600090812085840135825290925280822054925061065a90840135836113f3565b905061066681836133c1565b33600090815260676020908152604082209190610685908701876128e5565b6001600160a01b03166001600160a01b03168152602001908152602001600020600085602001358152602001908152602001600020819055507f2538ccc7ad2a119a36f2e65c1e2fc908beef800cd59b5d6680db24de18e7847a3384836040516106f1939291906133ff565b60405180910390a161071061070960208501856128e5565b3383611409565b50506001805550565b60006107268587866114cd565b6040516323e30c8b60e01b81527f439148f0bbc682ca079e46d6e2c2f0c1e3b820f1a291b069d8882abf8cf18dd9906001600160a01b038816906323e30c8b9061077f9033908a908a906000908b908b9060040161342a565b6020604051808303816000875af115801561079e573d6000803e3d6000fd5b505050506040513d601f19601f820116820180604052508101906107c29190613471565b1461080f5760405162461bcd60e51b815260206004820152601c60248201527f466c6173684c656e6465723a2043616c6c6261636b206661696c656400000000604482015260640161022b565b6108198587611523565b50600195945050505050565b6040516370a0823160e01b81523060048201526000906001600160a01b038316906370a0823190602401602060405180830381865afa15801561086c573d6000803e3d6000fd5b505050506040513d601f19601f820116820180604052508101906108909190613471565b92915050565b6060816001600160401b038111156108b0576108b0612a28565b6040519080825280602002602001820160405280156108e357816020015b60608152602001906001900390816108ce5790505b50905060005b828110156109835761095330858584818110610907576109076131e9565b905060200281019061091991906131ff565b8080601f0160208091040260200160405190810160405280939291908181526020018383808284376000920191909152506115ff92505050565b828281518110610965576109656131e9565b6020026020010181905250808061097b9061348a565b9150506108e9565b5092915050565b6002600154036109ac5760405162461bcd60e51b815260040161022b90612dc5565b6002600155815183516001600160a01b039182169116036109fc5760405162461bcd60e51b815260206004820152600a60248201526929a0a6a2afa7aba722a960b11b604482015260640161022b565b8160800151816040013581518110610a1657610a166131e9565b6020026020010151600001516001600160a01b03168360a00151826020013581518110610a4557610a456131e9565b6020026020010151600001516001600160a01b031614610a775760405162461bcd60e51b815260040161022b906134a3565b608083015180518235908110610a8f57610a8f6131e9565b6020026020010151600001516001600160a01b03168260a00151826060013581518110610abe57610abe6131e9565b6020026020010151600001516001600160a01b031614610af05760405162461bcd60e51b815260040161022b906134a3565b600060666000610aff8661136c565b81526020019081526020016000205411610b485760405162461bcd60e51b815260206004820152600a602482015269415f4e4f545f4c49564560b01b604482015260640161022b565b600060666000610b578561136c565b81526020019081526020016000205411610ba05760405162461bcd60e51b815260206004820152600a602482015269425f4e4f545f4c49564560b01b604482015260640161022b565b610bcb6040518060800160405280600081526020016000815260200160008152602001600081525090565b6060806060806000806000807f4578a20a33a65a80c6431b4b129eeadede7b9f012a55e153a492c294c6d7f475338d8d8d604051610c0c94939291906134cb565b60405180910390a1610c2c8c8b600001358c602001358e600001516116f1565b8f51919b509950909550909250610c50908c9060408d01359060608e0135906116f1565b909850965093509050610c6d610c668285611e64565b83906113f3565b8952610c83610c7c8386611e64565b82906113f3565b60208a01528851151580610c9b575060008960200151115b610cd15760405162461bcd60e51b8152602060048201526007602482015266182fa1a622a0a960c91b604482015260640161022b565b8851610cdd9085611e64565b60408a01526020890151610cf19084611e64565b60608a015250505060408601518651610d0f92508a91908787611e79565b610d2487866060015187602001518585611e79565b60608501518551600091610d37916133c1565b9050600086604001518760200151610d4f91906133c1565b90508115610ddb57336000908152606760209081526040822060a08d01518051869492938d0135908110610d8557610d856131e9565b6020026020010151600001516001600160a01b03166001600160a01b0316815260200190815260200160002060008a6080013581526020019081526020016000206000828254610dd5919061354a565b90915550505b8015610e655733600090815260676020526040812060a08b015180518493919060608d0135908110610e0f57610e0f6131e9565b6020026020010151600001516001600160a01b03166001600160a01b0316815260200190815260200160002060008a60a0013581526020019081526020016000206000828254610e5f919061354a565b90915550505b505060408051865181526020808801519082015286820151818301526060808801519082015290517f3e673c18070310617c4b157f17e875bbc59a81b0f5107d346dfed8775de6f0f79181900360800190a1505060018055505050505050565b600260015403610ee75760405162461bcd60e51b815260040161022b90612dc5565b600260015533600090815260676020908152604080832090840135929091610f11908501856128e5565b6001600160a01b03166001600160a01b031681526020019081526020016000206000836020013581526020019081526020016000206000828254610f55919061354a565b90915550506040517fadc7bd964a04a8a02261d33d2d09c6a7d9f539bc5eab77008e85fc6661ef123190610f8c903390849061355d565b60405180910390a1610fbc33306040840135610fab60208601866128e5565b6001600160a01b0316929190612219565b5060018055565b600080600260015403610fe85760405162461bcd60e51b815260040161022b90612dc5565b60026001556000610ff76126f5565b610fff61271c565b60608601355b61101260a08801886131a0565b9050841080156110225750600081115b156112d05761103460a08801886131a0565b85818110611044576110446131e9565b9050602002810190611056919061357a565b61105f90613590565b8051909350915060006110718361136c565b600081815260666020526040812054919250036110ca5782516040517fe721f6888210c87666d3888f93b4139a86ab7757999ce54e268cba700d642a3b916110bd9133919085906135ec565b60405180910390a16112c4565b6110d760208901896128e5565b6001600160a01b031683608001518560200151815181106110fa576110fa6131e9565b6020026020010151600001516001600160a01b03161461112c5760405162461bcd60e51b815260040161022b906134a3565b61113c6040890160208a016128e5565b6001600160a01b03168360a0015185604001518151811061115f5761115f6131e9565b6020026020010151600001516001600160a01b0316146111915760405162461bcd60e51b815260040161022b906134a3565b6000806000806111ab8789602001518a60400151336116f1565b93509350935093508b608001358311156112015786516040517f460c258f27efac20e56c4607a28003d235168e76997ffb7542637d26d45ea6d8916111f49133919089906135ec565b60405180910390a16112bf565b8360000361123e5786516040517f3ba461a0ffd1b6782d4817ae7be605cfb1bbb4fa503c0dd613b8e50f1dcafacd916111f49133919089906135ec565b600061124a87866113f3565b905060006112588286611e64565b905061126482896133c1565b9750611270818d61354a565b9b5061127f8982848787611e79565b7f41b0ea9331ded332ca7722c5f71c743f3a1a4c058177fee9488a8813ebbb21af338b84846040516112b49493929190613610565b60405180910390a150505b505050505b50600190930192611005565b6112de8160608901356133c1565b955086604001358610156113205760405162461bcd60e51b815260206004820152600960248201526813525397d25394155560ba1b604482015260640161022b565b611333333087610fab60208c018c6128e5565b61134d6113466040890160208a016128e5565b3388611409565b5050505060018081905550915091565b6001600160a01b03163b151590565b60008160405160200161137f9190613661565b60408051601f19818403018152919052805160209091012092915050565b6040805160028082526060808301845292600092919060208301908036833750505060208101949094525050604082015290565b640100000000600160c01b03602084901b16601083901b1781175b9392505050565b600081831061140257816113ec565b5090919050565b6001600160a01b038084166000908152606560209081526040808320938616835292905220548082111561148a578015611466576001600160a01b0380851660009081526065602090815260408083209387168352929052908120555b6114858361147483856133c1565b6001600160a01b0387169190612271565b6114c7565b6001600160a01b038085166000908152606560209081526040808320938716835292905290812080548492906114c19084906133c1565b90915550505b50505050565b6001600160a01b0380841660009081526065602090815260408083209386168352929052908120805483929061150490849061354a565b9091555061151e90506001600160a01b0384168383612271565b505050565b6001600160a01b0380831660009081526065602090815260408083209385168352929052205480156115a1576115646001600160a01b038416833084612219565b6001600160a01b0380841660009081526065602090815260408083209386168352929052908120805483929061159b9084906133c1565b90915550505b6001600160a01b038084166000908152606560209081526040808320938616835292905220541561151e5760405162461bcd60e51b815260206004820152600860248201526710905117d111509560c21b604482015260640161022b565b606061160a8361135d565b6116655760405162461bcd60e51b815260206004820152602660248201527f416464726573733a2064656c65676174652063616c6c20746f206e6f6e2d636f6044820152651b9d1c9858dd60d21b606482015260840161022b565b600080846001600160a01b0316846040516116809190613674565b600060405180830381855af49150503d80600081146116bb576040519150601f19603f3d011682016040523d82523d6000602084013e6116c0565b606091505b50915091506116e88282604051806060016040528060278152602001613966602791396122a1565b95945050505050565b60008060608060006117028961136c565b60408051600480825260a0820190925291925060009190816020015b606081526020019060019003908161171e579050509050611756828b600001516001600160a01b0316896001600160a01b03166122da565b81600081518110611769576117696131e9565b602090810291909101015260408051600580825260c082019092529081602001602082028036833701905050816002815181106117a8576117a86131e9565b602090810291909101015260408051600580825260c082019092529081602001602082028036833701905050816003815181106117e7576117e76131e9565b602002602001018190525089608001518981518110611808576118086131e9565b6020026020010151600001516001600160a01b031681600281518110611830576118306131e9565b602002602001015160008151811061184a5761184a6131e9565b6020026020010181815250508960a00151888151811061186c5761186c6131e9565b6020026020010151600001516001600160a01b031681600381518110611894576118946131e9565b60200260200101516000815181106118ae576118ae6131e9565b602002602001018181525050896080015189815181106118d0576118d06131e9565b60200260200101516020015160ff16816002815181106118f2576118f26131e9565b602002602001015160018151811061190c5761190c6131e9565b6020026020010181815250508960a00151888151811061192e5761192e6131e9565b60200260200101516020015160ff1681600381518110611950576119506131e9565b602002602001015160018151811061196a5761196a6131e9565b6020026020010181815250508960800151898151811061198c5761198c6131e9565b602002602001015160400151816002815181106119ab576119ab6131e9565b60200260200101516002815181106119c5576119c56131e9565b6020026020010181815250508960a0015188815181106119e7576119e76131e9565b60200260200101516040015181600381518110611a0657611a066131e9565b6020026020010151600281518110611a2057611a206131e9565b602002602001018181525050606760008b600001516001600160a01b03166001600160a01b0316815260200190815260200160002060008b608001518b81518110611a6d57611a6d6131e9565b6020026020010151600001516001600160a01b03166001600160a01b0316815260200190815260200160002060008b608001518b81518110611ab157611ab16131e9565b60200260200101516040015181526020019081526020016000205481600281518110611adf57611adf6131e9565b6020026020010151600381518110611af957611af96131e9565b602002602001018181525050606760008b600001516001600160a01b03166001600160a01b0316815260200190815260200160002060008b60a001518a81518110611b4657611b466131e9565b6020026020010151600001516001600160a01b03166001600160a01b0316815260200190815260200160002060008b60a001518a81518110611b8a57611b8a6131e9565b60200260200101516040015181526020019081526020016000205481600381518110611bb857611bb86131e9565b6020026020010151600381518110611bd257611bd26131e9565b6020026020010181815250506000808b602001516001600160a01b031663be6575df8d600001516001600160a01b03168e60400151866040518463ffffffff1660e01b8152600401611c2693929190613686565b600060405180830381865afa158015611c43573d6000803e3d6000fd5b505050506040513d6000823e601f3d908101601f19168201604052611c6b919081019061375d565b81516020028201601f198101519051929450909250908098508199505050611cc08c60a001518b81518110611ca257611ca26131e9565b60200260200101516020015160ff168961231790919063ffffffff16565b9750611d198c60a001518b81518110611cdb57611cdb6131e9565b6020026020010151602001518d608001518d81518110611cfd57611cfd6131e9565b602002602001015160200151896123729092919063ffffffff16565b60408051600280825260608201835292995060009290916020830190803683370190505090508881600081518110611d5357611d536131e9565b6020026020010181815250508781600181518110611d7357611d736131e9565b6020026020010181815250508084600181518110611d9357611d936131e9565b6020026020010181905250611e50606760008f600001516001600160a01b03166001600160a01b0316815260200190815260200160002060008f60a001518e81518110611de257611de26131e9565b6020026020010151600001516001600160a01b03166001600160a01b0316815260200190815260200160002060008f60a001518e81518110611e2657611e266131e9565b6020026020010151604001518152602001908152602001600020548a6113f390919063ffffffff16565b9d979c50929a509850949650505050505050565b60006113ec8383670de0b6b3a764000061239d565b8382600281518110611e8d57611e8d6131e9565b6020026020010151600481518110611ea757611ea76131e9565b6020026020010181815250508282600381518110611ec757611ec76131e9565b6020026020010151600481518110611ee157611ee16131e9565b60209081029190910101528315611fbf5784516001600160a01b03166000908152606760205260408120835186929085906002908110611f2357611f236131e9565b6020026020010151600081518110611f3d57611f3d6131e9565b60200260200101516001600160a01b03166001600160a01b03168152602001908152602001600020600084600281518110611f7a57611f7a6131e9565b6020026020010151600281518110611f9457611f946131e9565b602002602001015181526020019081526020016000206000828254611fb9919061354a565b90915550505b82156120925784516001600160a01b03166000908152606760205260408120835185929085906003908110611ff657611ff66131e9565b6020026020010151600081518110612010576120106131e9565b60200260200101516001600160a01b03166001600160a01b0316815260200190815260200160002060008460038151811061204d5761204d6131e9565b6020026020010151600281518110612067576120676131e9565b60200260200101518152602001908152602001600020600082825461208c91906133c1565b90915550505b805115612103576020850151855160405163beb677ed60e01b81526001600160a01b039283169263beb677ed926120d09291169085906004016137c0565b600060405180830381600087803b1580156120ea57600080fd5b505af11580156120fe573d6000803e3d6000fd5b505050505b60608501511561221257600085602001516001600160a01b031663be6575df87600001516001600160a01b03168860600151866040518463ffffffff1660e01b815260040161215493929190613686565b600060405180830381865afa158015612171573d6000803e3d6000fd5b505050506040513d6000823e601f3d908101601f19168201604052612199919081019061375d565b915050600081511115612210576020860151865160405163beb677ed60e01b81526001600160a01b039283169263beb677ed926121dd9291169085906004016137c0565b600060405180830381600087803b1580156121f757600080fd5b505af115801561220b573d6000803e3d6000fd5b505050505b505b5050505050565b6114c7846323b872dd60e01b85858560405160240161223a939291906135ec565b60408051601f198184030181529190526020810180516001600160e01b03166001600160e01b03199093169290921790915261244c565b6040516001600160a01b03831660248201526044810182905261151e90849063a9059cbb60e01b9060640161223a565b606083156122b05750816113ec565b8251156122c05782518084602001fd5b8160405162461bcd60e51b815260040161022b91906137d9565b6040805160038082526080820190925260609160009190602082018480368337505050602081019590955250506040830191909152606082015290565b6000806012830361232b5783915050610890565b82601211156123575750601282900361234581600a6138d0565b61234f90856138f2565b915050610890565b50601119820161234f61236b82600a6138d0565b859061251e565b60006123958461239061238b60ff808816908716613914565b61255a565b6125cd565b949350505050565b60008080600019858709858702925082811083820303915050806000036123d7578382816123cd576123cd6138dc565b04925050506113ec565b8084116123e357600080fd5b60008486880960026001871981018816978890046003810283188082028403028082028403028082028403028082028403028082028403029081029092039091026000889003889004909101858311909403939093029303949094049190911702949350505050565b60006124a1826040518060400160405280602081526020017f5361666545524332303a206c6f772d6c6576656c2063616c6c206661696c6564815250856001600160a01b031661261c9092919063ffffffff16565b80519091501561151e57808060200190518101906124bf9190613934565b61151e5760405162461bcd60e51b815260206004820152602a60248201527f5361666545524332303a204552433230206f7065726174696f6e20646964206e6044820152691bdd081cdd58d8d9595960b21b606482015260840161022b565b60008260000361253057506000610890565b82820282848281612543576125436138dc565b040361254f5780612395565b600019949350505050565b6000607f19821280159061256f5750607f8213155b6125c95760405162461bcd60e51b815260206004820152602560248201527f53616665436173743a2076616c756520646f65736e27742066697420696e2038604482015264206269747360d81b606482015260840161022b565b5090565b60008160000b6000036125e1575081610890565b60008260000b1315612609576126026125fb83600a613956565b849061251e565b9050610890565b60ff60008390031661234581600a6138d0565b60606123958484600085856126308561135d565b61267c5760405162461bcd60e51b815260206004820152601d60248201527f416464726573733a2063616c6c20746f206e6f6e2d636f6e7472616374000000604482015260640161022b565b600080866001600160a01b031685876040516126989190613674565b60006040518083038185875af1925050503d80600081146126d5576040519150601f19603f3d011682016040523d82523d6000602084013e6126da565b606091505b50915091506126ea8282866122a1565b979650505050505050565b604051806060016040528061270861271c565b815260200160008152602001600081525090565b6040518060e0016040528060006001600160a01b0316815260200160006001600160a01b0316815260200160008152602001600081526020016060815260200160608152602001606081525090565b60006020828403121561277d57600080fd5b81356001600160401b0381111561279357600080fd5b820160e081850312156113ec57600080fd5b600060c082840312156127b757600080fd5b50919050565b6000602082840312156127cf57600080fd5b81356001600160401b038111156127e557600080fd5b612395848285016127a5565b6000606082840312156127b757600080fd5b60006060828403121561281557600080fd5b6113ec83836127f1565b6001600160a01b038116811461283457600080fd5b50565b80356128428161281f565b919050565b60008060008060006080868803121561285f57600080fd5b853561286a8161281f565b9450602086013561287a8161281f565b93506040860135925060608601356001600160401b038082111561289d57600080fd5b818801915088601f8301126128b157600080fd5b8135818111156128c057600080fd5b8960208285010111156128d257600080fd5b9699959850939650602001949392505050565b6000602082840312156128f757600080fd5b81356113ec8161281f565b6000806020838503121561291557600080fd5b82356001600160401b038082111561292c57600080fd5b818501915085601f83011261294057600080fd5b81358181111561294f57600080fd5b8660208260051b850101111561296457600080fd5b60209290920196919550909350505050565b60005b83811015612991578181015183820152602001612979565b50506000910152565b600081518084526129b2816020860160208601612976565b601f01601f19169290920160200192915050565b6000602080830181845280855180835260408601915060408160051b870101925083870160005b82811015612a1b57603f19888603018452612a0985835161299a565b945092850192908501906001016129ed565b5092979650505050505050565b634e487b7160e01b600052604160045260246000fd5b604051606081016001600160401b0381118282101715612a6057612a60612a28565b60405290565b60405160e081016001600160401b0381118282101715612a6057612a60612a28565b604051601f8201601f191681016001600160401b0381118282101715612ab057612ab0612a28565b604052919050565b60006001600160401b03821115612ad157612ad1612a28565b5060051b60200190565b803560ff8116811461284257600080fd5b600060608284031215612afe57600080fd5b612b06612a3e565b90508135612b138161281f565b8152612b2160208301612adb565b60208201526040820135604082015292915050565b600082601f830112612b4757600080fd5b81356020612b5c612b5783612ab8565b612a88565b82815260609283028501820192828201919087851115612b7b57600080fd5b8387015b85811015612b9e57612b918982612aec565b8452928401928101612b7f565b5090979650505050505050565b600082601f830112612bbc57600080fd5b81356001600160401b03811115612bd557612bd5612a28565b612be8601f8201601f1916602001612a88565b818152846020838601011115612bfd57600080fd5b816020850160208301376000918101602001919091529392505050565b600060e08284031215612c2c57600080fd5b612c34612a66565b9050612c3f82612837565b8152612c4d60208301612837565b6020820152604082013560408201526060820135606082015260808201356001600160401b0380821115612c8057600080fd5b612c8c85838601612b36565b608084015260a0840135915080821115612ca557600080fd5b612cb185838601612b36565b60a084015260c0840135915080821115612cca57600080fd5b50612cd784828501612bab565b60c08301525092915050565b60008060006101008486031215612cf957600080fd5b83356001600160401b0380821115612d1057600080fd5b612d1c87838801612c1a565b94506020860135915080821115612d3257600080fd5b50612d3f86828701612c1a565b925050612d4f85604086016127a5565b90509250925092565b600080600060608486031215612d6d57600080fd5b8335612d788161281f565b92506020840135612d888161281f565b929592945050506040919091013590565b60008060408385031215612dac57600080fd5b8235612db78161281f565b946020939093013593505050565b6020808252601f908201527f5265656e7472616e637947756172643a207265656e7472616e742063616c6c00604082015260600190565b60006108903683612c1a565b6000808335601e19843603018112612e1f57600080fd5b83016020810192503590506001600160401b03811115612e3e57600080fd5b606081023603821315612e5057600080fd5b9250929050565b8183526000602080850194508260005b85811015612eb3578135612e7a8161281f565b6001600160a01b0316875260ff612e92838501612adb565b16878401526040828101359088015260609687019690910190600101612e67565b509495945050505050565b6000808335601e19843603018112612ed557600080fd5b83016020810192503590506001600160401b03811115612ef457600080fd5b803603821315612e5057600080fd5b81835281816020850137506000828201602090810191909152601f909101601f19169091010190565b6001600160a01b038481168252606060208301526000908435612f4e8161281f565b166060830152612f6060208501612837565b6001600160a01b038116608084015250604084013560a0830152606084013560c0830152612f916080850185612e08565b60e080850152612fa661014085018284612e57565b915050612fb660a0860186612e08565b605f198086850301610100870152612fcf848385612e57565b9350612fde60c0890189612ebe565b93509150808685030161012087015250612ff9838383612f03565b9350505050826040830152949350505050565b60008235603e1983360301811261302257600080fd5b9190910192915050565b6000808335601e1984360301811261304357600080fd5b83016020810192503590506001600160401b0381111561306257600080fd5b8060051b3603821315612e5057600080fd5b600081518084526020808501945080840160005b83811015612eb357815187529582019590820190600101613088565b604081526000608082016130b8858661302c565b6040808601528281845260a08601905060a08260051b87010193508260005b8381101561311457878603609f190183526130f28286612ebe565b6130fd888284612f03565b9750505060209283019291909101906001016130d7565b5050505050613126602086018661302c565b848303603f190160608601528083526001600160fb1b0381111561314957600080fd5b60051b808260208501378083019250505060208382030160208401526116e86020820185613074565b6000806040838503121561318557600080fd5b82516131908161281f565b6020939093015192949293505050565b6000808335601e198436030181126131b757600080fd5b8301803591506001600160401b038211156131d157600080fd5b6020019150600581901b3603821315612e5057600080fd5b634e487b7160e01b600052603260045260246000fd5b6000808335601e1984360301811261321657600080fd5b8301803591506001600160401b0382111561323057600080fd5b602001915036819003821315612e5057600080fd5b6000808335601e1984360301811261325c57600080fd5b8301803591506001600160401b0382111561327657600080fd5b6020019150606081023603821315612e5057600080fd5b60006060828403121561329f57600080fd5b6113ec8383612aec565b600081518084526020808501945080840160005b83811015612eb357815180516001600160a01b031688528381015160ff168489015260409081015190880152606090960195908201906001016132bd565b600060018060a01b03808351168452806020840151166020850152506040820151604084015260608201516060840152608082015160e0608085015261334460e08501826132a9565b905060a083015184820360a086015261335d82826132a9565b91505060c083015184820360c08601526116e8828261299a565b6001600160a01b038416815260606020820181905260009061339b908301856132fb565b9050826040830152949350505050565b634e487b7160e01b600052601160045260246000fd5b81810381811115610890576108906133ab565b80356133df8161281f565b6001600160a01b0316825260208181013590830152604090810135910152565b6001600160a01b038416815260a0810161341c60208301856133d4565b826080830152949350505050565b6001600160a01b03878116825286166020820152604081018590526060810184905260a0608082018190526000906134659083018486612f03565b98975050505050505050565b60006020828403121561348357600080fd5b5051919050565b60006001820161349c5761349c6133ab565b5060010190565b6020808252600e908201526d0a89e968a9cbe9a92a69a82a886960931b604082015260600190565b6001600160a01b0385168152610120602082018190526000906134f0838201876132fb565b9050828103604084015261350481866132fb565b9150508235606083015260208301356080830152604083013560a0830152606083013560c0830152608083013560e083015260a083013561010083015295945050505050565b80820180821115610890576108906133ab565b6001600160a01b0383168152608081016113ec60208301846133d4565b60008235605e1983360301811261302257600080fd5b6000606082360312156135a257600080fd5b6135aa612a3e565b82356001600160401b038111156135c057600080fd5b6135cc36828601612c1a565b825250602083013560208201526040830135604082015280915050919050565b6001600160a01b039384168152919092166020820152604081019190915260600190565b60018060a01b038516815260806020820152600084516060608084015261363a60e08401826132fb565b602087015160a085015260409687015160c085015295830194909452506060015250919050565b6020815260006113ec60208301846132fb565b60008251613022818460208701612976565b600060608201858352602085818501526060604085015281855180845260808601915060808160051b870101935082870160005b828110156136e857607f198887030184526136d6868351613074565b955092840192908401906001016136ba565b50939998505050505050505050565b600082601f83011261370857600080fd5b81516020613718612b5783612ab8565b82815260059290921b8401810191818101908684111561373757600080fd5b8286015b84811015613752578051835291830191830161373b565b509695505050505050565b6000806040838503121561377057600080fd5b82516001600160401b038082111561378757600080fd5b613793868387016136f7565b935060208501519150808211156137a957600080fd5b506137b6858286016136f7565b9150509250929050565b8281526040602082015260006123956040830184613074565b6020815260006113ec602083018461299a565b600181815b8085111561382757816000190482111561380d5761380d6133ab565b8085161561381a57918102915b93841c93908002906137f1565b509250929050565b60008261383e57506001610890565b8161384b57506000610890565b8160018114613861576002811461386b57613887565b6001915050610890565b60ff84111561387c5761387c6133ab565b50506001821b610890565b5060208310610133831016604e8410600b84101617156138aa575081810a610890565b6138b483836137ec565b80600019048211156138c8576138c86133ab565b029392505050565b60006113ec838361382f565b634e487b7160e01b600052601260045260246000fd5b60008261390f57634e487b7160e01b600052601260045260246000fd5b500490565b8181036000831280158383131683831282161715610983576109836133ab565b60006020828403121561394657600080fd5b815180151581146113ec57600080fd5b60006113ec60ff84168361382f56fe416464726573733a206c6f772d6c6576656c2064656c65676174652063616c6c206661696c6564a26469706673582212209b507947a8e0216775d40383234f9aae0ede488ab3065f78adb2fb6db0ff7e0364736f6c63430008110033496e697469616c697a61626c653a20636f6e7472616374206973206e6f742069",
  "linkReferences": {},
  "deployedLinkReferences": {}
}