{
  "_format": "hh-sol-artifact-1",
  "contractName": "Rainterpreter",
  "sourceName": "contracts/interpreter/shared/Rainterpreter.sol",
  "abi": [
    {
      "inputs": [
        {
          "components": [
            {
              "internalType": "address",
              "name": "store",
              "type": "address"
            },
            {
              "internalType": "bytes",
              "name": "opMeta",
              "type": "bytes"
            }
          ],
          "internalType": "struct RainterpreterConfig",
          "name": "config_",
          "type": "tuple"
        }
      ],
      "stateMutability": "nonpayable",
      "type": "constructor"
    },
    {
      "inputs": [
        {
          "internalType": "uint256",
          "name": "dynamicLength",
          "type": "uint256"
        },
        {
          "internalType": "uint256",
          "name": "standardOpsLength",
          "type": "uint256"
        }
      ],
      "name": "BadDynamicLength",
      "type": "error"
    },
    {
      "inputs": [
        {
          "internalType": "uint256",
          "name": "_size",
          "type": "uint256"
        },
        {
          "internalType": "uint256",
          "name": "_start",
          "type": "uint256"
        },
        {
          "internalType": "uint256",
          "name": "_end",
          "type": "uint256"
        }
      ],
      "name": "InvalidCodeAtRange",
      "type": "error"
    },
    {
      "inputs": [
        {
          "internalType": "MemoryKVPtr",
          "name": "ptr",
          "type": "uint256"
        }
      ],
      "name": "InvalidPtr",
      "type": "error"
    },
    {
      "inputs": [
        {
          "internalType": "int256",
          "name": "price",
          "type": "int256"
        }
      ],
      "name": "NotPosIntPrice",
      "type": "error"
    },
    {
      "inputs": [
        {
          "internalType": "uint256",
          "name": "updatedAt",
          "type": "uint256"
        },
        {
          "internalType": "uint256",
          "name": "staleAfter",
          "type": "uint256"
        }
      ],
      "name": "StalePrice",
      "type": "error"
    },
    {
      "inputs": [
        {
          "internalType": "uint256",
          "name": "expectedLength",
          "type": "uint256"
        },
        {
          "internalType": "uint256",
          "name": "actualLength",
          "type": "uint256"
        }
      ],
      "name": "UnexpectedResultLength",
      "type": "error"
    },
    {
      "inputs": [
        {
          "internalType": "bytes32",
          "name": "actualBytecodeHash",
          "type": "bytes32"
        }
      ],
      "name": "UnexpectedStoreBytecodeHash",
      "type": "error"
    },
    {
      "anonymous": false,
      "inputs": [
        {
          "indexed": false,
          "internalType": "address",
          "name": "sender",
          "type": "address"
        },
        {
          "indexed": false,
          "internalType": "bytes",
          "name": "opMeta",
          "type": "bytes"
        }
      ],
      "name": "OpMeta",
      "type": "event"
    },
    {
      "anonymous": false,
      "inputs": [
        {
          "indexed": false,
          "internalType": "address",
          "name": "sender",
          "type": "address"
        },
        {
          "indexed": false,
          "internalType": "address",
          "name": "store",
          "type": "address"
        }
      ],
      "name": "ValidStore",
      "type": "event"
    },
    {
      "inputs": [
        {
          "internalType": "StateNamespace",
          "name": "namespace_",
          "type": "uint256"
        },
        {
          "internalType": "EncodedDispatch",
          "name": "dispatch_",
          "type": "uint256"
        },
        {
          "internalType": "uint256[][]",
          "name": "context_",
          "type": "uint256[][]"
        }
      ],
      "name": "eval",
      "outputs": [
        {
          "internalType": "uint256[]",
          "name": "",
          "type": "uint256[]"
        },
        {
          "internalType": "contract IInterpreterStoreV1",
          "name": "",
          "type": "address"
        },
        {
          "internalType": "uint256[]",
          "name": "",
          "type": "uint256[]"
        }
      ],
      "stateMutability": "view",
      "type": "function"
    },
    {
      "inputs": [],
      "name": "functionPointers",
      "outputs": [
        {
          "internalType": "bytes",
          "name": "",
          "type": "bytes"
        }
      ],
      "stateMutability": "view",
      "type": "function"
    }
  ],
  "bytecode": "0x60a06040523480156200001157600080fd5b5060405162003a5d38038062003a5d8339810160408190526200003491620001b2565b8051803f907f873c646d9c16e7f0db19840a6306b190e1f2f98ae87b423609825ee0501df8818214620000815760405163cc0415fd60e01b81526004810183905260240160405180910390fd5b604080513381526001600160a01b03831660208201527fb3946c923894f714680e2732c86d98ced5cc63f0d877accbca966ecf8aadec9e910160405180910390a16001600160a01b03811660805260208301516040517f028376397afc0dbc57f76c743afccc66761fb994b7ca52c3c6a159fda773a2159162000107913391906200029d565b60405180910390a1505050620002e1565b634e487b7160e01b600052604160045260246000fd5b604080519081016001600160401b038111828210171562000153576200015362000118565b60405290565b604051601f8201601f191681016001600160401b038111828210171562000184576200018462000118565b604052919050565b60005b83811015620001a95781810151838201526020016200018f565b50506000910152565b60006020808385031215620001c657600080fd5b82516001600160401b0380821115620001de57600080fd5b9084019060408287031215620001f357600080fd5b620001fd6200012e565b82516001600160a01b03811681146200021557600080fd5b815282840151828111156200022957600080fd5b80840193505086601f8401126200023f57600080fd5b82518281111562000254576200025462000118565b62000268601f8201601f1916860162000159565b925080835287858286010111156200027f57600080fd5b62000290818685018787016200018c565b5092830152509392505050565b60018060a01b03831681526040602082015260008251806040840152620002cc8160608501602087016200018c565b601f01601f1916919091016060019392505050565b60805161375a620003036000396000818160d10152610160015261375a6000f3fe608060405234801561001057600080fd5b50600436106100365760003560e01c8063385e37fe1461003b578063f933c72f14610066575b600080fd5b61004e610049366004612fcc565b61007b565b60405161005d93929190613129565b60405180910390f35b61006e6101a2565b60405161005d91906131ce565b6060600081602085901c60ff601087901c8116908716846100a361009e856101f2565b610226565b6000604082015290506100b58a6104b9565b606082015273ffffffffffffffffffffffffffffffffffffffff7f000000000000000000000000000000000000000000000000000000000000000016608082015260a08101889052805160009061010f9083908690610531565b8251909150602090820304600061015a6101298387610587565b7fffffffffffffffffffffffffffffffffffffffffffffffffffffffffffffffe06020820286030180519181529091565b915050807f000000000000000000000000000000000000000000000000000000000000000061018c866040015161059d565b9950995099505050505050505093509350939050565b6040805160008082526020820190925260609190816101d2565b612f208152602001906001900390816101bc5790505b5090506101ec6101e76101e48361062d565b90565b610880565b91505090565b60606102208260017fffffffffffffffffffffffffffffffffffffffffffffffffffffffffffffffff610910565b92915050565b61027c6040518060e0016040528060008152602001600081526020016000815260200160008152602001600073ffffffffffffffffffffffffffffffffffffffff16815260200160608152602001606081525090565b6102d26040518060e0016040528060008152602001600081526020016000815260200160008152602001600073ffffffffffffffffffffffffffffffffffffffff16815260200160608152602001606081525090565b60408051600080825260208201909252906102fd565b60608152602001906001900390816102e85790505b5060a08201526000610310845b60200190565b90506000610346610341837fffffffffffffffffffffffffffffffffffffffffffffffffffffffffffffffe0015190565b830190565b9050602082019150600061037a837fffffffffffffffffffffffffffffffffffffffffffffffffffffffffffffffe0015190565b905060008167ffffffffffffffff81111561039757610397612f2a565b6040519080825280602002602001820160405280156103c0578160200160208202803683370190505b506020808201875285810190870181905294519091506103e290602002850190565b9350600084815b8582101561040e5761040461030a6103ff845190565b840190565b91506001016103e9565b8067ffffffffffffffff81111561042757610427612f2a565b60405190808252806020026020018201604052801561045a57816020015b60608152602001906001900390816104455790505b5060c08901525b858710156104ab57868860c001518481518110610480576104806131e1565b602002602001018190525061049e61030a610499895190565b890190565b9650600190920191610461565b509598975050505050505050565b6040517fffffffffffffffffffffffffffffffffffffffff0000000000000000000000003360601b166020820152603481018290526000906054015b604080517fffffffffffffffffffffffffffffffffffffffffffffffffffffffffffffffe0818403018152919052805160209091012092915050565b60c08301516020838102909101015180516000919081015b8082101561057a57600491909101805190919061ffff601082901c8116911661057188828885565b95505050610549565b83925050505b9392505050565b60008183106105965781610580565b5090919050565b606061ffff8216601083901c60008167ffffffffffffffff8111156105c4576105c4612f2a565b6040519080825280602002602001820160405280156105ed578160200160208202803683370190505b50905060208101602082510281015b8082101561062257845182526020808601519083015260409485015194909101906105fc565b509095945050505050565b60606000604051806107800160405280610645603b90565b67ffffffffffffffff168152610a016020820152610a0f6040820152610a656060820152610ab76080820152610b3560a0820152610b6160c0820152610bfa60e0820152610cc4610100820152610df9610120820152610e2e610140820152610e4c610160820152610ed4610180820152610ee36101a08201819052610ef16101c0830152610eff6101e0830152610f0d610200830152610220820152610f1b610240820152610f29610260820152610f37610280820152610f466102a0820152610f556102c0820152610f636102e0820152610f71610300820152610fe9610320820152610ff86103408201526110076103608201526110166103808201526110256103a08201526110346103c082015261107d6103e082015261108f61040082015261109d6104208201526110cf6104408201526110dd6104608201526110eb6104808201526110f96104a08201526111086104c08201526111176104e08201526111266105008201526111356105208201526111446105408201526111536105608201526111626105808201526111716105a08201526111806105c082015261118f6105e082015261119e6106008201526111ac6106208201526111ba6106408201526111c86106608201526111d66106808201526111e46106a08201526111f26106c08201526112006106e082015261120f61070082015261121e61072082015261122c6107408201526112a3610760909101529050600061086a826112b2565b90506108768185611301565b805b949350505050565b60606000825160020267ffffffffffffffff8111156108a1576108a1612f2a565b6040519080825280601f01601f1916602001820160405280156108cb576020820181803683370190505b50905061ffff801990506020840160208551028101600284015b8183101561090557805183519085161781526020909201916002016108e5565b509295945050505050565b6060833b6000819003610933575050604080516020810190915260008152610580565b80841115610951575050604080516020810190915260008152610580565b838310156109a1576040517f2c4a89fa0000000000000000000000000000000000000000000000000000000081526004810182905260248101859052604481018490526064015b60405180910390fd5b83830384820360008282106109b657826109b8565b815b60408051603f83017fffffffffffffffffffffffffffffffffffffffffffffffffffffffffffffffe0168101909152818152955090508087602087018a3c505050509392505050565b600061087882611337611343565b8251600090600f84811691600486901c90911690600886901c9060208402860388526000610a3e898489610531565b9050610a516020850282038a51866113af565b508751975250602002909401949350505050565b60006108788460a00151600885901c81518110610a8457610a846131e1565b602002602001015160ff851681518110610aa057610aa06131e1565b6020026020010151836113d790919063ffffffff16565b6000806000610ae8847fffffffffffffffffffffffffffffffffffffffffffffffffffffffffffffffe00180519091565b9150915061057a8660a001518681518110610b0557610b056131e1565b60200260200101518281518110610b1e57610b1e6131e1565b6020026020010151836113df90919063ffffffff16565b600080836003811115610b4a57610b4a61323f565b9050610b578584836113e3565b5091949350505050565b600060ff831660018101600481901b851783610b9f867fffffffffffffffffffffffffffffffffffffffffffffffffffffffffffffffe00180519091565b90965090505b8015610bee57610bb6888388610a0f565b9550610be4867fffffffffffffffffffffffffffffffffffffffffffffffffffffffffffffffe00180519091565b9096509050610ba5565b50939695505050505050565b6000600f83811690600485901c811690600886901c16600c86901c808201855b8960a001518581518110610c3057610c306131e1565b6020026020010151518110156104ab5760005b84811015610ca057610c968b60a0015182880181518110610c6657610c666131e1565b60200260200101518381518110610c7f57610c7f6131e1565b60200260200101518a6113d790919063ffffffff16565b9850600101610c43565b50600886901b600484901b178217610cb98b828b610a0f565b985050600101610c1a565b600080610cf3837fffffffffffffffffffffffffffffffffffffffffffffffffffffffffffffffe00180519091565b60408701519194509150600090610d0a9083611519565b9050600081600003610dda57608087015160608801516040517f669e48aa00000000000000000000000000000000000000000000000000000000815273ffffffffffffffffffffffffffffffffffffffff9092169163669e48aa91610d7c918790600401918252602082015260400190565b602060405180830381865afa158015610d99573d6000803e3d6000fd5b505050506040513d601f19601f82011682018060405250810190610dbd919061326e565b6040880151909150610dd0908483611542565b6040880152610de6565b610de38261159b565b90505b808552602085015b979650505050505050565b6000600c83901c610fff8416825b8281101561090557610e1a878387610a0f565b945080610e26816132b6565b915050610e07565b60018281166020908102949094015192901c83029091015181520190565b6000806000610e7d847fffffffffffffffffffffffffffffffffffffffffffffffffffffffffffffffe00180519091565b9094509050610eae847fffffffffffffffffffffffffffffffffffffffffffffffffffffffffffffffe00180519091565b60408801519195509250610ec3908383611542565b604087015250829150509392505050565b6000610878826115e2856115f5565b600061087882611642611343565b6000610878826116d7611748565b600061087882611787611823565b6000610878826118b5611343565b60006108788261190b611343565b6000610878826119ba611823565b600061087882611a1785611ad1565b600061087882611b8d85611b9a565b438152600060208201610878565b428152600060208201610878565b6000806000610fa2847fffffffffffffffffffffffffffffffffffffffffffffffffffffffffffffffe00180519091565b909250905063ffffffff610dee83828416602085901c8416604086901c8516606087901c8616608088901c871660a089901c881660c08a901c891660e08b901c611bd38b16565b600061087882611c0985611c15565b600061087882611c4b85611c61565b600061087882611cc385611c61565b600061087882611cd985611c15565b600061087882611ce585611c15565b6000602083028203805b8381101561106e576000611050825190565b90508015611065578252506020019050610580565b5060200161103e565b50602081015b95945050505050565b600061087882611cf160018601611ad1565b600061087882611d01611343565b6000602083028203805b8381101561106e5780516000036110c75750600081526020019050610580565b6020016110a7565b600061087882611d05611343565b600061087882611d09611748565b600061087882611d0d611343565b600061087882611d1185611d4c565b600061087882611d9385611d4c565b600061087882611dc485611d4c565b600061087882611dda85611d4c565b600061087882611de685611d4c565b600061087882611df285611d4c565b600061087882611dfe85611d4c565b60006108788261058785611d4c565b600061087882611e0d85611d4c565b600061087882611e1985611d4c565b600061087882611e2585611d4c565b600061087882611e31611ef3565b600061087882611fac611748565b600061087882611ff9611748565b600061087882612086611748565b600061087882612108611748565b600061087882612155611748565b6000610878826121a2611823565b60006108788261220185612258565b6000610878826122e28561237c565b600061087882612445611343565b600060ff8316600884901c600316600a85901c83806112788786602081029091037fffffffffffffffffffffffffffffffffffffffffffffffffffffffffffffffe00180519181529091565b9150915061129661128b848685856124a4565b825b90815260200190565b9998505050505050505050565b6000610878826125f385611c61565b80518190603b146112fc5780516040517fc8b569010000000000000000000000000000000000000000000000000000000081526004810191909152603b6024820152604401610998565b919050565b60405182518251602080830286010183111561131c57600080fd5b602081028301604052018352611332828261260b565b505050565b6000610580838361261f565b7fffffffffffffffffffffffffffffffffffffffffffffffffffffffffffffffc0820180517fffffffffffffffffffffffffffffffffffffffffffffffffffffffffffffffe0909301805190936000929091906113a4838363ffffffff8816565b905250929392505050565b8060200283015b808410156113d15783518352602093840193909201916113b6565b50505050565b815260200190565b9052565b600060038260038111156113f9576113f961323f565b0361144c5760005b8460c0015151811015611446576114348560c001518281518110611427576114276131e1565b60200260200101516127a8565b8061143e816132b6565b915050611401565b50611511565b60008260038111156114605761146061323f565b036114715783516114469084612837565b60018260038111156114855761148561323f565b036114c7576114c26114bd6101e486602001517fffffffffffffffffffffffffffffffffffffffffffffffffffffffffffffffe00190565b612854565b611511565b60005b8460a001515181101561150f576114fd8560a0015182815181106114f0576114f06131e1565b6020026020010151612854565b80611507816132b6565b9150506114ca565b505b509092915050565b61ffff828116905b811561153b578151831461153b5760408201519150611521565b5092915050565b60008061154f8585611519565b905061ffff811561156557836020830152611591565b60405191506060820160405284825283602083015280861660408301528160028760101c0160101b1795505b5093949350505050565b6000816000036115da576040517f295cd22200000000000000000000000000000000000000000000000000000000815260048101839052602401610998565b506020015190565b6000816040516020016104f591906132ee565b7fffffffffffffffffffffffffffffffffffffffffffffffffffffffffffffffe06020820284030180518282526000916000611634828763ffffffff16565b9050610dee8161128d858582565b6040517f70a0823100000000000000000000000000000000000000000000000000000000815273ffffffffffffffffffffffffffffffffffffffff8281166004830152600091908416906370a08231906024015b602060405180830381865afa1580156116b3573d6000803e3d6000fd5b505050506040513d601f19601f82011682018060405250810190610580919061326e565b60008173ffffffffffffffffffffffffffffffffffffffff166318160ddd6040518163ffffffff1660e01b8152600401602060405180830381865afa158015611724573d6000803e3d6000fd5b505050506040513d601f19601f82011682018060405250810190610220919061326e565b7fffffffffffffffffffffffffffffffffffffffffffffffffffffffffffffffe08201805160009161177d8263ffffffff8616565b9052509192915050565b6040517f4ee2cd7e00000000000000000000000000000000000000000000000000000000815273ffffffffffffffffffffffffffffffffffffffff83811660048301526024820183905260009190851690634ee2cd7e906044015b602060405180830381865afa1580156117ff573d6000803e3d6000fd5b505050506040513d601f19601f82011682018060405250810190610878919061326e565b7fffffffffffffffffffffffffffffffffffffffffffffffffffffffffffffffa0820180517fffffffffffffffffffffffffffffffffffffffffffffffffffffffffffffffc0840180517fffffffffffffffffffffffffffffffffffffffffffffffffffffffffffffffe09095015190946000939091906118a984848463ffffffff8a16565b90525093949350505050565b6040517f981b24d00000000000000000000000000000000000000000000000000000000081526004810182905260009073ffffffffffffffffffffffffffffffffffffffff84169063981b24d090602401611696565b6040517f6352211e0000000000000000000000000000000000000000000000000000000081526004810182905260009073ffffffffffffffffffffffffffffffffffffffff841690636352211e90602401602060405180830381865afa158015611979573d6000803e3d6000fd5b505050506040513d601f19601f8201168201806040525081019061199d9190613324565b73ffffffffffffffffffffffffffffffffffffffff169392505050565b6040517efdd58e00000000000000000000000000000000000000000000000000000000815273ffffffffffffffffffffffffffffffffffffffff8381166004830152602482018390526000919085169062fdd58e906044016117e2565b6040517f4e1273f400000000000000000000000000000000000000000000000000000000815260609073ffffffffffffffffffffffffffffffffffffffff851690634e1273f490611a6e908690869060040161335a565b600060405180830381865afa158015611a8b573d6000803e3d6000fd5b505050506040513d6000823e601f3d9081017fffffffffffffffffffffffffffffffffffffffffffffffffffffffffffffffe016820160405261087891908101906133bd565b600060208202840381611ae48285612912565b7fffffffffffffffffffffffffffffffffffffffffffffffffffffffffffffffe06020860284030180518682529192506000611b258383868b63ffffffff16565b905086815114611b6e5780516040517f231606ca000000000000000000000000000000000000000000000000000000008152610998918991600401918252602082015260400190565b81611b79828261260b565b6020880281019a9950505050505050505050565b80611b9757600080fd5b50565b600060208202840381815b86831015611bc95782519150602083019250611bc4828763ffffffff16565b611ba5565b9695505050505050565b968852602088019590955260408701939093526060860191909152608085015260a084015260c083015260e08201526101000190565b6000610580828461296a565b7fffffffffffffffffffffffffffffffffffffffffffffffffffffffffffffffe0830180516000916113a4848363ffffffff8816565b600061087882611c5b858761296a565b906129e3565b7fffffffffffffffffffffffffffffffffffffffffffffffffffffffffffffffc0830180517fffffffffffffffffffffffffffffffffffffffffffffffffffffffffffffffe0909401805190946000929091906118a985848463ffffffff8a16565b600061087882611cd3858761296a565b906129f8565b60006105808284612a0d565b60006105808284612a5c565b6060600084116115115781610878565b1490565b1090565b1590565b1190565b6000828201838110611d235780610878565b7fffffffffffffffffffffffffffffffffffffffffffffffffffffffffffffffff949350505050565b60208181028403805160009282019083825b88841015611d855783519150611d7883838a63ffffffff16565b9250602084019350611d5e565b919093529695505050505050565b600082600003611da557506000610220565b82820282848281611db857611db8613210565b0403611d235780610878565b6000818311611dd4576000610580565b50900390565b60006105808284613443565b60006105808284613456565b6000610580828461358a565b60008183116105965781610580565b60006105808284613596565b600061058082846135aa565b600061058082846135c1565b6040517fd97b2e4800000000000000000000000000000000000000000000000000000000815273ffffffffffffffffffffffffffffffffffffffff84811660048301528381166024830152604482018390526000919086169063d97b2e4890606401602060405180830381865afa158015611eb0573d6000803e3d6000fd5b505050506040513d601f19601f82011682018060405250810190611ed4919061326e565b73ffffffffffffffffffffffffffffffffffffffff1695945050505050565b7fffffffffffffffffffffffffffffffffffffffffffffffffffffffffffffff80820180517fffffffffffffffffffffffffffffffffffffffffffffffffffffffffffffffa0840180517fffffffffffffffffffffffffffffffffffffffffffffffffffffffffffffffc08601517fffffffffffffffffffffffffffffffffffffffffffffffffffffffffffffffe090960151919560009491929091611f9f8585858563ffffffff8c16565b9052509495945050505050565b60008173ffffffffffffffffffffffffffffffffffffffff1663ec14b06e6040518163ffffffff1660e01b8152600401602060405180830381865afa158015611724573d6000803e3d6000fd5b60008173ffffffffffffffffffffffffffffffffffffffff1663cd3293de6040518163ffffffff1660e01b8152600401602060405180830381865afa158015612046573d6000803e3d6000fd5b505050506040513d601f19601f8201168201806040525081019061206a9190613324565b73ffffffffffffffffffffffffffffffffffffffff1692915050565b60008173ffffffffffffffffffffffffffffffffffffffff1663f9020e336040518163ffffffff1660e01b8152600401602060405180830381865afa1580156120d3573d6000803e3d6000fd5b505050506040513d601f19601f820116820180604052508101906120f791906135d4565b60038111156102205761022061323f565b60008173ffffffffffffffffffffffffffffffffffffffff1663fc0c546a6040518163ffffffff1660e01b8152600401602060405180830381865afa158015612046573d6000803e3d6000fd5b60008173ffffffffffffffffffffffffffffffffffffffff166347e4bbb96040518163ffffffff1660e01b8152600401602060405180830381865afa158015611724573d6000803e3d6000fd5b6040517fdb8554fc00000000000000000000000000000000000000000000000000000000815273ffffffffffffffffffffffffffffffffffffffff8381166004830152602482018390526000919085169063db8554fc906044016117e2565b6040517f88d6860400000000000000000000000000000000000000000000000000000000815260009073ffffffffffffffffffffffffffffffffffffffff8516906388d68604906117e290869086906004016135f5565b6020810283037fffffffffffffffffffffffffffffffffffffffffffffffffffffffffffffffe0018051828252600091828190506000806122bb837fffffffffffffffffffffffffffffffffffffffffffffffffffffffffffffffe00180519091565b915091506122d56122d18287878c63ffffffff16565b8352565b5090979650505050505050565b6040517fcaa0eb3b00000000000000000000000000000000000000000000000000000000815260009073ffffffffffffffffffffffffffffffffffffffff86169063caa0eb3b9061233b90879087908790600401613624565b602060405180830381865afa158015612358573d6000803e3d6000fd5b505050506040513d601f19601f82011682018060405250810190611074919061326e565b6020810283037fffffffffffffffffffffffffffffffffffffffffffffffffffffffffffffffe001805182825260009182806123da837fffffffffffffffffffffffffffffffffffffffffffffffffffffffffffffffe00180519091565b91509150600061240a837fffffffffffffffffffffffffffffffffffffffffffffffffffffffffffffffe0015190565b90506122d561241f828488888d63ffffffff16565b7fffffffffffffffffffffffffffffffffffffffffffffffffffffffffffffffe0850152565b60008060015b6008811161249c57600061245f8683612abc565b9050600061246d8684612abc565b9050600061247b8383611dc4565b905061248b856001860383612b6c565b9450506001909201915061244b9050565b509392505050565b805160009081908190819060015b600881116125e5576000925082896124eb57507fffffffffffffffffffffffffffffffffffffffffffffffffffffffffffffffff6124ef565b5060005b60005b838110156125a35761251d89828151811061250f5761250f6131e1565b602002602001015184612abc565b955089861161256e578a61253c576125358683610587565b9150612565565b60018b0361254e576125358683611dfe565b60028b14801561255c575084155b15612565578591505b6001945061259b565b8b61259b577fffffffffffffffffffffffffffffffffffffffffffffffffffffffffffffffff91506125a3565b6001016124f2565b50836125cc57507fffffffffffffffffffffffffffffffffffffffffffffffffffffffffffffffff5b6125da866001840383612b6c565b9550506001016124b2565b509298975050505050505050565b60006108788385600f16600487901c600f1685612bf6565b6000602083019050611332818385516113af565b60008060008473ffffffffffffffffffffffffffffffffffffffff1663feaf968c6040518163ffffffff1660e01b815260040160a060405180830381865afa15801561266f573d6000803e3d6000fd5b505050506040513d601f19601f820116820180604052508101906126939190613673565b50935050925050600082136126d7576040517f3351e26f00000000000000000000000000000000000000000000000000000000815260048101839052602401610998565b836126e282426135c1565b1115612724576040517f2730eb480000000000000000000000000000000000000000000000000000000081526004810182905260248101859052604401610998565b6110748573ffffffffffffffffffffffffffffffffffffffff1663313ce5676040518163ffffffff1660e01b8152600401602060405180830381865afa158015612772573d6000803e3d6000fd5b505050506040513d601f19601f8201168201806040525081019061279691906136c3565b60ff166127a284612c9c565b9061296a565b611b97816040516024016127bc91906131ce565b604080517fffffffffffffffffffffffffffffffffffffffffffffffffffffffffffffffe08184030181529190526020810180517bffffffffffffffffffffffffffffffffffffffffffffffffffffffff167f0be77f5600000000000000000000000000000000000000000000000000000000179052612d0c565b60008060208484030490506115116114bd60208302850383612912565b6128926040518060400160405280600381526020017f7e7e7e0000000000000000000000000000000000000000000000000000000000815250612d2d565b60005b81518110156128d3576128c1818383815181106128b4576128b46131e1565b6020026020010151612dbc565b806128cb816132b6565b915050612895565b50611b976040518060400160405280600381526020017f7e7e7e0000000000000000000000000000000000000000000000000000000000815250612d2d565b606060008267ffffffffffffffff81111561292f5761292f612f2a565b604051908082528060200260200182016040528015612958578160200160208202803683370190505b5090506020810161249c8582866113af565b6000808260120361297e5783915050610220565b82601211156129aa575060128290036129a261299b82600a61358a565b8590611d93565b915050610220565b507fffffffffffffffffffffffffffffffffffffffffffffffffffffffffffffffee82016129d981600a61358a565b6129a29085613456565b600061058083670de0b6b3a764000084612e53565b60006105808383670de0b6b3a7640000612e53565b60008160000b600003612a21575081610220565b60008260000b1315612a4957612a42612a3b83600a6136e6565b8490611d93565b9050610220565b60ff6000839003166129d981600a61358a565b60008060128303612a705783915050610220565b8260121115612a8a575060128290036129d981600a61358a565b507fffffffffffffffffffffffffffffffffffffffffffffffffffffffffffffffee82016129a261299b82600a61358a565b6000816008811115612b2a576040517f08c379a000000000000000000000000000000000000000000000000000000000815260206004820152600860248201527f4d41585f544945520000000000000000000000000000000000000000000000006044820152606401610998565b82600003612b3b576000915061153b565b50507fffffffffffffffffffffffffffffffffffffffffffffffffffffffffffffffff016020021c63ffffffff1690565b6000826008811115612bda576040517f08c379a000000000000000000000000000000000000000000000000000000000815260206004820152600860248201527f4d41585f544945520000000000000000000000000000000000000000000000006044820152606401610998565b505060209190910290811b63ffffffff90911b19919091161790565b6000826008811115612c64576040517f08c379a000000000000000000000000000000000000000000000000000000000815260206004820152600860248201527f4d41585f544945520000000000000000000000000000000000000000000000006044820152606401610998565b6000855b85811015612c905763ffffffff6020820290811b199890981685891b17979150600101612c68565b50959695505050505050565b600080821215612d08576040517f08c379a000000000000000000000000000000000000000000000000000000000815260206004820181905260248201527f53616665436173743a2076616c7565206d75737420626520706f7369746976656044820152606401610998565b5090565b80516a636f6e736f6c652e6c6f67602083016000808483855afa5050505050565b611b9781604051602401612d4191906131ce565b604080517fffffffffffffffffffffffffffffffffffffffffffffffffffffffffffffffe08184030181529190526020810180517bffffffffffffffffffffffffffffffffffffffffffffffffffffffff167f41304fac00000000000000000000000000000000000000000000000000000000179052612d0c565b6040516024810183905260448101829052612e4f90606401604080517fffffffffffffffffffffffffffffffffffffffffffffffffffffffffffffffe08184030181529190526020810180517bffffffffffffffffffffffffffffffffffffffffffffffffffffffff167ff666715a00000000000000000000000000000000000000000000000000000000179052612d0c565b5050565b600080807fffffffffffffffffffffffffffffffffffffffffffffffffffffffffffffffff85870985870292508281108382030391505080600003612eab57838281612ea157612ea1613210565b0492505050610580565b808411612eb757600080fd5b60008486880960026001871981018816978890046003810283188082028403028082028403028082028403028082028403028082028403029081029092039091026000889003889004909101858311909403939093029303949094049190911702949350505050565b612f286136f5565b565b7f4e487b7100000000000000000000000000000000000000000000000000000000600052604160045260246000fd5b604051601f82017fffffffffffffffffffffffffffffffffffffffffffffffffffffffffffffffe016810167ffffffffffffffff81118282101715612fa057612fa0612f2a565b604052919050565b600067ffffffffffffffff821115612fc257612fc2612f2a565b5060051b60200190565b600080600060608486031215612fe157600080fd5b833592506020808501359250604085013567ffffffffffffffff8082111561300857600080fd5b818701915087601f83011261301c57600080fd5b813561302f61302a82612fa8565b612f59565b81815260059190911b8301840190848101908a83111561304e57600080fd5b8585015b838110156130dd5780358581111561306a5760008081fd5b8601603f81018d1361307c5760008081fd5b8781013561308c61302a82612fa8565b81815260059190911b820160400190898101908f8311156130ad5760008081fd5b6040840193505b828410156130cd5783358252928a0192908a01906130b4565b8652505050918601918601613052565b508096505050505050509250925092565b600081518084526020808501945080840160005b8381101561311e57815187529582019590820190600101613102565b509495945050505050565b60608152600061313c60608301866130ee565b73ffffffffffffffffffffffffffffffffffffffff851660208401528281036040840152611bc981856130ee565b6000815180845260005b8181101561319057602081850181015186830182015201613174565b5060006020828601015260207fffffffffffffffffffffffffffffffffffffffffffffffffffffffffffffffe0601f83011685010191505092915050565b602081526000610580602083018461316a565b7f4e487b7100000000000000000000000000000000000000000000000000000000600052603260045260246000fd5b7f4e487b7100000000000000000000000000000000000000000000000000000000600052601260045260246000fd5b7f4e487b7100000000000000000000000000000000000000000000000000000000600052602160045260246000fd5b60006020828403121561328057600080fd5b5051919050565b7f4e487b7100000000000000000000000000000000000000000000000000000000600052601160045260246000fd5b60007fffffffffffffffffffffffffffffffffffffffffffffffffffffffffffffffff82036132e7576132e7613287565b5060010190565b815160009082906020808601845b83811015613318578151855293820193908201906001016132fc565b50929695505050505050565b60006020828403121561333657600080fd5b815173ffffffffffffffffffffffffffffffffffffffff8116811461058057600080fd5b604080825283519082018190526000906020906060840190828701845b828110156133a957815173ffffffffffffffffffffffffffffffffffffffff1684529284019290840190600101613377565b50505083810382850152611bc981866130ee565b600060208083850312156133d057600080fd5b825167ffffffffffffffff8111156133e757600080fd5b8301601f810185136133f857600080fd5b805161340661302a82612fa8565b81815260059190911b8201830190838101908783111561342557600080fd5b928401925b82841015610dee5783518252928401929084019061342a565b8082018082111561022057610220613287565b60008261346557613465613210565b500490565b600181815b808511156134c357817fffffffffffffffffffffffffffffffffffffffffffffffffffffffffffffffff048211156134a9576134a9613287565b808516156134b657918102915b93841c939080029061346f565b509250929050565b6000826134da57506001610220565b816134e757506000610220565b81600181146134fd576002811461350757613523565b6001915050610220565b60ff84111561351857613518613287565b50506001821b610220565b5060208310610133831016604e8410600b8410161715613546575081810a610220565b613550838361346a565b807fffffffffffffffffffffffffffffffffffffffffffffffffffffffffffffffff0482111561358257613582613287565b029392505050565b600061058083836134cb565b6000826135a5576135a5613210565b500690565b808202811582820484141761022057610220613287565b8181038181111561022057610220613287565b6000602082840312156135e657600080fd5b81516004811061058057600080fd5b73ffffffffffffffffffffffffffffffffffffffff8316815260406020820152600061087860408301846130ee565b73ffffffffffffffffffffffffffffffffffffffff8416815282602082015260606040820152600061107460608301846130ee565b805169ffffffffffffffffffff811681146112fc57600080fd5b600080600080600060a0868803121561368b57600080fd5b61369486613659565b94506020860151935060408601519250606086015191506136b760808701613659565b90509295509295909350565b6000602082840312156136d557600080fd5b815160ff8116811461058057600080fd5b600061058060ff8416836134cb565b7f4e487b7100000000000000000000000000000000000000000000000000000000600052605160045260246000fdfea2646970667358221220b02c31c661bf95879a3112e591b2ebe05fbb983c865eeb3b7861d7330d5f198864736f6c63430008110033",
  "linkReferences": {},
  "deployedLinkReferences": {}
}