{
  "_format": "hh-sol-artifact-1",
  "contractName": "Rainterpreter",
  "sourceName": "contracts/interpreter/shared/Rainterpreter.sol",
  "abi": [
    {
      "inputs": [
        {
          "internalType": "uint256",
          "name": "_size",
          "type": "uint256"
        },
        {
          "internalType": "uint256",
          "name": "_start",
          "type": "uint256"
        },
        {
          "internalType": "uint256",
          "name": "_end",
          "type": "uint256"
        }
      ],
      "name": "InvalidCodeAtRange",
      "type": "error"
    },
    {
      "inputs": [
        {
          "internalType": "EncodedDispatch",
          "name": "dispatch_",
          "type": "uint256"
        },
        {
          "internalType": "uint256[][]",
          "name": "context_",
          "type": "uint256[][]"
        }
      ],
      "name": "eval",
      "outputs": [
        {
          "internalType": "uint256[]",
          "name": "",
          "type": "uint256[]"
        },
        {
          "internalType": "uint256[]",
          "name": "",
          "type": "uint256[]"
        }
      ],
      "stateMutability": "view",
      "type": "function"
    },
    {
      "inputs": [
        {
          "internalType": "StateNamespace",
          "name": "namespace_",
          "type": "uint256"
        },
        {
          "internalType": "EncodedDispatch",
          "name": "dispatch_",
          "type": "uint256"
        },
        {
          "internalType": "uint256[][]",
          "name": "context_",
          "type": "uint256[][]"
        }
      ],
      "name": "evalWithNamespace",
      "outputs": [
        {
          "internalType": "uint256[]",
          "name": "",
          "type": "uint256[]"
        },
        {
          "internalType": "uint256[]",
          "name": "",
          "type": "uint256[]"
        }
      ],
      "stateMutability": "view",
      "type": "function"
    },
    {
      "inputs": [],
      "name": "functionPointers",
      "outputs": [
        {
          "internalType": "bytes",
          "name": "",
          "type": "bytes"
        }
      ],
      "stateMutability": "view",
      "type": "function"
    },
    {
      "inputs": [
        {
          "internalType": "uint256[]",
          "name": "stateChanges_",
          "type": "uint256[]"
        }
      ],
      "name": "stateChanges",
      "outputs": [],
      "stateMutability": "nonpayable",
      "type": "function"
    },
    {
      "inputs": [
        {
          "internalType": "StateNamespace",
          "name": "stateNamespace_",
          "type": "uint256"
        },
        {
          "internalType": "uint256[]",
          "name": "stateChanges_",
          "type": "uint256[]"
        }
      ],
      "name": "stateChangesWithNamespace",
      "outputs": [],
      "stateMutability": "nonpayable",
      "type": "function"
    }
  ],
  "bytecode": "0x608060405234801561001057600080fd5b506138c9806100206000396000f3fe608060405234801561001057600080fd5b50600436106100675760003560e01c8063beb677ed11610050578063beb677ed146100a9578063ce0dd628146100be578063f933c72f146100d157600080fd5b806390e7d00b1461006c578063be6575df14610096575b600080fd5b61007f61007a366004613166565b6100e6565b60405161008d9291906131e8565b60405180910390f35b61007f6100a436600461320d565b610100565b6100bc6100b736600461325d565b6101b9565b005b6100bc6100cc36600461329a565b61026f565b6100d961027d565b60405161008d9190613333565b6060806100f560008585610100565b915091509250929050565b606080602084901c60ff601086901c811690861660006101276101228561029a565b6102ce565b606081018a905260808101889052805190915060009061014a9083908690610527565b82519091506020908203046000610195610164838761057d565b7fffffffffffffffffffffffffffffffffffffffffffffffffffffffffffffffe06020820286030180519181529091565b915050806101a68560400151610593565b9850985050505050505050935093915050565b60005b815181101561026a578181600101815181106101da576101da613346565b60200260200101516000803373ffffffffffffffffffffffffffffffffffffffff1673ffffffffffffffffffffffffffffffffffffffff1681526020019081526020016000206000858152602001908152602001600020600084848151811061024557610245613346565b60200260200101518152602001908152602001600020819055506002810190506101bc565b505050565b61027a6000826101b9565b50565b606061029561029061028d610623565b90565b610635565b905090565b60606102c88260017fffffffffffffffffffffffffffffffffffffffffffffffffffffffffffffffff6106c5565b92915050565b6103076040518060c001604052806000815260200160008152602001600081526020016000815260200160608152602001606081525090565b6103406040518060c001604052806000815260200160008152602001600081526020016000815260200160608152602001606081525090565b604080516000808252602082019092529061036b565b60608152602001906001900390816103565790505b506080820152600061037e845b60200190565b905060006103b46103af837fffffffffffffffffffffffffffffffffffffffffffffffffffffffffffffffe0015190565b830190565b905060208201915060006103e8837fffffffffffffffffffffffffffffffffffffffffffffffffffffffffffffffe0015190565b905060008167ffffffffffffffff81111561040557610405612fd9565b60405190808252806020026020018201604052801561042e578160200160208202803683370190505b5060208082018752858101908701819052945190915061045090602002850190565b9350600084815b8582101561047c5761047261037861046d845190565b840190565b9150600101610457565b8067ffffffffffffffff81111561049557610495612fd9565b6040519080825280602002602001820160405280156104c857816020015b60608152602001906001900390816104b35790505b5060a08901525b8587101561051957868860a0015184815181106104ee576104ee613346565b602002602001018190525061050c610378610507895190565b890190565b96506001909201916104cf565b509598975050505050505050565b60a08301516020838102909101015180516000919081015b8082101561057057600491909101805190919061ffff601082901c8116911661056788828885565b9550505061053f565b83925050505b9392505050565b600081831061058c5781610576565b5090919050565b606061ffff8216601083901c60008167ffffffffffffffff8111156105ba576105ba612fd9565b6040519080825280602002602001820160405280156105e3578160200160208202803683370190505b50905060208101602082510281015b8082101561061857845182526020808601519083015260409485015194909101906105f2565b509095945050505050565b60606102956106306107b6565b61081d565b60606000825160020267ffffffffffffffff81111561065657610656612fd9565b6040519080825280601f01601f191660200182016040528015610680576020820181803683370190505b50905061ffff801990506020840160208551028101600284015b818310156106ba578051835190851617815260209092019160020161069a565b509295945050505050565b6060833b60008190036106e8575050604080516020810190915260008152610576565b80841115610706575050604080516020810190915260008152610576565b83831015610756576040517f2c4a89fa0000000000000000000000000000000000000000000000000000000081526004810182905260248101859052604481018490526064015b60405180910390fd5b838303848203600082821061076b578261076d565b815b60408051603f83017fffffffffffffffffffffffffffffffffffffffffffffffffffffffffffffffe0168101909152818152955090508087602087018a3c505050509392505050565b60408051600180825281830190925260609160009190816020015b612fcf8152602001906001900390816107d1579050509050610a70816000815181106107ff576107ff613346565b67ffffffffffffffff90921660209283029190910190910152919050565b60606000604051806107800160405280610835603b90565b67ffffffffffffffff168152610b0a6020820152610b186040820152610b6e6060820152610bc06080820152610c3e60a0820152610c6a60c0820152610d0360e0820152610dcd610100820152610e02610120820152610e20610140820152610ea8610160820152610eb76101808201819052610ec56101a0830152610ed36101c0830152610ee16101e0830152610200820152610eef610220820152610efd610240820152610f0b610260820152610f1a610280820152610f296102a0820152610f376102c0820152610f456102e0820152610f53610300820152610f61610320820152610fd9610340820152610fe8610360820152610ff76103808201526110066103a08201526110156103c08201526110246103e082015261106d61040082015261107f61042082015261108d6104408201526110bf6104608201526110cd6104808201526110db6104a08201526110e96104c08201526110f86104e08201526111076105008201526111166105208201526111256105408201526111346105608201526111436105808201526111526105a08201526111616105c08201526111706105e082015261117f61060082015261118e61062082015261119c6106408201526111aa6106608201526111b86106808201526111c66106a08201526111d46106c08201526111e26106e08201526111f161070082015261120061072082015261120e6107408201526112856107609091015290506000610a5a82611294565b9050610a668185611306565b805b949350505050565b600080610a9f837fffffffffffffffffffffffffffffffffffffffffffffffffffffffffffffffe00180519091565b60408701519194509150600090610ab69083611337565b905060008115610ad057610ac982611357565b9050610af7565b503360009081526020818152604080832060608a0151845282528083208584529091529020545b808552602085015b979650505050505050565b6000610a68826113d26113de565b8251600090600f84811691600486901c90911690600886901c9060208402860388526000610b47898489610527565b9050610b5a6020850282038a518661144a565b508751975250602002909401949350505050565b6000610a688460800151600885901c81518110610b8d57610b8d613346565b602002602001015160ff851681518110610ba957610ba9613346565b6020026020010151836113ca90919063ffffffff16565b6000806000610bf1847fffffffffffffffffffffffffffffffffffffffffffffffffffffffffffffffe00180519091565b9150915061057086608001518681518110610c0e57610c0e613346565b60200260200101518281518110610c2757610c27613346565b60200260200101518361147290919063ffffffff16565b600080836003811115610c5357610c536133a4565b9050610c60858483611476565b5091949350505050565b600060ff831660018101600481901b851783610ca8867fffffffffffffffffffffffffffffffffffffffffffffffffffffffffffffffe00180519091565b90965090505b8015610cf757610cbf888388610b18565b9550610ced867fffffffffffffffffffffffffffffffffffffffffffffffffffffffffffffffe00180519091565b9096509050610cae565b50939695505050505050565b6000600f83811690600485901c811690600886901c16600c86901c808201855b89608001518581518110610d3957610d39613346565b6020026020010151518110156105195760005b84811015610da957610d9f8b6080015182880181518110610d6f57610d6f613346565b60200260200101518381518110610d8857610d88613346565b60200260200101518a6113ca90919063ffffffff16565b9850600101610d4c565b50600886901b600484901b178217610dc28b828b610b18565b985050600101610d23565b6000600c83901c610fff8416825b828110156106ba57610dee878387610b18565b945080610dfa81613402565b915050610ddb565b60018281166020908102949094015192901c83029091015181520190565b6000806000610e51847fffffffffffffffffffffffffffffffffffffffffffffffffffffffffffffffe00180519091565b9094509050610e82847fffffffffffffffffffffffffffffffffffffffffffffffffffffffffffffffe00180519091565b60408801519195509250610e979083836115aa565b604087015250829150509392505050565b6000610a688261160385611652565b6000610a688261169f6113de565b6000610a68826117346117a5565b6000610a68826117e4611880565b6000610a68826119126113de565b6000610a68826119686113de565b6000610a6882611a17611880565b6000610a6882611a7485611b2e565b6000610a6882611c0d85611c17565b438152600060208201610a68565b338152600060208201610a68565b308152600060208201610a68565b428152600060208201610a68565b6000806000610f92847fffffffffffffffffffffffffffffffffffffffffffffffffffffffffffffffe00180519091565b909250905063ffffffff610aff83828416602085901c8416604086901c8516606087901c8616608088901c871660a089901c881660c08a901c891660e08b901c611c4d8b16565b6000610a6882611c8385611c8f565b6000610a6882611cc585611cdb565b6000610a6882611d3d85611cdb565b6000610a6882611d5385611c8f565b6000610a6882611d5f85611c8f565b6000602083028203805b8381101561105e576000611040825190565b90508015611055578252506020019050610576565b5060200161102e565b50602081015b95945050505050565b6000610a6882611d6b60018601611b2e565b6000610a6882611d7b6113de565b6000602083028203805b8381101561105e5780516000036110b75750600081526020019050610576565b602001611097565b6000610a6882611d856113de565b6000610a6882611d8f6117a5565b6000610a6882611d986113de565b6000610a6882611da285611ddd565b6000610a6882611e2185611ddd565b6000610a6882611e5285611ddd565b6000610a6882611e6885611ddd565b6000610a6882611e7485611ddd565b6000610a6882611e8085611ddd565b6000610a6882611e8c85611ddd565b6000610a688261057d85611ddd565b6000610a6882611e9b85611ddd565b6000610a6882611ea785611ddd565b6000610a6882611eb385611ddd565b6000610a6882611ebf611f81565b6000610a688261203a6117a5565b6000610a68826120876117a5565b6000610a68826121146117a5565b6000610a68826121966117a5565b6000610a68826121e36117a5565b6000610a688261223085612287565b6000610a688261230e856123a8565b6000610a688261247e6113de565b600060ff8316600884901c600316600a85901c838061125a8786602081029091037fffffffffffffffffffffffffffffffffffffffffffffffffffffffffffffffe00180519181529091565b9150915061127861126d848685856124dd565b825b90815260200190565b9998505050505050505050565b6000610a688261262c85611cdb565b80518190603b14611301576040517f08c379a000000000000000000000000000000000000000000000000000000000815260206004820152601260248201527f4241445f44594e414d49435f4c454e4754480000000000000000000000000000604482015260640161074d565b919050565b60405182518251602080830286010183111561132157600080fd5b60208102830160405201835261026a8282612644565b600061ffff8381165b8015610a685780518414610a685760400151611340565b60008082116113c2576040517f08c379a000000000000000000000000000000000000000000000000000000000815260206004820152600b60248201527f494e56414c49445f505452000000000000000000000000000000000000000000604482015260640161074d565b506020015190565b815260200190565b60006105768383612658565b7fffffffffffffffffffffffffffffffffffffffffffffffffffffffffffffffc0820180517fffffffffffffffffffffffffffffffffffffffffffffffffffffffffffffffe09093018051909360009290919061143f838363ffffffff8816565b905250929392505050565b8060200283015b8084101561146c578351835260209384019390920191611451565b50505050565b9052565b6000600382600381111561148c5761148c6133a4565b036114df5760005b8460a00151518110156114d9576114c78560a0015182815181106114ba576114ba613346565b6020026020010151612833565b806114d181613402565b915050611494565b506115a2565b60008260038111156114f3576114f36133a4565b03611502576114d984846128c2565b6001826003811115611516576115166133a4565b036115585761155361154e61028d86602001517fffffffffffffffffffffffffffffffffffffffffffffffffffffffffffffffe00190565b6128d2565b6115a2565b60005b8460800151518110156115a05761158e8560800151828151811061158157611581613346565b60200260200101516128d2565b8061159881613402565b91505061155b565b505b509092915050565b6000806115b78585611337565b905061ffff81156115cd578360208301526115f9565b60405191506060820160405284825283602083015280861660408301528160028760101c0160101b1795505b5093949350505050565b600081604051602001611616919061343a565b604080517fffffffffffffffffffffffffffffffffffffffffffffffffffffffffffffffe0818403018152919052805160209091012092915050565b7fffffffffffffffffffffffffffffffffffffffffffffffffffffffffffffffe06020820284030180518282526000916000611691828763ffffffff16565b9050610aff8161126f858582565b6040517f70a0823100000000000000000000000000000000000000000000000000000000815273ffffffffffffffffffffffffffffffffffffffff8281166004830152600091908416906370a08231906024015b602060405180830381865afa158015611710573d6000803e3d6000fd5b505050506040513d601f19601f820116820180604052508101906105769190613470565b60008173ffffffffffffffffffffffffffffffffffffffff166318160ddd6040518163ffffffff1660e01b8152600401602060405180830381865afa158015611781573d6000803e3d6000fd5b505050506040513d601f19601f820116820180604052508101906102c89190613470565b7fffffffffffffffffffffffffffffffffffffffffffffffffffffffffffffffe0820180516000916117da8263ffffffff8616565b9052509192915050565b6040517f4ee2cd7e00000000000000000000000000000000000000000000000000000000815273ffffffffffffffffffffffffffffffffffffffff83811660048301526024820183905260009190851690634ee2cd7e906044015b602060405180830381865afa15801561185c573d6000803e3d6000fd5b505050506040513d601f19601f82011682018060405250810190610a689190613470565b7fffffffffffffffffffffffffffffffffffffffffffffffffffffffffffffffa0820180517fffffffffffffffffffffffffffffffffffffffffffffffffffffffffffffffc0840180517fffffffffffffffffffffffffffffffffffffffffffffffffffffffffffffffe090950151909460009390919061190684848463ffffffff8a16565b90525093949350505050565b6040517f981b24d00000000000000000000000000000000000000000000000000000000081526004810182905260009073ffffffffffffffffffffffffffffffffffffffff84169063981b24d0906024016116f3565b6040517f6352211e0000000000000000000000000000000000000000000000000000000081526004810182905260009073ffffffffffffffffffffffffffffffffffffffff841690636352211e90602401602060405180830381865afa1580156119d6573d6000803e3d6000fd5b505050506040513d601f19601f820116820180604052508101906119fa9190613489565b73ffffffffffffffffffffffffffffffffffffffff169392505050565b6040517efdd58e00000000000000000000000000000000000000000000000000000000815273ffffffffffffffffffffffffffffffffffffffff8381166004830152602482018390526000919085169062fdd58e9060440161183f565b6040517f4e1273f400000000000000000000000000000000000000000000000000000000815260609073ffffffffffffffffffffffffffffffffffffffff851690634e1273f490611acb90869086906004016134bf565b600060405180830381865afa158015611ae8573d6000803e3d6000fd5b505050506040513d6000823e601f3d9081017fffffffffffffffffffffffffffffffffffffffffffffffffffffffffffffffe0168201604052610a68919081019061352c565b600060208202840381611b418285612990565b7fffffffffffffffffffffffffffffffffffffffffffffffffffffffffffffffe06020860284030180518682529192506000611b828383868b63ffffffff16565b905086815114611bee576040517f08c379a000000000000000000000000000000000000000000000000000000000815260206004820152601160248201527f4241445f524553554c545f4c454e475448000000000000000000000000000000604482015260640161074d565b81611bf98282612644565b6020880281019a9950505050505050505050565b8061027a57600080fd5b6020810283038060005b85821015611c4457508051602090910190611c3f8163ffffffff8716565b611c21565b50509392505050565b968852602088019590955260408701939093526060860191909152608085015260a084015260c083015260e08201526101000190565b600061057682846129e8565b7fffffffffffffffffffffffffffffffffffffffffffffffffffffffffffffffe08301805160009161143f848363ffffffff8816565b6000610a6882611cd585876129e8565b90612a68565b7fffffffffffffffffffffffffffffffffffffffffffffffffffffffffffffffc0830180517fffffffffffffffffffffffffffffffffffffffffffffffffffffffffffffffe09094018051909460009290919061190685848463ffffffff8a16565b6000610a6882611d4d85876129e8565b90612a7d565b60006105768284612a92565b60006105768284612ae1565b6060600084116115a25781610a68565b6000818314610576565b6000818311610576565b600081156102c8565b6000818310610576565b6000828201838110611db45780610a68565b7fffffffffffffffffffffffffffffffffffffffffffffffffffffffffffffffff949350505050565b60208181028403805191810191829060005b87831015611e1557508151611e08828263ffffffff8a16565b9150602083019250611def565b50909152509392505050565b600082600003611e33575060006102c8565b82820282848281611e4657611e46613375565b0403611db45780610a68565b6000818311611e62576000610576565b50900390565b600061057682846135b2565b600061057682846135c5565b600061057682846136f9565b600081831161058c5781610576565b60006105768284613705565b60006105768284613719565b60006105768284613730565b6040517fd97b2e4800000000000000000000000000000000000000000000000000000000815273ffffffffffffffffffffffffffffffffffffffff84811660048301528381166024830152604482018390526000919086169063d97b2e4890606401602060405180830381865afa158015611f3e573d6000803e3d6000fd5b505050506040513d601f19601f82011682018060405250810190611f629190613470565b73ffffffffffffffffffffffffffffffffffffffff1695945050505050565b7fffffffffffffffffffffffffffffffffffffffffffffffffffffffffffffff80820180517fffffffffffffffffffffffffffffffffffffffffffffffffffffffffffffffa0840180517fffffffffffffffffffffffffffffffffffffffffffffffffffffffffffffffc08601517fffffffffffffffffffffffffffffffffffffffffffffffffffffffffffffffe09096015191956000949192909161202d8585858563ffffffff8c16565b9052509495945050505050565b60008173ffffffffffffffffffffffffffffffffffffffff1663ec14b06e6040518163ffffffff1660e01b8152600401602060405180830381865afa158015611781573d6000803e3d6000fd5b60008173ffffffffffffffffffffffffffffffffffffffff1663cd3293de6040518163ffffffff1660e01b8152600401602060405180830381865afa1580156120d4573d6000803e3d6000fd5b505050506040513d601f19601f820116820180604052508101906120f89190613489565b73ffffffffffffffffffffffffffffffffffffffff1692915050565b60008173ffffffffffffffffffffffffffffffffffffffff1663f9020e336040518163ffffffff1660e01b8152600401602060405180830381865afa158015612161573d6000803e3d6000fd5b505050506040513d601f19601f820116820180604052508101906121859190613743565b60038111156102c8576102c86133a4565b60008173ffffffffffffffffffffffffffffffffffffffff1663fc0c546a6040518163ffffffff1660e01b8152600401602060405180830381865afa1580156120d4573d6000803e3d6000fd5b60008173ffffffffffffffffffffffffffffffffffffffff166347e4bbb96040518163ffffffff1660e01b8152600401602060405180830381865afa158015611781573d6000803e3d6000fd5b6040517f88d6860400000000000000000000000000000000000000000000000000000000815260009073ffffffffffffffffffffffffffffffffffffffff8516906388d686049061183f9086908690600401613764565b6020810283037fffffffffffffffffffffffffffffffffffffffffffffffffffffffffffffffe00180518282526000918092506000806122e9857fffffffffffffffffffffffffffffffffffffffffffffffffffffffffffffffe00180519091565b915091506123036122ff8286868b63ffffffff16565b8352565b505050509392505050565b6040517fcaa0eb3b00000000000000000000000000000000000000000000000000000000815260009073ffffffffffffffffffffffffffffffffffffffff86169063caa0eb3b9061236790879087908790600401613793565b602060405180830381865afa158015612384573d6000803e3d6000fd5b505050506040513d601f19601f820116820180604052508101906110649190613470565b6020810283037fffffffffffffffffffffffffffffffffffffffffffffffffffffffffffffffe00180518282526000918280612406837fffffffffffffffffffffffffffffffffffffffffffffffffffffffffffffffe00180519091565b915091506000612436837fffffffffffffffffffffffffffffffffffffffffffffffffffffffffffffffe0015190565b905061247161244b828488888d63ffffffff16565b7fffffffffffffffffffffffffffffffffffffffffffffffffffffffffffffffe0850152565b5090979650505050505050565b60008060015b600881116124d55760006124988683612b3e565b905060006124a68684612b3e565b905060006124b48383611e52565b90506124c4856001860383612bee565b945050600190920191506124849050565b509392505050565b805160009081908190819060015b6008811161261e5760009250828961252457507fffffffffffffffffffffffffffffffffffffffffffffffffffffffffffffffff612528565b5060005b60005b838110156125dc5761255689828151811061254857612548613346565b602002602001015184612b3e565b95508986116125a7578a6125755761256e868361057d565b915061259e565b60018b036125875761256e8683612c78565b60028b148015612595575084155b1561259e578591505b600194506125d4565b8b6125d4577fffffffffffffffffffffffffffffffffffffffffffffffffffffffffffffffff91506125dc565b60010161252b565b508361260557507fffffffffffffffffffffffffffffffffffffffffffffffffffffffffffffffff5b612613866001840383612bee565b9550506001016124eb565b509298975050505050505050565b6000610a688385600f16600487901c600f1685612c88565b600060208301905061026a8183855161144a565b60008060008473ffffffffffffffffffffffffffffffffffffffff1663feaf968c6040518163ffffffff1660e01b815260040160a060405180830381865afa1580156126a8573d6000803e3d6000fd5b505050506040513d601f19601f820116820180604052508101906126cc91906137e2565b509350509250506000821361273d576040517f08c379a000000000000000000000000000000000000000000000000000000000815260206004820152600e60248201527f4d494e5f424153455f5052494345000000000000000000000000000000000000604482015260640161074d565b836127488242613730565b106127af576040517f08c379a000000000000000000000000000000000000000000000000000000000815260206004820152600b60248201527f5354414c455f5052494345000000000000000000000000000000000000000000604482015260640161074d565b6110648573ffffffffffffffffffffffffffffffffffffffff1663313ce5676040518163ffffffff1660e01b8152600401602060405180830381865afa1580156127fd573d6000803e3d6000fd5b505050506040513d601f19601f820116820180604052508101906128219190613832565b60ff1661282d84612d2e565b906129e8565b61027a816040516024016128479190613333565b604080517fffffffffffffffffffffffffffffffffffffffffffffffffffffffffffffffe08184030181529190526020810180517bffffffffffffffffffffffffffffffffffffffffffffffffffffffff167f0be77f5600000000000000000000000000000000000000000000000000000000179052612d9e565b6000610576836000015183612dbf565b6129106040518060400160405280600381526020017f7e7e7e0000000000000000000000000000000000000000000000000000000000815250612ddc565b60005b81518110156129515761293f8183838151811061293257612932613346565b6020026020010151612e6b565b8061294981613402565b915050612913565b5061027a6040518060400160405280600381526020017f7e7e7e0000000000000000000000000000000000000000000000000000000000815250612ddc565b606060008267ffffffffffffffff8111156129ad576129ad612fd9565b6040519080825280602002602001820160405280156129d6578160200160208202803683370190505b509050602081016124d585828661144a565b600080826012036129fc57839150506102c8565b8260121115612a2857506012829003612a1681600a6136f9565b612a209085613719565b9150506102c8565b507fffffffffffffffffffffffffffffffffffffffffffffffffffffffffffffffee8201612a5781600a6136f9565b612a2090856135c5565b5092915050565b600061057683670de0b6b3a764000084612f02565b60006105768383670de0b6b3a7640000612f02565b60008160000b600003612aa65750816102c8565b60008260000b1315612ace57612abd82600a613855565b612ac79084613719565b90506102c8565b60ff600083900316612a5781600a6136f9565b60008060128303612af557839150506102c8565b8260121115612b0f57506012829003612a5781600a6136f9565b507fffffffffffffffffffffffffffffffffffffffffffffffffffffffffffffffee8201612a1681600a6136f9565b6000816008811115612bac576040517f08c379a000000000000000000000000000000000000000000000000000000000815260206004820152600860248201527f4d41585f54494552000000000000000000000000000000000000000000000000604482015260640161074d565b82600003612bbd5760009150612a61565b50507fffffffffffffffffffffffffffffffffffffffffffffffffffffffffffffffff016020021c63ffffffff1690565b6000826008811115612c5c576040517f08c379a000000000000000000000000000000000000000000000000000000000815260206004820152600860248201527f4d41585f54494552000000000000000000000000000000000000000000000000604482015260640161074d565b505060209190910290811b63ffffffff90911b19919091161790565b60008183101561058c5781610576565b6000826008811115612cf6576040517f08c379a000000000000000000000000000000000000000000000000000000000815260206004820152600860248201527f4d41585f54494552000000000000000000000000000000000000000000000000604482015260640161074d565b6000855b85811015612d225763ffffffff6020820290811b199890981685891b17979150600101612cfa565b50959695505050505050565b600080821215612d9a576040517f08c379a000000000000000000000000000000000000000000000000000000000815260206004820181905260248201527f53616665436173743a2076616c7565206d75737420626520706f736974697665604482015260640161074d565b5090565b80516a636f6e736f6c652e6c6f67602083016000808483855afa5050505050565b60008060208484030490506115a261154e60208302850383612990565b61027a81604051602401612df09190613333565b604080517fffffffffffffffffffffffffffffffffffffffffffffffffffffffffffffffe08184030181529190526020810180517bffffffffffffffffffffffffffffffffffffffffffffffffffffffff167f41304fac00000000000000000000000000000000000000000000000000000000179052612d9e565b6040516024810183905260448101829052612efe90606401604080517fffffffffffffffffffffffffffffffffffffffffffffffffffffffffffffffe08184030181529190526020810180517bffffffffffffffffffffffffffffffffffffffffffffffffffffffff167f6c0f698000000000000000000000000000000000000000000000000000000000179052612d9e565b5050565b600080807fffffffffffffffffffffffffffffffffffffffffffffffffffffffffffffffff85870985870292508281108382030391505080600003612f5a57838281612f5057612f50613375565b0492505050610576565b808411612f6657600080fd5b60008486880960026001871981018816978890046003810283188082028403028082028403028082028403028082028403028082028403029081029092039091026000889003889004909101858311909403939093029303949094049190911702949350505050565b612fd7613864565b565b7f4e487b7100000000000000000000000000000000000000000000000000000000600052604160045260246000fd5b604051601f82017fffffffffffffffffffffffffffffffffffffffffffffffffffffffffffffffe016810167ffffffffffffffff8111828210171561304f5761304f612fd9565b604052919050565b600067ffffffffffffffff82111561307157613071612fd9565b5060051b60200190565b600082601f83011261308c57600080fd5b813560206130a161309c83613057565b613008565b82815260059290921b840181019181810190868411156130c057600080fd5b8286015b848110156130db57803583529183019183016130c4565b509695505050505050565b600082601f8301126130f757600080fd5b8135602061310761309c83613057565b82815260059290921b8401810191818101908684111561312657600080fd5b8286015b848110156130db57803567ffffffffffffffff81111561314a5760008081fd5b6131588986838b010161307b565b84525091830191830161312a565b6000806040838503121561317957600080fd5b82359150602083013567ffffffffffffffff81111561319757600080fd5b6131a3858286016130e6565b9150509250929050565b600081518084526020808501945080840160005b838110156131dd578151875295820195908201906001016131c1565b509495945050505050565b6040815260006131fb60408301856131ad565b828103602084015261106481856131ad565b60008060006060848603121561322257600080fd5b8335925060208401359150604084013567ffffffffffffffff81111561324757600080fd5b613253868287016130e6565b9150509250925092565b6000806040838503121561327057600080fd5b82359150602083013567ffffffffffffffff81111561328e57600080fd5b6131a38582860161307b565b6000602082840312156132ac57600080fd5b813567ffffffffffffffff8111156132c357600080fd5b610a688482850161307b565b6000815180845260005b818110156132f5576020818501810151868301820152016132d9565b5060006020828601015260207fffffffffffffffffffffffffffffffffffffffffffffffffffffffffffffffe0601f83011685010191505092915050565b60208152600061057660208301846132cf565b7f4e487b7100000000000000000000000000000000000000000000000000000000600052603260045260246000fd5b7f4e487b7100000000000000000000000000000000000000000000000000000000600052601260045260246000fd5b7f4e487b7100000000000000000000000000000000000000000000000000000000600052602160045260246000fd5b7f4e487b7100000000000000000000000000000000000000000000000000000000600052601160045260246000fd5b60007fffffffffffffffffffffffffffffffffffffffffffffffffffffffffffffffff8203613433576134336133d3565b5060010190565b815160009082906020808601845b8381101561346457815185529382019390820190600101613448565b50929695505050505050565b60006020828403121561348257600080fd5b5051919050565b60006020828403121561349b57600080fd5b815173ffffffffffffffffffffffffffffffffffffffff8116811461057657600080fd5b604080825283519082018190526000906020906060840190828701845b8281101561350e57815173ffffffffffffffffffffffffffffffffffffffff16845292840192908401906001016134dc565b5050508381038285015261352281866131ad565b9695505050505050565b6000602080838503121561353f57600080fd5b825167ffffffffffffffff81111561355657600080fd5b8301601f8101851361356757600080fd5b805161357561309c82613057565b81815260059190911b8201830190838101908783111561359457600080fd5b928401925b82841015610aff57835182529284019290840190613599565b808201808211156102c8576102c86133d3565b6000826135d4576135d4613375565b500490565b600181815b8085111561363257817fffffffffffffffffffffffffffffffffffffffffffffffffffffffffffffffff04821115613618576136186133d3565b8085161561362557918102915b93841c93908002906135de565b509250929050565b600082613649575060016102c8565b81613656575060006102c8565b816001811461366c576002811461367657613692565b60019150506102c8565b60ff841115613687576136876133d3565b50506001821b6102c8565b5060208310610133831016604e8410600b84101617156136b5575081810a6102c8565b6136bf83836135d9565b807fffffffffffffffffffffffffffffffffffffffffffffffffffffffffffffffff048211156136f1576136f16133d3565b029392505050565b6000610576838361363a565b60008261371457613714613375565b500690565b80820281158282048414176102c8576102c86133d3565b818103818111156102c8576102c86133d3565b60006020828403121561375557600080fd5b81516004811061057657600080fd5b73ffffffffffffffffffffffffffffffffffffffff83168152604060208201526000610a6860408301846131ad565b73ffffffffffffffffffffffffffffffffffffffff8416815282602082015260606040820152600061106460608301846131ad565b805169ffffffffffffffffffff8116811461130157600080fd5b600080600080600060a086880312156137fa57600080fd5b613803866137c8565b9450602086015193506040860151925060608601519150613826608087016137c8565b90509295509295909350565b60006020828403121561384457600080fd5b815160ff8116811461057657600080fd5b600061057660ff84168361363a565b7f4e487b7100000000000000000000000000000000000000000000000000000000600052605160045260246000fdfea26469706673582212207838c7a1c1982c3023b0a2e60bc6e26a1c9d511d7f57309069968529f4ede1a064736f6c63430008110033",
  "linkReferences": {},
  "deployedLinkReferences": {}
}