{
  "_format": "hh-sol-artifact-1",
  "contractName": "RainterpreterExpressionDeployer",
  "sourceName": "contracts/interpreter/shared/RainterpreterExpressionDeployer.sol",
  "abi": [
    {
      "inputs": [
        {
          "internalType": "address",
          "name": "interpreter_",
          "type": "address"
        }
      ],
      "stateMutability": "nonpayable",
      "type": "constructor"
    },
    {
      "inputs": [],
      "name": "WriteError",
      "type": "error"
    },
    {
      "anonymous": false,
      "inputs": [
        {
          "indexed": false,
          "internalType": "address",
          "name": "sender",
          "type": "address"
        },
        {
          "components": [
            {
              "internalType": "bytes[]",
              "name": "sources",
              "type": "bytes[]"
            },
            {
              "internalType": "uint256[]",
              "name": "constants",
              "type": "uint256[]"
            }
          ],
          "indexed": false,
          "internalType": "struct StateConfig",
          "name": "config",
          "type": "tuple"
        },
        {
          "indexed": false,
          "internalType": "address",
          "name": "expressionAddress",
          "type": "address"
        },
        {
          "indexed": false,
          "internalType": "uint256",
          "name": "contextScratch",
          "type": "uint256"
        }
      ],
      "name": "DeployExpression",
      "type": "event"
    },
    {
      "anonymous": false,
      "inputs": [
        {
          "indexed": false,
          "internalType": "address",
          "name": "sender",
          "type": "address"
        },
        {
          "indexed": false,
          "internalType": "address",
          "name": "interpreter",
          "type": "address"
        }
      ],
      "name": "ValidInterpreter",
      "type": "event"
    },
    {
      "inputs": [
        {
          "components": [
            {
              "internalType": "bytes[]",
              "name": "sources",
              "type": "bytes[]"
            },
            {
              "internalType": "uint256[]",
              "name": "constants",
              "type": "uint256[]"
            }
          ],
          "internalType": "struct StateConfig",
          "name": "config_",
          "type": "tuple"
        },
        {
          "internalType": "uint256[]",
          "name": "finalMinStacks_",
          "type": "uint256[]"
        }
      ],
      "name": "deployExpression",
      "outputs": [
        {
          "internalType": "address",
          "name": "",
          "type": "address"
        },
        {
          "internalType": "uint256",
          "name": "",
          "type": "uint256"
        }
      ],
      "stateMutability": "nonpayable",
      "type": "function"
    },
    {
      "inputs": [
        {
          "components": [
            {
              "internalType": "uint256",
              "name": "pointer",
              "type": "uint256"
            },
            {
              "internalType": "uint256",
              "name": "length",
              "type": "uint256"
            }
          ],
          "internalType": "struct StorageOpcodesRange",
          "name": "storageOpcodesRange_",
          "type": "tuple"
        },
        {
          "internalType": "bytes[]",
          "name": "sources_",
          "type": "bytes[]"
        },
        {
          "internalType": "uint256",
          "name": "constantsLength_",
          "type": "uint256"
        },
        {
          "internalType": "uint256[]",
          "name": "finalStacks_",
          "type": "uint256[]"
        }
      ],
      "name": "ensureIntegrity",
      "outputs": [
        {
          "internalType": "uint256",
          "name": "scratch_",
          "type": "uint256"
        },
        {
          "internalType": "uint256",
          "name": "contextScratch_",
          "type": "uint256"
        },
        {
          "internalType": "uint256",
          "name": "stackLength_",
          "type": "uint256"
        }
      ],
      "stateMutability": "view",
      "type": "function"
    }
  ],
  "bytecode": "0x60806040523480156200001157600080fd5b5060405162002aa538038062002aa5833981016040819052620000349162000280565b6000816001600160a01b031663f933c72f6040518163ffffffff1660e01b8152600401600060405180830381865afa15801562000075573d6000803e3d6000fd5b505050506040513d6000823e601f3d908101601f191682016040526200009f9190810190620002ee565b9050620000b7816200021160201b620002231760201c565b6040518060a001604052806070815260200162002a356070913980519060200120818051906020012014620001225760405162461bcd60e51b815260206004820152600c60248201526b4241445f504f494e5445525360a01b60448201526064015b60405180910390fd5b60408051833f60208201819052916200015691016040516020818303038152906040526200021160201b620002231760201c565b7f2b4248b9be0943364b68e5a7bdb4cfe6218e70a4c4058d47104cdecff6f2ebb18114620001c75760405162461bcd60e51b815260206004820152601460248201527f4241445f494e5445525052455445525f48415348000000000000000000000000604482015260640162000119565b604080513381526001600160a01b03851660208201527ff37e8ef81084fa6f55ef06a1fee409bc7e4dc04c063ecb589e146bafcbd9cbcf910160405180910390a1505050620003e9565b6200025c81604051602401620002289190620003d4565b60408051601f198184030181529190526020810180516001600160e01b039081166305f3bfab60e11b179091526200025f16565b50565b80516a636f6e736f6c652e6c6f67602083016000808483855afa5050505050565b6000602082840312156200029357600080fd5b81516001600160a01b0381168114620002ab57600080fd5b9392505050565b634e487b7160e01b600052604160045260246000fd5b60005b83811015620002e5578181015183820152602001620002cb565b50506000910152565b6000602082840312156200030157600080fd5b81516001600160401b03808211156200031957600080fd5b818401915084601f8301126200032e57600080fd5b815181811115620003435762000343620002b2565b604051601f8201601f19908116603f011681019083821181831017156200036e576200036e620002b2565b816040528281528760208487010111156200038857600080fd5b6200039b836020830160208801620002c8565b979650505050505050565b60008151808452620003c0816020860160208601620002c8565b601f01601f19169290920160200192915050565b602081526000620002ab6020830184620003a6565b61263c80620003f96000396000f3fe608060405234801561001057600080fd5b50600436106100365760003560e01c80631ed061d91461003b578063e9108ddf14610065575b600080fd5b61004e610049366004611de2565b610093565b60405161005c929190611e99565b60405180910390f35b610078610073366004611eb2565b610151565b6040805193845260208401929092529082015260600161005c565b60008060008060006100c66040518060400160405280600081526020016000815250886000015189602001515189610151565b92509250925060006100f78484846040518060a0016040528060708152602001612597607091398c939291906102ac565b90506000610104826103d1565b90507f47e759e722a8d8ae1bd080ed88fada765f27e54cbb9dd0fa96e1cd35848ba7d1338a838760405161013b9493929190611ff2565b60405180910390a1989297509195505050505050565b60008060008060405180610120016040528088815260200189815260200187815260200160008152602001600081526020016000815260200160008152602001600081526020016101a0610436565b9052905060005b85518110156101f4576101e18160008884815181106101c8576101c86120a8565b602002602001015185610446909392919063ffffffff16565b50806101ec816120d4565b9150506101a7565b5060c081015160e082015160a0830151608084015161021291610516565b935093509350509450945094915050565b6102668160405160240161023791906120ed565b60408051601f198184030181529190526020810180516001600160e01b03166305f3bfab60e11b179052610523565b50565b6102668160405160240161027d91906120ed565b60408051601f198184030181529190526020810180516001600160e01b031663104c13eb60e21b179052610523565b602085810151516060910260800160005b8751518110156102fb576102ef886000015182815181106102e0576102e06120a8565b60200260200101515160200190565b909101906001016102bd565b506000816001600160401b0381111561031657610316611c03565b6040519080825280601f01601f191660200182016040528015610340576020820181803683370190505b5090506000610350825b60200190565b86815260208a8101519101915061036890829061054c565b888152602081018890526040019050606060005b8a51518110156103c2578a5180518290811061039a5761039a6120a8565b602002602001015191506103ae8288610573565b6103b883836105b5565b925060010161037c565b50919998505050505050505050565b6000806103fc836040516020016103e89190612100565b6040516020818303038152906040526105d5565b90508051602082016000f091506001600160a01b0382166104305760405163046a55db60e11b815260040160405180910390fd5b50919050565b606061044181610601565b905090565b83516020848102909101015180516000919081015b808210156104b657600080600484019350835161ffff8116915061ffff8160101c169250506104ad8982898c6101000151868151811061049d5761049d6120a8565b602002602001015163ffffffff16565b9650505061045b565b60808701516104c59086610516565b84111561050b5760405162461bcd60e51b815260206004820152600f60248201526e4d494e5f46494e414c5f535441434b60881b60448201526064015b60405180910390fd5b509295945050505050565b6020828203045b92915050565b80516a636f6e736f6c652e6c6f67602083016000808483855afa5050505050565b815260200190565b600061056c8261056684518661054490919063ffffffff16565b90610811565b9392505050565b815161ffff9061ffff1990840160028481019086015b828110156105ac5780518581166002028301518616908516178152600401610589565b50505050505050565b600061056c826105cf84518661054490919063ffffffff16565b90610829565b60608151826040516020016105eb92919061213c565b6040516020818303038152906040529050919050565b60606000604051806107200160405280610619603890565b6001600160401b03166001600160401b0316815260200161084b815260200161085a81526020016108b581526020016108ec8152602001610909815260200161096881526020016109978152602001610a4b8152602001610ab78152602001610ac78152602001610ad68152602001610ae58152602001610af48152602001610ac78152602001610b038152602001610b128152602001610b218152602001610b318152602001610b418152602001610b418152602001610b418152602001610b418152602001610b4d8152602001610b658152602001610b748152602001610b838152602001610b928152602001610ba18152602001610bb08152602001610bca8152602001610be78152602001610bb08152602001610bf68152602001610c058152602001610c148152602001610c238152602001610c338152602001610c438152602001610c538152602001610c638152602001610c738152602001610c838152602001610c938152602001610ca38152602001610cb38152602001610cc38152602001610cd38152602001610ce28152602001610cf18152602001610d008152602001610d0f8152602001610d1e8152602001610d2e8152602001610d3e8152602001610d4d8152602001610da3815250905060006107fb82610db2565b90506108078185610dff565b805b949350505050565b600061081d8284610e35565b8151602002830161056c565b600061084283835161083b61034a8690565b9190610e49565b8151830161056c565b60006108098483610e89610e95565b6080830151600090600780851691600386811c1691600587901c1690610881888786610ead565b608089015261089288838886610446565b5060808801516108a490899085610ecf565b608090980152509495945050505050565b60e0830151600090600884901c9060ff8516906108d3908383610edf565b60e08701526108e28685610f6a565b9695505050505050565b60008260038111156109005761090061218d565b50909392505050565b6000610923836109198685610f78565b8691906000610446565b821461095e5760405162461bcd60e51b815260206004820152600a6024820152691313d3d417d4d212519560b21b6044820152606401610502565b6108098483610f78565b6000600f80841690600485901c16825b8281101561050b5761098d8783876000610446565b9450600101610978565b600060018084169084901c816109fa5760808601516109b69085610516565b81106109f55760405162461bcd60e51b815260206004820152600e60248201526d13d3d097d4d51050d2d7d491505160921b6044820152606401610502565b610a41565b85604001518110610a415760405162461bcd60e51b815260206004820152601160248201527013d3d097d0d3d394d510539517d4915051607a1b6044820152606401610502565b6108e28685610f6a565b6020830151516000908310801590610a6e57506020808501519081015190510183105b610aad5760405162461bcd60e51b815260206004820152601060248201526f13d3d097d4d513d49051d157d491505160821b6044820152606401610502565b6108098483610f6a565b60006108098483610f8786610fb8565b60006108098483610fc8610e95565b6000610809848361103761109b565b600061080984836110aa61111c565b6000610809848361112d610e95565b6000610809848361115d610e95565b600061080984836111d961111c565b600061080984836112088661127e565b6000610809848361129c866112a6565b60006108098483610f6a565b6000610809610b5c8584610f78565b85906008610ecf565b600061080984836112b361109b565b600061080984836112bf610e95565b600061080984836112d5610e95565b600061080984836112eb61109b565b600061080984836112f761109b565b6000611bf9610bc185848387610fb8565b95945050505050565b600061080982611303610bde8660016121a3565b8792919061127e565b60006108098483611313610e95565b6000610809848361131d610e95565b6000610809848361132761109b565b60006108098483611330610e95565b6000610809848361133a86610fb8565b6000610809848361135786610fb8565b6000610809848361138886610fb8565b6000610809848361139e86610fb8565b600061080984836113aa86610fb8565b600061080984836113b686610fb8565b600061080984836113c286610fb8565b600061080984836113d886610fb8565b600061080984836113e786610fb8565b600061080984836113f386610fb8565b600061080984836113ff86610fb8565b6000610809848361140b61109b565b6000610809848361144b61109b565b600061080984836114be61109b565b6000610809848361153361109b565b6000610809848361157361109b565b600061080984836115b3866115e4565b600061080984836115f78661166b565b6000610809848361167e610e95565b6000601f831680610d8e5760405162461bcd60e51b815260206004820152600b60248201526a10905117d3d4115490539160aa1b6044820152606401610502565b610bc1610d9c868584610ead565b8690610f6a565b600061080984836116dd610e95565b80518190603814610dfa5760405162461bcd60e51b81526020600482015260126024820152710848288be88b29c829a9286be988a9c8ea8960731b6044820152606401610502565b919050565b604051825182516020808302860101831115610e1a57600080fd5b602081028301604052018352610e308282610e35565b505050565b6000602083019050610e30818385516116f5565b5b60208110610e69578251825260209283019290910190601f1901610e4a565b8015610e3057600019600882021c80835116811985511617835250505050565b600061056c838361171d565b6000610809610ea685856002610ead565b8590610f6a565b60008115610ec7576020820283039250610ec78484611889565b509092915050565b60208102820161056c84826118e2565b6000828260108210610f205760405162461bcd60e51b815260206004820152600a60248201526927a7a12fa1a7a62aa6a760b11b6044820152606401610502565b60108110610f5a5760405162461bcd60e51b81526020600482015260076024820152664f4f425f524f5760c81b6044820152606401610502565b60016010860285011b86176108e2565b6020810161051d83826118e2565b601f19810161051d8382611889565b600081604051602001610f9a91906121b6565b60408051601f19818403018152919052805160209091012092915050565b6000610bc1610d9c868685610ead565b6040516370a0823160e01b81526001600160a01b038281166004830152600091908416906370a08231906024015b602060405180830381865afa158015611013573d6000803e3d6000fd5b505050506040513d601f19601f8201168201806040525081019061056c91906121ec565b6000816001600160a01b03166318160ddd6040518163ffffffff1660e01b8152600401602060405180830381865afa158015611077573d6000803e3d6000fd5b505050506040513d601f19601f8201168201806040525081019061051d91906121ec565b6000610809610ea68585610f78565b60405163277166bf60e11b81526000906001600160a01b03851690634ee2cd7e906110db9086908690600401611e99565b602060405180830381865afa1580156110f8573d6000803e3d6000fd5b505050506040513d601f19601f8201168201806040525081019061080991906121ec565b6000610809610ea685856003610ead565b604051630981b24d60e41b8152600481018290526000906001600160a01b0384169063981b24d090602401610ff6565b6040516331a9108f60e11b8152600481018290526000906001600160a01b03841690636352211e90602401602060405180830381865afa1580156111a5573d6000803e3d6000fd5b505050506040513d601f19601f820116820180604052508101906111c99190612205565b6001600160a01b03169392505050565b604051627eeac760e11b81526000906001600160a01b0385169062fdd58e906110db9086908690600401611e99565b6040516313849cfd60e21b81526060906001600160a01b03851690634e1273f490611239908690869060040161222e565b600060405180830381865afa158015611256573d6000803e3d6000fd5b505050506040513d6000823e601f3d908101601f191682016040526108099190810190612284565b6000610bc1611294868660016002870201610ead565b869084610ecf565b8061026657600080fd5b6000610bc1858584610ead565b600061056c82846118f7565b6000610809826112cf85876118f7565b90611959565b6000610809826112e585876118f7565b9061196e565b600061056c8284611983565b600061056c82846119d2565b606060008411610ec75781610809565b600081831461056c565b600081831161056c565b6000811561051d565b600081831061056c565b600082820183811061134c5780610809565b600019949350505050565b6000826000036113695750600061051d565b8282028284828161137c5761137c612126565b040361134c5780610809565b600081831161139857600061056c565b50900390565b600061056c82846121a3565b600061056c8284612314565b600061056c828461240c565b60008183116113d1578161056c565b5090919050565b60008183106113d1578161056c565b600061056c8284612418565b600061056c828461242c565b600061056c8284612443565b6000816001600160a01b031663ec14b06e6040518163ffffffff1660e01b8152600401602060405180830381865afa158015611077573d6000803e3d6000fd5b6000816001600160a01b031663cd3293de6040518163ffffffff1660e01b8152600401602060405180830381865afa15801561148b573d6000803e3d6000fd5b505050506040513d601f19601f820116820180604052508101906114af9190612205565b6001600160a01b031692915050565b6000816001600160a01b031663f9020e336040518163ffffffff1660e01b8152600401602060405180830381865afa1580156114fe573d6000803e3d6000fd5b505050506040513d601f19601f820116820180604052508101906115229190612456565b600381111561051d5761051d61218d565b6000816001600160a01b031663fc0c546a6040518163ffffffff1660e01b8152600401602060405180830381865afa15801561148b573d6000803e3d6000fd5b6000816001600160a01b03166347e4bbb96040518163ffffffff1660e01b8152600401602060405180830381865afa158015611077573d6000803e3d6000fd5b604051632235a18160e21b81526000906001600160a01b038516906388d68604906110db9086908690600401612477565b6000610bc1610d9c868660028601610ead565b60405163caa0eb3b60e01b81526000906001600160a01b0386169063caa0eb3b9061162a9087908790879060040161249b565b602060405180830381865afa158015611647573d6000803e3d6000fd5b505050506040513d601f19601f82011682018060405250810190610bc191906121ec565b6000610bc1610d9c868660038601610ead565b60008060015b600881116116d55760006116988683611a11565b905060006116a68684611a11565b905060006116b48383611388565b90506116c4856001860383611a59565b945050600190920191506116849050565b509392505050565b60006108098385600f16600487901c600f1685611a98565b8060200283015b808410156117175783518352602093840193909201916116fc565b50505050565b6000806000846001600160a01b031663feaf968c6040518163ffffffff1660e01b815260040160a060405180830381865afa158015611760573d6000803e3d6000fd5b505050506040513d601f19601f8201168201806040525081019061178491906124dc565b50935050925050600082136117cc5760405162461bcd60e51b815260206004820152600e60248201526d4d494e5f424153455f505249434560901b6044820152606401610502565b836117d78242612443565b106118125760405162461bcd60e51b815260206004820152600b60248201526a5354414c455f505249434560a81b6044820152606401610502565b610bc1856001600160a01b031663313ce5676040518163ffffffff1660e01b8152600401602060405180830381865afa158015611853573d6000803e3d6000fd5b505050506040513d601f19601f82011682018060405250810190611877919061252c565b60ff1661188384611af4565b906118f7565b816080015181101580156118a057508160a0015181105b6118de5760405162461bcd60e51b815260206004820152600f60248201526e535441434b5f554e444552464c4f5760881b6044820152606401610502565b5050565b8160a001518111156118de5760a09190910152565b6000808260120361190b578391505061051d565b82601211156119375750601282900361192581600a61240c565b61192f908561242c565b91505061051d565b50601119820161194881600a61240c565b61192f9085612314565b5092915050565b600061056c83670de0b6b3a764000084611b4a565b600061056c8383670de0b6b3a7640000611b4a565b60008160000b60000361199757508161051d565b60008260000b13156119bf576119ae82600a61254f565b6119b8908461242c565b905061051d565b60ff60008390031661194881600a61240c565b600080601283036119e6578391505061051d565b8260121115611a005750601282900361194881600a61240c565b50601119820161192581600a61240c565b6000816008811115611a355760405162461bcd60e51b81526004016105029061255e565b82600003611a465760009150611952565b5050600019016020021c63ffffffff1690565b6000826008811115611a7d5760405162461bcd60e51b81526004016105029061255e565b505063ffffffff602090920291821b199290921691901b1790565b6000826008811115611abc5760405162461bcd60e51b81526004016105029061255e565b6000855b85811015611ae85763ffffffff6020820290811b199890981685891b17979150600101611ac0565b50959695505050505050565b600080821215611b465760405162461bcd60e51b815260206004820181905260248201527f53616665436173743a2076616c7565206d75737420626520706f7369746976656044820152606401610502565b5090565b6000808060001985870985870292508281108382030391505080600003611b8457838281611b7a57611b7a612126565b049250505061056c565b808411611b9057600080fd5b60008486880960026001871981018816978890046003810283188082028403028082028403028082028403028082028403028082028403029081029092039091026000889003889004909101858311909403939093029303949094049190911702949350505050565b611c01612580565b565b634e487b7160e01b600052604160045260246000fd5b604080519081016001600160401b0381118282101715611c3b57611c3b611c03565b60405290565b604051601f8201601f191681016001600160401b0381118282101715611c6957611c69611c03565b604052919050565b60006001600160401b03821115611c8a57611c8a611c03565b5060051b60200190565b6000601f8381840112611ca657600080fd5b82356020611cbb611cb683611c71565b611c41565b82815260059290921b85018101918181019087841115611cda57600080fd5b8287015b84811015611d705780356001600160401b0380821115611cfe5760008081fd5b818a0191508a603f830112611d135760008081fd5b85820135604082821115611d2957611d29611c03565b611d3a828b01601f19168901611c41565b92508183528c81838601011115611d515760008081fd5b8181850189850137506000908201870152845250918301918301611cde565b50979650505050505050565b600082601f830112611d8d57600080fd5b81356020611d9d611cb683611c71565b82815260059290921b84018101918181019086841115611dbc57600080fd5b8286015b84811015611dd75780358352918301918301611dc0565b509695505050505050565b60008060408385031215611df557600080fd5b82356001600160401b0380821115611e0c57600080fd5b9084019060408287031215611e2057600080fd5b611e28611c19565b823582811115611e3757600080fd5b611e4388828601611c94565b825250602083013582811115611e5857600080fd5b611e6488828601611d7c565b602083015250809450506020850135915080821115611e8257600080fd5b50611e8f85828601611d7c565b9150509250929050565b6001600160a01b03929092168252602082015260400190565b60008060008084860360a0811215611ec957600080fd5b6040811215611ed757600080fd5b50604051604081016001600160401b038282108183111715611efb57611efb611c03565b8160405287358352602088013560208401528296506040880135925080831115611f2457600080fd5b611f3089848a01611c94565b9550606088013594506080880135925080831115611f4d57600080fd5b5050611f5b87828801611d7c565b91505092959194509250565b60005b83811015611f82578181015183820152602001611f6a565b50506000910152565b60008151808452611fa3816020860160208601611f67565b601f01601f19169290920160200192915050565b600081518084526020808501945080840160005b83811015611fe757815187529582019590820190600101611fcb565b509495945050505050565b60018060a01b03851681526000602060808184015260c0830186516040608086015281815180845260e08701915060e08160051b8801019350848301925060005b818110156120615760df1988860301835261204f858551611f8b565b94509285019291850191600101612033565b5050505090860151838203607f190160a0850152906120808183611fb7565b9250505061209960408301856001600160a01b03169052565b82606083015295945050505050565b634e487b7160e01b600052603260045260246000fd5b634e487b7160e01b600052601160045260246000fd5b6000600182016120e6576120e66120be565b5060010190565b60208152600061056c6020830184611f8b565b6000815260008251612119816001850160208701611f67565b9190910160010192915050565b634e487b7160e01b600052601260045260246000fd5b606360f81b815260e083901b6001600160e01b03191660018201526880600e6000396000f360b81b6005820152815160009061217f81600e850160208701611f67565b91909101600e019392505050565b634e487b7160e01b600052602160045260246000fd5b8082018082111561051d5761051d6120be565b815160009082906020808601845b838110156121e0578151855293820193908201906001016121c4565b50929695505050505050565b6000602082840312156121fe57600080fd5b5051919050565b60006020828403121561221757600080fd5b81516001600160a01b038116811461056c57600080fd5b604080825283519082018190526000906020906060840190828701845b828110156122705781516001600160a01b03168452928401929084019060010161224b565b505050838103828501526108e28186611fb7565b6000602080838503121561229757600080fd5b82516001600160401b038111156122ad57600080fd5b8301601f810185136122be57600080fd5b80516122cc611cb682611c71565b81815260059190911b820183019083810190878311156122eb57600080fd5b928401925b82841015612309578351825292840192908401906122f0565b979650505050505050565b60008261232357612323612126565b500490565b600181815b80851115612363578160001904821115612349576123496120be565b8085161561235657918102915b93841c939080029061232d565b509250929050565b60008261237a5750600161051d565b816123875750600061051d565b816001811461239d57600281146123a7576123c3565b600191505061051d565b60ff8411156123b8576123b86120be565b50506001821b61051d565b5060208310610133831016604e8410600b84101617156123e6575081810a61051d565b6123f08383612328565b8060001904821115612404576124046120be565b029392505050565b600061056c838361236b565b60008261242757612427612126565b500690565b808202811582820484141761051d5761051d6120be565b8181038181111561051d5761051d6120be565b60006020828403121561246857600080fd5b81516004811061056c57600080fd5b6001600160a01b038316815260406020820181905260009061080990830184611fb7565b60018060a01b0384168152826020820152606060408201526000610bc16060830184611fb7565b805169ffffffffffffffffffff81168114610dfa57600080fd5b600080600080600060a086880312156124f457600080fd5b6124fd866124c2565b9450602086015193506040860151925060608601519150612520608087016124c2565b90509295509295909350565b60006020828403121561253e57600080fd5b815160ff8116811461056c57600080fd5b600061056c60ff84168361236b565b60208082526008908201526726a0ac2faa24a2a960c11b604082015260600190565b634e487b7160e01b600052605160045260246000fdfe081d082b088008d408f6094e098509a309b209c109cf09dd09eb09c109f90a070a150a240a330a410a4f0a5d0a6b0aee0afd0b0c0b1b0b2a0b390b820b940ba20bd40be20bf00bfe0c0d0c1c0c2b0c3a0c490c580c670c760c850c940ca30cb10cbf0ccd0cdb0ce90cf80d070d150d7fa26469706673582212201693e61b1f71b43d6c628c80d68cdf459723c6242d6f871641bb22308a7a9d2a64736f6c63430008110033081d082b088008d408f6094e098509a309b209c109cf09dd09eb09c109f90a070a150a240a330a410a4f0a5d0a6b0aee0afd0b0c0b1b0b2a0b390b820b940ba20bd40be20bf00bfe0c0d0c1c0c2b0c3a0c490c580c670c760c850c940ca30cb10cbf0ccd0cdb0ce90cf80d070d150d7f",
  "linkReferences": {},
  "deployedLinkReferences": {}
}