{
  "_format": "hh-sol-artifact-1",
  "contractName": "Rainterpreter",
  "sourceName": "contracts/interpreter/shared/Rainterpreter.sol",
  "abi": [
    {
      "inputs": [
        {
          "components": [
            {
              "internalType": "address",
              "name": "store",
              "type": "address"
            },
            {
              "internalType": "bytes",
              "name": "opMeta",
              "type": "bytes"
            }
          ],
          "internalType": "struct RainterpreterConfig",
          "name": "config_",
          "type": "tuple"
        }
      ],
      "stateMutability": "nonpayable",
      "type": "constructor"
    },
    {
      "inputs": [
        {
          "internalType": "uint256",
          "name": "dynamicLength",
          "type": "uint256"
        },
        {
          "internalType": "uint256",
          "name": "standardOpsLength",
          "type": "uint256"
        }
      ],
      "name": "BadDynamicLength",
      "type": "error"
    },
    {
      "inputs": [
        {
          "internalType": "uint256",
          "name": "_size",
          "type": "uint256"
        },
        {
          "internalType": "uint256",
          "name": "_start",
          "type": "uint256"
        },
        {
          "internalType": "uint256",
          "name": "_end",
          "type": "uint256"
        }
      ],
      "name": "InvalidCodeAtRange",
      "type": "error"
    },
    {
      "inputs": [
        {
          "internalType": "MemoryKVPtr",
          "name": "ptr",
          "type": "uint256"
        }
      ],
      "name": "InvalidPtr",
      "type": "error"
    },
    {
      "inputs": [
        {
          "internalType": "int256",
          "name": "price",
          "type": "int256"
        }
      ],
      "name": "NotPosIntPrice",
      "type": "error"
    },
    {
      "inputs": [
        {
          "internalType": "uint256",
          "name": "updatedAt",
          "type": "uint256"
        },
        {
          "internalType": "uint256",
          "name": "staleAfter",
          "type": "uint256"
        }
      ],
      "name": "StalePrice",
      "type": "error"
    },
    {
      "inputs": [
        {
          "internalType": "uint256",
          "name": "expectedLength",
          "type": "uint256"
        },
        {
          "internalType": "uint256",
          "name": "actualLength",
          "type": "uint256"
        }
      ],
      "name": "UnexpectedResultLength",
      "type": "error"
    },
    {
      "inputs": [
        {
          "internalType": "bytes32",
          "name": "actualBytecodeHash",
          "type": "bytes32"
        }
      ],
      "name": "UnexpectedStoreBytecodeHash",
      "type": "error"
    },
    {
      "anonymous": false,
      "inputs": [
        {
          "indexed": false,
          "internalType": "address",
          "name": "sender",
          "type": "address"
        },
        {
          "indexed": false,
          "internalType": "bytes",
          "name": "opMeta",
          "type": "bytes"
        }
      ],
      "name": "OpMeta",
      "type": "event"
    },
    {
      "anonymous": false,
      "inputs": [
        {
          "indexed": false,
          "internalType": "address",
          "name": "sender",
          "type": "address"
        },
        {
          "indexed": false,
          "internalType": "address",
          "name": "store",
          "type": "address"
        }
      ],
      "name": "ValidStore",
      "type": "event"
    },
    {
      "inputs": [
        {
          "internalType": "StateNamespace",
          "name": "namespace_",
          "type": "uint256"
        },
        {
          "internalType": "EncodedDispatch",
          "name": "dispatch_",
          "type": "uint256"
        },
        {
          "internalType": "uint256[][]",
          "name": "context_",
          "type": "uint256[][]"
        }
      ],
      "name": "eval",
      "outputs": [
        {
          "internalType": "uint256[]",
          "name": "",
          "type": "uint256[]"
        },
        {
          "internalType": "contract IInterpreterStoreV1",
          "name": "",
          "type": "address"
        },
        {
          "internalType": "uint256[]",
          "name": "",
          "type": "uint256[]"
        }
      ],
      "stateMutability": "view",
      "type": "function"
    },
    {
      "inputs": [],
      "name": "functionPointers",
      "outputs": [
        {
          "internalType": "bytes",
          "name": "",
          "type": "bytes"
        }
      ],
      "stateMutability": "view",
      "type": "function"
    }
  ],
  "bytecode": "0x60a06040523480156200001157600080fd5b5060405162003aeb38038062003aeb8339810160408190526200003491620001b2565b8051803f907f10926b19a70c8b6df71ca718fa4bdcff59768b085c481d62831ab3cbbd446e128214620000815760405163cc0415fd60e01b81526004810183905260240160405180910390fd5b604080513381526001600160a01b03831660208201527fb3946c923894f714680e2732c86d98ced5cc63f0d877accbca966ecf8aadec9e910160405180910390a16001600160a01b03811660805260208301516040517f028376397afc0dbc57f76c743afccc66761fb994b7ca52c3c6a159fda773a2159162000107913391906200029d565b60405180910390a1505050620002e1565b634e487b7160e01b600052604160045260246000fd5b604080519081016001600160401b038111828210171562000153576200015362000118565b60405290565b604051601f8201601f191681016001600160401b038111828210171562000184576200018462000118565b604052919050565b60005b83811015620001a95781810151838201526020016200018f565b50506000910152565b60006020808385031215620001c657600080fd5b82516001600160401b0380821115620001de57600080fd5b9084019060408287031215620001f357600080fd5b620001fd6200012e565b82516001600160a01b03811681146200021557600080fd5b815282840151828111156200022957600080fd5b80840193505086601f8401126200023f57600080fd5b82518281111562000254576200025462000118565b62000268601f8201601f1916860162000159565b925080835287858286010111156200027f57600080fd5b62000290818685018787016200018c565b5092830152509392505050565b60018060a01b03831681526040602082015260008251806040840152620002cc8160608501602087016200018c565b601f01601f1916919091016060019392505050565b6080516137e8620003036000396000818160d1015261016001526137e86000f3fe608060405234801561001057600080fd5b50600436106100365760003560e01c8063385e37fe1461003b578063f933c72f14610066575b600080fd5b61004e61004936600461305a565b61007b565b60405161005d939291906131b7565b60405180910390f35b61006e6101a2565b60405161005d919061325c565b6060600081602085901c60ff601087901c8116908716846100a361009e856101f2565b610226565b6000604082015290506100b58a6104b9565b606082015273ffffffffffffffffffffffffffffffffffffffff7f000000000000000000000000000000000000000000000000000000000000000016608082015260a08101889052805160009061010f9083908690610531565b8251909150602090820304600061015a6101298387610587565b7fffffffffffffffffffffffffffffffffffffffffffffffffffffffffffffffe06020820286030180519181529091565b915050807f000000000000000000000000000000000000000000000000000000000000000061018c866040015161059d565b9950995099505050505050505093509350939050565b6040805160008082526020820190925260609190816101d2565b612fae8152602001906001900390816101bc5790505b5090506101ec6101e76101e48361062d565b90565b610880565b91505090565b60606102208260017fffffffffffffffffffffffffffffffffffffffffffffffffffffffffffffffff610910565b92915050565b61027c6040518060e0016040528060008152602001600081526020016000815260200160008152602001600073ffffffffffffffffffffffffffffffffffffffff16815260200160608152602001606081525090565b6102d26040518060e0016040528060008152602001600081526020016000815260200160008152602001600073ffffffffffffffffffffffffffffffffffffffff16815260200160608152602001606081525090565b60408051600080825260208201909252906102fd565b60608152602001906001900390816102e85790505b5060a08201526000610310845b60200190565b90506000610346610341837fffffffffffffffffffffffffffffffffffffffffffffffffffffffffffffffe0015190565b830190565b9050602082019150600061037a837fffffffffffffffffffffffffffffffffffffffffffffffffffffffffffffffe0015190565b905060008167ffffffffffffffff81111561039757610397612fb8565b6040519080825280602002602001820160405280156103c0578160200160208202803683370190505b506020808201875285810190870181905294519091506103e290602002850190565b9350600084815b8582101561040e5761040461030a6103ff845190565b840190565b91506001016103e9565b8067ffffffffffffffff81111561042757610427612fb8565b60405190808252806020026020018201604052801561045a57816020015b60608152602001906001900390816104455790505b5060c08901525b858710156104ab57868860c0015184815181106104805761048061326f565b602002602001018190525061049e61030a610499895190565b890190565b9650600190920191610461565b509598975050505050505050565b6040517fffffffffffffffffffffffffffffffffffffffff0000000000000000000000003360601b166020820152603481018290526000906054015b604080517fffffffffffffffffffffffffffffffffffffffffffffffffffffffffffffffe0818403018152919052805160209091012092915050565b60c08301516020838102909101015180516000919081015b8082101561057a57600491909101805190919061ffff601082901c8116911661057188828885565b95505050610549565b83925050505b9392505050565b60008183106105965781610580565b5090919050565b606061ffff8216601083901c60008167ffffffffffffffff8111156105c4576105c4612fb8565b6040519080825280602002602001820160405280156105ed578160200160208202803683370190505b50905060208101602082510281015b8082101561062257845182526020808601519083015260409485015194909101906105fc565b509095945050505050565b60606000604051806107800160405280610645603b90565b67ffffffffffffffff168152610a016020820152610a0f6040820152610a656060820152610ab76080820152610b3560a0820152610b6160c0820152610bfa60e0820152610cc4610100820152610df9610120820152610e2e610140820152610e4c610160820152610ed4610180820152610ee36101a08201819052610ef16101c0830152610eff6101e0830152610f0d610200830152610220820152610f1b610240820152610f29610260820152610f37610280820152610f466102a0820152610f556102c0820152610f636102e0820152610f71610300820152610fe9610320820152610ff86103408201526110076103608201526110166103808201526110256103a08201526110346103c082015261107d6103e082015261108f61040082015261109d6104208201526110cf6104408201526110dd6104608201526110eb6104808201526110f96104a08201526111086104c08201526111176104e08201526111266105008201526111356105208201526111446105408201526111536105608201526111626105808201526111716105a08201526111806105c082015261118f6105e082015261119e6106008201526111ac6106208201526111ba6106408201526111c86106608201526111d66106808201526111e46106a08201526111f26106c08201526112006106e082015261120f61070082015261121e61072082015261122c6107408201526112a3610760909101529050600061086a826112b2565b90506108768185611301565b805b949350505050565b60606000825160020267ffffffffffffffff8111156108a1576108a1612fb8565b6040519080825280601f01601f1916602001820160405280156108cb576020820181803683370190505b50905061ffff801990506020840160208551028101600284015b8183101561090557805183519085161781526020909201916002016108e5565b509295945050505050565b6060833b6000819003610933575050604080516020810190915260008152610580565b80841115610951575050604080516020810190915260008152610580565b838310156109a1576040517f2c4a89fa0000000000000000000000000000000000000000000000000000000081526004810182905260248101859052604481018490526064015b60405180910390fd5b83830384820360008282106109b657826109b8565b815b60408051603f83017fffffffffffffffffffffffffffffffffffffffffffffffffffffffffffffffe0168101909152818152955090508087602087018a3c505050509392505050565b600061087882611337611343565b8251600090600f84811691600486901c90911690600886901c9060208402860388526000610a3e898489610531565b9050610a516020850282038a51866113af565b508751975250602002909401949350505050565b60006108788460a00151600885901c81518110610a8457610a8461326f565b602002602001015160ff851681518110610aa057610aa061326f565b6020026020010151836113d790919063ffffffff16565b6000806000610ae8847fffffffffffffffffffffffffffffffffffffffffffffffffffffffffffffffe00180519091565b9150915061057a8660a001518681518110610b0557610b0561326f565b60200260200101518281518110610b1e57610b1e61326f565b6020026020010151836113df90919063ffffffff16565b600080836003811115610b4a57610b4a6132cd565b9050610b578584836113e3565b5091949350505050565b600060ff831660018101600481901b851783610b9f867fffffffffffffffffffffffffffffffffffffffffffffffffffffffffffffffe00180519091565b90965090505b8015610bee57610bb6888388610a0f565b9550610be4867fffffffffffffffffffffffffffffffffffffffffffffffffffffffffffffffe00180519091565b9096509050610ba5565b50939695505050505050565b6000600f83811690600485901c811690600886901c16600c86901c808201855b8960a001518581518110610c3057610c3061326f565b6020026020010151518110156104ab5760005b84811015610ca057610c968b60a0015182880181518110610c6657610c6661326f565b60200260200101518381518110610c7f57610c7f61326f565b60200260200101518a6113d790919063ffffffff16565b9850600101610c43565b50600886901b600484901b178217610cb98b828b610a0f565b985050600101610c1a565b600080610cf3837fffffffffffffffffffffffffffffffffffffffffffffffffffffffffffffffe00180519091565b60408701519194509150600090610d0a9083611505565b9050600081600003610dda57608087015160608801516040517f669e48aa00000000000000000000000000000000000000000000000000000000815273ffffffffffffffffffffffffffffffffffffffff9092169163669e48aa91610d7c918790600401918252602082015260400190565b602060405180830381865afa158015610d99573d6000803e3d6000fd5b505050506040513d601f19601f82011682018060405250810190610dbd91906132fc565b6040880151909150610dd090848361152e565b6040880152610de6565b610de382611587565b90505b808552602085015b979650505050505050565b6000600c83901c610fff8416825b8281101561090557610e1a878387610a0f565b945080610e2681613344565b915050610e07565b60018281166020908102949094015192901c83029091015181520190565b6000806000610e7d847fffffffffffffffffffffffffffffffffffffffffffffffffffffffffffffffe00180519091565b9094509050610eae847fffffffffffffffffffffffffffffffffffffffffffffffffffffffffffffffe00180519091565b60408801519195509250610ec390838361152e565b604087015250829150509392505050565b6000610878826115ce856115e1565b60006108788261162e611343565b6000610878826116c3611734565b60006108788261177361180f565b6000610878826118a1611343565b6000610878826118f7611343565b6000610878826119a661180f565b600061087882611a0385611abd565b600061087882611b7985611b86565b438152600060208201610878565b428152600060208201610878565b6000806000610fa2847fffffffffffffffffffffffffffffffffffffffffffffffffffffffffffffffe00180519091565b909250905063ffffffff610dee83828416602085901c8416604086901c8516606087901c8616608088901c871660a089901c881660c08a901c891660e08b901c611bbf8b16565b600061087882611bf585611c02565b600061087882611c3885611c51565b600061087882611cb385611c51565b600061087882611ccc85611c02565b600061087882611cd985611c02565b6000602083028203805b8381101561106e576000611050825190565b90508015611065578252506020019050610580565b5060200161103e565b50602081015b95945050505050565b600061087882611ce660018601611abd565b600061087882611cf6611343565b6000602083028203805b8381101561106e5780516000036110c75750600081526020019050610580565b6020016110a7565b600061087882611cfa611343565b600061087882611cfe611734565b600061087882611d02611343565b600061087882611d0685611d41565b600061087882611d8885611d41565b600061087882611db985611d41565b600061087882611dcf85611d41565b600061087882611ddb85611d41565b600061087882611de785611d41565b600061087882611df385611d41565b60006108788261058785611d41565b600061087882611e0285611d41565b600061087882611e0e85611d41565b600061087882611e1a85611d41565b600061087882611e26611ee8565b600061087882611fa1611734565b600061087882611fee611734565b60006108788261207b611734565b6000610878826120fd611734565b60006108788261214a611734565b60006108788261219761180f565b6000610878826121f68561224d565b6000610878826122d785612371565b60006108788261243a611343565b600060ff8316600884901c600316600a85901c83806112788786602081029091037fffffffffffffffffffffffffffffffffffffffffffffffffffffffffffffffe00180519181529091565b9150915061129661128b84868585612499565b825b90815260200190565b9998505050505050505050565b6000610878826125e885611c51565b80518190603b146112fc5780516040517fc8b569010000000000000000000000000000000000000000000000000000000081526004810191909152603b6024820152604401610998565b919050565b60405182518251602080830286010183111561131c57600080fd5b6020810283016040520183526113328282612600565b505050565b60006105808383612614565b7fffffffffffffffffffffffffffffffffffffffffffffffffffffffffffffffc0820180517fffffffffffffffffffffffffffffffffffffffffffffffffffffffffffffffe0909301805190936000929091906113a4838363ffffffff8816565b905250929392505050565b8060200283015b808410156113d15783518352602093840193909201916113b6565b50505050565b815260200190565b9052565b600060038260038111156113f9576113f96132cd565b036114425760005b8460c001515181101561143c576114348560c0015182815181106114275761142761326f565b60200260200101516127a0565b600101611401565b506114fd565b6000826003811115611456576114566132cd565b0361146757835161143c908461282f565b600182600381111561147b5761147b6132cd565b036114bd576114b86114b36101e486602001517fffffffffffffffffffffffffffffffffffffffffffffffffffffffffffffffe00190565b61284c565b6114fd565b60005b8460a00151518110156114fb576114f38560a0015182815181106114e6576114e661326f565b602002602001015161284c565b6001016114c0565b505b509092915050565b61ffff828116905b81156115275781518314611527576040820151915061150d565b5092915050565b60008061153b8585611505565b905061ffff81156115515783602083015261157d565b60405191506060820160405284825283602083015280861660408301528160028760101c0160101b1795505b5093949350505050565b6000816000036115c6576040517f295cd22200000000000000000000000000000000000000000000000000000000815260048101839052602401610998565b506020015190565b6000816040516020016104f5919061337c565b7fffffffffffffffffffffffffffffffffffffffffffffffffffffffffffffffe06020820284030180518282526000916000611620828763ffffffff16565b9050610dee8161128d858582565b6040517f70a0823100000000000000000000000000000000000000000000000000000000815273ffffffffffffffffffffffffffffffffffffffff8281166004830152600091908416906370a08231906024015b602060405180830381865afa15801561169f573d6000803e3d6000fd5b505050506040513d601f19601f8201168201806040525081019061058091906132fc565b60008173ffffffffffffffffffffffffffffffffffffffff166318160ddd6040518163ffffffff1660e01b8152600401602060405180830381865afa158015611710573d6000803e3d6000fd5b505050506040513d601f19601f8201168201806040525081019061022091906132fc565b7fffffffffffffffffffffffffffffffffffffffffffffffffffffffffffffffe0820180516000916117698263ffffffff8616565b9052509192915050565b6040517f4ee2cd7e00000000000000000000000000000000000000000000000000000000815273ffffffffffffffffffffffffffffffffffffffff83811660048301526024820183905260009190851690634ee2cd7e906044015b602060405180830381865afa1580156117eb573d6000803e3d6000fd5b505050506040513d601f19601f8201168201806040525081019061087891906132fc565b7fffffffffffffffffffffffffffffffffffffffffffffffffffffffffffffffa0820180517fffffffffffffffffffffffffffffffffffffffffffffffffffffffffffffffc0840180517fffffffffffffffffffffffffffffffffffffffffffffffffffffffffffffffe090950151909460009390919061189584848463ffffffff8a16565b90525093949350505050565b6040517f981b24d00000000000000000000000000000000000000000000000000000000081526004810182905260009073ffffffffffffffffffffffffffffffffffffffff84169063981b24d090602401611682565b6040517f6352211e0000000000000000000000000000000000000000000000000000000081526004810182905260009073ffffffffffffffffffffffffffffffffffffffff841690636352211e90602401602060405180830381865afa158015611965573d6000803e3d6000fd5b505050506040513d601f19601f8201168201806040525081019061198991906133b2565b73ffffffffffffffffffffffffffffffffffffffff169392505050565b6040517efdd58e00000000000000000000000000000000000000000000000000000000815273ffffffffffffffffffffffffffffffffffffffff8381166004830152602482018390526000919085169062fdd58e906044016117ce565b6040517f4e1273f400000000000000000000000000000000000000000000000000000000815260609073ffffffffffffffffffffffffffffffffffffffff851690634e1273f490611a5a90869086906004016133e8565b600060405180830381865afa158015611a77573d6000803e3d6000fd5b505050506040513d6000823e601f3d9081017fffffffffffffffffffffffffffffffffffffffffffffffffffffffffffffffe0168201604052610878919081019061344b565b600060208202840381611ad08285612900565b7fffffffffffffffffffffffffffffffffffffffffffffffffffffffffffffffe06020860284030180518682529192506000611b118383868b63ffffffff16565b905086815114611b5a5780516040517f231606ca000000000000000000000000000000000000000000000000000000008152610998918991600401918252602082015260400190565b81611b658282612600565b6020880281019a9950505050505050505050565b80611b8357600080fd5b50565b600060208202840381815b86831015611bb55782519150602083019250611bb0828763ffffffff16565b611b91565b9695505050505050565b968852602088019590955260408701939093526060860191909152608085015260a084015260c083015260e08201526101000190565b6000610580828483612958565b7fffffffffffffffffffffffffffffffffffffffffffffffffffffffffffffffe0830180516000916113a4848363ffffffff8816565b60006108788282611c4a868883612958565b91906129c7565b7fffffffffffffffffffffffffffffffffffffffffffffffffffffffffffffffc0830180517fffffffffffffffffffffffffffffffffffffffffffffffffffffffffffffffe09094018051909460009290919061189585848463ffffffff8a16565b60006108788282611cc5868883612958565b91906129dd565b60006105808284836129f3565b6000610580828483612a42565b6060600084116114fd5781610878565b1490565b1090565b1590565b1190565b6000828201838110611d185780610878565b7fffffffffffffffffffffffffffffffffffffffffffffffffffffffffffffffff949350505050565b60208181028403805160009282019083825b88841015611d7a5783519150611d6d83838a63ffffffff16565b9250602084019350611d53565b919093529695505050505050565b600082600003611d9a57506000610220565b82820282848281611dad57611dad61329e565b0403611d185780610878565b6000818311611dc9576000610580565b50900390565b600061058082846134d1565b600061058082846134e4565b60006105808284613618565b60008183116105965781610580565b60006105808284613624565b60006105808284613638565b6000610580828461364f565b6040517fd97b2e4800000000000000000000000000000000000000000000000000000000815273ffffffffffffffffffffffffffffffffffffffff84811660048301528381166024830152604482018390526000919086169063d97b2e4890606401602060405180830381865afa158015611ea5573d6000803e3d6000fd5b505050506040513d601f19601f82011682018060405250810190611ec991906132fc565b73ffffffffffffffffffffffffffffffffffffffff1695945050505050565b7fffffffffffffffffffffffffffffffffffffffffffffffffffffffffffffff80820180517fffffffffffffffffffffffffffffffffffffffffffffffffffffffffffffffa0840180517fffffffffffffffffffffffffffffffffffffffffffffffffffffffffffffffc08601517fffffffffffffffffffffffffffffffffffffffffffffffffffffffffffffffe090960151919560009491929091611f948585858563ffffffff8c16565b9052509495945050505050565b60008173ffffffffffffffffffffffffffffffffffffffff1663ec14b06e6040518163ffffffff1660e01b8152600401602060405180830381865afa158015611710573d6000803e3d6000fd5b60008173ffffffffffffffffffffffffffffffffffffffff1663cd3293de6040518163ffffffff1660e01b8152600401602060405180830381865afa15801561203b573d6000803e3d6000fd5b505050506040513d601f19601f8201168201806040525081019061205f91906133b2565b73ffffffffffffffffffffffffffffffffffffffff1692915050565b60008173ffffffffffffffffffffffffffffffffffffffff1663f9020e336040518163ffffffff1660e01b8152600401602060405180830381865afa1580156120c8573d6000803e3d6000fd5b505050506040513d601f19601f820116820180604052508101906120ec9190613662565b6003811115610220576102206132cd565b60008173ffffffffffffffffffffffffffffffffffffffff1663fc0c546a6040518163ffffffff1660e01b8152600401602060405180830381865afa15801561203b573d6000803e3d6000fd5b60008173ffffffffffffffffffffffffffffffffffffffff166347e4bbb96040518163ffffffff1660e01b8152600401602060405180830381865afa158015611710573d6000803e3d6000fd5b6040517fdb8554fc00000000000000000000000000000000000000000000000000000000815273ffffffffffffffffffffffffffffffffffffffff8381166004830152602482018390526000919085169063db8554fc906044016117ce565b6040517f88d6860400000000000000000000000000000000000000000000000000000000815260009073ffffffffffffffffffffffffffffffffffffffff8516906388d68604906117ce9086908690600401613683565b6020810283037fffffffffffffffffffffffffffffffffffffffffffffffffffffffffffffffe0018051828252600091828190506000806122b0837fffffffffffffffffffffffffffffffffffffffffffffffffffffffffffffffe00180519091565b915091506122ca6122c68287878c63ffffffff16565b8352565b5090979650505050505050565b6040517fcaa0eb3b00000000000000000000000000000000000000000000000000000000815260009073ffffffffffffffffffffffffffffffffffffffff86169063caa0eb3b90612330908790879087906004016136b2565b602060405180830381865afa15801561234d573d6000803e3d6000fd5b505050506040513d601f19601f8201168201806040525081019061107491906132fc565b6020810283037fffffffffffffffffffffffffffffffffffffffffffffffffffffffffffffffe001805182825260009182806123cf837fffffffffffffffffffffffffffffffffffffffffffffffffffffffffffffffe00180519091565b9150915060006123ff837fffffffffffffffffffffffffffffffffffffffffffffffffffffffffffffffe0015190565b90506122ca612414828488888d63ffffffff16565b7fffffffffffffffffffffffffffffffffffffffffffffffffffffffffffffffe0850152565b60008060015b600881116124915760006124548683612aa2565b905060006124628684612aa2565b905060006124708383611db9565b9050612480856001860383612b52565b945050600190920191506124409050565b509392505050565b805160009081908190819060015b600881116125da576000925082896124e057507fffffffffffffffffffffffffffffffffffffffffffffffffffffffffffffffff6124e4565b5060005b60005b83811015612598576125128982815181106125045761250461326f565b602002602001015184612aa2565b9550898611612563578a6125315761252a8683610587565b915061255a565b60018b036125435761252a8683611df3565b60028b148015612551575084155b1561255a578591505b60019450612590565b8b612590577fffffffffffffffffffffffffffffffffffffffffffffffffffffffffffffffff9150612598565b6001016124e7565b50836125c157507fffffffffffffffffffffffffffffffffffffffffffffffffffffffffffffffff5b6125cf866001840383612b52565b9550506001016124a7565b509298975050505050505050565b60006108788385600f16600487901c600f1685612bdc565b6000602083019050611332818385516113af565b60008060008473ffffffffffffffffffffffffffffffffffffffff1663feaf968c6040518163ffffffff1660e01b815260040160a060405180830381865afa158015612664573d6000803e3d6000fd5b505050506040513d601f19601f820116820180604052508101906126889190613701565b50935050925050600082136126cc576040517f3351e26f00000000000000000000000000000000000000000000000000000000815260048101839052602401610998565b836126d7824261364f565b1115612719576040517f2730eb480000000000000000000000000000000000000000000000000000000081526004810182905260248101859052604401610998565b6110748573ffffffffffffffffffffffffffffffffffffffff1663313ce5676040518163ffffffff1660e01b8152600401602060405180830381865afa158015612767573d6000803e3d6000fd5b505050506040513d601f19601f8201168201806040525081019061278b9190613751565b60ff16600061279985612c82565b9190612958565b611b83816040516024016127b4919061325c565b604080517fffffffffffffffffffffffffffffffffffffffffffffffffffffffffffffffe08184030181529190526020810180517bffffffffffffffffffffffffffffffffffffffffffffffffffffffff167f0be77f5600000000000000000000000000000000000000000000000000000000179052612cf2565b60008060208484030490506114fd6114b360208302850383612900565b61288a6040518060400160405280600381526020017f7e7e7e0000000000000000000000000000000000000000000000000000000000815250612d13565b60005b81518110156128c1576128b9818383815181106128ac576128ac61326f565b6020026020010151612da2565b60010161288d565b50611b836040518060400160405280600381526020017f7e7e7e0000000000000000000000000000000000000000000000000000000000815250612d13565b606060008267ffffffffffffffff81111561291d5761291d612fb8565b604051908082528060200260200182016040528015612946578160200160208202803683370190505b509050602081016124918582866113af565b6000808360120361296c5784915050610580565b83601211156129985750601283900361299061298982600a613618565b8690611d88565b915050610580565b507fffffffffffffffffffffffffffffffffffffffffffffffffffffffffffffffee8301612990858285612e39565b600061087884670de0b6b3a76400008585612e91565b60006108788484670de0b6b3a764000085612e91565b60008260000b600003612a07575082610580565b60008360000b1315612a2f57612a28612a2184600a613774565b8590611d88565b9050610580565b60ff600084900316612990858285612e39565b60008060128403612a565784915050610580565b8360121115612a7057836012039050612990858285612e39565b507fffffffffffffffffffffffffffffffffffffffffffffffffffffffffffffffee830161299061298982600a613618565b6000816008811115612b10576040517f08c379a000000000000000000000000000000000000000000000000000000000815260206004820152600860248201527f4d41585f544945520000000000000000000000000000000000000000000000006044820152606401610998565b82600003612b215760009150611527565b50507fffffffffffffffffffffffffffffffffffffffffffffffffffffffffffffffff016020021c63ffffffff1690565b6000826008811115612bc0576040517f08c379a000000000000000000000000000000000000000000000000000000000815260206004820152600860248201527f4d41585f544945520000000000000000000000000000000000000000000000006044820152606401610998565b505060209190910290811b63ffffffff90911b19919091161790565b6000826008811115612c4a576040517f08c379a000000000000000000000000000000000000000000000000000000000815260206004820152600860248201527f4d41585f544945520000000000000000000000000000000000000000000000006044820152606401610998565b6000855b85811015612c765763ffffffff6020820290811b199890981685891b17979150600101612c4e565b50959695505050505050565b600080821215612cee576040517f08c379a000000000000000000000000000000000000000000000000000000000815260206004820181905260248201527f53616665436173743a2076616c7565206d75737420626520706f7369746976656044820152606401610998565b5090565b80516a636f6e736f6c652e6c6f67602083016000808483855afa5050505050565b611b8381604051602401612d27919061325c565b604080517fffffffffffffffffffffffffffffffffffffffffffffffffffffffffffffffe08184030181529190526020810180517bffffffffffffffffffffffffffffffffffffffffffffffffffffffff167f41304fac00000000000000000000000000000000000000000000000000000000179052612cf2565b6040516024810183905260448101829052612e3590606401604080517fffffffffffffffffffffffffffffffffffffffffffffffffffffffffffffffe08184030181529190526020810180517bffffffffffffffffffffffffffffffffffffffffffffffffffffffff167ff666715a00000000000000000000000000000000000000000000000000000000179052612cf2565b5050565b600080612e4784600a613618565b90506000612e5582876134e4565b90506001846002811115612e6b57612e6b6132cd565b148015612e815750612e7d8282613638565b8614155b1561107457611bb56001826134d1565b600080612e9f868686612ee1565b90506001836002811115612eb557612eb56132cd565b148015612e81575060008480612ecd57612ecd61329e565b868809111561107457611bb56001826134d1565b600080807fffffffffffffffffffffffffffffffffffffffffffffffffffffffffffffffff85870985870292508281108382030391505080600003612f3957838281612f2f57612f2f61329e565b0492505050610580565b808411612f4557600080fd5b60008486880960026001871981018816978890046003810283188082028403028082028403028082028403028082028403028082028403029081029092039091026000889003889004909101858311909403939093029303949094049190911702949350505050565b612fb6613783565b565b7f4e487b7100000000000000000000000000000000000000000000000000000000600052604160045260246000fd5b604051601f82017fffffffffffffffffffffffffffffffffffffffffffffffffffffffffffffffe016810167ffffffffffffffff8111828210171561302e5761302e612fb8565b604052919050565b600067ffffffffffffffff82111561305057613050612fb8565b5060051b60200190565b60008060006060848603121561306f57600080fd5b833592506020808501359250604085013567ffffffffffffffff8082111561309657600080fd5b818701915087601f8301126130aa57600080fd5b81356130bd6130b882613036565b612fe7565b81815260059190911b8301840190848101908a8311156130dc57600080fd5b8585015b8381101561316b578035858111156130f85760008081fd5b8601603f81018d1361310a5760008081fd5b8781013561311a6130b882613036565b81815260059190911b820160400190898101908f83111561313b5760008081fd5b6040840193505b8284101561315b5783358252928a0192908a0190613142565b86525050509186019186016130e0565b508096505050505050509250925092565b600081518084526020808501945080840160005b838110156131ac57815187529582019590820190600101613190565b509495945050505050565b6060815260006131ca606083018661317c565b73ffffffffffffffffffffffffffffffffffffffff851660208401528281036040840152611bb5818561317c565b6000815180845260005b8181101561321e57602081850181015186830182015201613202565b5060006020828601015260207fffffffffffffffffffffffffffffffffffffffffffffffffffffffffffffffe0601f83011685010191505092915050565b60208152600061058060208301846131f8565b7f4e487b7100000000000000000000000000000000000000000000000000000000600052603260045260246000fd5b7f4e487b7100000000000000000000000000000000000000000000000000000000600052601260045260246000fd5b7f4e487b7100000000000000000000000000000000000000000000000000000000600052602160045260246000fd5b60006020828403121561330e57600080fd5b5051919050565b7f4e487b7100000000000000000000000000000000000000000000000000000000600052601160045260246000fd5b60007fffffffffffffffffffffffffffffffffffffffffffffffffffffffffffffffff820361337557613375613315565b5060010190565b815160009082906020808601845b838110156133a65781518552938201939082019060010161338a565b50929695505050505050565b6000602082840312156133c457600080fd5b815173ffffffffffffffffffffffffffffffffffffffff8116811461058057600080fd5b604080825283519082018190526000906020906060840190828701845b8281101561343757815173ffffffffffffffffffffffffffffffffffffffff1684529284019290840190600101613405565b50505083810382850152611bb5818661317c565b6000602080838503121561345e57600080fd5b825167ffffffffffffffff81111561347557600080fd5b8301601f8101851361348657600080fd5b80516134946130b882613036565b81815260059190911b820183019083810190878311156134b357600080fd5b928401925b82841015610dee578351825292840192908401906134b8565b8082018082111561022057610220613315565b6000826134f3576134f361329e565b500490565b600181815b8085111561355157817fffffffffffffffffffffffffffffffffffffffffffffffffffffffffffffffff0482111561353757613537613315565b8085161561354457918102915b93841c93908002906134fd565b509250929050565b60008261356857506001610220565b8161357557506000610220565b816001811461358b5760028114613595576135b1565b6001915050610220565b60ff8411156135a6576135a6613315565b50506001821b610220565b5060208310610133831016604e8410600b84101617156135d4575081810a610220565b6135de83836134f8565b807fffffffffffffffffffffffffffffffffffffffffffffffffffffffffffffffff0482111561361057613610613315565b029392505050565b60006105808383613559565b6000826136335761363361329e565b500690565b808202811582820484141761022057610220613315565b8181038181111561022057610220613315565b60006020828403121561367457600080fd5b81516004811061058057600080fd5b73ffffffffffffffffffffffffffffffffffffffff83168152604060208201526000610878604083018461317c565b73ffffffffffffffffffffffffffffffffffffffff84168152826020820152606060408201526000611074606083018461317c565b805169ffffffffffffffffffff811681146112fc57600080fd5b600080600080600060a0868803121561371957600080fd5b613722866136e7565b9450602086015193506040860151925060608601519150613745608087016136e7565b90509295509295909350565b60006020828403121561376357600080fd5b815160ff8116811461058057600080fd5b600061058060ff841683613559565b7f4e487b7100000000000000000000000000000000000000000000000000000000600052605160045260246000fdfea2646970667358221220de2d86642d06de85e2fbdc86a0b597290f5bf299759c1582687822a0961d9b6564736f6c63430008110033",
  "linkReferences": {},
  "deployedLinkReferences": {}
}