{
  "_format": "hh-sol-artifact-1",
  "contractName": "Rainterpreter",
  "sourceName": "contracts/interpreter/shared/Rainterpreter.sol",
  "abi": [
    {
      "inputs": [
        {
          "internalType": "uint256",
          "name": "_size",
          "type": "uint256"
        },
        {
          "internalType": "uint256",
          "name": "_start",
          "type": "uint256"
        },
        {
          "internalType": "uint256",
          "name": "_end",
          "type": "uint256"
        }
      ],
      "name": "InvalidCodeAtRange",
      "type": "error"
    },
    {
      "inputs": [
        {
          "internalType": "address",
          "name": "statePointer_",
          "type": "address"
        },
        {
          "internalType": "SourceIndex",
          "name": "entrypoint_",
          "type": "uint256"
        },
        {
          "internalType": "uint256[][]",
          "name": "context_",
          "type": "uint256[][]"
        }
      ],
      "name": "eval",
      "outputs": [
        {
          "internalType": "uint256[]",
          "name": "",
          "type": "uint256[]"
        }
      ],
      "stateMutability": "view",
      "type": "function"
    },
    {
      "inputs": [],
      "name": "functionPointers",
      "outputs": [
        {
          "internalType": "bytes",
          "name": "",
          "type": "bytes"
        }
      ],
      "stateMutability": "view",
      "type": "function"
    },
    {
      "inputs": [],
      "name": "storageOpcodesRange",
      "outputs": [
        {
          "components": [
            {
              "internalType": "uint256",
              "name": "pointer",
              "type": "uint256"
            },
            {
              "internalType": "uint256",
              "name": "length",
              "type": "uint256"
            }
          ],
          "internalType": "struct StorageOpcodesRange",
          "name": "",
          "type": "tuple"
        }
      ],
      "stateMutability": "pure",
      "type": "function"
    }
  ],
  "bytecode": "0x608060405234801561001057600080fd5b50612685806100206000396000f3fe608060405234801561001057600080fd5b50600436106100415760003560e01c806366ee835714610046578063e0419ae31461006f578063f933c72f146100a7575b600080fd5b610059610054366004612024565b6100bc565b6040516100669190612189565b60405180910390f35b604080518082018252600080825260209182018190528251808401845281815282018181528351918252519181019190915201610066565b6100af61010c565b60405161006691906121e2565b606060006100d16100cc86610129565b61013f565b60808101849052905060006100e6828661031c565b825190915060209082030460006100fd838361032e565b955050505050505b9392505050565b606061012461011f61011c610342565b90565b61034d565b905090565b60606101398260016000196103dc565b92915050565b610147611f70565b61014f611f70565b604080516000808252602082019092529061017a565b60608152602001906001900390816101655790505b506080820152600061018d845b60200190565b905060006101a261019d83610496565b830190565b905060208201915060006101b583610496565b90506000816001600160401b038111156101d1576101d1611fbb565b6040519080825280602002602001820160405280156101fa578160200160208202803683370190505b5060208082018752948501948601859052905061022161021985610496565b602002850190565b602001935061022f84610496565b604086015260208401935061024384610496565b6060860152600084815b8582101561027257610268610187610263845190565b840190565b915060010161024d565b806001600160401b0381111561028a5761028a611fbb565b6040519080825280602002602001820160405280156102bd57816020015b60608152602001906001900390816102a85790505b5060a08901525b8587101561030e57868860a0015184815181106102e3576102e36121f5565b60200260200101819052506103016101876102fc895190565b890190565b96506001909201916102c4565b509598975050505050505050565b8151600090610105908490849061049e565b60208102909103601f190180519181529091565b6060610124816104f1565b6060600082516002026001600160401b0381111561036d5761036d611fbb565b6040519080825280601f01601f191660200182016040528015610397576020820181803683370190505b50905061ffff801990506020840160208551028101600284015b818310156103d157805183519085161781526020909201916002016103b1565b509295945050505050565b6060833b60008190036103ff575050604080516020810190915260008152610105565b8084111561041d575050604080516020810190915260008152610105565b838310156104545760405163162544fd60e11b81526004810182905260248101859052604481018490526064015b60405180910390fd5b8383038482036000828210610469578261046b565b815b60408051603f8301601f19168101909152818152955090508087602087018a3c505050509392505050565b601f19015190565b60a08301516020838102909101015180516000919081015b808210156104e757600491909101805190919061ffff601082901c811691166104de88828885565b955050506104b6565b5091949350505050565b60606000604051806107200160405280610509603890565b6001600160401b031681526107286020820152610736604082015261078b60608201526107df608082015261080160a082015261083660c082015261086d60e082015261088b61010082015261089a6101208201526108a961014082018190526108b76101608301526108c56101808301526108d36101a08301526101c08201526108e16101e08201526108ef6102008201526108fd61022082015261090c61024082015261091b6102608201526109296102808201526109376102a08201526109456102c08201526109536102e08201526109b36103008201526109c26103208201526109d16103408201526109e06103608201526109ef6103808201526109fe6103a0820152610a476103c0820152610a596103e0820152610a67610400820152610a99610420820152610aa7610440820152610ab5610460820152610ac3610480820152610ad26104a0820152610ae16104c0820152610af06104e0820152610aff610500820152610b0e610520820152610b1d610540820152610b2c610560820152610b3b610580820152610b4a6105a0820152610b596105c0820152610b686105e0820152610b76610600820152610b84610620820152610b92610640820152610ba0610660820152610bae610680820152610bbd6106a0820152610bcc6106c0820152610bda6106e0820152610c17610700909101529050600061071282610c26565b905061071e8185610c73565b805b949350505050565b600061072082610ca9610cb5565b8251600090600784811691600386811c1691600587901c16906020840286038852600061076489848961049e565b90506107776020850282038a5186610ce5565b508751975250602002909401949350505050565b60006107208460800151600885901c815181106107aa576107aa6121f5565b602002602001015160ff80168516815181106107c8576107c86121f5565b602002602001015183610d0d90919063ffffffff16565b6000808360038111156107f4576107f4612221565b90506104e7858483610d15565b60008061080d83610e29565b90935090505b801561082d5761082485858561049e565b50508151610813565b50909392505050565b6000600f80841690600485901c16825b828110156103d15761085987838761049e565b9450806108658161224d565b915050610846565b60018281166020908102949094015192901c83029091015181520190565b81548152600060208201610720565b600061072082610e3385610e64565b600061072082610e93610cb5565b600061072082610f02610f66565b600061072082610f87610ff9565b600061072082611031610cb5565b600061072082611061610cb5565b6000610720826110dd610ff9565b60006107208261110c85611182565b60006107208261121e8561122b565b438152600060208201610720565b338152600060208201610720565b308152600060208201610720565b428152600060208201610720565b600080600061096184610e29565b909250905063ffffffff6109a883828416602085901c8416604086901c8516606087901c8616608088901c871660a089901c881660c08a901c891660e08b901c6112618b16565b979650505050505050565b600061072082611297856112a3565b6000610720826112bb856112d1565b6000610720826112f7856112d1565b60006107208261130d856112a3565b600061072082611319856112a3565b6000602083028203805b83811015610a38576000610a1a825190565b90508015610a2f578252506020019050610105565b50602001610a08565b50602081015b95945050505050565b60006107208261132560018601611182565b600061072082611335610cb5565b6000602083028203805b83811015610a38578051600003610a915750600081526020019050610105565b602001610a71565b60006107208261133f610cb5565b600061072082611349610f66565b600061072082611352610cb5565b60006107208261135c85611379565b6000610720826113bd85611379565b6000610720826113ee85611379565b60006107208261140485611379565b60006107208261141085611379565b60006107208261141c85611379565b60006107208261142885611379565b60006107208261143e85611379565b60006107208261144d85611379565b60006107208261145985611379565b60006107208261146585611379565b600061072082611471610f66565b6000610720826114b1610f66565b600061072082611524610f66565b600061072082611599610f66565b6000610720826115d9610f66565b6000610720826116198561164a565b6000610720826116968561170a565b60006107208261176b610cb5565b6000600783901c6003600585901c16601f85168380610bf9878461032e565b915091506100fd610c0c868685856117ca565b825b90815260200190565b6000610720826118bf856112d1565b80518190603814610c6e5760405162461bcd60e51b81526020600482015260126024820152710848288be88b29c829a9286be988a9c8ea8960731b604482015260640161044b565b919050565b604051825182516020808302860101831115610c8e57600080fd5b602081028301604052018352610ca482826118d7565b505050565b600061010583836118eb565b603f1982018051601f1990930180519093600092909190610cda838363ffffffff8816565b905250929392505050565b8060200283015b80841015610d07578351835260209384019390920191610cec565b50505050565b815260200190565b60006003826003811115610d2b57610d2b612221565b03610d7e5760005b8460a0015151811015610d7857610d668560a001518281518110610d5957610d596121f5565b6020026020010151611a57565b80610d708161224d565b915050610d33565b50610e21565b6000826003811115610d9257610d92612221565b03610da157610d788484611a9a565b6001826003811115610db557610db5612221565b03610dd757610dd2610dcd61011c8660200151611aaa565b611ab1565b610e21565b60005b846080015151811015610e1f57610e0d85608001518281518110610e0057610e006121f5565b6020026020010151611ab1565b80610e178161224d565b915050610dda565b505b509092915050565b601f190180519091565b600081604051602001610e469190612266565b60408051601f19818403018152919052805160209091012092915050565b60008080610e72868561032e565b915091506000610e85828763ffffffff16565b90506109a881610c0e858582565b6040516370a0823160e01b81526001600160a01b038281166004830152600091908416906370a08231906024015b602060405180830381865afa158015610ede573d6000803e3d6000fd5b505050506040513d601f19601f82011682018060405250810190610105919061229c565b6000816001600160a01b03166318160ddd6040518163ffffffff1660e01b8152600401602060405180830381865afa158015610f42573d6000803e3d6000fd5b505050506040513d601f19601f82011682018060405250810190610139919061229c565b601f1982018051600091610f7d8263ffffffff8616565b9052509192915050565b60405163277166bf60e11b81526000906001600160a01b03851690634ee2cd7e90610fb890869086906004016122b5565b602060405180830381865afa158015610fd5573d6000803e3d6000fd5b505050506040513d601f19601f82011682018060405250810190610720919061229c565b605f1982018051603f1984018051601f1990950151909460009390919061102584848463ffffffff8a16565b90525093949350505050565b604051630981b24d60e41b8152600481018290526000906001600160a01b0384169063981b24d090602401610ec1565b6040516331a9108f60e11b8152600481018290526000906001600160a01b03841690636352211e90602401602060405180830381865afa1580156110a9573d6000803e3d6000fd5b505050506040513d601f19601f820116820180604052508101906110cd91906122ce565b6001600160a01b03169392505050565b604051627eeac760e11b81526000906001600160a01b0385169062fdd58e90610fb890869086906004016122b5565b6040516313849cfd60e21b81526060906001600160a01b03851690634e1273f49061113d90869086906004016122eb565b600060405180830381865afa15801561115a573d6000803e3d6000fd5b505050506040513d6000823e601f3d908101601f19168201604052610720919081019061234b565b6000602082028403816111958285611b3b565b90506000806111a4848761032e565b9150915060006111b98383868b63ffffffff16565b9050868151146111ff5760405162461bcd60e51b81526020600482015260116024820152700848288bea48aa6aa98a8be988a9c8ea89607b1b604482015260640161044b565b8161120a82826118d7565b6020880281019a9950505050505050505050565b8061122857600080fd5b50565b6020810283038060005b85821015611258575080516020909101906112538163ffffffff8716565b611235565b50509392505050565b968852602088019590955260408701939093526060860191909152608085015260a084015260c083015260e08201526101000190565b60006101058284611b92565b601f1983018051600091610cda848363ffffffff8816565b6000610720826112cb8587611b92565b90611bf4565b603f1983018051601f199094018051909460009290919061102585848463ffffffff8a16565b6000610720826113078587611b92565b90611c09565b60006101058284611c1e565b60006101058284611c6d565b606060008411610e215781610720565b6000818314610105565b6000818311610105565b60008115610139565b6000818310610105565b600082820183811061136e5780610720565b600019949350505050565b60208181028403805191810191829060005b878310156113b1575081516113a4828263ffffffff8a16565b915060208301925061138b565b50909152509392505050565b6000826000036113cf57506000610139565b828202828482816113e2576113e261220b565b040361136e5780610720565b60008183116113fe576000610105565b50900390565b600061010582846123d0565b600061010582846123e3565b600061010582846124db565b60008183116114375781610105565b5090919050565b60008183106114375781610105565b600061010582846124e7565b600061010582846124fb565b60006101058284612512565b6000816001600160a01b031663ec14b06e6040518163ffffffff1660e01b8152600401602060405180830381865afa158015610f42573d6000803e3d6000fd5b6000816001600160a01b031663cd3293de6040518163ffffffff1660e01b8152600401602060405180830381865afa1580156114f1573d6000803e3d6000fd5b505050506040513d601f19601f8201168201806040525081019061151591906122ce565b6001600160a01b031692915050565b6000816001600160a01b031663f9020e336040518163ffffffff1660e01b8152600401602060405180830381865afa158015611564573d6000803e3d6000fd5b505050506040513d601f19601f820116820180604052508101906115889190612525565b600381111561013957610139612221565b6000816001600160a01b031663fc0c546a6040518163ffffffff1660e01b8152600401602060405180830381865afa1580156114f1573d6000803e3d6000fd5b6000816001600160a01b03166347e4bbb96040518163ffffffff1660e01b8152600401602060405180830381865afa158015610f42573d6000803e3d6000fd5b604051632235a18160e21b81526000906001600160a01b038516906388d6860490610fb89086908690600401612546565b60008080611658868561032e565b915091506116638190565b925060008061167185610e29565b9150915061168b6116878286868b63ffffffff16565b8352565b505050509392505050565b60405163caa0eb3b60e01b81526000906001600160a01b0386169063caa0eb3b906116c99087908790879060040161256a565b602060405180830381865afa1580156116e6573d6000803e3d6000fd5b505050506040513d601f19601f82011682018060405250810190610a3e919061229c565b60008080611718868561032e565b9150915060008061172e6117298490565b610e29565b91509150600061173d83610496565b905061175e611752828488888d63ffffffff16565b61175b85611aaa565b52565b5090979650505050505050565b60008060015b600881116117c25760006117858683611cac565b905060006117938684611cac565b905060006117a183836113ee565b90506117b1856001860383611cf4565b945050600190920191506117719050565b509392505050565b805160009081908190819060015b600881116118b1576000925082896117f357506000196117f7565b5060005b60005b8381101561188d57611825898281518110611817576118176121f5565b602002602001015184611cac565b9550898611611876578a6118445761183d868361143e565b915061186d565b60018b036118565761183d8683611d33565b60028b148015611864575084155b1561186d578591505b60019450611885565b8b61188557600019915061188d565b6001016117fa565b508361189857506000195b6118a6866001840383611cf4565b9550506001016117d8565b509298975050505050505050565b60006107208385600f16600487901c600f1685611d43565b6000602083019050610ca481838551610ce5565b6000806000846001600160a01b031663feaf968c6040518163ffffffff1660e01b815260040160a060405180830381865afa15801561192e573d6000803e3d6000fd5b505050506040513d601f19601f8201168201806040525081019061195291906125ab565b509350509250506000821361199a5760405162461bcd60e51b815260206004820152600e60248201526d4d494e5f424153455f505249434560901b604482015260640161044b565b836119a58242612512565b106119e05760405162461bcd60e51b815260206004820152600b60248201526a5354414c455f505249434560a81b604482015260640161044b565b610a3e856001600160a01b031663313ce5676040518163ffffffff1660e01b8152600401602060405180830381865afa158015611a21573d6000803e3d6000fd5b505050506040513d601f19601f82011682018060405250810190611a4591906125fb565b60ff16611a5184611d9f565b90611b92565b61122881604051602401611a6b91906121e2565b60408051601f198184030181529190526020810180516001600160e01b03166305f3bfab60e11b179052611df5565b6000610105836000015183611e16565b601f190190565b611ad5604051806040016040528060038152602001623f3f3f60e91b815250611e33565b60005b8151811015611b1657611b0481838381518110611af757611af76121f5565b6020026020010151611e76565b80611b0e8161224d565b915050611ad8565b50611228604051806040016040528060038152602001623f3f3f60e91b815250611e33565b60606000826001600160401b03811115611b5757611b57611fbb565b604051908082528060200260200182016040528015611b80578160200160208202803683370190505b509050602081016117c2858286610ce5565b60008082601203611ba65783915050610139565b8260121115611bd257506012829003611bc081600a6124db565b611bca90856124fb565b915050610139565b506011198201611be381600a6124db565b611bca90856123e3565b5092915050565b600061010583670de0b6b3a764000084611ec1565b60006101058383670de0b6b3a7640000611ec1565b60008160000b600003611c32575081610139565b60008260000b1315611c5a57611c4982600a61261e565b611c5390846124fb565b9050610139565b60ff600083900316611be381600a6124db565b60008060128303611c815783915050610139565b8260121115611c9b57506012829003611be381600a6124db565b506011198201611bc081600a6124db565b6000816008811115611cd05760405162461bcd60e51b815260040161044b9061262d565b82600003611ce15760009150611bed565b5050600019016020021c63ffffffff1690565b6000826008811115611d185760405162461bcd60e51b815260040161044b9061262d565b505063ffffffff602090920291821b199290921691901b1790565b6000818310156114375781610105565b6000826008811115611d675760405162461bcd60e51b815260040161044b9061262d565b6000855b85811015611d935763ffffffff6020820290811b199890981685891b17979150600101611d6b565b50959695505050505050565b600080821215611df15760405162461bcd60e51b815260206004820181905260248201527f53616665436173743a2076616c7565206d75737420626520706f736974697665604482015260640161044b565b5090565b80516a636f6e736f6c652e6c6f67602083016000808483855afa5050505050565b6000806020848403049050610e21610dcd60208302850383611b3b565b61122881604051602401611e4791906121e2565b60408051601f198184030181529190526020810180516001600160e01b031663104c13eb60e21b179052611df5565b6040516024810183905260448101829052611ebd9060640160408051601f198184030181529190526020810180516001600160e01b0316637b3338ad60e11b179052611df5565b5050565b6000808060001985870985870292508281108382030391505080600003611efb57838281611ef157611ef161220b565b0492505050610105565b808411611f0757600080fd5b60008486880960026001871981018816978890046003810283188082028403028082028403028082028403028082028403028082028403029081029092039091026000889003889004909101858311909403939093029303949094049190911702949350505050565b6040518060c001604052806000815260200160008152602001600081526020016000815260200160608152602001606081525090565b6001600160a01b038116811461122857600080fd5b634e487b7160e01b600052604160045260246000fd5b604051601f8201601f191681016001600160401b0381118282101715611ff957611ff9611fbb565b604052919050565b60006001600160401b0382111561201a5761201a611fbb565b5060051b60200190565b60008060006060848603121561203957600080fd5b833561204481611fa6565b9250602084810135925060408501356001600160401b038082111561206857600080fd5b818701915087601f83011261207c57600080fd5b813561208f61208a82612001565b611fd1565b81815260059190911b8301840190848101908a8311156120ae57600080fd5b8585015b8381101561213d578035858111156120ca5760008081fd5b8601603f81018d136120dc5760008081fd5b878101356120ec61208a82612001565b81815260059190911b820160400190898101908f83111561210d5760008081fd5b6040840193505b8284101561212d5783358252928a0192908a0190612114565b86525050509186019186016120b2565b508096505050505050509250925092565b600081518084526020808501945080840160005b8381101561217e57815187529582019590820190600101612162565b509495945050505050565b602081526000610105602083018461214e565b6000815180845260005b818110156121c2576020818501810151868301820152016121a6565b506000602082860101526020601f19601f83011685010191505092915050565b602081526000610105602083018461219c565b634e487b7160e01b600052603260045260246000fd5b634e487b7160e01b600052601260045260246000fd5b634e487b7160e01b600052602160045260246000fd5b634e487b7160e01b600052601160045260246000fd5b60006001820161225f5761225f612237565b5060010190565b815160009082906020808601845b8381101561229057815185529382019390820190600101612274565b50929695505050505050565b6000602082840312156122ae57600080fd5b5051919050565b6001600160a01b03929092168252602082015260400190565b6000602082840312156122e057600080fd5b815161010581611fa6565b604080825283519082018190526000906020906060840190828701845b8281101561232d5781516001600160a01b031684529284019290840190600101612308565b50505083810382850152612341818661214e565b9695505050505050565b6000602080838503121561235e57600080fd5b82516001600160401b0381111561237457600080fd5b8301601f8101851361238557600080fd5b805161239361208a82612001565b81815260059190911b820183019083810190878311156123b257600080fd5b928401925b828410156109a8578351825292840192908401906123b7565b8082018082111561013957610139612237565b6000826123f2576123f261220b565b500490565b600181815b8085111561243257816000190482111561241857612418612237565b8085161561242557918102915b93841c93908002906123fc565b509250929050565b60008261244957506001610139565b8161245657506000610139565b816001811461246c576002811461247657612492565b6001915050610139565b60ff84111561248757612487612237565b50506001821b610139565b5060208310610133831016604e8410600b84101617156124b5575081810a610139565b6124bf83836123f7565b80600019048211156124d3576124d3612237565b029392505050565b6000610105838361243a565b6000826124f6576124f661220b565b500690565b808202811582820484141761013957610139612237565b8181038181111561013957610139612237565b60006020828403121561253757600080fd5b81516004811061010557600080fd5b6001600160a01b03831681526040602082018190526000906107209083018461214e565b60018060a01b0384168152826020820152606060408201526000610a3e606083018461214e565b805169ffffffffffffffffffff81168114610c6e57600080fd5b600080600080600060a086880312156125c357600080fd5b6125cc86612591565b94506020860151935060408601519250606086015191506125ef60808701612591565b90509295509295909350565b60006020828403121561260d57600080fd5b815160ff8116811461010557600080fd5b600061010560ff84168361243a565b60208082526008908201526726a0ac2faa24a2a960c11b60408201526060019056fea2646970667358221220dbd156665c3db0f445b438c0ff42eee5e2919bdbbe0dedd3af9b031bcb8761ba64736f6c63430008110033",
  "linkReferences": {},
  "deployedLinkReferences": {}
}