{
  "_format": "hh-sol-artifact-1",
  "contractName": "RainterpreterExpressionDeployer",
  "sourceName": "contracts/interpreter/shared/RainterpreterExpressionDeployer.sol",
  "abi": [
    {
      "inputs": [
        {
          "internalType": "address",
          "name": "interpreter_",
          "type": "address"
        }
      ],
      "stateMutability": "nonpayable",
      "type": "constructor"
    },
    {
      "inputs": [
        {
          "internalType": "uint256",
          "name": "dynamicLength",
          "type": "uint256"
        },
        {
          "internalType": "uint256",
          "name": "standardOpsLength",
          "type": "uint256"
        }
      ],
      "name": "BadDynamicLength",
      "type": "error"
    },
    {
      "inputs": [
        {
          "internalType": "uint256",
          "name": "inputs",
          "type": "uint256"
        }
      ],
      "name": "DoWhileMaxInputs",
      "type": "error"
    },
    {
      "inputs": [
        {
          "internalType": "uint256",
          "name": "inputs",
          "type": "uint256"
        },
        {
          "internalType": "uint256",
          "name": "outputs",
          "type": "uint256"
        }
      ],
      "name": "InsufficientLoopOutputs",
      "type": "error"
    },
    {
      "inputs": [
        {
          "internalType": "uint256",
          "name": "minStackOutputs",
          "type": "uint256"
        },
        {
          "internalType": "uint256",
          "name": "actualStackOutputs",
          "type": "uint256"
        }
      ],
      "name": "MinFinalStack",
      "type": "error"
    },
    {
      "inputs": [],
      "name": "MinStackBottom",
      "type": "error"
    },
    {
      "inputs": [
        {
          "internalType": "uint256",
          "name": "expectedEntrypoints",
          "type": "uint256"
        },
        {
          "internalType": "uint256",
          "name": "actualEntrypoints",
          "type": "uint256"
        }
      ],
      "name": "MissingEntrypoint",
      "type": "error"
    },
    {
      "inputs": [
        {
          "internalType": "int256",
          "name": "price",
          "type": "int256"
        }
      ],
      "name": "NotPosIntPrice",
      "type": "error"
    },
    {
      "inputs": [
        {
          "internalType": "uint256",
          "name": "constantsLength",
          "type": "uint256"
        },
        {
          "internalType": "uint256",
          "name": "constantsRead",
          "type": "uint256"
        }
      ],
      "name": "OutOfBoundsConstantsRead",
      "type": "error"
    },
    {
      "inputs": [
        {
          "internalType": "uint256",
          "name": "stackTopIndex",
          "type": "uint256"
        },
        {
          "internalType": "uint256",
          "name": "stackRead",
          "type": "uint256"
        }
      ],
      "name": "OutOfBoundsStackRead",
      "type": "error"
    },
    {
      "inputs": [
        {
          "internalType": "uint256",
          "name": "stackHighwaterIndex",
          "type": "uint256"
        },
        {
          "internalType": "uint256",
          "name": "stackTopIndex",
          "type": "uint256"
        }
      ],
      "name": "StackPopUnderflow",
      "type": "error"
    },
    {
      "inputs": [
        {
          "internalType": "uint256",
          "name": "updatedAt",
          "type": "uint256"
        },
        {
          "internalType": "uint256",
          "name": "staleAfter",
          "type": "uint256"
        }
      ],
      "name": "StalePrice",
      "type": "error"
    },
    {
      "inputs": [
        {
          "internalType": "bytes",
          "name": "actualPointers",
          "type": "bytes"
        }
      ],
      "name": "UnexpectedPointers",
      "type": "error"
    },
    {
      "inputs": [],
      "name": "WriteError",
      "type": "error"
    },
    {
      "inputs": [],
      "name": "ZeroInputs",
      "type": "error"
    },
    {
      "anonymous": false,
      "inputs": [
        {
          "indexed": false,
          "internalType": "address",
          "name": "sender",
          "type": "address"
        },
        {
          "components": [
            {
              "internalType": "bytes[]",
              "name": "sources",
              "type": "bytes[]"
            },
            {
              "internalType": "uint256[]",
              "name": "constants",
              "type": "uint256[]"
            }
          ],
          "indexed": false,
          "internalType": "struct StateConfig",
          "name": "config",
          "type": "tuple"
        }
      ],
      "name": "ExpressionConfig",
      "type": "event"
    },
    {
      "anonymous": false,
      "inputs": [
        {
          "indexed": false,
          "internalType": "address",
          "name": "sender",
          "type": "address"
        },
        {
          "indexed": false,
          "internalType": "address",
          "name": "expression",
          "type": "address"
        }
      ],
      "name": "ExpressionDeployed",
      "type": "event"
    },
    {
      "anonymous": false,
      "inputs": [
        {
          "indexed": false,
          "internalType": "address",
          "name": "sender",
          "type": "address"
        },
        {
          "indexed": false,
          "internalType": "address",
          "name": "interpreter",
          "type": "address"
        }
      ],
      "name": "ValidInterpreter",
      "type": "event"
    },
    {
      "inputs": [
        {
          "components": [
            {
              "internalType": "bytes[]",
              "name": "sources",
              "type": "bytes[]"
            },
            {
              "internalType": "uint256[]",
              "name": "constants",
              "type": "uint256[]"
            }
          ],
          "internalType": "struct StateConfig",
          "name": "config_",
          "type": "tuple"
        },
        {
          "internalType": "uint256[]",
          "name": "minStackOutputs_",
          "type": "uint256[]"
        }
      ],
      "name": "deployExpression",
      "outputs": [
        {
          "internalType": "address",
          "name": "",
          "type": "address"
        }
      ],
      "stateMutability": "nonpayable",
      "type": "function"
    }
  ],
  "bytecode": "0x60806040523480156200001157600080fd5b506040516200314f3803806200314f83398101604081905262000034916200013f565b6000816001600160a01b031663f933c72f6040518163ffffffff1660e01b8152600401600060405180830381865afa15801562000075573d6000803e3d6000fd5b505050506040513d6000823e601f3d908101601f191682016040526200009f9190810190620001ad565b90506040518060a0016040528060768152602001620030d96076913980519060200120818051906020012014620000f65780604051634c1af20160e11b8152600401620000ed919062000265565b60405180910390fd5b604080513381526001600160a01b03841660208201527ff37e8ef81084fa6f55ef06a1fee409bc7e4dc04c063ecb589e146bafcbd9cbcf910160405180910390a150506200029a565b6000602082840312156200015257600080fd5b81516001600160a01b03811681146200016a57600080fd5b9392505050565b634e487b7160e01b600052604160045260246000fd5b60005b83811015620001a45781810151838201526020016200018a565b50506000910152565b600060208284031215620001c057600080fd5b81516001600160401b0380821115620001d857600080fd5b818401915084601f830112620001ed57600080fd5b81518181111562000202576200020262000171565b604051601f8201601f19908116603f011681019083821181831017156200022d576200022d62000171565b816040528281528760208487010111156200024757600080fd5b6200025a83602083016020880162000187565b979650505050505050565b60208152600082518060208401526200028681604085016020870162000187565b601f01601f19169190910160400192915050565b612e2f80620002aa6000396000f3fe608060405234801561001057600080fd5b506004361061002b5760003560e01c80631ed061d914610030575b600080fd5b61004361003e366004612482565b61006c565b60405173ffffffffffffffffffffffffffffffffffffffff909116815260200160405180910390f35b6000826000015151825111156100c15781518351516040517f7d2d70db000000000000000000000000000000000000000000000000000000008152600481019290925260248201526044015b60405180910390fd5b60006100d4846100cf61024a565b61028c565b604081015160608201519192509060005b855181101561015e57604084018390526060840182905261014b848261012c60027fffffffffffffffffffffffffffffffffffffffffffffffffffffffffffffffff612675565b89858151811061013e5761013e612689565b60200260200101516103a3565b5080610156816126b8565b9150506100e5565b50600061017c846080015185604001516104cc90919063ffffffff16565b90507f810b097bdad06c3daae05fe6acae5885a229381e85b19a35563683b39eea5a5333886040516101af92919061274f565b60405180910390a160006101de826040518060a0016040528060768152602001612d84607691398a91906104d5565b905060006101eb826105ee565b6040805133815273ffffffffffffffffffffffffffffffffffffffff831660208201529192507fdcb4bd7c42c5278a44b5f7b614a5d3751e67c4c803ffd29c00e83a161c1447b0910160405180910390a1955050505050505b92915050565b60408051600080825260208201909252606091908161027a565b6123428152602001906001900390816102645790505b50905061028681610679565b91505090565b6102c56040518060c001604052806060815260200160008152602001600081526020016000815260200160008152602001606081525090565b6040805160c08101825284518152602080860151519082015290810161030c60027fffffffffffffffffffffffffffffffffffffffffffffffffffffffffffffffff612675565b815260200161036461033f60027fffffffffffffffffffffffffffffffffffffffffffffffffffffffffffffffff612675565b7fffffffffffffffffffffffffffffffffffffffffffffffffffffffffffffffe00190565b815260200161039460027fffffffffffffffffffffffffffffffffffffffffffffffffffffffffffffffff612675565b81526020019290925250919050565b600060027fffffffffffffffffffffffffffffffffffffffffffffffffffffffffffffffff0485604001511015610406576040517f271592cf00000000000000000000000000000000000000000000000000000000815260040160405180910390fd5b845160208581029091010151805181015b8082101561047157600080600484019350835161ffff8116915061ffff8160101c169250506104688982898c60a00151868151811061045857610458612689565b602002602001015163ffffffff16565b96505050610417565b6040870151602090860304808511156104c0576040517ff993c6e700000000000000000000000000000000000000000000000000000000815260048101869052602481018290526044016100b8565b50939695505050505050565b60209190030490565b602083810151516060910260400160005b855151811015610524576105188660000151828151811061050957610509612689565b60200260200101515160200190565b909101906001016104e6565b5060008167ffffffffffffffff8111156105405761054061234c565b6040519080825280601f01601f19166020018201604052801561056a576020820181803683370190505b509050600061057a825b60200190565b868152602088810151910191506105929082906108ab565b9050606060005b8851518110156105df5788518051829081106105b7576105b7612689565b602002602001015191506105cb82886108cb565b6105d5838361092a565b9250600101610599565b509193505050505b9392505050565b60008061061983604051602001610605919061285c565b60405160208183030381529060405261094a565b90508051602082016000f0915073ffffffffffffffffffffffffffffffffffffffff8216610673576040517f08d4abb600000000000000000000000000000000000000000000000000000000815260040160405180910390fd5b50919050565b60606000604051806107800160405280610691603b90565b67ffffffffffffffff1667ffffffffffffffff16815260200161097681526020016109858152602001610a1a8152602001610a268152602001610a3f8152602001610a5c8152602001610acc8152602001610a268152602001610b388152602001610bcf8152602001610cb18152602001610cc18152602001610cd18152602001610ce08152602001610cef8152602001610cfe8152602001610cd18152602001610d0d8152602001610d1c8152602001610d2b8152602001610d3b8152602001610a1a8152602001610a1a8152602001610d4b8152602001610d638152602001610d728152602001610d818152602001610d908152602001610d9f8152602001610dae8152602001610dbf8152602001610ddc8152602001610dae8152602001610deb8152602001610dfa8152602001610e098152602001610e188152602001610e288152602001610e388152602001610e488152602001610e588152602001610e688152602001610e788152602001610e888152602001610e988152602001610ea88152602001610eb88152602001610ec88152602001610ed78152602001610ee68152602001610ef58152602001610f048152602001610f138152602001610f228152602001610f318152602001610f418152602001610f518152602001610f608152602001610fb48152509050600061088d82610fc3565b90506108998185611012565b805b949350505050565b815260200190565b60006105e7826108c58451866108a390919063ffffffff16565b90611048565b815161ffff907fffffffffffffffffffffffffffffffffffffffffffffffffffffffffffff000090840160028481019086015b8281101561092157805185811660020283015186169085161781526004016108fe565b50505050505050565b60006105e7826109448451866108a390919063ffffffff16565b90611060565b6060815182604051602001610960929190612882565b6040516020818303038152906040529050919050565b600061089b848361108261108e565b60408301516060840151600091600f85811692600487901c90911691600887901c916109b28988876110a6565b60408a01527fffffffffffffffffffffffffffffffffffffffffffffffffffffffffffffffe0870160608a01526109eb898489876103a3565b50606089018190526040890151610a04908a90866110c8565b6040999099019190915250959695505050505050565b600061089b848361111c565b6000612342610a3685848361112b565b95945050505050565b6000826003811115610a5357610a53612919565b50909392505050565b600060ff8316600f8110610a9f576040517f316e6a37000000000000000000000000000000000000000000000000000000008152600481018290526024016100b8565b60018101600481901b8517610ac1610ab8888388610985565b8890600161113a565b979650505050505050565b6000600f83811690600885811c91821691600c87901c91828401917efffffffffffffffffffffffffffffffffffffffffffffffffffffffffffff0169088901b610f0016178117610b1e898886611147565b9650610b2b898289610985565b9998505050505050505050565b6000600c83901c600f80851690600486901c1681811015610b8f576040517f508a8d2f00000000000000000000000000000000000000000000000000000000815260048101839052602481018290526044016100b8565b6060870151610fff87169060005b85811015610bc15760608a01829052610bb78a848a610985565b9750600101610b9d565b509598975050505050505050565b600060018381169084901c81610c50576040860151602090850304808210610c2d576040517f1cb73c1600000000000000000000000000000000000000000000000000000000815260048101829052602481018390526044016100b8565b60408701516060880151610c4591602085020161115b565b606088015250610c9d565b85602001518110610c9d5760208601516040517f890a8e6a0000000000000000000000000000000000000000000000000000000081526004810191909152602481018290526044016100b8565b610ca7868561111c565b9695505050505050565b6000612342610a36858483611171565b600061089b848361117f866111ce565b600061089b84836111de61108e565b600061089b848361127361112b565b600061089b84836112e4611380565b600061089b848361139161108e565b600061089b84836113e761108e565b600061089b8483611496611380565b600061089b84836114f3866115ad565b600061089b84836115cb866115d8565b600061089b610d5a85846115e5565b859060086110c8565b600061089b848361161361112b565b600061089b848361161f61108e565b600061089b848361163561108e565b600061089b848361164b61112b565b600061089b848361165761112b565b6000612342610a36858483876111ce565b600061089b82611663610dd3866001612948565b879291906115ad565b600061089b848361167361108e565b600061089b848361167761108e565b600061089b848361167b61112b565b600061089b848361167f61108e565b600061089b8483611683866111ce565b600061089b84836116be866111ce565b600061089b84836116ef866111ce565b600061089b8483611705866111ce565b600061089b8483611711866111ce565b600061089b848361171d866111ce565b600061089b848361115b866111ce565b600061089b8483611729866111ce565b600061089b8483611738866111ce565b600061089b8483611744866111ce565b600061089b8483611750866111ce565b600061089b848361175c61181e565b600061089b848361182f61112b565b600061089b848361187c61112b565b600061089b848361190961112b565b600061089b848361198b61112b565b600061089b84836119d861112b565b600061089b8483611a25611380565b600061089b8483611a8486611adb565b600061089b8483611aee86611b88565b600061089b8483611b9b61108e565b600060ff8316808203610f9f576040517f904c1f6d00000000000000000000000000000000000000000000000000000000815260040160405180910390fd5b610a36610fad8685846110a6565b869061111c565b600061089b8483611bfa61108e565b80518190603b1461100d5780516040517fc8b569010000000000000000000000000000000000000000000000000000000081526004810191909152603b60248201526044016100b8565b919050565b60405182518251602080830286010183111561102d57600080fd5b6020810283016040520183526110438282611c12565b505050565b60006110548284611c12565b815160200283016105e7565b60006110798383516110726105748690565b9190611c26565b815183016105e7565b60006105e78383611ca2565b600061089b61109f858560026110a6565b859061111c565b600081156110c05760208202830392506110c08484611e2b565b509092915050565b6000602082028301925060018211156111125761110c7fffffffffffffffffffffffffffffffffffffffffffffffffffffffffffffffe0840160608601519061115b565b60608501525b6110c08484611e8f565b60200160006106738383611e8f565b600061089b61109f85856115e5565b600060208202830361089b565b600060208202830192506110c08484611e8f565b600081831161116a57816105e7565b5090919050565b600061089b848460026110a6565b600081604051602001611192919061295b565b604080517fffffffffffffffffffffffffffffffffffffffffffffffffffffffffffffffe0818403018152919052805160209091012092915050565b6000610a36610fad8686856110a6565b6040517f70a0823100000000000000000000000000000000000000000000000000000000815273ffffffffffffffffffffffffffffffffffffffff8281166004830152600091908416906370a08231906024015b602060405180830381865afa15801561124f573d6000803e3d6000fd5b505050506040513d601f19601f820116820180604052508101906105e79190612991565b60008173ffffffffffffffffffffffffffffffffffffffff166318160ddd6040518163ffffffff1660e01b8152600401602060405180830381865afa1580156112c0573d6000803e3d6000fd5b505050506040513d601f19601f820116820180604052508101906102449190612991565b6040517f4ee2cd7e00000000000000000000000000000000000000000000000000000000815273ffffffffffffffffffffffffffffffffffffffff83811660048301526024820183905260009190851690634ee2cd7e906044015b602060405180830381865afa15801561135c573d6000803e3d6000fd5b505050506040513d601f19601f8201168201806040525081019061089b9190612991565b600061089b61109f858560036110a6565b6040517f981b24d00000000000000000000000000000000000000000000000000000000081526004810182905260009073ffffffffffffffffffffffffffffffffffffffff84169063981b24d090602401611232565b6040517f6352211e0000000000000000000000000000000000000000000000000000000081526004810182905260009073ffffffffffffffffffffffffffffffffffffffff841690636352211e90602401602060405180830381865afa158015611455573d6000803e3d6000fd5b505050506040513d601f19601f8201168201806040525081019061147991906129aa565b73ffffffffffffffffffffffffffffffffffffffff169392505050565b6040517efdd58e00000000000000000000000000000000000000000000000000000000815273ffffffffffffffffffffffffffffffffffffffff8381166004830152602482018390526000919085169062fdd58e9060440161133f565b6040517f4e1273f400000000000000000000000000000000000000000000000000000000815260609073ffffffffffffffffffffffffffffffffffffffff851690634e1273f49061154a90869086906004016129e0565b600060405180830381865afa158015611567573d6000803e3d6000fd5b505050506040513d6000823e601f3d9081017fffffffffffffffffffffffffffffffffffffffffffffffffffffffffffffffe016820160405261089b9190810190612a43565b6000610a366115c38686600160028702016110a6565b8690846110c8565b806115d557600080fd5b50565b6000610a368585846110a6565b7fffffffffffffffffffffffffffffffffffffffffffffffffffffffffffffffe00160006106738383611e2b565b60006105e78284611ea4565b600061089b8261162f8587611ea4565b90611f24565b600061089b826116458587611ea4565b90611f39565b60006105e78284611f4e565b60006105e78284611f9d565b6060600084116110c0578161089b565b1490565b1090565b1590565b1190565b6000828201838110611695578061089b565b7fffffffffffffffffffffffffffffffffffffffffffffffffffffffffffffffff949350505050565b6000826000036116d057506000610244565b828202828482816116e3576116e3612617565b0403611695578061089b565b60008183116116ff5760006105e7565b50900390565b60006105e78284612948565b60006105e78284612675565b60006105e78284612be9565b600081831061116a57816105e7565b60006105e78284612bf5565b60006105e78284612c09565b60006105e78284612c20565b6040517fd97b2e4800000000000000000000000000000000000000000000000000000000815273ffffffffffffffffffffffffffffffffffffffff84811660048301528381166024830152604482018390526000919086169063d97b2e4890606401602060405180830381865afa1580156117db573d6000803e3d6000fd5b505050506040513d601f19601f820116820180604052508101906117ff9190612991565b73ffffffffffffffffffffffffffffffffffffffff1695945050505050565b600061089b61109f858560046110a6565b60008173ffffffffffffffffffffffffffffffffffffffff1663ec14b06e6040518163ffffffff1660e01b8152600401602060405180830381865afa1580156112c0573d6000803e3d6000fd5b60008173ffffffffffffffffffffffffffffffffffffffff1663cd3293de6040518163ffffffff1660e01b8152600401602060405180830381865afa1580156118c9573d6000803e3d6000fd5b505050506040513d601f19601f820116820180604052508101906118ed91906129aa565b73ffffffffffffffffffffffffffffffffffffffff1692915050565b60008173ffffffffffffffffffffffffffffffffffffffff1663f9020e336040518163ffffffff1660e01b8152600401602060405180830381865afa158015611956573d6000803e3d6000fd5b505050506040513d601f19601f8201168201806040525081019061197a9190612c33565b600381111561024457610244612919565b60008173ffffffffffffffffffffffffffffffffffffffff1663fc0c546a6040518163ffffffff1660e01b8152600401602060405180830381865afa1580156118c9573d6000803e3d6000fd5b60008173ffffffffffffffffffffffffffffffffffffffff166347e4bbb96040518163ffffffff1660e01b8152600401602060405180830381865afa1580156112c0573d6000803e3d6000fd5b6040517fdb8554fc00000000000000000000000000000000000000000000000000000000815273ffffffffffffffffffffffffffffffffffffffff8381166004830152602482018390526000919085169063db8554fc9060440161133f565b6040517f88d6860400000000000000000000000000000000000000000000000000000000815260009073ffffffffffffffffffffffffffffffffffffffff8516906388d686049061133f9086908690600401612c54565b6000610a36610fad8686600286016110a6565b6040517fcaa0eb3b00000000000000000000000000000000000000000000000000000000815260009073ffffffffffffffffffffffffffffffffffffffff86169063caa0eb3b90611b4790879087908790600401612c83565b602060405180830381865afa158015611b64573d6000803e3d6000fd5b505050506040513d601f19601f82011682018060405250810190610a369190612991565b6000610a36610fad8686600386016110a6565b60008060015b60088111611bf2576000611bb58683611ffd565b90506000611bc38684611ffd565b90506000611bd183836116ef565b9050611be18560018603836120ad565b94505060019092019150611ba19050565b509392505050565b600061089b8385600f16600487901c600f1685612137565b6000602083019050611043818385516121dd565b5b60208110611c645782518252602092830192909101907fffffffffffffffffffffffffffffffffffffffffffffffffffffffffffffffe001611c27565b8015611043577fffffffffffffffffffffffffffffffffffffffffffffffffffffffffffffffff600882021c80835116811985511617835250505050565b60008060008473ffffffffffffffffffffffffffffffffffffffff1663feaf968c6040518163ffffffff1660e01b815260040160a060405180830381865afa158015611cf2573d6000803e3d6000fd5b505050506040513d601f19601f82011682018060405250810190611d169190612cd2565b5093505092505060008213611d5a576040517f3351e26f000000000000000000000000000000000000000000000000000000008152600481018390526024016100b8565b83611d658242612c20565b1115611da7576040517f2730eb4800000000000000000000000000000000000000000000000000000000815260048101829052602481018590526044016100b8565b610a368573ffffffffffffffffffffffffffffffffffffffff1663313ce5676040518163ffffffff1660e01b8152600401602060405180830381865afa158015611df5573d6000803e3d6000fd5b505050506040513d601f19601f82011682018060405250810190611e199190612d22565b60ff16611e2584612205565b90611ea4565b81606001518111611e8b5760608201516040830151602091030460408301516020908303046040517f625e32e4000000000000000000000000000000000000000000000000000000008152600481019290925260248201526044016100b8565b5050565b8160800151811115611e8b5760809190910152565b60008082601203611eb85783915050610244565b8260121115611ee457506012829003611edc611ed582600a612be9565b85906116be565b915050610244565b507fffffffffffffffffffffffffffffffffffffffffffffffffffffffffffffffee8201611f1381600a612be9565b611edc9085612675565b5092915050565b60006105e783670de0b6b3a764000084612275565b60006105e78383670de0b6b3a7640000612275565b60008160000b600003611f62575081610244565b60008260000b1315611f8a57611f83611f7c83600a612d45565b84906116be565b9050610244565b60ff600083900316611f1381600a612be9565b60008060128303611fb15783915050610244565b8260121115611fcb57506012829003611f1381600a612be9565b507fffffffffffffffffffffffffffffffffffffffffffffffffffffffffffffffee8201611edc611ed582600a612be9565b600081600881111561206b576040517f08c379a000000000000000000000000000000000000000000000000000000000815260206004820152600860248201527f4d41585f5449455200000000000000000000000000000000000000000000000060448201526064016100b8565b8260000361207c5760009150611f1d565b50507fffffffffffffffffffffffffffffffffffffffffffffffffffffffffffffffff016020021c63ffffffff1690565b600082600881111561211b576040517f08c379a000000000000000000000000000000000000000000000000000000000815260206004820152600860248201527f4d41585f5449455200000000000000000000000000000000000000000000000060448201526064016100b8565b505060209190910290811b63ffffffff90911b19919091161790565b60008260088111156121a5576040517f08c379a000000000000000000000000000000000000000000000000000000000815260206004820152600860248201527f4d41585f5449455200000000000000000000000000000000000000000000000060448201526064016100b8565b6000855b858110156121d15763ffffffff6020820290811b199890981685891b179791506001016121a9565b50959695505050505050565b8060200283015b808410156121ff5783518352602093840193909201916121e4565b50505050565b600080821215612271576040517f08c379a000000000000000000000000000000000000000000000000000000000815260206004820181905260248201527f53616665436173743a2076616c7565206d75737420626520706f73697469766560448201526064016100b8565b5090565b600080807fffffffffffffffffffffffffffffffffffffffffffffffffffffffffffffffff858709858702925082811083820303915050806000036122cd578382816122c3576122c3612617565b04925050506105e7565b8084116122d957600080fd5b60008486880960026001871981018816978890046003810283188082028403028082028403028082028403028082028403028082028403029081029092039091026000889003889004909101858311909403939093029303949094049190911702949350505050565b61234a612d54565b565b7f4e487b7100000000000000000000000000000000000000000000000000000000600052604160045260246000fd5b6040805190810167ffffffffffffffff8111828210171561239e5761239e61234c565b60405290565b604051601f82017fffffffffffffffffffffffffffffffffffffffffffffffffffffffffffffffe016810167ffffffffffffffff811182821017156123eb576123eb61234c565b604052919050565b600067ffffffffffffffff82111561240d5761240d61234c565b5060051b60200190565b600082601f83011261242857600080fd5b8135602061243d612438836123f3565b6123a4565b82815260059290921b8401810191818101908684111561245c57600080fd5b8286015b848110156124775780358352918301918301612460565b509695505050505050565b6000806040838503121561249557600080fd5b823567ffffffffffffffff808211156124ad57600080fd5b90840190604082870312156124c157600080fd5b6124c961237b565b8235828111156124d857600080fd5b8301601f810188136124e957600080fd5b803560206124f9612438836123f3565b82815260059290921b8301810191818101908b84111561251857600080fd5b8285015b848110156125c2578035888111156125345760008081fd5b8601603f81018e136125465760008081fd5b848101358981111561255a5761255a61234c565b61258a867fffffffffffffffffffffffffffffffffffffffffffffffffffffffffffffffe0601f840116016123a4565b8181528f60408385010111156125a05760008081fd5b816040840188830137600091810187019190915284525091830191830161251c565b50855250858101359250848311156125d957600080fd5b6125e58a848801612417565b84820152929650505085013591508082111561260057600080fd5b5061260d85828601612417565b9150509250929050565b7f4e487b7100000000000000000000000000000000000000000000000000000000600052601260045260246000fd5b7f4e487b7100000000000000000000000000000000000000000000000000000000600052601160045260246000fd5b60008261268457612684612617565b500490565b7f4e487b7100000000000000000000000000000000000000000000000000000000600052603260045260246000fd5b60007fffffffffffffffffffffffffffffffffffffffffffffffffffffffffffffffff82036126e9576126e9612646565b5060010190565b60005b8381101561270b5781810151838201526020016126f3565b50506000910152565b600081518084526020808501945080840160005b8381101561274457815187529582019590820190600101612728565b509495945050505050565b73ffffffffffffffffffffffffffffffffffffffff831681526000602060408184015260808301845160408086015281815180845260a08701915060a08160051b8801019350848301925060005b8181101561281f577fffffffffffffffffffffffffffffffffffffffffffffffffffffffffffffff60888603018352835180518087526127e2818989018a85016126f0565b601f017fffffffffffffffffffffffffffffffffffffffffffffffffffffffffffffffe0169590950186019450928501929185019160010161279d565b50505050908401518382037fffffffffffffffffffffffffffffffffffffffffffffffffffffffffffffffc001606085015290610ca78183612714565b60008152600082516128758160018501602087016126f0565b9190910160010192915050565b7f630000000000000000000000000000000000000000000000000000000000000081527fffffffff000000000000000000000000000000000000000000000000000000008360e01b1660018201527f80600e6000396000f3000000000000000000000000000000000000000000000060058201526000825161290b81600e8501602087016126f0565b91909101600e019392505050565b7f4e487b7100000000000000000000000000000000000000000000000000000000600052602160045260246000fd5b8082018082111561024457610244612646565b815160009082906020808601845b8381101561298557815185529382019390820190600101612969565b50929695505050505050565b6000602082840312156129a357600080fd5b5051919050565b6000602082840312156129bc57600080fd5b815173ffffffffffffffffffffffffffffffffffffffff811681146105e757600080fd5b604080825283519082018190526000906020906060840190828701845b82811015612a2f57815173ffffffffffffffffffffffffffffffffffffffff16845292840192908401906001016129fd565b50505083810382850152610ca78186612714565b60006020808385031215612a5657600080fd5b825167ffffffffffffffff811115612a6d57600080fd5b8301601f81018513612a7e57600080fd5b8051612a8c612438826123f3565b81815260059190911b82018301908381019087831115612aab57600080fd5b928401925b82841015610ac157835182529284019290840190612ab0565b600181815b80851115612b2257817fffffffffffffffffffffffffffffffffffffffffffffffffffffffffffffffff04821115612b0857612b08612646565b80851615612b1557918102915b93841c9390800290612ace565b509250929050565b600082612b3957506001610244565b81612b4657506000610244565b8160018114612b5c5760028114612b6657612b82565b6001915050610244565b60ff841115612b7757612b77612646565b50506001821b610244565b5060208310610133831016604e8410600b8410161715612ba5575081810a610244565b612baf8383612ac9565b807fffffffffffffffffffffffffffffffffffffffffffffffffffffffffffffffff04821115612be157612be1612646565b029392505050565b60006105e78383612b2a565b600082612c0457612c04612617565b500690565b808202811582820484141761024457610244612646565b8181038181111561024457610244612646565b600060208284031215612c4557600080fd5b8151600481106105e757600080fd5b73ffffffffffffffffffffffffffffffffffffffff8316815260406020820152600061089b6040830184612714565b73ffffffffffffffffffffffffffffffffffffffff84168152826020820152606060408201526000610a366060830184612714565b805169ffffffffffffffffffff8116811461100d57600080fd5b600080600080600060a08688031215612cea57600080fd5b612cf386612cb8565b9450602086015193506040860151925060608601519150612d1660808701612cb8565b90509295509295909350565b600060208284031215612d3457600080fd5b815160ff811681146105e757600080fd5b60006105e760ff841683612b2a565b7f4e487b7100000000000000000000000000000000000000000000000000000000600052605160045260246000fdfe0a010a0f0a650ab70b350b610bfa0cc40df90e2e0e4c0ed40ee30ef10eff0f0d0ee30f1b0f290f370f460f550f630f710fe90ff81007101610251034107d108f109d10cf10dd10eb10f9110811171126113511441153116211711180118f119e11ac11ba11c811d611e411f21200120f121e122c12a3a26469706673582212203594711af4e6ae09d6a8bca4c21cd4b79dc4dd9f72b9210104b4e94664bb598c64736f6c634300081100330a010a0f0a650ab70b350b610bfa0cc40df90e2e0e4c0ed40ee30ef10eff0f0d0ee30f1b0f290f370f460f550f630f710fe90ff81007101610251034107d108f109d10cf10dd10eb10f9110811171126113511441153116211711180118f119e11ac11ba11c811d611e411f21200120f121e122c12a3",
  "linkReferences": {},
  "deployedLinkReferences": {}
}