{
  "_format": "hh-sol-artifact-1",
  "contractName": "RainterpreterExpressionDeployer",
  "sourceName": "contracts/interpreter/shared/RainterpreterExpressionDeployer.sol",
  "abi": [
    {
      "inputs": [
        {
          "internalType": "address",
          "name": "interpreter_",
          "type": "address"
        }
      ],
      "stateMutability": "nonpayable",
      "type": "constructor"
    },
    {
      "inputs": [
        {
          "internalType": "uint256",
          "name": "dynamicLength",
          "type": "uint256"
        },
        {
          "internalType": "uint256",
          "name": "standardOpsLength",
          "type": "uint256"
        }
      ],
      "name": "BadDynamicLength",
      "type": "error"
    },
    {
      "inputs": [
        {
          "internalType": "uint256",
          "name": "inputs",
          "type": "uint256"
        }
      ],
      "name": "DoWhileMaxInputs",
      "type": "error"
    },
    {
      "inputs": [
        {
          "internalType": "uint256",
          "name": "inputs",
          "type": "uint256"
        },
        {
          "internalType": "uint256",
          "name": "outputs",
          "type": "uint256"
        }
      ],
      "name": "InsufficientLoopOutputs",
      "type": "error"
    },
    {
      "inputs": [
        {
          "internalType": "uint256",
          "name": "minStackOutputs",
          "type": "uint256"
        },
        {
          "internalType": "uint256",
          "name": "actualStackOutputs",
          "type": "uint256"
        }
      ],
      "name": "MinFinalStack",
      "type": "error"
    },
    {
      "inputs": [],
      "name": "MinStackBottom",
      "type": "error"
    },
    {
      "inputs": [
        {
          "internalType": "uint256",
          "name": "expectedEntrypoints",
          "type": "uint256"
        },
        {
          "internalType": "uint256",
          "name": "actualEntrypoints",
          "type": "uint256"
        }
      ],
      "name": "MissingEntrypoint",
      "type": "error"
    },
    {
      "inputs": [
        {
          "internalType": "int256",
          "name": "price",
          "type": "int256"
        }
      ],
      "name": "NotPosIntPrice",
      "type": "error"
    },
    {
      "inputs": [
        {
          "internalType": "uint256",
          "name": "constantsLength",
          "type": "uint256"
        },
        {
          "internalType": "uint256",
          "name": "constantsRead",
          "type": "uint256"
        }
      ],
      "name": "OutOfBoundsConstantsRead",
      "type": "error"
    },
    {
      "inputs": [
        {
          "internalType": "uint256",
          "name": "stackTopIndex",
          "type": "uint256"
        },
        {
          "internalType": "uint256",
          "name": "stackRead",
          "type": "uint256"
        }
      ],
      "name": "OutOfBoundsStackRead",
      "type": "error"
    },
    {
      "inputs": [
        {
          "internalType": "uint256",
          "name": "stackHighwaterIndex",
          "type": "uint256"
        },
        {
          "internalType": "uint256",
          "name": "stackTopIndex",
          "type": "uint256"
        }
      ],
      "name": "StackPopUnderflow",
      "type": "error"
    },
    {
      "inputs": [
        {
          "internalType": "uint256",
          "name": "updatedAt",
          "type": "uint256"
        },
        {
          "internalType": "uint256",
          "name": "staleAfter",
          "type": "uint256"
        }
      ],
      "name": "StalePrice",
      "type": "error"
    },
    {
      "inputs": [
        {
          "internalType": "bytes",
          "name": "actualPointers",
          "type": "bytes"
        }
      ],
      "name": "UnexpectedPointers",
      "type": "error"
    },
    {
      "inputs": [],
      "name": "WriteError",
      "type": "error"
    },
    {
      "inputs": [],
      "name": "ZeroInputs",
      "type": "error"
    },
    {
      "anonymous": false,
      "inputs": [
        {
          "indexed": false,
          "internalType": "address",
          "name": "sender",
          "type": "address"
        },
        {
          "components": [
            {
              "internalType": "bytes[]",
              "name": "sources",
              "type": "bytes[]"
            },
            {
              "internalType": "uint256[]",
              "name": "constants",
              "type": "uint256[]"
            }
          ],
          "indexed": false,
          "internalType": "struct StateConfig",
          "name": "config",
          "type": "tuple"
        }
      ],
      "name": "ExpressionConfig",
      "type": "event"
    },
    {
      "anonymous": false,
      "inputs": [
        {
          "indexed": false,
          "internalType": "address",
          "name": "sender",
          "type": "address"
        },
        {
          "indexed": false,
          "internalType": "address",
          "name": "expression",
          "type": "address"
        }
      ],
      "name": "ExpressionDeployed",
      "type": "event"
    },
    {
      "anonymous": false,
      "inputs": [
        {
          "indexed": false,
          "internalType": "address",
          "name": "sender",
          "type": "address"
        },
        {
          "indexed": false,
          "internalType": "address",
          "name": "interpreter",
          "type": "address"
        }
      ],
      "name": "ValidInterpreter",
      "type": "event"
    },
    {
      "inputs": [
        {
          "components": [
            {
              "internalType": "bytes[]",
              "name": "sources",
              "type": "bytes[]"
            },
            {
              "internalType": "uint256[]",
              "name": "constants",
              "type": "uint256[]"
            }
          ],
          "internalType": "struct StateConfig",
          "name": "config_",
          "type": "tuple"
        },
        {
          "internalType": "uint256[]",
          "name": "minStackOutputs_",
          "type": "uint256[]"
        }
      ],
      "name": "deployExpression",
      "outputs": [
        {
          "internalType": "address",
          "name": "",
          "type": "address"
        }
      ],
      "stateMutability": "nonpayable",
      "type": "function"
    }
  ],
  "bytecode": "0x60806040523480156200001157600080fd5b50604051620031fc380380620031fc83398101604081905262000034916200013f565b6000816001600160a01b031663f933c72f6040518163ffffffff1660e01b8152600401600060405180830381865afa15801562000075573d6000803e3d6000fd5b505050506040513d6000823e601f3d908101601f191682016040526200009f9190810190620001ad565b90506040518060a0016040528060768152602001620031866076913980519060200120818051906020012014620000f65780604051634c1af20160e11b8152600401620000ed919062000265565b60405180910390fd5b604080513381526001600160a01b03841660208201527ff37e8ef81084fa6f55ef06a1fee409bc7e4dc04c063ecb589e146bafcbd9cbcf910160405180910390a150506200029a565b6000602082840312156200015257600080fd5b81516001600160a01b03811681146200016a57600080fd5b9392505050565b634e487b7160e01b600052604160045260246000fd5b60005b83811015620001a45781810151838201526020016200018a565b50506000910152565b600060208284031215620001c057600080fd5b81516001600160401b0380821115620001d857600080fd5b818401915084601f830112620001ed57600080fd5b81518181111562000202576200020262000171565b604051601f8201601f19908116603f011681019083821181831017156200022d576200022d62000171565b816040528281528760208487010111156200024757600080fd5b6200025a83602083016020880162000187565b979650505050505050565b60208152600082518060208401526200028681604085016020870162000187565b601f01601f19169190910160400192915050565b612edc80620002aa6000396000f3fe608060405234801561001057600080fd5b506004361061002b5760003560e01c80631ed061d914610030575b600080fd5b61004361003e36600461252f565b61006c565b60405173ffffffffffffffffffffffffffffffffffffffff909116815260200160405180910390f35b6000826000015151825111156100c15781518351516040517f7d2d70db000000000000000000000000000000000000000000000000000000008152600481019290925260248201526044015b60405180910390fd5b60006100d4846100cf61024a565b61028c565b604081015160608201519192509060005b855181101561015e57604084018390526060840182905261014b848261012c60027fffffffffffffffffffffffffffffffffffffffffffffffffffffffffffffffff612722565b89858151811061013e5761013e612736565b60200260200101516103a3565b508061015681612765565b9150506100e5565b50600061017c846080015185604001516104cc90919063ffffffff16565b90507f810b097bdad06c3daae05fe6acae5885a229381e85b19a35563683b39eea5a5333886040516101af9291906127fc565b60405180910390a160006101de826040518060a0016040528060768152602001612e31607691398a91906104d5565b905060006101eb826105ee565b6040805133815273ffffffffffffffffffffffffffffffffffffffff831660208201529192507fdcb4bd7c42c5278a44b5f7b614a5d3751e67c4c803ffd29c00e83a161c1447b0910160405180910390a1955050505050505b92915050565b60408051600080825260208201909252606091908161027a565b6123ef8152602001906001900390816102645790505b50905061028681610679565b91505090565b6102c56040518060c001604052806060815260200160008152602001600081526020016000815260200160008152602001606081525090565b6040805160c08101825284518152602080860151519082015290810161030c60027fffffffffffffffffffffffffffffffffffffffffffffffffffffffffffffffff612722565b815260200161036461033f60027fffffffffffffffffffffffffffffffffffffffffffffffffffffffffffffffff612722565b7fffffffffffffffffffffffffffffffffffffffffffffffffffffffffffffffe00190565b815260200161039460027fffffffffffffffffffffffffffffffffffffffffffffffffffffffffffffffff612722565b81526020019290925250919050565b600060027fffffffffffffffffffffffffffffffffffffffffffffffffffffffffffffffff0485604001511015610406576040517f271592cf00000000000000000000000000000000000000000000000000000000815260040160405180910390fd5b845160208581029091010151805181015b8082101561047157600080600484019350835161ffff8116915061ffff8160101c169250506104688982898c60a00151868151811061045857610458612736565b602002602001015163ffffffff16565b96505050610417565b6040870151602090860304808511156104c0576040517ff993c6e700000000000000000000000000000000000000000000000000000000815260048101869052602481018290526044016100b8565b50939695505050505050565b60209190030490565b602083810151516060910260400160005b855151811015610524576105188660000151828151811061050957610509612736565b60200260200101515160200190565b909101906001016104e6565b5060008167ffffffffffffffff811115610540576105406123f9565b6040519080825280601f01601f19166020018201604052801561056a576020820181803683370190505b509050600061057a825b60200190565b868152602088810151910191506105929082906108ab565b9050606060005b8851518110156105df5788518051829081106105b7576105b7612736565b602002602001015191506105cb82886108cb565b6105d5838361092a565b9250600101610599565b509193505050505b9392505050565b600080610619836040516020016106059190612909565b60405160208183030381529060405261094a565b90508051602082016000f0915073ffffffffffffffffffffffffffffffffffffffff8216610673576040517f08d4abb600000000000000000000000000000000000000000000000000000000815260040160405180910390fd5b50919050565b60606000604051806107800160405280610691603b90565b67ffffffffffffffff1667ffffffffffffffff16815260200161097681526020016109858152602001610a1a8152602001610a268152602001610a3f8152602001610a5c8152602001610acc8152602001610a268152602001610b388152602001610bcf8152602001610cb18152602001610cc18152602001610cd18152602001610ce08152602001610cef8152602001610cfe8152602001610cd18152602001610d0d8152602001610d1c8152602001610d2b8152602001610d3b8152602001610a1a8152602001610a1a8152602001610d4b8152602001610d638152602001610d728152602001610d818152602001610d908152602001610d9f8152602001610dae8152602001610dbf8152602001610ddc8152602001610dae8152602001610deb8152602001610dfa8152602001610e098152602001610e188152602001610e288152602001610e388152602001610e488152602001610e588152602001610e688152602001610e788152602001610e888152602001610e988152602001610ea88152602001610eb88152602001610ec88152602001610ed78152602001610ee68152602001610ef58152602001610f048152602001610f138152602001610f228152602001610f318152602001610f418152602001610f518152602001610f608152602001610fb48152509050600061088d82610fc3565b90506108998185611012565b805b949350505050565b815260200190565b60006105e7826108c58451866108a390919063ffffffff16565b90611048565b815161ffff907fffffffffffffffffffffffffffffffffffffffffffffffffffffffffffff000090840160028481019086015b8281101561092157805185811660020283015186169085161781526004016108fe565b50505050505050565b60006105e7826109448451866108a390919063ffffffff16565b90611060565b606081518260405160200161096092919061292f565b6040516020818303038152906040529050919050565b600061089b848361108261108e565b60408301516060840151600091600f85811692600487901c90911691600887901c916109b28988876110a6565b60408a01527fffffffffffffffffffffffffffffffffffffffffffffffffffffffffffffffe0870160608a01526109eb898489876103a3565b50606089018190526040890151610a04908a90866110c8565b6040999099019190915250959695505050505050565b600061089b848361111c565b60006123ef610a3685848361112b565b95945050505050565b6000826003811115610a5357610a536129c6565b50909392505050565b600060ff8316600f8110610a9f576040517f316e6a37000000000000000000000000000000000000000000000000000000008152600481018290526024016100b8565b60018101600481901b8517610ac1610ab8888388610985565b8890600161113a565b979650505050505050565b6000600f83811690600885811c91821691600c87901c91828401917efffffffffffffffffffffffffffffffffffffffffffffffffffffffffffff0169088901b610f0016178117610b1e898886611147565b9650610b2b898289610985565b9998505050505050505050565b6000600c83901c600f80851690600486901c1681811015610b8f576040517f508a8d2f00000000000000000000000000000000000000000000000000000000815260048101839052602481018290526044016100b8565b6060870151610fff87169060005b85811015610bc15760608a01829052610bb78a848a610985565b9750600101610b9d565b509598975050505050505050565b600060018381169084901c81610c50576040860151602090850304808210610c2d576040517f1cb73c1600000000000000000000000000000000000000000000000000000000815260048101829052602481018390526044016100b8565b60408701516060880151610c4591602085020161115b565b606088015250610c9d565b85602001518110610c9d5760208601516040517f890a8e6a0000000000000000000000000000000000000000000000000000000081526004810191909152602481018290526044016100b8565b610ca7868561111c565b9695505050505050565b60006123ef610a36858483611171565b600061089b848361117f866111ce565b600061089b84836111de61108e565b600061089b848361127361112b565b600061089b84836112e4611380565b600061089b848361139161108e565b600061089b84836113e761108e565b600061089b8483611496611380565b600061089b84836114f3866115ad565b600061089b84836115cb866115d8565b600061089b610d5a85846115e5565b859060086110c8565b600061089b848361161361112b565b600061089b848361162061108e565b600061089b848361163961108e565b600061089b848361165261112b565b600061089b848361165f61112b565b60006123ef610a36858483876111ce565b600061089b8261166c610dd38660016129f5565b879291906115ad565b600061089b848361167c61108e565b600061089b848361168061108e565b600061089b848361168461112b565b600061089b848361168861108e565b600061089b848361168c866111ce565b600061089b84836116c7866111ce565b600061089b84836116f8866111ce565b600061089b848361170e866111ce565b600061089b848361171a866111ce565b600061089b8483611726866111ce565b600061089b848361115b866111ce565b600061089b8483611732866111ce565b600061089b8483611741866111ce565b600061089b848361174d866111ce565b600061089b8483611759866111ce565b600061089b8483611765611827565b600061089b848361183861112b565b600061089b848361188561112b565b600061089b848361191261112b565b600061089b848361199461112b565b600061089b84836119e161112b565b600061089b8483611a2e611380565b600061089b8483611a8d86611ae4565b600061089b8483611af786611b91565b600061089b8483611ba461108e565b600060ff8316808203610f9f576040517f904c1f6d00000000000000000000000000000000000000000000000000000000815260040160405180910390fd5b610a36610fad8685846110a6565b869061111c565b600061089b8483611c0361108e565b80518190603b1461100d5780516040517fc8b569010000000000000000000000000000000000000000000000000000000081526004810191909152603b60248201526044016100b8565b919050565b60405182518251602080830286010183111561102d57600080fd5b6020810283016040520183526110438282611c1b565b505050565b60006110548284611c1b565b815160200283016105e7565b60006110798383516110726105748690565b9190611c2f565b815183016105e7565b60006105e78383611cab565b600061089b61109f858560026110a6565b859061111c565b600081156110c05760208202830392506110c08484611e37565b509092915050565b6000602082028301925060018211156111125761110c7fffffffffffffffffffffffffffffffffffffffffffffffffffffffffffffffe0840160608601519061115b565b60608501525b6110c08484611e9b565b60200160006106738383611e9b565b600061089b61109f85856115e5565b600060208202830361089b565b600060208202830192506110c08484611e9b565b600081831161116a57816105e7565b5090919050565b600061089b848460026110a6565b6000816040516020016111929190612a08565b604080517fffffffffffffffffffffffffffffffffffffffffffffffffffffffffffffffe0818403018152919052805160209091012092915050565b6000610a36610fad8686856110a6565b6040517f70a0823100000000000000000000000000000000000000000000000000000000815273ffffffffffffffffffffffffffffffffffffffff8281166004830152600091908416906370a08231906024015b602060405180830381865afa15801561124f573d6000803e3d6000fd5b505050506040513d601f19601f820116820180604052508101906105e79190612a3e565b60008173ffffffffffffffffffffffffffffffffffffffff166318160ddd6040518163ffffffff1660e01b8152600401602060405180830381865afa1580156112c0573d6000803e3d6000fd5b505050506040513d601f19601f820116820180604052508101906102449190612a3e565b6040517f4ee2cd7e00000000000000000000000000000000000000000000000000000000815273ffffffffffffffffffffffffffffffffffffffff83811660048301526024820183905260009190851690634ee2cd7e906044015b602060405180830381865afa15801561135c573d6000803e3d6000fd5b505050506040513d601f19601f8201168201806040525081019061089b9190612a3e565b600061089b61109f858560036110a6565b6040517f981b24d00000000000000000000000000000000000000000000000000000000081526004810182905260009073ffffffffffffffffffffffffffffffffffffffff84169063981b24d090602401611232565b6040517f6352211e0000000000000000000000000000000000000000000000000000000081526004810182905260009073ffffffffffffffffffffffffffffffffffffffff841690636352211e90602401602060405180830381865afa158015611455573d6000803e3d6000fd5b505050506040513d601f19601f820116820180604052508101906114799190612a57565b73ffffffffffffffffffffffffffffffffffffffff169392505050565b6040517efdd58e00000000000000000000000000000000000000000000000000000000815273ffffffffffffffffffffffffffffffffffffffff8381166004830152602482018390526000919085169062fdd58e9060440161133f565b6040517f4e1273f400000000000000000000000000000000000000000000000000000000815260609073ffffffffffffffffffffffffffffffffffffffff851690634e1273f49061154a9086908690600401612a8d565b600060405180830381865afa158015611567573d6000803e3d6000fd5b505050506040513d6000823e601f3d9081017fffffffffffffffffffffffffffffffffffffffffffffffffffffffffffffffe016820160405261089b9190810190612af0565b6000610a366115c38686600160028702016110a6565b8690846110c8565b806115d557600080fd5b50565b6000610a368585846110a6565b7fffffffffffffffffffffffffffffffffffffffffffffffffffffffffffffffe00160006106738383611e37565b60006105e7828483611eb0565b600061089b8282611632868883611eb0565b9190611f1f565b600061089b828261164b868883611eb0565b9190611f35565b60006105e7828483611f4b565b60006105e7828483611f9a565b6060600084116110c0578161089b565b1490565b1090565b1590565b1190565b600082820183811061169e578061089b565b7fffffffffffffffffffffffffffffffffffffffffffffffffffffffffffffffff949350505050565b6000826000036116d957506000610244565b828202828482816116ec576116ec6126c4565b040361169e578061089b565b60008183116117085760006105e7565b50900390565b60006105e782846129f5565b60006105e78284612722565b60006105e78284612c96565b600081831061116a57816105e7565b60006105e78284612ca2565b60006105e78284612cb6565b60006105e78284612ccd565b6040517fd97b2e4800000000000000000000000000000000000000000000000000000000815273ffffffffffffffffffffffffffffffffffffffff84811660048301528381166024830152604482018390526000919086169063d97b2e4890606401602060405180830381865afa1580156117e4573d6000803e3d6000fd5b505050506040513d601f19601f820116820180604052508101906118089190612a3e565b73ffffffffffffffffffffffffffffffffffffffff1695945050505050565b600061089b61109f858560046110a6565b60008173ffffffffffffffffffffffffffffffffffffffff1663ec14b06e6040518163ffffffff1660e01b8152600401602060405180830381865afa1580156112c0573d6000803e3d6000fd5b60008173ffffffffffffffffffffffffffffffffffffffff1663cd3293de6040518163ffffffff1660e01b8152600401602060405180830381865afa1580156118d2573d6000803e3d6000fd5b505050506040513d601f19601f820116820180604052508101906118f69190612a57565b73ffffffffffffffffffffffffffffffffffffffff1692915050565b60008173ffffffffffffffffffffffffffffffffffffffff1663f9020e336040518163ffffffff1660e01b8152600401602060405180830381865afa15801561195f573d6000803e3d6000fd5b505050506040513d601f19601f820116820180604052508101906119839190612ce0565b6003811115610244576102446129c6565b60008173ffffffffffffffffffffffffffffffffffffffff1663fc0c546a6040518163ffffffff1660e01b8152600401602060405180830381865afa1580156118d2573d6000803e3d6000fd5b60008173ffffffffffffffffffffffffffffffffffffffff166347e4bbb96040518163ffffffff1660e01b8152600401602060405180830381865afa1580156112c0573d6000803e3d6000fd5b6040517fdb8554fc00000000000000000000000000000000000000000000000000000000815273ffffffffffffffffffffffffffffffffffffffff8381166004830152602482018390526000919085169063db8554fc9060440161133f565b6040517f88d6860400000000000000000000000000000000000000000000000000000000815260009073ffffffffffffffffffffffffffffffffffffffff8516906388d686049061133f9086908690600401612d01565b6000610a36610fad8686600286016110a6565b6040517fcaa0eb3b00000000000000000000000000000000000000000000000000000000815260009073ffffffffffffffffffffffffffffffffffffffff86169063caa0eb3b90611b5090879087908790600401612d30565b602060405180830381865afa158015611b6d573d6000803e3d6000fd5b505050506040513d601f19601f82011682018060405250810190610a369190612a3e565b6000610a36610fad8686600386016110a6565b60008060015b60088111611bfb576000611bbe8683611ffa565b90506000611bcc8684611ffa565b90506000611bda83836116f8565b9050611bea8560018603836120b2565b94505060019092019150611baa9050565b509392505050565b600061089b8385600f16600487901c600f168561213c565b6000602083019050611043818385516121e2565b5b60208110611c6d5782518252602092830192909101907fffffffffffffffffffffffffffffffffffffffffffffffffffffffffffffffe001611c30565b8015611043577fffffffffffffffffffffffffffffffffffffffffffffffffffffffffffffffff600882021c80835116811985511617835250505050565b60008060008473ffffffffffffffffffffffffffffffffffffffff1663feaf968c6040518163ffffffff1660e01b815260040160a060405180830381865afa158015611cfb573d6000803e3d6000fd5b505050506040513d601f19601f82011682018060405250810190611d1f9190612d7f565b5093505092505060008213611d63576040517f3351e26f000000000000000000000000000000000000000000000000000000008152600481018390526024016100b8565b83611d6e8242612ccd565b1115611db0576040517f2730eb4800000000000000000000000000000000000000000000000000000000815260048101829052602481018590526044016100b8565b610a368573ffffffffffffffffffffffffffffffffffffffff1663313ce5676040518163ffffffff1660e01b8152600401602060405180830381865afa158015611dfe573d6000803e3d6000fd5b505050506040513d601f19601f82011682018060405250810190611e229190612dcf565b60ff166000611e308561220a565b9190611eb0565b81606001518111611e975760608201516040830151602091030460408301516020908303046040517f625e32e4000000000000000000000000000000000000000000000000000000008152600481019290925260248201526044016100b8565b5050565b8160800151811115611e975760809190910152565b60008083601203611ec457849150506105e7565b8360121115611ef057506012839003611ee8611ee182600a612c96565b86906116c7565b9150506105e7565b507fffffffffffffffffffffffffffffffffffffffffffffffffffffffffffffffee8301611ee885828561227a565b600061089b84670de0b6b3a764000085856122d2565b600061089b8484670de0b6b3a7640000856122d2565b60008260000b600003611f5f5750826105e7565b60008360000b1315611f8757611f80611f7984600a612df2565b85906116c7565b90506105e7565b60ff600084900316611ee885828561227a565b60008060128403611fae57849150506105e7565b8360121115611fc857836012039050611ee885828561227a565b507fffffffffffffffffffffffffffffffffffffffffffffffffffffffffffffffee8301611ee8611ee182600a612c96565b6000816008811115612068576040517f08c379a000000000000000000000000000000000000000000000000000000000815260206004820152600860248201527f4d41585f5449455200000000000000000000000000000000000000000000000060448201526064016100b8565b8260000361207957600091506120ab565b63ffffffff60207fffffffffffffffffffffffffffffffffffffffffffffffffffffffffffffffff85010285901c1691505b5092915050565b6000826008811115612120576040517f08c379a000000000000000000000000000000000000000000000000000000000815260206004820152600860248201527f4d41585f5449455200000000000000000000000000000000000000000000000060448201526064016100b8565b505060209190910290811b63ffffffff90911b19919091161790565b60008260088111156121aa576040517f08c379a000000000000000000000000000000000000000000000000000000000815260206004820152600860248201527f4d41585f5449455200000000000000000000000000000000000000000000000060448201526064016100b8565b6000855b858110156121d65763ffffffff6020820290811b199890981685891b179791506001016121ae565b50959695505050505050565b8060200283015b808410156122045783518352602093840193909201916121e9565b50505050565b600080821215612276576040517f08c379a000000000000000000000000000000000000000000000000000000000815260206004820181905260248201527f53616665436173743a2076616c7565206d75737420626520706f73697469766560448201526064016100b8565b5090565b60008061228884600a612c96565b905060006122968287612722565b905060018460028111156122ac576122ac6129c6565b1480156122c257506122be8282612cb6565b8614155b15610a3657610ca76001826129f5565b6000806122e0868686612322565b905060018360028111156122f6576122f66129c6565b1480156122c257506000848061230e5761230e6126c4565b8688091115610a3657610ca76001826129f5565b600080807fffffffffffffffffffffffffffffffffffffffffffffffffffffffffffffffff8587098587029250828110838203039150508060000361237a57838281612370576123706126c4565b04925050506105e7565b80841161238657600080fd5b60008486880960026001871981018816978890046003810283188082028403028082028403028082028403028082028403028082028403029081029092039091026000889003889004909101858311909403939093029303949094049190911702949350505050565b6123f7612e01565b565b7f4e487b7100000000000000000000000000000000000000000000000000000000600052604160045260246000fd5b6040805190810167ffffffffffffffff8111828210171561244b5761244b6123f9565b60405290565b604051601f82017fffffffffffffffffffffffffffffffffffffffffffffffffffffffffffffffe016810167ffffffffffffffff81118282101715612498576124986123f9565b604052919050565b600067ffffffffffffffff8211156124ba576124ba6123f9565b5060051b60200190565b600082601f8301126124d557600080fd5b813560206124ea6124e5836124a0565b612451565b82815260059290921b8401810191818101908684111561250957600080fd5b8286015b84811015612524578035835291830191830161250d565b509695505050505050565b6000806040838503121561254257600080fd5b823567ffffffffffffffff8082111561255a57600080fd5b908401906040828703121561256e57600080fd5b612576612428565b82358281111561258557600080fd5b8301601f8101881361259657600080fd5b803560206125a66124e5836124a0565b82815260059290921b8301810191818101908b8411156125c557600080fd5b8285015b8481101561266f578035888111156125e15760008081fd5b8601603f81018e136125f35760008081fd5b8481013589811115612607576126076123f9565b612637867fffffffffffffffffffffffffffffffffffffffffffffffffffffffffffffffe0601f84011601612451565b8181528f604083850101111561264d5760008081fd5b81604084018883013760009181018701919091528452509183019183016125c9565b508552508581013592508483111561268657600080fd5b6126928a8488016124c4565b8482015292965050508501359150808211156126ad57600080fd5b506126ba858286016124c4565b9150509250929050565b7f4e487b7100000000000000000000000000000000000000000000000000000000600052601260045260246000fd5b7f4e487b7100000000000000000000000000000000000000000000000000000000600052601160045260246000fd5b600082612731576127316126c4565b500490565b7f4e487b7100000000000000000000000000000000000000000000000000000000600052603260045260246000fd5b60007fffffffffffffffffffffffffffffffffffffffffffffffffffffffffffffffff8203612796576127966126f3565b5060010190565b60005b838110156127b85781810151838201526020016127a0565b50506000910152565b600081518084526020808501945080840160005b838110156127f1578151875295820195908201906001016127d5565b509495945050505050565b73ffffffffffffffffffffffffffffffffffffffff831681526000602060408184015260808301845160408086015281815180845260a08701915060a08160051b8801019350848301925060005b818110156128cc577fffffffffffffffffffffffffffffffffffffffffffffffffffffffffffffff608886030183528351805180875261288f818989018a850161279d565b601f017fffffffffffffffffffffffffffffffffffffffffffffffffffffffffffffffe0169590950186019450928501929185019160010161284a565b50505050908401518382037fffffffffffffffffffffffffffffffffffffffffffffffffffffffffffffffc001606085015290610ca781836127c1565b600081526000825161292281600185016020870161279d565b9190910160010192915050565b7f630000000000000000000000000000000000000000000000000000000000000081527fffffffff000000000000000000000000000000000000000000000000000000008360e01b1660018201527f80600e6000396000f300000000000000000000000000000000000000000000006005820152600082516129b881600e85016020870161279d565b91909101600e019392505050565b7f4e487b7100000000000000000000000000000000000000000000000000000000600052602160045260246000fd5b80820180821115610244576102446126f3565b815160009082906020808601845b83811015612a3257815185529382019390820190600101612a16565b50929695505050505050565b600060208284031215612a5057600080fd5b5051919050565b600060208284031215612a6957600080fd5b815173ffffffffffffffffffffffffffffffffffffffff811681146105e757600080fd5b604080825283519082018190526000906020906060840190828701845b82811015612adc57815173ffffffffffffffffffffffffffffffffffffffff1684529284019290840190600101612aaa565b50505083810382850152610ca781866127c1565b60006020808385031215612b0357600080fd5b825167ffffffffffffffff811115612b1a57600080fd5b8301601f81018513612b2b57600080fd5b8051612b396124e5826124a0565b81815260059190911b82018301908381019087831115612b5857600080fd5b928401925b82841015610ac157835182529284019290840190612b5d565b600181815b80851115612bcf57817fffffffffffffffffffffffffffffffffffffffffffffffffffffffffffffffff04821115612bb557612bb56126f3565b80851615612bc257918102915b93841c9390800290612b7b565b509250929050565b600082612be657506001610244565b81612bf357506000610244565b8160018114612c095760028114612c1357612c2f565b6001915050610244565b60ff841115612c2457612c246126f3565b50506001821b610244565b5060208310610133831016604e8410600b8410161715612c52575081810a610244565b612c5c8383612b76565b807fffffffffffffffffffffffffffffffffffffffffffffffffffffffffffffffff04821115612c8e57612c8e6126f3565b029392505050565b60006105e78383612bd7565b600082612cb157612cb16126c4565b500690565b8082028115828204841417610244576102446126f3565b81810381811115610244576102446126f3565b600060208284031215612cf257600080fd5b8151600481106105e757600080fd5b73ffffffffffffffffffffffffffffffffffffffff8316815260406020820152600061089b60408301846127c1565b73ffffffffffffffffffffffffffffffffffffffff84168152826020820152606060408201526000610a3660608301846127c1565b805169ffffffffffffffffffff8116811461100d57600080fd5b600080600080600060a08688031215612d9757600080fd5b612da086612d65565b9450602086015193506040860151925060608601519150612dc360808701612d65565b90509295509295909350565b600060208284031215612de157600080fd5b815160ff811681146105e757600080fd5b60006105e760ff841683612bd7565b7f4e487b7100000000000000000000000000000000000000000000000000000000600052605160045260246000fdfe0a010a0f0a650ab70b350b610bfa0cc40df90e2e0e4c0ed40ee30ef10eff0f0d0ee30f1b0f290f370f460f550f630f710fe90ff81007101610251034107d108f109d10cf10dd10eb10f9110811171126113511441153116211711180118f119e11ac11ba11c811d611e411f21200120f121e122c12a3a2646970667358221220e2a87c76a9f69d98d2d133cfb5bf07beb8c33acd261e1f042a7016aac6259b3264736f6c634300081100330a010a0f0a650ab70b350b610bfa0cc40df90e2e0e4c0ed40ee30ef10eff0f0d0ee30f1b0f290f370f460f550f630f710fe90ff81007101610251034107d108f109d10cf10dd10eb10f9110811171126113511441153116211711180118f119e11ac11ba11c811d611e411f21200120f121e122c12a3",
  "linkReferences": {},
  "deployedLinkReferences": {}
}