{
  "_format": "hh-sol-artifact-1",
  "contractName": "RedeemableERC20",
  "sourceName": "contracts/redeemableERC20/RedeemableERC20.sol",
  "abi": [
    {
      "anonymous": false,
      "inputs": [
        {
          "indexed": true,
          "internalType": "address",
          "name": "owner",
          "type": "address"
        },
        {
          "indexed": true,
          "internalType": "address",
          "name": "spender",
          "type": "address"
        },
        {
          "indexed": false,
          "internalType": "uint256",
          "name": "value",
          "type": "uint256"
        }
      ],
      "name": "Approval",
      "type": "event"
    },
    {
      "anonymous": false,
      "inputs": [
        {
          "indexed": false,
          "internalType": "address",
          "name": "sender",
          "type": "address"
        },
        {
          "indexed": false,
          "internalType": "address",
          "name": "tokenSender",
          "type": "address"
        },
        {
          "indexed": false,
          "internalType": "address",
          "name": "token",
          "type": "address"
        }
      ],
      "name": "ERC20PullInitialize",
      "type": "event"
    },
    {
      "anonymous": false,
      "inputs": [
        {
          "indexed": false,
          "internalType": "address",
          "name": "sender",
          "type": "address"
        },
        {
          "components": [
            {
              "internalType": "address",
              "name": "reserve",
              "type": "address"
            },
            {
              "components": [
                {
                  "internalType": "string",
                  "name": "name",
                  "type": "string"
                },
                {
                  "internalType": "string",
                  "name": "symbol",
                  "type": "string"
                },
                {
                  "internalType": "address",
                  "name": "distributor",
                  "type": "address"
                },
                {
                  "internalType": "uint256",
                  "name": "initialSupply",
                  "type": "uint256"
                }
              ],
              "internalType": "struct ERC20Config",
              "name": "erc20Config",
              "type": "tuple"
            },
            {
              "internalType": "contract ITier",
              "name": "tier",
              "type": "address"
            },
            {
              "internalType": "uint256",
              "name": "minimumTier",
              "type": "uint256"
            },
            {
              "internalType": "address",
              "name": "distributionEndForwardingAddress",
              "type": "address"
            }
          ],
          "indexed": false,
          "internalType": "struct RedeemableERC20Config",
          "name": "config",
          "type": "tuple"
        }
      ],
      "name": "Initialize",
      "type": "event"
    },
    {
      "anonymous": false,
      "inputs": [
        {
          "indexed": false,
          "internalType": "address",
          "name": "sender",
          "type": "address"
        },
        {
          "indexed": false,
          "internalType": "uint256",
          "name": "newPhase",
          "type": "uint256"
        },
        {
          "indexed": false,
          "internalType": "uint256",
          "name": "scheduledBlock",
          "type": "uint256"
        }
      ],
      "name": "PhaseScheduled",
      "type": "event"
    },
    {
      "anonymous": false,
      "inputs": [
        {
          "indexed": false,
          "internalType": "address",
          "name": "sender",
          "type": "address"
        },
        {
          "indexed": false,
          "internalType": "address",
          "name": "grantedReceiver",
          "type": "address"
        }
      ],
      "name": "Receiver",
      "type": "event"
    },
    {
      "anonymous": false,
      "inputs": [
        {
          "indexed": false,
          "internalType": "address",
          "name": "sender",
          "type": "address"
        },
        {
          "indexed": false,
          "internalType": "address",
          "name": "treasuryAsset",
          "type": "address"
        },
        {
          "indexed": false,
          "internalType": "uint256",
          "name": "redeemAmount",
          "type": "uint256"
        },
        {
          "indexed": false,
          "internalType": "uint256",
          "name": "assetAmount",
          "type": "uint256"
        }
      ],
      "name": "Redeem",
      "type": "event"
    },
    {
      "anonymous": false,
      "inputs": [
        {
          "indexed": false,
          "internalType": "address",
          "name": "sender",
          "type": "address"
        },
        {
          "indexed": false,
          "internalType": "address",
          "name": "grantedSender",
          "type": "address"
        }
      ],
      "name": "Sender",
      "type": "event"
    },
    {
      "anonymous": false,
      "inputs": [
        {
          "indexed": false,
          "internalType": "address",
          "name": "sender",
          "type": "address"
        },
        {
          "indexed": false,
          "internalType": "address",
          "name": "tierContract",
          "type": "address"
        },
        {
          "indexed": false,
          "internalType": "uint256",
          "name": "constructionBlockNumber",
          "type": "uint256"
        }
      ],
      "name": "TierByConstructionInitialize",
      "type": "event"
    },
    {
      "anonymous": false,
      "inputs": [
        {
          "indexed": true,
          "internalType": "address",
          "name": "from",
          "type": "address"
        },
        {
          "indexed": true,
          "internalType": "address",
          "name": "to",
          "type": "address"
        },
        {
          "indexed": false,
          "internalType": "uint256",
          "name": "value",
          "type": "uint256"
        }
      ],
      "name": "Transfer",
      "type": "event"
    },
    {
      "anonymous": false,
      "inputs": [
        {
          "indexed": false,
          "internalType": "address",
          "name": "sender",
          "type": "address"
        },
        {
          "indexed": false,
          "internalType": "address",
          "name": "asset",
          "type": "address"
        }
      ],
      "name": "TreasuryAsset",
      "type": "event"
    },
    {
      "inputs": [
        {
          "internalType": "address",
          "name": "owner",
          "type": "address"
        },
        {
          "internalType": "address",
          "name": "spender",
          "type": "address"
        }
      ],
      "name": "allowance",
      "outputs": [
        {
          "internalType": "uint256",
          "name": "",
          "type": "uint256"
        }
      ],
      "stateMutability": "view",
      "type": "function"
    },
    {
      "inputs": [
        {
          "internalType": "address",
          "name": "spender",
          "type": "address"
        },
        {
          "internalType": "uint256",
          "name": "amount",
          "type": "uint256"
        }
      ],
      "name": "approve",
      "outputs": [
        {
          "internalType": "bool",
          "name": "",
          "type": "bool"
        }
      ],
      "stateMutability": "nonpayable",
      "type": "function"
    },
    {
      "inputs": [
        {
          "internalType": "address",
          "name": "account",
          "type": "address"
        }
      ],
      "name": "balanceOf",
      "outputs": [
        {
          "internalType": "uint256",
          "name": "",
          "type": "uint256"
        }
      ],
      "stateMutability": "view",
      "type": "function"
    },
    {
      "inputs": [
        {
          "internalType": "uint32[8]",
          "name": "phaseBlocks_",
          "type": "uint32[8]"
        },
        {
          "internalType": "uint256",
          "name": "phase_",
          "type": "uint256"
        }
      ],
      "name": "blockNumberForPhase",
      "outputs": [
        {
          "internalType": "uint256",
          "name": "",
          "type": "uint256"
        }
      ],
      "stateMutability": "pure",
      "type": "function"
    },
    {
      "inputs": [
        {
          "internalType": "uint256",
          "name": "amount",
          "type": "uint256"
        }
      ],
      "name": "burn",
      "outputs": [],
      "stateMutability": "nonpayable",
      "type": "function"
    },
    {
      "inputs": [
        {
          "internalType": "address",
          "name": "account",
          "type": "address"
        },
        {
          "internalType": "uint256",
          "name": "amount",
          "type": "uint256"
        }
      ],
      "name": "burnFrom",
      "outputs": [],
      "stateMutability": "nonpayable",
      "type": "function"
    },
    {
      "inputs": [],
      "name": "currentPhase",
      "outputs": [
        {
          "internalType": "uint256",
          "name": "",
          "type": "uint256"
        }
      ],
      "stateMutability": "view",
      "type": "function"
    },
    {
      "inputs": [],
      "name": "decimals",
      "outputs": [
        {
          "internalType": "uint8",
          "name": "",
          "type": "uint8"
        }
      ],
      "stateMutability": "view",
      "type": "function"
    },
    {
      "inputs": [
        {
          "internalType": "address",
          "name": "spender",
          "type": "address"
        },
        {
          "internalType": "uint256",
          "name": "subtractedValue",
          "type": "uint256"
        }
      ],
      "name": "decreaseAllowance",
      "outputs": [
        {
          "internalType": "bool",
          "name": "",
          "type": "bool"
        }
      ],
      "stateMutability": "nonpayable",
      "type": "function"
    },
    {
      "inputs": [
        {
          "internalType": "address",
          "name": "distributor_",
          "type": "address"
        }
      ],
      "name": "endDistribution",
      "outputs": [],
      "stateMutability": "nonpayable",
      "type": "function"
    },
    {
      "inputs": [
        {
          "internalType": "address",
          "name": "newReceiver_",
          "type": "address"
        }
      ],
      "name": "grantReceiver",
      "outputs": [],
      "stateMutability": "nonpayable",
      "type": "function"
    },
    {
      "inputs": [
        {
          "internalType": "address",
          "name": "newSender_",
          "type": "address"
        }
      ],
      "name": "grantSender",
      "outputs": [],
      "stateMutability": "nonpayable",
      "type": "function"
    },
    {
      "inputs": [
        {
          "internalType": "address",
          "name": "spender",
          "type": "address"
        },
        {
          "internalType": "uint256",
          "name": "addedValue",
          "type": "uint256"
        }
      ],
      "name": "increaseAllowance",
      "outputs": [
        {
          "internalType": "bool",
          "name": "",
          "type": "bool"
        }
      ],
      "stateMutability": "nonpayable",
      "type": "function"
    },
    {
      "inputs": [
        {
          "components": [
            {
              "internalType": "address",
              "name": "reserve",
              "type": "address"
            },
            {
              "components": [
                {
                  "internalType": "string",
                  "name": "name",
                  "type": "string"
                },
                {
                  "internalType": "string",
                  "name": "symbol",
                  "type": "string"
                },
                {
                  "internalType": "address",
                  "name": "distributor",
                  "type": "address"
                },
                {
                  "internalType": "uint256",
                  "name": "initialSupply",
                  "type": "uint256"
                }
              ],
              "internalType": "struct ERC20Config",
              "name": "erc20Config",
              "type": "tuple"
            },
            {
              "internalType": "contract ITier",
              "name": "tier",
              "type": "address"
            },
            {
              "internalType": "uint256",
              "name": "minimumTier",
              "type": "uint256"
            },
            {
              "internalType": "address",
              "name": "distributionEndForwardingAddress",
              "type": "address"
            }
          ],
          "internalType": "struct RedeemableERC20Config",
          "name": "config_",
          "type": "tuple"
        }
      ],
      "name": "initialize",
      "outputs": [],
      "stateMutability": "nonpayable",
      "type": "function"
    },
    {
      "inputs": [
        {
          "internalType": "address",
          "name": "maybeReceiver_",
          "type": "address"
        }
      ],
      "name": "isReceiver",
      "outputs": [
        {
          "internalType": "bool",
          "name": "",
          "type": "bool"
        }
      ],
      "stateMutability": "view",
      "type": "function"
    },
    {
      "inputs": [
        {
          "internalType": "address",
          "name": "maybeSender_",
          "type": "address"
        }
      ],
      "name": "isSender",
      "outputs": [
        {
          "internalType": "bool",
          "name": "",
          "type": "bool"
        }
      ],
      "stateMutability": "view",
      "type": "function"
    },
    {
      "inputs": [
        {
          "internalType": "address",
          "name": "account_",
          "type": "address"
        },
        {
          "internalType": "uint256",
          "name": "minimumTier_",
          "type": "uint256"
        }
      ],
      "name": "isTier",
      "outputs": [
        {
          "internalType": "bool",
          "name": "",
          "type": "bool"
        }
      ],
      "stateMutability": "view",
      "type": "function"
    },
    {
      "inputs": [],
      "name": "minimumTier",
      "outputs": [
        {
          "internalType": "uint256",
          "name": "",
          "type": "uint256"
        }
      ],
      "stateMutability": "view",
      "type": "function"
    },
    {
      "inputs": [],
      "name": "name",
      "outputs": [
        {
          "internalType": "string",
          "name": "",
          "type": "string"
        }
      ],
      "stateMutability": "view",
      "type": "function"
    },
    {
      "inputs": [
        {
          "internalType": "address",
          "name": "newTreasuryAsset_",
          "type": "address"
        }
      ],
      "name": "newTreasuryAsset",
      "outputs": [],
      "stateMutability": "nonpayable",
      "type": "function"
    },
    {
      "inputs": [
        {
          "internalType": "uint32[8]",
          "name": "phaseBlocks_",
          "type": "uint32[8]"
        },
        {
          "internalType": "uint256",
          "name": "blockNumber_",
          "type": "uint256"
        }
      ],
      "name": "phaseAtBlockNumber",
      "outputs": [
        {
          "internalType": "uint256",
          "name": "",
          "type": "uint256"
        }
      ],
      "stateMutability": "pure",
      "type": "function"
    },
    {
      "inputs": [
        {
          "internalType": "uint256",
          "name": "",
          "type": "uint256"
        }
      ],
      "name": "phaseBlocks",
      "outputs": [
        {
          "internalType": "uint32",
          "name": "",
          "type": "uint32"
        }
      ],
      "stateMutability": "view",
      "type": "function"
    },
    {
      "inputs": [
        {
          "internalType": "uint256",
          "name": "amount_",
          "type": "uint256"
        }
      ],
      "name": "pullERC20",
      "outputs": [],
      "stateMutability": "nonpayable",
      "type": "function"
    },
    {
      "inputs": [
        {
          "internalType": "contract IERC20[]",
          "name": "treasuryAssets_",
          "type": "address[]"
        },
        {
          "internalType": "uint256",
          "name": "redeemAmount_",
          "type": "uint256"
        }
      ],
      "name": "redeem",
      "outputs": [],
      "stateMutability": "nonpayable",
      "type": "function"
    },
    {
      "inputs": [],
      "name": "symbol",
      "outputs": [
        {
          "internalType": "string",
          "name": "",
          "type": "string"
        }
      ],
      "stateMutability": "view",
      "type": "function"
    },
    {
      "inputs": [],
      "name": "totalSupply",
      "outputs": [
        {
          "internalType": "uint256",
          "name": "",
          "type": "uint256"
        }
      ],
      "stateMutability": "view",
      "type": "function"
    },
    {
      "inputs": [
        {
          "internalType": "address",
          "name": "to",
          "type": "address"
        },
        {
          "internalType": "uint256",
          "name": "amount",
          "type": "uint256"
        }
      ],
      "name": "transfer",
      "outputs": [
        {
          "internalType": "bool",
          "name": "",
          "type": "bool"
        }
      ],
      "stateMutability": "nonpayable",
      "type": "function"
    },
    {
      "inputs": [
        {
          "internalType": "address",
          "name": "from",
          "type": "address"
        },
        {
          "internalType": "address",
          "name": "to",
          "type": "address"
        },
        {
          "internalType": "uint256",
          "name": "amount",
          "type": "uint256"
        }
      ],
      "name": "transferFrom",
      "outputs": [
        {
          "internalType": "bool",
          "name": "",
          "type": "bool"
        }
      ],
      "stateMutability": "nonpayable",
      "type": "function"
    }
  ],
  "bytecode": "0x608060405234801561001057600080fd5b50613627806100206000396000f3fe608060405234801561001057600080fd5b50600436106101c45760003560e01c80638246df01116100f9578063b8ffd02c11610097578063e7ae91fe11610071578063e7ae91fe14610449578063ece760e91461045c578063f1ebd5dd1461046f578063f677de961461047857600080fd5b8063b8ffd02c146103b7578063dd62ed3e146103ca578063e38434631461041057600080fd5b80639923c94b116100d35780639923c94b14610356578063a457c2d71461037e578063a9059cbb14610391578063b7a3c828146103a457600080fd5b80638246df01146103285780638b24259b1461033b57806395d89b411461034e57600080fd5b80633833be621161016657806342966c681161014057806342966c68146102b9578063634991af146102cc57806370a08231146102df57806379cc67901461031557600080fd5b80633833be621461025b578063392243e11461026e57806339509351146102a657600080fd5b8063095ea7b3116101a2578063095ea7b31461020e57806318160ddd1461023157806323b872dd14610239578063313ce5671461024c57600080fd5b8063038ef03e146101c9578063055ad42e146101de57806306fdde03146101f9575b600080fd5b6101dc6101d7366004612daa565b61048b565b005b6101e66104dd565b6040519081526020015b60405180910390f35b610201610548565b6040516101f09190612e3d565b61022161021c366004612e50565b6105da565b60405190151581526020016101f0565b6038546101e6565b610221610247366004612e7c565b6105f4565b604051601281526020016101f0565b6101dc610269366004612daa565b61061a565b61022161027c366004612daa565b73ffffffffffffffffffffffffffffffffffffffff166000908152609d6020526040902054151590565b6102216102b4366004612e50565b610704565b6101dc6102c7366004612ebd565b610750565b6101e66102da366004612fa0565b61075d565b6101e66102ed366004612daa565b73ffffffffffffffffffffffffffffffffffffffff1660009081526036602052604090205490565b6101dc610323366004612e50565b6107b1565b6101dc6103363660046130c4565b6107ca565b6101dc610349366004612daa565b610be1565b610201610d69565b610369610364366004612ebd565b610d78565b60405163ffffffff90911681526020016101f0565b61022161038c366004612e50565b610da8565b61022161039f366004612e50565b610e84565b6101dc6103b2366004612ebd565b610e92565b6101e66103c5366004612fa0565b610ebd565b6101e66103d83660046131e2565b73ffffffffffffffffffffffffffffffffffffffff918216600090815260376020908152604080832093909416825291909152205490565b61022161041e366004612daa565b73ffffffffffffffffffffffffffffffffffffffff166000908152609d602052604090205460011090565b6101dc610457366004612daa565b610efc565b61022161046a366004612e50565b610fde565b6101e6609e5481565b6101dc61048636600461321b565b61108a565b6040805133815273ffffffffffffffffffffffffffffffffffffffff831660208201527f2ab01e95cf254bfe2f3e7e2a70a40262c15f0c753a586568529e3b109c567d5691015b60405180910390a150565b6040805161010081019182905260009161054391906001906008908286855b82829054906101000a900463ffffffff1663ffffffff16815260200190600401906020826003010492830192600103820291508084116104fc57905050505050504361075d565b905090565b606060398054610557906132d3565b80601f0160208091040260200160405190810160405280929190818152602001828054610583906132d3565b80156105d05780601f106105a5576101008083540402835291602001916105d0565b820191906000526020600020905b8154815290600101906020018083116105b357829003601f168201915b5050505050905090565b6000336105e881858561110b565b60019150505b92915050565b6000336106028582856112be565b61060d85858561138f565b60019150505b9392505050565b609c5473ffffffffffffffffffffffffffffffffffffffff1633146106a0576040517f08c379a000000000000000000000000000000000000000000000000000000000815260206004820152600a60248201527f4f4e4c595f41444d494e0000000000000000000000000000000000000000000060448201526064015b60405180910390fd5b73ffffffffffffffffffffffffffffffffffffffff81166000818152609d6020908152604091829020805460011790558151338152908101929092527f4d987a7fff11f6c57bdc4d0bd5a7c4cc2dfe97c90212583bca465b19df29b64791016104d2565b33600081815260376020908152604080832073ffffffffffffffffffffffffffffffffffffffff871684529091528120549091906105e8908290869061074b908790613356565b61110b565b61075a338261164d565b50565b6000805b60088110156107a75783816008811061077c5761077c61336e565b602002015163ffffffff168310156107955790506105ee565b8061079f8161339d565b915050610761565b5060089392505050565b6107bc8233836112be565b6107c6828261164d565b5050565b600054610100900460ff166107e55760005460ff16156107e9565b303b155b610875576040517f08c379a000000000000000000000000000000000000000000000000000000000815260206004820152602e60248201527f496e697469616c697a61626c653a20636f6e747261637420697320616c72656160448201527f647920696e697469616c697a65640000000000000000000000000000000000006064820152608401610697565b600054610100900460ff161580156108b457600080547fffffffffffffffffffffffffffffffffffffffffffffffffffffffffffff0000166101011790555b6108bc611846565b6108c982604001516118f0565b60208083015180519101516108de9190611a18565b610933604051806040016040528084602001516040015173ffffffffffffffffffffffffffffffffffffffff168152602001846000015173ffffffffffffffffffffffffffffffffffffffff16815250611ab9565b670de0b6b3a764000082602001516060015110156109ad576040517f08c379a000000000000000000000000000000000000000000000000000000000815260206004820152601660248201527f4d494e494d554d5f494e495449414c5f535550504c59000000000000000000006044820152606401610697565b6060820151609e556080820151609f80547fffffffffffffffffffffffff00000000000000000000000000000000000000001673ffffffffffffffffffffffffffffffffffffffff9283161781556000808052609d602090815260037fc5dc36ae4e7617e4c4d23ddfcde33c79e9ed64c300aed766a9288a6b9b31f63d5585015160409081015184168252902060019055541615610a7157609f5473ffffffffffffffffffffffffffffffffffffffff166000908152609d60205260409020600190555b60208201516040810151609c80547fffffffffffffffffffffffff00000000000000000000000000000000000000001673ffffffffffffffffffffffffffffffffffffffff8316179055606090910151610acb9190611c9c565b8151610ad69061048b565b7fc728c434ad674ff33ed457eadebfea8cb20f3e5f73ee77290a389a0348d965793383604051610b079291906133d6565b60405180910390a160408083015190517fe053ea3100000000000000000000000000000000000000000000000000000000815233600482015273ffffffffffffffffffffffffffffffffffffffff9091169063e053ea3190602401602060405180830381865afa158015610b7f573d6000803e3d6000fd5b505050506040513d601f19601f82011682018060405250810190610ba391906134dc565b50610baf600143611dc8565b80156107c657600080547fffffffffffffffffffffffffffffffffffffffffffffffffffffffffffff00ff1690555050565b600180610bec6104dd565b14610c53576040517f08c379a000000000000000000000000000000000000000000000000000000000815260206004820152600960248201527f4241445f504841534500000000000000000000000000000000000000000000006044820152606401610697565b609c5473ffffffffffffffffffffffffffffffffffffffff163314610cd4576040517f08c379a000000000000000000000000000000000000000000000000000000000815260206004820152600a60248201527f4f4e4c595f41444d494e000000000000000000000000000000000000000000006044820152606401610697565b610cdf600243611dc8565b609f5473ffffffffffffffffffffffffffffffffffffffff166000610d268473ffffffffffffffffffffffffffffffffffffffff1660009081526036602052604090205490565b90508015610d635773ffffffffffffffffffffffffffffffffffffffff8216610d5857610d53848261164d565b610d63565b610d6384838361138f565b50505050565b6060603a8054610557906132d3565b60018160088110610d8857600080fd5b60089182820401919006600402915054906101000a900463ffffffff1681565b33600081815260376020908152604080832073ffffffffffffffffffffffffffffffffffffffff8716845290915281205490919083811015610e6c576040517f08c379a000000000000000000000000000000000000000000000000000000000815260206004820152602560248201527f45524332303a2064656372656173656420616c6c6f77616e63652062656c6f7760448201527f207a65726f0000000000000000000000000000000000000000000000000000006064820152608401610697565b610e79828686840361110b565b506001949350505050565b6000336105e881858561138f565b609a54609b5461075a9173ffffffffffffffffffffffffffffffffffffffff91821691163084612071565b6000808211610ecd576000610eef565b82610ed96001846134f5565b60088110610ee957610ee961336e565b60200201515b63ffffffff169392505050565b609c5473ffffffffffffffffffffffffffffffffffffffff163314610f7d576040517f08c379a000000000000000000000000000000000000000000000000000000000815260206004820152600a60248201527f4f4e4c595f41444d494e000000000000000000000000000000000000000000006044820152606401610697565b73ffffffffffffffffffffffffffffffffffffffff81166000818152609d6020908152604091829020600390558151338152908101929092527f2960695afa2609b7591ca0b79d5586f853e610ce0515852f7a5ced78fd32ade991016104d2565b6002546040517fe053ea3100000000000000000000000000000000000000000000000000000000815273ffffffffffffffffffffffffffffffffffffffff848116600483015260009261107e9291169063e053ea3190602401602060405180830381865afa158015611054573d6000803e3d6000fd5b505050506040513d601f19601f8201168201806040525081019061107891906134dc565b8361214d565b60035410159392505050565b6002806110956104dd565b146110fc576040517f08c379a000000000000000000000000000000000000000000000000000000000815260206004820152600960248201527f4241445f504841534500000000000000000000000000000000000000000000006044820152606401610697565b6111068383612202565b505050565b73ffffffffffffffffffffffffffffffffffffffff83166111ad576040517f08c379a0000000000000000000000000000000000000000000000000000000008152602060048201526024808201527f45524332303a20617070726f76652066726f6d20746865207a65726f2061646460448201527f72657373000000000000000000000000000000000000000000000000000000006064820152608401610697565b73ffffffffffffffffffffffffffffffffffffffff8216611250576040517f08c379a000000000000000000000000000000000000000000000000000000000815260206004820152602260248201527f45524332303a20617070726f766520746f20746865207a65726f20616464726560448201527f73730000000000000000000000000000000000000000000000000000000000006064820152608401610697565b73ffffffffffffffffffffffffffffffffffffffff83811660008181526037602090815260408083209487168084529482529182902085905590518481527f8c5be1e5ebec7d5bd14f71427d1e84f3dd0314c0f7b2291e5b200ac8c7c3b925910160405180910390a3505050565b73ffffffffffffffffffffffffffffffffffffffff8381166000908152603760209081526040808320938616835292905220547fffffffffffffffffffffffffffffffffffffffffffffffffffffffffffffffff8114610d635781811015611382576040517f08c379a000000000000000000000000000000000000000000000000000000000815260206004820152601d60248201527f45524332303a20696e73756666696369656e7420616c6c6f77616e63650000006044820152606401610697565b610d63848484840361110b565b73ffffffffffffffffffffffffffffffffffffffff8316611432576040517f08c379a000000000000000000000000000000000000000000000000000000000815260206004820152602560248201527f45524332303a207472616e736665722066726f6d20746865207a65726f20616460448201527f64726573730000000000000000000000000000000000000000000000000000006064820152608401610697565b73ffffffffffffffffffffffffffffffffffffffff82166114d5576040517f08c379a000000000000000000000000000000000000000000000000000000000815260206004820152602360248201527f45524332303a207472616e7366657220746f20746865207a65726f206164647260448201527f65737300000000000000000000000000000000000000000000000000000000006064820152608401610697565b6114e08383836125a7565b73ffffffffffffffffffffffffffffffffffffffff831660009081526036602052604090205481811015611596576040517f08c379a000000000000000000000000000000000000000000000000000000000815260206004820152602660248201527f45524332303a207472616e7366657220616d6f756e742065786365656473206260448201527f616c616e636500000000000000000000000000000000000000000000000000006064820152608401610697565b73ffffffffffffffffffffffffffffffffffffffff8085166000908152603660205260408082208585039055918516815290812080548492906115da908490613356565b925050819055508273ffffffffffffffffffffffffffffffffffffffff168473ffffffffffffffffffffffffffffffffffffffff167fddf252ad1be2c89b69c2b068fc378daa952ba7f163c4a11628f55a4df523b3ef8460405161164091815260200190565b60405180910390a3610d63565b73ffffffffffffffffffffffffffffffffffffffff82166116f0576040517f08c379a000000000000000000000000000000000000000000000000000000000815260206004820152602160248201527f45524332303a206275726e2066726f6d20746865207a65726f2061646472657360448201527f73000000000000000000000000000000000000000000000000000000000000006064820152608401610697565b6116fc826000836125a7565b73ffffffffffffffffffffffffffffffffffffffff8216600090815260366020526040902054818110156117b2576040517f08c379a000000000000000000000000000000000000000000000000000000000815260206004820152602260248201527f45524332303a206275726e20616d6f756e7420657863656564732062616c616e60448201527f63650000000000000000000000000000000000000000000000000000000000006064820152608401610697565b73ffffffffffffffffffffffffffffffffffffffff831660009081526036602052604081208383039055603880548492906117ee9084906134f5565b909155505060405182815260009073ffffffffffffffffffffffffffffffffffffffff8516907fddf252ad1be2c89b69c2b068fc378daa952ba7f163c4a11628f55a4df523b3ef9060200160405180910390a3505050565b6001805463ffffffff161061185d5761185d61350c565b604080516101008101825263ffffffff80825260208201819052918101829052606081018290526080810182905260a0810182905260c0810182905260e08101919091526118ae6001826008612c53565b5060408051338152600060208201819052918101919091527fba85f6676f17ca992195e3cb204ae48c68666b109edc14a794e5d894387d25d3906060016104d2565b73ffffffffffffffffffffffffffffffffffffffff811661196d576040517f08c379a000000000000000000000000000000000000000000000000000000000815260206004820152601160248201527f5a45524f5f544945525f414444524553530000000000000000000000000000006044820152606401610697565b60025473ffffffffffffffffffffffffffffffffffffffff16156119935761199361350c565b600280547fffffffffffffffffffffffff00000000000000000000000000000000000000001673ffffffffffffffffffffffffffffffffffffffff83169081179091554360038190556040805133815260208101939093528201527fc9a9852079c3604c610068c3a50e09dc64e772e55e636968f6f8d5ae366856d2906060016104d2565b600054610100900460ff16611aaf576040517f08c379a000000000000000000000000000000000000000000000000000000000815260206004820152602b60248201527f496e697469616c697a61626c653a20636f6e7472616374206973206e6f74206960448201527f6e697469616c697a696e670000000000000000000000000000000000000000006064820152608401610697565b6107c68282612833565b805173ffffffffffffffffffffffffffffffffffffffff16611b37576040517f08c379a000000000000000000000000000000000000000000000000000000000815260206004820152600b60248201527f5a45524f5f53454e4445520000000000000000000000000000000000000000006044820152606401610697565b602081015173ffffffffffffffffffffffffffffffffffffffff16611bb8576040517f08c379a000000000000000000000000000000000000000000000000000000000815260206004820152600a60248201527f5a45524f5f544f4b454e000000000000000000000000000000000000000000006044820152606401610697565b609a5473ffffffffffffffffffffffffffffffffffffffff1615611bde57611bde61350c565b609b5473ffffffffffffffffffffffffffffffffffffffff1615611c0457611c0461350c565b8051609a805473ffffffffffffffffffffffffffffffffffffffff9283167fffffffffffffffffffffffff00000000000000000000000000000000000000009182168117909255602080850151609b805491909516921682179093556040805133815293840192909252908201527fe67a5c2dcf68e8fac05314f53ecd2ff0b403ed683c4bfdad15eaec7a8a63f555906060016104d2565b73ffffffffffffffffffffffffffffffffffffffff8216611d19576040517f08c379a000000000000000000000000000000000000000000000000000000000815260206004820152601f60248201527f45524332303a206d696e7420746f20746865207a65726f2061646472657373006044820152606401610697565b611d25600083836125a7565b8060386000828254611d379190613356565b909155505073ffffffffffffffffffffffffffffffffffffffff821660009081526036602052604081208054839290611d71908490613356565b909155505060405181815273ffffffffffffffffffffffffffffffffffffffff8316906000907fddf252ad1be2c89b69c2b068fc378daa952ba7f163c4a11628f55a4df523b3ef9060200160405180910390a35050565b80431115611e32576040517f08c379a000000000000000000000000000000000000000000000000000000000815260206004820152600f60248201527f4e4558545f424c4f434b5f5041535400000000000000000000000000000000006044820152606401610697565b63ffffffff8110611e9f576040517f08c379a000000000000000000000000000000000000000000000000000000000815260206004820152601860248201527f4e4558545f424c4f434b5f554e494e495449414c495a454400000000000000006044820152606401610697565b7fffffffffffffffffffffffffffffffffffffffffffffffffffffffffffffffff820180611ecb6104dd565b14611f32576040517f08c379a000000000000000000000000000000000000000000000000000000000815260206004820152600a60248201527f4e4558545f5048415345000000000000000000000000000000000000000000006044820152606401610697565b60018160088110611f4557611f4561336e565b60088104919091015460079091166004026101000a900463ffffffff90811614611fcb576040517f08c379a000000000000000000000000000000000000000000000000000000000815260206004820152600e60248201527f4e4558545f424c4f434b5f5345540000000000000000000000000000000000006044820152606401610697565b8160018260088110611fdf57611fdf61336e565b600891828204019190066004026101000a81548163ffffffff021916908363ffffffff1602179055507fba85f6676f17ca992195e3cb204ae48c68666b109edc14a794e5d894387d25d33384846040516120649392919073ffffffffffffffffffffffffffffffffffffffff9390931683526020830191909152604082015260600190565b60405180910390a1505050565b60405173ffffffffffffffffffffffffffffffffffffffff80851660248301528316604482015260648101829052610d639085907f23b872dd00000000000000000000000000000000000000000000000000000000906084015b604080517fffffffffffffffffffffffffffffffffffffffffffffffffffffffffffffffe08184030181529190526020810180517bffffffffffffffffffffffffffffffffffffffffffffffffffffffff167fffffffff00000000000000000000000000000000000000000000000000000000909316929092179091526128f1565b60008160088111156121bb576040517f08c379a000000000000000000000000000000000000000000000000000000000815260206004820152600860248201527f4d41585f544945520000000000000000000000000000000000000000000000006044820152606401610697565b826121c957600091506121fb565b63ffffffff60207fffffffffffffffffffffffffffffffffffffffffffffffffffffffffffffffff85010285901c1691505b5092915050565b815160008167ffffffffffffffff81111561221f5761221f612ed6565b604051908082528060200260200182016040528015612248578160200160208202803683370190505b509050600082116122b5576040517f08c379a000000000000000000000000000000000000000000000000000000000815260206004820152600c60248201527f454d5054595f41535345545300000000000000000000000000000000000000006044820152606401610697565b60003073ffffffffffffffffffffffffffffffffffffffff166318160ddd6040518163ffffffff1660e01b8152600401602060405180830381865afa158015612302573d6000803e3d6000fd5b505050506040513d601f19601f8201168201806040525081019061232691906134dc565b90506000805b848110156125195782868883815181106123485761234861336e565b60209081029190910101516040517f70a0823100000000000000000000000000000000000000000000000000000000815230600482015273ffffffffffffffffffffffffffffffffffffffff909116906370a0823190602401602060405180830381865afa1580156123be573d6000803e3d6000fd5b505050506040513d601f19601f820116820180604052508101906123e291906134dc565b6123ec919061353b565b6123f69190613578565b915060008211612462576040517f08c379a000000000000000000000000000000000000000000000000000000000815260206004820152600b60248201527f5a45524f5f414d4f554e540000000000000000000000000000000000000000006044820152606401610697565b7f3f693fff038bb8a046aa76d9516190ac7444f7d69cf952c4cbdc086fdef2d6fc338883815181106124965761249661336e565b602002602001015188856040516124e1949392919073ffffffffffffffffffffffffffffffffffffffff94851681529290931660208301526040820152606081019190915260800190565b60405180910390a1818482815181106124fc576124fc61336e565b6020908102919091010152806125118161339d565b91505061232c565b50612524338661164d565b60005b8481101561259e5761258c338583815181106125455761254561336e565b602002602001015189848151811061255f5761255f61336e565b602002602001015173ffffffffffffffffffffffffffffffffffffffff166129fd9092919063ffffffff16565b806125968161339d565b915050612527565b50505050505050565b73ffffffffffffffffffffffffffffffffffffffff8216301415612627576040517f08c379a000000000000000000000000000000000000000000000000000000000815260206004820152600f60248201527f544f4b454e5f53454e445f53454c4600000000000000000000000000000000006044820152606401610697565b60008111801561268c575073ffffffffffffffffffffffffffffffffffffffff83166000908152609d60205260409020546001108061268a575073ffffffffffffffffffffffffffffffffffffffff82166000908152609d602052604090205415155b155b1561110657600061269b6104dd565b905060018114156127a45773ffffffffffffffffffffffffffffffffffffffff84166000908152609d6020526040902054612732576040517f08c379a000000000000000000000000000000000000000000000000000000000815260206004820152600660248201527f3253504f4b4500000000000000000000000000000000000000000000000000006044820152606401610697565b61273e83609e54610fde565b610d53576040517f08c379a000000000000000000000000000000000000000000000000000000000815260206004820152600860248201527f4d494e5f544945520000000000000000000000000000000000000000000000006044820152606401610697565b600281141561282b5773ffffffffffffffffffffffffffffffffffffffff831615610d53576040517f08c379a000000000000000000000000000000000000000000000000000000000815260206004820152600660248201527f46524f5a454e00000000000000000000000000000000000000000000000000006044820152606401610697565b610d6361350c565b600054610100900460ff166128ca576040517f08c379a000000000000000000000000000000000000000000000000000000000815260206004820152602b60248201527f496e697469616c697a61626c653a20636f6e7472616374206973206e6f74206960448201527f6e697469616c697a696e670000000000000000000000000000000000000000006064820152608401610697565b81516128dd906039906020850190612cef565b50805161110690603a906020840190612cef565b6000612953826040518060400160405280602081526020017f5361666545524332303a206c6f772d6c6576656c2063616c6c206661696c65648152508573ffffffffffffffffffffffffffffffffffffffff16612a539092919063ffffffff16565b805190915015611106578080602001905181019061297191906135b3565b611106576040517f08c379a000000000000000000000000000000000000000000000000000000000815260206004820152602a60248201527f5361666545524332303a204552433230206f7065726174696f6e20646964206e60448201527f6f742073756363656564000000000000000000000000000000000000000000006064820152608401610697565b60405173ffffffffffffffffffffffffffffffffffffffff83166024820152604481018290526111069084907fa9059cbb00000000000000000000000000000000000000000000000000000000906064016120cb565b6060612a628484600085612a6a565b949350505050565b606082471015612afc576040517f08c379a000000000000000000000000000000000000000000000000000000000815260206004820152602660248201527f416464726573733a20696e73756666696369656e742062616c616e636520666f60448201527f722063616c6c00000000000000000000000000000000000000000000000000006064820152608401610697565b73ffffffffffffffffffffffffffffffffffffffff85163b612b7a576040517f08c379a000000000000000000000000000000000000000000000000000000000815260206004820152601d60248201527f416464726573733a2063616c6c20746f206e6f6e2d636f6e74726163740000006044820152606401610697565b6000808673ffffffffffffffffffffffffffffffffffffffff168587604051612ba391906135d5565b60006040518083038185875af1925050503d8060008114612be0576040519150601f19603f3d011682016040523d82523d6000602084013e612be5565b606091505b5091509150612bf5828286612c00565b979650505050505050565b60608315612c0f575081610613565b825115612c1f5782518084602001fd5b816040517f08c379a00000000000000000000000000000000000000000000000000000000081526004016106979190612e3d565b600183019183908215612cdf5791602002820160005b83821115612cad57835183826101000a81548163ffffffff021916908363ffffffff1602179055509260200192600401602081600301049283019260010302612c69565b8015612cdd5782816101000a81549063ffffffff0219169055600401602081600301049283019260010302612cad565b505b50612ceb929150612d63565b5090565b828054612cfb906132d3565b90600052602060002090601f016020900481019282612d1d5760008555612cdf565b82601f10612d3657805160ff1916838001178555612cdf565b82800160010185558215612cdf579182015b82811115612cdf578251825591602001919060010190612d48565b5b80821115612ceb5760008155600101612d64565b73ffffffffffffffffffffffffffffffffffffffff8116811461075a57600080fd5b8035612da581612d78565b919050565b600060208284031215612dbc57600080fd5b813561061381612d78565b60005b83811015612de2578181015183820152602001612dca565b83811115610d635750506000910152565b60008151808452612e0b816020860160208601612dc7565b601f017fffffffffffffffffffffffffffffffffffffffffffffffffffffffffffffffe0169290920160200192915050565b6020815260006106136020830184612df3565b60008060408385031215612e6357600080fd5b8235612e6e81612d78565b946020939093013593505050565b600080600060608486031215612e9157600080fd5b8335612e9c81612d78565b92506020840135612eac81612d78565b929592945050506040919091013590565b600060208284031215612ecf57600080fd5b5035919050565b7f4e487b7100000000000000000000000000000000000000000000000000000000600052604160045260246000fd5b60405160a0810167ffffffffffffffff81118282101715612f2857612f28612ed6565b60405290565b6040516080810167ffffffffffffffff81118282101715612f2857612f28612ed6565b604051601f82017fffffffffffffffffffffffffffffffffffffffffffffffffffffffffffffffe016810167ffffffffffffffff81118282101715612f9857612f98612ed6565b604052919050565b6000806101208385031215612fb457600080fd5b83601f840112612fc357600080fd5b60405161010080820182811067ffffffffffffffff82111715612fe857612fe8612ed6565b60405284018186821115612ffb57600080fd5b855b8281101561302857803563ffffffff8116811461301a5760008081fd5b825260209182019101612ffd565b509196903595509350505050565b600082601f83011261304757600080fd5b813567ffffffffffffffff81111561306157613061612ed6565b61309260207fffffffffffffffffffffffffffffffffffffffffffffffffffffffffffffffe0601f84011601612f51565b8181528460208386010111156130a757600080fd5b816020850160208301376000918101602001919091529392505050565b6000602082840312156130d657600080fd5b813567ffffffffffffffff808211156130ee57600080fd5b9083019060a0828603121561310257600080fd5b61310a612f05565b823561311581612d78565b815260208301358281111561312957600080fd5b83016080818803121561313b57600080fd5b613143612f2e565b81358481111561315257600080fd5b61315e89828501613036565b82525060208201358481111561317357600080fd5b61317f89828501613036565b6020830152506040820135935061319584612d78565b8360408201526060820135606082015280602084015250506131b960408401612d9a565b6040820152606083013560608201526131d460808401612d9a565b608082015295945050505050565b600080604083850312156131f557600080fd5b823561320081612d78565b9150602083013561321081612d78565b809150509250929050565b6000806040838503121561322e57600080fd5b823567ffffffffffffffff8082111561324657600080fd5b818501915085601f83011261325a57600080fd5b813560208282111561326e5761326e612ed6565b8160051b925061327f818401612f51565b828152928401810192818101908985111561329957600080fd5b948201945b848610156132c357853593506132b384612d78565b838252948201949082019061329e565b9997909101359750505050505050565b600181811c908216806132e757607f821691505b60208210811415613321577f4e487b7100000000000000000000000000000000000000000000000000000000600052602260045260246000fd5b50919050565b7f4e487b7100000000000000000000000000000000000000000000000000000000600052601160045260246000fd5b6000821982111561336957613369613327565b500190565b7f4e487b7100000000000000000000000000000000000000000000000000000000600052603260045260246000fd5b60007fffffffffffffffffffffffffffffffffffffffffffffffffffffffffffffffff8214156133cf576133cf613327565b5060010190565b600073ffffffffffffffffffffffffffffffffffffffff808516835260406020840152808451166040840152602084015160a060608501528051608060e0860152613425610160860182612df3565b905060208201517fffffffffffffffffffffffffffffffffffffffffffffffffffffffffffffff20868303016101008701526134618282612df3565b915050826040830151166101208601526060820151610140860152604086015192506134a5608086018473ffffffffffffffffffffffffffffffffffffffff169052565b606086015160a0860152608086015173ffffffffffffffffffffffffffffffffffffffff811660c087015292509695505050505050565b6000602082840312156134ee57600080fd5b5051919050565b60008282101561350757613507613327565b500390565b7f4e487b7100000000000000000000000000000000000000000000000000000000600052600160045260246000fd5b6000817fffffffffffffffffffffffffffffffffffffffffffffffffffffffffffffffff048311821515161561357357613573613327565b500290565b6000826135ae577f4e487b7100000000000000000000000000000000000000000000000000000000600052601260045260246000fd5b500490565b6000602082840312156135c557600080fd5b8151801515811461061357600080fd5b600082516135e7818460208701612dc7565b919091019291505056fea2646970667358221220041ef04ec67894927799387fbe1962a1a41f7fe9800acff186de1f850e96415b64736f6c634300080a0033",
  "linkReferences": {},
  "deployedLinkReferences": {}
}