{
  "_format": "hh-sol-artifact-1",
  "contractName": "RedeemableERC20",
  "sourceName": "contracts/redeemableERC20/RedeemableERC20.sol",
  "abi": [
    {
      "anonymous": false,
      "inputs": [
        {
          "indexed": true,
          "internalType": "address",
          "name": "owner",
          "type": "address"
        },
        {
          "indexed": true,
          "internalType": "address",
          "name": "spender",
          "type": "address"
        },
        {
          "indexed": false,
          "internalType": "uint256",
          "name": "value",
          "type": "uint256"
        }
      ],
      "name": "Approval",
      "type": "event"
    },
    {
      "anonymous": false,
      "inputs": [
        {
          "indexed": false,
          "internalType": "address",
          "name": "sender",
          "type": "address"
        },
        {
          "indexed": false,
          "internalType": "address",
          "name": "tokenSender",
          "type": "address"
        },
        {
          "indexed": false,
          "internalType": "address",
          "name": "token",
          "type": "address"
        }
      ],
      "name": "ERC20PullInitialize",
      "type": "event"
    },
    {
      "anonymous": false,
      "inputs": [
        {
          "indexed": false,
          "internalType": "address",
          "name": "sender",
          "type": "address"
        },
        {
          "indexed": false,
          "internalType": "address",
          "name": "admin",
          "type": "address"
        },
        {
          "indexed": false,
          "internalType": "uint256",
          "name": "minimumTier",
          "type": "uint256"
        }
      ],
      "name": "Initialize",
      "type": "event"
    },
    {
      "anonymous": false,
      "inputs": [
        {
          "indexed": false,
          "internalType": "address",
          "name": "sender",
          "type": "address"
        },
        {
          "indexed": false,
          "internalType": "uint256",
          "name": "newPhase",
          "type": "uint256"
        },
        {
          "indexed": false,
          "internalType": "uint256",
          "name": "scheduledBlock",
          "type": "uint256"
        }
      ],
      "name": "PhaseScheduled",
      "type": "event"
    },
    {
      "anonymous": false,
      "inputs": [
        {
          "indexed": false,
          "internalType": "address",
          "name": "sender",
          "type": "address"
        },
        {
          "indexed": false,
          "internalType": "address",
          "name": "grantedReceiver",
          "type": "address"
        }
      ],
      "name": "Receiver",
      "type": "event"
    },
    {
      "anonymous": false,
      "inputs": [
        {
          "indexed": false,
          "internalType": "address",
          "name": "sender",
          "type": "address"
        },
        {
          "indexed": false,
          "internalType": "address",
          "name": "treasuryAsset",
          "type": "address"
        },
        {
          "indexed": false,
          "internalType": "uint256[2]",
          "name": "redeemAmounts",
          "type": "uint256[2]"
        }
      ],
      "name": "Redeem",
      "type": "event"
    },
    {
      "anonymous": false,
      "inputs": [
        {
          "indexed": false,
          "internalType": "address",
          "name": "sender",
          "type": "address"
        },
        {
          "indexed": false,
          "internalType": "address",
          "name": "grantedSender",
          "type": "address"
        }
      ],
      "name": "Sender",
      "type": "event"
    },
    {
      "anonymous": false,
      "inputs": [
        {
          "indexed": false,
          "internalType": "address",
          "name": "sender",
          "type": "address"
        },
        {
          "indexed": false,
          "internalType": "address",
          "name": "tierContract",
          "type": "address"
        },
        {
          "indexed": false,
          "internalType": "uint256",
          "name": "constructionBlockNumber",
          "type": "uint256"
        }
      ],
      "name": "TierByConstructionInitialize",
      "type": "event"
    },
    {
      "anonymous": false,
      "inputs": [
        {
          "indexed": true,
          "internalType": "address",
          "name": "from",
          "type": "address"
        },
        {
          "indexed": true,
          "internalType": "address",
          "name": "to",
          "type": "address"
        },
        {
          "indexed": false,
          "internalType": "uint256",
          "name": "value",
          "type": "uint256"
        }
      ],
      "name": "Transfer",
      "type": "event"
    },
    {
      "anonymous": false,
      "inputs": [
        {
          "indexed": false,
          "internalType": "address",
          "name": "sender",
          "type": "address"
        },
        {
          "indexed": false,
          "internalType": "address",
          "name": "asset",
          "type": "address"
        }
      ],
      "name": "TreasuryAsset",
      "type": "event"
    },
    {
      "inputs": [],
      "name": "MINIMUM_INITIAL_SUPPLY",
      "outputs": [
        {
          "internalType": "uint256",
          "name": "",
          "type": "uint256"
        }
      ],
      "stateMutability": "view",
      "type": "function"
    },
    {
      "inputs": [
        {
          "internalType": "address",
          "name": "owner",
          "type": "address"
        },
        {
          "internalType": "address",
          "name": "spender",
          "type": "address"
        }
      ],
      "name": "allowance",
      "outputs": [
        {
          "internalType": "uint256",
          "name": "",
          "type": "uint256"
        }
      ],
      "stateMutability": "view",
      "type": "function"
    },
    {
      "inputs": [
        {
          "internalType": "address",
          "name": "spender",
          "type": "address"
        },
        {
          "internalType": "uint256",
          "name": "amount",
          "type": "uint256"
        }
      ],
      "name": "approve",
      "outputs": [
        {
          "internalType": "bool",
          "name": "",
          "type": "bool"
        }
      ],
      "stateMutability": "nonpayable",
      "type": "function"
    },
    {
      "inputs": [
        {
          "internalType": "address",
          "name": "account",
          "type": "address"
        }
      ],
      "name": "balanceOf",
      "outputs": [
        {
          "internalType": "uint256",
          "name": "",
          "type": "uint256"
        }
      ],
      "stateMutability": "view",
      "type": "function"
    },
    {
      "inputs": [
        {
          "internalType": "uint32[8]",
          "name": "phaseBlocks_",
          "type": "uint32[8]"
        },
        {
          "internalType": "enum Phase",
          "name": "phase_",
          "type": "uint8"
        }
      ],
      "name": "blockNumberForPhase",
      "outputs": [
        {
          "internalType": "uint256",
          "name": "",
          "type": "uint256"
        }
      ],
      "stateMutability": "pure",
      "type": "function"
    },
    {
      "inputs": [
        {
          "internalType": "address[]",
          "name": "distributors_",
          "type": "address[]"
        }
      ],
      "name": "burnDistributors",
      "outputs": [],
      "stateMutability": "nonpayable",
      "type": "function"
    },
    {
      "inputs": [],
      "name": "currentPhase",
      "outputs": [
        {
          "internalType": "enum Phase",
          "name": "",
          "type": "uint8"
        }
      ],
      "stateMutability": "view",
      "type": "function"
    },
    {
      "inputs": [],
      "name": "decimals",
      "outputs": [
        {
          "internalType": "uint8",
          "name": "",
          "type": "uint8"
        }
      ],
      "stateMutability": "view",
      "type": "function"
    },
    {
      "inputs": [
        {
          "internalType": "address",
          "name": "spender",
          "type": "address"
        },
        {
          "internalType": "uint256",
          "name": "subtractedValue",
          "type": "uint256"
        }
      ],
      "name": "decreaseAllowance",
      "outputs": [
        {
          "internalType": "bool",
          "name": "",
          "type": "bool"
        }
      ],
      "stateMutability": "nonpayable",
      "type": "function"
    },
    {
      "inputs": [
        {
          "internalType": "address",
          "name": "newReceiver_",
          "type": "address"
        }
      ],
      "name": "grantReceiver",
      "outputs": [],
      "stateMutability": "nonpayable",
      "type": "function"
    },
    {
      "inputs": [
        {
          "internalType": "address",
          "name": "newSender_",
          "type": "address"
        }
      ],
      "name": "grantSender",
      "outputs": [],
      "stateMutability": "nonpayable",
      "type": "function"
    },
    {
      "inputs": [
        {
          "internalType": "address",
          "name": "spender",
          "type": "address"
        },
        {
          "internalType": "uint256",
          "name": "addedValue",
          "type": "uint256"
        }
      ],
      "name": "increaseAllowance",
      "outputs": [
        {
          "internalType": "bool",
          "name": "",
          "type": "bool"
        }
      ],
      "stateMutability": "nonpayable",
      "type": "function"
    },
    {
      "inputs": [
        {
          "components": [
            {
              "internalType": "address",
              "name": "admin",
              "type": "address"
            },
            {
              "internalType": "address",
              "name": "reserve",
              "type": "address"
            },
            {
              "components": [
                {
                  "internalType": "string",
                  "name": "name",
                  "type": "string"
                },
                {
                  "internalType": "string",
                  "name": "symbol",
                  "type": "string"
                }
              ],
              "internalType": "struct ERC20Config",
              "name": "erc20Config",
              "type": "tuple"
            },
            {
              "internalType": "contract ITier",
              "name": "tier",
              "type": "address"
            },
            {
              "internalType": "uint256",
              "name": "minimumTier",
              "type": "uint256"
            },
            {
              "internalType": "uint256",
              "name": "totalSupply",
              "type": "uint256"
            }
          ],
          "internalType": "struct RedeemableERC20Config",
          "name": "config_",
          "type": "tuple"
        }
      ],
      "name": "initialize",
      "outputs": [],
      "stateMutability": "nonpayable",
      "type": "function"
    },
    {
      "inputs": [
        {
          "internalType": "address",
          "name": "maybeReceiver_",
          "type": "address"
        }
      ],
      "name": "isReceiver",
      "outputs": [
        {
          "internalType": "bool",
          "name": "",
          "type": "bool"
        }
      ],
      "stateMutability": "view",
      "type": "function"
    },
    {
      "inputs": [
        {
          "internalType": "address",
          "name": "maybeSender_",
          "type": "address"
        }
      ],
      "name": "isSender",
      "outputs": [
        {
          "internalType": "bool",
          "name": "",
          "type": "bool"
        }
      ],
      "stateMutability": "view",
      "type": "function"
    },
    {
      "inputs": [
        {
          "internalType": "address",
          "name": "account_",
          "type": "address"
        },
        {
          "internalType": "uint256",
          "name": "minimumTier_",
          "type": "uint256"
        }
      ],
      "name": "isTier",
      "outputs": [
        {
          "internalType": "bool",
          "name": "",
          "type": "bool"
        }
      ],
      "stateMutability": "view",
      "type": "function"
    },
    {
      "inputs": [],
      "name": "minimumTier",
      "outputs": [
        {
          "internalType": "uint256",
          "name": "",
          "type": "uint256"
        }
      ],
      "stateMutability": "view",
      "type": "function"
    },
    {
      "inputs": [],
      "name": "name",
      "outputs": [
        {
          "internalType": "string",
          "name": "",
          "type": "string"
        }
      ],
      "stateMutability": "view",
      "type": "function"
    },
    {
      "inputs": [
        {
          "internalType": "address",
          "name": "newTreasuryAsset_",
          "type": "address"
        }
      ],
      "name": "newTreasuryAsset",
      "outputs": [],
      "stateMutability": "nonpayable",
      "type": "function"
    },
    {
      "inputs": [
        {
          "internalType": "uint32[8]",
          "name": "phaseBlocks_",
          "type": "uint32[8]"
        },
        {
          "internalType": "uint256",
          "name": "blockNumber_",
          "type": "uint256"
        }
      ],
      "name": "phaseAtBlockNumber",
      "outputs": [
        {
          "internalType": "enum Phase",
          "name": "",
          "type": "uint8"
        }
      ],
      "stateMutability": "pure",
      "type": "function"
    },
    {
      "inputs": [
        {
          "internalType": "uint256",
          "name": "",
          "type": "uint256"
        }
      ],
      "name": "phaseBlocks",
      "outputs": [
        {
          "internalType": "uint32",
          "name": "",
          "type": "uint32"
        }
      ],
      "stateMutability": "view",
      "type": "function"
    },
    {
      "inputs": [
        {
          "internalType": "uint256",
          "name": "amount_",
          "type": "uint256"
        }
      ],
      "name": "pullERC20",
      "outputs": [],
      "stateMutability": "nonpayable",
      "type": "function"
    },
    {
      "inputs": [
        {
          "internalType": "contract IERC20[]",
          "name": "treasuryAssets_",
          "type": "address[]"
        },
        {
          "internalType": "uint256",
          "name": "redeemAmount_",
          "type": "uint256"
        }
      ],
      "name": "redeem",
      "outputs": [],
      "stateMutability": "nonpayable",
      "type": "function"
    },
    {
      "inputs": [],
      "name": "symbol",
      "outputs": [
        {
          "internalType": "string",
          "name": "",
          "type": "string"
        }
      ],
      "stateMutability": "view",
      "type": "function"
    },
    {
      "inputs": [],
      "name": "totalSupply",
      "outputs": [
        {
          "internalType": "uint256",
          "name": "",
          "type": "uint256"
        }
      ],
      "stateMutability": "view",
      "type": "function"
    },
    {
      "inputs": [
        {
          "internalType": "address",
          "name": "recipient",
          "type": "address"
        },
        {
          "internalType": "uint256",
          "name": "amount",
          "type": "uint256"
        }
      ],
      "name": "transfer",
      "outputs": [
        {
          "internalType": "bool",
          "name": "",
          "type": "bool"
        }
      ],
      "stateMutability": "nonpayable",
      "type": "function"
    },
    {
      "inputs": [
        {
          "internalType": "address",
          "name": "sender",
          "type": "address"
        },
        {
          "internalType": "address",
          "name": "recipient",
          "type": "address"
        },
        {
          "internalType": "uint256",
          "name": "amount",
          "type": "uint256"
        }
      ],
      "name": "transferFrom",
      "outputs": [
        {
          "internalType": "bool",
          "name": "",
          "type": "bool"
        }
      ],
      "stateMutability": "nonpayable",
      "type": "function"
    }
  ],
  "bytecode": "0x608060405234801561001057600080fd5b506001606855613516806100256000396000f3fe608060405234801561001057600080fd5b50600436106101b95760003560e01c806370a08231116100f9578063b7a3c82811610097578063e7ae91fe11610071578063e7ae91fe14610434578063ece760e914610447578063f1ebd5dd1461045a578063f677de961461046357600080fd5b8063b7a3c828146103a2578063dd62ed3e146103b5578063e3843463146103fb57600080fd5b8063a2f5b6d0116100d3578063a2f5b6d01461035a578063a457c2d71461036d578063a9059cbb14610380578063ad3cb1031461039357600080fd5b806370a08231146102f457806395d89b411461032a5780639923c94b1461033257600080fd5b8063313ce56711610166578063395093511161014057806339509351146102a857806345bdfa8a146102bb578063634991af146102ce5780636f120d65146102e157600080fd5b8063313ce5671461024e5780633833be621461025d578063392243e11461027057600080fd5b8063095ea7b311610197578063095ea7b31461020657806318160ddd1461022957806323b872dd1461023b57600080fd5b8063038ef03e146101be578063055ad42e146101d357806306fdde03146101f1575b600080fd5b6101d16101cc366004612c22565b610476565b005b6101db6104c8565b6040516101e89190612c6e565b60405180910390f35b6101f9610533565b6040516101e89190612cdb565b610219610214366004612d2c565b6105c5565b60405190151581526020016101e8565b6038545b6040519081526020016101e8565b610219610249366004612d58565b6105dc565b604051601281526020016101e8565b6101d161026b366004612c22565b6106c9565b61021961027e366004612c22565b73ffffffffffffffffffffffffffffffffffffffff166000908152606c6020526040902054151590565b6102196102b6366004612d2c565b6107ae565b61022d6102c9366004612ee4565b6107f7565b6101db6102dc366004612f22565b61085a565b6101d16102ef366004612fed565b6108c1565b61022d610302366004612c22565b73ffffffffffffffffffffffffffffffffffffffff1660009081526036602052604090205490565b6101f9610cae565b6103456103403660046130f8565b610cbd565b60405163ffffffff90911681526020016101e8565b6101d1610368366004613111565b610ced565b61021961037b366004612d2c565b610eaf565b61021961038e366004612d2c565b610f87565b61022d670de0b6b3a764000081565b6101d16103b03660046130f8565b610f94565b61022d6103c33660046131c3565b73ffffffffffffffffffffffffffffffffffffffff918216600090815260376020908152604080832093909416825291909152205490565b610219610409366004612c22565b73ffffffffffffffffffffffffffffffffffffffff166000908152606c602052604090205460011090565b6101d1610442366004612c22565b610fc2565b610219610455366004612d2c565b6110a4565b61022d606d5481565b6101d16104713660046131f1565b611150565b6040805133815273ffffffffffffffffffffffffffffffffffffffff831660208201527f2ab01e95cf254bfe2f3e7e2a70a40262c15f0c753a586568529e3b109c567d5691015b60405180910390a150565b6040805161010081019182905260009161052e91906001906008908286855b82829054906101000a900463ffffffff1663ffffffff16815260200190600401906020826003010492830192600103820291508084116104e757905050505050504361085a565b905090565b6060603980546105429061326c565b80601f016020809104026020016040519081016040528092919081815260200182805461056e9061326c565b80156105bb5780601f10610590576101008083540402835291602001916105bb565b820191906000526020600020905b81548152906001019060200180831161059e57829003601f168201915b5050505050905090565b60006105d23384846114a3565b5060015b92915050565b60006105e9848484611656565b73ffffffffffffffffffffffffffffffffffffffff84166000908152603760209081526040808320338452909152902054828110156106af576040517f08c379a000000000000000000000000000000000000000000000000000000000815260206004820152602860248201527f45524332303a207472616e7366657220616d6f756e742065786365656473206160448201527f6c6c6f77616e636500000000000000000000000000000000000000000000000060648201526084015b60405180910390fd5b6106bc85338584036114a3565b60019150505b9392505050565b606b5473ffffffffffffffffffffffffffffffffffffffff16331461074a576040517f08c379a000000000000000000000000000000000000000000000000000000000815260206004820152600a60248201527f4f4e4c595f41444d494e0000000000000000000000000000000000000000000060448201526064016106a6565b73ffffffffffffffffffffffffffffffffffffffff81166000818152606c6020908152604091829020805460011790558151338152908101929092527f4d987a7fff11f6c57bdc4d0bd5a7c4cc2dfe97c90212583bca465b19df29b64791016104bd565b33600081815260376020908152604080832073ffffffffffffffffffffffffffffffffffffffff8716845290915281205490916105d29185906107f29086906132ef565b6114a3565b60008082600881111561080c5761080c612c3f565b1161081857600061084d565b82600183600881111561082d5761082d612c3f565b6108379190613307565b600881106108475761084761331e565b60200201515b63ffffffff169392505050565b6000805b60088110156108b7578381600881106108795761087961331e565b602002015163ffffffff168310156108a55780600881111561089d5761089d612c3f565b9150506105d6565b806108af8161334d565b91505061085e565b5060089392505050565b600054610100900460ff166108dc5760005460ff16156108e0565b303b155b61096c576040517f08c379a000000000000000000000000000000000000000000000000000000000815260206004820152602e60248201527f496e697469616c697a61626c653a20636f6e747261637420697320616c72656160448201527f647920696e697469616c697a656400000000000000000000000000000000000060648201526084016106a6565b600054610100900460ff161580156109ab57600080547fffffffffffffffffffffffffffffffffffffffffffffffffffffffffffff0000166101011790555b6109b88260600151611916565b610a096040518060400160405280846000015173ffffffffffffffffffffffffffffffffffffffff168152602001846020015173ffffffffffffffffffffffffffffffffffffffff16815250611a3e565b610a11611c21565b60408201518051602090910151610a289190611cda565b670de0b6b3a76400008260a001511015610a9e576040517f08c379a000000000000000000000000000000000000000000000000000000000815260206004820152601660248201527f4d494e494d554d5f494e495449414c5f535550504c590000000000000000000060448201526064016106a6565b6080820151606d556000808052606c60205260037f7febd347df14ea35c529e50fb2dd629d4a6226f5ccc893710fb466f8b83823fc55825173ffffffffffffffffffffffffffffffffffffffff1681526040902060019055815160a0830151610b079190611d83565b8151606b80547fffffffffffffffffffffffff00000000000000000000000000000000000000001673ffffffffffffffffffffffffffffffffffffffff928316908117909155602080850151604080519384529316908201527f2ab01e95cf254bfe2f3e7e2a70a40262c15f0c753a586568529e3b109c567d56910160405180910390a1815160808301516040805133815273ffffffffffffffffffffffffffffffffffffffff90931660208401528201527fdb660173da0d0145219dbc22b6c7f5d0b641019e264bd7537ecf21215be200bd9060600160405180910390a160608201516040517fe053ea3100000000000000000000000000000000000000000000000000000000815233600482015273ffffffffffffffffffffffffffffffffffffffff9091169063e053ea3190602401602060405180830381865afa158015610c56573d6000803e3d6000fd5b505050506040513d601f19601f82011682018060405250810190610c7a9190613386565b508015610caa57600080547fffffffffffffffffffffffffffffffffffffffffffffffffffffffffffff00ff1690555b5050565b6060603a80546105429061326c565b60018160088110610ccd57600080fd5b60089182820401919006600402915054906101000a900463ffffffff1681565b600080610cf86104c8565b6008811115610d0957610d09612c3f565b14610d70576040517f08c379a000000000000000000000000000000000000000000000000000000000815260206004820152600960248201527f4241445f5048415345000000000000000000000000000000000000000000000060448201526064016106a6565b606b5473ffffffffffffffffffffffffffffffffffffffff163314610df1576040517f08c379a000000000000000000000000000000000000000000000000000000000815260206004820152600a60248201527f4f4e4c595f41444d494e0000000000000000000000000000000000000000000060448201526064016106a6565b610e004363ffffffff16611eaf565b60005b8251811015610eaa576000838281518110610e2057610e2061331e565b602002602001015190506000610e588273ffffffffffffffffffffffffffffffffffffffff1660009081526036602052604090205490565b90508015610e9557610e9582610e908473ffffffffffffffffffffffffffffffffffffffff1660009081526036602052604090205490565b6120eb565b50508080610ea29061334d565b915050610e03565b505050565b33600090815260376020908152604080832073ffffffffffffffffffffffffffffffffffffffff8616845290915281205482811015610f70576040517f08c379a000000000000000000000000000000000000000000000000000000000815260206004820152602560248201527f45524332303a2064656372656173656420616c6c6f77616e63652062656c6f7760448201527f207a65726f00000000000000000000000000000000000000000000000000000060648201526084016106a6565b610f7d33858584036114a3565b5060019392505050565b60006105d2338484611656565b606954606a54610fbf9173ffffffffffffffffffffffffffffffffffffffff918216911630846122e4565b50565b606b5473ffffffffffffffffffffffffffffffffffffffff163314611043576040517f08c379a000000000000000000000000000000000000000000000000000000000815260206004820152600a60248201527f4f4e4c595f41444d494e0000000000000000000000000000000000000000000060448201526064016106a6565b73ffffffffffffffffffffffffffffffffffffffff81166000818152606c6020908152604091829020600390558151338152908101929092527f2960695afa2609b7591ca0b79d5586f853e610ce0515852f7a5ced78fd32ade991016104bd565b6002546040517fe053ea3100000000000000000000000000000000000000000000000000000000815273ffffffffffffffffffffffffffffffffffffffff84811660048301526000926111449291169063e053ea3190602401602060405180830381865afa15801561111a573d6000803e3d6000fd5b505050506040513d601f19601f8201168201806040525081019061113e9190613386565b836123c0565b60035410159392505050565b60018061115b6104c8565b600881111561116c5761116c612c3f565b146111d3576040517f08c379a000000000000000000000000000000000000000000000000000000000815260206004820152600960248201527f4241445f5048415345000000000000000000000000000000000000000000000060448201526064016106a6565b60026068541415611240576040517f08c379a000000000000000000000000000000000000000000000000000000000815260206004820152601f60248201527f5265656e7472616e637947756172643a207265656e7472616e742063616c6c0060448201526064016106a6565b600260685582806112ad576040517f08c379a000000000000000000000000000000000000000000000000000000000815260206004820152600c60248201527f454d5054595f415353455453000000000000000000000000000000000000000060448201526064016106a6565b60006112b860385490565b90506112c433856120eb565b60005b828110156114955760008787838181106112e3576112e361331e565b90506020020160208101906112f89190612c22565b6040517f70a082310000000000000000000000000000000000000000000000000000000081523060048201529091506000908490889073ffffffffffffffffffffffffffffffffffffffff8516906370a0823190602401602060405180830381865afa15801561136c573d6000803e3d6000fd5b505050506040513d601f19601f820116820180604052508101906113909190613386565b61139a919061339f565b6113a491906133dc565b905060008111611410576040517f08c379a000000000000000000000000000000000000000000000000000000000815260206004820152600d60248201527f5a45524f5f5452414e534645520000000000000000000000000000000000000060448201526064016106a6565b7ff8eb02c03b445447861a4fda33b7470adf3b693b314b35a1efb8203edc28d656338360405180604001604052808b81526020018581525060405161145793929190613417565b60405180910390a161148073ffffffffffffffffffffffffffffffffffffffff83163383612475565b5050808061148d9061334d565b9150506112c7565b505060016068555050505050565b73ffffffffffffffffffffffffffffffffffffffff8316611545576040517f08c379a0000000000000000000000000000000000000000000000000000000008152602060048201526024808201527f45524332303a20617070726f76652066726f6d20746865207a65726f2061646460448201527f726573730000000000000000000000000000000000000000000000000000000060648201526084016106a6565b73ffffffffffffffffffffffffffffffffffffffff82166115e8576040517f08c379a000000000000000000000000000000000000000000000000000000000815260206004820152602260248201527f45524332303a20617070726f766520746f20746865207a65726f20616464726560448201527f737300000000000000000000000000000000000000000000000000000000000060648201526084016106a6565b73ffffffffffffffffffffffffffffffffffffffff83811660008181526037602090815260408083209487168084529482529182902085905590518481527f8c5be1e5ebec7d5bd14f71427d1e84f3dd0314c0f7b2291e5b200ac8c7c3b925910160405180910390a3505050565b73ffffffffffffffffffffffffffffffffffffffff83166116f9576040517f08c379a000000000000000000000000000000000000000000000000000000000815260206004820152602560248201527f45524332303a207472616e736665722066726f6d20746865207a65726f20616460448201527f647265737300000000000000000000000000000000000000000000000000000060648201526084016106a6565b73ffffffffffffffffffffffffffffffffffffffff821661179c576040517f08c379a000000000000000000000000000000000000000000000000000000000815260206004820152602360248201527f45524332303a207472616e7366657220746f20746865207a65726f206164647260448201527f657373000000000000000000000000000000000000000000000000000000000060648201526084016106a6565b6117a78383836124cb565b73ffffffffffffffffffffffffffffffffffffffff83166000908152603660205260409020548181101561185d576040517f08c379a000000000000000000000000000000000000000000000000000000000815260206004820152602660248201527f45524332303a207472616e7366657220616d6f756e742065786365656473206260448201527f616c616e6365000000000000000000000000000000000000000000000000000060648201526084016106a6565b73ffffffffffffffffffffffffffffffffffffffff8085166000908152603660205260408082208585039055918516815290812080548492906118a19084906132ef565b925050819055508273ffffffffffffffffffffffffffffffffffffffff168473ffffffffffffffffffffffffffffffffffffffff167fddf252ad1be2c89b69c2b068fc378daa952ba7f163c4a11628f55a4df523b3ef8460405161190791815260200190565b60405180910390a35b50505050565b73ffffffffffffffffffffffffffffffffffffffff8116611993576040517f08c379a000000000000000000000000000000000000000000000000000000000815260206004820152601160248201527f5a45524f5f544945525f4144445245535300000000000000000000000000000060448201526064016106a6565b60025473ffffffffffffffffffffffffffffffffffffffff16156119b9576119b9613473565b600280547fffffffffffffffffffffffff00000000000000000000000000000000000000001673ffffffffffffffffffffffffffffffffffffffff83169081179091554360038190556040805133815260208101939093528201527fc9a9852079c3604c610068c3a50e09dc64e772e55e636968f6f8d5ae366856d2906060016104bd565b805173ffffffffffffffffffffffffffffffffffffffff16611abc576040517f08c379a000000000000000000000000000000000000000000000000000000000815260206004820152600b60248201527f5a45524f5f53454e44455200000000000000000000000000000000000000000060448201526064016106a6565b602081015173ffffffffffffffffffffffffffffffffffffffff16611b3d576040517f08c379a000000000000000000000000000000000000000000000000000000000815260206004820152600a60248201527f5a45524f5f544f4b454e0000000000000000000000000000000000000000000060448201526064016106a6565b60695473ffffffffffffffffffffffffffffffffffffffff1615611b6357611b63613473565b606a5473ffffffffffffffffffffffffffffffffffffffff1615611b8957611b89613473565b80516069805473ffffffffffffffffffffffffffffffffffffffff9283167fffffffffffffffffffffffff00000000000000000000000000000000000000009182168117909255602080850151606a805491909516921682179093556040805133815293840192909252908201527fe67a5c2dcf68e8fac05314f53ecd2ff0b403ed683c4bfdad15eaec7a8a63f555906060016104bd565b60015463ffffffff1615611c3757611c37613473565b60005b6008811015611c975763ffffffff60018260088110611c5b57611c5b61331e565b600891828204019190066004026101000a81548163ffffffff021916908363ffffffff1602179055508080611c8f9061334d565b915050611c3a565b50604080513381526000602082018190528183015290517fba85f6676f17ca992195e3cb204ae48c68666b109edc14a794e5d894387d25d39181900360600190a1565b600054610100900460ff16611d71576040517f08c379a000000000000000000000000000000000000000000000000000000000815260206004820152602b60248201527f496e697469616c697a61626c653a20636f6e7472616374206973206e6f74206960448201527f6e697469616c697a696e6700000000000000000000000000000000000000000060648201526084016106a6565b611d796126f2565b610caa828261278b565b73ffffffffffffffffffffffffffffffffffffffff8216611e00576040517f08c379a000000000000000000000000000000000000000000000000000000000815260206004820152601f60248201527f45524332303a206d696e7420746f20746865207a65726f20616464726573730060448201526064016106a6565b611e0c600083836124cb565b8060386000828254611e1e91906132ef565b909155505073ffffffffffffffffffffffffffffffffffffffff821660009081526036602052604081208054839290611e589084906132ef565b909155505060405181815273ffffffffffffffffffffffffffffffffffffffff8316906000907fddf252ad1be2c89b69c2b068fc378daa952ba7f163c4a11628f55a4df523b3ef9060200160405180910390a35050565b80431115611f19576040517f08c379a000000000000000000000000000000000000000000000000000000000815260206004820152600f60248201527f4e4558545f424c4f434b5f50415354000000000000000000000000000000000060448201526064016106a6565b63ffffffff8110611f86576040517f08c379a000000000000000000000000000000000000000000000000000000000815260206004820152601860248201527f4e4558545f424c4f434b5f554e494e495449414c495a4544000000000000000060448201526064016106a6565b6000611f906104c8565b6008811115611fa157611fa1612c3f565b905060018160088110611fb657611fb661331e565b60088104919091015460079091166004026101000a900463ffffffff9081161461203c576040517f08c379a000000000000000000000000000000000000000000000000000000000815260206004820152600e60248201527f4e4558545f424c4f434b5f53455400000000000000000000000000000000000060448201526064016106a6565b61204582612849565b81600182600881106120595761205961331e565b600891828204019190066004026101000a81548163ffffffff021916908363ffffffff1602179055507fba85f6676f17ca992195e3cb204ae48c68666b109edc14a794e5d894387d25d3338260016120b191906132ef565b6040805173ffffffffffffffffffffffffffffffffffffffff90931683526020830191909152810184905260600160405180910390a15050565b73ffffffffffffffffffffffffffffffffffffffff821661218e576040517f08c379a000000000000000000000000000000000000000000000000000000000815260206004820152602160248201527f45524332303a206275726e2066726f6d20746865207a65726f2061646472657360448201527f730000000000000000000000000000000000000000000000000000000000000060648201526084016106a6565b61219a826000836124cb565b73ffffffffffffffffffffffffffffffffffffffff821660009081526036602052604090205481811015612250576040517f08c379a000000000000000000000000000000000000000000000000000000000815260206004820152602260248201527f45524332303a206275726e20616d6f756e7420657863656564732062616c616e60448201527f636500000000000000000000000000000000000000000000000000000000000060648201526084016106a6565b73ffffffffffffffffffffffffffffffffffffffff8316600090815260366020526040812083830390556038805484929061228c908490613307565b909155505060405182815260009073ffffffffffffffffffffffffffffffffffffffff8516907fddf252ad1be2c89b69c2b068fc378daa952ba7f163c4a11628f55a4df523b3ef9060200160405180910390a3505050565b60405173ffffffffffffffffffffffffffffffffffffffff808516602483015283166044820152606481018290526119109085907f23b872dd00000000000000000000000000000000000000000000000000000000906084015b604080517fffffffffffffffffffffffffffffffffffffffffffffffffffffffffffffffe08184030181529190526020810180517bffffffffffffffffffffffffffffffffffffffffffffffffffffffff167fffffffff0000000000000000000000000000000000000000000000000000000090931692909217909152612871565b600081600881111561242e576040517f08c379a000000000000000000000000000000000000000000000000000000000815260206004820152600860248201527f4d41585f5449455200000000000000000000000000000000000000000000000060448201526064016106a6565b8261243c576000915061246e565b63ffffffff60207fffffffffffffffffffffffffffffffffffffffffffffffffffffffffffffffff85010285901c1691505b5092915050565b60405173ffffffffffffffffffffffffffffffffffffffff8316602482015260448101829052610eaa9084907fa9059cbb000000000000000000000000000000000000000000000000000000009060640161233e565b73ffffffffffffffffffffffffffffffffffffffff821630141561254b576040517f08c379a000000000000000000000000000000000000000000000000000000000815260206004820152600f60248201527f544f4b454e5f53454e445f53454c46000000000000000000000000000000000060448201526064016106a6565b6000811180156125b0575073ffffffffffffffffffffffffffffffffffffffff83166000908152606c6020526040902054600110806125ae575073ffffffffffffffffffffffffffffffffffffffff82166000908152606c602052604090205415155b155b15610eaa5760006125bf6104c8565b905060008160088111156125d5576125d5612c3f565b1415612652576125e783606d546110a4565b61264d576040517f08c379a000000000000000000000000000000000000000000000000000000000815260206004820152600860248201527f4d494e5f5449455200000000000000000000000000000000000000000000000060448201526064016106a6565b611910565b600181600881111561266657612666612c3f565b14156126ea5773ffffffffffffffffffffffffffffffffffffffff83161561264d576040517f08c379a000000000000000000000000000000000000000000000000000000000815260206004820152600660248201527f46524f5a454e000000000000000000000000000000000000000000000000000060448201526064016106a6565b611910613473565b600054610100900460ff16612789576040517f08c379a000000000000000000000000000000000000000000000000000000000815260206004820152602b60248201527f496e697469616c697a61626c653a20636f6e7472616374206973206e6f74206960448201527f6e697469616c697a696e6700000000000000000000000000000000000000000060648201526084016106a6565b565b600054610100900460ff16612822576040517f08c379a000000000000000000000000000000000000000000000000000000000815260206004820152602b60248201527f496e697469616c697a61626c653a20636f6e7472616374206973206e6f74206960448201527f6e697469616c697a696e6700000000000000000000000000000000000000000060648201526084016106a6565b8151612835906039906020850190612b67565b508051610eaa90603a906020840190612b67565b60026128536104c8565b600881111561286457612864612c3f565b10610fbf57610fbf613473565b60006128d3826040518060400160405280602081526020017f5361666545524332303a206c6f772d6c6576656c2063616c6c206661696c65648152508573ffffffffffffffffffffffffffffffffffffffff1661297d9092919063ffffffff16565b805190915015610eaa57808060200190518101906128f191906134a2565b610eaa576040517f08c379a000000000000000000000000000000000000000000000000000000000815260206004820152602a60248201527f5361666545524332303a204552433230206f7065726174696f6e20646964206e60448201527f6f7420737563636565640000000000000000000000000000000000000000000060648201526084016106a6565b606061298c8484600085612994565b949350505050565b606082471015612a26576040517f08c379a000000000000000000000000000000000000000000000000000000000815260206004820152602660248201527f416464726573733a20696e73756666696369656e742062616c616e636520666f60448201527f722063616c6c000000000000000000000000000000000000000000000000000060648201526084016106a6565b843b612a8e576040517f08c379a000000000000000000000000000000000000000000000000000000000815260206004820152601d60248201527f416464726573733a2063616c6c20746f206e6f6e2d636f6e747261637400000060448201526064016106a6565b6000808673ffffffffffffffffffffffffffffffffffffffff168587604051612ab791906134c4565b60006040518083038185875af1925050503d8060008114612af4576040519150601f19603f3d011682016040523d82523d6000602084013e612af9565b606091505b5091509150612b09828286612b14565b979650505050505050565b60608315612b235750816106c2565b825115612b335782518084602001fd5b816040517f08c379a00000000000000000000000000000000000000000000000000000000081526004016106a69190612cdb565b828054612b739061326c565b90600052602060002090601f016020900481019282612b955760008555612bdb565b82601f10612bae57805160ff1916838001178555612bdb565b82800160010185558215612bdb579182015b82811115612bdb578251825591602001919060010190612bc0565b50612be7929150612beb565b5090565b5b80821115612be75760008155600101612bec565b73ffffffffffffffffffffffffffffffffffffffff81168114610fbf57600080fd5b600060208284031215612c3457600080fd5b81356106c281612c00565b7f4e487b7100000000000000000000000000000000000000000000000000000000600052602160045260246000fd5b6020810160098310612ca9577f4e487b7100000000000000000000000000000000000000000000000000000000600052602160045260246000fd5b91905290565b60005b83811015612cca578181015183820152602001612cb2565b838111156119105750506000910152565b6020815260008251806020840152612cfa816040850160208701612caf565b601f017fffffffffffffffffffffffffffffffffffffffffffffffffffffffffffffffe0169190910160400192915050565b60008060408385031215612d3f57600080fd5b8235612d4a81612c00565b946020939093013593505050565b600080600060608486031215612d6d57600080fd5b8335612d7881612c00565b92506020840135612d8881612c00565b929592945050506040919091013590565b7f4e487b7100000000000000000000000000000000000000000000000000000000600052604160045260246000fd5b60405160c0810167ffffffffffffffff81118282101715612deb57612deb612d99565b60405290565b6040805190810167ffffffffffffffff81118282101715612deb57612deb612d99565b604051601f82017fffffffffffffffffffffffffffffffffffffffffffffffffffffffffffffffe016810167ffffffffffffffff81118282101715612e5b57612e5b612d99565b604052919050565b600082601f830112612e7457600080fd5b60405161010080820182811067ffffffffffffffff82111715612e9957612e99612d99565b60405283018185821115612eac57600080fd5b845b82811015612ed957803563ffffffff81168114612ecb5760008081fd5b825260209182019101612eae565b509195945050505050565b6000806101208385031215612ef857600080fd5b612f028484612e63565b915061010083013560098110612f1757600080fd5b809150509250929050565b6000806101208385031215612f3657600080fd5b612f408484612e63565b94610100939093013593505050565b600082601f830112612f6057600080fd5b813567ffffffffffffffff811115612f7a57612f7a612d99565b612fab60207fffffffffffffffffffffffffffffffffffffffffffffffffffffffffffffffe0601f84011601612e14565b818152846020838601011115612fc057600080fd5b816020850160208301376000918101602001919091529392505050565b8035612fe881612c00565b919050565b600060208284031215612fff57600080fd5b813567ffffffffffffffff8082111561301757600080fd5b9083019060c0828603121561302b57600080fd5b613033612dc8565b823561303e81612c00565b8152602083013561304e81612c00565b602082015260408301358281111561306557600080fd5b83016040818803121561307757600080fd5b61307f612df1565b81358481111561308e57600080fd5b61309a89828501612f4f565b8252506020820135848111156130af57600080fd5b6130bb89828501612f4f565b6020830152506040830152506130d360608401612fdd565b60608201526080830135608082015260a083013560a082015280935050505092915050565b60006020828403121561310a57600080fd5b5035919050565b6000602080838503121561312457600080fd5b823567ffffffffffffffff8082111561313c57600080fd5b818501915085601f83011261315057600080fd5b81358181111561316257613162612d99565b8060051b9150613173848301612e14565b818152918301840191848101908884111561318d57600080fd5b938501935b838510156131b757843592506131a783612c00565b8282529385019390850190613192565b98975050505050505050565b600080604083850312156131d657600080fd5b82356131e181612c00565b91506020830135612f1781612c00565b60008060006040848603121561320657600080fd5b833567ffffffffffffffff8082111561321e57600080fd5b818601915086601f83011261323257600080fd5b81358181111561324157600080fd5b8760208260051b850101111561325657600080fd5b6020928301989097509590910135949350505050565b600181811c9082168061328057607f821691505b602082108114156132ba577f4e487b7100000000000000000000000000000000000000000000000000000000600052602260045260246000fd5b50919050565b7f4e487b7100000000000000000000000000000000000000000000000000000000600052601160045260246000fd5b60008219821115613302576133026132c0565b500190565b600082821015613319576133196132c0565b500390565b7f4e487b7100000000000000000000000000000000000000000000000000000000600052603260045260246000fd5b60007fffffffffffffffffffffffffffffffffffffffffffffffffffffffffffffffff82141561337f5761337f6132c0565b5060010190565b60006020828403121561339857600080fd5b5051919050565b6000817fffffffffffffffffffffffffffffffffffffffffffffffffffffffffffffffff04831182151516156133d7576133d76132c0565b500290565b600082613412577f4e487b7100000000000000000000000000000000000000000000000000000000600052601260045260246000fd5b500490565b73ffffffffffffffffffffffffffffffffffffffff84811682528316602080830191909152608082019060408301908460005b60028110156134675781518452928201929082019060010161344a565b50505050949350505050565b7f4e487b7100000000000000000000000000000000000000000000000000000000600052600160045260246000fd5b6000602082840312156134b457600080fd5b815180151581146106c257600080fd5b600082516134d6818460208701612caf565b919091019291505056fea2646970667358221220918e08ef9a839be1459f1944c74bec8d36d6522c3342621704839b73f881b41564736f6c634300080a0033",
  "linkReferences": {},
  "deployedLinkReferences": {}
}