{
  "_format": "hh-sol-artifact-1",
  "contractName": "SeedERC20",
  "sourceName": "contracts/seed/SeedERC20.sol",
  "abi": [
    {
      "anonymous": false,
      "inputs": [
        {
          "indexed": true,
          "internalType": "address",
          "name": "owner",
          "type": "address"
        },
        {
          "indexed": true,
          "internalType": "address",
          "name": "spender",
          "type": "address"
        },
        {
          "indexed": false,
          "internalType": "uint256",
          "name": "value",
          "type": "uint256"
        }
      ],
      "name": "Approval",
      "type": "event"
    },
    {
      "anonymous": false,
      "inputs": [
        {
          "indexed": false,
          "internalType": "address",
          "name": "sender",
          "type": "address"
        },
        {
          "indexed": false,
          "internalType": "uint256",
          "name": "cooldownDuration",
          "type": "uint256"
        }
      ],
      "name": "CooldownInitialize",
      "type": "event"
    },
    {
      "anonymous": false,
      "inputs": [
        {
          "indexed": false,
          "internalType": "address",
          "name": "caller",
          "type": "address"
        },
        {
          "indexed": false,
          "internalType": "uint256",
          "name": "cooldown",
          "type": "uint256"
        }
      ],
      "name": "CooldownTriggered",
      "type": "event"
    },
    {
      "anonymous": false,
      "inputs": [
        {
          "indexed": false,
          "internalType": "address",
          "name": "sender",
          "type": "address"
        },
        {
          "indexed": false,
          "internalType": "address",
          "name": "tokenSender",
          "type": "address"
        },
        {
          "indexed": false,
          "internalType": "address",
          "name": "token",
          "type": "address"
        }
      ],
      "name": "ERC20PullInitialize",
      "type": "event"
    },
    {
      "anonymous": false,
      "inputs": [
        {
          "indexed": false,
          "internalType": "address",
          "name": "sender",
          "type": "address"
        },
        {
          "indexed": false,
          "internalType": "address",
          "name": "recipient",
          "type": "address"
        },
        {
          "indexed": false,
          "internalType": "address",
          "name": "reserve",
          "type": "address"
        },
        {
          "indexed": false,
          "internalType": "uint256",
          "name": "seedPrice",
          "type": "uint256"
        },
        {
          "indexed": false,
          "internalType": "uint256",
          "name": "seedUnits",
          "type": "uint256"
        }
      ],
      "name": "Initialize",
      "type": "event"
    },
    {
      "anonymous": false,
      "inputs": [
        {
          "indexed": false,
          "internalType": "address",
          "name": "sender",
          "type": "address"
        },
        {
          "indexed": false,
          "internalType": "uint256",
          "name": "newPhase",
          "type": "uint256"
        },
        {
          "indexed": false,
          "internalType": "uint256",
          "name": "scheduledBlock",
          "type": "uint256"
        }
      ],
      "name": "PhaseScheduled",
      "type": "event"
    },
    {
      "anonymous": false,
      "inputs": [
        {
          "indexed": false,
          "internalType": "address",
          "name": "sender",
          "type": "address"
        },
        {
          "indexed": false,
          "internalType": "uint256",
          "name": "tokensRedeemed",
          "type": "uint256"
        },
        {
          "indexed": false,
          "internalType": "uint256",
          "name": "reserveSent",
          "type": "uint256"
        }
      ],
      "name": "Redeem",
      "type": "event"
    },
    {
      "anonymous": false,
      "inputs": [
        {
          "indexed": false,
          "internalType": "address",
          "name": "sender",
          "type": "address"
        },
        {
          "indexed": false,
          "internalType": "uint256",
          "name": "tokensSeeded",
          "type": "uint256"
        },
        {
          "indexed": false,
          "internalType": "uint256",
          "name": "reserveReceived",
          "type": "uint256"
        }
      ],
      "name": "Seed",
      "type": "event"
    },
    {
      "anonymous": false,
      "inputs": [
        {
          "indexed": true,
          "internalType": "address",
          "name": "from",
          "type": "address"
        },
        {
          "indexed": true,
          "internalType": "address",
          "name": "to",
          "type": "address"
        },
        {
          "indexed": false,
          "internalType": "uint256",
          "name": "value",
          "type": "uint256"
        }
      ],
      "name": "Transfer",
      "type": "event"
    },
    {
      "anonymous": false,
      "inputs": [
        {
          "indexed": false,
          "internalType": "address",
          "name": "sender",
          "type": "address"
        },
        {
          "indexed": false,
          "internalType": "uint256",
          "name": "tokensUnseeded",
          "type": "uint256"
        },
        {
          "indexed": false,
          "internalType": "uint256",
          "name": "reserveReturned",
          "type": "uint256"
        }
      ],
      "name": "Unseed",
      "type": "event"
    },
    {
      "inputs": [
        {
          "internalType": "address",
          "name": "owner",
          "type": "address"
        },
        {
          "internalType": "address",
          "name": "spender",
          "type": "address"
        }
      ],
      "name": "allowance",
      "outputs": [
        {
          "internalType": "uint256",
          "name": "",
          "type": "uint256"
        }
      ],
      "stateMutability": "view",
      "type": "function"
    },
    {
      "inputs": [
        {
          "internalType": "address",
          "name": "spender",
          "type": "address"
        },
        {
          "internalType": "uint256",
          "name": "amount",
          "type": "uint256"
        }
      ],
      "name": "approve",
      "outputs": [
        {
          "internalType": "bool",
          "name": "",
          "type": "bool"
        }
      ],
      "stateMutability": "nonpayable",
      "type": "function"
    },
    {
      "inputs": [
        {
          "internalType": "address",
          "name": "account",
          "type": "address"
        }
      ],
      "name": "balanceOf",
      "outputs": [
        {
          "internalType": "uint256",
          "name": "",
          "type": "uint256"
        }
      ],
      "stateMutability": "view",
      "type": "function"
    },
    {
      "inputs": [
        {
          "internalType": "uint32[8]",
          "name": "phaseBlocks_",
          "type": "uint32[8]"
        },
        {
          "internalType": "enum Phase",
          "name": "phase_",
          "type": "uint8"
        }
      ],
      "name": "blockNumberForPhase",
      "outputs": [
        {
          "internalType": "uint256",
          "name": "",
          "type": "uint256"
        }
      ],
      "stateMutability": "pure",
      "type": "function"
    },
    {
      "inputs": [],
      "name": "currentPhase",
      "outputs": [
        {
          "internalType": "enum Phase",
          "name": "",
          "type": "uint8"
        }
      ],
      "stateMutability": "view",
      "type": "function"
    },
    {
      "inputs": [],
      "name": "decimals",
      "outputs": [
        {
          "internalType": "uint8",
          "name": "",
          "type": "uint8"
        }
      ],
      "stateMutability": "pure",
      "type": "function"
    },
    {
      "inputs": [
        {
          "internalType": "address",
          "name": "spender",
          "type": "address"
        },
        {
          "internalType": "uint256",
          "name": "subtractedValue",
          "type": "uint256"
        }
      ],
      "name": "decreaseAllowance",
      "outputs": [
        {
          "internalType": "bool",
          "name": "",
          "type": "bool"
        }
      ],
      "stateMutability": "nonpayable",
      "type": "function"
    },
    {
      "inputs": [
        {
          "internalType": "address",
          "name": "spender",
          "type": "address"
        },
        {
          "internalType": "uint256",
          "name": "addedValue",
          "type": "uint256"
        }
      ],
      "name": "increaseAllowance",
      "outputs": [
        {
          "internalType": "bool",
          "name": "",
          "type": "bool"
        }
      ],
      "stateMutability": "nonpayable",
      "type": "function"
    },
    {
      "inputs": [
        {
          "components": [
            {
              "internalType": "contract IERC20",
              "name": "reserve",
              "type": "address"
            },
            {
              "internalType": "address",
              "name": "recipient",
              "type": "address"
            },
            {
              "internalType": "uint256",
              "name": "seedPrice",
              "type": "uint256"
            },
            {
              "internalType": "uint256",
              "name": "seedUnits",
              "type": "uint256"
            },
            {
              "internalType": "uint256",
              "name": "cooldownDuration",
              "type": "uint256"
            },
            {
              "components": [
                {
                  "internalType": "string",
                  "name": "name",
                  "type": "string"
                },
                {
                  "internalType": "string",
                  "name": "symbol",
                  "type": "string"
                }
              ],
              "internalType": "struct ERC20Config",
              "name": "erc20Config",
              "type": "tuple"
            }
          ],
          "internalType": "struct SeedERC20Config",
          "name": "config_",
          "type": "tuple"
        }
      ],
      "name": "initialize",
      "outputs": [],
      "stateMutability": "nonpayable",
      "type": "function"
    },
    {
      "inputs": [],
      "name": "name",
      "outputs": [
        {
          "internalType": "string",
          "name": "",
          "type": "string"
        }
      ],
      "stateMutability": "view",
      "type": "function"
    },
    {
      "inputs": [
        {
          "internalType": "uint32[8]",
          "name": "phaseBlocks_",
          "type": "uint32[8]"
        },
        {
          "internalType": "uint256",
          "name": "blockNumber_",
          "type": "uint256"
        }
      ],
      "name": "phaseAtBlockNumber",
      "outputs": [
        {
          "internalType": "enum Phase",
          "name": "",
          "type": "uint8"
        }
      ],
      "stateMutability": "pure",
      "type": "function"
    },
    {
      "inputs": [
        {
          "internalType": "uint256",
          "name": "",
          "type": "uint256"
        }
      ],
      "name": "phaseBlocks",
      "outputs": [
        {
          "internalType": "uint32",
          "name": "",
          "type": "uint32"
        }
      ],
      "stateMutability": "view",
      "type": "function"
    },
    {
      "inputs": [
        {
          "internalType": "uint256",
          "name": "amount_",
          "type": "uint256"
        }
      ],
      "name": "pullERC20",
      "outputs": [],
      "stateMutability": "nonpayable",
      "type": "function"
    },
    {
      "inputs": [],
      "name": "recipient",
      "outputs": [
        {
          "internalType": "address",
          "name": "",
          "type": "address"
        }
      ],
      "stateMutability": "view",
      "type": "function"
    },
    {
      "inputs": [
        {
          "internalType": "uint256",
          "name": "units_",
          "type": "uint256"
        }
      ],
      "name": "redeem",
      "outputs": [],
      "stateMutability": "nonpayable",
      "type": "function"
    },
    {
      "inputs": [],
      "name": "reserve",
      "outputs": [
        {
          "internalType": "contract IERC20",
          "name": "",
          "type": "address"
        }
      ],
      "stateMutability": "view",
      "type": "function"
    },
    {
      "inputs": [
        {
          "internalType": "uint256",
          "name": "minimumUnits_",
          "type": "uint256"
        },
        {
          "internalType": "uint256",
          "name": "desiredUnits_",
          "type": "uint256"
        }
      ],
      "name": "seed",
      "outputs": [],
      "stateMutability": "nonpayable",
      "type": "function"
    },
    {
      "inputs": [],
      "name": "seedPrice",
      "outputs": [
        {
          "internalType": "uint256",
          "name": "",
          "type": "uint256"
        }
      ],
      "stateMutability": "view",
      "type": "function"
    },
    {
      "inputs": [],
      "name": "symbol",
      "outputs": [
        {
          "internalType": "string",
          "name": "",
          "type": "string"
        }
      ],
      "stateMutability": "view",
      "type": "function"
    },
    {
      "inputs": [],
      "name": "totalSupply",
      "outputs": [
        {
          "internalType": "uint256",
          "name": "",
          "type": "uint256"
        }
      ],
      "stateMutability": "view",
      "type": "function"
    },
    {
      "inputs": [
        {
          "internalType": "address",
          "name": "recipient",
          "type": "address"
        },
        {
          "internalType": "uint256",
          "name": "amount",
          "type": "uint256"
        }
      ],
      "name": "transfer",
      "outputs": [
        {
          "internalType": "bool",
          "name": "",
          "type": "bool"
        }
      ],
      "stateMutability": "nonpayable",
      "type": "function"
    },
    {
      "inputs": [
        {
          "internalType": "address",
          "name": "sender",
          "type": "address"
        },
        {
          "internalType": "address",
          "name": "recipient",
          "type": "address"
        },
        {
          "internalType": "uint256",
          "name": "amount",
          "type": "uint256"
        }
      ],
      "name": "transferFrom",
      "outputs": [
        {
          "internalType": "bool",
          "name": "",
          "type": "bool"
        }
      ],
      "stateMutability": "nonpayable",
      "type": "function"
    },
    {
      "inputs": [
        {
          "internalType": "uint256",
          "name": "units_",
          "type": "uint256"
        }
      ],
      "name": "unseed",
      "outputs": [],
      "stateMutability": "nonpayable",
      "type": "function"
    }
  ],
  "bytecode": "0x608060405234801561001057600080fd5b50613161806100206000396000f3fe608060405234801561001057600080fd5b506004361061018d5760003560e01c8063634991af116100e3578063a457c2d71161008c578063cd3293de11610066578063cd3293de1461037d578063db006a751461039d578063dd62ed3e146103b057600080fd5b8063a457c2d714610344578063a9059cbb14610357578063b7a3c8281461036a57600080fd5b80637e34cd3d116100bd5780637e34cd3d1461030b57806395d89b41146103145780639923c94b1461031c57600080fd5b8063634991af1461027d57806366d003ac1461029057806370a08231146102d557600080fd5b806318160ddd11610145578063395093511161011f5780633950935114610244578063402dc2c61461025757806345bdfa8a1461026a57600080fd5b806318160ddd1461021057806323b872dd14610222578063313ce5671461023557600080fd5b8063094890961161017657806309489096146101c5578063095ea7b3146101da578063166a00e4146101fd57600080fd5b8063055ad42e1461019257806306fdde03146101b0575b600080fd5b61019a6103f6565b6040516101a79190612a29565b60405180910390f35b6101b8610461565b6040516101a79190612a96565b6101d86101d3366004612ae7565b6104f3565b005b6101ed6101e8366004612b22565b61079f565b60405190151581526020016101a7565b6101d861020b366004612b4e565b6107b6565b6035545b6040519081526020016101a7565b6101ed610230366004612b70565b610caa565b604051600081526020016101a7565b6101ed610252366004612b22565b610d92565b6101d8610265366004612cd7565b610ddb565b610214610278366004612e5d565b6111bb565b61019a61028b366004612e9b565b61121e565b606c546102b09073ffffffffffffffffffffffffffffffffffffffff1681565b60405173ffffffffffffffffffffffffffffffffffffffff90911681526020016101a7565b6102146102e3366004612ec8565b73ffffffffffffffffffffffffffffffffffffffff1660009081526033602052604090205490565b610214606d5481565b6101b8611285565b61032f61032a366004612ae7565b611294565b60405163ffffffff90911681526020016101a7565b6101ed610352366004612b22565b6112c4565b6101ed610365366004612b22565b61139c565b6101d8610378366004612ae7565b6113a9565b606b546102b09073ffffffffffffffffffffffffffffffffffffffff1681565b6101d86103ab366004612ae7565b6113d7565b6102146103be366004612ee5565b73ffffffffffffffffffffffffffffffffffffffff918216600090815260346020908152604080832093909416825291909152205490565b6040805161010081019182905260009161045c91906065906008908286855b82829054906101000a900463ffffffff1663ffffffff168152602001906004019060208260030104928301926001038202915080841161041557905050505050504361121e565b905090565b60606036805461047090612f13565b80601f016020809104026020016040519081016040528092919081815260200182805461049c90612f13565b80156104e95780601f106104be576101008083540402835291602001916104e9565b820191906000526020600020905b8154815290600101906020018083116104cc57829003601f168201915b5050505050905090565b6000806104fe6103f6565b600881111561050f5761050f6129fa565b1461057b576040517f08c379a000000000000000000000000000000000000000000000000000000000815260206004820152600960248201527f4241445f5048415345000000000000000000000000000000000000000000000060448201526064015b60405180910390fd5b60685460009073ffffffffffffffffffffffffffffffffffffffff16156105ba5760685473ffffffffffffffffffffffffffffffffffffffff166105e8565b606880547fffffffffffffffffffffffff000000000000000000000000000000000000000016339081179091555b73ffffffffffffffffffffffffffffffffffffffff811660009081526067602052604090205490915043101561067a576040517f08c379a000000000000000000000000000000000000000000000000000000000815260206004820152600860248201527f434f4f4c444f574e0000000000000000000000000000000000000000000000006044820152606401610572565b60006066544361068a9190612f96565b73ffffffffffffffffffffffffffffffffffffffff8316600081815260676020908152604091829020849055815192835282018390529192507fdd9ec76fd04aab7ee6b385c04a7bdf966620500e72b134bfc3f19654fae20f25910160405180910390a1600084606d546106fe9190612fae565b905061070b3330876115ef565b60408051338152602081018790529081018290527fa7a28d973038da3f8f74915d4ba1108930a16dfd6c9f81bf3881c858e08568369060600160405180910390a1606b546107709073ffffffffffffffffffffffffffffffffffffffff1633836118a2565b5050606880547fffffffffffffffffffffffff0000000000000000000000000000000000000000169055505050565b60006107ac33848461197b565b5060015b92915050565b6000806107c16103f6565b60088111156107d2576107d26129fa565b14610839576040517f08c379a000000000000000000000000000000000000000000000000000000000815260206004820152600960248201527f4241445f504841534500000000000000000000000000000000000000000000006044820152606401610572565b60685460009073ffffffffffffffffffffffffffffffffffffffff16156108785760685473ffffffffffffffffffffffffffffffffffffffff166108a6565b606880547fffffffffffffffffffffffff000000000000000000000000000000000000000016339081179091555b73ffffffffffffffffffffffffffffffffffffffff8116600090815260676020526040902054909150431015610938576040517f08c379a000000000000000000000000000000000000000000000000000000000815260206004820152600860248201527f434f4f4c444f574e0000000000000000000000000000000000000000000000006044820152606401610572565b6000606654436109489190612f96565b73ffffffffffffffffffffffffffffffffffffffff8316600081815260676020908152604091829020849055815192835282018390529192507fdd9ec76fd04aab7ee6b385c04a7bdf966620500e72b134bfc3f19654fae20f25910160405180910390a160008411610a16576040517f08c379a000000000000000000000000000000000000000000000000000000000815260206004820152600960248201527f444553495245445f3000000000000000000000000000000000000000000000006044820152606401610572565b83851115610a80576040517f08c379a000000000000000000000000000000000000000000000000000000000815260206004820152601460248201527f4d494e494d554d5f4f5645525f444553495245440000000000000000000000006044820152606401610572565b3060009081526033602052604090205480861115610afa576040517f08c379a000000000000000000000000000000000000000000000000000000000815260206004820152601260248201527f494e53554646494349454e545f53544f434b00000000000000000000000000006044820152606401610572565b6000610b068683611b2e565b9050600081606d54610b189190612fae565b905081831415610b2b57610b2b43611b44565b610b363033846115ef565b60408051338152602081018490529081018290527fcfbc75cbfc5b8b5055f9bbb6b60bdf5394eb8dc9a09770d5deedd7d4f82d79169060600160405180910390a1606b54610b9c9073ffffffffffffffffffffffffffffffffffffffff16333084611d80565b6001610ba66103f6565b6008811115610bb757610bb76129fa565b1415610c7857606c54606b546040517f70a08231000000000000000000000000000000000000000000000000000000008152306004820152610c789273ffffffffffffffffffffffffffffffffffffffff9081169216906370a0823190602401602060405180830381865afa158015610c34573d6000803e3d6000fd5b505050506040513d601f19601f82011682018060405250810190610c589190612feb565b606b5473ffffffffffffffffffffffffffffffffffffffff1691906118a2565b5050606880547fffffffffffffffffffffffff0000000000000000000000000000000000000000169055505050505050565b6000610cb78484846115ef565b73ffffffffffffffffffffffffffffffffffffffff8416600090815260346020908152604080832033845290915290205482811015610d78576040517f08c379a000000000000000000000000000000000000000000000000000000000815260206004820152602860248201527f45524332303a207472616e7366657220616d6f756e742065786365656473206160448201527f6c6c6f77616e63650000000000000000000000000000000000000000000000006064820152608401610572565b610d85853385840361197b565b60019150505b9392505050565b33600081815260346020908152604080832073ffffffffffffffffffffffffffffffffffffffff8716845290915281205490916107ac918590610dd6908690612f96565b61197b565b600054610100900460ff16610df65760005460ff1615610dfa565b303b155b610e86576040517f08c379a000000000000000000000000000000000000000000000000000000000815260206004820152602e60248201527f496e697469616c697a61626c653a20636f6e747261637420697320616c72656160448201527f647920696e697469616c697a65640000000000000000000000000000000000006064820152608401610572565b600054610100900460ff16158015610ec557600080547fffffffffffffffffffffffffffffffffffffffffffffffffffffffffffff0000166101011790555b6000826040015111610f33576040517f08c379a000000000000000000000000000000000000000000000000000000000815260206004820152600760248201527f50524943455f30000000000000000000000000000000000000000000000000006044820152606401610572565b6000826060015111610fa1576040517f08c379a000000000000000000000000000000000000000000000000000000000815260206004820152600760248201527f554e4954535f30000000000000000000000000000000000000000000000000006044820152606401610572565b602082015173ffffffffffffffffffffffffffffffffffffffff16611022576040517f08c379a000000000000000000000000000000000000000000000000000000000815260206004820152600b60248201527f524543495049454e545f300000000000000000000000000000000000000000006044820152606401610572565b6110736040518060400160405280846020015173ffffffffffffffffffffffffffffffffffffffff168152602001846000015173ffffffffffffffffffffffffffffffffffffffff16815250611dde565b61107b611fc8565b6110888260800151612081565b60a0820151805160209091015161109f9190612136565b6020820151606c805473ffffffffffffffffffffffffffffffffffffffff9283167fffffffffffffffffffffffff0000000000000000000000000000000000000000918216179091558351606b80549190931691161790556040820151606d55606082015161110f9030906121df565b6020808301518351604080860151606080880151835133815273ffffffffffffffffffffffffffffffffffffffff9687169781019790975294909316918501919091529083015260808201527f0f4e49fafe73f5d41dd869ea8947aca5854012f53890a27f7379ad92a02edb6d9060a00160405180910390a180156111b757600080547fffffffffffffffffffffffffffffffffffffffffffffffffffffffffffff00ff1690555b5050565b6000808260088111156111d0576111d06129fa565b116111dc576000611211565b8260018360088111156111f1576111f16129fa565b6111fb9190613004565b6008811061120b5761120b61301b565b60200201515b63ffffffff169392505050565b6000805b600881101561127b5783816008811061123d5761123d61301b565b602002015163ffffffff1683101561126957806008811115611261576112616129fa565b9150506107b0565b806112738161304a565b915050611222565b5060089392505050565b60606037805461047090612f13565b606581600881106112a457600080fd5b60089182820401919006600402915054906101000a900463ffffffff1681565b33600090815260346020908152604080832073ffffffffffffffffffffffffffffffffffffffff8616845290915281205482811015611385576040517f08c379a000000000000000000000000000000000000000000000000000000000815260206004820152602560248201527f45524332303a2064656372656173656420616c6c6f77616e63652062656c6f7760448201527f207a65726f0000000000000000000000000000000000000000000000000000006064820152608401610572565b611392338585840361197b565b5060019392505050565b60006107ac3384846115ef565b606954606a546113d49173ffffffffffffffffffffffffffffffffffffffff91821691163084611d80565b50565b6001806113e26103f6565b60088111156113f3576113f36129fa565b1461145a576040517f08c379a000000000000000000000000000000000000000000000000000000000815260206004820152600960248201527f4241445f504841534500000000000000000000000000000000000000000000006044820152606401610572565b606b546040517f70a0823100000000000000000000000000000000000000000000000000000000815230600482015260009173ffffffffffffffffffffffffffffffffffffffff16906370a0823190602401602060405180830381865afa1580156114c9573d6000803e3d6000fd5b505050506040513d601f19601f820116820180604052508101906114ed9190612feb565b905060008111611559576040517f08c379a000000000000000000000000000000000000000000000000000000000815260206004820152600f60248201527f524553455256455f42414c414e434500000000000000000000000000000000006044820152606401610572565b600061156460355490565b61156e8386612fae565b6115789190613083565b905061158433856122ff565b60408051338152602081018690529081018290527fe5b754fb1abb7f01b499791d0b820ae3b6af3424ac1c59768edb53f4ec31a9299060600160405180910390a1606b546115e99073ffffffffffffffffffffffffffffffffffffffff1633836118a2565b50505050565b73ffffffffffffffffffffffffffffffffffffffff8316611692576040517f08c379a000000000000000000000000000000000000000000000000000000000815260206004820152602560248201527f45524332303a207472616e736665722066726f6d20746865207a65726f20616460448201527f64726573730000000000000000000000000000000000000000000000000000006064820152608401610572565b73ffffffffffffffffffffffffffffffffffffffff8216611735576040517f08c379a000000000000000000000000000000000000000000000000000000000815260206004820152602360248201527f45524332303a207472616e7366657220746f20746865207a65726f206164647260448201527f65737300000000000000000000000000000000000000000000000000000000006064820152608401610572565b73ffffffffffffffffffffffffffffffffffffffff8316600090815260336020526040902054818110156117eb576040517f08c379a000000000000000000000000000000000000000000000000000000000815260206004820152602660248201527f45524332303a207472616e7366657220616d6f756e742065786365656473206260448201527f616c616e636500000000000000000000000000000000000000000000000000006064820152608401610572565b73ffffffffffffffffffffffffffffffffffffffff80851660009081526033602052604080822085850390559185168152908120805484929061182f908490612f96565b925050819055508273ffffffffffffffffffffffffffffffffffffffff168473ffffffffffffffffffffffffffffffffffffffff167fddf252ad1be2c89b69c2b068fc378daa952ba7f163c4a11628f55a4df523b3ef8460405161189591815260200190565b60405180910390a36115e9565b60405173ffffffffffffffffffffffffffffffffffffffff83166024820152604481018290526119769084907fa9059cbb00000000000000000000000000000000000000000000000000000000906064015b604080517fffffffffffffffffffffffffffffffffffffffffffffffffffffffffffffffe08184030181529190526020810180517bffffffffffffffffffffffffffffffffffffffffffffffffffffffff167fffffffff00000000000000000000000000000000000000000000000000000000909316929092179091526124ec565b505050565b73ffffffffffffffffffffffffffffffffffffffff8316611a1d576040517f08c379a0000000000000000000000000000000000000000000000000000000008152602060048201526024808201527f45524332303a20617070726f76652066726f6d20746865207a65726f2061646460448201527f72657373000000000000000000000000000000000000000000000000000000006064820152608401610572565b73ffffffffffffffffffffffffffffffffffffffff8216611ac0576040517f08c379a000000000000000000000000000000000000000000000000000000000815260206004820152602260248201527f45524332303a20617070726f766520746f20746865207a65726f20616464726560448201527f73730000000000000000000000000000000000000000000000000000000000006064820152608401610572565b73ffffffffffffffffffffffffffffffffffffffff83811660008181526034602090815260408083209487168084529482529182902085905590518481527f8c5be1e5ebec7d5bd14f71427d1e84f3dd0314c0f7b2291e5b200ac8c7c3b925910160405180910390a3505050565b6000818310611b3d5781610d8b565b5090919050565b80431115611bae576040517f08c379a000000000000000000000000000000000000000000000000000000000815260206004820152600f60248201527f4e4558545f424c4f434b5f5041535400000000000000000000000000000000006044820152606401610572565b63ffffffff8110611c1b576040517f08c379a000000000000000000000000000000000000000000000000000000000815260206004820152601860248201527f4e4558545f424c4f434b5f554e494e495449414c495a454400000000000000006044820152606401610572565b6000611c256103f6565b6008811115611c3657611c366129fa565b905060658160088110611c4b57611c4b61301b565b60088104919091015460079091166004026101000a900463ffffffff90811614611cd1576040517f08c379a000000000000000000000000000000000000000000000000000000000815260206004820152600e60248201527f4e4558545f424c4f434b5f5345540000000000000000000000000000000000006044820152606401610572565b611cda826125f8565b8160658260088110611cee57611cee61301b565b600891828204019190066004026101000a81548163ffffffff021916908363ffffffff1602179055507fba85f6676f17ca992195e3cb204ae48c68666b109edc14a794e5d894387d25d333826001611d469190612f96565b6040805173ffffffffffffffffffffffffffffffffffffffff90931683526020830191909152810184905260600160405180910390a15050565b60405173ffffffffffffffffffffffffffffffffffffffff808516602483015283166044820152606481018290526115e99085907f23b872dd00000000000000000000000000000000000000000000000000000000906084016118f4565b805173ffffffffffffffffffffffffffffffffffffffff16611e5c576040517f08c379a000000000000000000000000000000000000000000000000000000000815260206004820152600b60248201527f5a45524f5f53454e4445520000000000000000000000000000000000000000006044820152606401610572565b602081015173ffffffffffffffffffffffffffffffffffffffff16611edd576040517f08c379a000000000000000000000000000000000000000000000000000000000815260206004820152600a60248201527f5a45524f5f544f4b454e000000000000000000000000000000000000000000006044820152606401610572565b60695473ffffffffffffffffffffffffffffffffffffffff1615611f0357611f036130be565b606a5473ffffffffffffffffffffffffffffffffffffffff1615611f2957611f296130be565b80516069805473ffffffffffffffffffffffffffffffffffffffff9283167fffffffffffffffffffffffff00000000000000000000000000000000000000009182168117909255602080850151606a805491909516921682179093556040805133815293840192909252908201527fe67a5c2dcf68e8fac05314f53ecd2ff0b403ed683c4bfdad15eaec7a8a63f555906060015b60405180910390a150565b60655463ffffffff1615611fde57611fde6130be565b60005b600881101561203e5763ffffffff606582600881106120025761200261301b565b600891828204019190066004026101000a81548163ffffffff021916908363ffffffff16021790555080806120369061304a565b915050611fe1565b50604080513381526000602082018190528183015290517fba85f6676f17ca992195e3cb204ae48c68666b109edc14a794e5d894387d25d39181900360600190a1565b600081116120eb576040517f08c379a000000000000000000000000000000000000000000000000000000000815260206004820152600a60248201527f434f4f4c444f574e5f30000000000000000000000000000000000000000000006044820152606401610572565b606654156120fb576120fb6130be565b606681905560408051338152602081018390527f6153539ba1c54ed4ef5b6f1fda4b7183eeaa1b5707c152abed56f61e094525219101611fbd565b600054610100900460ff166121cd576040517f08c379a000000000000000000000000000000000000000000000000000000000815260206004820152602b60248201527f496e697469616c697a61626c653a20636f6e7472616374206973206e6f74206960448201527f6e697469616c697a696e670000000000000000000000000000000000000000006064820152608401610572565b6121d5612620565b6111b782826126b9565b73ffffffffffffffffffffffffffffffffffffffff821661225c576040517f08c379a000000000000000000000000000000000000000000000000000000000815260206004820152601f60248201527f45524332303a206d696e7420746f20746865207a65726f2061646472657373006044820152606401610572565b806035600082825461226e9190612f96565b909155505073ffffffffffffffffffffffffffffffffffffffff8216600090815260336020526040812080548392906122a8908490612f96565b909155505060405181815273ffffffffffffffffffffffffffffffffffffffff8316906000907fddf252ad1be2c89b69c2b068fc378daa952ba7f163c4a11628f55a4df523b3ef9060200160405180910390a35050565b73ffffffffffffffffffffffffffffffffffffffff82166123a2576040517f08c379a000000000000000000000000000000000000000000000000000000000815260206004820152602160248201527f45524332303a206275726e2066726f6d20746865207a65726f2061646472657360448201527f73000000000000000000000000000000000000000000000000000000000000006064820152608401610572565b73ffffffffffffffffffffffffffffffffffffffff821660009081526033602052604090205481811015612458576040517f08c379a000000000000000000000000000000000000000000000000000000000815260206004820152602260248201527f45524332303a206275726e20616d6f756e7420657863656564732062616c616e60448201527f63650000000000000000000000000000000000000000000000000000000000006064820152608401610572565b73ffffffffffffffffffffffffffffffffffffffff83166000908152603360205260408120838303905560358054849290612494908490613004565b909155505060405182815260009073ffffffffffffffffffffffffffffffffffffffff8516907fddf252ad1be2c89b69c2b068fc378daa952ba7f163c4a11628f55a4df523b3ef9060200160405180910390a3505050565b600061254e826040518060400160405280602081526020017f5361666545524332303a206c6f772d6c6576656c2063616c6c206661696c65648152508573ffffffffffffffffffffffffffffffffffffffff166127779092919063ffffffff16565b805190915015611976578080602001905181019061256c91906130ed565b611976576040517f08c379a000000000000000000000000000000000000000000000000000000000815260206004820152602a60248201527f5361666545524332303a204552433230206f7065726174696f6e20646964206e60448201527f6f742073756363656564000000000000000000000000000000000000000000006064820152608401610572565b60016126026103f6565b6008811115612613576126136129fa565b106113d4576113d46130be565b600054610100900460ff166126b7576040517f08c379a000000000000000000000000000000000000000000000000000000000815260206004820152602b60248201527f496e697469616c697a61626c653a20636f6e7472616374206973206e6f74206960448201527f6e697469616c697a696e670000000000000000000000000000000000000000006064820152608401610572565b565b600054610100900460ff16612750576040517f08c379a000000000000000000000000000000000000000000000000000000000815260206004820152602b60248201527f496e697469616c697a61626c653a20636f6e7472616374206973206e6f74206960448201527f6e697469616c697a696e670000000000000000000000000000000000000000006064820152608401610572565b8151612763906036906020850190612961565b508051611976906037906020840190612961565b6060612786848460008561278e565b949350505050565b606082471015612820576040517f08c379a000000000000000000000000000000000000000000000000000000000815260206004820152602660248201527f416464726573733a20696e73756666696369656e742062616c616e636520666f60448201527f722063616c6c00000000000000000000000000000000000000000000000000006064820152608401610572565b843b612888576040517f08c379a000000000000000000000000000000000000000000000000000000000815260206004820152601d60248201527f416464726573733a2063616c6c20746f206e6f6e2d636f6e74726163740000006044820152606401610572565b6000808673ffffffffffffffffffffffffffffffffffffffff1685876040516128b1919061310f565b60006040518083038185875af1925050503d80600081146128ee576040519150601f19603f3d011682016040523d82523d6000602084013e6128f3565b606091505b509150915061290382828661290e565b979650505050505050565b6060831561291d575081610d8b565b82511561292d5782518084602001fd5b816040517f08c379a00000000000000000000000000000000000000000000000000000000081526004016105729190612a96565b82805461296d90612f13565b90600052602060002090601f01602090048101928261298f57600085556129d5565b82601f106129a857805160ff19168380011785556129d5565b828001600101855582156129d5579182015b828111156129d55782518255916020019190600101906129ba565b506129e19291506129e5565b5090565b5b808211156129e157600081556001016129e6565b7f4e487b7100000000000000000000000000000000000000000000000000000000600052602160045260246000fd5b6020810160098310612a64577f4e487b7100000000000000000000000000000000000000000000000000000000600052602160045260246000fd5b91905290565b60005b83811015612a85578181015183820152602001612a6d565b838111156115e95750506000910152565b6020815260008251806020840152612ab5816040850160208701612a6a565b601f017fffffffffffffffffffffffffffffffffffffffffffffffffffffffffffffffe0169190910160400192915050565b600060208284031215612af957600080fd5b5035919050565b73ffffffffffffffffffffffffffffffffffffffff811681146113d457600080fd5b60008060408385031215612b3557600080fd5b8235612b4081612b00565b946020939093013593505050565b60008060408385031215612b6157600080fd5b50508035926020909101359150565b600080600060608486031215612b8557600080fd5b8335612b9081612b00565b92506020840135612ba081612b00565b929592945050506040919091013590565b7f4e487b7100000000000000000000000000000000000000000000000000000000600052604160045260246000fd5b60405160c0810167ffffffffffffffff81118282101715612c0357612c03612bb1565b60405290565b6040805190810167ffffffffffffffff81118282101715612c0357612c03612bb1565b600082601f830112612c3d57600080fd5b813567ffffffffffffffff80821115612c5857612c58612bb1565b604051601f83017fffffffffffffffffffffffffffffffffffffffffffffffffffffffffffffffe0908116603f01168101908282118183101715612c9e57612c9e612bb1565b81604052838152866020858801011115612cb757600080fd5b836020870160208301376000602085830101528094505050505092915050565b600060208284031215612ce957600080fd5b813567ffffffffffffffff80821115612d0157600080fd5b9083019060c08286031215612d1557600080fd5b612d1d612be0565b8235612d2881612b00565b81526020830135612d3881612b00565b8060208301525060408301356040820152606083013560608201526080830135608082015260a083013582811115612d6f57600080fd5b929092019160408387031215612d8457600080fd5b612d8c612c09565b833583811115612d9b57600080fd5b612da788828701612c2c565b825250602084013583811115612dbc57600080fd5b612dc888828701612c2c565b60208301525060a082015295945050505050565b600082601f830112612ded57600080fd5b60405161010080820182811067ffffffffffffffff82111715612e1257612e12612bb1565b60405283018185821115612e2557600080fd5b845b82811015612e5257803563ffffffff81168114612e445760008081fd5b825260209182019101612e27565b509195945050505050565b6000806101208385031215612e7157600080fd5b612e7b8484612ddc565b915061010083013560098110612e9057600080fd5b809150509250929050565b6000806101208385031215612eaf57600080fd5b612eb98484612ddc565b94610100939093013593505050565b600060208284031215612eda57600080fd5b8135610d8b81612b00565b60008060408385031215612ef857600080fd5b8235612f0381612b00565b91506020830135612e9081612b00565b600181811c90821680612f2757607f821691505b60208210811415612f61577f4e487b7100000000000000000000000000000000000000000000000000000000600052602260045260246000fd5b50919050565b7f4e487b7100000000000000000000000000000000000000000000000000000000600052601160045260246000fd5b60008219821115612fa957612fa9612f67565b500190565b6000817fffffffffffffffffffffffffffffffffffffffffffffffffffffffffffffffff0483118215151615612fe657612fe6612f67565b500290565b600060208284031215612ffd57600080fd5b5051919050565b60008282101561301657613016612f67565b500390565b7f4e487b7100000000000000000000000000000000000000000000000000000000600052603260045260246000fd5b60007fffffffffffffffffffffffffffffffffffffffffffffffffffffffffffffffff82141561307c5761307c612f67565b5060010190565b6000826130b9577f4e487b7100000000000000000000000000000000000000000000000000000000600052601260045260246000fd5b500490565b7f4e487b7100000000000000000000000000000000000000000000000000000000600052600160045260246000fd5b6000602082840312156130ff57600080fd5b81518015158114610d8b57600080fd5b60008251613121818460208701612a6a565b919091019291505056fea2646970667358221220df02586b40e0f1887555660d7b445272ac0206f7d1bf608b37fe824e02d5086864736f6c634300080a0033",
  "linkReferences": {},
  "deployedLinkReferences": {}
}