{
  "_format": "hh-sol-artifact-1",
  "contractName": "CombineTierFactory",
  "sourceName": "contracts/tier/CombineTierFactory.sol",
  "abi": [
    {
      "inputs": [],
      "stateMutability": "nonpayable",
      "type": "constructor"
    },
    {
      "anonymous": false,
      "inputs": [
        {
          "indexed": false,
          "internalType": "address",
          "name": "sender",
          "type": "address"
        },
        {
          "indexed": false,
          "internalType": "address",
          "name": "implementation",
          "type": "address"
        }
      ],
      "name": "Implementation",
      "type": "event"
    },
    {
      "anonymous": false,
      "inputs": [
        {
          "indexed": false,
          "internalType": "address",
          "name": "sender",
          "type": "address"
        },
        {
          "indexed": false,
          "internalType": "address",
          "name": "child",
          "type": "address"
        }
      ],
      "name": "NewChild",
      "type": "event"
    },
    {
      "inputs": [
        {
          "internalType": "bytes",
          "name": "data_",
          "type": "bytes"
        }
      ],
      "name": "createChild",
      "outputs": [
        {
          "internalType": "address",
          "name": "",
          "type": "address"
        }
      ],
      "stateMutability": "nonpayable",
      "type": "function"
    },
    {
      "inputs": [
        {
          "components": [
            {
              "internalType": "bytes[]",
              "name": "sources",
              "type": "bytes[]"
            },
            {
              "internalType": "uint256[]",
              "name": "constants",
              "type": "uint256[]"
            },
            {
              "internalType": "uint256",
              "name": "stackLength",
              "type": "uint256"
            },
            {
              "internalType": "uint256",
              "name": "argumentsLength",
              "type": "uint256"
            }
          ],
          "internalType": "struct StateConfig",
          "name": "config_",
          "type": "tuple"
        }
      ],
      "name": "createChildTyped",
      "outputs": [
        {
          "internalType": "contract CombineTier",
          "name": "",
          "type": "address"
        }
      ],
      "stateMutability": "nonpayable",
      "type": "function"
    },
    {
      "inputs": [],
      "name": "implementation",
      "outputs": [
        {
          "internalType": "address",
          "name": "",
          "type": "address"
        }
      ],
      "stateMutability": "view",
      "type": "function"
    },
    {
      "inputs": [
        {
          "internalType": "address",
          "name": "maybeChild_",
          "type": "address"
        }
      ],
      "name": "isChild",
      "outputs": [
        {
          "internalType": "bool",
          "name": "",
          "type": "bool"
        }
      ],
      "stateMutability": "view",
      "type": "function"
    }
  ],
  "bytecode": "0x60a060405234801561001057600080fd5b506001600090815560405161002490610096565b604051809103906000f080158015610040573d6000803e3d6000fd5b50604080513381526001600160a01b03831660208201529192507f7fac34ecf0b1b374cd9659e3d17db602659d53f1162b1f20142e6c02694aed70910160405180910390a16001600160a01b03166080526100a3565b6137ee80610dbe83390190565b608051610cfa6100c4600039600081816093015261037a0152610cfa6000f3fe608060405234801561001057600080fd5b506004361061004c5760003560e01c80632ea72a49146100515780635c60da1b1461008e57806384e0ecdb146100b5578063fc91a897146100c8575b600080fd5b61006461005f366004610510565b610111565b60405173ffffffffffffffffffffffffffffffffffffffff90911681526020015b60405180910390f35b6100647f000000000000000000000000000000000000000000000000000000000000000081565b6100646100c3366004610582565b6102bf565b6101016100d63660046105e9565b73ffffffffffffffffffffffffffffffffffffffff1660009081526001602052604090205460ff1690565b6040519015158152602001610085565b600060026000541415610185576040517f08c379a000000000000000000000000000000000000000000000000000000000815260206004820152601f60248201527f5265656e7472616e637947756172643a207265656e7472616e742063616c6c0060448201526064015b60405180910390fd5b600260009081556101968484610362565b73ffffffffffffffffffffffffffffffffffffffff811660009081526001602052604090205490915060ff1615610229576040517f08c379a000000000000000000000000000000000000000000000000000000000815260206004820152600f60248201527f4455504c49434154455f4348494c440000000000000000000000000000000000604482015260640161017c565b73ffffffffffffffffffffffffffffffffffffffff811660008181526001602081815260409283902080547fffffffffffffffffffffffffffffffffffffffffffffffffffffffffffffff00169092179091558151338152908101929092527f7da70c4e5387d7038610b79ca7d304caaef815826e51e67cf247135387a79bce910160405180910390a160016000559392505050565b60003073ffffffffffffffffffffffffffffffffffffffff16632ea72a49836040516020016102ee919061070c565b6040516020818303038152906040526040518263ffffffff1660e01b815260040161031991906108bf565b6020604051808303816000875af1158015610338573d6000803e3d6000fd5b505050506040513d601f19601f8201168201806040525081019061035c91906108d2565b92915050565b60008061037183850185610a25565b9050600061039e7f000000000000000000000000000000000000000000000000000000000000000061042e565b6040517fe684b6d600000000000000000000000000000000000000000000000000000000815290915073ffffffffffffffffffffffffffffffffffffffff82169063e684b6d6906103f3908590600401610be8565b600060405180830381600087803b15801561040d57600080fd5b505af1158015610421573d6000803e3d6000fd5b5092979650505050505050565b60006040517f3d602d80600a3d3981f3363d3d373d3d3d363d7300000000000000000000000081528260601b60148201527f5af43d82803e903d91602b57fd5bf3000000000000000000000000000000000060288201526037816000f091505073ffffffffffffffffffffffffffffffffffffffff811661050b576040517f08c379a000000000000000000000000000000000000000000000000000000000815260206004820152601660248201527f455243313136373a20637265617465206661696c656400000000000000000000604482015260640161017c565b919050565b6000806020838503121561052357600080fd5b823567ffffffffffffffff8082111561053b57600080fd5b818501915085601f83011261054f57600080fd5b81358181111561055e57600080fd5b86602082850101111561057057600080fd5b60209290920196919550909350505050565b60006020828403121561059457600080fd5b813567ffffffffffffffff8111156105ab57600080fd5b8201608081850312156105bd57600080fd5b9392505050565b73ffffffffffffffffffffffffffffffffffffffff811681146105e657600080fd5b50565b6000602082840312156105fb57600080fd5b81356105bd816105c4565b60008083357fffffffffffffffffffffffffffffffffffffffffffffffffffffffffffffffe184360301811261063b57600080fd5b830160208101925035905067ffffffffffffffff81111561065b57600080fd5b8060051b360383131561066d57600080fd5b9250929050565b8183528181602085013750600060208284010152600060207fffffffffffffffffffffffffffffffffffffffffffffffffffffffffffffffe0601f840116840101905092915050565b81835260007f07ffffffffffffffffffffffffffffffffffffffffffffffffffffffffffffff8311156106ef57600080fd5b8260051b8083602087013760009401602001938452509192915050565b6000602080835260a083016107218586610606565b6080848701528281845260c08701905060c08260051b88010193508260005b838110156107ea577fffffffffffffffffffffffffffffffffffffffffffffffffffffffffffffff4089870301835281357fffffffffffffffffffffffffffffffffffffffffffffffffffffffffffffffe18636030181126107a157600080fd5b8501803567ffffffffffffffff8111156107ba57600080fd5b8036038713156107c957600080fd5b6107d688828b8501610674565b975050509186019190860190600101610740565b50505050506107fb82860186610606565b92507fffffffffffffffffffffffffffffffffffffffffffffffffffffffffffffffe08583030160408601526108328284836106bd565b9250505060408401356060840152606084013560808401528091505092915050565b6000815180845260005b8181101561087a5760208185018101518683018201520161085e565b8181111561088c576000602083870101525b50601f017fffffffffffffffffffffffffffffffffffffffffffffffffffffffffffffffe0169290920160200192915050565b6020815260006105bd6020830184610854565b6000602082840312156108e457600080fd5b81516105bd816105c4565b7f4e487b7100000000000000000000000000000000000000000000000000000000600052604160045260246000fd5b6040516080810167ffffffffffffffff81118282101715610941576109416108ef565b60405290565b604051601f82017fffffffffffffffffffffffffffffffffffffffffffffffffffffffffffffffe016810167ffffffffffffffff8111828210171561098e5761098e6108ef565b604052919050565b600067ffffffffffffffff8211156109b0576109b06108ef565b5060051b60200190565b600082601f8301126109cb57600080fd5b813560206109e06109db83610996565b610947565b82815260059290921b840181019181810190868411156109ff57600080fd5b8286015b84811015610a1a5780358352918301918301610a03565b509695505050505050565b60006020808385031215610a3857600080fd5b823567ffffffffffffffff80821115610a5057600080fd5b9084019060808287031215610a6457600080fd5b610a6c61091e565b823582811115610a7b57600080fd5b8301601f81018813610a8c57600080fd5b8035610a9a6109db82610996565b81815260059190911b8201860190868101908a831115610ab957600080fd5b8784015b83811015610b6457803587811115610ad55760008081fd5b8501603f81018d13610ae75760008081fd5b89810135604089821115610afd57610afd6108ef565b610b2d8c7fffffffffffffffffffffffffffffffffffffffffffffffffffffffffffffffe0601f85011601610947565b8281528f82848601011115610b425760008081fd5b828285018e83013760009281018d019290925250845250918801918801610abd565b5084525050508284013582811115610b7b57600080fd5b610b87888286016109ba565b858301525060408301356040820152606083013560608201528094505050505092915050565b600081518084526020808501945080840160005b83811015610bdd57815187529582019590820190600101610bc1565b509495945050505050565b6000602080835260a08301845160808386015281815180845260c08701915060c08160051b8801019350848301925060005b81811015610c66577fffffffffffffffffffffffffffffffffffffffffffffffffffffffffffffff40888603018352610c54858551610854565b94509285019291850191600101610c1a565b50505050908401518382037fffffffffffffffffffffffffffffffffffffffffffffffffffffffffffffffe001604085015290610ca38183610bad565b9150506040840151606084015260608401516080840152809150509291505056fea26469706673582212200f897cda5f16934ffdd3689641f4191a965e374a7cea8922b5fa0e61dcbbd4a964736f6c634300080a003360a06040523480156200001157600080fd5b506002808060066007600b6200002982600462000087565b62000035919062000087565b62000041919062000087565b6200004d919062000087565b62000059919062000087565b62000065919062000087565b62000071919062000087565b6200007e90600562000087565b608052620000ae565b60008219821115620000a957634e487b7160e01b600052601160045260246000fd5b500190565b60805161371d620000d160003960008181610a220152610a5d015261371d6000f3fe608060405234801561001057600080fd5b50600436106100415760003560e01c80638a200fff14610046578063e053ea311461005b578063e684b6d614610080575b600080fd5b610059610054366004612b58565b610093565b005b61006e610069366004612be1565b6100fa565b60405190815260200160405180910390f35b61005961008e366004612d9d565b610197565b6040517f08c379a000000000000000000000000000000000000000000000000000000000815260206004820152600860248201527f5345545f5449455200000000000000000000000000000000000000000000000060448201526064015b60405180910390fd5b6000805481906101259062010000900473ffffffffffffffffffffffffffffffffffffffff16610290565b6040805173ffffffffffffffffffffffffffffffffffffffff8616602082015291925061016491016040516020818303038152906040528260006102e4565b6020810151815161017790600190612f20565b8151811061018757610187612f37565b6020026020010151915050919050565b60006101a360016104aa565b905080156101d857600080547fffffffffffffffffffffffffffffffffffffffffffffffffffffffffffff00ff166101001790555b6101e96101e483610630565b61078c565b600060026101000a81548173ffffffffffffffffffffffffffffffffffffffff021916908373ffffffffffffffffffffffffffffffffffffffff160217905550801561028c57600080547fffffffffffffffffffffffffffffffffffffffffffffffffffffffffffff00ff169055604051600181527f7f26b83ff96e1f2b6a682f133852f6798a09c465da95921460cefb38474024989060200160405180910390a15b5050565b6102c26040518060a0016040528060008152602001606081526020016060815260200160608152602001606081525090565b6102cb826107fa565b8060200190518101906102de91906130a9565b92915050565b602082810151604084015183830201909101516060840151608085015182516000948594859492939092915b8488101561049d576002880197508784015180601e1a975080601f1a965050600587101561049157600187141561037357816080871661034d5750825b8a516020607f89160260200182015160208202602001840152600181018c525050610310565b600287141561039e5789516020870260200182015160208202602001830152600181018b5250610310565b60038714156103b7576103b28b8b88610828565b610310565b60048714156103e8576103b28a6040516020016103d491906132e7565b60405160208183030381529060405261098e565b607f6101fe600188901b161786166080871615610454578a517fffffffffffffffffffffffffffffffffffffffffffffffffffffffffffffffff01808c5260208c01518051909190811061043e5761043e612f37565b6020026020010151600014156104545750610310565b8060000b60001461048b5760008160000b121561047f57801960020160020260ff168903985061048b565b8060020260ff16890198505b50610310565b6103b28b8b8989610a20565b5050505050505050505050565b60008054610100900460ff1615610561578160ff1660011480156104cd5750303b155b610559576040517f08c379a000000000000000000000000000000000000000000000000000000000815260206004820152602e60248201527f496e697469616c697a61626c653a20636f6e747261637420697320616c72656160448201527f647920696e697469616c697a656400000000000000000000000000000000000060648201526084016100f1565b506000919050565b60005460ff8084169116106105f8576040517f08c379a000000000000000000000000000000000000000000000000000000000815260206004820152602e60248201527f496e697469616c697a61626c653a20636f6e747261637420697320616c72656160448201527f647920696e697469616c697a656400000000000000000000000000000000000060648201526084016100f1565b50600080547fffffffffffffffffffffffffffffffffffffffffffffffffffffffffffffff001660ff92909216919091179055600190565b6106626040518060a0016040528060008152602001606081526020016060815260200160608152602001606081525090565b8151516106cb576040517f08c379a000000000000000000000000000000000000000000000000000000000815260206004820152600960248201527f305f534f5552434553000000000000000000000000000000000000000000000060448201526064016100f1565b6040518060a0016040528060008152602001836040015167ffffffffffffffff8111156106fa576106fa612bfe565b604051908082528060200260200182016040528015610723578160200160208202803683370190505b5081526020018360000151815260200183602001518152602001836060015167ffffffffffffffff81111561075a5761075a612bfe565b604051908082528060200260200182016040528015610783578160200160208202803683370190505b50905292915050565b6000806107b7836040516020016107a391906132e7565b604051602081830303815290604052610b4d565b90507ff95eed63f55d96a35306669cc3b5f652f8d44552e3e4b17b2f78f13571114abd3382856040516107ec939291906132fa565b60405180910390a192915050565b60606102de8260017fffffffffffffffffffffffffffffffffffffffffffffffffffffffffffffffff610bd8565b81517fffffffffffffffffffffffffffffffffffffffffffffffffffffffffffffffff600583901c918290030183526007821690610100600384811c1681901c91908290039060010160008167ffffffffffffffff81111561088c5761088c612bfe565b6040519080825280602002602001820160405280156108b5578160200160208202803683370190505b50905060005b8281101561090c57876020015181896000015101815181106108df576108df612f37565b60200260200101518282815181106108f9576108f9612f37565b60209081029190910101526001016108bb565b5060005b6101008110156109835760005b83811015610970578482860384838151811061093b5761093b612f37565b6020026020010151901b901c8960800151828151811061095d5761095d612f37565b602090810291909101015260010161091d565b5061097c8989886102e4565b8401610910565b505050505050505050565b610a1d816040516024016109a29190613333565b604080517fffffffffffffffffffffffffffffffffffffffffffffffffffffffffffffffe08184030181529190526020810180517bffffffffffffffffffffffffffffffffffffffffffffffffffffffff167f0be77f5600000000000000000000000000000000000000000000000000000000179052610cc1565b50565b7f0000000000000000000000000000000000000000000000000000000000000000821015610a5b57610a56836005840383610ce2565b610b47565b7f00000000000000000000000000000000000000000000000000000000000000008203915060018210610aea576040517f08c379a000000000000000000000000000000000000000000000000000000000815260206004820152600a60248201527f4d41585f4f50434f44450000000000000000000000000000000000000000000060448201526064016100f1565b600084806020019051810190610b009190613346565b90508073ffffffffffffffffffffffffffffffffffffffff168460200151856000015181518110610b3357610b33612f37565b602090810291909101015250825160010183525b50505050565b600080610b7883604051602001610b649190613363565b604051602081830303815290604052610e4d565b90508051602082016000f0915073ffffffffffffffffffffffffffffffffffffffff8216610bd2576040517f08d4abb600000000000000000000000000000000000000000000000000000000815260040160405180910390fd5b50919050565b6060833b80610bf7575050604080516020810190915260008152610cba565b80841115610c15575050604080516020810190915260008152610cba565b83831015610c60576040517f2c4a89fa0000000000000000000000000000000000000000000000000000000081526004810182905260248101859052604481018490526064016100f1565b8383038482036000828210610c755782610c77565b815b60408051603f83017fffffffffffffffffffffffffffffffffffffffffffffffffffffffffffffffe0168101909152818152955090508087602087018a3c505050505b9392505050565b80516a636f6e736f6c652e6c6f67602083016000808483855afa5050505050565b6004821015610cfb57610cf6838383610e79565b505050565b601d821015610d7e57600b821015610d1b57610cf6836004840383610f8f565b6016821015610d5157610cf6837ffffffffffffffffffffffffffffffffffffffffffffffffffffffffffffffff58401836112bd565b610cf6837fffffffffffffffffffffffffffffffffffffffffffffffffffffffffffffffea8401836116f4565b6023821015610db457610cf6837fffffffffffffffffffffffffffffffffffffffffffffffffffffffffffffffe3840183611906565b6025821015610dea57610cf6837fffffffffffffffffffffffffffffffffffffffffffffffffffffffffffffffdd840183611dda565b6027821015610e2057610cf6837fffffffffffffffffffffffffffffffffffffffffffffffffffffffffffffffdb84018361200e565b610cf6837fffffffffffffffffffffffffffffffffffffffffffffffffffffffffffffffd98401836121bd565b6060815182604051602001610e63929190613389565b6040516020818303038152906040529050919050565b60048210610ee3576040517f08c379a000000000000000000000000000000000000000000000000000000000815260206004820152600a60248201527f4d41585f4f50434f44450000000000000000000000000000000000000000000060448201526064016100f1565b81610f1457438360200151846000015181518110610f0357610f03612f37565b602002602001018181525050610f84565b6001821415610f3857428360200151846000015181518110610f0357610f03612f37565b6002821415610f5c57602083015183518151339291908110610f0357610f03612f37565b602083015183518151309291908110610f7757610f77612f37565b6020026020010181815250505b505080516001019052565b60078210610ff9576040517f08c379a000000000000000000000000000000000000000000000000000000000815260206004820152600a60248201527f4d41585f4f50434f44450000000000000000000000000000000000000000000060448201526064016100f1565b60028210156111455782517ffffffffffffffffffffffffffffffffffffffffffffffffffffffffffffffffe01826110a4578360200151816001018151811061104457611044612f37565b602002602001015161107c838660200151848151811061106657611066612f37565b602002602001015161262a90919063ffffffff16565b028460200151828151811061109357611093612f37565b602002602001018181525050611119565b600183141561111957836020015181600101815181106110c6576110c6612f37565b60200260200101516110e8838660200151848151811061106657611066612f37565b816110f5576110f5613420565b048460200151828151811061110c5761110c612f37565b6020026020010181815250505b5082517fffffffffffffffffffffffffffffffffffffffffffffffffffffffffffffffff018352505050565b60058210156112565782517fffffffffffffffffffffffffffffffffffffffffffffffffffffffffffffffff0160028314156111bc57611195828560200151838151811061106657611066612f37565b846020015182815181106111ab576111ab612f37565b602002602001018181525050610b47565b60038314156111f55761119582856020015183815181106111df576111df612f37565b602002602001015161268c90919063ffffffff16565b6004831415610b475761122e828560200151838151811061121857611218612f37565b60200260200101516126bd90919063ffffffff16565b8460200151828151811061124457611244612f37565b60200260200101818152505050505050565b600582141561129857602083015183518151670de0b6b3a7640000929190811061128257611282612f37565b6020908102919091010152505080516001019052565b6006821415610cf65760128360200151846000015181518110610f7757610f77612f37565b600b8210611327576040517f08c379a000000000000000000000000000000000000000000000000000000000815260206004820152600a60248201527f4d41585f4f50434f44450000000000000000000000000000000000000000000060448201526064016100f1565b825160208401518051838303927fffffffffffffffffffffffffffffffffffffffffffffffffffffffffffffffff01918391600091908390811061136d5761136d612f37565b6020026020010151905060008614156113c5575b828210156113c05760208701518051600190930192839081106113a6576113a6612f37565b6020026020010151816113b9919061344f565b9050611381565b6116c5565b6001861415611416575b828210156113c057818060010192505061140f876020015183815181106113f8576113f8612f37565b6020026020010151826126fb90919063ffffffff16565b90506113cf565b600286141561145f575b828210156113c057602087015180516001909301928390811061144557611445612f37565b6020026020010151816114589190612f20565b9050611420565b60038614156114b0575b828210156113c05781806001019250506114a98760200151838151811061149257611492612f37565b60200260200101518261273790919063ffffffff16565b9050611469565b60048614156114f9575b828210156113c05760208701518051600190930192839081106114df576114df612f37565b6020026020010151816114f29190613467565b90506114ba565b600586141561154a575b828210156113c05781806001019250506115438760200151838151811061152c5761152c612f37565b60200260200101518261274d90919063ffffffff16565b9050611503565b6006861415611593575b828210156113c057602087015180516001909301928390811061157957611579612f37565b60200260200101518161158c91906134a4565b9050611554565b60078614156115dc575b828210156113c05760208701518051600190930192839081106115c2576115c2612f37565b6020026020010151816115d591906134b8565b905061159d565b6008861415611625575b828210156113c057602087015180516001909301928390811061160b5761160b612f37565b60200260200101518161161e91906135ec565b90506115e6565b60098614156116775760005b8383101561167157602088015180516001909401938490811061165657611656612f37565b602002602001015190508181101561166c578091505b611631565b506116c5565b600a8614156116c55760005b838310156116c35760208801518051600190940193849081106116a8576116a8612f37565b60200260200101519050818111156116be578091505b611683565b505b80876020015185815181106116dc576116dc612f37565b60209081029190910101525050506001019092525050565b6007821061175e576040517f08c379a000000000000000000000000000000000000000000000000000000000815260206004820152600a60248201527f4d41585f4f50434f44450000000000000000000000000000000000000000000060448201526064016100f1565b825160208085015181830201018380156117a757600181146117d4576002811461183f57600381146118595760048114611873576005811461188d57600681146118c5576118fe565b7fffffffffffffffffffffffffffffffffffffffffffffffffffffffffffffffe0820180511590526118fe565b7ffffffffffffffffffffffffffffffffffffffffffffffffffffffffffffffffe830186527fffffffffffffffffffffffffffffffffffffffffffffffffffffffffffffffa08201805180156118305760208201518252611838565b604082015182525b50506118fe565b6001830386526040820360208101518151148152506118fe565b6001830386526040820360208101518151108152506118fe565b6001830386526040820360208101518151118152506118fe565b83156118c0576001840383038652602084028203805b838110156118385780516118b8575060008152825b6020016118a3565b6118fe565b83156118fe576001840383038652602084028203805b838110156118fb57805180156118f2578491508083525b506020016118db565b50505b505050505050565b60068210611970576040517f08c379a000000000000000000000000000000000000000000000000000000000815260206004820152600a60248201527f4d41585f4f50434f44450000000000000000000000000000000000000000000060448201526064016100f1565b600082611a98575082517fffffffffffffffffffffffffffffffffffffffffffffffffffffffffffffffff81018452602084015180517ffffffffffffffffffffffffffffffffffffffffffffffffffffffffffffffffe90920191829081106119db576119db612f37565b602002602001015173ffffffffffffffffffffffffffffffffffffffff1663e053ea3185602001518360010181518110611a1757611a17612f37565b60200260200101516040518263ffffffff1660e01b8152600401611a57919073ffffffffffffffffffffffffffffffffffffffff91909116815260200190565b602060405180830381865afa158015611a74573d6000803e3d6000fd5b505050506040513d601f19601f8201168201806040525081019061119591906135f8565b6001831415611af3577fffffffffffffffffffffffffffffffffffffffffffffffffffffffffffffffff8460200151856000015181518110611adc57611adc612f37565b602090810291909101015283516001018452610b47565b6002831415611b185760008460200151856000015181518110611adc57611adc612f37565b6003831415611bcc575082517ffffffffffffffffffffffffffffffffffffffffffffffffffffffffffffffffe01808452602084015180516000919083908110611b6457611b64612f37565b60200260200101519050600085602001518360010181518110611b8957611b89612f37565b60200260200101519050611b9d828261277c565b86602001518481518110611bb357611bb3612f37565b6020908102919091010152505083516001018452610b47565b6004831415611c94575082517ffffffffffffffffffffffffffffffffffffffffffffffffffffffffffffffffe0180845260208401518051600f80851692600486901c909116916000919085908110611c2757611c27612f37565b60200260200101519050600087602001518560010181518110611c4c57611c4c612f37565b60200260200101519050611c62828585846127db565b88602001518681518110611c7857611c78612f37565b602090810291909101015250508551600101865250610b479050565b6005831415610b47575082517fffffffffffffffffffffffffffffffffffffffffffffffffffffffffffffffff601f8316918290030180855290600783901c906003600585901c16908360008267ffffffffffffffff811115611cf957611cf9612bfe565b604051908082528060200260200182016040528015611d22578160200160208202803683370190505b50905060005b83811015611d775789602001518381518110611d4657611d46612f37565b6020026020010151828281518110611d6057611d60612f37565b602090810291909101015260019283019201611d28565b50600089602001518381518110611d9057611d90612f37565b60200260200101519050611da682828888612881565b8a602001518881518110611dbc57611dbc612f37565b60209081029190910101525050875160010188525050505050505050565b60028210611e44576040517f08c379a000000000000000000000000000000000000000000000000000000000815260206004820152600a60248201527f4d41585f4f50434f44450000000000000000000000000000000000000000000060448201526064016100f1565b81611f965782517fffffffffffffffffffffffffffffffffffffffffffffffffffffffffffffffff810184526020840151805190917ffffffffffffffffffffffffffffffffffffffffffffffffffffffffffffffffe01908110611eaa57611eaa612f37565b602002602001015173ffffffffffffffffffffffffffffffffffffffff166370a082318460200151856000015181518110611ee757611ee7612f37565b60200260200101516040518263ffffffff1660e01b8152600401611f27919073ffffffffffffffffffffffffffffffffffffffff91909116815260200190565b602060405180830381865afa158015611f44573d6000803e3d6000fd5b505050506040513d601f19601f82011682018060405250810190611f6891906135f8565b8360200151600185600001510381518110611f8557611f85612f37565b602002602001018181525050505050565b6001821415610cf6578260200151600184600001510381518110611fbc57611fbc612f37565b602002602001015173ffffffffffffffffffffffffffffffffffffffff166318160ddd6040518163ffffffff1660e01b8152600401602060405180830381865afa158015611f44573d6000803e3d6000fd5b60028210612078576040517f08c379a000000000000000000000000000000000000000000000000000000000815260206004820152600a60248201527f4d41585f4f50434f44450000000000000000000000000000000000000000000060448201526064016100f1565b82517fffffffffffffffffffffffffffffffffffffffffffffffffffffffffffffffff018352816120c0578260200151600184600001510381518110611eaa57611eaa612f37565b6001821415610cf65782602001516001846000015103815181106120e6576120e6612f37565b602002602001015173ffffffffffffffffffffffffffffffffffffffff16636352211e846020015185600001518151811061212357612123612f37565b60200260200101516040518263ffffffff1660e01b815260040161214991815260200190565b602060405180830381865afa158015612166573d6000803e3d6000fd5b505050506040513d601f19601f8201168201806040525081019061218a9190613346565b73ffffffffffffffffffffffffffffffffffffffff168360200151600185600001510381518110611f8557611f85612f37565b60028210612227576040517f08c379a000000000000000000000000000000000000000000000000000000000815260206004820152600a60248201527f4d41585f4f50434f44450000000000000000000000000000000000000000000060448201526064016100f1565b816123725782517ffffffffffffffffffffffffffffffffffffffffffffffffffffffffffffffffe81018452602084015180517ffffffffffffffffffffffffffffffffffffffffffffffffffffffffffffffffd909201918290811061228f5761228f612f37565b602002602001015173ffffffffffffffffffffffffffffffffffffffff1662fdd58e856020015183600101815181106122ca576122ca612f37565b6020026020010151866020015184600201815181106122eb576122eb612f37565b60200260200101516040518363ffffffff1660e01b815260040161233192919073ffffffffffffffffffffffffffffffffffffffff929092168252602082015260400190565b602060405180830381865afa15801561234e573d6000803e3d6000fd5b505050506040513d601f19601f8201168201806040525081019061122e91906135f8565b6001821415610cf6576001810160008167ffffffffffffffff81111561239a5761239a612bfe565b6040519080825280602002602001820160405280156123c3578160200160208202803683370190505b50905060008267ffffffffffffffff8111156123e1576123e1612bfe565b60405190808252806020026020018201604052801561240a578160200160208202803683370190505b5086518490037fffffffffffffffffffffffffffffffffffffffffffffffffffffffffffffffff818101895260208901518051939450918690030191600091908390811061245a5761245a612f37565b6020026020010151905060005b858110156125115788602001518184016001018151811061248a5761248a612f37565b60200260200101518582815181106124a4576124a4612f37565b73ffffffffffffffffffffffffffffffffffffffff909216602092830291909101820152890151805160018589018401019081106124e4576124e4612f37565b60200260200101518482815181106124fe576124fe612f37565b6020908102919091010152600101612467565b506040517f4e1273f400000000000000000000000000000000000000000000000000000000815260009073ffffffffffffffffffffffffffffffffffffffff831690634e1273f4906125699088908890600401613611565b600060405180830381865afa158015612586573d6000803e3d6000fd5b505050506040513d6000823e601f3d9081017fffffffffffffffffffffffffffffffffffffffffffffffffffffffffffffffe01682016040526125cc919081019061367e565b905060005b8681101561261e578181815181106125eb576125eb612f37565b60200260200101518a602001518286018151811061260b5761260b612f37565b60209081029190910101526001016125d1565b50505050505050505050565b6000816012141561263c5750816102de565b816012111561266c57612650826012612f20565b61265b90600a6135ec565b6126659084613467565b90506102de565b612677601283612f20565b61268290600a6135ec565b61266590846134a4565b6000601282141561269e5750816102de565b81601211156126b257612677826012612f20565b612650601283612f20565b600081810b6126cd5750816102de565b60008260000b13156126e45761265b82600a6136b3565b6126f0821960016136c2565b61268290600a6136b3565b600082820183811061270d578061272f565b7fffffffffffffffffffffffffffffffffffffffffffffffffffffffffffffffff5b949350505050565b6000818311612747576000610cba565b50900390565b60008261275c575060006102de565b8282028284828161276f5761276f613420565b04141561270d578061272f565b60008060015b600881116127d357600061279686836129d1565b905060006127a486846129d1565b905060006127b28383612737565b90506127c2856001860383612a86565b945050600190920191506127829050565b509392505050565b6000826008811115612849576040517f08c379a000000000000000000000000000000000000000000000000000000000815260206004820152600860248201527f4d41585f5449455200000000000000000000000000000000000000000000000060448201526064016100f1565b6000855b858110156128755763ffffffff6020820290811b199890981685891b1797915060010161284d565b50959695505050505050565b835160009081908190819060015b600881116129c3576000925082876128c857507fffffffffffffffffffffffffffffffffffffffffffffffffffffffffffffffff6128cc565b5060005b60005b83811015612981576128fa8c82815181106128ec576128ec612f37565b6020026020010151846129d1565b95508a861161294c5788612919576129128683612b10565b9150612943565b600189141561292c576129128683612b26565b60028914801561293a575084155b15612943578591505b60019450612979565b89612979577fffffffffffffffffffffffffffffffffffffffffffffffffffffffffffffffff9150612981565b6001016128cf565b50836129aa57507fffffffffffffffffffffffffffffffffffffffffffffffffffffffffffffffff5b6129b8866001840383612a86565b95505060010161288f565b509298975050505050505050565b6000816008811115612a3f576040517f08c379a000000000000000000000000000000000000000000000000000000000815260206004820152600860248201527f4d41585f5449455200000000000000000000000000000000000000000000000060448201526064016100f1565b82612a4d5760009150612a7f565b63ffffffff60207fffffffffffffffffffffffffffffffffffffffffffffffffffffffffffffffff85010285901c1691505b5092915050565b6000826008811115612af4576040517f08c379a000000000000000000000000000000000000000000000000000000000815260206004820152600860248201527f4d41585f5449455200000000000000000000000000000000000000000000000060448201526064016100f1565b505060209190910290811b63ffffffff90911b19919091161790565b6000818310612b1f5781610cba565b5090919050565b600081831015612b1f5781610cba565b73ffffffffffffffffffffffffffffffffffffffff81168114610a1d57600080fd5b60008060008060608587031215612b6e57600080fd5b8435612b7981612b36565b935060208501359250604085013567ffffffffffffffff80821115612b9d57600080fd5b818701915087601f830112612bb157600080fd5b813581811115612bc057600080fd5b886020828501011115612bd257600080fd5b95989497505060200194505050565b600060208284031215612bf357600080fd5b8135610cba81612b36565b7f4e487b7100000000000000000000000000000000000000000000000000000000600052604160045260246000fd5b6040516080810167ffffffffffffffff81118282101715612c5057612c50612bfe565b60405290565b60405160a0810167ffffffffffffffff81118282101715612c5057612c50612bfe565b604051601f82017fffffffffffffffffffffffffffffffffffffffffffffffffffffffffffffffe016810167ffffffffffffffff81118282101715612cc057612cc0612bfe565b604052919050565b600067ffffffffffffffff821115612ce257612ce2612bfe565b5060051b60200190565b600067ffffffffffffffff821115612d0657612d06612bfe565b50601f017fffffffffffffffffffffffffffffffffffffffffffffffffffffffffffffffe01660200190565b600082601f830112612d4357600080fd5b81356020612d58612d5383612cc8565b612c79565b82815260059290921b84018101918181019086841115612d7757600080fd5b8286015b84811015612d925780358352918301918301612d7b565b509695505050505050565b60006020808385031215612db057600080fd5b823567ffffffffffffffff80821115612dc857600080fd5b9084019060808287031215612ddc57600080fd5b612de4612c2d565b823582811115612df357600080fd5b8301601f81018813612e0457600080fd5b8035612e12612d5382612cc8565b81815260059190911b8201860190868101908a831115612e3157600080fd5b8784015b83811015612ea857803587811115612e4d5760008081fd5b8501603f81018d13612e5f5760008081fd5b898101356040612e71612d5383612cec565b8281528f82848601011115612e865760008081fd5b828285018e83013760009281018d019290925250845250918801918801612e35565b5084525050508284013582811115612ebf57600080fd5b612ecb88828601612d32565b858301525060408301356040820152606083013560608201528094505050505092915050565b7f4e487b7100000000000000000000000000000000000000000000000000000000600052601160045260246000fd5b600082821015612f3257612f32612ef1565b500390565b7f4e487b7100000000000000000000000000000000000000000000000000000000600052603260045260246000fd5b600082601f830112612f7757600080fd5b81516020612f87612d5383612cc8565b82815260059290921b84018101918181019086841115612fa657600080fd5b8286015b84811015612d925780518352918301918301612faa565b60005b83811015612fdc578181015183820152602001612fc4565b83811115610b475750506000910152565b600082601f830112612ffe57600080fd5b8151602061300e612d5383612cc8565b82815260059290921b8401810191818101908684111561302d57600080fd5b8286015b84811015612d9257805167ffffffffffffffff8111156130515760008081fd5b8701603f810189136130635760008081fd5b848101516040613075612d5383612cec565b8281528b8284860101111561308a5760008081fd5b61309983898301848701612fc1565b8652505050918301918301613031565b6000602082840312156130bb57600080fd5b815167ffffffffffffffff808211156130d357600080fd5b9083019060a082860312156130e757600080fd5b6130ef612c56565b8251815260208301518281111561310557600080fd5b61311187828601612f66565b60208301525060408301518281111561312957600080fd5b61313587828601612fed565b60408301525060608301518281111561314d57600080fd5b61315987828601612f66565b60608301525060808301518281111561317157600080fd5b61317d87828601612f66565b60808301525095945050505050565b600081518084526020808501945080840160005b838110156131bc578151875295820195908201906001016131a0565b509495945050505050565b600081518084526131df816020860160208601612fc1565b601f017fffffffffffffffffffffffffffffffffffffffffffffffffffffffffffffffe0169290920160200192915050565b80518252600060208083015160a08286015261323060a086018261318c565b9050604084015185820360408701528181518084528484019150848160051b850101858401935060005b828110156132a6577fffffffffffffffffffffffffffffffffffffffffffffffffffffffffffffffe08683030184526132948286516131c7565b9487019493870193915060010161325a565b506060880151955088810360608a01526132c0818761318c565b95505050505050608083015184820360808601526132de828261318c565b95945050505050565b602081526000610cba6020830184613211565b600073ffffffffffffffffffffffffffffffffffffffff8086168352808516602084015250606060408301526132de6060830184613211565b602081526000610cba60208301846131c7565b60006020828403121561335857600080fd5b8151610cba81612b36565b600081526000825161337c816001850160208701612fc1565b9190910160010192915050565b7f630000000000000000000000000000000000000000000000000000000000000081527fffffffff000000000000000000000000000000000000000000000000000000008360e01b1660018201527f80600e6000396000f3000000000000000000000000000000000000000000000060058201526000825161341281600e850160208701612fc1565b91909101600e019392505050565b7f4e487b7100000000000000000000000000000000000000000000000000000000600052601260045260246000fd5b6000821982111561346257613462612ef1565b500190565b6000817fffffffffffffffffffffffffffffffffffffffffffffffffffffffffffffffff048311821515161561349f5761349f612ef1565b500290565b6000826134b3576134b3613420565b500490565b6000826134c7576134c7613420565b500690565b600181815b8085111561352557817fffffffffffffffffffffffffffffffffffffffffffffffffffffffffffffffff0482111561350b5761350b612ef1565b8085161561351857918102915b93841c93908002906134d1565b509250929050565b60008261353c575060016102de565b81613549575060006102de565b816001811461355f576002811461356957613585565b60019150506102de565b60ff84111561357a5761357a612ef1565b50506001821b6102de565b5060208310610133831016604e8410600b84101617156135a8575081810a6102de565b6135b283836134cc565b807fffffffffffffffffffffffffffffffffffffffffffffffffffffffffffffffff048211156135e4576135e4612ef1565b029392505050565b6000610cba838361352d565b60006020828403121561360a57600080fd5b5051919050565b604080825283519082018190526000906020906060840190828701845b8281101561366057815173ffffffffffffffffffffffffffffffffffffffff168452928401929084019060010161362e565b50505083810382850152613674818661318c565b9695505050505050565b60006020828403121561369057600080fd5b815167ffffffffffffffff8111156136a757600080fd5b61272f84828501612f66565b6000610cba60ff84168361352d565b600060ff821660ff84168060ff038211156136df576136df612ef1565b01939250505056fea26469706673582212200ec7bff030feaf4d898ea0e013edf1245595bd3d396e8d64e0fa1725e2a3599964736f6c634300080a0033",
  "linkReferences": {},
  "deployedLinkReferences": {}
}