{
  "_format": "hh-sol-artifact-1",
  "contractName": "CombineTierFactory",
  "sourceName": "contracts/tier/CombineTierFactory.sol",
  "abi": [
    {
      "inputs": [],
      "stateMutability": "nonpayable",
      "type": "constructor"
    },
    {
      "anonymous": false,
      "inputs": [
        {
          "indexed": false,
          "internalType": "address",
          "name": "sender",
          "type": "address"
        },
        {
          "indexed": false,
          "internalType": "address",
          "name": "implementation",
          "type": "address"
        }
      ],
      "name": "Implementation",
      "type": "event"
    },
    {
      "anonymous": false,
      "inputs": [
        {
          "indexed": false,
          "internalType": "address",
          "name": "sender",
          "type": "address"
        },
        {
          "indexed": false,
          "internalType": "address",
          "name": "child",
          "type": "address"
        }
      ],
      "name": "NewChild",
      "type": "event"
    },
    {
      "inputs": [
        {
          "internalType": "bytes",
          "name": "data_",
          "type": "bytes"
        }
      ],
      "name": "createChild",
      "outputs": [
        {
          "internalType": "address",
          "name": "",
          "type": "address"
        }
      ],
      "stateMutability": "nonpayable",
      "type": "function"
    },
    {
      "inputs": [
        {
          "components": [
            {
              "internalType": "bytes[]",
              "name": "sources",
              "type": "bytes[]"
            },
            {
              "internalType": "uint256[]",
              "name": "constants",
              "type": "uint256[]"
            },
            {
              "internalType": "uint256",
              "name": "stackLength",
              "type": "uint256"
            },
            {
              "internalType": "uint256",
              "name": "argumentsLength",
              "type": "uint256"
            }
          ],
          "internalType": "struct StateConfig",
          "name": "config_",
          "type": "tuple"
        }
      ],
      "name": "createChildTyped",
      "outputs": [
        {
          "internalType": "contract CombineTier",
          "name": "",
          "type": "address"
        }
      ],
      "stateMutability": "nonpayable",
      "type": "function"
    },
    {
      "inputs": [
        {
          "internalType": "address",
          "name": "maybeChild_",
          "type": "address"
        }
      ],
      "name": "isChild",
      "outputs": [
        {
          "internalType": "bool",
          "name": "",
          "type": "bool"
        }
      ],
      "stateMutability": "view",
      "type": "function"
    }
  ],
  "bytecode": "0x608060405234801561001057600080fd5b5060016000908155604051610024906100aa565b604051809103906000f080158015610040573d6000803e3d6000fd5b50604080513381526001600160a01b03831660208201529192507f7fac34ecf0b1b374cd9659e3d17db602659d53f1162b1f20142e6c02694aed70910160405180910390a1600280546001600160a01b0319166001600160a01b03929092169190911790556100b7565b611e3d80610cf983390190565b610c33806100c66000396000f3fe608060405234801561001057600080fd5b50600436106100415760003560e01c80632ea72a491461004657806384e0ecdb14610083578063fc91a89714610096575b600080fd5b610059610054366004610449565b6100df565b60405173ffffffffffffffffffffffffffffffffffffffff90911681526020015b60405180910390f35b6100596100913660046104bb565b6101fd565b6100cf6100a4366004610522565b73ffffffffffffffffffffffffffffffffffffffff1660009081526001602052604090205460ff1690565b604051901515815260200161007a565b600060026000541415610153576040517f08c379a000000000000000000000000000000000000000000000000000000000815260206004820152601f60248201527f5265656e7472616e637947756172643a207265656e7472616e742063616c6c0060448201526064015b60405180910390fd5b6002600090815561016484846102a0565b73ffffffffffffffffffffffffffffffffffffffff811660008181526001602081815260409283902080547fffffffffffffffffffffffffffffffffffffffffffffffffffffffffffffff00169092179091558151338152908101929092529192507f7da70c4e5387d7038610b79ca7d304caaef815826e51e67cf247135387a79bce910160405180910390a160016000559392505050565b60003073ffffffffffffffffffffffffffffffffffffffff16632ea72a498360405160200161022c9190610645565b6040516020818303038152906040526040518263ffffffff1660e01b815260040161025791906107f8565b6020604051808303816000875af1158015610276573d6000803e3d6000fd5b505050506040513d601f19601f8201168201806040525081019061029a919061080b565b92915050565b6000806102af8385018561095e565b6002549091506000906102d79073ffffffffffffffffffffffffffffffffffffffff16610367565b6040517fe684b6d600000000000000000000000000000000000000000000000000000000815290915073ffffffffffffffffffffffffffffffffffffffff82169063e684b6d69061032c908590600401610b21565b600060405180830381600087803b15801561034657600080fd5b505af115801561035a573d6000803e3d6000fd5b5092979650505050505050565b60006040517f3d602d80600a3d3981f3363d3d373d3d3d363d7300000000000000000000000081528260601b60148201527f5af43d82803e903d91602b57fd5bf3000000000000000000000000000000000060288201526037816000f091505073ffffffffffffffffffffffffffffffffffffffff8116610444576040517f08c379a000000000000000000000000000000000000000000000000000000000815260206004820152601660248201527f455243313136373a20637265617465206661696c656400000000000000000000604482015260640161014a565b919050565b6000806020838503121561045c57600080fd5b823567ffffffffffffffff8082111561047457600080fd5b818501915085601f83011261048857600080fd5b81358181111561049757600080fd5b8660208285010111156104a957600080fd5b60209290920196919550909350505050565b6000602082840312156104cd57600080fd5b813567ffffffffffffffff8111156104e457600080fd5b8201608081850312156104f657600080fd5b9392505050565b73ffffffffffffffffffffffffffffffffffffffff8116811461051f57600080fd5b50565b60006020828403121561053457600080fd5b81356104f6816104fd565b60008083357fffffffffffffffffffffffffffffffffffffffffffffffffffffffffffffffe184360301811261057457600080fd5b830160208101925035905067ffffffffffffffff81111561059457600080fd5b8060051b36038313156105a657600080fd5b9250929050565b8183528181602085013750600060208284010152600060207fffffffffffffffffffffffffffffffffffffffffffffffffffffffffffffffe0601f840116840101905092915050565b81835260007f07ffffffffffffffffffffffffffffffffffffffffffffffffffffffffffffff83111561062857600080fd5b8260051b8083602087013760009401602001938452509192915050565b6000602080835260a0830161065a858661053f565b6080848701528281845260c08701905060c08260051b88010193508260005b83811015610723577fffffffffffffffffffffffffffffffffffffffffffffffffffffffffffffff4089870301835281357fffffffffffffffffffffffffffffffffffffffffffffffffffffffffffffffe18636030181126106da57600080fd5b8501803567ffffffffffffffff8111156106f357600080fd5b80360387131561070257600080fd5b61070f88828b85016105ad565b975050509186019190860190600101610679565b50505050506107348286018661053f565b92507fffffffffffffffffffffffffffffffffffffffffffffffffffffffffffffffe085830301604086015261076b8284836105f6565b9250505060408401356060840152606084013560808401528091505092915050565b6000815180845260005b818110156107b357602081850181015186830182015201610797565b818111156107c5576000602083870101525b50601f017fffffffffffffffffffffffffffffffffffffffffffffffffffffffffffffffe0169290920160200192915050565b6020815260006104f6602083018461078d565b60006020828403121561081d57600080fd5b81516104f6816104fd565b7f4e487b7100000000000000000000000000000000000000000000000000000000600052604160045260246000fd5b6040516080810167ffffffffffffffff8111828210171561087a5761087a610828565b60405290565b604051601f82017fffffffffffffffffffffffffffffffffffffffffffffffffffffffffffffffe016810167ffffffffffffffff811182821017156108c7576108c7610828565b604052919050565b600067ffffffffffffffff8211156108e9576108e9610828565b5060051b60200190565b600082601f83011261090457600080fd5b81356020610919610914836108cf565b610880565b82815260059290921b8401810191818101908684111561093857600080fd5b8286015b84811015610953578035835291830191830161093c565b509695505050505050565b6000602080838503121561097157600080fd5b823567ffffffffffffffff8082111561098957600080fd5b908401906080828703121561099d57600080fd5b6109a5610857565b8235828111156109b457600080fd5b8301601f810188136109c557600080fd5b80356109d3610914826108cf565b81815260059190911b8201860190868101908a8311156109f257600080fd5b8784015b83811015610a9d57803587811115610a0e5760008081fd5b8501603f81018d13610a205760008081fd5b89810135604089821115610a3657610a36610828565b610a668c7fffffffffffffffffffffffffffffffffffffffffffffffffffffffffffffffe0601f85011601610880565b8281528f82848601011115610a7b5760008081fd5b828285018e83013760009281018d0192909252508452509188019188016109f6565b5084525050508284013582811115610ab457600080fd5b610ac0888286016108f3565b858301525060408301356040820152606083013560608201528094505050505092915050565b600081518084526020808501945080840160005b83811015610b1657815187529582019590820190600101610afa565b509495945050505050565b6000602080835260a08301845160808386015281815180845260c08701915060c08160051b8801019350848301925060005b81811015610b9f577fffffffffffffffffffffffffffffffffffffffffffffffffffffffffffffff40888603018352610b8d85855161078d565b94509285019291850191600101610b53565b50505050908401518382037fffffffffffffffffffffffffffffffffffffffffffffffffffffffffffffffe001604085015290610bdc8183610ae6565b9150506040840151606084015260608401516080840152809150509291505056fea264697066735822122041e1c09c7348e6879a7f82973e0643e38d24a351b88079e1bbfd5de31fe508e364736f6c634300080a003360e060405234801561001057600080fd5b50600460808190526100249060019061003d565b60a08190526100359060069061003d565b60c052610063565b6000821982111561005e57634e487b7160e01b600052601160045260246000fd5b500190565b60805160a05160c051611d9c620000a16000396000818161084001526108960152600081816107e5015261086d015260006108120152611d9c6000f3fe608060405234801561001057600080fd5b50600436106100415760003560e01c80638a200fff14610046578063e053ea311461005b578063e684b6d614610080575b600080fd5b610059610054366004611656565b610093565b005b61006e6100693660046116af565b6100fa565b60405190815260200160405180910390f35b61005961008e366004611756565b610197565b6040517f08c379a000000000000000000000000000000000000000000000000000000000815260206004820152600860248201527f5345545f5449455200000000000000000000000000000000000000000000000060448201526064015b60405180910390fd5b6000805481906101259062010000900473ffffffffffffffffffffffffffffffffffffffff16610305565b6040805173ffffffffffffffffffffffffffffffffffffffff861660208201529192506101649101604051602081830303815290604052826000610359565b602081015181516101779060019061186b565b81518110610187576101876118a9565b6020026020010151915050919050565b600054610100900460ff166101b25760005460ff16156101b6565b303b155b610242576040517f08c379a000000000000000000000000000000000000000000000000000000000815260206004820152602e60248201527f496e697469616c697a61626c653a20636f6e747261637420697320616c72656160448201527f647920696e697469616c697a656400000000000000000000000000000000000060648201526084016100f1565b600054610100900460ff1615801561028157600080547fffffffffffffffffffffffffffffffffffffffffffffffffffffffffffff0000166101011790555b61029261028d836104ee565b6105e1565b600060026101000a81548173ffffffffffffffffffffffffffffffffffffffff021916908373ffffffffffffffffffffffffffffffffffffffff160217905550801561030157600080547fffffffffffffffffffffffffffffffffffffffffffffffffffffffffffff00ff1690555b5050565b6103376040518060a0016040528060008152602001606081526020016060815260200160608152602001606081525090565b6103408261064f565b8060200190518101906103539190611a1b565b92915050565b602082810151604084015183830201909101516060840151608085015182516000948594859492939092915b848810156104e1576002880197508784015180601e1a975080601f1a96505060048710156104d55760018714156103e85781608087166103c25750825b8a516020607f89160260200182015160208202602001840152600181018c525050610385565b60028714156104135789516020870260200182015160208202602001830152600181018b5250610385565b600387141561042c576104278b8b8861067d565b610385565b607f6101fe600188901b161786166080871615610498578a517fffffffffffffffffffffffffffffffffffffffffffffffffffffffffffffffff01808c5260208c015180519091908110610482576104826118a9565b6020026020010151600014156104985750610385565b8060000b6000146104cf5760008160000b12156104c357801960020160020260ff16890398506104cf565b8060020260ff16890198505b50610385565b6104278b8b89896107e3565b5050505050505050505050565b6105206040518060a0016040528060008152602001606081526020016060815260200160608152602001606081525090565b6040518060a0016040528060008152602001836040015167ffffffffffffffff81111561054f5761054f6114f0565b604051908082528060200260200182016040528015610578578160200160208202803683370190505b5081526020018360000151815260200183602001518152602001836060015167ffffffffffffffff8111156105af576105af6114f0565b6040519080825280602002602001820160405280156105d8578160200160208202803683370190505b50905292915050565b60008061060c836040516020016105f89190611c27565b60405160208183030381529060405261098b565b90507ff95eed63f55d96a35306669cc3b5f652f8d44552e3e4b17b2f78f13571114abd33828560405161064193929190611c3a565b60405180910390a192915050565b60606103538260017fffffffffffffffffffffffffffffffffffffffffffffffffffffffffffffffff610a16565b81517fffffffffffffffffffffffffffffffffffffffffffffffffffffffffffffffff600583901c918290030183526007821690610100600384811c1681901c91908290039060010160008167ffffffffffffffff8111156106e1576106e16114f0565b60405190808252806020026020018201604052801561070a578160200160208202803683370190505b50905060005b828110156107615787602001518189600001510181518110610734576107346118a9565b602002602001015182828151811061074e5761074e6118a9565b6020908102919091010152600101610710565b5060005b6101008110156107d85760005b838110156107c55784828603848381518110610790576107906118a9565b6020026020010151901b901c896080015182815181106107b2576107b26118a9565b6020908102919091010152600101610772565b506107d1898988610359565b8401610765565b505050505050505050565b7f000000000000000000000000000000000000000000000000000000000000000082101561083e5761083984847f0000000000000000000000000000000000000000000000000000000000000000850384610aff565b610985565b7f00000000000000000000000000000000000000000000000000000000000000008210156108945761083984847f0000000000000000000000000000000000000000000000000000000000000000850384610b9b565b7f00000000000000000000000000000000000000000000000000000000000000008203915060018210610923576040517f08c379a000000000000000000000000000000000000000000000000000000000815260206004820152600a60248201527f4d41585f4f50434f44450000000000000000000000000000000000000000000060448201526064016100f1565b816109855760008480602001905181019061093e9190611c73565b90508073ffffffffffffffffffffffffffffffffffffffff168460200151856000015181518110610971576109716118a9565b602090810291909101015250825160010183525b50505050565b6000806109b6836040516020016109a29190611c90565b604051602081830303815290604052611062565b90508051602082016000f0915073ffffffffffffffffffffffffffffffffffffffff8216610a10576040517f08d4abb600000000000000000000000000000000000000000000000000000000815260040160405180910390fd5b50919050565b6060833b80610a35575050604080516020810190915260008152610af8565b80841115610a53575050604080516020810190915260008152610af8565b83831015610a9e576040517f2c4a89fa0000000000000000000000000000000000000000000000000000000081526004810182905260248101859052604481018490526064016100f1565b8383038482036000828210610ab35782610ab5565b815b60408051603f83017fffffffffffffffffffffffffffffffffffffffffffffffffffffffffffffffe0168101909152818152955090508087602087018a3c505050505b9392505050565b60018210610b69576040517f08c379a000000000000000000000000000000000000000000000000000000000815260206004820152600a60248201527f4d41585f4f50434f44450000000000000000000000000000000000000000000060448201526064016100f1565b438360200151846000015181518110610b8457610b846118a9565b602090810291909101015250508051600101905250565b60068210610c05576040517f08c379a000000000000000000000000000000000000000000000000000000000815260206004820152600a60248201527f4d41585f4f50434f44450000000000000000000000000000000000000000000060448201526064016100f1565b600082610d35575082517ffffffffffffffffffffffffffffffffffffffffffffffffffffffffffffffffe018084526020840151805182908110610c4b57610c4b6118a9565b602002602001015173ffffffffffffffffffffffffffffffffffffffff1663e053ea3185602001518360010181518110610c8757610c876118a9565b60200260200101516040518263ffffffff1660e01b8152600401610cc7919073ffffffffffffffffffffffffffffffffffffffff91909116815260200190565b602060405180830381865afa158015610ce4573d6000803e3d6000fd5b505050506040513d601f19601f82011682018060405250810190610d089190611cb6565b84602001518281518110610d1e57610d1e6118a9565b60209081029190910101528351600101845261105b565b6001831415610d79577fffffffffffffffffffffffffffffffffffffffffffffffffffffffffffffffff8460200151856000015181518110610d1e57610d1e6118a9565b6002831415610d9e5760008460200151856000015181518110610d1e57610d1e6118a9565b6003831415610e52575082517ffffffffffffffffffffffffffffffffffffffffffffffffffffffffffffffffe01808452602084015180516000919083908110610dea57610dea6118a9565b60200260200101519050600085602001518360010181518110610e0f57610e0f6118a9565b60200260200101519050610e23828261108e565b86602001518481518110610e3957610e396118a9565b602090810291909101015250508351600101845261105b565b6004831415610f1a575082517ffffffffffffffffffffffffffffffffffffffffffffffffffffffffffffffffe0180845260208401518051600f80851692600486901c909116916000919085908110610ead57610ead6118a9565b60200260200101519050600087602001518560010181518110610ed257610ed26118a9565b60200260200101519050610ee8828585846110ed565b88602001518681518110610efe57610efe6118a9565b60209081029190910101525050855160010186525061105b9050565b600583141561105b575082517fffffffffffffffffffffffffffffffffffffffffffffffffffffffffffffffff601f8316918290030180855290600783901c906003600585901c16908360008267ffffffffffffffff811115610f7f57610f7f6114f0565b604051908082528060200260200182016040528015610fa8578160200160208202803683370190505b50905060005b83811015610ffd5789602001518381518110610fcc57610fcc6118a9565b6020026020010151828281518110610fe657610fe66118a9565b602090810291909101015260019283019201610fae565b50600089602001518381518110611016576110166118a9565b6020026020010151905061102c82828888611200565b8a602001518881518110611042576110426118a9565b6020908102919091010152505087516001018852505050505b5050505050565b6060815182604051602001611078929190611ccf565b6040516020818303038152906040529050919050565b60008060015b600881116110e55760006110a88683611350565b905060006110b68684611350565b905060006110c48383611405565b90506110d485600186038361141b565b945050600190920191506110949050565b509392505050565b600083600881111561115b576040517f08c379a000000000000000000000000000000000000000000000000000000000815260206004820152600860248201527f4d41585f5449455200000000000000000000000000000000000000000000000060448201526064016100f1565b8360088111156111c7576040517f08c379a000000000000000000000000000000000000000000000000000000000815260206004820152600860248201527f4d41585f5449455200000000000000000000000000000000000000000000000060448201526064016100f1565b6000865b868110156111f35763ffffffff6020820290811b1999909916868a1b179891506001016111cb565b5096979650505050505050565b835160009081908190819060015b600881116113425760009250828761124757507fffffffffffffffffffffffffffffffffffffffffffffffffffffffffffffffff61124b565b5060005b60005b83811015611300576112798c828151811061126b5761126b6118a9565b602002602001015184611350565b95508a86116112cb57886112985761129186836114a5565b91506112c2565b60018914156112ab5761129186836114bb565b6002891480156112b9575084155b156112c2578591505b600194506112f8565b896112f8577fffffffffffffffffffffffffffffffffffffffffffffffffffffffffffffffff9150611300565b60010161124e565b508361132957507fffffffffffffffffffffffffffffffffffffffffffffffffffffffffffffffff5b61133786600184038361141b565b95505060010161120e565b509298975050505050505050565b60008160088111156113be576040517f08c379a000000000000000000000000000000000000000000000000000000000815260206004820152600860248201527f4d41585f5449455200000000000000000000000000000000000000000000000060448201526064016100f1565b826113cc57600091506113fe565b63ffffffff60207fffffffffffffffffffffffffffffffffffffffffffffffffffffffffffffffff85010285901c1691505b5092915050565b6000818311611415576000610af8565b50900390565b6000826008811115611489576040517f08c379a000000000000000000000000000000000000000000000000000000000815260206004820152600860248201527f4d41585f5449455200000000000000000000000000000000000000000000000060448201526064016100f1565b505060209190910290811b63ffffffff90911b19919091161790565b60008183106114b45781610af8565b5090919050565b6000818310156114b45781610af8565b73ffffffffffffffffffffffffffffffffffffffff811681146114ed57600080fd5b50565b7f4e487b7100000000000000000000000000000000000000000000000000000000600052604160045260246000fd5b6040516080810167ffffffffffffffff81118282101715611542576115426114f0565b60405290565b60405160a0810167ffffffffffffffff81118282101715611542576115426114f0565b604051601f82017fffffffffffffffffffffffffffffffffffffffffffffffffffffffffffffffe016810167ffffffffffffffff811182821017156115b2576115b26114f0565b604052919050565b600067ffffffffffffffff8211156115d4576115d46114f0565b50601f017fffffffffffffffffffffffffffffffffffffffffffffffffffffffffffffffe01660200190565b600082601f83011261161157600080fd5b813561162461161f826115ba565b61156b565b81815284602083860101111561163957600080fd5b816020850160208301376000918101602001919091529392505050565b60008060006060848603121561166b57600080fd5b8335611676816114cb565b925060208401359150604084013567ffffffffffffffff81111561169957600080fd5b6116a586828701611600565b9150509250925092565b6000602082840312156116c157600080fd5b8135610af8816114cb565b600067ffffffffffffffff8211156116e6576116e66114f0565b5060051b60200190565b600082601f83011261170157600080fd5b8135602061171161161f836116cc565b82815260059290921b8401810191818101908684111561173057600080fd5b8286015b8481101561174b5780358352918301918301611734565b509695505050505050565b6000602080838503121561176957600080fd5b823567ffffffffffffffff8082111561178157600080fd5b908401906080828703121561179557600080fd5b61179d61151f565b8235828111156117ac57600080fd5b8301601f810188136117bd57600080fd5b80356117cb61161f826116cc565b81815260059190911b8201860190868101908a8311156117ea57600080fd5b8784015b83811015611822578035878111156118065760008081fd5b6118148d8b83890101611600565b8452509188019188016117ee565b508452505050828401358281111561183957600080fd5b611845888286016116f0565b858301525060408301356040820152606083013560608201528094505050505092915050565b6000828210156118a4577f4e487b7100000000000000000000000000000000000000000000000000000000600052601160045260246000fd5b500390565b7f4e487b7100000000000000000000000000000000000000000000000000000000600052603260045260246000fd5b600082601f8301126118e957600080fd5b815160206118f961161f836116cc565b82815260059290921b8401810191818101908684111561191857600080fd5b8286015b8481101561174b578051835291830191830161191c565b60005b8381101561194e578181015183820152602001611936565b838111156109855750506000910152565b600082601f83011261197057600080fd5b8151602061198061161f836116cc565b82815260059290921b8401810191818101908684111561199f57600080fd5b8286015b8481101561174b57805167ffffffffffffffff8111156119c35760008081fd5b8701603f810189136119d55760008081fd5b8481015160406119e761161f836115ba565b8281528b828486010111156119fc5760008081fd5b611a0b83898301848701611933565b86525050509183019183016119a3565b600060208284031215611a2d57600080fd5b815167ffffffffffffffff80821115611a4557600080fd5b9083019060a08286031215611a5957600080fd5b611a61611548565b82518152602083015182811115611a7757600080fd5b611a83878286016118d8565b602083015250604083015182811115611a9b57600080fd5b611aa78782860161195f565b604083015250606083015182811115611abf57600080fd5b611acb878286016118d8565b606083015250608083015182811115611ae357600080fd5b611aef878286016118d8565b60808301525095945050505050565b600081518084526020808501945080840160005b83811015611b2e57815187529582019590820190600101611b12565b509495945050505050565b80518252600060208083015160a082860152611b5860a0860182611afe565b9050604084015185820360408701528181518084528484019150848160051b850101858401935060005b82811015611be6577fffffffffffffffffffffffffffffffffffffffffffffffffffffffffffffffe08087840301855285518051808552611bc8818b87018c8501611933565b9689019695890195601f019091169290920187019150600101611b82565b506060880151955088810360608a0152611c008187611afe565b9550505050505060808301518482036080860152611c1e8282611afe565b95945050505050565b602081526000610af86020830184611b39565b600073ffffffffffffffffffffffffffffffffffffffff808616835280851660208401525060606040830152611c1e6060830184611b39565b600060208284031215611c8557600080fd5b8151610af8816114cb565b6000815260008251611ca9816001850160208701611933565b9190910160010192915050565b600060208284031215611cc857600080fd5b5051919050565b7f630000000000000000000000000000000000000000000000000000000000000081527fffffffff000000000000000000000000000000000000000000000000000000008360e01b1660018201527f80600e6000396000f30000000000000000000000000000000000000000000000600582015260008251611d5881600e850160208701611933565b91909101600e01939250505056fea26469706673582212200711c550ef047cc50bc14d6663ac140662e4152c0b8952fec40d604d6c68f69664736f6c634300080a0033",
  "linkReferences": {},
  "deployedLinkReferences": {}
}