{
  "_format": "hh-sol-artifact-1",
  "contractName": "ERC20TransferTier",
  "sourceName": "contracts/tier/ERC20TransferTier.sol",
  "abi": [
    {
      "anonymous": false,
      "inputs": [
        {
          "indexed": false,
          "internalType": "address",
          "name": "sender",
          "type": "address"
        },
        {
          "indexed": false,
          "internalType": "address",
          "name": "erc20",
          "type": "address"
        }
      ],
      "name": "Initialize",
      "type": "event"
    },
    {
      "anonymous": false,
      "inputs": [
        {
          "indexed": false,
          "internalType": "address",
          "name": "sender",
          "type": "address"
        },
        {
          "indexed": false,
          "internalType": "address",
          "name": "pointer",
          "type": "address"
        }
      ],
      "name": "InitializeValueTier",
      "type": "event"
    },
    {
      "anonymous": false,
      "inputs": [
        {
          "indexed": false,
          "internalType": "address",
          "name": "sender",
          "type": "address"
        },
        {
          "indexed": false,
          "internalType": "address",
          "name": "account",
          "type": "address"
        },
        {
          "indexed": false,
          "internalType": "uint256",
          "name": "startTier",
          "type": "uint256"
        },
        {
          "indexed": false,
          "internalType": "uint256",
          "name": "endTier",
          "type": "uint256"
        }
      ],
      "name": "TierChange",
      "type": "event"
    },
    {
      "inputs": [
        {
          "components": [
            {
              "internalType": "contract IERC20",
              "name": "erc20",
              "type": "address"
            },
            {
              "internalType": "uint256[8]",
              "name": "tierValues",
              "type": "uint256[8]"
            }
          ],
          "internalType": "struct ERC20TransferTierConfig",
          "name": "config_",
          "type": "tuple"
        }
      ],
      "name": "initialize",
      "outputs": [],
      "stateMutability": "nonpayable",
      "type": "function"
    },
    {
      "inputs": [
        {
          "internalType": "address",
          "name": "account_",
          "type": "address"
        }
      ],
      "name": "report",
      "outputs": [
        {
          "internalType": "uint256",
          "name": "",
          "type": "uint256"
        }
      ],
      "stateMutability": "view",
      "type": "function"
    },
    {
      "inputs": [
        {
          "internalType": "address",
          "name": "account_",
          "type": "address"
        },
        {
          "internalType": "uint256",
          "name": "endTier_",
          "type": "uint256"
        },
        {
          "internalType": "bytes",
          "name": "data_",
          "type": "bytes"
        }
      ],
      "name": "setTier",
      "outputs": [],
      "stateMutability": "nonpayable",
      "type": "function"
    },
    {
      "inputs": [],
      "name": "tierValues",
      "outputs": [
        {
          "internalType": "uint256[8]",
          "name": "tierValues_",
          "type": "uint256[8]"
        }
      ],
      "stateMutability": "view",
      "type": "function"
    }
  ],
  "bytecode": "0x608060405234801561001057600080fd5b5061145f806100206000396000f3fe608060405234801561001057600080fd5b506004361061004c5760003560e01c806370230b39146100515780638a200fff1461006f578063a61e331514610084578063e053ea3114610097575b600080fd5b6100596100b8565b6040516100669190610f2b565b60405180910390f35b61008261007d36600461102a565b6100fa565b005b6100826100923660046110f9565b610213565b6100aa6100a5366004611197565b610410565b604051908152602001610066565b6100c0610f0c565b6001546100e29073ffffffffffffffffffffffffffffffffffffffff1661048d565b8060200190518101906100f591906111b4565b905090565b60008211610169576040517f08c379a000000000000000000000000000000000000000000000000000000000815260206004820152600d60248201527f5345545f5a45524f5f544945520000000000000000000000000000000000000060448201526064015b60405180910390fd5b600061017484610410565b9050600061018282436104bb565b9050610190828286436104f5565b73ffffffffffffffffffffffffffffffffffffffff861660008181526020818152604091829020939093558051338152928301919091528101829052606081018590527f100c93640a44fd8835d3652fa703bca54387aca4142e2cab319fb66cd80e3c9c9060800160405180910390a161020c85828686610522565b5050505050565b6001547501000000000000000000000000000000000000000000900460ff1661025a5760015474010000000000000000000000000000000000000000900460ff161561025e565b303b155b6102ea576040517f08c379a000000000000000000000000000000000000000000000000000000000815260206004820152602e60248201527f496e697469616c697a61626c653a20636f6e747261637420697320616c72656160448201527f647920696e697469616c697a65640000000000000000000000000000000000006064820152608401610160565b6001547501000000000000000000000000000000000000000000900460ff1615801561035157600180547fffffffffffffffffffff0000ffffffffffffffffffffffffffffffffffffffff1675010100000000000000000000000000000000000000001790555b61035e8260200151610655565b8151600280547fffffffffffffffffffffffff00000000000000000000000000000000000000001673ffffffffffffffffffffffffffffffffffffffff90921691821790556040805133815260208101929092527fdc90fed0326ba91706deeac7eb34ac9f8b680734f9d782864dc29704d23bed6a910160405180910390a1801561040c57600180547fffffffffffffffffffff00ffffffffffffffffffffffffffffffffffffffffff1690555b5050565b73ffffffffffffffffffffffffffffffffffffffff8116600090815260208190526040812054610460577fffffffffffffffffffffffffffffffffffffffffffffffffffffffffffffffff610487565b73ffffffffffffffffffffffffffffffffffffffff82166000908152602081905260409020545b92915050565b60606104878260017fffffffffffffffffffffffffffffffffffffffffffffffffffffffffffffffff61073e565b6000805b60088110156104eb57828160200285901c63ffffffff1611156104e3579050610487565b6001016104bf565b5060089392505050565b600083831061050f5761050a85858585610827565b610519565b610519858461093a565b95945050505050565b8282116105a8573373ffffffffffffffffffffffffffffffffffffffff8516146105a8576040517f08c379a000000000000000000000000000000000000000000000000000000000815260206004820152601360248201527f44454c4547415445445f544945525f4c4f5353000000000000000000000000006044820152606401610160565b60006105b26100b8565b905060006105c082866109da565b905060006105ce83866109da565b9050818114156105e05750505061064f565b8181111561061d5761061833306105f78486610a12565b60025473ffffffffffffffffffffffffffffffffffffffff16929190610a28565b61064b565b61064b8761062b8484610a12565b60025473ffffffffffffffffffffffffffffffffffffffff169190610b04565b5050505b50505050565b60015473ffffffffffffffffffffffffffffffffffffffff161561067b5761067b611215565b60006106a5826040516020016106919190610f2b565b604051602081830303815290604052610b5f565b6040805133815273ffffffffffffffffffffffffffffffffffffffff831660208201529192507f18ebb958e85030233374c8eb79c1a72ee418770db7fb47a7de05d30c868ec958910160405180910390a1600180547fffffffffffffffffffffffff00000000000000000000000000000000000000001673ffffffffffffffffffffffffffffffffffffffff9290921691909117905550565b6060833b8061075d575050604080516020810190915260008152610820565b8084111561077b575050604080516020810190915260008152610820565b838310156107c6576040517f2c4a89fa000000000000000000000000000000000000000000000000000000008152600481018290526024810185905260448101849052606401610160565b83830384820360008282106107db57826107dd565b815b60408051603f83017fffffffffffffffffffffffffffffffffffffffffffffffffffffffffffffffe0168101909152818152955090508087602087018a3c505050505b9392505050565b6000836008811115610895576040517f08c379a000000000000000000000000000000000000000000000000000000000815260206004820152600860248201527f4d41585f544945520000000000000000000000000000000000000000000000006044820152606401610160565b836008811115610901576040517f08c379a000000000000000000000000000000000000000000000000000000000815260206004820152600860248201527f4d41585f544945520000000000000000000000000000000000000000000000006044820152606401610160565b6000865b8681101561092d5763ffffffff6020820290811b1999909916868a1b17989150600101610905565b5096979650505050505050565b60008160088111156109a8576040517f08c379a000000000000000000000000000000000000000000000000000000000815260206004820152600860248201527f4d41585f544945520000000000000000000000000000000000000000000000006044820152606401610160565b50507fffffffffffffffffffffffffffffffffffffffffffffffffffffffffffffffff60209190910290811c901b1790565b60008082116109ea576000610820565b826109f6600184611244565b60088110610a0657610a06611282565b60200201519392505050565b6000818311610a22576000610820565b50900390565b60405173ffffffffffffffffffffffffffffffffffffffff8085166024830152831660448201526064810182905261064f9085907f23b872dd00000000000000000000000000000000000000000000000000000000906084015b604080517fffffffffffffffffffffffffffffffffffffffffffffffffffffffffffffffe08184030181529190526020810180517bffffffffffffffffffffffffffffffffffffffffffffffffffffffff167fffffffff0000000000000000000000000000000000000000000000000000000090931692909217909152610bea565b60405173ffffffffffffffffffffffffffffffffffffffff8316602482015260448101829052610b5a9084907fa9059cbb0000000000000000000000000000000000000000000000000000000090606401610a82565b505050565b600080610b8a83604051602001610b7691906112dd565b604051602081830303815290604052610cf6565b90508051602082016000f0915073ffffffffffffffffffffffffffffffffffffffff8216610be4576040517f08d4abb600000000000000000000000000000000000000000000000000000000815260040160405180910390fd5b50919050565b6000610c4c826040518060400160405280602081526020017f5361666545524332303a206c6f772d6c6576656c2063616c6c206661696c65648152508573ffffffffffffffffffffffffffffffffffffffff16610d229092919063ffffffff16565b805190915015610b5a5780806020019051810190610c6a9190611303565b610b5a576040517f08c379a000000000000000000000000000000000000000000000000000000000815260206004820152602a60248201527f5361666545524332303a204552433230206f7065726174696f6e20646964206e60448201527f6f742073756363656564000000000000000000000000000000000000000000006064820152608401610160565b6060815182604051602001610d0c929190611325565b6040516020818303038152906040529050919050565b6060610d318484600085610d39565b949350505050565b606082471015610dcb576040517f08c379a000000000000000000000000000000000000000000000000000000000815260206004820152602660248201527f416464726573733a20696e73756666696369656e742062616c616e636520666f60448201527f722063616c6c00000000000000000000000000000000000000000000000000006064820152608401610160565b843b610e33576040517f08c379a000000000000000000000000000000000000000000000000000000000815260206004820152601d60248201527f416464726573733a2063616c6c20746f206e6f6e2d636f6e74726163740000006044820152606401610160565b6000808673ffffffffffffffffffffffffffffffffffffffff168587604051610e5c91906113bc565b60006040518083038185875af1925050503d8060008114610e99576040519150601f19603f3d011682016040523d82523d6000602084013e610e9e565b606091505b5091509150610eae828286610eb9565b979650505050505050565b60608315610ec8575081610820565b825115610ed85782518084602001fd5b816040517f08c379a000000000000000000000000000000000000000000000000000000000815260040161016091906113d8565b6040518061010001604052806008906020820280368337509192915050565b6101008101818360005b6008811015610f54578151835260209283019290910190600101610f35565b50505092915050565b73ffffffffffffffffffffffffffffffffffffffff81168114610f7f57600080fd5b50565b7f4e487b7100000000000000000000000000000000000000000000000000000000600052604160045260246000fd5b604051610100810167ffffffffffffffff81118282101715610fd557610fd5610f82565b60405290565b604051601f82017fffffffffffffffffffffffffffffffffffffffffffffffffffffffffffffffe016810167ffffffffffffffff8111828210171561102257611022610f82565b604052919050565b60008060006060848603121561103f57600080fd5b833561104a81610f5d565b92506020848101359250604085013567ffffffffffffffff8082111561106f57600080fd5b818701915087601f83011261108357600080fd5b81358181111561109557611095610f82565b6110c5847fffffffffffffffffffffffffffffffffffffffffffffffffffffffffffffffe0601f84011601610fdb565b915080825288848285010111156110db57600080fd5b80848401858401376000848284010152508093505050509250925092565b600061012080838503121561110d57600080fd5b6040516040810181811067ffffffffffffffff8211171561113057611130610f82565b604052833561113e81610f5d565b81526020603f8501861361115157600080fd5b611159610fb1565b92850192808785111561116b57600080fd5b8287015b85811015611186578035835291830191830161116f565b509183019190915250949350505050565b6000602082840312156111a957600080fd5b813561082081610f5d565b60006101008083850312156111c857600080fd5b83601f8401126111d757600080fd5b6111df610fb1565b9083019080858311156111f157600080fd5b845b8381101561120b5780518352602092830192016111f3565b5095945050505050565b7f4e487b7100000000000000000000000000000000000000000000000000000000600052600160045260246000fd5b60008282101561127d577f4e487b7100000000000000000000000000000000000000000000000000000000600052601160045260246000fd5b500390565b7f4e487b7100000000000000000000000000000000000000000000000000000000600052603260045260246000fd5b60005b838110156112cc5781810151838201526020016112b4565b8381111561064f5750506000910152565b60008152600082516112f68160018501602087016112b1565b9190910160010192915050565b60006020828403121561131557600080fd5b8151801515811461082057600080fd5b7f630000000000000000000000000000000000000000000000000000000000000081527fffffffff000000000000000000000000000000000000000000000000000000008360e01b1660018201527f80600e6000396000f300000000000000000000000000000000000000000000006005820152600082516113ae81600e8501602087016112b1565b91909101600e019392505050565b600082516113ce8184602087016112b1565b9190910192915050565b60208152600082518060208401526113f78160408501602087016112b1565b601f017fffffffffffffffffffffffffffffffffffffffffffffffffffffffffffffffe016919091016040019291505056fea2646970667358221220fd3b14dbd938642a298b9e279f3630887a54b09aa6c23e714f0e7b3fbe2d4f5f64736f6c634300080a0033",
  "linkReferences": {},
  "deployedLinkReferences": {}
}