{
  "_format": "hh-sol-artifact-1",
  "contractName": "ERC721BalanceTier",
  "sourceName": "contracts/tier/ERC721BalanceTier.sol",
  "abi": [
    {
      "anonymous": false,
      "inputs": [
        {
          "indexed": false,
          "internalType": "address",
          "name": "sender",
          "type": "address"
        },
        {
          "indexed": false,
          "internalType": "address",
          "name": "erc721",
          "type": "address"
        }
      ],
      "name": "Initialize",
      "type": "event"
    },
    {
      "anonymous": false,
      "inputs": [
        {
          "indexed": false,
          "internalType": "address",
          "name": "sender",
          "type": "address"
        },
        {
          "indexed": false,
          "internalType": "address",
          "name": "pointer",
          "type": "address"
        }
      ],
      "name": "InitializeValueTier",
      "type": "event"
    },
    {
      "anonymous": false,
      "inputs": [
        {
          "indexed": false,
          "internalType": "address",
          "name": "sender",
          "type": "address"
        },
        {
          "indexed": false,
          "internalType": "address",
          "name": "account",
          "type": "address"
        },
        {
          "indexed": false,
          "internalType": "uint256",
          "name": "startTier",
          "type": "uint256"
        },
        {
          "indexed": false,
          "internalType": "uint256",
          "name": "endTier",
          "type": "uint256"
        }
      ],
      "name": "TierChange",
      "type": "event"
    },
    {
      "inputs": [],
      "name": "erc721",
      "outputs": [
        {
          "internalType": "contract IERC721",
          "name": "",
          "type": "address"
        }
      ],
      "stateMutability": "view",
      "type": "function"
    },
    {
      "inputs": [
        {
          "components": [
            {
              "internalType": "contract IERC721",
              "name": "erc721",
              "type": "address"
            },
            {
              "internalType": "uint256[8]",
              "name": "tierValues",
              "type": "uint256[8]"
            }
          ],
          "internalType": "struct ERC721BalanceTierConfig",
          "name": "config_",
          "type": "tuple"
        }
      ],
      "name": "initialize",
      "outputs": [],
      "stateMutability": "nonpayable",
      "type": "function"
    },
    {
      "inputs": [
        {
          "internalType": "address",
          "name": "account_",
          "type": "address"
        }
      ],
      "name": "report",
      "outputs": [
        {
          "internalType": "uint256",
          "name": "",
          "type": "uint256"
        }
      ],
      "stateMutability": "view",
      "type": "function"
    },
    {
      "inputs": [
        {
          "internalType": "address",
          "name": "",
          "type": "address"
        },
        {
          "internalType": "uint256",
          "name": "",
          "type": "uint256"
        },
        {
          "internalType": "bytes",
          "name": "",
          "type": "bytes"
        }
      ],
      "name": "setTier",
      "outputs": [],
      "stateMutability": "pure",
      "type": "function"
    },
    {
      "inputs": [],
      "name": "tierValues",
      "outputs": [
        {
          "internalType": "uint256[8]",
          "name": "tierValues_",
          "type": "uint256[8]"
        }
      ],
      "stateMutability": "view",
      "type": "function"
    }
  ],
  "bytecode": "0x608060405234801561001057600080fd5b50610d08806100206000396000f3fe608060405234801561001057600080fd5b50600436106100675760003560e01c8063a61e331511610050578063a61e33151461009f578063bca6ce64146100b2578063e053ea31146100f757600080fd5b806370230b391461006c5780638a200fff1461008a575b600080fd5b610074610118565b6040516100819190610838565b60405180910390f35b61009d610098366004610937565b61015a565b005b61009d6100ad366004610a06565b6101c1565b6001546100d29073ffffffffffffffffffffffffffffffffffffffff1681565b60405173ffffffffffffffffffffffffffffffffffffffff9091168152602001610081565b61010a610105366004610aa4565b6103be565b604051908152602001610081565b610120610819565b6000546101429073ffffffffffffffffffffffffffffffffffffffff16610474565b8060200190518101906101559190610ac1565b905090565b6040517f08c379a000000000000000000000000000000000000000000000000000000000815260206004820152600860248201527f5345545f5449455200000000000000000000000000000000000000000000000060448201526064015b60405180910390fd5b6000547501000000000000000000000000000000000000000000900460ff166102085760005474010000000000000000000000000000000000000000900460ff161561020c565b303b155b610298576040517f08c379a000000000000000000000000000000000000000000000000000000000815260206004820152602e60248201527f496e697469616c697a61626c653a20636f6e747261637420697320616c72656160448201527f647920696e697469616c697a656400000000000000000000000000000000000060648201526084016101b8565b6000547501000000000000000000000000000000000000000000900460ff161580156102ff57600080547fffffffffffffffffffff0000ffffffffffffffffffffffffffffffffffffffff1675010100000000000000000000000000000000000000001790555b61030c82602001516104a2565b8151600180547fffffffffffffffffffffffff00000000000000000000000000000000000000001673ffffffffffffffffffffffffffffffffffffffff90921691821790556040805133815260208101929092527fdc90fed0326ba91706deeac7eb34ac9f8b680734f9d782864dc29704d23bed6a910160405180910390a180156103ba57600080547fffffffffffffffffffff00ffffffffffffffffffffffffffffffffffffffffff1690555b5050565b600061046e60006104696103d0610118565b6001546040517f70a0823100000000000000000000000000000000000000000000000000000000815273ffffffffffffffffffffffffffffffffffffffff8881166004830152909116906370a0823190602401602060405180830381865afa158015610440573d6000803e3d6000fd5b505050506040513d601f19601f820116820180604052508101906104649190610b22565b61058b565b6105d9565b92915050565b606061046e8260017fffffffffffffffffffffffffffffffffffffffffffffffffffffffffffffffff610679565b60005473ffffffffffffffffffffffffffffffffffffffff16156104c8576104c8610b3b565b60006104f2826040516020016104de9190610838565b604051602081830303815290604052610762565b6040805133815273ffffffffffffffffffffffffffffffffffffffff831660208201529192507f18ebb958e85030233374c8eb79c1a72ee418770db7fb47a7de05d30c868ec958910160405180910390a1600080547fffffffffffffffffffffffff00000000000000000000000000000000000000001673ffffffffffffffffffffffffffffffffffffffff9290921691909117905550565b6000805b60088110156105cf578381600881106105aa576105aa610b6a565b60200201518310156105bd57905061046e565b806105c781610b99565b91505061058f565b5060089392505050565b6000816008811115610647576040517f08c379a000000000000000000000000000000000000000000000000000000000815260206004820152600860248201527f4d41585f5449455200000000000000000000000000000000000000000000000060448201526064016101b8565b50507fffffffffffffffffffffffffffffffffffffffffffffffffffffffffffffffff60209190910290811c901b1790565b6060833b8061069857505060408051602081019091526000815261075b565b808411156106b657505060408051602081019091526000815261075b565b83831015610701576040517f2c4a89fa0000000000000000000000000000000000000000000000000000000081526004810182905260248101859052604481018490526064016101b8565b83830384820360008282106107165782610718565b815b60408051603f83017fffffffffffffffffffffffffffffffffffffffffffffffffffffffffffffffe0168101909152818152955090508087602087018a3c505050505b9392505050565b60008061078d836040516020016107799190610c34565b6040516020818303038152906040526107ed565b90508051602082016000f0915073ffffffffffffffffffffffffffffffffffffffff82166107e7576040517f08d4abb600000000000000000000000000000000000000000000000000000000815260040160405180910390fd5b50919050565b6060815182604051602001610803929190610c47565b6040516020818303038152906040529050919050565b6040518061010001604052806008906020820280368337509192915050565b6101008101818360005b6008811015610861578151835260209283019290910190600101610842565b50505092915050565b73ffffffffffffffffffffffffffffffffffffffff8116811461088c57600080fd5b50565b7f4e487b7100000000000000000000000000000000000000000000000000000000600052604160045260246000fd5b604051610100810167ffffffffffffffff811182821017156108e2576108e261088f565b60405290565b604051601f82017fffffffffffffffffffffffffffffffffffffffffffffffffffffffffffffffe016810167ffffffffffffffff8111828210171561092f5761092f61088f565b604052919050565b60008060006060848603121561094c57600080fd5b83356109578161086a565b92506020848101359250604085013567ffffffffffffffff8082111561097c57600080fd5b818701915087601f83011261099057600080fd5b8135818111156109a2576109a261088f565b6109d2847fffffffffffffffffffffffffffffffffffffffffffffffffffffffffffffffe0601f840116016108e8565b915080825288848285010111156109e857600080fd5b80848401858401376000848284010152508093505050509250925092565b6000610120808385031215610a1a57600080fd5b6040516040810181811067ffffffffffffffff82111715610a3d57610a3d61088f565b6040528335610a4b8161086a565b81526020603f85018613610a5e57600080fd5b610a666108be565b928501928087851115610a7857600080fd5b8287015b85811015610a935780358352918301918301610a7c565b509183019190915250949350505050565b600060208284031215610ab657600080fd5b813561075b8161086a565b6000610100808385031215610ad557600080fd5b83601f840112610ae457600080fd5b610aec6108be565b908301908085831115610afe57600080fd5b845b83811015610b18578051835260209283019201610b00565b5095945050505050565b600060208284031215610b3457600080fd5b5051919050565b7f4e487b7100000000000000000000000000000000000000000000000000000000600052600160045260246000fd5b7f4e487b7100000000000000000000000000000000000000000000000000000000600052603260045260246000fd5b60007fffffffffffffffffffffffffffffffffffffffffffffffffffffffffffffffff821415610bf2577f4e487b7100000000000000000000000000000000000000000000000000000000600052601160045260246000fd5b5060010190565b6000815160005b81811015610c1a5760208185018101518683015201610c00565b81811115610c29576000828601525b509290920192915050565b60008152600061075b6001830184610bf9565b7f630000000000000000000000000000000000000000000000000000000000000081527fffffffff000000000000000000000000000000000000000000000000000000008360e01b1660018201527f80600e6000396000f3000000000000000000000000000000000000000000000060058201526000610cca600e830184610bf9565b94935050505056fea26469706673582212200b7968d5a5e8b07d40afcb03e2d08096b45c7f346c4a7131ed8f45f2ab43599964736f6c634300080a0033",
  "linkReferences": {},
  "deployedLinkReferences": {}
}