{
  "_format": "hh-sol-artifact-1",
  "contractName": "EmissionsERC20",
  "sourceName": "contracts/claim/EmissionsERC20.sol",
  "abi": [
    {
      "inputs": [
        {
          "internalType": "address",
          "name": "vmStateBuilder_",
          "type": "address"
        }
      ],
      "stateMutability": "nonpayable",
      "type": "constructor"
    },
    {
      "anonymous": false,
      "inputs": [
        {
          "indexed": true,
          "internalType": "address",
          "name": "owner",
          "type": "address"
        },
        {
          "indexed": true,
          "internalType": "address",
          "name": "spender",
          "type": "address"
        },
        {
          "indexed": false,
          "internalType": "uint256",
          "name": "value",
          "type": "uint256"
        }
      ],
      "name": "Approval",
      "type": "event"
    },
    {
      "anonymous": false,
      "inputs": [
        {
          "indexed": false,
          "internalType": "address",
          "name": "sender",
          "type": "address"
        },
        {
          "indexed": false,
          "internalType": "address",
          "name": "claimant",
          "type": "address"
        },
        {
          "indexed": false,
          "internalType": "bytes",
          "name": "data",
          "type": "bytes"
        }
      ],
      "name": "Claim",
      "type": "event"
    },
    {
      "anonymous": false,
      "inputs": [
        {
          "indexed": false,
          "internalType": "address",
          "name": "sender",
          "type": "address"
        },
        {
          "indexed": false,
          "internalType": "bool",
          "name": "allowDelegatedClaims",
          "type": "bool"
        }
      ],
      "name": "Initialize",
      "type": "event"
    },
    {
      "anonymous": false,
      "inputs": [
        {
          "indexed": false,
          "internalType": "address",
          "name": "sender",
          "type": "address"
        },
        {
          "indexed": false,
          "internalType": "address",
          "name": "account",
          "type": "address"
        },
        {
          "indexed": false,
          "internalType": "uint256",
          "name": "startTier",
          "type": "uint256"
        },
        {
          "indexed": false,
          "internalType": "uint256",
          "name": "endTier",
          "type": "uint256"
        },
        {
          "indexed": false,
          "internalType": "bytes",
          "name": "data",
          "type": "bytes"
        }
      ],
      "name": "TierChange",
      "type": "event"
    },
    {
      "anonymous": false,
      "inputs": [
        {
          "indexed": true,
          "internalType": "address",
          "name": "from",
          "type": "address"
        },
        {
          "indexed": true,
          "internalType": "address",
          "name": "to",
          "type": "address"
        },
        {
          "indexed": false,
          "internalType": "uint256",
          "name": "value",
          "type": "uint256"
        }
      ],
      "name": "Transfer",
      "type": "event"
    },
    {
      "inputs": [],
      "name": "allowDelegatedClaims",
      "outputs": [
        {
          "internalType": "bool",
          "name": "",
          "type": "bool"
        }
      ],
      "stateMutability": "view",
      "type": "function"
    },
    {
      "inputs": [
        {
          "internalType": "address",
          "name": "owner",
          "type": "address"
        },
        {
          "internalType": "address",
          "name": "spender",
          "type": "address"
        }
      ],
      "name": "allowance",
      "outputs": [
        {
          "internalType": "uint256",
          "name": "",
          "type": "uint256"
        }
      ],
      "stateMutability": "view",
      "type": "function"
    },
    {
      "inputs": [
        {
          "internalType": "address",
          "name": "spender",
          "type": "address"
        },
        {
          "internalType": "uint256",
          "name": "amount",
          "type": "uint256"
        }
      ],
      "name": "approve",
      "outputs": [
        {
          "internalType": "bool",
          "name": "",
          "type": "bool"
        }
      ],
      "stateMutability": "nonpayable",
      "type": "function"
    },
    {
      "inputs": [
        {
          "internalType": "address",
          "name": "account",
          "type": "address"
        }
      ],
      "name": "balanceOf",
      "outputs": [
        {
          "internalType": "uint256",
          "name": "",
          "type": "uint256"
        }
      ],
      "stateMutability": "view",
      "type": "function"
    },
    {
      "inputs": [
        {
          "internalType": "address",
          "name": "claimant_",
          "type": "address"
        }
      ],
      "name": "calculateClaim",
      "outputs": [
        {
          "internalType": "uint256",
          "name": "",
          "type": "uint256"
        }
      ],
      "stateMutability": "view",
      "type": "function"
    },
    {
      "inputs": [
        {
          "internalType": "address",
          "name": "claimant_",
          "type": "address"
        },
        {
          "internalType": "bytes",
          "name": "data_",
          "type": "bytes"
        }
      ],
      "name": "claim",
      "outputs": [],
      "stateMutability": "nonpayable",
      "type": "function"
    },
    {
      "inputs": [],
      "name": "decimals",
      "outputs": [
        {
          "internalType": "uint8",
          "name": "",
          "type": "uint8"
        }
      ],
      "stateMutability": "view",
      "type": "function"
    },
    {
      "inputs": [
        {
          "internalType": "address",
          "name": "spender",
          "type": "address"
        },
        {
          "internalType": "uint256",
          "name": "subtractedValue",
          "type": "uint256"
        }
      ],
      "name": "decreaseAllowance",
      "outputs": [
        {
          "internalType": "bool",
          "name": "",
          "type": "bool"
        }
      ],
      "stateMutability": "nonpayable",
      "type": "function"
    },
    {
      "inputs": [],
      "name": "fnPtrs",
      "outputs": [
        {
          "internalType": "bytes",
          "name": "",
          "type": "bytes"
        }
      ],
      "stateMutability": "pure",
      "type": "function"
    },
    {
      "inputs": [
        {
          "internalType": "address",
          "name": "spender",
          "type": "address"
        },
        {
          "internalType": "uint256",
          "name": "addedValue",
          "type": "uint256"
        }
      ],
      "name": "increaseAllowance",
      "outputs": [
        {
          "internalType": "bool",
          "name": "",
          "type": "bool"
        }
      ],
      "stateMutability": "nonpayable",
      "type": "function"
    },
    {
      "inputs": [
        {
          "components": [
            {
              "internalType": "bool",
              "name": "allowDelegatedClaims",
              "type": "bool"
            },
            {
              "components": [
                {
                  "internalType": "string",
                  "name": "name",
                  "type": "string"
                },
                {
                  "internalType": "string",
                  "name": "symbol",
                  "type": "string"
                },
                {
                  "internalType": "address",
                  "name": "distributor",
                  "type": "address"
                },
                {
                  "internalType": "uint256",
                  "name": "initialSupply",
                  "type": "uint256"
                }
              ],
              "internalType": "struct ERC20Config",
              "name": "erc20Config",
              "type": "tuple"
            },
            {
              "components": [
                {
                  "internalType": "bytes[]",
                  "name": "sources",
                  "type": "bytes[]"
                },
                {
                  "internalType": "uint256[]",
                  "name": "constants",
                  "type": "uint256[]"
                }
              ],
              "internalType": "struct StateConfig",
              "name": "vmStateConfig",
              "type": "tuple"
            }
          ],
          "internalType": "struct EmissionsERC20Config",
          "name": "config_",
          "type": "tuple"
        }
      ],
      "name": "initialize",
      "outputs": [],
      "stateMutability": "nonpayable",
      "type": "function"
    },
    {
      "inputs": [],
      "name": "name",
      "outputs": [
        {
          "internalType": "string",
          "name": "",
          "type": "string"
        }
      ],
      "stateMutability": "view",
      "type": "function"
    },
    {
      "inputs": [
        {
          "internalType": "address",
          "name": "account_",
          "type": "address"
        }
      ],
      "name": "report",
      "outputs": [
        {
          "internalType": "uint256",
          "name": "",
          "type": "uint256"
        }
      ],
      "stateMutability": "view",
      "type": "function"
    },
    {
      "inputs": [
        {
          "internalType": "address",
          "name": "",
          "type": "address"
        },
        {
          "internalType": "uint256",
          "name": "",
          "type": "uint256"
        },
        {
          "internalType": "bytes",
          "name": "",
          "type": "bytes"
        }
      ],
      "name": "setTier",
      "outputs": [],
      "stateMutability": "pure",
      "type": "function"
    },
    {
      "inputs": [],
      "name": "storageOpcodesRange",
      "outputs": [
        {
          "components": [
            {
              "internalType": "uint256",
              "name": "pointer",
              "type": "uint256"
            },
            {
              "internalType": "uint256",
              "name": "length",
              "type": "uint256"
            }
          ],
          "internalType": "struct StorageOpcodesRange",
          "name": "",
          "type": "tuple"
        }
      ],
      "stateMutability": "pure",
      "type": "function"
    },
    {
      "inputs": [],
      "name": "symbol",
      "outputs": [
        {
          "internalType": "string",
          "name": "",
          "type": "string"
        }
      ],
      "stateMutability": "view",
      "type": "function"
    },
    {
      "inputs": [],
      "name": "totalSupply",
      "outputs": [
        {
          "internalType": "uint256",
          "name": "",
          "type": "uint256"
        }
      ],
      "stateMutability": "view",
      "type": "function"
    },
    {
      "inputs": [
        {
          "internalType": "address",
          "name": "to",
          "type": "address"
        },
        {
          "internalType": "uint256",
          "name": "amount",
          "type": "uint256"
        }
      ],
      "name": "transfer",
      "outputs": [
        {
          "internalType": "bool",
          "name": "",
          "type": "bool"
        }
      ],
      "stateMutability": "nonpayable",
      "type": "function"
    },
    {
      "inputs": [
        {
          "internalType": "address",
          "name": "from",
          "type": "address"
        },
        {
          "internalType": "address",
          "name": "to",
          "type": "address"
        },
        {
          "internalType": "uint256",
          "name": "amount",
          "type": "uint256"
        }
      ],
      "name": "transferFrom",
      "outputs": [
        {
          "internalType": "bool",
          "name": "",
          "type": "bool"
        }
      ],
      "stateMutability": "nonpayable",
      "type": "function"
    }
  ],
  "bytecode": "0x60c06040523480156200001157600080fd5b506040516200430e3803806200430e83398101604081905262000034916200004a565b306080526001600160a01b031660a0526200007c565b6000602082840312156200005d57600080fd5b81516001600160a01b03811681146200007557600080fd5b9392505050565b60805160a05161426c620000a2600039600061093d01526000610964015261426c6000f3fe608060405234801561001057600080fd5b50600436106101515760003560e01c806395d89b41116100cd578063dd62ed3e11610081578063e053ea3111610066578063e053ea3114610320578063ea34554014610356578063f2cd6c081461036957600080fd5b8063dd62ed3e146102a2578063e0419ae3146102e857600080fd5b8063a457c2d7116100b2578063a457c2d714610269578063a9059cbb1461027c578063bb1757cf1461028f57600080fd5b806395d89b411461024e5780639a8d2ac81461025657600080fd5b8063313ce5671161012457806367676b111161010957806367676b11146101de57806370a08231146102035780638a200fff1461023957600080fd5b8063313ce567146101bc57806339509351146101cb57600080fd5b806306fdde0314610156578063095ea7b31461017457806318160ddd1461019757806323b872dd146101a9575b600080fd5b61015e6104f6565b60405161016b9190613482565b60405180910390f35b6101876101823660046134b7565b610588565b604051901515815260200161016b565b6035545b60405190815260200161016b565b6101876101b73660046134e3565b6105a2565b6040516012815260200161016b565b6101876101d93660046134b7565b6105c8565b6065546101879074010000000000000000000000000000000000000000900460ff1681565b61019b610211366004613524565b73ffffffffffffffffffffffffffffffffffffffff1660009081526033602052604090205490565b61024c61024736600461358a565b610614565b005b61015e61067b565b61024c6102643660046135e6565b61068a565b6101876102773660046134b7565b610b4d565b61018761028a3660046134b7565b610c29565b61024c61029d366004613621565b610c37565b61019b6102b0366004613676565b73ffffffffffffffffffffffffffffffffffffffff918216600090815260346020908152604080832093909416825291909152205490565b60408051808201825260008082526020918201819052825180840184528181528201818152835191825251918101919091520161016b565b61019b61032e366004613524565b73ffffffffffffffffffffffffffffffffffffffff1660009081526066602052604090205490565b61019b610364366004613524565b610ddd565b6040805161058081018252600060208201819052918101829052606081018290526080810182905260a0810182905260c081019190915261204260e082015261204d61010082015261205861012082015261206361014082015261206e6101608201526120e16101808201526121476101a08201526121876101c08201526121bb6101e08201526121ef6102008201526122366102208201526122936102408201526122cc61026082015261230a61028082015261235c6102a08201526123b96102c08201526123ed6102e08201526124216103008201526124536103208201526124856103408201526124b76103608201526124e461038082015261253f6103a08201526125956103c08201526125ec6103e08201526126436104008201526126776104208201526126a16104408201526127886104608201526127e46104808201526128606104a082015261291a6104c082018190526129c46104e0830152610500820152612a44610520820152612b4c610540820152612c6a61056080830191909152815261015e565b606060368054610505906136af565b80601f0160208091040260200160405190810160405280929190818152602001828054610531906136af565b801561057e5780601f106105535761010080835404028352916020019161057e565b820191906000526020600020905b81548152906001019060200180831161056157829003601f168201915b5050505050905090565b600033610596818585610e92565b60019150505b92915050565b6000336105b0858285611045565b6105bb85858561111c565b60019150505b9392505050565b33600081815260346020908152604080832073ffffffffffffffffffffffffffffffffffffffff87168452909152812054909190610596908290869061060f90879061372c565b610e92565b6040517f08c379a000000000000000000000000000000000000000000000000000000000815260206004820152600860248201527f5345545f5449455200000000000000000000000000000000000000000000000060448201526064015b60405180910390fd5b606060378054610505906136af565b600054610100900460ff166106a55760005460ff16156106a9565b303b155b610735576040517f08c379a000000000000000000000000000000000000000000000000000000000815260206004820152602e60248201527f496e697469616c697a61626c653a20636f6e747261637420697320616c72656160448201527f647920696e697469616c697a65640000000000000000000000000000000000006064820152608401610672565b600054610100900460ff1615801561077457600080547fffffffffffffffffffffffffffffffffffffffffffffffffffffffffffff0000166101011790555b6108186107846020840184613744565b61078e9080613782565b8080601f0160208091040260200160405190810160405280939291908181526020018383808284376000920191909152506107d0925050506020850185613744565b6107de906020810190613782565b8080601f0160208091040260200160405190810160405280939291908181526020018383808284376000920191909152506113cf92505050565b61084f6108286020840184613744565b610839906060810190604001613524565b6108466020850185613744565b60600135611470565b61088f6040518060e00160405280600081526020016000815260200160008152602001600081526020016000815260200160008152602001600081525090565b60008082526001602083018190526040805182815280820190915290816020015b6108f06040518060e00160405280600081526020016000815260200160008152602001600081526020016000815260200160008152602001600081525090565b8152602001906001900390816108b0579050509050818160008151811061091957610919613816565b6020908102919091010152600073ffffffffffffffffffffffffffffffffffffffff7f0000000000000000000000000000000000000000000000000000000000000000166317376ae07f00000000000000000000000000000000000000000000000000000000000000006109906040890189613845565b856040518463ffffffff1660e01b81526004016109af939291906139f1565b6000604051808303816000875af11580156109ce573d6000803e3d6000fd5b505050506040513d6000823e601f3d9081017fffffffffffffffffffffffffffffffffffffffffffffffffffffffffffffffe0168201604052610a149190810190613ba3565b9050610a1f81611590565b606580547fffffffffffffffffffffffff00000000000000000000000000000000000000001673ffffffffffffffffffffffffffffffffffffffff92909216919091179055610a716020860186613c4c565b6065805491151574010000000000000000000000000000000000000000027fffffffffffffffffffffff00ffffffffffffffffffffffffffffffffffffffff9092169190911790557f274e8c1392a7530676d21ea0d455c78fd0b51f79881c266f3cf836806d261a3533610ae86020880188613c4c565b6040805173ffffffffffffffffffffffffffffffffffffffff909316835290151560208301520160405180910390a15050508015610b4957600080547fffffffffffffffffffffffffffffffffffffffffffffffffffffffffffff00ff1690555b5050565b33600081815260346020908152604080832073ffffffffffffffffffffffffffffffffffffffff8716845290915281205490919083811015610c11576040517f08c379a000000000000000000000000000000000000000000000000000000000815260206004820152602560248201527f45524332303a2064656372656173656420616c6c6f77616e63652062656c6f7760448201527f207a65726f0000000000000000000000000000000000000000000000000000006064820152608401610672565b610c1e8286868403610e92565b506001949350505050565b60003361059681858561111c565b60655474010000000000000000000000000000000000000000900460ff16610cd8573373ffffffffffffffffffffffffffffffffffffffff841614610cd8576040517f08c379a000000000000000000000000000000000000000000000000000000000815260206004820152600f60248201527f44454c4547415445445f434c41494d00000000000000000000000000000000006044820152606401610672565b6000610ce384610ddd565b9050610cef8482611470565b610d1d7fffffffffffffffffffffffffffffffffffffffffffffffffffffffffffffffff600060084361161b565b73ffffffffffffffffffffffffffffffffffffffff85166000818152606660209081526040808320949094558351338152908101929092528183018190526008606083015260a06080830181905282015290517f38a6eea2baad9b582cfacaee65ba01dcf8fa591a082e5188dbf89cd8560228c89181900360c00190a17fbf9d4a3962ab35e7ce8f88984952a416a31b61587fa229030e059141a2646f4333858585604051610dcf9493929190613c6e565b60405180910390a150505050565b6065546000908190610e0d90610e089073ffffffffffffffffffffffffffffffffffffffff166116c1565b6116ef565b6040805160208082528183019092529192506000919060208201818036833750505073ffffffffffffffffffffffffffffffffffffffff851660208201819052909150610e5c8284600061185b565b5060208301518351610e7090600190613ca8565b81518110610e8057610e80613816565b60200260200101519350505050919050565b73ffffffffffffffffffffffffffffffffffffffff8316610f34576040517f08c379a0000000000000000000000000000000000000000000000000000000008152602060048201526024808201527f45524332303a20617070726f76652066726f6d20746865207a65726f2061646460448201527f72657373000000000000000000000000000000000000000000000000000000006064820152608401610672565b73ffffffffffffffffffffffffffffffffffffffff8216610fd7576040517f08c379a000000000000000000000000000000000000000000000000000000000815260206004820152602260248201527f45524332303a20617070726f766520746f20746865207a65726f20616464726560448201527f73730000000000000000000000000000000000000000000000000000000000006064820152608401610672565b73ffffffffffffffffffffffffffffffffffffffff83811660008181526034602090815260408083209487168084529482529182902085905590518481527f8c5be1e5ebec7d5bd14f71427d1e84f3dd0314c0f7b2291e5b200ac8c7c3b925910160405180910390a3505050565b73ffffffffffffffffffffffffffffffffffffffff8381166000908152603460209081526040808320938616835292905220547fffffffffffffffffffffffffffffffffffffffffffffffffffffffffffffffff81146111165781811015611109576040517f08c379a000000000000000000000000000000000000000000000000000000000815260206004820152601d60248201527f45524332303a20696e73756666696369656e7420616c6c6f77616e63650000006044820152606401610672565b6111168484848403610e92565b50505050565b73ffffffffffffffffffffffffffffffffffffffff83166111bf576040517f08c379a000000000000000000000000000000000000000000000000000000000815260206004820152602560248201527f45524332303a207472616e736665722066726f6d20746865207a65726f20616460448201527f64726573730000000000000000000000000000000000000000000000000000006064820152608401610672565b73ffffffffffffffffffffffffffffffffffffffff8216611262576040517f08c379a000000000000000000000000000000000000000000000000000000000815260206004820152602360248201527f45524332303a207472616e7366657220746f20746865207a65726f206164647260448201527f65737300000000000000000000000000000000000000000000000000000000006064820152608401610672565b73ffffffffffffffffffffffffffffffffffffffff831660009081526033602052604090205481811015611318576040517f08c379a000000000000000000000000000000000000000000000000000000000815260206004820152602660248201527f45524332303a207472616e7366657220616d6f756e742065786365656473206260448201527f616c616e636500000000000000000000000000000000000000000000000000006064820152608401610672565b73ffffffffffffffffffffffffffffffffffffffff80851660009081526033602052604080822085850390559185168152908120805484929061135c90849061372c565b925050819055508273ffffffffffffffffffffffffffffffffffffffff168473ffffffffffffffffffffffffffffffffffffffff167fddf252ad1be2c89b69c2b068fc378daa952ba7f163c4a11628f55a4df523b3ef846040516113c291815260200190565b60405180910390a3611116565b600054610100900460ff16611466576040517f08c379a000000000000000000000000000000000000000000000000000000000815260206004820152602b60248201527f496e697469616c697a61626c653a20636f6e7472616374206973206e6f74206960448201527f6e697469616c697a696e670000000000000000000000000000000000000000006064820152608401610672565b610b498282611b34565b73ffffffffffffffffffffffffffffffffffffffff82166114ed576040517f08c379a000000000000000000000000000000000000000000000000000000000815260206004820152601f60248201527f45524332303a206d696e7420746f20746865207a65726f2061646472657373006044820152606401610672565b80603560008282546114ff919061372c565b909155505073ffffffffffffffffffffffffffffffffffffffff82166000908152603360205260408120805483929061153990849061372c565b909155505060405181815273ffffffffffffffffffffffffffffffffffffffff8316906000907fddf252ad1be2c89b69c2b068fc378daa952ba7f163c4a11628f55a4df523b3ef9060200160405180910390a35050565b6000806115bb836040516020016115a79190613cbf565b604051602081830303815290604052611bf2565b90508051602082016000f0915073ffffffffffffffffffffffffffffffffffffffff8216611615576040517f08d4abb600000000000000000000000000000000000000000000000000000000815260040160405180910390fd5b50919050565b6000826008811115611689576040517f08c379a000000000000000000000000000000000000000000000000000000000815260206004820152600860248201527f4d41585f544945520000000000000000000000000000000000000000000000006044820152606401610672565b6000855b858110156116b55763ffffffff6020820290811b199890981685891b1797915060010161168d565b50959695505050505050565b606061059c8260017fffffffffffffffffffffffffffffffffffffffffffffffffffffffffffffffff611c1e565b6117216040518060a0016040528060008152602001606081526020016060815260200160608152602001600081525090565b6117536040518060a0016040528060008152602001606081526020016060815260200160608152602001600081525090565b60208301805160ff8082168352606084019290925290600882901c1667ffffffffffffffff811115611787576117876137e7565b6040519080825280602002602001820160405280156117b0578160200160208202803683370190505b50602083015260ff601082901c81166080840152601882901c16606060008267ffffffffffffffff8111156117e7576117e76137e7565b604051908082528060200260200182016040528015611810578160200160208202803683370190505b5090506020870151602002604001870160005b8481101561184a578160208202602001840152815160200182019150600181019050611823565b505060408501525091949350505050565b60208281015183516040850151848402018301518051606087015160a088015160009687968796879695948301938284019391820290920101906002015b84891015611b17576003890198508886015180601f1a975061ffff8160081c169850506006881015611a8f57876118de57866020028401518252602082019150611aa2565b60018814156118fb57602087028301518252602082019150611aa2565b6002881415611988578c518760200210611971576040517f08c379a000000000000000000000000000000000000000000000000000000000815260206004820152600e60248201527f434f4e544558545f4c454e4754480000000000000000000000000000000000006044820152606401610672565b866020026020018d01518252602082019150611aa2565b60038814156119d05760006119be6040805180820182526000808252602091820181905282518084019093528083529082015290565b51880154835250602090910190611aa2565b60048814156119ec576119e58d8d848a611d06565b9150611aa2565b606087611a1a578c604051602001611a049190613d15565b6040516020818303038152906040529050611a79565b6001881415611a3357611a2c8d611e73565b9050611a79565b6002881415611a4f576020808e0151604051611a049201613deb565b6003881415611a79578c516040805160208101929092520160405160208183030381529060405290505b805115611a8957611a8981611fb0565b50611aa2565b87611a9e888463ffffffff8416565b9250505b60208c0151518c511115611b12576040517f08c379a000000000000000000000000000000000000000000000000000000000815260206004820152600e60248201527f535441434b5f4f564552464c4f570000000000000000000000000000000000006044820152606401610672565b611899565b602083830304909b529b9a5050505050505050505050565b505050565b600054610100900460ff16611bcb576040517f08c379a000000000000000000000000000000000000000000000000000000000815260206004820152602b60248201527f496e697469616c697a61626c653a20636f6e7472616374206973206e6f74206960448201527f6e697469616c697a696e670000000000000000000000000000000000000000006064820152608401610672565b8151611bde906036906020850190613373565b508051611b2f906037906020840190613373565b6060815182604051602001611c08929190613e50565b6040516020818303038152906040529050919050565b6060833b80611c3d5750506040805160208101909152600081526105c1565b80841115611c5b5750506040805160208101909152600081526105c1565b83831015611ca6576040517f2c4a89fa000000000000000000000000000000000000000000000000000000008152600481018290526024810185905260448101849052606401610672565b8383038482036000828210611cbb5782611cbd565b815b60408051603f83017fffffffffffffffffffffffffffffffffffffffffffffffffffffffffffffffe0168101909152818152955090508087602087018a3c505050509392505050565b600060078216600383811c16828082611d4557507fffffffffffffffffffffffffffffffffffffffffffffffffffffffffffffffff9050610100611d90565b8260011415611d6957506fffffffffffffffffffffffffffffffff90506080611d90565b8260021415611d85575067ffffffffffffffff90506040611d90565b5063ffffffff905060205b6001600587901c0160008167ffffffffffffffff811115611db357611db36137e7565b604051908082528060200260200182016040528015611ddc578160200160208202803683370190505b50905060208082019083028a03815b8b821015611e03578151815260209182019101611deb565b505060608b015160808c015160209081029091010160005b610100811015611e615760208502830182845b82811015611e4a578051841c8a16825260209182019101611e2e565b505050611e588e8e8b61185b565b9b508501611e1b565b50999c9b505050505050505050505050565b606060008260600151905060006018846040015151901b60108560800151901b6008866020015151901b866060015151171717905060008160001b83604051602001611ebf9190613deb565b604080517fffffffffffffffffffffffffffffffffffffffffffffffffffffffffffffffe081840301815290829052611efb9291602001613ee7565b604051602081830303815290604052905060005b856040015151811015611fa7578186604001518281518110611f3357611f33613816565b60200260200101515160001b87604001518381518110611f5557611f55613816565b6020026020010151604051602001611f6f93929190613f0d565b604080517fffffffffffffffffffffffffffffffffffffffffffffffffffffffffffffffe08184030181529190529150600101611f0f565b50949350505050565b61203f81604051602401611fc49190613482565b604080517fffffffffffffffffffffffffffffffffffffffffffffffffffffffffffffffe08184030181529190526020810180517bffffffffffffffffffffffffffffffffffffffffffffffffffffffff167f0be77f5600000000000000000000000000000000000000000000000000000000179052612e67565b50565b438152602001919050565b428152602001919050565b338152602001919050565b308152602001919050565b7fffffffffffffffffffffffffffffffffffffffffffffffffffffffffffffffc0810180517fffffffffffffffffffffffffffffffffffffffffffffffffffffffffffffffe09092018051909260009291836120d4826120ce858a612e88565b90612f09565b9093525092949350505050565b7fffffffffffffffffffffffffffffffffffffffffffffffffffffffffffffffc0810180517fffffffffffffffffffffffffffffffffffffffffffffffffffffffffffffffe09092018051909260009291836120d482612141858a612e88565b90612f28565b7fffffffffffffffffffffffffffffffffffffffffffffffffffffffffffffffe081018051600091908261217b8287612e88565b90925250919392505050565b7fffffffffffffffffffffffffffffffffffffffffffffffffffffffffffffffe081018051600091908261217b8287612f3d565b7fffffffffffffffffffffffffffffffffffffffffffffffffffffffffffffffe081018051600091908261217b8287612f9b565b600060208302820380516000602083015b85811015612228578051830191508282101561221b57600080fd5b9091508190602001612200565b505081526020019392505050565b6020828102820380516000928201835b858210801561227457507fffffffffffffffffffffffffffffffffffffffffffffffffffffffffffffffff83105b156122285750805160209091019061228c8382612fe6565b9250612246565b600060208302820380516000602083015b8581101561222857805183039150828211156122bf57600080fd5b90915081906020016122a4565b6020828102820380516000928201835b85821080156122eb5750826000105b15612228575080516020909101906123038382613022565b92506122dc565b60006020830282038051600080602084015b8681101561234d57831561234557805192508284029150828483041461234157600080fd5b8193505b60200161231c565b50505081526020019392505050565b6020828102820380516000928201835b858210801561239a57507fffffffffffffffffffffffffffffffffffffffffffffffffffffffffffffffff83105b15612228575080516020909101906123b28382613038565b925061236c565b600060208302820380516000602083015b858110156122285780519150816123e057600080fd5b91819004916020016123ca565b600060208302820380516000602083015b8581101561222857805191508161241457600080fd5b91819006916020016123fe565b6020828102820380516000928201835b858210156122285750805160209091019061244c8184614064565b9250612431565b6020828102820380516000928201835b85821015612228575080518281101561247a578092505b602082019150612463565b6020828102820380516000928201835b8582101561222857508051828111156124ac578092505b602082019150612495565b7fffffffffffffffffffffffffffffffffffffffffffffffffffffffffffffffe081018051159052919050565b7fffffffffffffffffffffffffffffffffffffffffffffffffffffffffffffffa0810180511560200282017fffffffffffffffffffffffffffffffffffffffffffffffffffffffffffffffc090810151909152018092915050565b7fffffffffffffffffffffffffffffffffffffffffffffffffffffffffffffffe0810180517fffffffffffffffffffffffffffffffffffffffffffffffffffffffffffffffc09092018051909214909152919050565b7fffffffffffffffffffffffffffffffffffffffffffffffffffffffffffffffe0810180517fffffffffffffffffffffffffffffffffffffffffffffffffffffffffffffffc0909201805192909210909152919050565b7fffffffffffffffffffffffffffffffffffffffffffffffffffffffffffffffe0810180517fffffffffffffffffffffffffffffffffffffffffffffffffffffffffffffffc0909201805192909211909152919050565b6000602083028203805b8381101561266c578051612664576000825261266c565b60200161264d565b506020019392505050565b6000602083028203805b8381101561266c578051801561269857825261266c565b50602001612681565b7fffffffffffffffffffffffffffffffffffffffffffffffffffffffffffffffc0810180517fffffffffffffffffffffffffffffffffffffffffffffffffffffffffffffffe090920180516040517fe053ea3100000000000000000000000000000000000000000000000000000000815273ffffffffffffffffffffffffffffffffffffffff8083166004830152929460009493909291859184169063e053ea31906024015b602060405180830381865afa158015612764573d6000803e3d6000fd5b505050506040513d601f19601f820116820180604052508101906120d49190614070565b7fffffffffffffffffffffffffffffffffffffffffffffffffffffffffffffffc0810180517fffffffffffffffffffffffffffffffffffffffffffffffffffffffffffffffe09092018051909260009291836120d48383613067565b7fffffffffffffffffffffffffffffffffffffffffffffffffffffffffffffffc0810180517fffffffffffffffffffffffffffffffffffffffffffffffffffffffffffffffe09092018051909260009291600f80871691600488901c90911690856128518585858561161b565b90955250949695505050505050565b6000600783901c6003600585901c16601f851683808267ffffffffffffffff81111561288e5761288e6137e7565b6040519080825280602002602001820160405280156128b7578160200160208202803683370190505b509050600060206001850102880392506020840283018360005b828210156128f3578151816020018601526020820191506020810190506128d1565b50505190506000612906838389896130c6565b845250506020909101979650505050505050565b7fffffffffffffffffffffffffffffffffffffffffffffffffffffffffffffffc0810180517fffffffffffffffffffffffffffffffffffffffffffffffffffffffffffffffe090920180516040517f70a0823100000000000000000000000000000000000000000000000000000000815273ffffffffffffffffffffffffffffffffffffffff808316600483015292946000949390929185918416906370a0823190602401612747565b60008060006020840391508151905060008173ffffffffffffffffffffffffffffffffffffffff166318160ddd6040518163ffffffff1660e01b8152600401602060405180830381865afa158015612a20573d6000803e3d6000fd5b505050506040513d601f19601f8201168201806040525081019061217b9190614070565b7fffffffffffffffffffffffffffffffffffffffffffffffffffffffffffffffc0810180517fffffffffffffffffffffffffffffffffffffffffffffffffffffffffffffffe090920180516040517f6352211e00000000000000000000000000000000000000000000000000000000815260048101829052919360009392909190849073ffffffffffffffffffffffffffffffffffffffff841690636352211e90602401602060405180830381865afa158015612b05573d6000803e3d6000fd5b505050506040513d601f19601f82011682018060405250810190612b299190614089565b73ffffffffffffffffffffffffffffffffffffffff169093525092949350505050565b7fffffffffffffffffffffffffffffffffffffffffffffffffffffffffffffffa0810180517fffffffffffffffffffffffffffffffffffffffffffffffffffffffffffffffc0830180517fffffffffffffffffffffffffffffffffffffffffffffffffffffffffffffffe0909401516040517efdd58e00000000000000000000000000000000000000000000000000000000815273ffffffffffffffffffffffffffffffffffffffff80871660048301526024820183905292956000959493909291869185169062fdd58e90604401602060405180830381865afa158015612c38573d6000803e3d6000fd5b505050506040513d601f19601f82011682018060405250810190612c5c9190614070565b909452509395945050505050565b60008060008467ffffffffffffffff811115612c8857612c886137e7565b604051908082528060200260200182016040528015612cb1578160200160208202803683370190505b50905060008567ffffffffffffffff811115612ccf57612ccf6137e7565b604051908082528060200260200182016040528015612cf8578160200160208202803683370190505b506040870286037fffffffffffffffffffffffffffffffffffffffffffffffffffffffffffffffe081018051909550919250602080890282019085015b81831015612d4d578251815260209283019201612d35565b5050602088028101602084015b81831015612d72578251815260209283019201612d5a565b50506040517f4e1273f40000000000000000000000000000000000000000000000000000000081526000915073ffffffffffffffffffffffffffffffffffffffff831690634e1273f490612dcc90879087906004016140a6565b600060405180830381865afa158015612de9573d6000803e3d6000fd5b505050506040513d6000823e601f3d9081017fffffffffffffffffffffffffffffffffffffffffffffffffffffffffffffffe0168201604052612e2f9190810190614109565b9050846020820160208a0281015b80821015612e58578151835260209283019290910190612e3d565b50909998505050505050505050565b80516a636f6e736f6c652e6c6f67602083016000808483855afa5050505050565b6000808260121415612e9d578391505061059c565b8260121115612ec957506012829003612eb781600a614064565b612ec190856141af565b91505061059c565b507fffffffffffffffffffffffffffffffffffffffffffffffffffffffffffffffee8201612ef881600a614064565b612ec190856141ec565b5092915050565b6000670de0b6b3a7640000612f1e83856141af565b6105c191906141ec565b600081612f1e670de0b6b3a7640000856141af565b6000806012831415612f52578391505061059c565b8260121115612f6c57506012829003612ef881600a614064565b507fffffffffffffffffffffffffffffffffffffffffffffffffffffffffffffffee8201612eb781600a614064565b600081810b612fab57508161059c565b60008260000b1315612fd357612fc282600a614227565b612fcc90846141af565b905061059c565b60ff600083900316612ef881600a614064565b6000828201838110612ff8578061301a565b7fffffffffffffffffffffffffffffffffffffffffffffffffffffffffffffffff5b949350505050565b60008183116130325760006105c1565b50900390565b6000826130475750600061059c565b8282028284828161305a5761305a613e21565b041415612ff8578061301a565b60008060015b600881116130be5760006130818683613216565b9050600061308f8684613216565b9050600061309d8383613022565b90506130ad8560018603836132c3565b9450506001909201915061306d9050565b509392505050565b835160009081908190819060015b600881116132085760009250828761310d57507fffffffffffffffffffffffffffffffffffffffffffffffffffffffffffffffff613111565b5060005b60005b838110156131c65761313f8c828151811061313157613131613816565b602002602001015184613216565b95508a8611613191578861315e57613157868361334d565b9150613188565b6001891415613171576131578683613363565b60028914801561317f575084155b15613188578591505b600194506131be565b896131be577fffffffffffffffffffffffffffffffffffffffffffffffffffffffffffffffff91506131c6565b600101613114565b50836131ef57507fffffffffffffffffffffffffffffffffffffffffffffffffffffffffffffffff5b6131fd8660018403836132c3565b9550506001016130d4565b509298975050505050505050565b6000816008811115613284576040517f08c379a000000000000000000000000000000000000000000000000000000000815260206004820152600860248201527f4d41585f544945520000000000000000000000000000000000000000000000006044820152606401610672565b826132925760009150612f02565b50507fffffffffffffffffffffffffffffffffffffffffffffffffffffffffffffffff016020021c63ffffffff1690565b6000826008811115613331576040517f08c379a000000000000000000000000000000000000000000000000000000000815260206004820152600860248201527f4d41585f544945520000000000000000000000000000000000000000000000006044820152606401610672565b505060209190910290811b63ffffffff90911b19919091161790565b600081831061335c57816105c1565b5090919050565b60008183101561335c57816105c1565b82805461337f906136af565b90600052602060002090601f0160209004810192826133a157600085556133e7565b82601f106133ba57805160ff19168380011785556133e7565b828001600101855582156133e7579182015b828111156133e75782518255916020019190600101906133cc565b506133f39291506133f7565b5090565b5b808211156133f357600081556001016133f8565b60005b8381101561342757818101518382015260200161340f565b838111156111165750506000910152565b6000815180845261345081602086016020860161340c565b601f017fffffffffffffffffffffffffffffffffffffffffffffffffffffffffffffffe0169290920160200192915050565b6020815260006105c16020830184613438565b73ffffffffffffffffffffffffffffffffffffffff8116811461203f57600080fd5b600080604083850312156134ca57600080fd5b82356134d581613495565b946020939093013593505050565b6000806000606084860312156134f857600080fd5b833561350381613495565b9250602084013561351381613495565b929592945050506040919091013590565b60006020828403121561353657600080fd5b81356105c181613495565b60008083601f84011261355357600080fd5b50813567ffffffffffffffff81111561356b57600080fd5b60208301915083602082850101111561358357600080fd5b9250929050565b600080600080606085870312156135a057600080fd5b84356135ab81613495565b935060208501359250604085013567ffffffffffffffff8111156135ce57600080fd5b6135da87828801613541565b95989497509550505050565b6000602082840312156135f857600080fd5b813567ffffffffffffffff81111561360f57600080fd5b8201606081850312156105c157600080fd5b60008060006040848603121561363657600080fd5b833561364181613495565b9250602084013567ffffffffffffffff81111561365d57600080fd5b61366986828701613541565b9497909650939450505050565b6000806040838503121561368957600080fd5b823561369481613495565b915060208301356136a481613495565b809150509250929050565b600181811c908216806136c357607f821691505b60208210811415611615577f4e487b7100000000000000000000000000000000000000000000000000000000600052602260045260246000fd5b7f4e487b7100000000000000000000000000000000000000000000000000000000600052601160045260246000fd5b6000821982111561373f5761373f6136fd565b500190565b600082357fffffffffffffffffffffffffffffffffffffffffffffffffffffffffffffff8183360301811261377857600080fd5b9190910192915050565b60008083357fffffffffffffffffffffffffffffffffffffffffffffffffffffffffffffffe18436030181126137b757600080fd5b83018035915067ffffffffffffffff8211156137d257600080fd5b60200191503681900382131561358357600080fd5b7f4e487b7100000000000000000000000000000000000000000000000000000000600052604160045260246000fd5b7f4e487b7100000000000000000000000000000000000000000000000000000000600052603260045260246000fd5b600082357fffffffffffffffffffffffffffffffffffffffffffffffffffffffffffffffc183360301811261377857600080fd5b60008083357fffffffffffffffffffffffffffffffffffffffffffffffffffffffffffffffe18436030181126138ae57600080fd5b830160208101925035905067ffffffffffffffff8111156138ce57600080fd5b8060051b360383131561358357600080fd5b8183528181602085013750600060208284010152600060207fffffffffffffffffffffffffffffffffffffffffffffffffffffffffffffffe0601f840116840101905092915050565b81835260007f07ffffffffffffffffffffffffffffffffffffffffffffffffffffffffffffff83111561395b57600080fd5b8260051b8083602087013760009401602001938452509192915050565b600081518084526020808501945080840160005b838110156139e657815180518852838101518489015260408082015190890152606080820151908901526080808201519089015260a0808201519089015260c0908101519088015260e0909601959082019060010161398c565b509495945050505050565b73ffffffffffffffffffffffffffffffffffffffff841681526000602060608184015260a08301613a228687613879565b604060608701528281845260c08701905060c08260051b88010193508260005b83811015613aec577fffffffffffffffffffffffffffffffffffffffffffffffffffffffffffffff4089870301835281357fffffffffffffffffffffffffffffffffffffffffffffffffffffffffffffffe1863603018112613aa357600080fd5b8501803567ffffffffffffffff811115613abc57600080fd5b803603871315613acb57600080fd5b613ad888828b85016138e0565b975050509186019190860190600101613a42565b5050505050613afd82870187613879565b92507fffffffffffffffffffffffffffffffffffffffffffffffffffffffffffffffa0858303016080860152613b34828483613929565b925050508281036040840152613b4a8185613978565b9695505050505050565b604051601f82017fffffffffffffffffffffffffffffffffffffffffffffffffffffffffffffffe016810167ffffffffffffffff81118282101715613b9b57613b9b6137e7565b604052919050565b600060208284031215613bb557600080fd5b815167ffffffffffffffff80821115613bcd57600080fd5b818401915084601f830112613be157600080fd5b815181811115613bf357613bf36137e7565b613c2460207fffffffffffffffffffffffffffffffffffffffffffffffffffffffffffffffe0601f84011601613b54565b9150808252856020828501011115613c3b57600080fd5b611fa781602084016020860161340c565b600060208284031215613c5e57600080fd5b813580151581146105c157600080fd5b600073ffffffffffffffffffffffffffffffffffffffff808716835280861660208401525060606040830152613b4a6060830184866138e0565b600082821015613cba57613cba6136fd565b500390565b6000815260008251613cd881600185016020870161340c565b9190910160010192915050565b600081518084526020808501945080840160005b838110156139e657815187529582019590820190600101613cf9565b600060208083528351818401528084015160a06040850152613d3a60c0850182613ce5565b905060408501517fffffffffffffffffffffffffffffffffffffffffffffffffffffffffffffffe0808684030160608701528282518085528585019150858160051b860101868501945060005b82811015613db35784878303018452613da1828751613438565b95880195938801939150600101613d87565b5060608a01519650838982030160808a0152613dcf8188613ce5565b9650505050505050608084015160a08401528091505092915050565b815160009082906020808601845b83811015613e1557815185529382019390820190600101613df9565b50929695505050505050565b7f4e487b7100000000000000000000000000000000000000000000000000000000600052601260045260246000fd5b7f630000000000000000000000000000000000000000000000000000000000000081527fffffffff000000000000000000000000000000000000000000000000000000008360e01b1660018201527f80600e6000396000f30000000000000000000000000000000000000000000000600582015260008251613ed981600e85016020870161340c565b91909101600e019392505050565b82815260008251613eff81602085016020870161340c565b919091016020019392505050565b60008451613f1f81846020890161340c565b82018481528351613f3781602080850190880161340c565b0160200195945050505050565b600181815b80851115613f9d57817fffffffffffffffffffffffffffffffffffffffffffffffffffffffffffffffff04821115613f8357613f836136fd565b80851615613f9057918102915b93841c9390800290613f49565b509250929050565b600082613fb45750600161059c565b81613fc15750600061059c565b8160018114613fd75760028114613fe157613ffd565b600191505061059c565b60ff841115613ff257613ff26136fd565b50506001821b61059c565b5060208310610133831016604e8410600b8410161715614020575081810a61059c565b61402a8383613f44565b807fffffffffffffffffffffffffffffffffffffffffffffffffffffffffffffffff0482111561405c5761405c6136fd565b029392505050565b60006105c18383613fa5565b60006020828403121561408257600080fd5b5051919050565b60006020828403121561409b57600080fd5b81516105c181613495565b604080825283519082018190526000906020906060840190828701845b828110156140f557815173ffffffffffffffffffffffffffffffffffffffff16845292840192908401906001016140c3565b50505083810382850152613b4a8186613ce5565b6000602080838503121561411c57600080fd5b825167ffffffffffffffff8082111561413457600080fd5b818501915085601f83011261414857600080fd5b81518181111561415a5761415a6137e7565b8060051b915061416b848301613b54565b818152918301840191848101908884111561418557600080fd5b938501935b838510156141a35784518252938501939085019061418a565b98975050505050505050565b6000817fffffffffffffffffffffffffffffffffffffffffffffffffffffffffffffffff04831182151516156141e7576141e76136fd565b500290565b600082614222577f4e487b7100000000000000000000000000000000000000000000000000000000600052601260045260246000fd5b500490565b60006105c160ff841683613fa556fea264697066735822122098f6a9565a88306d0e5eeaceb4a87166abbfe838c2838f206600a58f53fe6f7064736f6c634300080a0033",
  "linkReferences": {},
  "deployedLinkReferences": {}
}