{
  "_format": "hh-sol-artifact-1",
  "contractName": "VerifyFactory",
  "sourceName": "contracts/verify/VerifyFactory.sol",
  "abi": [
    {
      "inputs": [],
      "stateMutability": "nonpayable",
      "type": "constructor"
    },
    {
      "anonymous": false,
      "inputs": [
        {
          "indexed": false,
          "internalType": "address",
          "name": "sender",
          "type": "address"
        },
        {
          "indexed": false,
          "internalType": "address",
          "name": "implementation",
          "type": "address"
        }
      ],
      "name": "Implementation",
      "type": "event"
    },
    {
      "anonymous": false,
      "inputs": [
        {
          "indexed": false,
          "internalType": "address",
          "name": "sender",
          "type": "address"
        },
        {
          "indexed": false,
          "internalType": "address",
          "name": "child",
          "type": "address"
        }
      ],
      "name": "NewChild",
      "type": "event"
    },
    {
      "inputs": [
        {
          "internalType": "bytes",
          "name": "data_",
          "type": "bytes"
        }
      ],
      "name": "createChild",
      "outputs": [
        {
          "internalType": "address",
          "name": "",
          "type": "address"
        }
      ],
      "stateMutability": "nonpayable",
      "type": "function"
    },
    {
      "inputs": [
        {
          "components": [
            {
              "internalType": "address",
              "name": "admin",
              "type": "address"
            },
            {
              "internalType": "address",
              "name": "callback",
              "type": "address"
            }
          ],
          "internalType": "struct VerifyConfig",
          "name": "config_",
          "type": "tuple"
        }
      ],
      "name": "createChildTyped",
      "outputs": [
        {
          "internalType": "contract Verify",
          "name": "",
          "type": "address"
        }
      ],
      "stateMutability": "nonpayable",
      "type": "function"
    },
    {
      "inputs": [],
      "name": "implementation",
      "outputs": [
        {
          "internalType": "address",
          "name": "",
          "type": "address"
        }
      ],
      "stateMutability": "view",
      "type": "function"
    },
    {
      "inputs": [
        {
          "internalType": "address",
          "name": "maybeChild_",
          "type": "address"
        }
      ],
      "name": "isChild",
      "outputs": [
        {
          "internalType": "bool",
          "name": "",
          "type": "bool"
        }
      ],
      "stateMutability": "view",
      "type": "function"
    }
  ],
  "bytecode": "0x60a060405234801561001057600080fd5b506001600090815560405161002490610096565b604051809103906000f080158015610040573d6000803e3d6000fd5b50604080513381526001600160a01b03831660208201529192507f7fac34ecf0b1b374cd9659e3d17db602659d53f1162b1f20142e6c02694aed70910160405180910390a16001600160a01b03166080526100a3565b6128d38061084783390190565b6080516107836100c4600039600081816093015261037a01526107836000f3fe608060405234801561001057600080fd5b506004361061004c5760003560e01c80632ea72a49146100515780635c60da1b1461008e5780638ce7fcc8146100b5578063fc91a897146100c8575b600080fd5b61006461005f36600461051c565b610111565b60405173ffffffffffffffffffffffffffffffffffffffff90911681526020015b60405180910390f35b6100647f000000000000000000000000000000000000000000000000000000000000000081565b6100646100c336600461058e565b6102bf565b6101016100d63660046105cb565b73ffffffffffffffffffffffffffffffffffffffff1660009081526001602052604090205460ff1690565b6040519015158152602001610085565b600060026000541415610185576040517f08c379a000000000000000000000000000000000000000000000000000000000815260206004820152601f60248201527f5265656e7472616e637947756172643a207265656e7472616e742063616c6c0060448201526064015b60405180910390fd5b600260009081556101968484610362565b73ffffffffffffffffffffffffffffffffffffffff811660009081526001602052604090205490915060ff1615610229576040517f08c379a000000000000000000000000000000000000000000000000000000000815260206004820152600f60248201527f4455504c49434154455f4348494c440000000000000000000000000000000000604482015260640161017c565b73ffffffffffffffffffffffffffffffffffffffff811660008181526001602081815260409283902080547fffffffffffffffffffffffffffffffffffffffffffffffffffffffffffffff00169092179091558151338152908101929092527f7da70c4e5387d7038610b79ca7d304caaef815826e51e67cf247135387a79bce910160405180910390a160016000559392505050565b60003073ffffffffffffffffffffffffffffffffffffffff16632ea72a49836040516020016102ee91906105ef565b6040516020818303038152906040526040518263ffffffff1660e01b81526004016103199190610637565b6020604051808303816000875af1158015610338573d6000803e3d6000fd5b505050506040513d601f19601f8201168201806040525081019061035c91906106aa565b92915050565b600080610371838501856106c7565b9050600061039e7f000000000000000000000000000000000000000000000000000000000000000061043a565b6040517fb6a597dd000000000000000000000000000000000000000000000000000000008152835173ffffffffffffffffffffffffffffffffffffffff90811660048301526020850151811660248301529192509082169063b6a597dd90604401600060405180830381600087803b15801561041957600080fd5b505af115801561042d573d6000803e3d6000fd5b5092979650505050505050565b60006040517f3d602d80600a3d3981f3363d3d373d3d3d363d7300000000000000000000000081528260601b60148201527f5af43d82803e903d91602b57fd5bf3000000000000000000000000000000000060288201526037816000f091505073ffffffffffffffffffffffffffffffffffffffff8116610517576040517f08c379a000000000000000000000000000000000000000000000000000000000815260206004820152601660248201527f455243313136373a20637265617465206661696c656400000000000000000000604482015260640161017c565b919050565b6000806020838503121561052f57600080fd5b823567ffffffffffffffff8082111561054757600080fd5b818501915085601f83011261055b57600080fd5b81358181111561056a57600080fd5b86602082850101111561057c57600080fd5b60209290920196919550909350505050565b6000604082840312156105a057600080fd5b50919050565b73ffffffffffffffffffffffffffffffffffffffff811681146105c857600080fd5b50565b6000602082840312156105dd57600080fd5b81356105e8816105a6565b9392505050565b6040810182356105fe816105a6565b73ffffffffffffffffffffffffffffffffffffffff9081168352602084013590610627826105a6565b8082166020850152505092915050565b600060208083528351808285015260005b8181101561066457858101830151858201604001528201610648565b81811115610676576000604083870101525b50601f017fffffffffffffffffffffffffffffffffffffffffffffffffffffffffffffffe016929092016040019392505050565b6000602082840312156106bc57600080fd5b81516105e8816105a6565b6000604082840312156106d957600080fd5b6040516040810181811067ffffffffffffffff82111715610723577f4e487b7100000000000000000000000000000000000000000000000000000000600052604160045260246000fd5b6040528235610731816105a6565b81526020830135610741816105a6565b6020820152939250505056fea2646970667358221220d4d8d2bdb91d3a546df070ec99b630c665674ce9de31b69307c2717cb01dedb564736f6c634300080a00336080604052600380546001600160a01b031916905534801561002057600080fd5b506128a3806100306000396000f3fe608060405234801561001057600080fd5b50600436106101985760003560e01c80637c7d7f7a116100e3578063b8c55bfa1161008c578063d547741f11610066578063d547741f146104d3578063e04dcf3d146104e6578063e2fac37c146104f957600080fd5b8063b8c55bfa14610486578063ba658111146104ad578063cd491526146104c057600080fd5b80639f839222116100bd5780639f83922214610458578063a217fddf1461046b578063b6a597dd1461047357600080fd5b80637c7d7f7a146103da57806381792e44146103ed57806391d148541461041457600080fd5b806331e658a51161014557806342c8a14d1161011f57806342c8a14d1461038d5780635df0675a146103a05780637547a867146103b357600080fd5b806331e658a51461029e57806336568abe146103535780633d111c7e1461036657600080fd5b80631e210912116101765780631e2109121461023f578063248a9ca3146102665780632f2ff15d1461028957600080fd5b806301ffc9a71461019d578063083b2732146101c5578063100ec9981461020a575b600080fd5b6101b06101ab3660046120ef565b61050c565b60405190151581526020015b60405180910390f35b6003546101e59073ffffffffffffffffffffffffffffffffffffffff1681565b60405173ffffffffffffffffffffffffffffffffffffffff90911681526020016101bc565b6102317f9d65f741849e7609dd1e2c70f0d7da5f5433b36bfcf3ba4d27d2bb08ad2155b181565b6040519081526020016101bc565b6102317f2d4d1d70bd81797c3479f5c3f873a5c9203d249659c3b317cdad46367472783c81565b610231610274366004612131565b60009081526020819052604090206001015490565b61029c61029736600461216e565b6105a5565b005b6103246102ac36600461219a565b60408051606080820183526000808352602080840182905292840181905273ffffffffffffffffffffffffffffffffffffffff9490941684526002825292829020825193840183525463ffffffff80821685526401000000008204811692850192909252680100000000000000009004169082015290565b60408051825163ffffffff908116825260208085015182169083015292820151909216908201526060016101bc565b61029c61036136600461216e565b6105cf565b6102317f5ff1fb0ce9089603e6e193667ed17164e0360a6148f4a39fc194055588948a3181565b61023161039b3660046121f8565b610687565b61029c6103ae3660046122a3565b6106f5565b6102317f794e4221ebb6dd4e460d558b4ec709511d44017d6610ba89daa896c0684ddfac81565b61029c6103e83660046122a3565b61082e565b6102317fbb496ca6fee71a17f78592fbc6fc7f04a436edb9c709c4289d6bbfbc5fd45f4d81565b6101b061042236600461216e565b60009182526020828152604080842073ffffffffffffffffffffffffffffffffffffffff93909316845291905290205460ff1690565b61029c6104663660046122a3565b610b90565b610231600081565b61029c610481366004612318565b610e24565b6102317f5a686c9d070917be517818979fb56f451f007e3ae83e96fb5a22a304929b070d81565b61029c6104bb366004612330565b6111da565b61029c6104ce3660046122a3565b61148c565b61029c6104e136600461216e565b6117b4565b61029c6104f43660046122a3565b6117d9565b61029c6105073660046122a3565b611912565b60007fffffffff0000000000000000000000000000000000000000000000000000000082167f7965db0b00000000000000000000000000000000000000000000000000000000148061059f57507f01ffc9a7000000000000000000000000000000000000000000000000000000007fffffffff000000000000000000000000000000000000000000000000000000008316145b92915050565b6000828152602081905260409020600101546105c081611a4b565b6105ca8383611a58565b505050565b73ffffffffffffffffffffffffffffffffffffffff81163314610679576040517f08c379a000000000000000000000000000000000000000000000000000000000815260206004820152602f60248201527f416363657373436f6e74726f6c3a2063616e206f6e6c792072656e6f756e636560448201527f20726f6c657320666f722073656c66000000000000000000000000000000000060648201526084015b60405180910390fd5b6106838282611b48565b5050565b60006001836000015163ffffffff1610156106a45750600061059f565b81836040015163ffffffff16116106bd5750600361059f565b81836020015163ffffffff16116106d65750600261059f565b825163ffffffff1682106106ec5750600161059f565b50600092915050565b336000908152600260208181526040928390208351606081018552905463ffffffff80821683526401000000008204811693830193909352680100000000000000009004909116928101929092529061074e9043610687565b146107b5576040517f08c379a000000000000000000000000000000000000000000000000000000000815260206004820152600d60248201527f4f4e4c595f415050524f564544000000000000000000000000000000000000006044820152606401610670565b60005b818110156105ca577f9def0eb63e24d052c362c931f2ab4c31eda642472ddc393a44484906f374ba4d338484848181106107f4576107f4612390565b905060200281019061080691906123bf565b6040516108149291906124d2565b60405180910390a18061082681612538565b9150506107b8565b7f5ff1fb0ce9089603e6e193667ed17164e0360a6148f4a39fc194055588948a3161085881611a4b565b6040805160608101825260008082526020820181905291810182905260005b84811015610add576002600087878481811061089557610895612390565b90506020028101906108a791906123bf565b6108b590602081019061219a565b73ffffffffffffffffffffffffffffffffffffffff16815260208082019290925260409081016000208151606081018352905463ffffffff808216808452640100000000830482169584019590955268010000000000000000909104169181019190915292506001111561096157604080516060808201835260008083526020808401829052928401528251908101835263ffffffff4381168252918101829052918201529150600192505b602082015163ffffffff90811614156109855763ffffffff43166020830152600192505b8215610a6f5781600260008888858181106109a2576109a2612390565b90506020028101906109b491906123bf565b6109c290602081019061219a565b73ffffffffffffffffffffffffffffffffffffffff168152602080820192909252604090810160009081208451815494860151959093015163ffffffff90811668010000000000000000027fffffffffffffffffffffffffffffffffffffffff00000000ffffffffffffffff968216640100000000027fffffffffffffffffffffffffffffffffffffffffffffffff00000000000000009096169190941617939093179390931617905592505b7fd140ad1540fe1b6d943b0509d447b34e0719ff7f9c6175d26a870abc89c9304f33878784818110610aa357610aa3612390565b9050602002810190610ab591906123bf565b604051610ac39291906124d2565b60405180910390a180610ad581612538565b915050610877565b5060035473ffffffffffffffffffffffffffffffffffffffff1615610b89576003546040517f376dcbe200000000000000000000000000000000000000000000000000000000815273ffffffffffffffffffffffffffffffffffffffff9091169063376dcbe290610b5690339089908990600401612571565b600060405180830381600087803b158015610b7057600080fd5b505af1158015610b84573d6000803e3d6000fd5b505050505b5050505050565b7f794e4221ebb6dd4e460d558b4ec709511d44017d6610ba89daa896c0684ddfac610bba81611a4b565b60408051606081018252600080825260208201819052918101829052905b83811015610d725760026000868684818110610bf657610bf6612390565b9050602002810190610c0891906123bf565b610c1690602081019061219a565b73ffffffffffffffffffffffffffffffffffffffff16815260208082019290925260409081016000208151606081018352905463ffffffff8082168084526401000000008304821695840195909552680100000000000000009091041691810191909152925015610d045760026000868684818110610c9757610c97612390565b9050602002810190610ca991906123bf565b610cb790602081019061219a565b73ffffffffffffffffffffffffffffffffffffffff168152602081019190915260400160002080547fffffffffffffffffffffffffffffffffffffffff0000000000000000000000001690555b7fb6a0d4e5532c50d585db7a2aeb6d4628467d3c969d491458bb46c3dba33c46da33868684818110610d3857610d38612390565b9050602002810190610d4a91906123bf565b604051610d589291906124d2565b60405180910390a180610d6a81612538565b915050610bd8565b5060035473ffffffffffffffffffffffffffffffffffffffff1615610e1e576003546040517febae2d8c00000000000000000000000000000000000000000000000000000000815273ffffffffffffffffffffffffffffffffffffffff9091169063ebae2d8c90610deb90339088908890600401612571565b600060405180830381600087803b158015610e0557600080fd5b505af1158015610e19573d6000803e3d6000fd5b505050505b50505050565b6000610e306001611bff565b90508015610e6557600180547fffffffffffffffffffffffffffffffffffffffffffffffffffffffffffff00ff166101001790555b6000610e74602084018461219a565b73ffffffffffffffffffffffffffffffffffffffff161415610ef2576040517f08c379a000000000000000000000000000000000000000000000000000000000815260206004820152600960248201527f305f4143434f554e5400000000000000000000000000000000000000000000006044820152606401610670565b610f1c7f2d4d1d70bd81797c3479f5c3f873a5c9203d249659c3b317cdad46367472783c80611d8a565b610f667f5ff1fb0ce9089603e6e193667ed17164e0360a6148f4a39fc194055588948a317f2d4d1d70bd81797c3479f5c3f873a5c9203d249659c3b317cdad46367472783c611d8a565b610f907f9d65f741849e7609dd1e2c70f0d7da5f5433b36bfcf3ba4d27d2bb08ad2155b180611d8a565b610fda7f794e4221ebb6dd4e460d558b4ec709511d44017d6610ba89daa896c0684ddfac7f9d65f741849e7609dd1e2c70f0d7da5f5433b36bfcf3ba4d27d2bb08ad2155b1611d8a565b6110047fbb496ca6fee71a17f78592fbc6fc7f04a436edb9c709c4289d6bbfbc5fd45f4d80611d8a565b61104e7f5a686c9d070917be517818979fb56f451f007e3ae83e96fb5a22a304929b070d7fbb496ca6fee71a17f78592fbc6fc7f04a436edb9c709c4289d6bbfbc5fd45f4d611d8a565b6110847f2d4d1d70bd81797c3479f5c3f873a5c9203d249659c3b317cdad46367472783c61107f602085018561219a565b611a58565b6110b57f9d65f741849e7609dd1e2c70f0d7da5f5433b36bfcf3ba4d27d2bb08ad2155b161107f602085018561219a565b6110e67fbb496ca6fee71a17f78592fbc6fc7f04a436edb9c709c4289d6bbfbc5fd45f4d61107f602085018561219a565b6110f6604083016020840161219a565b600380547fffffffffffffffffffffffff00000000000000000000000000000000000000001673ffffffffffffffffffffffffffffffffffffffff929092169190911790556040517fed00b297c1b136ccaa940038371e3751cf8ca3c2bd51002f9bc4a4ad908441d09061116d9033908590612640565b60405180910390a1801561068357600180547fffffffffffffffffffffffffffffffffffffffffffffffffffffffffffff00ff1681556040519081527f7f26b83ff96e1f2b6a682f133852f6798a09c465da95921460cefb38474024989060200160405180910390a15050565b3360009081526002602090815260408083208151606081018352905463ffffffff80821683526401000000008204811694830194909452680100000000000000009004909216908201529061122f8243610687565b905060028114158015611243575060038114155b6112a9576040517f08c379a000000000000000000000000000000000000000000000000000000000815260206004820152600e60248201527f414c52454144595f4558495354530000000000000000000000000000000000006044820152606401610670565b8061137857604080516060808201835260008083526020808401829052928401528251908101835263ffffffff438116825291810182905291820152336000908152600260209081526040918290208351815492850151949093015163ffffffff90811668010000000000000000027fffffffffffffffffffffffffffffffffffffffff00000000ffffffffffffffff958216640100000000027fffffffffffffffffffffffffffffffffffffffffffffffff0000000000000000909416919094161791909117929092161790555b600060405180604001604052803373ffffffffffffffffffffffffffffffffffffffff16815260200186868080601f01602080910402602001604051908101604052809392919081815260200183838082843760009201919091525050509152506040519091507f9def0eb63e24d052c362c931f2ab4c31eda642472ddc393a44484906f374ba4d9061140e9033908490612700565b60405180910390a160035473ffffffffffffffffffffffffffffffffffffffff1615610b89576003546040517f08fac8e300000000000000000000000000000000000000000000000000000000815273ffffffffffffffffffffffffffffffffffffffff909116906308fac8e390610b569033908590600401612700565b7f5a686c9d070917be517818979fb56f451f007e3ae83e96fb5a22a304929b070d6114b681611a4b565b6040805160608101825260008082526020820181905291810182905260005b8481101561173b57600260008787848181106114f3576114f3612390565b905060200281019061150591906123bf565b61151390602081019061219a565b73ffffffffffffffffffffffffffffffffffffffff16815260208082019290925260409081016000208151606081018352905463ffffffff80821680845264010000000083048216958401959095526801000000000000000090910416918101919091529250600111156115bf57604080516060808201835260008083526020808401829052928401528251908101835263ffffffff4381168252918101829052918201529150600192505b604082015163ffffffff90811614156115e35763ffffffff43166040830152600192505b82156116cd57816002600088888581811061160057611600612390565b905060200281019061161291906123bf565b61162090602081019061219a565b73ffffffffffffffffffffffffffffffffffffffff168152602080820192909252604090810160009081208451815494860151959093015163ffffffff90811668010000000000000000027fffffffffffffffffffffffffffffffffffffffff00000000ffffffffffffffff968216640100000000027fffffffffffffffffffffffffffffffffffffffffffffffff00000000000000009096169190941617939093179390931617905592505b7f56ed5bd6a5ed51ea9976f064fa4b26035c05a8d1ef4f4cd92454befc5090e9d23387878481811061170157611701612390565b905060200281019061171391906123bf565b6040516117219291906124d2565b60405180910390a18061173381612538565b9150506114d5565b5060035473ffffffffffffffffffffffffffffffffffffffff1615610b89576003546040517f8f6b114600000000000000000000000000000000000000000000000000000000815273ffffffffffffffffffffffffffffffffffffffff90911690638f6b114690610b5690339089908990600401612571565b6000828152602081905260409020600101546117cf81611a4b565b6105ca8383611b48565b336000908152600260208181526040928390208351606081018552905463ffffffff8082168352640100000000820481169383019390935268010000000000000000900490911692810192909252906118329043610687565b14611899576040517f08c379a000000000000000000000000000000000000000000000000000000000815260206004820152600d60248201527f4f4e4c595f415050524f564544000000000000000000000000000000000000006044820152606401610670565b60005b818110156105ca577f9d48392ffd5df4ad821c86aa1f446e2b39cfecb6acd84a5b1dd41e3b4c1defce338484848181106118d8576118d8612390565b90506020028101906118ea91906123bf565b6040516118f89291906124d2565b60405180910390a18061190a81612538565b91505061189c565b336000908152600260208181526040928390208351606081018552905463ffffffff80821683526401000000008204811693830193909352680100000000000000009004909116928101929092529061196b9043610687565b146119d2576040517f08c379a000000000000000000000000000000000000000000000000000000000815260206004820152600d60248201527f4f4e4c595f415050524f564544000000000000000000000000000000000000006044820152606401610670565b60005b818110156105ca577f1b7bdec72dbe138bce2074865e8cf0347693327c317e9c1fdfe914001d48b5d133848484818110611a1157611a11612390565b9050602002810190611a2391906123bf565b604051611a319291906124d2565b60405180910390a180611a4381612538565b9150506119d5565b611a558133611dd5565b50565b60008281526020818152604080832073ffffffffffffffffffffffffffffffffffffffff8516845290915290205460ff166106835760008281526020818152604080832073ffffffffffffffffffffffffffffffffffffffff85168452909152902080547fffffffffffffffffffffffffffffffffffffffffffffffffffffffffffffff00166001179055611aea3390565b73ffffffffffffffffffffffffffffffffffffffff168173ffffffffffffffffffffffffffffffffffffffff16837f2f8788117e7eff1d82e926ec794901d17c78024a50270940304540a733656f0d60405160405180910390a45050565b60008281526020818152604080832073ffffffffffffffffffffffffffffffffffffffff8516845290915290205460ff16156106835760008281526020818152604080832073ffffffffffffffffffffffffffffffffffffffff8516808552925280832080547fffffffffffffffffffffffffffffffffffffffffffffffffffffffffffffff0016905551339285917ff6391f5c32d9c69d2a47ea670b442974b53935d1edc7fd64eb21e047a839171b9190a45050565b600154600090610100900460ff1615611cb8578160ff166001148015611c245750303b155b611cb0576040517f08c379a000000000000000000000000000000000000000000000000000000000815260206004820152602e60248201527f496e697469616c697a61626c653a20636f6e747261637420697320616c72656160448201527f647920696e697469616c697a65640000000000000000000000000000000000006064820152608401610670565b506000919050565b60015460ff808416911610611d4f576040517f08c379a000000000000000000000000000000000000000000000000000000000815260206004820152602e60248201527f496e697469616c697a61626c653a20636f6e747261637420697320616c72656160448201527f647920696e697469616c697a65640000000000000000000000000000000000006064820152608401610670565b50600180547fffffffffffffffffffffffffffffffffffffffffffffffffffffffffffffff001660ff9290921691909117815590565b919050565b600082815260208190526040808220600101805490849055905190918391839186917fbd79b86ffe0ab8e8776151514217cd7cacd52c909f66475c3af44e129f0b00ff9190a4505050565b60008281526020818152604080832073ffffffffffffffffffffffffffffffffffffffff8516845290915290205460ff1661068357611e2b8173ffffffffffffffffffffffffffffffffffffffff166014611ea5565b611e36836020611ea5565b604051602001611e4792919061274f565b604080517fffffffffffffffffffffffffffffffffffffffffffffffffffffffffffffffe0818403018152908290527f08c379a0000000000000000000000000000000000000000000000000000000008252610670916004016127d0565b60606000611eb48360026127e3565b611ebf906002612820565b67ffffffffffffffff811115611ed757611ed76121b5565b6040519080825280601f01601f191660200182016040528015611f01576020820181803683370190505b5090507f300000000000000000000000000000000000000000000000000000000000000081600081518110611f3857611f38612390565b60200101907effffffffffffffffffffffffffffffffffffffffffffffffffffffffffffff1916908160001a9053507f780000000000000000000000000000000000000000000000000000000000000081600181518110611f9b57611f9b612390565b60200101907effffffffffffffffffffffffffffffffffffffffffffffffffffffffffffff1916908160001a9053506000611fd78460026127e3565b611fe2906001612820565b90505b600181111561207f577f303132333435363738396162636465660000000000000000000000000000000085600f166010811061202357612023612390565b1a60f81b82828151811061203957612039612390565b60200101907effffffffffffffffffffffffffffffffffffffffffffffffffffffffffffff1916908160001a90535060049490941c9361207881612838565b9050611fe5565b5083156120e8576040517f08c379a000000000000000000000000000000000000000000000000000000000815260206004820181905260248201527f537472696e67733a20686578206c656e67746820696e73756666696369656e746044820152606401610670565b9392505050565b60006020828403121561210157600080fd5b81357fffffffff00000000000000000000000000000000000000000000000000000000811681146120e857600080fd5b60006020828403121561214357600080fd5b5035919050565b803573ffffffffffffffffffffffffffffffffffffffff81168114611d8557600080fd5b6000806040838503121561218157600080fd5b823591506121916020840161214a565b90509250929050565b6000602082840312156121ac57600080fd5b6120e88261214a565b7f4e487b7100000000000000000000000000000000000000000000000000000000600052604160045260246000fd5b803563ffffffff81168114611d8557600080fd5b600080828403608081121561220c57600080fd5b606081121561221a57600080fd5b506040516060810181811067ffffffffffffffff82111715612265577f4e487b7100000000000000000000000000000000000000000000000000000000600052604160045260246000fd5b604052612271846121e4565b815261227f602085016121e4565b6020820152612290604085016121e4565b6040820152946060939093013593505050565b600080602083850312156122b657600080fd5b823567ffffffffffffffff808211156122ce57600080fd5b818501915085601f8301126122e257600080fd5b8135818111156122f157600080fd5b8660208260051b850101111561230657600080fd5b60209290920196919550909350505050565b60006040828403121561232a57600080fd5b50919050565b6000806020838503121561234357600080fd5b823567ffffffffffffffff8082111561235b57600080fd5b818501915085601f83011261236f57600080fd5b81358181111561237e57600080fd5b86602082850101111561230657600080fd5b7f4e487b7100000000000000000000000000000000000000000000000000000000600052603260045260246000fd5b600082357fffffffffffffffffffffffffffffffffffffffffffffffffffffffffffffffc18336030181126123f357600080fd5b9190910192915050565b73ffffffffffffffffffffffffffffffffffffffff61241b8261214a565b168252600060208201357fffffffffffffffffffffffffffffffffffffffffffffffffffffffffffffffe183360301811261245557600080fd5b8201803567ffffffffffffffff81111561246e57600080fd5b80360384131561247d57600080fd5b604060208601528060408601528060208301606087013760006060828701015260607fffffffffffffffffffffffffffffffffffffffffffffffffffffffffffffffe0601f8301168601019250505092915050565b73ffffffffffffffffffffffffffffffffffffffff8316815260406020820152600061250160408301846123fd565b949350505050565b7f4e487b7100000000000000000000000000000000000000000000000000000000600052601160045260246000fd5b60007fffffffffffffffffffffffffffffffffffffffffffffffffffffffffffffffff82141561256a5761256a612509565b5060010190565b60006040820173ffffffffffffffffffffffffffffffffffffffff8616835260206040818501528185835260608501905060608660051b8601019250866000805b88811015612631577fffffffffffffffffffffffffffffffffffffffffffffffffffffffffffffffa088870301845282357fffffffffffffffffffffffffffffffffffffffffffffffffffffffffffffffc18b3603018112612612578283fd5b61261e878c83016123fd565b96505092840192918401916001016125b2565b50939998505050505050505050565b73ffffffffffffffffffffffffffffffffffffffff83811682526060820190806126698561214a565b1660208401528061267c6020860161214a565b166040840152509392505050565b60005b838110156126a557818101518382015260200161268d565b83811115610e1e5750506000910152565b600081518084526126ce81602086016020860161268a565b601f017fffffffffffffffffffffffffffffffffffffffffffffffffffffffffffffffe0169290920160200192915050565b600073ffffffffffffffffffffffffffffffffffffffff8085168352604060208401528084511660408401525060208301516040606084015261274660808401826126b6565b95945050505050565b7f416363657373436f6e74726f6c3a206163636f756e742000000000000000000081526000835161278781601785016020880161268a565b7f206973206d697373696e6720726f6c652000000000000000000000000000000060179184019182015283516127c481602884016020880161268a565b01602801949350505050565b6020815260006120e860208301846126b6565b6000817fffffffffffffffffffffffffffffffffffffffffffffffffffffffffffffffff048311821515161561281b5761281b612509565b500290565b6000821982111561283357612833612509565b500190565b60008161284757612847612509565b507fffffffffffffffffffffffffffffffffffffffffffffffffffffffffffffffff019056fea26469706673582212207b57e3e080591d1b7ea86dd1b103d8b75e90178b024668033afd2ee81e81f30f64736f6c634300080a0033",
  "linkReferences": {},
  "deployedLinkReferences": {}
}