{
  "_format": "hh-sol-artifact-1",
  "contractName": "VerifyFactory",
  "sourceName": "contracts/verify/VerifyFactory.sol",
  "abi": [
    {
      "inputs": [],
      "stateMutability": "nonpayable",
      "type": "constructor"
    },
    {
      "anonymous": false,
      "inputs": [
        {
          "indexed": false,
          "internalType": "address",
          "name": "sender",
          "type": "address"
        },
        {
          "indexed": false,
          "internalType": "address",
          "name": "implementation",
          "type": "address"
        }
      ],
      "name": "Implementation",
      "type": "event"
    },
    {
      "anonymous": false,
      "inputs": [
        {
          "indexed": false,
          "internalType": "address",
          "name": "sender",
          "type": "address"
        },
        {
          "indexed": false,
          "internalType": "address",
          "name": "child",
          "type": "address"
        }
      ],
      "name": "NewChild",
      "type": "event"
    },
    {
      "inputs": [
        {
          "internalType": "bytes",
          "name": "data_",
          "type": "bytes"
        }
      ],
      "name": "createChild",
      "outputs": [
        {
          "internalType": "address",
          "name": "",
          "type": "address"
        }
      ],
      "stateMutability": "nonpayable",
      "type": "function"
    },
    {
      "inputs": [
        {
          "internalType": "address",
          "name": "admin_",
          "type": "address"
        }
      ],
      "name": "createChildTyped",
      "outputs": [
        {
          "internalType": "contract Verify",
          "name": "",
          "type": "address"
        }
      ],
      "stateMutability": "nonpayable",
      "type": "function"
    },
    {
      "inputs": [
        {
          "internalType": "address",
          "name": "maybeChild_",
          "type": "address"
        }
      ],
      "name": "isChild",
      "outputs": [
        {
          "internalType": "bool",
          "name": "",
          "type": "bool"
        }
      ],
      "stateMutability": "view",
      "type": "function"
    }
  ],
  "bytecode": "0x60a060405234801561001057600080fd5b506001600090815560405161002490610096565b604051809103906000f080158015610040573d6000803e3d6000fd5b50604080513381526001600160a01b03831660208201529192507f7fac34ecf0b1b374cd9659e3d17db602659d53f1162b1f20142e6c02694aed70910160405180910390a16001600160a01b03166080526100a3565b6120168061068883390190565b6080516105ca6100be60003960006102b501526105ca6000f3fe608060405234801561001057600080fd5b50600436106100415760003560e01c80632ea72a4914610046578063b536745114610083578063fc91a89714610096575b600080fd5b610059610054366004610449565b6100df565b60405173ffffffffffffffffffffffffffffffffffffffff90911681526020015b60405180910390f35b6100596100913660046104e0565b6101fd565b6100cf6100a43660046104e0565b73ffffffffffffffffffffffffffffffffffffffff1660009081526001602052604090205460ff1690565b604051901515815260200161007a565b600060026000541415610153576040517f08c379a000000000000000000000000000000000000000000000000000000000815260206004820152601f60248201527f5265656e7472616e637947756172643a207265656e7472616e742063616c6c0060448201526064015b60405180910390fd5b60026000908155610164848461029d565b73ffffffffffffffffffffffffffffffffffffffff811660008181526001602081815260409283902080547fffffffffffffffffffffffffffffffffffffffffffffffffffffffffffffff00169092179091558151338152908101929092529192507f7da70c4e5387d7038610b79ca7d304caaef815826e51e67cf247135387a79bce910160405180910390a160016000559392505050565b6040805173ffffffffffffffffffffffffffffffffffffffff831660208201526000913091632ea72a4991016040516020818303038152906040526040518263ffffffff1660e01b81526004016102549190610504565b6020604051808303816000875af1158015610273573d6000803e3d6000fd5b505050506040513d601f19601f820116820180604052508101906102979190610577565b92915050565b6000806102ac838501856104e0565b905060006102d97f0000000000000000000000000000000000000000000000000000000000000000610367565b6040517fc4d66de800000000000000000000000000000000000000000000000000000000815273ffffffffffffffffffffffffffffffffffffffff84811660048301529192509082169063c4d66de890602401600060405180830381600087803b15801561034657600080fd5b505af115801561035a573d6000803e3d6000fd5b5092979650505050505050565b60006040517f3d602d80600a3d3981f3363d3d373d3d3d363d7300000000000000000000000081528260601b60148201527f5af43d82803e903d91602b57fd5bf3000000000000000000000000000000000060288201526037816000f091505073ffffffffffffffffffffffffffffffffffffffff8116610444576040517f08c379a000000000000000000000000000000000000000000000000000000000815260206004820152601660248201527f455243313136373a20637265617465206661696c656400000000000000000000604482015260640161014a565b919050565b6000806020838503121561045c57600080fd5b823567ffffffffffffffff8082111561047457600080fd5b818501915085601f83011261048857600080fd5b81358181111561049757600080fd5b8660208285010111156104a957600080fd5b60209290920196919550909350505050565b73ffffffffffffffffffffffffffffffffffffffff811681146104dd57600080fd5b50565b6000602082840312156104f257600080fd5b81356104fd816104bb565b9392505050565b600060208083528351808285015260005b8181101561053157858101830151858201604001528201610515565b81811115610543576000604083870101525b50601f017fffffffffffffffffffffffffffffffffffffffffffffffffffffffffffffffe016929092016040019392505050565b60006020828403121561058957600080fd5b81516104fd816104bb56fea2646970667358221220432aa2c8c1488feaa6ac4c21e9e7472e543c772f4b0bce9741994c1867ee51ea64736f6c634300080a0033608060405234801561001057600080fd5b50611ff6806100206000396000f3fe608060405234801561001057600080fd5b50600436106101825760003560e01c806349200777116100d8578063a217fddf1161008c578063c4d66de811610066578063c4d66de814610465578063d547741f14610478578063f14e1c321461048b57600080fd5b8063a217fddf14610423578063b8c55bfa1461042b578063ba6581111461045257600080fd5b80637547a867116100bd5780637547a8671461039157806381792e44146103b857806391d14854146103df57600080fd5b8063492007771461036b57806368fcae0c1461037e57600080fd5b8063248a9ca31161013a57806336568abe1161011457806336568abe1461031e5780633d111c7e1461033157806342c8a14d1461035857600080fd5b8063248a9ca3146102335780632f2ff15d1461025657806331e658a51461026957600080fd5b80630523522e1161016b5780630523522e146101c4578063100ec998146101d75780631e2109121461020c57600080fd5b8063014647f41461018757806301ffc9a71461019c575b600080fd5b61019a610195366004611aeb565b61049e565b005b6101af6101aa366004611b3e565b610825565b60405190151581526020015b60405180910390f35b61019a6101d2366004611aeb565b6108be565b6101fe7f9d65f741849e7609dd1e2c70f0d7da5f5433b36bfcf3ba4d27d2bb08ad2155b181565b6040519081526020016101bb565b6101fe7f2d4d1d70bd81797c3479f5c3f873a5c9203d249659c3b317cdad46367472783c81565b6101fe610241366004611b80565b60009081526020819052604090206001015490565b61019a610264366004611b99565b6109b3565b6102ef610277366004611bc5565b60408051606080820183526000808352602080840182905292840181905273ffffffffffffffffffffffffffffffffffffffff9490941684526002825292829020825193840183525463ffffffff80821685526401000000008204811692850192909252680100000000000000009004169082015290565b60408051825163ffffffff908116825260208085015182169083015292820151909216908201526060016101bb565b61019a61032c366004611b99565b6109de565b6101fe7f5ff1fb0ce9089603e6e193667ed17164e0360a6148f4a39fc194055588948a3181565b6101fe610366366004611c23565b610a91565b61019a610379366004611aeb565b610aff565b61019a61038c366004611aeb565b610ddb565b6101fe7f794e4221ebb6dd4e460d558b4ec709511d44017d6610ba89daa896c0684ddfac81565b6101fe7fbb496ca6fee71a17f78592fbc6fc7f04a436edb9c709c4289d6bbfbc5fd45f4d81565b6101af6103ed366004611b99565b60009182526020828152604080842073ffffffffffffffffffffffffffffffffffffffff93909316845291905290205460ff1690565b6101fe600081565b6101fe7f5a686c9d070917be517818979fb56f451f007e3ae83e96fb5a22a304929b070d81565b61019a610460366004611cce565b610f71565b61019a610473366004611bc5565b6110d5565b61019a610486366004611b99565b611448565b61019a610499366004611aeb565b61146e565b73ffffffffffffffffffffffffffffffffffffffff8316610520576040517f08c379a000000000000000000000000000000000000000000000000000000000815260206004820152600960248201527f305f41444452455353000000000000000000000000000000000000000000000060448201526064015b60405180910390fd5b3360009081527fc21e5385eb0f0a5f01809eb1bc7004c565b4b7a3930450ce3f47ca195f3fbfa8602052604090205460ff166105b8576040517f08c379a000000000000000000000000000000000000000000000000000000000815260206004820152600d60248201527f4f4e4c595f415050524f564552000000000000000000000000000000000000006044820152606401610517565b73ffffffffffffffffffffffffffffffffffffffff831660009081526002602052604090205463ffffffff1661064a576040517f08c379a000000000000000000000000000000000000000000000000000000000815260206004820152600960248201527f4e4f545f414444454400000000000000000000000000000000000000000000006044820152606401610517565b73ffffffffffffffffffffffffffffffffffffffff8316600090815260026020526040902054640100000000900463ffffffff908116146106e7576040517f08c379a000000000000000000000000000000000000000000000000000000000815260206004820152600d60248201527f5052494f525f415050524f5645000000000000000000000000000000000000006044820152606401610517565b73ffffffffffffffffffffffffffffffffffffffff831660009081526002602052604090205468010000000000000000900463ffffffff90811614610788576040517f08c379a000000000000000000000000000000000000000000000000000000000815260206004820152600960248201527f5052494f525f42414e00000000000000000000000000000000000000000000006044820152606401610517565b73ffffffffffffffffffffffffffffffffffffffff83166000908152600260205260409081902080547fffffffffffffffffffffffffffffffffffffffffffffffff00000000ffffffff166401000000004363ffffffff1602179055517fd260a8fc3d84d9b8ae82c111d0dbf676366876cecaf3bb0fac9239f87079607190610818903390869086908690611d59565b60405180910390a1505050565b60007fffffffff0000000000000000000000000000000000000000000000000000000082167f7965db0b0000000000000000000000000000000000000000000000000000000014806108b857507f01ffc9a7000000000000000000000000000000000000000000000000000000007fffffffff000000000000000000000000000000000000000000000000000000008316145b92915050565b336000908152600260208181526040928390208351606081018552905463ffffffff8082168352640100000000820481169383019390935268010000000000000000900490911692810192909252906109179043610a91565b1461097e576040517f08c379a000000000000000000000000000000000000000000000000000000000815260206004820152600d60248201527f4f4e4c595f415050524f564544000000000000000000000000000000000000006044820152606401610517565b7f71328722ac2b1340de5247b509492d26bc509171013057a549e9d4fe12a248d5338484846040516108189493929190611d59565b6000828152602081905260409020600101546109cf8133611563565b6109d98383611633565b505050565b73ffffffffffffffffffffffffffffffffffffffff81163314610a83576040517f08c379a000000000000000000000000000000000000000000000000000000000815260206004820152602f60248201527f416363657373436f6e74726f6c3a2063616e206f6e6c792072656e6f756e636560448201527f20726f6c657320666f722073656c6600000000000000000000000000000000006064820152608401610517565b610a8d8282611723565b5050565b60006001836000015163ffffffff161015610aae575060006108b8565b81836040015163ffffffff1611610ac7575060036108b8565b81836020015163ffffffff1611610ae0575060026108b8565b825163ffffffff168210610af6575060016108b8565b50600092915050565b73ffffffffffffffffffffffffffffffffffffffff8316610b7c576040517f08c379a000000000000000000000000000000000000000000000000000000000815260206004820152600960248201527f305f4144445245535300000000000000000000000000000000000000000000006044820152606401610517565b3360009081527f735f115fb46a48f193bc767158a2a2b7e8e8df9661580761de47a27880ba3345602052604090205460ff16610c14576040517f08c379a000000000000000000000000000000000000000000000000000000000815260206004820152600b60248201527f4f4e4c595f42414e4e45520000000000000000000000000000000000000000006044820152606401610517565b73ffffffffffffffffffffffffffffffffffffffff831660009081526002602052604090205463ffffffff16610ca6576040517f08c379a000000000000000000000000000000000000000000000000000000000815260206004820152600960248201527f4e4f545f414444454400000000000000000000000000000000000000000000006044820152606401610517565b73ffffffffffffffffffffffffffffffffffffffff831660009081526002602052604090205468010000000000000000900463ffffffff90811614610d47576040517f08c379a000000000000000000000000000000000000000000000000000000000815260206004820152600960248201527f5052494f525f42414e00000000000000000000000000000000000000000000006044820152606401610517565b73ffffffffffffffffffffffffffffffffffffffff83166000908152600260205260409081902080547fffffffffffffffffffffffffffffffffffffffff00000000ffffffffffffffff16680100000000000000004363ffffffff1602179055517fb3e42de04a4943505b60c2b56736d694e459a13041abbcdb422043ffe0fb836d90610818903390869086908690611d59565b73ffffffffffffffffffffffffffffffffffffffff8316610e58576040517f08c379a000000000000000000000000000000000000000000000000000000000815260206004820152600960248201527f305f4144445245535300000000000000000000000000000000000000000000006044820152606401610517565b3360009081527fd9d764858b43a233bf46227b55581d0d561bf145f134f1bef79ffaf13a4cbe5b602052604090205460ff16610ef0576040517f08c379a000000000000000000000000000000000000000000000000000000000815260206004820152600c60248201527f4f4e4c595f52454d4f56455200000000000000000000000000000000000000006044820152606401610517565b73ffffffffffffffffffffffffffffffffffffffff83166000908152600260205260409081902080547fffffffffffffffffffffffffffffffffffffffff000000000000000000000000169055517f6802229665770c6e87ad6caf1462f48ffd48ebbd15c350d3e8c4e25121d19e6990610818903390869086908690611d59565b33600090815260026020526040902054600163ffffffff90911610610ff2576040517f08c379a000000000000000000000000000000000000000000000000000000000815260206004820152600960248201527f5052494f525f41444400000000000000000000000000000000000000000000006044820152606401610517565b6040805160608101825263ffffffff438116825260208083018281528385018381523360008181526002909452928690209451855492519151851668010000000000000000027fffffffffffffffffffffffffffffffffffffffff00000000ffffffffffffffff928616640100000000027fffffffffffffffffffffffffffffffffffffffffffffffff0000000000000000909416919095161791909117169190911790915590517fdf270d8e96e7a44420c5141f6addd45d3142335608b710893e9e4ea5704e6a63916110c99185908590611d9d565b60405180910390a15050565b600154610100900460ff166110f05760015460ff16156110f4565b303b155b611180576040517f08c379a000000000000000000000000000000000000000000000000000000000815260206004820152602e60248201527f496e697469616c697a61626c653a20636f6e747261637420697320616c72656160448201527f647920696e697469616c697a65640000000000000000000000000000000000006064820152608401610517565b600154610100900460ff161580156111bf57600180547fffffffffffffffffffffffffffffffffffffffffffffffffffffffffffff0000166101011790555b73ffffffffffffffffffffffffffffffffffffffff821661123c576040517f08c379a000000000000000000000000000000000000000000000000000000000815260206004820152600960248201527f305f4143434f554e5400000000000000000000000000000000000000000000006044820152606401610517565b6112667f2d4d1d70bd81797c3479f5c3f873a5c9203d249659c3b317cdad46367472783c806117da565b6112b07f5ff1fb0ce9089603e6e193667ed17164e0360a6148f4a39fc194055588948a317f2d4d1d70bd81797c3479f5c3f873a5c9203d249659c3b317cdad46367472783c6117da565b6112da7f9d65f741849e7609dd1e2c70f0d7da5f5433b36bfcf3ba4d27d2bb08ad2155b1806117da565b6113247f794e4221ebb6dd4e460d558b4ec709511d44017d6610ba89daa896c0684ddfac7f9d65f741849e7609dd1e2c70f0d7da5f5433b36bfcf3ba4d27d2bb08ad2155b16117da565b61134e7fbb496ca6fee71a17f78592fbc6fc7f04a436edb9c709c4289d6bbfbc5fd45f4d806117da565b6113987f5a686c9d070917be517818979fb56f451f007e3ae83e96fb5a22a304929b070d7fbb496ca6fee71a17f78592fbc6fc7f04a436edb9c709c4289d6bbfbc5fd45f4d6117da565b6113c27f2d4d1d70bd81797c3479f5c3f873a5c9203d249659c3b317cdad46367472783c83611825565b6113ec7f9d65f741849e7609dd1e2c70f0d7da5f5433b36bfcf3ba4d27d2bb08ad2155b183611825565b6114167fbb496ca6fee71a17f78592fbc6fc7f04a436edb9c709c4289d6bbfbc5fd45f4d83611825565b8015610a8d57600180547fffffffffffffffffffffffffffffffffffffffffffffffffffffffffffff00ff1690555050565b6000828152602081905260409020600101546114648133611563565b6109d98383611723565b336000908152600260208181526040928390208351606081018552905463ffffffff8082168352640100000000820481169383019390935268010000000000000000900490911692810192909252906114c79043610a91565b1461152e576040517f08c379a000000000000000000000000000000000000000000000000000000000815260206004820152600d60248201527f4f4e4c595f415050524f564544000000000000000000000000000000000000006044820152606401610517565b7f84980d28674a2fa3c0451d5e92a72556e899c0a11d162890acdb914a6d996336338484846040516108189493929190611d59565b60008281526020818152604080832073ffffffffffffffffffffffffffffffffffffffff8516845290915290205460ff16610a8d576115b98173ffffffffffffffffffffffffffffffffffffffff16601461182f565b6115c483602061182f565b6040516020016115d5929190611e06565b604080517fffffffffffffffffffffffffffffffffffffffffffffffffffffffffffffffe0818403018152908290527f08c379a000000000000000000000000000000000000000000000000000000000825261051791600401611e87565b60008281526020818152604080832073ffffffffffffffffffffffffffffffffffffffff8516845290915290205460ff16610a8d5760008281526020818152604080832073ffffffffffffffffffffffffffffffffffffffff85168452909152902080547fffffffffffffffffffffffffffffffffffffffffffffffffffffffffffffff001660011790556116c53390565b73ffffffffffffffffffffffffffffffffffffffff168173ffffffffffffffffffffffffffffffffffffffff16837f2f8788117e7eff1d82e926ec794901d17c78024a50270940304540a733656f0d60405160405180910390a45050565b60008281526020818152604080832073ffffffffffffffffffffffffffffffffffffffff8516845290915290205460ff1615610a8d5760008281526020818152604080832073ffffffffffffffffffffffffffffffffffffffff8516808552925280832080547fffffffffffffffffffffffffffffffffffffffffffffffffffffffffffffff0016905551339285917ff6391f5c32d9c69d2a47ea670b442974b53935d1edc7fd64eb21e047a839171b9190a45050565b600082815260208190526040808220600101805490849055905190918391839186917fbd79b86ffe0ab8e8776151514217cd7cacd52c909f66475c3af44e129f0b00ff9190a4505050565b610a8d8282611633565b6060600061183e836002611f07565b611849906002611f44565b67ffffffffffffffff81111561186157611861611be0565b6040519080825280601f01601f19166020018201604052801561188b576020820181803683370190505b5090507f3000000000000000000000000000000000000000000000000000000000000000816000815181106118c2576118c2611f5c565b60200101907effffffffffffffffffffffffffffffffffffffffffffffffffffffffffffff1916908160001a9053507f78000000000000000000000000000000000000000000000000000000000000008160018151811061192557611925611f5c565b60200101907effffffffffffffffffffffffffffffffffffffffffffffffffffffffffffff1916908160001a9053506000611961846002611f07565b61196c906001611f44565b90505b6001811115611a09577f303132333435363738396162636465660000000000000000000000000000000085600f16601081106119ad576119ad611f5c565b1a60f81b8282815181106119c3576119c3611f5c565b60200101907effffffffffffffffffffffffffffffffffffffffffffffffffffffffffffff1916908160001a90535060049490941c93611a0281611f8b565b905061196f565b508315611a72576040517f08c379a000000000000000000000000000000000000000000000000000000000815260206004820181905260248201527f537472696e67733a20686578206c656e67746820696e73756666696369656e746044820152606401610517565b9392505050565b803573ffffffffffffffffffffffffffffffffffffffff81168114611a9d57600080fd5b919050565b60008083601f840112611ab457600080fd5b50813567ffffffffffffffff811115611acc57600080fd5b602083019150836020828501011115611ae457600080fd5b9250929050565b600080600060408486031215611b0057600080fd5b611b0984611a79565b9250602084013567ffffffffffffffff811115611b2557600080fd5b611b3186828701611aa2565b9497909650939450505050565b600060208284031215611b5057600080fd5b81357fffffffff0000000000000000000000000000000000000000000000000000000081168114611a7257600080fd5b600060208284031215611b9257600080fd5b5035919050565b60008060408385031215611bac57600080fd5b82359150611bbc60208401611a79565b90509250929050565b600060208284031215611bd757600080fd5b611a7282611a79565b7f4e487b7100000000000000000000000000000000000000000000000000000000600052604160045260246000fd5b803563ffffffff81168114611a9d57600080fd5b6000808284036080811215611c3757600080fd5b6060811215611c4557600080fd5b506040516060810181811067ffffffffffffffff82111715611c90577f4e487b7100000000000000000000000000000000000000000000000000000000600052604160045260246000fd5b604052611c9c84611c0f565b8152611caa60208501611c0f565b6020820152611cbb60408501611c0f565b6040820152946060939093013593505050565b60008060208385031215611ce157600080fd5b823567ffffffffffffffff811115611cf857600080fd5b611d0485828601611aa2565b90969095509350505050565b8183528181602085013750600060208284010152600060207fffffffffffffffffffffffffffffffffffffffffffffffffffffffffffffffe0601f840116840101905092915050565b600073ffffffffffffffffffffffffffffffffffffffff808716835280861660208401525060606040830152611d93606083018486611d10565b9695505050505050565b73ffffffffffffffffffffffffffffffffffffffff84168152604060208201526000611dcd604083018486611d10565b95945050505050565b60005b83811015611df1578181015183820152602001611dd9565b83811115611e00576000848401525b50505050565b7f416363657373436f6e74726f6c3a206163636f756e7420000000000000000000815260008351611e3e816017850160208801611dd6565b7f206973206d697373696e6720726f6c65200000000000000000000000000000006017918401918201528351611e7b816028840160208801611dd6565b01602801949350505050565b6020815260008251806020840152611ea6816040850160208701611dd6565b601f017fffffffffffffffffffffffffffffffffffffffffffffffffffffffffffffffe0169190910160400192915050565b7f4e487b7100000000000000000000000000000000000000000000000000000000600052601160045260246000fd5b6000817fffffffffffffffffffffffffffffffffffffffffffffffffffffffffffffffff0483118215151615611f3f57611f3f611ed8565b500290565b60008219821115611f5757611f57611ed8565b500190565b7f4e487b7100000000000000000000000000000000000000000000000000000000600052603260045260246000fd5b600081611f9a57611f9a611ed8565b507fffffffffffffffffffffffffffffffffffffffffffffffffffffffffffffffff019056fea2646970667358221220f8c07328e9658f9230f708578cb4acd35e11aabcf6307fa47d88d3bf49855a5f64736f6c634300080a0033",
  "linkReferences": {},
  "deployedLinkReferences": {}
}