{
  "_format": "hh-sol-artifact-1",
  "contractName": "Sale",
  "sourceName": "contracts/sale/Sale.sol",
  "abi": [
    {
      "inputs": [
        {
          "components": [
            {
              "internalType": "uint256",
              "name": "maximumCooldownDuration",
              "type": "uint256"
            },
            {
              "internalType": "contract RedeemableERC20Factory",
              "name": "redeemableERC20Factory",
              "type": "address"
            }
          ],
          "internalType": "struct SaleConstructorConfig",
          "name": "config_",
          "type": "tuple"
        }
      ],
      "stateMutability": "nonpayable",
      "type": "constructor"
    },
    {
      "anonymous": false,
      "inputs": [
        {
          "indexed": false,
          "internalType": "address",
          "name": "sender",
          "type": "address"
        },
        {
          "components": [
            {
              "internalType": "address",
              "name": "feeRecipient",
              "type": "address"
            },
            {
              "internalType": "uint256",
              "name": "fee",
              "type": "uint256"
            },
            {
              "internalType": "uint256",
              "name": "minimumUnits",
              "type": "uint256"
            },
            {
              "internalType": "uint256",
              "name": "desiredUnits",
              "type": "uint256"
            },
            {
              "internalType": "uint256",
              "name": "maximumPrice",
              "type": "uint256"
            }
          ],
          "indexed": false,
          "internalType": "struct BuyConfig",
          "name": "config",
          "type": "tuple"
        },
        {
          "components": [
            {
              "internalType": "uint256",
              "name": "id",
              "type": "uint256"
            },
            {
              "internalType": "address",
              "name": "feeRecipient",
              "type": "address"
            },
            {
              "internalType": "uint256",
              "name": "fee",
              "type": "uint256"
            },
            {
              "internalType": "uint256",
              "name": "units",
              "type": "uint256"
            },
            {
              "internalType": "uint256",
              "name": "price",
              "type": "uint256"
            }
          ],
          "indexed": false,
          "internalType": "struct Receipt",
          "name": "receipt",
          "type": "tuple"
        }
      ],
      "name": "Buy",
      "type": "event"
    },
    {
      "anonymous": false,
      "inputs": [
        {
          "indexed": false,
          "internalType": "address",
          "name": "sender",
          "type": "address"
        },
        {
          "components": [
            {
              "internalType": "uint256",
              "name": "maximumCooldownDuration",
              "type": "uint256"
            },
            {
              "internalType": "contract RedeemableERC20Factory",
              "name": "redeemableERC20Factory",
              "type": "address"
            }
          ],
          "indexed": false,
          "internalType": "struct SaleConstructorConfig",
          "name": "config",
          "type": "tuple"
        }
      ],
      "name": "Construct",
      "type": "event"
    },
    {
      "anonymous": false,
      "inputs": [
        {
          "indexed": false,
          "internalType": "address",
          "name": "sender",
          "type": "address"
        },
        {
          "indexed": false,
          "internalType": "uint256",
          "name": "cooldownDuration",
          "type": "uint256"
        }
      ],
      "name": "CooldownInitialize",
      "type": "event"
    },
    {
      "anonymous": false,
      "inputs": [
        {
          "indexed": false,
          "internalType": "address",
          "name": "caller",
          "type": "address"
        },
        {
          "indexed": false,
          "internalType": "uint256",
          "name": "cooldown",
          "type": "uint256"
        }
      ],
      "name": "CooldownTriggered",
      "type": "event"
    },
    {
      "anonymous": false,
      "inputs": [
        {
          "indexed": false,
          "internalType": "address",
          "name": "sender",
          "type": "address"
        },
        {
          "indexed": false,
          "internalType": "enum SaleStatus",
          "name": "saleStatus",
          "type": "uint8"
        }
      ],
      "name": "End",
      "type": "event"
    },
    {
      "anonymous": false,
      "inputs": [
        {
          "indexed": false,
          "internalType": "address",
          "name": "sender",
          "type": "address"
        },
        {
          "components": [
            {
              "components": [
                {
                  "internalType": "bytes[]",
                  "name": "sources",
                  "type": "bytes[]"
                },
                {
                  "internalType": "uint256[]",
                  "name": "constants",
                  "type": "uint256[]"
                },
                {
                  "internalType": "uint256",
                  "name": "stackLength",
                  "type": "uint256"
                },
                {
                  "internalType": "uint256",
                  "name": "argumentsLength",
                  "type": "uint256"
                }
              ],
              "internalType": "struct StateConfig",
              "name": "canStartStateConfig",
              "type": "tuple"
            },
            {
              "components": [
                {
                  "internalType": "bytes[]",
                  "name": "sources",
                  "type": "bytes[]"
                },
                {
                  "internalType": "uint256[]",
                  "name": "constants",
                  "type": "uint256[]"
                },
                {
                  "internalType": "uint256",
                  "name": "stackLength",
                  "type": "uint256"
                },
                {
                  "internalType": "uint256",
                  "name": "argumentsLength",
                  "type": "uint256"
                }
              ],
              "internalType": "struct StateConfig",
              "name": "canEndStateConfig",
              "type": "tuple"
            },
            {
              "components": [
                {
                  "internalType": "bytes[]",
                  "name": "sources",
                  "type": "bytes[]"
                },
                {
                  "internalType": "uint256[]",
                  "name": "constants",
                  "type": "uint256[]"
                },
                {
                  "internalType": "uint256",
                  "name": "stackLength",
                  "type": "uint256"
                },
                {
                  "internalType": "uint256",
                  "name": "argumentsLength",
                  "type": "uint256"
                }
              ],
              "internalType": "struct StateConfig",
              "name": "calculatePriceStateConfig",
              "type": "tuple"
            },
            {
              "internalType": "address",
              "name": "recipient",
              "type": "address"
            },
            {
              "internalType": "contract IERC20",
              "name": "reserve",
              "type": "address"
            },
            {
              "internalType": "uint256",
              "name": "cooldownDuration",
              "type": "uint256"
            },
            {
              "internalType": "uint256",
              "name": "minimumRaise",
              "type": "uint256"
            },
            {
              "internalType": "uint256",
              "name": "dustSize",
              "type": "uint256"
            }
          ],
          "indexed": false,
          "internalType": "struct SaleConfig",
          "name": "config",
          "type": "tuple"
        },
        {
          "indexed": false,
          "internalType": "address",
          "name": "token",
          "type": "address"
        }
      ],
      "name": "Initialize",
      "type": "event"
    },
    {
      "anonymous": false,
      "inputs": [
        {
          "indexed": false,
          "internalType": "address",
          "name": "sender",
          "type": "address"
        },
        {
          "components": [
            {
              "internalType": "uint256",
              "name": "id",
              "type": "uint256"
            },
            {
              "internalType": "address",
              "name": "feeRecipient",
              "type": "address"
            },
            {
              "internalType": "uint256",
              "name": "fee",
              "type": "uint256"
            },
            {
              "internalType": "uint256",
              "name": "units",
              "type": "uint256"
            },
            {
              "internalType": "uint256",
              "name": "price",
              "type": "uint256"
            }
          ],
          "indexed": false,
          "internalType": "struct Receipt",
          "name": "receipt",
          "type": "tuple"
        }
      ],
      "name": "Refund",
      "type": "event"
    },
    {
      "anonymous": false,
      "inputs": [
        {
          "indexed": false,
          "internalType": "address",
          "name": "sender",
          "type": "address"
        },
        {
          "indexed": false,
          "internalType": "address",
          "name": "pointer",
          "type": "address"
        },
        {
          "components": [
            {
              "internalType": "uint256",
              "name": "stackIndex",
              "type": "uint256"
            },
            {
              "internalType": "uint256[]",
              "name": "stack",
              "type": "uint256[]"
            },
            {
              "internalType": "bytes[]",
              "name": "sources",
              "type": "bytes[]"
            },
            {
              "internalType": "uint256[]",
              "name": "constants",
              "type": "uint256[]"
            },
            {
              "internalType": "uint256[]",
              "name": "arguments",
              "type": "uint256[]"
            }
          ],
          "indexed": false,
          "internalType": "struct State",
          "name": "state",
          "type": "tuple"
        }
      ],
      "name": "Snapshot",
      "type": "event"
    },
    {
      "anonymous": false,
      "inputs": [
        {
          "indexed": false,
          "internalType": "address",
          "name": "sender",
          "type": "address"
        }
      ],
      "name": "Start",
      "type": "event"
    },
    {
      "inputs": [
        {
          "components": [
            {
              "internalType": "address",
              "name": "feeRecipient",
              "type": "address"
            },
            {
              "internalType": "uint256",
              "name": "fee",
              "type": "uint256"
            },
            {
              "internalType": "uint256",
              "name": "minimumUnits",
              "type": "uint256"
            },
            {
              "internalType": "uint256",
              "name": "desiredUnits",
              "type": "uint256"
            },
            {
              "internalType": "uint256",
              "name": "maximumPrice",
              "type": "uint256"
            }
          ],
          "internalType": "struct BuyConfig",
          "name": "config_",
          "type": "tuple"
        }
      ],
      "name": "buy",
      "outputs": [],
      "stateMutability": "nonpayable",
      "type": "function"
    },
    {
      "inputs": [
        {
          "internalType": "uint256",
          "name": "units_",
          "type": "uint256"
        }
      ],
      "name": "calculatePrice",
      "outputs": [
        {
          "internalType": "uint256",
          "name": "",
          "type": "uint256"
        }
      ],
      "stateMutability": "view",
      "type": "function"
    },
    {
      "inputs": [],
      "name": "canEnd",
      "outputs": [
        {
          "internalType": "bool",
          "name": "",
          "type": "bool"
        }
      ],
      "stateMutability": "view",
      "type": "function"
    },
    {
      "inputs": [],
      "name": "canStart",
      "outputs": [
        {
          "internalType": "bool",
          "name": "",
          "type": "bool"
        }
      ],
      "stateMutability": "view",
      "type": "function"
    },
    {
      "inputs": [
        {
          "internalType": "address",
          "name": "recipient_",
          "type": "address"
        }
      ],
      "name": "claimFees",
      "outputs": [],
      "stateMutability": "nonpayable",
      "type": "function"
    },
    {
      "inputs": [],
      "name": "end",
      "outputs": [],
      "stateMutability": "nonpayable",
      "type": "function"
    },
    {
      "inputs": [
        {
          "components": [
            {
              "components": [
                {
                  "internalType": "bytes[]",
                  "name": "sources",
                  "type": "bytes[]"
                },
                {
                  "internalType": "uint256[]",
                  "name": "constants",
                  "type": "uint256[]"
                },
                {
                  "internalType": "uint256",
                  "name": "stackLength",
                  "type": "uint256"
                },
                {
                  "internalType": "uint256",
                  "name": "argumentsLength",
                  "type": "uint256"
                }
              ],
              "internalType": "struct StateConfig",
              "name": "canStartStateConfig",
              "type": "tuple"
            },
            {
              "components": [
                {
                  "internalType": "bytes[]",
                  "name": "sources",
                  "type": "bytes[]"
                },
                {
                  "internalType": "uint256[]",
                  "name": "constants",
                  "type": "uint256[]"
                },
                {
                  "internalType": "uint256",
                  "name": "stackLength",
                  "type": "uint256"
                },
                {
                  "internalType": "uint256",
                  "name": "argumentsLength",
                  "type": "uint256"
                }
              ],
              "internalType": "struct StateConfig",
              "name": "canEndStateConfig",
              "type": "tuple"
            },
            {
              "components": [
                {
                  "internalType": "bytes[]",
                  "name": "sources",
                  "type": "bytes[]"
                },
                {
                  "internalType": "uint256[]",
                  "name": "constants",
                  "type": "uint256[]"
                },
                {
                  "internalType": "uint256",
                  "name": "stackLength",
                  "type": "uint256"
                },
                {
                  "internalType": "uint256",
                  "name": "argumentsLength",
                  "type": "uint256"
                }
              ],
              "internalType": "struct StateConfig",
              "name": "calculatePriceStateConfig",
              "type": "tuple"
            },
            {
              "internalType": "address",
              "name": "recipient",
              "type": "address"
            },
            {
              "internalType": "contract IERC20",
              "name": "reserve",
              "type": "address"
            },
            {
              "internalType": "uint256",
              "name": "cooldownDuration",
              "type": "uint256"
            },
            {
              "internalType": "uint256",
              "name": "minimumRaise",
              "type": "uint256"
            },
            {
              "internalType": "uint256",
              "name": "dustSize",
              "type": "uint256"
            }
          ],
          "internalType": "struct SaleConfig",
          "name": "config_",
          "type": "tuple"
        },
        {
          "components": [
            {
              "components": [
                {
                  "internalType": "string",
                  "name": "name",
                  "type": "string"
                },
                {
                  "internalType": "string",
                  "name": "symbol",
                  "type": "string"
                },
                {
                  "internalType": "address",
                  "name": "distributor",
                  "type": "address"
                },
                {
                  "internalType": "uint256",
                  "name": "initialSupply",
                  "type": "uint256"
                }
              ],
              "internalType": "struct ERC20Config",
              "name": "erc20Config",
              "type": "tuple"
            },
            {
              "internalType": "address",
              "name": "tier",
              "type": "address"
            },
            {
              "internalType": "uint256",
              "name": "minimumTier",
              "type": "uint256"
            },
            {
              "internalType": "address",
              "name": "distributionEndForwardingAddress",
              "type": "address"
            }
          ],
          "internalType": "struct SaleRedeemableERC20Config",
          "name": "saleRedeemableERC20Config_",
          "type": "tuple"
        }
      ],
      "name": "initialize",
      "outputs": [],
      "stateMutability": "nonpayable",
      "type": "function"
    },
    {
      "inputs": [
        {
          "components": [
            {
              "internalType": "uint256",
              "name": "id",
              "type": "uint256"
            },
            {
              "internalType": "address",
              "name": "feeRecipient",
              "type": "address"
            },
            {
              "internalType": "uint256",
              "name": "fee",
              "type": "uint256"
            },
            {
              "internalType": "uint256",
              "name": "units",
              "type": "uint256"
            },
            {
              "internalType": "uint256",
              "name": "price",
              "type": "uint256"
            }
          ],
          "internalType": "struct Receipt",
          "name": "receipt_",
          "type": "tuple"
        }
      ],
      "name": "refund",
      "outputs": [],
      "stateMutability": "nonpayable",
      "type": "function"
    },
    {
      "inputs": [],
      "name": "reserve",
      "outputs": [
        {
          "internalType": "address",
          "name": "",
          "type": "address"
        }
      ],
      "stateMutability": "view",
      "type": "function"
    },
    {
      "inputs": [],
      "name": "saleStatus",
      "outputs": [
        {
          "internalType": "enum SaleStatus",
          "name": "",
          "type": "uint8"
        }
      ],
      "stateMutability": "view",
      "type": "function"
    },
    {
      "inputs": [],
      "name": "start",
      "outputs": [],
      "stateMutability": "nonpayable",
      "type": "function"
    },
    {
      "inputs": [],
      "name": "token",
      "outputs": [
        {
          "internalType": "address",
          "name": "",
          "type": "address"
        }
      ],
      "stateMutability": "view",
      "type": "function"
    }
  ],
  "bytecode": "0x6101e06040523480156200001257600080fd5b506040516200563438038062005634833981016040819052620000359162000141565b6001600490815560808190526200004f90600290620001b3565b60a08190526200006290600190620001b3565b60c08190526200007590600790620001b3565b60e08190526200008890600890620001b3565b6101008190526200009c90600690620001b3565b610120819052620000b090600290620001b3565b610140819052620000c490600290620001b3565b610160819052620000d890600290620001b3565b6101805280516101a052602080820180516001600160a01b039081166101c0526040805133815285519481019490945291511682820152517fdfb1b19f96ead124ec3eafbe221fc5ec839fd1c3fdcae0d21e395e3cd817be509181900360600190a150620001da565b6000604082840312156200015457600080fd5b604080519081016001600160401b03811182821017156200018557634e487b7160e01b600052604160045260246000fd5b6040528251815260208301516001600160a01b0381168114620001a757600080fd5b60208201529392505050565b60008219821115620001d557634e487b7160e01b600052601160045260246000fd5b500190565b60805160a05160c05160e05161010051610120516101405161016051610180516101a0516101c05161539b6200029960003960006105c5015260006102de01526000818161227501526122cb01526000818161221f01526122a20152600081816121c9015261224c01526000818161217301526121f601526000818161211d01526121a00152600081816120c7015261214a01526000818161207101526120f4015260008181612016015261209e01526000612043015261539b6000f3fe608060405234801561001057600080fd5b50600436106100d45760003560e01c8063cd3293de11610081578063efbe1c1c1161005b578063efbe1c1c146101b4578063f9020e33146101bc578063fc0c546a146101cf57600080fd5b8063cd3293de1461015a578063d48827e914610199578063ec309038146101ac57600080fd5b8063abf3969e116100b2578063abf3969e14610114578063ae10426514610131578063be9a65551461015257600080fd5b806310fbfddf146100d957806315a0ea6a146100ee578063504d14f814610101575b600080fd5b6100ec6100e73660046144aa565b6101ed565b005b6100ec6100fc3660046145c7565b610723565b6100ec61010f3660046145e4565b6107e3565b61011c610ab4565b60405190151581526020015b60405180910390f35b61014461013f3660046145f6565b610b64565b604051908152602001610128565b6100ec610bed565b600c5473ffffffffffffffffffffffffffffffffffffffff165b60405173ffffffffffffffffffffffffffffffffffffffff9091168152602001610128565b6100ec6101a736600461460f565b610cbb565b61011c6113b7565b6100ec611401565b60125460ff1660405161012891906146f2565b60055473ffffffffffffffffffffffffffffffffffffffff16610174565b600054610100900460ff166102085760005460ff161561020c565b303b155b61029d576040517f08c379a000000000000000000000000000000000000000000000000000000000815260206004820152602e60248201527f496e697469616c697a61626c653a20636f6e747261637420697320616c72656160448201527f647920696e697469616c697a656400000000000000000000000000000000000060648201526084015b60405180910390fd5b600054610100900460ff161580156102dc57600080547fffffffffffffffffffffffffffffffffffffffffffffffffffffffffffff0000166101011790555b7f00000000000000000000000000000000000000000000000000000000000000008360a00151111561036a576040517f08c379a000000000000000000000000000000000000000000000000000000000815260206004820152600c60248201527f4d41585f434f4f4c444f574e00000000000000000000000000000000000000006044820152606401610294565b6103778360a001516115c2565b61038c610387846000015161167d565b611770565b600760006101000a81548173ffffffffffffffffffffffffffffffffffffffff021916908373ffffffffffffffffffffffffffffffffffffffff1602179055506103dc610387846020015161167d565b600860006101000a81548173ffffffffffffffffffffffffffffffffffffffff021916908373ffffffffffffffffffffffffffffffffffffffff16021790555061042c610387846040015161167d565b600980547fffffffffffffffffffffffff000000000000000000000000000000000000000090811673ffffffffffffffffffffffffffffffffffffffff938416179091556060858101516006805490931690841617909155830151166104fa5760008360c00151116104fa576040517f08c379a000000000000000000000000000000000000000000000000000000000815260206004820152600b60248201527f4d494e5f52414953455f300000000000000000000000000000000000000000006044820152606401610294565b60c0830151600a5560e0830151600b55601280547fffffffffffffffffffffffffffffffffffffffffffffffffffffffffffffff0016905560808084018051600c80547fffffffffffffffffffffffff00000000000000000000000000000000000000001673ffffffffffffffffffffffffffffffffffffffff928316179055845130604091820152805160a08101825292518216835285516020808501919091528087015183168483015281870151606080860191909152870151831694840194909452516000937f000000000000000000000000000000000000000000000000000000000000000090921692632ea72a49926105f89201614776565b6040516020818303038152906040526040518263ffffffff1660e01b81526004016106239190614878565b6020604051808303816000875af1158015610642573d6000803e3d6000fd5b505050506040513d601f19601f82011682018060405250810190610666919061488b565b600580547fffffffffffffffffffffffff00000000000000000000000000000000000000001673ffffffffffffffffffffffffffffffffffffffff8316179055835160600151600d556040519091507f2b36a69ed67ed9c9dfb9b31aa4b048e7fad627a62ee67fc08dab1aabbabe636b906106e690339087908590614984565b60405180910390a150801561071e57600080547fffffffffffffffffffffffffffffffffffffffffffffffffffffffffffff00ff1690555b505050565b600260125460ff16600381111561073c5761073c614688565b146107a3576040517f08c379a000000000000000000000000000000000000000000000000000000000815260206004820152600b60248201527f4e4f545f535543434553530000000000000000000000000000000000000000006044820152606401610294565b73ffffffffffffffffffffffffffffffffffffffff80821660009081526015602052604081208054919055600c5490916107df911683836117de565b5050565b600260125460ff1660038111156107fc576107fc614688565b1415610864576040517f08c379a000000000000000000000000000000000000000000000000000000000815260206004820152600e60248201527f524546554e445f535543434553530000000000000000000000000000000000006044820152606401610294565b600360125460ff16600381111561087d5761087d614688565b1461088a5761088a6118b2565b60008160405160200161089d9190614af4565b604080517fffffffffffffffffffffffffffffffffffffffffffffffffffffffffffffffe0818403018152918152815160209283012033600090815260138452828120828252909352912054909150610952576040517f08c379a000000000000000000000000000000000000000000000000000000000815260206004820152600f60248201527f494e56414c49445f5245434549505400000000000000000000000000000000006044820152606401610294565b336000908152601360209081526040808320848452909152812081905561098160808401356060850135611a51565b905080600e60008282546109959190614b31565b925050819055508260600135600d60008282546109b29190614b48565b9091555050604083018035906015906000906109d190602088016145c7565b73ffffffffffffffffffffffffffffffffffffffff1673ffffffffffffffffffffffffffffffffffffffff1681526020019081526020016000206000828254610a1a9190614b31565b90915550506040517f92f85a40e83c8d882fe8d6e484c07c775950072962f3b22dd739834849a5a32490610a519033908690614b60565b60405180910390a1600554610a829073ffffffffffffffffffffffffffffffffffffffff1633306060870135611a7c565b61071e33610a94604086013584614b48565b600c5473ffffffffffffffffffffffffffffffffffffffff1691906117de565b6000600160125460ff166003811115610acf57610acf614688565b14610ada5750600090565b6001600d541015610aeb5750600190565b600854600090610b109073ffffffffffffffffffffffffffffffffffffffff16611ae0565b9050610b2d60405180602001604052806000815250826000611b2e565b6000816020015160018360000151610b459190614b31565b81518110610b5557610b55614b8a565b60200260200101511191505090565b6009546000908190610b8b9073ffffffffffffffffffffffffffffffffffffffff16611ae0565b9050610bba83604051602001610ba391815260200190565b604051602081830303815290604052826000611b2e565b60208101518151610bcd90600190614b31565b81518110610bdd57610bdd614b8a565b6020026020010151915050919050565b610bf56113b7565b610c5b576040517f08c379a000000000000000000000000000000000000000000000000000000000815260206004820152600a60248201527f43414e545f5354415254000000000000000000000000000000000000000000006044820152606401610294565b601280547fffffffffffffffffffffffffffffffffffffffffffffffffffffffffffffff001660011790556040513381527f84d0447ca38875fa61115673259a210915bc1dd53a3c112d6f0790f15956a9659060200160405180910390a1565b60035460009073ffffffffffffffffffffffffffffffffffffffff1615610cfa5760035473ffffffffffffffffffffffffffffffffffffffff16610d28565b600380547fffffffffffffffffffffffff000000000000000000000000000000000000000016339081179091555b73ffffffffffffffffffffffffffffffffffffffff8116600090815260026020526040902054909150431015610dba576040517f08c379a000000000000000000000000000000000000000000000000000000000815260206004820152600860248201527f434f4f4c444f574e0000000000000000000000000000000000000000000000006044820152606401610294565b600060015443610dca9190614b48565b73ffffffffffffffffffffffffffffffffffffffff8316600081815260026020908152604091829020849055815192835282018390529192507fdd9ec76fd04aab7ee6b385c04a7bdf966620500e72b134bfc3f19654fae20f25910160405180910390a160026004541415610e9b576040517f08c379a000000000000000000000000000000000000000000000000000000000815260206004820152601f60248201527f5265656e7472616e637947756172643a207265656e7472616e742063616c6c006044820152606401610294565b60026004556060830151610f0b576040517f08c379a000000000000000000000000000000000000000000000000000000000815260206004820152600960248201527f305f4445534952454400000000000000000000000000000000000000000000006044820152606401610294565b826060015183604001511115610f7d576040517f08c379a000000000000000000000000000000000000000000000000000000000815260206004820152601460248201527f4d494e494d554d5f4f5645525f444553495245440000000000000000000000006044820152606401610294565b600160125460ff166003811115610f9657610f96614688565b14610ffd576040517f08c379a000000000000000000000000000000000000000000000000000000000815260206004820152600a60248201527f4e4f545f414354495645000000000000000000000000000000000000000000006044820152606401610294565b60006110268460400151611020600d548760600151611cc390919063ffffffff16565b90611cd9565b9050600d54811115611094576040517f08c379a000000000000000000000000000000000000000000000000000000000815260206004820152601260248201527f494e53554646494349454e545f53544f434b00000000000000000000000000006044820152606401610294565b600061109f82610b64565b9050846080015181111561110f576040517f08c379a000000000000000000000000000000000000000000000000000000000815260206004820152600d60248201527f4d4158494d554d5f5052494345000000000000000000000000000000000000006044820152606401610294565b600061111b8284611a51565b6040805160a081018252601480548083528a5173ffffffffffffffffffffffffffffffffffffffff166020808501919091528b015193830193909352606082018790526080820186905292935091600061117483614bb9565b90915550503360009081526013602090815260408083209051600193919261119e91869101614bf2565b60405160208183030381529060405280519060200120815260200190815260200160002081905550866020015160156000896000015173ffffffffffffffffffffffffffffffffffffffff1673ffffffffffffffffffffffffffffffffffffffff168152602001908152602001600020600082825461121d9190614b48565b9250508190555083600d60008282546112369190614b31565b9250508190555081600e600082825461124f9190614b48565b909155505043600f5560108490556011839055602087015161129a90339030906112799086614b48565b600c5473ffffffffffffffffffffffffffffffffffffffff16929190611a7c565b6005546112be9073ffffffffffffffffffffffffffffffffffffffff1633866117de565b6001600d5410156112d6576112d1611401565b611346565b600b54600d541015611346576040517f08c379a00000000000000000000000000000000000000000000000000000000081526004016102949060208082526004908201527f4455535400000000000000000000000000000000000000000000000000000000604082015260600190565b7fde28bbdf409354cf811d2e1f52147a0a2a1b89be5848c4b5a41587f63b7cfa6a33888360405161137993929190614c41565b60405180910390a1505060016004555050600380547fffffffffffffffffffffffff0000000000000000000000000000000000000000169055505050565b60008060125460ff1660038111156113d1576113d1614688565b146113dc5750600090565b600754600090610b109073ffffffffffffffffffffffffffffffffffffffff16611ae0565b611409610ab4565b61146f576040517f08c379a000000000000000000000000000000000000000000000000000000000815260206004820152600860248201527f43414e545f454e440000000000000000000000000000000000000000000000006044820152606401610294565b6000600d819055600a54600e541015908161148b57600361148e565b60025b90507f9aef4e6c636914c533cde859f632ab5e2b68cfd8f06b6a2e18f89783f00072cd33826040516114c1929190614ce4565b60405180910390a1601280548291907fffffffffffffffffffffffffffffffffffffffffffffffffffffffffffffff0016600183600381111561150657611506614688565b02179055506005546040517f8b24259b00000000000000000000000000000000000000000000000000000000815230600482015273ffffffffffffffffffffffffffffffffffffffff90911690638b24259b90602401600060405180830381600087803b15801561157657600080fd5b505af115801561158a573d6000803e3d6000fd5b5050505081156107df57600654600e54600c546107df9273ffffffffffffffffffffffffffffffffffffffff918216929116906117de565b6000811161162c576040517f08c379a000000000000000000000000000000000000000000000000000000000815260206004820152600a60248201527f434f4f4c444f574e5f30000000000000000000000000000000000000000000006044820152606401610294565b6001541561163c5761163c614d0e565b600181905560408051338152602081018390527f6153539ba1c54ed4ef5b6f1fda4b7183eeaa1b5707c152abed56f61e09452521910160405180910390a150565b6116af6040518060a0016040528060008152602001606081526020016060815260200160608152602001606081525090565b6040518060a0016040528060008152602001836040015167ffffffffffffffff8111156116de576116de614066565b604051908082528060200260200182016040528015611707578160200160208202803683370190505b5081526020018360000151815260200183602001518152602001836060015167ffffffffffffffff81111561173e5761173e614066565b604051908082528060200260200182016040528015611767578160200160208202803683370190505b50905292915050565b60008061179b836040516020016117879190614da9565b604051602081830303815290604052611ce9565b90507ff95eed63f55d96a35306669cc3b5f652f8d44552e3e4b17b2f78f13571114abd3382856040516117d093929190614dbc565b60405180910390a192915050565b60405173ffffffffffffffffffffffffffffffffffffffff831660248201526044810182905261071e9084907fa9059cbb00000000000000000000000000000000000000000000000000000000906064015b604080517fffffffffffffffffffffffffffffffffffffffffffffffffffffffffffffffe08184030181529190526020810180517bffffffffffffffffffffffffffffffffffffffffffffffffffffffff167fffffffff0000000000000000000000000000000000000000000000000000000090931692909217909152611d74565b60035460009073ffffffffffffffffffffffffffffffffffffffff16156118f15760035473ffffffffffffffffffffffffffffffffffffffff1661191f565b600380547fffffffffffffffffffffffff000000000000000000000000000000000000000016339081179091555b73ffffffffffffffffffffffffffffffffffffffff81166000908152600260205260409020549091504310156119b1576040517f08c379a000000000000000000000000000000000000000000000000000000000815260206004820152600860248201527f434f4f4c444f574e0000000000000000000000000000000000000000000000006044820152606401610294565b6000600154436119c19190614b48565b73ffffffffffffffffffffffffffffffffffffffff8316600081815260026020908152604091829020849055815192835282018390529192507fdd9ec76fd04aab7ee6b385c04a7bdf966620500e72b134bfc3f19654fae20f25910160405180910390a15050600380547fffffffffffffffffffffffff0000000000000000000000000000000000000000169055565b6000611a5f6012600a614f15565b611a698385614f21565b611a739190614f8d565b90505b92915050565b60405173ffffffffffffffffffffffffffffffffffffffff80851660248301528316604482015260648101829052611ada9085907f23b872dd0000000000000000000000000000000000000000000000000000000090608401611830565b50505050565b611b126040518060a0016040528060008152602001606081526020016060815260200160608152602001606081525090565b611b1b82611e80565b806020019051810190611a7691906150b8565b602082810151604084015183830201909101516060840151608085015182516000948594859492939092915b84881015611cb6576002880197508784015180601e1a975080601f1a9650506004871015611caa576001871415611bbd578160808716611b975750825b8a516020607f89160260200182015160208202602001840152600181018c525050611b5a565b6002871415611be85789516020870260200182015160208202602001830152600181018b5250611b5a565b6003871415611c0157611bfc8b8b88611eae565b611b5a565b607f6101fe600188901b161786166080871615611c6d578a517fffffffffffffffffffffffffffffffffffffffffffffffffffffffffffffffff01808c5260208c015180519091908110611c5757611c57614b8a565b602002602001015160001415611c6d5750611b5a565b8060000b600014611ca45760008160000b1215611c9857801960020160020260ff1689039850611ca4565b8060020260ff16890198505b50611b5a565b611bfc8b8b8989612014565b5050505050505050505050565b6000818310611cd25781611a73565b5090919050565b600081831015611cd25781611a73565b600080611d1483604051602001611d00919061519b565b6040516020818303038152906040526124f3565b90508051602082016000f0915073ffffffffffffffffffffffffffffffffffffffff8216611d6e576040517f08d4abb600000000000000000000000000000000000000000000000000000000815260040160405180910390fd5b50919050565b6000611dd6826040518060400160405280602081526020017f5361666545524332303a206c6f772d6c6576656c2063616c6c206661696c65648152508573ffffffffffffffffffffffffffffffffffffffff1661251f9092919063ffffffff16565b80519091501561071e5780806020019051810190611df491906151c1565b61071e576040517f08c379a000000000000000000000000000000000000000000000000000000000815260206004820152602a60248201527f5361666545524332303a204552433230206f7065726174696f6e20646964206e60448201527f6f742073756363656564000000000000000000000000000000000000000000006064820152608401610294565b6060611a768260017fffffffffffffffffffffffffffffffffffffffffffffffffffffffffffffffff612538565b81517fffffffffffffffffffffffffffffffffffffffffffffffffffffffffffffffff600583901c918290030183526007821690610100600384811c1681901c91908290039060010160008167ffffffffffffffff811115611f1257611f12614066565b604051908082528060200260200182016040528015611f3b578160200160208202803683370190505b50905060005b82811015611f925787602001518189600001510181518110611f6557611f65614b8a565b6020026020010151828281518110611f7f57611f7f614b8a565b6020908102919091010152600101611f41565b5060005b6101008110156120095760005b83811015611ff65784828603848381518110611fc157611fc1614b8a565b6020026020010151901b901c89608001518281518110611fe357611fe3614b8a565b6020908102919091010152600101611fa3565b50612002898988611b2e565b8401611f96565b505050505050505050565b7f000000000000000000000000000000000000000000000000000000000000000082101561206f5761206a84847f0000000000000000000000000000000000000000000000000000000000000000850384612620565b611ada565b7f00000000000000000000000000000000000000000000000000000000000000008210156120c55761206a84847f00000000000000000000000000000000000000000000000000000000000000008503846126e5565b7f000000000000000000000000000000000000000000000000000000000000000082101561211b5761206a84847f000000000000000000000000000000000000000000000000000000000000000085038461276a565b7f00000000000000000000000000000000000000000000000000000000000000008210156121715761206a84847f000000000000000000000000000000000000000000000000000000000000000085038461297a565b7f00000000000000000000000000000000000000000000000000000000000000008210156121c75761206a84847f0000000000000000000000000000000000000000000000000000000000000000850384612cbe565b7f000000000000000000000000000000000000000000000000000000000000000082101561221d5761206a84847f00000000000000000000000000000000000000000000000000000000000000008503846131bb565b7f00000000000000000000000000000000000000000000000000000000000000008210156122735761206a84847f0000000000000000000000000000000000000000000000000000000000000000850384613442565b7f00000000000000000000000000000000000000000000000000000000000000008210156122c95761206a84847f00000000000000000000000000000000000000000000000000000000000000008503846135f1565b7f00000000000000000000000000000000000000000000000000000000000000008203915060088210612358576040517f08c379a000000000000000000000000000000000000000000000000000000000815260206004820152600a60248201527f4d41585f4f50434f4445000000000000000000000000000000000000000000006044820152606401610294565b8161238857600d54602084015184518151811061237757612377614b8a565b6020026020010181815250506124e7565b60018214156123ab57600e54602084015184518151811061237757612377614b8a565b60028214156123ce57600f54602084015184518151811061237757612377614b8a565b60038214156123f157601054602084015184518151811061237757612377614b8a565b600482141561241457601154602084015184518151811061237757612377614b8a565b60058214156124625760008480602001905181019061243391906151e3565b905080846020015185600001518151811061245057612450614b8a565b602002602001018181525050506124e7565b600682141561249e5760055460208401518451815173ffffffffffffffffffffffffffffffffffffffff90931692811061237757612377614b8a565b60078214156124e757600c5460208401518451815173ffffffffffffffffffffffffffffffffffffffff9093169281106124da576124da614b8a565b6020026020010181815250505b50508051600101905250565b60608151826040516020016125099291906151fc565b6040516020818303038152906040529050919050565b606061252e8484600085613a7a565b90505b9392505050565b6060833b80612557575050604080516020810190915260008152612531565b80841115612575575050604080516020810190915260008152612531565b838310156125c0576040517f2c4a89fa000000000000000000000000000000000000000000000000000000008152600481018290526024810185905260448101849052606401610294565b83830384820360008282106125d557826125d7565b815b60408051603f83017fffffffffffffffffffffffffffffffffffffffffffffffffffffffffffffffe0168101909152818152955090508087602087018a3c505050509392505050565b6002821061268a576040517f08c379a000000000000000000000000000000000000000000000000000000000815260206004820152600a60248201527f4d41585f4f50434f4445000000000000000000000000000000000000000000006044820152606401610294565b816126c1574383602001518460000151815181106126aa576126aa614b8a565b602090810291909101015282516001018352611ada565b6001821415611ada574283602001518460000151815181106124da576124da614b8a565b6001821061274f576040517f08c379a000000000000000000000000000000000000000000000000000000000815260206004820152600a60248201527f4d41585f4f50434f4445000000000000000000000000000000000000000000006044820152606401610294565b6020830151835181513392919081106124da576124da614b8a565b600782106127d4576040517f08c379a000000000000000000000000000000000000000000000000000000000815260206004820152600a60248201527f4d41585f4f50434f4445000000000000000000000000000000000000000000006044820152606401610294565b8251602080850151818302010183801561281d576001811461284a57600281146128b557600381146128cf57600481146128e95760058114612903576006811461293b57612971565b7fffffffffffffffffffffffffffffffffffffffffffffffffffffffffffffffe082018051159052612971565b7ffffffffffffffffffffffffffffffffffffffffffffffffffffffffffffffffe830186527fffffffffffffffffffffffffffffffffffffffffffffffffffffffffffffffa08201805180156128a657602082015182526128ae565b604082015182525b5050612971565b600183038652604082036020810151815114815250612971565b600183038652604082036020810151815110815250612971565b600183038652604082036020810151815111815250612971565b8315612936576001840383038652602084028203805b838110156128ae57805161292e575060008152825b602001612919565b612971565b8315612971576001840383038652602084028203805b838110156120095780518015612968578491508083525b50602001612951565b50505050505050565b600882106129e4576040517f08c379a000000000000000000000000000000000000000000000000000000000815260206004820152600a60248201527f4d41585f4f50434f4445000000000000000000000000000000000000000000006044820152606401610294565b825160208401518051838303927fffffffffffffffffffffffffffffffffffffffffffffffffffffffffffffffff019183916000919083908110612a2a57612a2a614b8a565b602002602001015190506000861415612a82575b82821015612a7d576020870151805160019093019283908110612a6357612a63614b8a565b602002602001015181612a769190614b48565b9050612a3e565b612c8e565b6001861415612acb575b82821015612a7d576020870151805160019093019283908110612ab157612ab1614b8a565b602002602001015181612ac49190614b31565b9050612a8c565b6002861415612b14575b82821015612a7d576020870151805160019093019283908110612afa57612afa614b8a565b602002602001015181612b0d9190614f21565b9050612ad5565b6003861415612b5d575b82821015612a7d576020870151805160019093019283908110612b4357612b43614b8a565b602002602001015181612b569190614f8d565b9050612b1e565b6004861415612ba6575b82821015612a7d576020870151805160019093019283908110612b8c57612b8c614b8a565b602002602001015181612b9f9190615293565b9050612b67565b6005861415612bee575b82821015612a7d576020870151805160019093019283908110612bd557612bd5614b8a565b602002602001015181612be89190614f15565b50612bb0565b6006861415612c405760005b83831015612c3a576020880151805160019094019384908110612c1f57612c1f614b8a565b6020026020010151905081811015612c35578091505b612bfa565b50612c8e565b6007861415612c8e5760005b83831015612c8c576020880151805160019094019384908110612c7157612c71614b8a565b6020026020010151905081811115612c87578091505b612c4c565b505b8087602001518581518110612ca557612ca5614b8a565b6020908102919091010152505050600101909252505050565b60068210612d28576040517f08c379a000000000000000000000000000000000000000000000000000000000815260206004820152600a60248201527f4d41585f4f50434f4445000000000000000000000000000000000000000000006044820152606401610294565b600082612e77575082517fffffffffffffffffffffffffffffffffffffffffffffffffffffffffffffffff81018452602084015180517ffffffffffffffffffffffffffffffffffffffffffffffffffffffffffffffffe9092019182908110612d9357612d93614b8a565b602002602001015173ffffffffffffffffffffffffffffffffffffffff1663e053ea3185602001518360010181518110612dcf57612dcf614b8a565b60200260200101516040518263ffffffff1660e01b8152600401612e0f919073ffffffffffffffffffffffffffffffffffffffff91909116815260200190565b602060405180830381865afa158015612e2c573d6000803e3d6000fd5b505050506040513d601f19601f82011682018060405250810190612e5091906151e3565b84602001518281518110612e6657612e66614b8a565b6020026020010181815250506131b4565b6001831415612ed2577fffffffffffffffffffffffffffffffffffffffffffffffffffffffffffffffff8460200151856000015181518110612ebb57612ebb614b8a565b6020908102919091010152835160010184526131b4565b6002831415612ef75760008460200151856000015181518110612ebb57612ebb614b8a565b6003831415612fab575082517ffffffffffffffffffffffffffffffffffffffffffffffffffffffffffffffffe01808452602084015180516000919083908110612f4357612f43614b8a565b60200260200101519050600085602001518360010181518110612f6857612f68614b8a565b60200260200101519050612f7c8282613bfc565b86602001518481518110612f9257612f92614b8a565b60209081029190910101525050835160010184526131b4565b6004831415613073575082517ffffffffffffffffffffffffffffffffffffffffffffffffffffffffffffffffe0180845260208401518051600f80851692600486901c90911691600091908590811061300657613006614b8a565b6020026020010151905060008760200151856001018151811061302b5761302b614b8a565b6020026020010151905061304182858584613c5b565b8860200151868151811061305757613057614b8a565b6020908102919091010152505085516001018652506131b49050565b60058314156131b4575082517fffffffffffffffffffffffffffffffffffffffffffffffffffffffffffffffff601f8316918290030180855290600783901c906003600585901c16908360008267ffffffffffffffff8111156130d8576130d8614066565b604051908082528060200260200182016040528015613101578160200160208202803683370190505b50905060005b83811015613156578960200151838151811061312557613125614b8a565b602002602001015182828151811061313f5761313f614b8a565b602090810291909101015260019283019201613107565b5060008960200151838151811061316f5761316f614b8a565b6020026020010151905061318582828888613d6e565b8a60200151888151811061319b5761319b614b8a565b6020908102919091010152505087516001018852505050505b5050505050565b60028210613225576040517f08c379a000000000000000000000000000000000000000000000000000000000815260206004820152600a60248201527f4d41585f4f50434f4445000000000000000000000000000000000000000000006044820152606401610294565b816133775782517fffffffffffffffffffffffffffffffffffffffffffffffffffffffffffffffff810184526020840151805190917ffffffffffffffffffffffffffffffffffffffffffffffffffffffffffffffffe0190811061328b5761328b614b8a565b602002602001015173ffffffffffffffffffffffffffffffffffffffff166370a0823184602001518560000151815181106132c8576132c8614b8a565b60200260200101516040518263ffffffff1660e01b8152600401613308919073ffffffffffffffffffffffffffffffffffffffff91909116815260200190565b602060405180830381865afa158015613325573d6000803e3d6000fd5b505050506040513d601f19601f8201168201806040525081019061334991906151e3565b836020015160018560000151038151811061336657613366614b8a565b602002602001018181525050611ada565b6001821415611ada57826020015160018460000151038151811061339d5761339d614b8a565b602002602001015173ffffffffffffffffffffffffffffffffffffffff166318160ddd6040518163ffffffff1660e01b8152600401602060405180830381865afa1580156133ef573d6000803e3d6000fd5b505050506040513d601f19601f8201168201806040525081019061341391906151e3565b836020015160018560000151038151811061343057613430614b8a565b60200260200101818152505050505050565b600282106134ac576040517f08c379a000000000000000000000000000000000000000000000000000000000815260206004820152600a60248201527f4d41585f4f50434f4445000000000000000000000000000000000000000000006044820152606401610294565b82517fffffffffffffffffffffffffffffffffffffffffffffffffffffffffffffffff018352816134f457826020015160018460000151038151811061328b5761328b614b8a565b6001821415611ada57826020015160018460000151038151811061351a5761351a614b8a565b602002602001015173ffffffffffffffffffffffffffffffffffffffff16636352211e846020015185600001518151811061355757613557614b8a565b60200260200101516040518263ffffffff1660e01b815260040161357d91815260200190565b602060405180830381865afa15801561359a573d6000803e3d6000fd5b505050506040513d601f19601f820116820180604052508101906135be919061488b565b73ffffffffffffffffffffffffffffffffffffffff16836020015160018560000151038151811061343057613430614b8a565b6002821061365b576040517f08c379a000000000000000000000000000000000000000000000000000000000815260206004820152600a60248201527f4d41585f4f50434f4445000000000000000000000000000000000000000000006044820152606401610294565b816137ce5782517ffffffffffffffffffffffffffffffffffffffffffffffffffffffffffffffffe81018452602084015180517ffffffffffffffffffffffffffffffffffffffffffffffffffffffffffffffffd90920191829081106136c3576136c3614b8a565b602002602001015173ffffffffffffffffffffffffffffffffffffffff1662fdd58e856020015183600101815181106136fe576136fe614b8a565b60200260200101518660200151846002018151811061371f5761371f614b8a565b60200260200101516040518363ffffffff1660e01b815260040161376592919073ffffffffffffffffffffffffffffffffffffffff929092168252602082015260400190565b602060405180830381865afa158015613782573d6000803e3d6000fd5b505050506040513d601f19601f820116820180604052508101906137a691906151e3565b846020015182815181106137bc576137bc614b8a565b60200260200101818152505050611ada565b6001821415611ada576001810160008167ffffffffffffffff8111156137f6576137f6614066565b60405190808252806020026020018201604052801561381f578160200160208202803683370190505b50905060008267ffffffffffffffff81111561383d5761383d614066565b604051908082528060200260200182016040528015613866578160200160208202803683370190505b5086518490037fffffffffffffffffffffffffffffffffffffffffffffffffffffffffffffffff81810189526020890151805193945091869003019160009190839081106138b6576138b6614b8a565b6020026020010151905060005b8581101561396d578860200151818401600101815181106138e6576138e6614b8a565b602002602001015185828151811061390057613900614b8a565b73ffffffffffffffffffffffffffffffffffffffff9092166020928302919091018201528901518051600185890184010190811061394057613940614b8a565b602002602001015184828151811061395a5761395a614b8a565b60209081029190910101526001016138c3565b506040517f4e1273f400000000000000000000000000000000000000000000000000000000815260009073ffffffffffffffffffffffffffffffffffffffff831690634e1273f4906139c590889088906004016152a7565b600060405180830381865afa1580156139e2573d6000803e3d6000fd5b505050506040513d6000823e601f3d9081017fffffffffffffffffffffffffffffffffffffffffffffffffffffffffffffffe0168201604052613a289190810190615314565b905060005b86811015611cb657818181518110613a4757613a47614b8a565b60200260200101518a6020015182860181518110613a6757613a67614b8a565b6020908102919091010152600101613a2d565b606082471015613b0c576040517f08c379a000000000000000000000000000000000000000000000000000000000815260206004820152602660248201527f416464726573733a20696e73756666696369656e742062616c616e636520666f60448201527f722063616c6c00000000000000000000000000000000000000000000000000006064820152608401610294565b843b613b74576040517f08c379a000000000000000000000000000000000000000000000000000000000815260206004820152601d60248201527f416464726573733a2063616c6c20746f206e6f6e2d636f6e74726163740000006044820152606401610294565b6000808673ffffffffffffffffffffffffffffffffffffffff168587604051613b9d9190615349565b60006040518083038185875af1925050503d8060008114613bda576040519150601f19603f3d011682016040523d82523d6000602084013e613bdf565b606091505b5091509150613bef828286613ebe565b925050505b949350505050565b60008060015b60088111613c53576000613c168683613f11565b90506000613c248684613f11565b90506000613c328383613fc6565b9050613c42856001860383613fdc565b94505060019092019150613c029050565b509392505050565b6000836008811115613cc9576040517f08c379a000000000000000000000000000000000000000000000000000000000815260206004820152600860248201527f4d41585f544945520000000000000000000000000000000000000000000000006044820152606401610294565b836008811115613d35576040517f08c379a000000000000000000000000000000000000000000000000000000000815260206004820152600860248201527f4d41585f544945520000000000000000000000000000000000000000000000006044820152606401610294565b6000865b86811015613d615763ffffffff6020820290811b1999909916868a1b17989150600101613d39565b5096979650505050505050565b835160009081908190819060015b60088111613eb057600092508287613db557507fffffffffffffffffffffffffffffffffffffffffffffffffffffffffffffffff613db9565b5060005b60005b83811015613e6e57613de78c8281518110613dd957613dd9614b8a565b602002602001015184613f11565b95508a8611613e395788613e0657613dff8683611cc3565b9150613e30565b6001891415613e1957613dff8683611cd9565b600289148015613e27575084155b15613e30578591505b60019450613e66565b89613e66577fffffffffffffffffffffffffffffffffffffffffffffffffffffffffffffffff9150613e6e565b600101613dbc565b5083613e9757507fffffffffffffffffffffffffffffffffffffffffffffffffffffffffffffffff5b613ea5866001840383613fdc565b955050600101613d7c565b509298975050505050505050565b60608315613ecd575081612531565b825115613edd5782518084602001fd5b816040517f08c379a00000000000000000000000000000000000000000000000000000000081526004016102949190614878565b6000816008811115613f7f576040517f08c379a000000000000000000000000000000000000000000000000000000000815260206004820152600860248201527f4d41585f544945520000000000000000000000000000000000000000000000006044820152606401610294565b82613f8d5760009150613fbf565b63ffffffff60207fffffffffffffffffffffffffffffffffffffffffffffffffffffffffffffffff85010285901c1691505b5092915050565b6000818311613fd6576000611a73565b50900390565b600082600881111561404a576040517f08c379a000000000000000000000000000000000000000000000000000000000815260206004820152600860248201527f4d41585f544945520000000000000000000000000000000000000000000000006044820152606401610294565b505060209190910290811b63ffffffff90911b19919091161790565b7f4e487b7100000000000000000000000000000000000000000000000000000000600052604160045260246000fd5b6040516080810167ffffffffffffffff811182821017156140b8576140b8614066565b60405290565b604051610100810167ffffffffffffffff811182821017156140b8576140b8614066565b60405160a0810167ffffffffffffffff811182821017156140b8576140b8614066565b604051601f82017fffffffffffffffffffffffffffffffffffffffffffffffffffffffffffffffe016810167ffffffffffffffff8111828210171561414c5761414c614066565b604052919050565b600067ffffffffffffffff82111561416e5761416e614066565b5060051b60200190565b600067ffffffffffffffff82111561419257614192614066565b50601f017fffffffffffffffffffffffffffffffffffffffffffffffffffffffffffffffe01660200190565b60006141d16141cc84614178565b614105565b90508281528383830111156141e557600080fd5b828260208301376000602084830101529392505050565b600082601f83011261420d57600080fd5b8135602061421d6141cc83614154565b82815260059290921b8401810191818101908684111561423c57600080fd5b8286015b848110156142575780358352918301918301614240565b509695505050505050565b60006080828403121561427457600080fd5b61427c614095565b9050813567ffffffffffffffff8082111561429657600080fd5b818401915084601f8301126142aa57600080fd5b813560206142ba6141cc83614154565b82815260059290921b840181019181810190888411156142d957600080fd5b8286015b84811015614326578035868111156142f55760008081fd5b8701603f81018b136143075760008081fd5b6143188b86830135604084016141be565b8452509183019183016142dd565b508652508581013593508284111561433d57600080fd5b614349878588016141fc565b8186015250505050604082013560408201526060820135606082015292915050565b73ffffffffffffffffffffffffffffffffffffffff8116811461438d57600080fd5b50565b803561439b8161436b565b919050565b600082601f8301126143b157600080fd5b611a73838335602085016141be565b6000608082840312156143d257600080fd5b6143da614095565b9050813567ffffffffffffffff808211156143f457600080fd5b908301906080828603121561440857600080fd5b614410614095565b82358281111561441f57600080fd5b61442b878286016143a0565b82525060208301358281111561444057600080fd5b61444c878286016143a0565b602083015250604083013591506144628261436b565b8160408201526060830135606082015280845250505061448460208301614390565b60208201526040820135604082015261449f60608301614390565b606082015292915050565b600080604083850312156144bd57600080fd5b823567ffffffffffffffff808211156144d557600080fd5b9084019061010082870312156144ea57600080fd5b6144f26140be565b82358281111561450157600080fd5b61450d88828601614262565b82525060208301358281111561452257600080fd5b61452e88828601614262565b60208301525060408301358281111561454657600080fd5b61455288828601614262565b60408301525061456460608401614390565b606082015261457560808401614390565b608082015260a083013560a082015260c083013560c082015260e083013560e08201528094505060208501359150808211156145b057600080fd5b506145bd858286016143c0565b9150509250929050565b6000602082840312156145d957600080fd5b81356125318161436b565b600060a08284031215611d6e57600080fd5b60006020828403121561460857600080fd5b5035919050565b600060a0828403121561462157600080fd5b60405160a0810181811067ffffffffffffffff8211171561464457614644614066565b60405282356146528161436b565b80825250602083013560208201526040830135604082015260608301356060820152608083013560808201528091505092915050565b7f4e487b7100000000000000000000000000000000000000000000000000000000600052602160045260246000fd5b600481106146ee577f4e487b7100000000000000000000000000000000000000000000000000000000600052602160045260246000fd5b9052565b60208101611a7682846146b7565b60005b8381101561471b578181015183820152602001614703565b83811115611ada5750506000910152565b60008151808452614744816020860160208601614700565b601f017fffffffffffffffffffffffffffffffffffffffffffffffffffffffffffffffe0169290920160200192915050565b60208152600073ffffffffffffffffffffffffffffffffffffffff808451166020840152602084015160a060408501528051608060c08601526147bd61014086018261472c565b905060208201517fffffffffffffffffffffffffffffffffffffffffffffffffffffffffffffff408683030160e08701526147f8828261472c565b9150508260408301511661010086015260608201516101208601526040860151925061483c606086018473ffffffffffffffffffffffffffffffffffffffff169052565b606086015160808601526080860151925061486f60a086018473ffffffffffffffffffffffffffffffffffffffff169052565b95945050505050565b602081526000611a73602083018461472c565b60006020828403121561489d57600080fd5b81516125318161436b565b6000815180845260208085019450848260051b860182860160005b858110156148ed5783830389526148db83835161472c565b988501989250908401906001016148c3565b5090979650505050505050565b600081518084526020808501945080840160005b8381101561492a5781518752958201959082019060010161490e565b509495945050505050565b600081516080845261494a60808501826148a8565b90506020830151848203602086015261496382826148fa565b91505060408301516040850152606083015160608501528091505092915050565b73ffffffffffffffffffffffffffffffffffffffff8416815260606020820152600083516101008060608501526149bf610160850183614935565b915060208601517fffffffffffffffffffffffffffffffffffffffffffffffffffffffffffffffa0808685030160808701526149fb8483614935565b935060408801519150808685030160a087015250614a198382614935565b9250506060860151614a4360c086018273ffffffffffffffffffffffffffffffffffffffff169052565b50608086015173ffffffffffffffffffffffffffffffffffffffff811660e08601525060a08601519084015260c085015161012084015260e085015161014084015273ffffffffffffffffffffffffffffffffffffffff841660408401529050613bf4565b803582526020810135614aba8161436b565b73ffffffffffffffffffffffffffffffffffffffff1660208301526040818101359083015260608082013590830152608090810135910152565b60a08101611a768284614aa8565b7f4e487b7100000000000000000000000000000000000000000000000000000000600052601160045260246000fd5b600082821015614b4357614b43614b02565b500390565b60008219821115614b5b57614b5b614b02565b500190565b73ffffffffffffffffffffffffffffffffffffffff8316815260c081016125316020830184614aa8565b7f4e487b7100000000000000000000000000000000000000000000000000000000600052603260045260246000fd5b60007fffffffffffffffffffffffffffffffffffffffffffffffffffffffffffffffff821415614beb57614beb614b02565b5060010190565b60a08101611a7682848051825273ffffffffffffffffffffffffffffffffffffffff60208201511660208301526040810151604083015260608101516060830152608081015160808301525050565b60006101608201905073ffffffffffffffffffffffffffffffffffffffff808616835280855116602084015250602084015160408301526040840151606083015260608401516080830152608084015160a0830152613bf460c08301848051825273ffffffffffffffffffffffffffffffffffffffff60208201511660208301526040810151604083015260608101516060830152608081015160808301525050565b73ffffffffffffffffffffffffffffffffffffffff831681526040810161253160208301846146b7565b7f4e487b7100000000000000000000000000000000000000000000000000000000600052600160045260246000fd5b805182526000602082015160a06020850152614d5c60a08501826148fa565b905060408301518482036040860152614d7582826148a8565b91505060608301518482036060860152614d8f82826148fa565b9150506080830151848203608086015261486f82826148fa565b602081526000611a736020830184614d3d565b600073ffffffffffffffffffffffffffffffffffffffff80861683528085166020840152506060604083015261486f6060830184614d3d565b600181815b80851115614e4e57817fffffffffffffffffffffffffffffffffffffffffffffffffffffffffffffffff04821115614e3457614e34614b02565b80851615614e4157918102915b93841c9390800290614dfa565b509250929050565b600082614e6557506001611a76565b81614e7257506000611a76565b8160018114614e885760028114614e9257614eae565b6001915050611a76565b60ff841115614ea357614ea3614b02565b50506001821b611a76565b5060208310610133831016604e8410600b8410161715614ed1575081810a611a76565b614edb8383614df5565b807fffffffffffffffffffffffffffffffffffffffffffffffffffffffffffffffff04821115614f0d57614f0d614b02565b029392505050565b6000611a738383614e56565b6000817fffffffffffffffffffffffffffffffffffffffffffffffffffffffffffffffff0483118215151615614f5957614f59614b02565b500290565b7f4e487b7100000000000000000000000000000000000000000000000000000000600052601260045260246000fd5b600082614f9c57614f9c614f5e565b500490565b600082601f830112614fb257600080fd5b81516020614fc26141cc83614154565b82815260059290921b84018101918181019086841115614fe157600080fd5b8286015b848110156142575780518352918301918301614fe5565b600082601f83011261500d57600080fd5b8151602061501d6141cc83614154565b82815260059290921b8401810191818101908684111561503c57600080fd5b8286015b8481101561425757805167ffffffffffffffff8111156150605760008081fd5b8701603f810189136150725760008081fd5b8481015160406150846141cc83614178565b8281528b828486010111156150995760008081fd5b6150a883898301848701614700565b8652505050918301918301615040565b6000602082840312156150ca57600080fd5b815167ffffffffffffffff808211156150e257600080fd5b9083019060a082860312156150f657600080fd5b6150fe6140e2565b8251815260208301518281111561511457600080fd5b61512087828601614fa1565b60208301525060408301518281111561513857600080fd5b61514487828601614ffc565b60408301525060608301518281111561515c57600080fd5b61516887828601614fa1565b60608301525060808301518281111561518057600080fd5b61518c87828601614fa1565b60808301525095945050505050565b60008152600082516151b4816001850160208701614700565b9190910160010192915050565b6000602082840312156151d357600080fd5b8151801515811461253157600080fd5b6000602082840312156151f557600080fd5b5051919050565b7f630000000000000000000000000000000000000000000000000000000000000081527fffffffff000000000000000000000000000000000000000000000000000000008360e01b1660018201527f80600e6000396000f3000000000000000000000000000000000000000000000060058201526000825161528581600e850160208701614700565b91909101600e019392505050565b6000826152a2576152a2614f5e565b500690565b604080825283519082018190526000906020906060840190828701845b828110156152f657815173ffffffffffffffffffffffffffffffffffffffff16845292840192908401906001016152c4565b5050508381038285015261530a81866148fa565b9695505050505050565b60006020828403121561532657600080fd5b815167ffffffffffffffff81111561533d57600080fd5b613bf484828501614fa1565b6000825161535b818460208701614700565b919091019291505056fea26469706673582212206509c4d4917ac7c929aef273a6380fbb6ad0624716a4bda670670d3d8b420c2664736f6c634300080a0033",
  "linkReferences": {},
  "deployedLinkReferences": {}
}