{
  "_format": "hh-sol-artifact-1",
  "contractName": "SaleFactory",
  "sourceName": "contracts/sale/SaleFactory.sol",
  "abi": [
    {
      "inputs": [
        {
          "components": [
            {
              "internalType": "uint256",
              "name": "maximumSaleTimeout",
              "type": "uint256"
            },
            {
              "internalType": "uint256",
              "name": "maximumCooldownDuration",
              "type": "uint256"
            },
            {
              "internalType": "contract RedeemableERC20Factory",
              "name": "redeemableERC20Factory",
              "type": "address"
            }
          ],
          "internalType": "struct SaleConstructorConfig",
          "name": "config_",
          "type": "tuple"
        }
      ],
      "stateMutability": "nonpayable",
      "type": "constructor"
    },
    {
      "anonymous": false,
      "inputs": [
        {
          "indexed": false,
          "internalType": "address",
          "name": "sender",
          "type": "address"
        },
        {
          "indexed": false,
          "internalType": "address",
          "name": "implementation",
          "type": "address"
        }
      ],
      "name": "Implementation",
      "type": "event"
    },
    {
      "anonymous": false,
      "inputs": [
        {
          "indexed": false,
          "internalType": "address",
          "name": "sender",
          "type": "address"
        },
        {
          "indexed": false,
          "internalType": "address",
          "name": "child",
          "type": "address"
        }
      ],
      "name": "NewChild",
      "type": "event"
    },
    {
      "inputs": [
        {
          "internalType": "bytes",
          "name": "data_",
          "type": "bytes"
        }
      ],
      "name": "createChild",
      "outputs": [
        {
          "internalType": "address",
          "name": "",
          "type": "address"
        }
      ],
      "stateMutability": "nonpayable",
      "type": "function"
    },
    {
      "inputs": [
        {
          "components": [
            {
              "components": [
                {
                  "internalType": "bytes[]",
                  "name": "sources",
                  "type": "bytes[]"
                },
                {
                  "internalType": "uint256[]",
                  "name": "constants",
                  "type": "uint256[]"
                },
                {
                  "internalType": "uint256",
                  "name": "stackLength",
                  "type": "uint256"
                },
                {
                  "internalType": "uint256",
                  "name": "argumentsLength",
                  "type": "uint256"
                }
              ],
              "internalType": "struct StateConfig",
              "name": "canStartStateConfig",
              "type": "tuple"
            },
            {
              "components": [
                {
                  "internalType": "bytes[]",
                  "name": "sources",
                  "type": "bytes[]"
                },
                {
                  "internalType": "uint256[]",
                  "name": "constants",
                  "type": "uint256[]"
                },
                {
                  "internalType": "uint256",
                  "name": "stackLength",
                  "type": "uint256"
                },
                {
                  "internalType": "uint256",
                  "name": "argumentsLength",
                  "type": "uint256"
                }
              ],
              "internalType": "struct StateConfig",
              "name": "canEndStateConfig",
              "type": "tuple"
            },
            {
              "components": [
                {
                  "internalType": "bytes[]",
                  "name": "sources",
                  "type": "bytes[]"
                },
                {
                  "internalType": "uint256[]",
                  "name": "constants",
                  "type": "uint256[]"
                },
                {
                  "internalType": "uint256",
                  "name": "stackLength",
                  "type": "uint256"
                },
                {
                  "internalType": "uint256",
                  "name": "argumentsLength",
                  "type": "uint256"
                }
              ],
              "internalType": "struct StateConfig",
              "name": "calculatePriceStateConfig",
              "type": "tuple"
            },
            {
              "internalType": "address",
              "name": "recipient",
              "type": "address"
            },
            {
              "internalType": "contract IERC20",
              "name": "reserve",
              "type": "address"
            },
            {
              "internalType": "uint256",
              "name": "saleTimeout",
              "type": "uint256"
            },
            {
              "internalType": "uint256",
              "name": "cooldownDuration",
              "type": "uint256"
            },
            {
              "internalType": "uint256",
              "name": "minimumRaise",
              "type": "uint256"
            },
            {
              "internalType": "uint256",
              "name": "dustSize",
              "type": "uint256"
            }
          ],
          "internalType": "struct SaleConfig",
          "name": "config_",
          "type": "tuple"
        },
        {
          "components": [
            {
              "components": [
                {
                  "internalType": "string",
                  "name": "name",
                  "type": "string"
                },
                {
                  "internalType": "string",
                  "name": "symbol",
                  "type": "string"
                },
                {
                  "internalType": "address",
                  "name": "distributor",
                  "type": "address"
                },
                {
                  "internalType": "uint256",
                  "name": "initialSupply",
                  "type": "uint256"
                }
              ],
              "internalType": "struct ERC20Config",
              "name": "erc20Config",
              "type": "tuple"
            },
            {
              "internalType": "address",
              "name": "tier",
              "type": "address"
            },
            {
              "internalType": "uint256",
              "name": "minimumTier",
              "type": "uint256"
            },
            {
              "internalType": "address",
              "name": "distributionEndForwardingAddress",
              "type": "address"
            }
          ],
          "internalType": "struct SaleRedeemableERC20Config",
          "name": "saleRedeemableERC20Config_",
          "type": "tuple"
        }
      ],
      "name": "createChildTyped",
      "outputs": [
        {
          "internalType": "contract Sale",
          "name": "",
          "type": "address"
        }
      ],
      "stateMutability": "nonpayable",
      "type": "function"
    },
    {
      "inputs": [
        {
          "internalType": "address",
          "name": "maybeChild_",
          "type": "address"
        }
      ],
      "name": "isChild",
      "outputs": [
        {
          "internalType": "bool",
          "name": "",
          "type": "bool"
        }
      ],
      "stateMutability": "view",
      "type": "function"
    }
  ],
  "bytecode": "0x60a060405234801561001057600080fd5b50604051620073e3380380620073e383398101604081905261003191610137565b60016000908155604051829061004690610129565b81518152602080830151908201526040918201516001600160a01b031682820152905190819003606001906000f080158015610086573d6000803e3d6000fd5b5090506001600160a01b0381166100d65760405162461bcd60e51b815260206004820152601060248201526f182fa4a6a82622a6a2a72a20aa24a7a760811b604482015260640160405180910390fd5b604080513381526001600160a01b03831660208201527f7fac34ecf0b1b374cd9659e3d17db602659d53f1162b1f20142e6c02694aed70910160405180910390a16001600160a01b0316608052506101b0565b615eb0806200153383390190565b60006060828403121561014957600080fd5b604051606081016001600160401b038111828210171561017957634e487b7160e01b600052604160045260246000fd5b604090815283518252602080850151908301528301516001600160a01b03811681146101a457600080fd5b60408201529392505050565b608051611367620001cc600039600061034e01526113676000f3fe608060405234801561001057600080fd5b50600436106100415760003560e01c8063079fb762146100465780632ea72a4914610083578063fc91a89714610096575b600080fd5b6100596100543660046104e7565b6100df565b60405173ffffffffffffffffffffffffffffffffffffffff90911681526020015b60405180910390f35b61005961009136600461055b565b610185565b6100cf6100a43660046105fd565b73ffffffffffffffffffffffffffffffffffffffff1660009081526001602052604090205460ff1690565b604051901515815260200161007a565b60003073ffffffffffffffffffffffffffffffffffffffff16632ea72a4984846040516020016101109291906109a2565b6040516020818303038152906040526040518263ffffffff1660e01b815260040161013b9190610b37565b6020604051808303816000875af115801561015a573d6000803e3d6000fd5b505050506040513d601f19601f8201168201806040525081019061017e9190610b4a565b9392505050565b6000600260005414156101f9576040517f08c379a000000000000000000000000000000000000000000000000000000000815260206004820152601f60248201527f5265656e7472616e637947756172643a207265656e7472616e742063616c6c0060448201526064015b60405180910390fd5b6002600090815561020a8484610333565b73ffffffffffffffffffffffffffffffffffffffff811660009081526001602052604090205490915060ff161561029d576040517f08c379a000000000000000000000000000000000000000000000000000000000815260206004820152600f60248201527f4455504c49434154455f4348494c44000000000000000000000000000000000060448201526064016101f0565b73ffffffffffffffffffffffffffffffffffffffff811660008181526001602081815260409283902080547fffffffffffffffffffffffffffffffffffffffffffffffffffffffffffffff00169092179091558151338152908101929092527f7da70c4e5387d7038610b79ca7d304caaef815826e51e67cf247135387a79bce910160405180910390a160016000559392505050565b6000808061034384860186610f4a565b9150915060006103727f0000000000000000000000000000000000000000000000000000000000000000610405565b6040517f7939b0fe00000000000000000000000000000000000000000000000000000000815290915073ffffffffffffffffffffffffffffffffffffffff821690637939b0fe906103c9908690869060040161122c565b600060405180830381600087803b1580156103e357600080fd5b505af11580156103f7573d6000803e3d6000fd5b509298975050505050505050565b60006040517f3d602d80600a3d3981f3363d3d373d3d3d363d7300000000000000000000000081528260601b60148201527f5af43d82803e903d91602b57fd5bf3000000000000000000000000000000000060288201526037816000f091505073ffffffffffffffffffffffffffffffffffffffff81166104e2576040517f08c379a000000000000000000000000000000000000000000000000000000000815260206004820152601660248201527f455243313136373a20637265617465206661696c65640000000000000000000060448201526064016101f0565b919050565b600080604083850312156104fa57600080fd5b823567ffffffffffffffff8082111561051257600080fd5b90840190610120828703121561052757600080fd5b9092506020840135908082111561053d57600080fd5b5083016080818603121561055057600080fd5b809150509250929050565b6000806020838503121561056e57600080fd5b823567ffffffffffffffff8082111561058657600080fd5b818501915085601f83011261059a57600080fd5b8135818111156105a957600080fd5b8660208285010111156105bb57600080fd5b60209290920196919550909350505050565b73ffffffffffffffffffffffffffffffffffffffff811681146105ef57600080fd5b50565b80356104e2816105cd565b60006020828403121561060f57600080fd5b813561017e816105cd565b600082357fffffffffffffffffffffffffffffffffffffffffffffffffffffffffffffff8183360301811261064e57600080fd5b90910192915050565b60008083357fffffffffffffffffffffffffffffffffffffffffffffffffffffffffffffffe184360301811261068c57600080fd5b830160208101925035905067ffffffffffffffff8111156106ac57600080fd5b8060051b36038313156106be57600080fd5b9250929050565b8183528181602085013750600060208284010152600060207fffffffffffffffffffffffffffffffffffffffffffffffffffffffffffffffe0601f840116840101905092915050565b60008083357fffffffffffffffffffffffffffffffffffffffffffffffffffffffffffffffe184360301811261074357600080fd5b830160208101925035905067ffffffffffffffff81111561076357600080fd5b8036038313156106be57600080fd5b81835260007f07ffffffffffffffffffffffffffffffffffffffffffffffffffffffffffffff8311156107a457600080fd5b8260051b8083602087013760009401602001938452509192915050565b6000608083016107d18384610657565b608086528281845260a08701905060a08260051b88010193508260005b83811015610849577fffffffffffffffffffffffffffffffffffffffffffffffffffffffffffffff60898703018352610827828661070e565b6108328882846106c5565b9750505060209283019291909101906001016107ee565b505050505061085b6020840184610657565b858303602087015261086e838284610772565b9250505060408301356040850152606083013560608501528091505092915050565b600061089c828361061a565b608084526108aa818261070e565b6080808701526108bf610100870182846106c5565b9150506108cf602083018361070e565b7fffffffffffffffffffffffffffffffffffffffffffffffffffffffffffffff808784030160a08801526109048382846106c5565b925050506040820135610916816105cd565b73ffffffffffffffffffffffffffffffffffffffff1660c0860152606082013560e0860152610947602085016105f2565b73ffffffffffffffffffffffffffffffffffffffff8116602087015291506040840135604086015261097b606085016105f2565b73ffffffffffffffffffffffffffffffffffffffff8116606087015291505b949350505050565b6040815260006109b2848561061a565b6101208060408501526109c96101608501836107c1565b91506109d8602087018761061a565b7fffffffffffffffffffffffffffffffffffffffffffffffffffffffffffffffc080868503016060870152610a0d84836107c1565b9350610a1c604089018961061a565b91508086850301608087015250610a3383826107c1565b925050610a42606087016105f2565b73ffffffffffffffffffffffffffffffffffffffff1660a0850152610a69608087016105f2565b73ffffffffffffffffffffffffffffffffffffffff811660c08601525060a086013560e085015261010060c08701358186015260e0870135828601528087013561014086015250508281036020840152610ac38185610890565b95945050505050565b6000815180845260005b81811015610af257602081850181015186830182015201610ad6565b81811115610b04576000602083870101525b50601f017fffffffffffffffffffffffffffffffffffffffffffffffffffffffffffffffe0169290920160200192915050565b60208152600061017e6020830184610acc565b600060208284031215610b5c57600080fd5b815161017e816105cd565b7f4e487b7100000000000000000000000000000000000000000000000000000000600052604160045260246000fd5b6040516080810167ffffffffffffffff81118282101715610bb957610bb9610b67565b60405290565b604051610120810167ffffffffffffffff81118282101715610bb957610bb9610b67565b604051601f82017fffffffffffffffffffffffffffffffffffffffffffffffffffffffffffffffe016810167ffffffffffffffff81118282101715610c2a57610c2a610b67565b604052919050565b600067ffffffffffffffff821115610c4c57610c4c610b67565b5060051b60200190565b600067ffffffffffffffff831115610c7057610c70610b67565b610ca160207fffffffffffffffffffffffffffffffffffffffffffffffffffffffffffffffe0601f86011601610be3565b9050828152838383011115610cb557600080fd5b828260208301376000602084830101529392505050565b600082601f830112610cdd57600080fd5b81356020610cf2610ced83610c32565b610be3565b82815260059290921b84018101918181019086841115610d1157600080fd5b8286015b84811015610d2c5780358352918301918301610d15565b509695505050505050565b600060808284031215610d4957600080fd5b610d51610b96565b9050813567ffffffffffffffff80821115610d6b57600080fd5b818401915084601f830112610d7f57600080fd5b81356020610d8f610ced83610c32565b82815260059290921b84018101918181019088841115610dae57600080fd5b8286015b84811015610dfb57803586811115610dca5760008081fd5b8701603f81018b13610ddc5760008081fd5b610ded8b8683013560408401610c56565b845250918301918301610db2565b5086525085810135935082841115610e1257600080fd5b610e1e87858801610ccc565b8186015250505050604082013560408201526060820135606082015292915050565b600082601f830112610e5157600080fd5b61017e83833560208501610c56565b600060808284031215610e7257600080fd5b610e7a610b96565b9050813567ffffffffffffffff80821115610e9457600080fd5b9083019060808286031215610ea857600080fd5b610eb0610b96565b823582811115610ebf57600080fd5b610ecb87828601610e40565b825250602083013582811115610ee057600080fd5b610eec87828601610e40565b60208301525060408301359150610f02826105cd565b81604082015260608301356060820152808452505050610f24602083016105f2565b602082015260408201356040820152610f3f606083016105f2565b606082015292915050565b60008060408385031215610f5d57600080fd5b823567ffffffffffffffff80821115610f7557600080fd5b908401906101208287031215610f8a57600080fd5b610f92610bbf565b823582811115610fa157600080fd5b610fad88828601610d37565b825250602083013582811115610fc257600080fd5b610fce88828601610d37565b602083015250604083013582811115610fe657600080fd5b610ff288828601610d37565b604083015250611004606084016105f2565b6060820152611015608084016105f2565b608082015260a083013560a082015260c083013560c082015260e083013560e082015261010080840135818301525080945050602085013591508082111561105c57600080fd5b5061106985828601610e60565b9150509250929050565b600081518084526020808501945080840160005b838110156110a357815187529582019590820190600101611087565b509495945050505050565b60006080830182516080855281815180845260a08701915060a08160051b88010193506020808401935060005b82811015611127577fffffffffffffffffffffffffffffffffffffffffffffffffffffffffffffff60898703018452611115868651610acc565b955093810193928101926001016110db565b50808701519350878503818901525050506111428282611073565b91505060408301516040850152606083015160608501528091505092915050565b60008151608084528051608080860152611181610100860182610acc565b905060208201517fffffffffffffffffffffffffffffffffffffffffffffffffffffffffffffff808683030160a08701526111bc8282610acc565b915050604082015173ffffffffffffffffffffffffffffffffffffffff80821660c0880152606084015160e08801528060208701511660208801525050604084015160408601526060840151915061099a606086018373ffffffffffffffffffffffffffffffffffffffff169052565b604081526000835161012080604085015261124b6101608501836110ae565b915060208601517fffffffffffffffffffffffffffffffffffffffffffffffffffffffffffffffc08086850301606087015261128784836110ae565b93506040880151915080868503016080870152506112a583826110ae565b92505060608601516112cf60a086018273ffffffffffffffffffffffffffffffffffffffff169052565b50608086015173ffffffffffffffffffffffffffffffffffffffff811660c08601525060a086015160e085015260c0860151610100818187015260e088015183870152808801516101408701525050508281036020840152610ac3818561116356fea264697066735822122049cd0e8ecc281ef4efbb11dc5134ccb3c5859f7fbd6580028eea768665845e4864736f6c634300080a003361010060405260006001553480156200001757600080fd5b5060405162005eb038038062005eb08339810160408190526200003a916200012b565b6001600481905550600280600260066007600b600760046200005d9190620001a7565b620000699190620001a7565b620000759190620001a7565b620000819190620001a7565b6200008d9190620001a7565b620000999190620001a7565b620000a59190620001a7565b620000b2906005620001a7565b6080908152815160a0526020808301805160c052604080850180516001600160a01b0390811660e0528251338152875195810195909552925191840191909152511660608201527febb7bbe68143e887fe137da12458b32f7aec9b8aa0030b338fb7758a798daf9a910160405180910390a150620001ce565b6000606082840312156200013e57600080fd5b604051606081016001600160401b03811182821017156200016f57634e487b7160e01b600052604160045260246000fd5b604090815283518252602080850151908301528301516001600160a01b03811681146200019b57600080fd5b60408201529392505050565b60008219821115620001c957634e487b7160e01b600052601160045260246000fd5b500190565b60805160a05160c05160e051615ca16200020f6000396000610bde01526000610812015260006108ad0152600081816125ad01526125e80152615ca16000f3fe608060405234801561001057600080fd5b50600436106100df5760003560e01c8063be9a65551161008c578063ec30903811610066578063ec309038146101bf578063efbe1c1c146101c7578063f9020e33146101cf578063fc0c546a146101fa57600080fd5b8063be9a655514610165578063cd3293de1461016d578063d48827e9146101ac57600080fd5b80637939b0fe116100bd5780637939b0fe14610114578063abf3969e14610127578063ae1042651461014457600080fd5b806315a0ea6a146100e4578063504d14f8146100f957806370dea79a1461010c575b600080fd5b6100f76100f2366004614919565b610218565b005b6100f7610107366004614936565b61031b565b6100f7610597565b6100f7610122366004614d57565b6107cf565b61012f610d67565b60405190151581526020015b60405180910390f35b610157610152366004614e80565b610e30565b60405190815260200161013b565b6100f7610eb9565b600c5473ffffffffffffffffffffffffffffffffffffffff165b60405173ffffffffffffffffffffffffffffffffffffffff909116815260200161013b565b6100f76101ba366004614e99565b610f9b565b61012f61168b565b6100f76116e8565b600c5474010000000000000000000000000000000000000000900460ff1660405161013b9190614f7c565b60055473ffffffffffffffffffffffffffffffffffffffff16610187565b6002600c5474010000000000000000000000000000000000000000900460ff16600381111561024957610249614f12565b146102b5576040517f08c379a000000000000000000000000000000000000000000000000000000000815260206004820152600b60248201527f4e4f545f5355434345535300000000000000000000000000000000000000000060448201526064015b60405180910390fd5b73ffffffffffffffffffffffffffffffffffffffff811660009081526012602052604090205480156103175773ffffffffffffffffffffffffffffffffffffffff808316600090815260126020526040812055600c54610317911683836118b8565b5050565b6002600c5474010000000000000000000000000000000000000000900460ff16600381111561034c5761034c614f12565b14156103b4576040517f08c379a000000000000000000000000000000000000000000000000000000000815260206004820152600e60248201527f524546554e445f5355434345535300000000000000000000000000000000000060448201526064016102ac565b6003600c5474010000000000000000000000000000000000000000900460ff1660038111156103e5576103e5614f12565b146103f2576103f261198c565b336000908152601060209081526040808320905190929161041591859101614fd6565b604051602081830303815290604052805190602001208152602001908152602001600020600081548092919061044a90615013565b909155506000905061046460808301356060840135611b2b565b905080600f60008282546104789190615048565b925050819055508160600135600e6000828254610495919061505f565b9091555050604082018035906012906000906104b49060208701614919565b73ffffffffffffffffffffffffffffffffffffffff1673ffffffffffffffffffffffffffffffffffffffff16815260200190815260200160002060008282546104fd9190615048565b90915550506040517f92f85a40e83c8d882fe8d6e484c07c775950072962f3b22dd739834849a5a324906105349033908590615077565b60405180910390a16005546105659073ffffffffffffffffffffffffffffffffffffffff1633306060860135611b56565b6103173361057760408501358461505f565b600c5473ffffffffffffffffffffffffffffffffffffffff1691906118b8565b43600d5410610602576040517f08c379a000000000000000000000000000000000000000000000000000000000815260206004820152600d60248201527f4541524c595f54494d454f55540000000000000000000000000000000000000060448201526064016102ac565b6000600c5474010000000000000000000000000000000000000000900460ff16600381111561063357610633614f12565b148061066d57506001600c5474010000000000000000000000000000000000000000900460ff16600381111561066b5761066b614f12565b145b6106d3576040517f08c379a000000000000000000000000000000000000000000000000000000000815260206004820152600d60248201527f414c52454144595f454e4445440000000000000000000000000000000000000060448201526064016102ac565b6000600e55600c80547fffffffffffffffffffffff00ffffffffffffffffffffffffffffffffffffffff16740300000000000000000000000000000000000000001790556040805133815290517f71b8d288b6b795cd40378095d6a9c6466eb4a081c0238dfd691b0b1f5868f1809181900360200190a16005546040517f8b24259b00000000000000000000000000000000000000000000000000000000815230600482015273ffffffffffffffffffffffffffffffffffffffff90911690638b24259b90602401600060405180830381600087803b1580156107b557600080fd5b505af11580156107c9573d6000803e3d6000fd5b50505050565b60006107db6001611bb4565b9050801561081057600080547fffffffffffffffffffffffffffffffffffffffffffffffffffffffffffff00ff166101001790555b7f00000000000000000000000000000000000000000000000000000000000000008360c00151111561089e576040517f08c379a000000000000000000000000000000000000000000000000000000000815260206004820152600c60248201527f4d41585f434f4f4c444f574e000000000000000000000000000000000000000060448201526064016102ac565b6108ab8360c00151611d3f565b7f00000000000000000000000000000000000000000000000000000000000000008360a001511115610939576040517f08c379a000000000000000000000000000000000000000000000000000000000815260206004820152600b60248201527f4d41585f54494d454f555400000000000000000000000000000000000000000060448201526064016102ac565b60a0830151610948904361505f565b600d5560e08301516109b6576040517f08c379a000000000000000000000000000000000000000000000000000000000815260206004820152600b60248201527f4d494e5f52414953455f3000000000000000000000000000000000000000000060448201526064016102ac565b60e0830151600a5582516109d2906109cd90611dfa565b611f56565b600760006101000a81548173ffffffffffffffffffffffffffffffffffffffff021916908373ffffffffffffffffffffffffffffffffffffffff160217905550610a226109cd8460200151611dfa565b600860006101000a81548173ffffffffffffffffffffffffffffffffffffffff021916908373ffffffffffffffffffffffffffffffffffffffff160217905550610a726109cd8460400151611dfa565b600980547fffffffffffffffffffffffff000000000000000000000000000000000000000090811673ffffffffffffffffffffffffffffffffffffffff93841617909155606085015160068054909216908316179055610100840151600b55600c8054608086015183167fffffffffffffffffffffff0000000000000000000000000000000000000000009091161790558251604001511615610b71576040517f08c379a000000000000000000000000000000000000000000000000000000000815260206004820152600f60248201527f4449535452494255544f525f534554000000000000000000000000000000000060448201526064016102ac565b8151306040918201528251606090810151600e55815160a08101835260808087015173ffffffffffffffffffffffffffffffffffffffff908116835286516020808501919091528088015182168487015285880151848601529387015181169183019190915292516000937f00000000000000000000000000000000000000000000000000000000000000001692632ea72a4992610c1192909101615117565b6040516020818303038152906040526040518263ffffffff1660e01b8152600401610c3c9190615219565b6020604051808303816000875af1158015610c5b573d6000803e3d6000fd5b505050506040513d601f19601f82011682018060405250810190610c7f919061522c565b600580547fffffffffffffffffffffffff00000000000000000000000000000000000000001673ffffffffffffffffffffffffffffffffffffffff83161790556040519091507f887b6fed5d41b64af6f50c6d1010798acb0e93f4adea8213a06574ea968e5d2590610cf690339087908590615328565b60405180910390a1508015610d6257600080547fffffffffffffffffffffffffffffffffffffffffffffffffffffffffffff00ff169055604051600181527f7f26b83ff96e1f2b6a682f133852f6798a09c465da95921460cefb38474024989060200160405180910390a15b505050565b60006001600c5474010000000000000000000000000000000000000000900460ff166003811115610d9a57610d9a614f12565b1415610e2a576001600e541015610db15750600190565b600854600090610dd69073ffffffffffffffffffffffffffffffffffffffff16611fc4565b9050610df360405180602001604052806000815250826000612012565b6000816020015160018360000151610e0b9190615048565b81518110610e1b57610e1b61545c565b60200260200101511191505090565b50600090565b6009546000908190610e579073ffffffffffffffffffffffffffffffffffffffff16611fc4565b9050610e8683604051602001610e6f91815260200190565b604051602081830303815290604052826000612012565b60208101518151610e9990600190615048565b81518110610ea957610ea961545c565b6020026020010151915050919050565b610ec161168b565b610f27576040517f08c379a000000000000000000000000000000000000000000000000000000000815260206004820152600a60248201527f43414e545f53544152540000000000000000000000000000000000000000000060448201526064016102ac565b600c80547fffffffffffffffffffffff00ffffffffffffffffffffffffffffffffffffffff16740100000000000000000000000000000000000000001790556040805133815290517f84d0447ca38875fa61115673259a210915bc1dd53a3c112d6f0790f15956a9659181900360200190a1565b60035460009073ffffffffffffffffffffffffffffffffffffffff1615610fda5760035473ffffffffffffffffffffffffffffffffffffffff16611008565b600380547fffffffffffffffffffffffff000000000000000000000000000000000000000016339081179091555b73ffffffffffffffffffffffffffffffffffffffff811660009081526002602052604090205490915043101561109a576040517f08c379a000000000000000000000000000000000000000000000000000000000815260206004820152600860248201527f434f4f4c444f574e00000000000000000000000000000000000000000000000060448201526064016102ac565b6000600154436110aa919061505f565b73ffffffffffffffffffffffffffffffffffffffff8316600081815260026020908152604091829020849055815192835282018390529192507fdd9ec76fd04aab7ee6b385c04a7bdf966620500e72b134bfc3f19654fae20f25910160405180910390a16002600454141561117b576040517f08c379a000000000000000000000000000000000000000000000000000000000815260206004820152601f60248201527f5265656e7472616e637947756172643a207265656e7472616e742063616c6c0060448201526064016102ac565b600260045560408301516111eb576040517f08c379a000000000000000000000000000000000000000000000000000000000815260206004820152600960248201527f305f4d494e494d554d000000000000000000000000000000000000000000000060448201526064016102ac565b82606001518360400151111561125d576040517f08c379a000000000000000000000000000000000000000000000000000000000815260206004820152601460248201527f4d494e494d554d5f4f5645525f4445534952454400000000000000000000000060448201526064016102ac565b6001600c5474010000000000000000000000000000000000000000900460ff16600381111561128e5761128e614f12565b146112f5576040517f08c379a000000000000000000000000000000000000000000000000000000000815260206004820152600a60248201527f4e4f545f4143544956450000000000000000000000000000000000000000000060448201526064016102ac565b6000611310600e5485606001516121d890919063ffffffff16565b90508360400151811015611380576040517f08c379a000000000000000000000000000000000000000000000000000000000815260206004820152601260248201527f494e53554646494349454e545f53544f434b000000000000000000000000000060448201526064016102ac565b600061138b82610e30565b905084608001518111156113fb576040517f08c379a000000000000000000000000000000000000000000000000000000000815260206004820152600d60248201527f4d4158494d554d5f50524943450000000000000000000000000000000000000060448201526064016102ac565b60006114078284611b2b565b6040805160a081018252601180548083528a5173ffffffffffffffffffffffffffffffffffffffff166020808501919091528b01519383019390935260608201879052608082018690529293509160006114608361548b565b90915550503360009081526010602090815260408083209051909291611488918591016154c4565b60405160208183030381529060405280519060200120815260200190815260200160002060008154809291906114bd9061548b565b9091555050602080880151885173ffffffffffffffffffffffffffffffffffffffff1660009081526012909252604082208054919290916114ff90849061505f565b9250508190555083600e60008282546115189190615048565b9250508190555081600f6000828254611531919061505f565b9250508190555061156e333089602001518561154d919061505f565b600c5473ffffffffffffffffffffffffffffffffffffffff16929190611b56565b6005546115929073ffffffffffffffffffffffffffffffffffffffff1633866118b8565b6001600e5410156115aa576115a56116e8565b61161a565b600b54600e54101561161a576040517f08c379a00000000000000000000000000000000000000000000000000000000081526004016102ac9060208082526004908201527f4455535400000000000000000000000000000000000000000000000000000000604082015260600190565b7fde28bbdf409354cf811d2e1f52147a0a2a1b89be5848c4b5a41587f63b7cfa6a33888360405161164d93929190615513565b60405180910390a1505060016004555050600380547fffffffffffffffffffffffff0000000000000000000000000000000000000000169055505050565b600080600c5474010000000000000000000000000000000000000000900460ff1660038111156116bd576116bd614f12565b1415610e2a57600754600090610dd69073ffffffffffffffffffffffffffffffffffffffff16611fc4565b6116f0610d67565b611756576040517f08c379a000000000000000000000000000000000000000000000000000000000815260206004820152600860248201527f43414e545f454e4400000000000000000000000000000000000000000000000060448201526064016102ac565b600a54600f54101560008161176c57600361176f565b60025b6000600e55600c805491925082917fffffffffffffffffffffff00ffffffffffffffffffffffffffffffffffffffff16740100000000000000000000000000000000000000008360038111156117c7576117c7614f12565b02179055507f9aef4e6c636914c533cde859f632ab5e2b68cfd8f06b6a2e18f89783f00072cd33826040516117fd9291906155b6565b60405180910390a16005546040517f8b24259b00000000000000000000000000000000000000000000000000000000815230600482015273ffffffffffffffffffffffffffffffffffffffff90911690638b24259b90602401600060405180830381600087803b15801561187057600080fd5b505af1158015611884573d6000803e3d6000fd5b50505050811561031757600654600f54600c546103179273ffffffffffffffffffffffffffffffffffffffff918216929116905b60405173ffffffffffffffffffffffffffffffffffffffff8316602482015260448101829052610d629084907fa9059cbb00000000000000000000000000000000000000000000000000000000906064015b604080517fffffffffffffffffffffffffffffffffffffffffffffffffffffffffffffffe08184030181529190526020810180517bffffffffffffffffffffffffffffffffffffffffffffffffffffffff167fffffffff00000000000000000000000000000000000000000000000000000000909316929092179091526121ee565b60035460009073ffffffffffffffffffffffffffffffffffffffff16156119cb5760035473ffffffffffffffffffffffffffffffffffffffff166119f9565b600380547fffffffffffffffffffffffff000000000000000000000000000000000000000016339081179091555b73ffffffffffffffffffffffffffffffffffffffff8116600090815260026020526040902054909150431015611a8b576040517f08c379a000000000000000000000000000000000000000000000000000000000815260206004820152600860248201527f434f4f4c444f574e00000000000000000000000000000000000000000000000060448201526064016102ac565b600060015443611a9b919061505f565b73ffffffffffffffffffffffffffffffffffffffff8316600081815260026020908152604091829020849055815192835282018390529192507fdd9ec76fd04aab7ee6b385c04a7bdf966620500e72b134bfc3f19654fae20f25910160405180910390a15050600380547fffffffffffffffffffffffff0000000000000000000000000000000000000000169055565b6000611b396012600a615700565b611b43838561570c565b611b4d9190615778565b90505b92915050565b60405173ffffffffffffffffffffffffffffffffffffffff808516602483015283166044820152606481018290526107c99085907f23b872dd000000000000000000000000000000000000000000000000000000009060840161190a565b60008054610100900460ff1615611c6b578160ff166001148015611bd75750303b155b611c63576040517f08c379a000000000000000000000000000000000000000000000000000000000815260206004820152602e60248201527f496e697469616c697a61626c653a20636f6e747261637420697320616c72656160448201527f647920696e697469616c697a656400000000000000000000000000000000000060648201526084016102ac565b506000919050565b60005460ff808416911610611d02576040517f08c379a000000000000000000000000000000000000000000000000000000000815260206004820152602e60248201527f496e697469616c697a61626c653a20636f6e747261637420697320616c72656160448201527f647920696e697469616c697a656400000000000000000000000000000000000060648201526084016102ac565b50600080547fffffffffffffffffffffffffffffffffffffffffffffffffffffffffffffff001660ff92909216919091179055600190565b919050565b60008111611da9576040517f08c379a000000000000000000000000000000000000000000000000000000000815260206004820152600a60248201527f434f4f4c444f574e5f300000000000000000000000000000000000000000000060448201526064016102ac565b60015415611db957611db961578c565b600181905560408051338152602081018390527f6153539ba1c54ed4ef5b6f1fda4b7183eeaa1b5707c152abed56f61e09452521910160405180910390a150565b611e2c6040518060a0016040528060008152602001606081526020016060815260200160608152602001606081525090565b815151611e95576040517f08c379a000000000000000000000000000000000000000000000000000000000815260206004820152600960248201527f305f534f5552434553000000000000000000000000000000000000000000000060448201526064016102ac565b6040518060a0016040528060008152602001836040015167ffffffffffffffff811115611ec457611ec4614948565b604051908082528060200260200182016040528015611eed578160200160208202803683370190505b5081526020018360000151815260200183602001518152602001836060015167ffffffffffffffff811115611f2457611f24614948565b604051908082528060200260200182016040528015611f4d578160200160208202803683370190505b50905292915050565b600080611f8183604051602001611f6d9190615827565b6040516020818303038152906040526122fa565b90507ff95eed63f55d96a35306669cc3b5f652f8d44552e3e4b17b2f78f13571114abd338285604051611fb69392919061583a565b60405180910390a192915050565b611ff66040518060a0016040528060008152602001606081526020016060815260200160608152602001606081525090565b611fff82612385565b806020019051810190611b50919061598a565b602082810151604084015183830201909101516060840151608085015182516000948594859492939092915b848810156121cb576002880197508784015180601e1a975080601f1a96505060058710156121bf5760018714156120a157816080871661207b5750825b8a516020607f89160260200182015160208202602001840152600181018c52505061203e565b60028714156120cc5789516020870260200182015160208202602001830152600181018b525061203e565b60038714156120e5576120e08b8b886123b3565b61203e565b6004871415612116576120e08a6040516020016121029190615827565b604051602081830303815290604052612519565b607f6101fe600188901b161786166080871615612182578a517fffffffffffffffffffffffffffffffffffffffffffffffffffffffffffffffff01808c5260208c01518051909190811061216c5761216c61545c565b602002602001015160001415612182575061203e565b8060000b6000146121b95760008160000b12156121ad57801960020160020260ff16890398506121b9565b8060020260ff16890198505b5061203e565b6120e08b8b89896125ab565b5050505050505050505050565b60008183106121e75781611b4d565b5090919050565b6000612250826040518060400160405280602081526020017f5361666545524332303a206c6f772d6c6576656c2063616c6c206661696c65648152508573ffffffffffffffffffffffffffffffffffffffff166127a79092919063ffffffff16565b805190915015610d62578080602001905181019061226e9190615a6d565b610d62576040517f08c379a000000000000000000000000000000000000000000000000000000000815260206004820152602a60248201527f5361666545524332303a204552433230206f7065726174696f6e20646964206e60448201527f6f7420737563636565640000000000000000000000000000000000000000000060648201526084016102ac565b600080612325836040516020016123119190615a8f565b6040516020818303038152906040526127c0565b90508051602082016000f0915073ffffffffffffffffffffffffffffffffffffffff821661237f576040517f08d4abb600000000000000000000000000000000000000000000000000000000815260040160405180910390fd5b50919050565b6060611b508260017fffffffffffffffffffffffffffffffffffffffffffffffffffffffffffffffff6127ec565b81517fffffffffffffffffffffffffffffffffffffffffffffffffffffffffffffffff600583901c918290030183526007821690610100600384811c1681901c91908290039060010160008167ffffffffffffffff81111561241757612417614948565b604051908082528060200260200182016040528015612440578160200160208202803683370190505b50905060005b82811015612497578760200151818960000151018151811061246a5761246a61545c565b60200260200101518282815181106124845761248461545c565b6020908102919091010152600101612446565b5060005b61010081101561250e5760005b838110156124fb57848286038483815181106124c6576124c661545c565b6020026020010151901b901c896080015182815181106124e8576124e861545c565b60209081029190910101526001016124a8565b50612507898988612012565b840161249b565b505050505050505050565b6125a88160405160240161252d9190615219565b604080517fffffffffffffffffffffffffffffffffffffffffffffffffffffffffffffffe08184030181529190526020810180517bffffffffffffffffffffffffffffffffffffffffffffffffffffffff167f0be77f56000000000000000000000000000000000000000000000000000000001790526128d4565b50565b7f00000000000000000000000000000000000000000000000000000000000000008210156125e6576125e18360058403836128f5565b6107c9565b7f00000000000000000000000000000000000000000000000000000000000000008203915060058210612675576040517f08c379a000000000000000000000000000000000000000000000000000000000815260206004820152600a60248201527f4d41585f4f50434f44450000000000000000000000000000000000000000000060448201526064016102ac565b816126a557600e5460208401518451815181106126945761269461545c565b60200260200101818152505061279b565b60018214156126c857600f5460208401518451815181106126945761269461545c565b6002821415612716576000848060200190518101906126e79190615ab5565b90508084602001518560000151815181106127045761270461545c565b6020026020010181815250505061279b565b60038214156127525760055460208401518451815173ffffffffffffffffffffffffffffffffffffffff9093169281106126945761269461545c565b600482141561279b57600c5460208401518451815173ffffffffffffffffffffffffffffffffffffffff90931692811061278e5761278e61545c565b6020026020010181815250505b50508051600101905250565b60606127b68484600085612a5b565b90505b9392505050565b60608151826040516020016127d6929190615ace565b6040516020818303038152906040529050919050565b6060833b8061280b5750506040805160208101909152600081526127b9565b808411156128295750506040805160208101909152600081526127b9565b83831015612874576040517f2c4a89fa0000000000000000000000000000000000000000000000000000000081526004810182905260248101859052604481018490526064016102ac565b8383038482036000828210612889578261288b565b815b60408051603f83017fffffffffffffffffffffffffffffffffffffffffffffffffffffffffffffffe0168101909152818152955090508087602087018a3c505050509392505050565b80516a636f6e736f6c652e6c6f67602083016000808483855afa5050505050565b600482101561290957610d62838383612bf3565b601d82101561298c57600b82101561292957610d62836004840383612d09565b601682101561295f57610d62837ffffffffffffffffffffffffffffffffffffffffffffffffffffffffffffffff5840183613037565b610d62837fffffffffffffffffffffffffffffffffffffffffffffffffffffffffffffffea84018361346e565b60238210156129c257610d62837fffffffffffffffffffffffffffffffffffffffffffffffffffffffffffffffe3840183613680565b60258210156129f857610d62837fffffffffffffffffffffffffffffffffffffffffffffffffffffffffffffffdd840183613b54565b6027821015612a2e57610d62837fffffffffffffffffffffffffffffffffffffffffffffffffffffffffffffffdb840183613d88565b610d62837fffffffffffffffffffffffffffffffffffffffffffffffffffffffffffffffd9840183613f37565b606082471015612aed576040517f08c379a000000000000000000000000000000000000000000000000000000000815260206004820152602660248201527f416464726573733a20696e73756666696369656e742062616c616e636520666f60448201527f722063616c6c000000000000000000000000000000000000000000000000000060648201526084016102ac565b73ffffffffffffffffffffffffffffffffffffffff85163b612b6b576040517f08c379a000000000000000000000000000000000000000000000000000000000815260206004820152601d60248201527f416464726573733a2063616c6c20746f206e6f6e2d636f6e747261637400000060448201526064016102ac565b6000808673ffffffffffffffffffffffffffffffffffffffff168587604051612b949190615b65565b60006040518083038185875af1925050503d8060008114612bd1576040519150601f19603f3d011682016040523d82523d6000602084013e612bd6565b606091505b5091509150612be68282866143a4565b925050505b949350505050565b60048210612c5d576040517f08c379a000000000000000000000000000000000000000000000000000000000815260206004820152600a60248201527f4d41585f4f50434f44450000000000000000000000000000000000000000000060448201526064016102ac565b81612c8e57438360200151846000015181518110612c7d57612c7d61545c565b602002602001018181525050612cfe565b6001821415612cb257428360200151846000015181518110612c7d57612c7d61545c565b6002821415612cd657602083015183518151339291908110612c7d57612c7d61545c565b602083015183518151309291908110612cf157612cf161545c565b6020026020010181815250505b505080516001019052565b60078210612d73576040517f08c379a000000000000000000000000000000000000000000000000000000000815260206004820152600a60248201527f4d41585f4f50434f44450000000000000000000000000000000000000000000060448201526064016102ac565b6002821015612ebf5782517ffffffffffffffffffffffffffffffffffffffffffffffffffffffffffffffffe0182612e1e5783602001518160010181518110612dbe57612dbe61545c565b6020026020010151612df68386602001518481518110612de057612de061545c565b60200260200101516143f790919063ffffffff16565b0284602001518281518110612e0d57612e0d61545c565b602002602001018181525050612e93565b6001831415612e935783602001518160010181518110612e4057612e4061545c565b6020026020010151612e628386602001518481518110612de057612de061545c565b81612e6f57612e6f615749565b0484602001518281518110612e8657612e8661545c565b6020026020010181815250505b5082517fffffffffffffffffffffffffffffffffffffffffffffffffffffffffffffffff018352505050565b6005821015612fd05782517fffffffffffffffffffffffffffffffffffffffffffffffffffffffffffffffff016002831415612f3657612f0f8285602001518381518110612de057612de061545c565b84602001518281518110612f2557612f2561545c565b6020026020010181815250506107c9565b6003831415612f6f57612f0f8285602001518381518110612f5957612f5961545c565b602002602001015161445990919063ffffffff16565b60048314156107c957612fa88285602001518381518110612f9257612f9261545c565b602002602001015161448a90919063ffffffff16565b84602001518281518110612fbe57612fbe61545c565b60200260200101818152505050505050565b600582141561301257602083015183518151670de0b6b3a76400009291908110612ffc57612ffc61545c565b6020908102919091010152505080516001019052565b6006821415610d625760128360200151846000015181518110612cf157612cf161545c565b600b82106130a1576040517f08c379a000000000000000000000000000000000000000000000000000000000815260206004820152600a60248201527f4d41585f4f50434f44450000000000000000000000000000000000000000000060448201526064016102ac565b825160208401518051838303927fffffffffffffffffffffffffffffffffffffffffffffffffffffffffffffffff0191839160009190839081106130e7576130e761545c565b60200260200101519050600086141561313f575b8282101561313a5760208701518051600190930192839081106131205761312061545c565b602002602001015181613133919061505f565b90506130fb565b61343f565b6001861415613190575b8282101561313a578180600101925050613189876020015183815181106131725761317261545c565b6020026020010151826144c890919063ffffffff16565b9050613149565b60028614156131d9575b8282101561313a5760208701518051600190930192839081106131bf576131bf61545c565b6020026020010151816131d29190615048565b905061319a565b600386141561322a575b8282101561313a5781806001019250506132238760200151838151811061320c5761320c61545c565b60200260200101518261450390919063ffffffff16565b90506131e3565b6004861415613273575b8282101561313a5760208701518051600190930192839081106132595761325961545c565b60200260200101518161326c919061570c565b9050613234565b60058614156132c4575b8282101561313a5781806001019250506132bd876020015183815181106132a6576132a661545c565b60200260200101518261451990919063ffffffff16565b905061327d565b600686141561330d575b8282101561313a5760208701518051600190930192839081106132f3576132f361545c565b6020026020010151816133069190615778565b90506132ce565b6007861415613356575b8282101561313a57602087015180516001909301928390811061333c5761333c61545c565b60200260200101518161334f9190615b81565b9050613317565b600886141561339f575b8282101561313a5760208701518051600190930192839081106133855761338561545c565b6020026020010151816133989190615700565b9050613360565b60098614156133f15760005b838310156133eb5760208801518051600190940193849081106133d0576133d061545c565b60200260200101519050818110156133e6578091505b6133ab565b5061343f565b600a86141561343f5760005b8383101561343d5760208801518051600190940193849081106134225761342261545c565b6020026020010151905081811115613438578091505b6133fd565b505b80876020015185815181106134565761345661545c565b60209081029190910101525050506001019092525050565b600782106134d8576040517f08c379a000000000000000000000000000000000000000000000000000000000815260206004820152600a60248201527f4d41585f4f50434f44450000000000000000000000000000000000000000000060448201526064016102ac565b82516020808501518183020101838015613521576001811461354e57600281146135b957600381146135d357600481146135ed5760058114613607576006811461363f57613678565b7fffffffffffffffffffffffffffffffffffffffffffffffffffffffffffffffe082018051159052613678565b7ffffffffffffffffffffffffffffffffffffffffffffffffffffffffffffffffe830186527fffffffffffffffffffffffffffffffffffffffffffffffffffffffffffffffa08201805180156135aa57602082015182526135b2565b604082015182525b5050613678565b600183038652604082036020810151815114815250613678565b600183038652604082036020810151815110815250613678565b600183038652604082036020810151815111815250613678565b831561363a576001840383038652602084028203805b838110156135b2578051613632575060008152825b60200161361d565b613678565b8315613678576001840383038652602084028203805b83811015613675578051801561366c578491508083525b50602001613655565b50505b505050505050565b600682106136ea576040517f08c379a000000000000000000000000000000000000000000000000000000000815260206004820152600a60248201527f4d41585f4f50434f44450000000000000000000000000000000000000000000060448201526064016102ac565b600082613812575082517fffffffffffffffffffffffffffffffffffffffffffffffffffffffffffffffff81018452602084015180517ffffffffffffffffffffffffffffffffffffffffffffffffffffffffffffffffe90920191829081106137555761375561545c565b602002602001015173ffffffffffffffffffffffffffffffffffffffff1663e053ea31856020015183600101815181106137915761379161545c565b60200260200101516040518263ffffffff1660e01b81526004016137d1919073ffffffffffffffffffffffffffffffffffffffff91909116815260200190565b602060405180830381865afa1580156137ee573d6000803e3d6000fd5b505050506040513d601f19601f82011682018060405250810190612f0f9190615ab5565b600183141561386d577fffffffffffffffffffffffffffffffffffffffffffffffffffffffffffffffff84602001518560000151815181106138565761385661545c565b6020908102919091010152835160010184526107c9565b600283141561389257600084602001518560000151815181106138565761385661545c565b6003831415613946575082517ffffffffffffffffffffffffffffffffffffffffffffffffffffffffffffffffe018084526020840151805160009190839081106138de576138de61545c565b602002602001015190506000856020015183600101815181106139035761390361545c565b602002602001015190506139178282614548565b8660200151848151811061392d5761392d61545c565b60209081029190910101525050835160010184526107c9565b6004831415613a0e575082517ffffffffffffffffffffffffffffffffffffffffffffffffffffffffffffffffe0180845260208401518051600f80851692600486901c9091169160009190859081106139a1576139a161545c565b602002602001015190506000876020015185600101815181106139c6576139c661545c565b602002602001015190506139dc828585846145a7565b886020015186815181106139f2576139f261545c565b6020908102919091010152505085516001018652506107c99050565b60058314156107c9575082517fffffffffffffffffffffffffffffffffffffffffffffffffffffffffffffffff601f8316918290030180855290600783901c906003600585901c16908360008267ffffffffffffffff811115613a7357613a73614948565b604051908082528060200260200182016040528015613a9c578160200160208202803683370190505b50905060005b83811015613af15789602001518381518110613ac057613ac061545c565b6020026020010151828281518110613ada57613ada61545c565b602090810291909101015260019283019201613aa2565b50600089602001518381518110613b0a57613b0a61545c565b60200260200101519050613b208282888861464d565b8a602001518881518110613b3657613b3661545c565b60209081029190910101525050875160010188525050505050505050565b60028210613bbe576040517f08c379a000000000000000000000000000000000000000000000000000000000815260206004820152600a60248201527f4d41585f4f50434f44450000000000000000000000000000000000000000000060448201526064016102ac565b81613d105782517fffffffffffffffffffffffffffffffffffffffffffffffffffffffffffffffff810184526020840151805190917ffffffffffffffffffffffffffffffffffffffffffffffffffffffffffffffffe01908110613c2457613c2461545c565b602002602001015173ffffffffffffffffffffffffffffffffffffffff166370a082318460200151856000015181518110613c6157613c6161545c565b60200260200101516040518263ffffffff1660e01b8152600401613ca1919073ffffffffffffffffffffffffffffffffffffffff91909116815260200190565b602060405180830381865afa158015613cbe573d6000803e3d6000fd5b505050506040513d601f19601f82011682018060405250810190613ce29190615ab5565b8360200151600185600001510381518110613cff57613cff61545c565b602002602001018181525050505050565b6001821415610d62578260200151600184600001510381518110613d3657613d3661545c565b602002602001015173ffffffffffffffffffffffffffffffffffffffff166318160ddd6040518163ffffffff1660e01b8152600401602060405180830381865afa158015613cbe573d6000803e3d6000fd5b60028210613df2576040517f08c379a000000000000000000000000000000000000000000000000000000000815260206004820152600a60248201527f4d41585f4f50434f44450000000000000000000000000000000000000000000060448201526064016102ac565b82517fffffffffffffffffffffffffffffffffffffffffffffffffffffffffffffffff01835281613e3a578260200151600184600001510381518110613c2457613c2461545c565b6001821415610d62578260200151600184600001510381518110613e6057613e6061545c565b602002602001015173ffffffffffffffffffffffffffffffffffffffff16636352211e8460200151856000015181518110613e9d57613e9d61545c565b60200260200101516040518263ffffffff1660e01b8152600401613ec391815260200190565b602060405180830381865afa158015613ee0573d6000803e3d6000fd5b505050506040513d601f19601f82011682018060405250810190613f04919061522c565b73ffffffffffffffffffffffffffffffffffffffff168360200151600185600001510381518110613cff57613cff61545c565b60028210613fa1576040517f08c379a000000000000000000000000000000000000000000000000000000000815260206004820152600a60248201527f4d41585f4f50434f44450000000000000000000000000000000000000000000060448201526064016102ac565b816140ec5782517ffffffffffffffffffffffffffffffffffffffffffffffffffffffffffffffffe81018452602084015180517ffffffffffffffffffffffffffffffffffffffffffffffffffffffffffffffffd90920191829081106140095761400961545c565b602002602001015173ffffffffffffffffffffffffffffffffffffffff1662fdd58e856020015183600101815181106140445761404461545c565b6020026020010151866020015184600201815181106140655761406561545c565b60200260200101516040518363ffffffff1660e01b81526004016140ab92919073ffffffffffffffffffffffffffffffffffffffff929092168252602082015260400190565b602060405180830381865afa1580156140c8573d6000803e3d6000fd5b505050506040513d601f19601f82011682018060405250810190612fa89190615ab5565b6001821415610d62576001810160008167ffffffffffffffff81111561411457614114614948565b60405190808252806020026020018201604052801561413d578160200160208202803683370190505b50905060008267ffffffffffffffff81111561415b5761415b614948565b604051908082528060200260200182016040528015614184578160200160208202803683370190505b5086518490037fffffffffffffffffffffffffffffffffffffffffffffffffffffffffffffffff81810189526020890151805193945091869003019160009190839081106141d4576141d461545c565b6020026020010151905060005b8581101561428b578860200151818401600101815181106142045761420461545c565b602002602001015185828151811061421e5761421e61545c565b73ffffffffffffffffffffffffffffffffffffffff9092166020928302919091018201528901518051600185890184010190811061425e5761425e61545c565b60200260200101518482815181106142785761427861545c565b60209081029190910101526001016141e1565b506040517f4e1273f400000000000000000000000000000000000000000000000000000000815260009073ffffffffffffffffffffffffffffffffffffffff831690634e1273f4906142e39088908890600401615b95565b600060405180830381865afa158015614300573d6000803e3d6000fd5b505050506040513d6000823e601f3d9081017fffffffffffffffffffffffffffffffffffffffffffffffffffffffffffffffe01682016040526143469190810190615c02565b905060005b86811015614398578181815181106143655761436561545c565b60200260200101518a60200151828601815181106143855761438561545c565b602090810291909101015260010161434b565b50505050505050505050565b606083156143b35750816127b9565b8251156143c35782518084602001fd5b816040517f08c379a00000000000000000000000000000000000000000000000000000000081526004016102ac9190615219565b60008160121415614409575081611b50565b81601211156144395761441d826012615048565b61442890600a615700565b614432908461570c565b9050611b50565b614444601283615048565b61444f90600a615700565b6144329084615778565b6000601282141561446b575081611b50565b816012111561447f57614444826012615048565b61441d601283615048565b600081810b61449a575081611b50565b60008260000b13156144b15761442882600a615c37565b6144bd82196001615c46565b61444f90600a615c37565b60008282018381106144da5780612beb565b7fffffffffffffffffffffffffffffffffffffffffffffffffffffffffffffffff949350505050565b6000818311614513576000611b4d565b50900390565b60008261452857506000611b50565b8282028284828161453b5761453b615749565b0414156144da5780612beb565b60008060015b6008811161459f576000614562868361479d565b90506000614570868461479d565b9050600061457e8383614503565b905061458e856001860383614852565b9450506001909201915061454e9050565b509392505050565b6000826008811115614615576040517f08c379a000000000000000000000000000000000000000000000000000000000815260206004820152600860248201527f4d41585f5449455200000000000000000000000000000000000000000000000060448201526064016102ac565b6000855b858110156146415763ffffffff6020820290811b199890981685891b17979150600101614619565b50959695505050505050565b835160009081908190819060015b6008811161478f5760009250828761469457507fffffffffffffffffffffffffffffffffffffffffffffffffffffffffffffffff614698565b5060005b60005b8381101561474d576146c68c82815181106146b8576146b861545c565b60200260200101518461479d565b95508a861161471857886146e5576146de86836121d8565b915061470f565b60018914156146f8576146de86836148dc565b600289148015614706575084155b1561470f578591505b60019450614745565b89614745577fffffffffffffffffffffffffffffffffffffffffffffffffffffffffffffffff915061474d565b60010161469b565b508361477657507fffffffffffffffffffffffffffffffffffffffffffffffffffffffffffffffff5b614784866001840383614852565b95505060010161465b565b509298975050505050505050565b600081600881111561480b576040517f08c379a000000000000000000000000000000000000000000000000000000000815260206004820152600860248201527f4d41585f5449455200000000000000000000000000000000000000000000000060448201526064016102ac565b82614819576000915061484b565b63ffffffff60207fffffffffffffffffffffffffffffffffffffffffffffffffffffffffffffffff85010285901c1691505b5092915050565b60008260088111156148c0576040517f08c379a000000000000000000000000000000000000000000000000000000000815260206004820152600860248201527f4d41585f5449455200000000000000000000000000000000000000000000000060448201526064016102ac565b505060209190910290811b63ffffffff90911b19919091161790565b6000818310156121e75781611b4d565b73ffffffffffffffffffffffffffffffffffffffff811681146125a857600080fd5b8035611d3a816148ec565b60006020828403121561492b57600080fd5b81356127b9816148ec565b600060a0828403121561237f57600080fd5b7f4e487b7100000000000000000000000000000000000000000000000000000000600052604160045260246000fd5b6040516080810167ffffffffffffffff8111828210171561499a5761499a614948565b60405290565b604051610120810167ffffffffffffffff8111828210171561499a5761499a614948565b60405160a0810167ffffffffffffffff8111828210171561499a5761499a614948565b604051601f82017fffffffffffffffffffffffffffffffffffffffffffffffffffffffffffffffe016810167ffffffffffffffff81118282101715614a2e57614a2e614948565b604052919050565b600067ffffffffffffffff821115614a5057614a50614948565b5060051b60200190565b600067ffffffffffffffff821115614a7457614a74614948565b50601f017fffffffffffffffffffffffffffffffffffffffffffffffffffffffffffffffe01660200190565b6000614ab3614aae84614a5a565b6149e7565b9050828152838383011115614ac757600080fd5b828260208301376000602084830101529392505050565b600082601f830112614aef57600080fd5b81356020614aff614aae83614a36565b82815260059290921b84018101918181019086841115614b1e57600080fd5b8286015b84811015614b395780358352918301918301614b22565b509695505050505050565b600060808284031215614b5657600080fd5b614b5e614977565b9050813567ffffffffffffffff80821115614b7857600080fd5b818401915084601f830112614b8c57600080fd5b81356020614b9c614aae83614a36565b82815260059290921b84018101918181019088841115614bbb57600080fd5b8286015b84811015614c0857803586811115614bd75760008081fd5b8701603f81018b13614be95760008081fd5b614bfa8b8683013560408401614aa0565b845250918301918301614bbf565b5086525085810135935082841115614c1f57600080fd5b614c2b87858801614ade565b8186015250505050604082013560408201526060820135606082015292915050565b600082601f830112614c5e57600080fd5b611b4d83833560208501614aa0565b600060808284031215614c7f57600080fd5b614c87614977565b9050813567ffffffffffffffff80821115614ca157600080fd5b9083019060808286031215614cb557600080fd5b614cbd614977565b823582811115614ccc57600080fd5b614cd887828601614c4d565b825250602083013582811115614ced57600080fd5b614cf987828601614c4d565b60208301525060408301359150614d0f826148ec565b81604082015260608301356060820152808452505050614d316020830161490e565b602082015260408201356040820152614d4c6060830161490e565b606082015292915050565b60008060408385031215614d6a57600080fd5b823567ffffffffffffffff80821115614d8257600080fd5b908401906101208287031215614d9757600080fd5b614d9f6149a0565b823582811115614dae57600080fd5b614dba88828601614b44565b825250602083013582811115614dcf57600080fd5b614ddb88828601614b44565b602083015250604083013582811115614df357600080fd5b614dff88828601614b44565b604083015250614e116060840161490e565b6060820152614e226080840161490e565b608082015260a083013560a082015260c083013560c082015260e083013560e0820152610100808401358183015250809450506020850135915080821115614e6957600080fd5b50614e7685828601614c6d565b9150509250929050565b600060208284031215614e9257600080fd5b5035919050565b600060a08284031215614eab57600080fd5b60405160a0810181811067ffffffffffffffff82111715614ece57614ece614948565b6040528235614edc816148ec565b80825250602083013560208201526040830135604082015260608301356060820152608083013560808201528091505092915050565b7f4e487b7100000000000000000000000000000000000000000000000000000000600052602160045260246000fd5b60048110614f78577f4e487b7100000000000000000000000000000000000000000000000000000000600052602160045260246000fd5b9052565b60208101611b508284614f41565b803582526020810135614f9c816148ec565b73ffffffffffffffffffffffffffffffffffffffff1660208301526040818101359083015260608082013590830152608090810135910152565b60a08101611b508284614f8a565b7f4e487b7100000000000000000000000000000000000000000000000000000000600052601160045260246000fd5b60008161502257615022614fe4565b507fffffffffffffffffffffffffffffffffffffffffffffffffffffffffffffffff0190565b60008282101561505a5761505a614fe4565b500390565b6000821982111561507257615072614fe4565b500190565b73ffffffffffffffffffffffffffffffffffffffff8316815260c081016127b96020830184614f8a565b60005b838110156150bc5781810151838201526020016150a4565b838111156107c95750506000910152565b600081518084526150e58160208601602086016150a1565b601f017fffffffffffffffffffffffffffffffffffffffffffffffffffffffffffffffe0169290920160200192915050565b60208152600073ffffffffffffffffffffffffffffffffffffffff808451166020840152602084015160a060408501528051608060c086015261515e6101408601826150cd565b905060208201517fffffffffffffffffffffffffffffffffffffffffffffffffffffffffffffff408683030160e087015261519982826150cd565b915050826040830151166101008601526060820151610120860152604086015192506151dd606086018473ffffffffffffffffffffffffffffffffffffffff169052565b606086015160808601526080860151925061521060a086018473ffffffffffffffffffffffffffffffffffffffff169052565b95945050505050565b602081526000611b4d60208301846150cd565b60006020828403121561523e57600080fd5b81516127b9816148ec565b600081518084526020808501808196508360051b8101915082860160005b8581101561529157828403895261527f8483516150cd565b98850198935090840190600101615267565b5091979650505050505050565b600081518084526020808501945080840160005b838110156152ce578151875295820195908201906001016152b2565b509495945050505050565b60008151608084526152ee6080850182615249565b905060208301518482036020860152615307828261529e565b91505060408301516040850152606083015160608501528091505092915050565b73ffffffffffffffffffffffffffffffffffffffff8416815260606020820152600083516101208060608501526153636101808501836152d9565b915060208601517fffffffffffffffffffffffffffffffffffffffffffffffffffffffffffffffa08086850301608087015261539f84836152d9565b935060408801519150808685030160a0870152506153bd83826152d9565b92505060608601516153e760c086018273ffffffffffffffffffffffffffffffffffffffff169052565b50608086015173ffffffffffffffffffffffffffffffffffffffff811660e08601525060a08601516101008581019190915260c08701519185019190915260e086015161014085015285015161016084015273ffffffffffffffffffffffffffffffffffffffff841660408401529050612beb565b7f4e487b7100000000000000000000000000000000000000000000000000000000600052603260045260246000fd5b60007fffffffffffffffffffffffffffffffffffffffffffffffffffffffffffffffff8214156154bd576154bd614fe4565b5060010190565b60a08101611b5082848051825273ffffffffffffffffffffffffffffffffffffffff60208201511660208301526040810151604083015260608101516060830152608081015160808301525050565b60006101608201905073ffffffffffffffffffffffffffffffffffffffff808616835280855116602084015250602084015160408301526040840151606083015260608401516080830152608084015160a0830152612beb60c08301848051825273ffffffffffffffffffffffffffffffffffffffff60208201511660208301526040810151604083015260608101516060830152608081015160808301525050565b73ffffffffffffffffffffffffffffffffffffffff83168152604081016127b96020830184614f41565b600181815b8085111561563957817fffffffffffffffffffffffffffffffffffffffffffffffffffffffffffffffff0482111561561f5761561f614fe4565b8085161561562c57918102915b93841c93908002906155e5565b509250929050565b60008261565057506001611b50565b8161565d57506000611b50565b8160018114615673576002811461567d57615699565b6001915050611b50565b60ff84111561568e5761568e614fe4565b50506001821b611b50565b5060208310610133831016604e8410600b84101617156156bc575081810a611b50565b6156c683836155e0565b807fffffffffffffffffffffffffffffffffffffffffffffffffffffffffffffffff048211156156f8576156f8614fe4565b029392505050565b6000611b4d8383615641565b6000817fffffffffffffffffffffffffffffffffffffffffffffffffffffffffffffffff048311821515161561574457615744614fe4565b500290565b7f4e487b7100000000000000000000000000000000000000000000000000000000600052601260045260246000fd5b60008261578757615787615749565b500490565b7f4e487b7100000000000000000000000000000000000000000000000000000000600052600160045260246000fd5b805182526000602082015160a060208501526157da60a085018261529e565b9050604083015184820360408601526157f38282615249565b9150506060830151848203606086015261580d828261529e565b91505060808301518482036080860152615210828261529e565b602081526000611b4d60208301846157bb565b600073ffffffffffffffffffffffffffffffffffffffff80861683528085166020840152506060604083015261521060608301846157bb565b600082601f83011261588457600080fd5b81516020615894614aae83614a36565b82815260059290921b840181019181810190868411156158b357600080fd5b8286015b84811015614b3957805183529183019183016158b7565b600082601f8301126158df57600080fd5b815160206158ef614aae83614a36565b82815260059290921b8401810191818101908684111561590e57600080fd5b8286015b84811015614b3957805167ffffffffffffffff8111156159325760008081fd5b8701603f810189136159445760008081fd5b848101516040615956614aae83614a5a565b8281528b8284860101111561596b5760008081fd5b61597a838983018487016150a1565b8652505050918301918301615912565b60006020828403121561599c57600080fd5b815167ffffffffffffffff808211156159b457600080fd5b9083019060a082860312156159c857600080fd5b6159d06149c4565b825181526020830151828111156159e657600080fd5b6159f287828601615873565b602083015250604083015182811115615a0a57600080fd5b615a16878286016158ce565b604083015250606083015182811115615a2e57600080fd5b615a3a87828601615873565b606083015250608083015182811115615a5257600080fd5b615a5e87828601615873565b60808301525095945050505050565b600060208284031215615a7f57600080fd5b815180151581146127b957600080fd5b6000815260008251615aa88160018501602087016150a1565b9190910160010192915050565b600060208284031215615ac757600080fd5b5051919050565b7f630000000000000000000000000000000000000000000000000000000000000081527fffffffff000000000000000000000000000000000000000000000000000000008360e01b1660018201527f80600e6000396000f30000000000000000000000000000000000000000000000600582015260008251615b5781600e8501602087016150a1565b91909101600e019392505050565b60008251615b778184602087016150a1565b9190910192915050565b600082615b9057615b90615749565b500690565b604080825283519082018190526000906020906060840190828701845b82811015615be457815173ffffffffffffffffffffffffffffffffffffffff1684529284019290840190600101615bb2565b50505083810382850152615bf8818661529e565b9695505050505050565b600060208284031215615c1457600080fd5b815167ffffffffffffffff811115615c2b57600080fd5b612beb84828501615873565b6000611b4d60ff841683615641565b600060ff821660ff84168060ff03821115615c6357615c63614fe4565b01939250505056fea2646970667358221220934e537465d2a5c8d2933447301acb84061642fa34554d70629762a5a98aef0964736f6c634300080a0033",
  "linkReferences": {},
  "deployedLinkReferences": {}
}