{
  "_format": "hh-sol-artifact-1",
  "contractName": "Sale",
  "sourceName": "contracts/sale/Sale.sol",
  "abi": [
    {
      "inputs": [
        {
          "components": [
            {
              "internalType": "contract RedeemableERC20Factory",
              "name": "redeemableERC20Factory",
              "type": "address"
            }
          ],
          "internalType": "struct SaleConstructorConfig",
          "name": "config_",
          "type": "tuple"
        }
      ],
      "stateMutability": "nonpayable",
      "type": "constructor"
    },
    {
      "inputs": [
        {
          "internalType": "uint256",
          "name": "_size",
          "type": "uint256"
        },
        {
          "internalType": "uint256",
          "name": "_start",
          "type": "uint256"
        },
        {
          "internalType": "uint256",
          "name": "_end",
          "type": "uint256"
        }
      ],
      "name": "InvalidCodeAtRange",
      "type": "error"
    },
    {
      "inputs": [],
      "name": "WriteError",
      "type": "error"
    },
    {
      "anonymous": false,
      "inputs": [
        {
          "indexed": false,
          "internalType": "address",
          "name": "sender",
          "type": "address"
        },
        {
          "components": [
            {
              "internalType": "address",
              "name": "feeRecipient",
              "type": "address"
            },
            {
              "internalType": "uint256",
              "name": "fee",
              "type": "uint256"
            },
            {
              "internalType": "uint256",
              "name": "minimumUnits",
              "type": "uint256"
            },
            {
              "internalType": "uint256",
              "name": "desiredUnits",
              "type": "uint256"
            },
            {
              "internalType": "uint256",
              "name": "maximumPrice",
              "type": "uint256"
            }
          ],
          "indexed": false,
          "internalType": "struct BuyConfig",
          "name": "config_",
          "type": "tuple"
        },
        {
          "components": [
            {
              "internalType": "uint256",
              "name": "id",
              "type": "uint256"
            },
            {
              "internalType": "address",
              "name": "feeRecipient",
              "type": "address"
            },
            {
              "internalType": "uint256",
              "name": "fee",
              "type": "uint256"
            },
            {
              "internalType": "uint256",
              "name": "units",
              "type": "uint256"
            },
            {
              "internalType": "uint256",
              "name": "price",
              "type": "uint256"
            }
          ],
          "indexed": false,
          "internalType": "struct Receipt",
          "name": "receipt",
          "type": "tuple"
        }
      ],
      "name": "Buy",
      "type": "event"
    },
    {
      "anonymous": false,
      "inputs": [
        {
          "indexed": false,
          "internalType": "address",
          "name": "sender",
          "type": "address"
        },
        {
          "components": [
            {
              "internalType": "contract RedeemableERC20Factory",
              "name": "redeemableERC20Factory",
              "type": "address"
            }
          ],
          "indexed": false,
          "internalType": "struct SaleConstructorConfig",
          "name": "config",
          "type": "tuple"
        }
      ],
      "name": "Construct",
      "type": "event"
    },
    {
      "anonymous": false,
      "inputs": [
        {
          "indexed": false,
          "internalType": "address",
          "name": "sender",
          "type": "address"
        },
        {
          "indexed": false,
          "internalType": "uint256",
          "name": "cooldownDuration",
          "type": "uint256"
        }
      ],
      "name": "CooldownInitialize",
      "type": "event"
    },
    {
      "anonymous": false,
      "inputs": [
        {
          "indexed": false,
          "internalType": "address",
          "name": "caller",
          "type": "address"
        },
        {
          "indexed": false,
          "internalType": "uint256",
          "name": "cooldown",
          "type": "uint256"
        }
      ],
      "name": "CooldownTriggered",
      "type": "event"
    },
    {
      "anonymous": false,
      "inputs": [
        {
          "indexed": false,
          "internalType": "address",
          "name": "sender",
          "type": "address"
        },
        {
          "indexed": false,
          "internalType": "enum SaleStatus",
          "name": "saleStatus",
          "type": "uint8"
        }
      ],
      "name": "End",
      "type": "event"
    },
    {
      "anonymous": false,
      "inputs": [
        {
          "indexed": false,
          "internalType": "address",
          "name": "sender",
          "type": "address"
        },
        {
          "components": [
            {
              "components": [
                {
                  "internalType": "bytes[]",
                  "name": "sources",
                  "type": "bytes[]"
                },
                {
                  "internalType": "uint256[]",
                  "name": "constants",
                  "type": "uint256[]"
                },
                {
                  "internalType": "uint256",
                  "name": "stackLength",
                  "type": "uint256"
                },
                {
                  "internalType": "uint256",
                  "name": "argumentsLength",
                  "type": "uint256"
                }
              ],
              "internalType": "struct StateConfig",
              "name": "canStartStateConfig",
              "type": "tuple"
            },
            {
              "components": [
                {
                  "internalType": "bytes[]",
                  "name": "sources",
                  "type": "bytes[]"
                },
                {
                  "internalType": "uint256[]",
                  "name": "constants",
                  "type": "uint256[]"
                },
                {
                  "internalType": "uint256",
                  "name": "stackLength",
                  "type": "uint256"
                },
                {
                  "internalType": "uint256",
                  "name": "argumentsLength",
                  "type": "uint256"
                }
              ],
              "internalType": "struct StateConfig",
              "name": "canEndStateConfig",
              "type": "tuple"
            },
            {
              "components": [
                {
                  "internalType": "bytes[]",
                  "name": "sources",
                  "type": "bytes[]"
                },
                {
                  "internalType": "uint256[]",
                  "name": "constants",
                  "type": "uint256[]"
                },
                {
                  "internalType": "uint256",
                  "name": "stackLength",
                  "type": "uint256"
                },
                {
                  "internalType": "uint256",
                  "name": "argumentsLength",
                  "type": "uint256"
                }
              ],
              "internalType": "struct StateConfig",
              "name": "calculatePriceStateConfig",
              "type": "tuple"
            },
            {
              "internalType": "address",
              "name": "recipient",
              "type": "address"
            },
            {
              "internalType": "contract IERC20",
              "name": "reserve",
              "type": "address"
            },
            {
              "internalType": "uint256",
              "name": "cooldownDuration",
              "type": "uint256"
            },
            {
              "internalType": "uint256",
              "name": "minimumRaise",
              "type": "uint256"
            },
            {
              "internalType": "uint256",
              "name": "dustSize",
              "type": "uint256"
            }
          ],
          "indexed": false,
          "internalType": "struct SaleConfig",
          "name": "config",
          "type": "tuple"
        },
        {
          "indexed": false,
          "internalType": "address",
          "name": "token",
          "type": "address"
        }
      ],
      "name": "Initialize",
      "type": "event"
    },
    {
      "anonymous": false,
      "inputs": [
        {
          "indexed": false,
          "internalType": "address",
          "name": "sender",
          "type": "address"
        },
        {
          "components": [
            {
              "internalType": "uint256",
              "name": "id",
              "type": "uint256"
            },
            {
              "internalType": "address",
              "name": "feeRecipient",
              "type": "address"
            },
            {
              "internalType": "uint256",
              "name": "fee",
              "type": "uint256"
            },
            {
              "internalType": "uint256",
              "name": "units",
              "type": "uint256"
            },
            {
              "internalType": "uint256",
              "name": "price",
              "type": "uint256"
            }
          ],
          "indexed": false,
          "internalType": "struct Receipt",
          "name": "receipt",
          "type": "tuple"
        }
      ],
      "name": "Refund",
      "type": "event"
    },
    {
      "anonymous": false,
      "inputs": [
        {
          "indexed": false,
          "internalType": "address",
          "name": "sender",
          "type": "address"
        },
        {
          "indexed": false,
          "internalType": "address",
          "name": "pointer",
          "type": "address"
        },
        {
          "components": [
            {
              "internalType": "uint256",
              "name": "stackIndex",
              "type": "uint256"
            },
            {
              "internalType": "uint256[]",
              "name": "stack",
              "type": "uint256[]"
            },
            {
              "internalType": "bytes[]",
              "name": "sources",
              "type": "bytes[]"
            },
            {
              "internalType": "uint256[]",
              "name": "constants",
              "type": "uint256[]"
            },
            {
              "internalType": "uint256[]",
              "name": "arguments",
              "type": "uint256[]"
            }
          ],
          "indexed": false,
          "internalType": "struct State",
          "name": "state_",
          "type": "tuple"
        }
      ],
      "name": "Snapshot",
      "type": "event"
    },
    {
      "anonymous": false,
      "inputs": [
        {
          "indexed": false,
          "internalType": "address",
          "name": "sender",
          "type": "address"
        }
      ],
      "name": "Start",
      "type": "event"
    },
    {
      "inputs": [
        {
          "components": [
            {
              "internalType": "address",
              "name": "feeRecipient",
              "type": "address"
            },
            {
              "internalType": "uint256",
              "name": "fee",
              "type": "uint256"
            },
            {
              "internalType": "uint256",
              "name": "minimumUnits",
              "type": "uint256"
            },
            {
              "internalType": "uint256",
              "name": "desiredUnits",
              "type": "uint256"
            },
            {
              "internalType": "uint256",
              "name": "maximumPrice",
              "type": "uint256"
            }
          ],
          "internalType": "struct BuyConfig",
          "name": "config_",
          "type": "tuple"
        }
      ],
      "name": "buy",
      "outputs": [],
      "stateMutability": "nonpayable",
      "type": "function"
    },
    {
      "inputs": [
        {
          "internalType": "uint256",
          "name": "units_",
          "type": "uint256"
        }
      ],
      "name": "calculatePrice",
      "outputs": [
        {
          "internalType": "uint256",
          "name": "",
          "type": "uint256"
        }
      ],
      "stateMutability": "view",
      "type": "function"
    },
    {
      "inputs": [],
      "name": "canEnd",
      "outputs": [
        {
          "internalType": "bool",
          "name": "",
          "type": "bool"
        }
      ],
      "stateMutability": "view",
      "type": "function"
    },
    {
      "inputs": [],
      "name": "canStart",
      "outputs": [
        {
          "internalType": "bool",
          "name": "",
          "type": "bool"
        }
      ],
      "stateMutability": "view",
      "type": "function"
    },
    {
      "inputs": [
        {
          "internalType": "address",
          "name": "recipient_",
          "type": "address"
        }
      ],
      "name": "claimFees",
      "outputs": [],
      "stateMutability": "nonpayable",
      "type": "function"
    },
    {
      "inputs": [],
      "name": "end",
      "outputs": [],
      "stateMutability": "nonpayable",
      "type": "function"
    },
    {
      "inputs": [
        {
          "components": [
            {
              "components": [
                {
                  "internalType": "bytes[]",
                  "name": "sources",
                  "type": "bytes[]"
                },
                {
                  "internalType": "uint256[]",
                  "name": "constants",
                  "type": "uint256[]"
                },
                {
                  "internalType": "uint256",
                  "name": "stackLength",
                  "type": "uint256"
                },
                {
                  "internalType": "uint256",
                  "name": "argumentsLength",
                  "type": "uint256"
                }
              ],
              "internalType": "struct StateConfig",
              "name": "canStartStateConfig",
              "type": "tuple"
            },
            {
              "components": [
                {
                  "internalType": "bytes[]",
                  "name": "sources",
                  "type": "bytes[]"
                },
                {
                  "internalType": "uint256[]",
                  "name": "constants",
                  "type": "uint256[]"
                },
                {
                  "internalType": "uint256",
                  "name": "stackLength",
                  "type": "uint256"
                },
                {
                  "internalType": "uint256",
                  "name": "argumentsLength",
                  "type": "uint256"
                }
              ],
              "internalType": "struct StateConfig",
              "name": "canEndStateConfig",
              "type": "tuple"
            },
            {
              "components": [
                {
                  "internalType": "bytes[]",
                  "name": "sources",
                  "type": "bytes[]"
                },
                {
                  "internalType": "uint256[]",
                  "name": "constants",
                  "type": "uint256[]"
                },
                {
                  "internalType": "uint256",
                  "name": "stackLength",
                  "type": "uint256"
                },
                {
                  "internalType": "uint256",
                  "name": "argumentsLength",
                  "type": "uint256"
                }
              ],
              "internalType": "struct StateConfig",
              "name": "calculatePriceStateConfig",
              "type": "tuple"
            },
            {
              "internalType": "address",
              "name": "recipient",
              "type": "address"
            },
            {
              "internalType": "contract IERC20",
              "name": "reserve",
              "type": "address"
            },
            {
              "internalType": "uint256",
              "name": "cooldownDuration",
              "type": "uint256"
            },
            {
              "internalType": "uint256",
              "name": "minimumRaise",
              "type": "uint256"
            },
            {
              "internalType": "uint256",
              "name": "dustSize",
              "type": "uint256"
            }
          ],
          "internalType": "struct SaleConfig",
          "name": "config_",
          "type": "tuple"
        },
        {
          "components": [
            {
              "components": [
                {
                  "internalType": "string",
                  "name": "name",
                  "type": "string"
                },
                {
                  "internalType": "string",
                  "name": "symbol",
                  "type": "string"
                },
                {
                  "internalType": "address",
                  "name": "distributor",
                  "type": "address"
                },
                {
                  "internalType": "uint256",
                  "name": "initialSupply",
                  "type": "uint256"
                }
              ],
              "internalType": "struct ERC20Config",
              "name": "erc20Config",
              "type": "tuple"
            },
            {
              "internalType": "contract ITier",
              "name": "tier",
              "type": "address"
            },
            {
              "internalType": "uint256",
              "name": "minimumTier",
              "type": "uint256"
            },
            {
              "internalType": "address",
              "name": "distributionEndForwardingAddress",
              "type": "address"
            }
          ],
          "internalType": "struct SaleRedeemableERC20Config",
          "name": "saleRedeemableERC20Config_",
          "type": "tuple"
        }
      ],
      "name": "initialize",
      "outputs": [],
      "stateMutability": "nonpayable",
      "type": "function"
    },
    {
      "inputs": [
        {
          "components": [
            {
              "internalType": "uint256",
              "name": "id",
              "type": "uint256"
            },
            {
              "internalType": "address",
              "name": "feeRecipient",
              "type": "address"
            },
            {
              "internalType": "uint256",
              "name": "fee",
              "type": "uint256"
            },
            {
              "internalType": "uint256",
              "name": "units",
              "type": "uint256"
            },
            {
              "internalType": "uint256",
              "name": "price",
              "type": "uint256"
            }
          ],
          "internalType": "struct Receipt",
          "name": "receipt_",
          "type": "tuple"
        }
      ],
      "name": "refund",
      "outputs": [],
      "stateMutability": "nonpayable",
      "type": "function"
    },
    {
      "inputs": [],
      "name": "reserve",
      "outputs": [
        {
          "internalType": "address",
          "name": "",
          "type": "address"
        }
      ],
      "stateMutability": "view",
      "type": "function"
    },
    {
      "inputs": [],
      "name": "saleStatus",
      "outputs": [
        {
          "internalType": "enum SaleStatus",
          "name": "",
          "type": "uint8"
        }
      ],
      "stateMutability": "view",
      "type": "function"
    },
    {
      "inputs": [],
      "name": "start",
      "outputs": [],
      "stateMutability": "nonpayable",
      "type": "function"
    },
    {
      "inputs": [],
      "name": "token",
      "outputs": [
        {
          "internalType": "address",
          "name": "",
          "type": "address"
        }
      ],
      "stateMutability": "view",
      "type": "function"
    }
  ],
  "bytecode": "0x6101c06040523480156200001257600080fd5b50604051620056a3380380620056a3833981016040819052620000359162000130565b6001600490815560808190526200004f9060029062000198565b60a0819052620000629060019062000198565b60c0819052620000759060079062000198565b60e0819052620000889060089062000198565b6101008190526200009c9060069062000198565b610120819052620000b09060029062000198565b610140819052620000c49060029062000198565b610160819052620000d89060029062000198565b6101805280516001600160a01b039081166101a05260408051338152835190921660208301527f8c720856cdfa3d0c89d8cf4cd5ccda94282c50fc7d3a9d5613181ce48ede2996910160405180910390a150620001bf565b6000602082840312156200014357600080fd5b604051602081016001600160401b03811182821017156200017457634e487b7160e01b600052604160045260246000fd5b60405282516001600160a01b03811681146200018f57600080fd5b81529392505050565b60008219821115620001ba57634e487b7160e01b600052601160045260246000fd5b500190565b60805160a05160c05160e05161010051610120516101405161016051610180516101a0516154306200027360003960006105370152600081816122f2015261234801526000818161229c015261231f01526000818161224601526122c90152600081816121f0015261227301526000818161219a015261221d01526000818161214401526121c70152600081816120ee0152612171015260008181612093015261211b015260006120c001526154306000f3fe608060405234801561001057600080fd5b50600436106100d45760003560e01c8063cd3293de11610081578063efbe1c1c1161005b578063efbe1c1c146101b4578063f9020e33146101bc578063fc0c546a146101cf57600080fd5b8063cd3293de1461015a578063d48827e914610199578063ec309038146101ac57600080fd5b8063abf3969e116100b2578063abf3969e14610114578063ae10426514610131578063be9a65551461015257600080fd5b806310fbfddf146100d957806315a0ea6a146100ee578063504d14f814610101575b600080fd5b6100ec6100e736600461453f565b6101ed565b005b6100ec6100fc36600461465c565b610695565b6100ec61010f366004614679565b610755565b61011c610a60565b60405190151581526020015b60405180910390f35b61014461013f36600461468b565b610adb565b604051908152602001610128565b6100ec610b64565b600b5473ffffffffffffffffffffffffffffffffffffffff165b60405173ffffffffffffffffffffffffffffffffffffffff9091168152602001610128565b6100ec6101a73660046146a4565b610cb2565b61011c6113ee565b6100ec611415565b60125460ff166040516101289190614787565b600c5473ffffffffffffffffffffffffffffffffffffffff16610174565b600054610100900460ff166102085760005460ff161561020c565b303b155b61029d576040517f08c379a000000000000000000000000000000000000000000000000000000000815260206004820152602e60248201527f496e697469616c697a61626c653a20636f6e747261637420697320616c72656160448201527f647920696e697469616c697a656400000000000000000000000000000000000060648201526084015b60405180910390fd5b600054610100900460ff161580156102dc57600080547fffffffffffffffffffffffffffffffffffffffffffffffffffffffffffff0000166101011790555b6102e98360a00151611662565b6102fe6102f9846000015161171d565b611810565b600660006101000a81548173ffffffffffffffffffffffffffffffffffffffff021916908373ffffffffffffffffffffffffffffffffffffffff16021790555061034e6102f9846020015161171d565b600760006101000a81548173ffffffffffffffffffffffffffffffffffffffff021916908373ffffffffffffffffffffffffffffffffffffffff16021790555061039e6102f9846040015161171d565b600880547fffffffffffffffffffffffff000000000000000000000000000000000000000090811673ffffffffffffffffffffffffffffffffffffffff9384161790915560608581015160058054909316908416179091558301511661046c5760008360c001511161046c576040517f08c379a000000000000000000000000000000000000000000000000000000000815260206004820152600b60248201527f4d494e5f52414953455f300000000000000000000000000000000000000000006044820152606401610294565b60c083015160095560e0830151600a55601280547fffffffffffffffffffffffffffffffffffffffffffffffffffffffffffffff0016905560808084018051600b80547fffffffffffffffffffffffff00000000000000000000000000000000000000001673ffffffffffffffffffffffffffffffffffffffff928316179055845130604091820152805160a08101825292518216835285516020808501919091528087015183168483015281870151606080860191909152870151831694840194909452516000937f000000000000000000000000000000000000000000000000000000000000000090921692632ea72a499261056a920161480b565b6040516020818303038152906040526040518263ffffffff1660e01b8152600401610595919061490d565b6020604051808303816000875af11580156105b4573d6000803e3d6000fd5b505050506040513d601f19601f820116820180604052508101906105d89190614920565b600c80547fffffffffffffffffffffffff00000000000000000000000000000000000000001673ffffffffffffffffffffffffffffffffffffffff8316179055835160600151600d556040519091507f2b36a69ed67ed9c9dfb9b31aa4b048e7fad627a62ee67fc08dab1aabbabe636b9061065890339087908590614a19565b60405180910390a150801561069057600080547fffffffffffffffffffffffffffffffffffffffffffffffffffffffffffff00ff1690555b505050565b600260125460ff1660038111156106ae576106ae61471d565b14610715576040517f08c379a000000000000000000000000000000000000000000000000000000000815260206004820152600b60248201527f4e4f545f535543434553530000000000000000000000000000000000000000006044820152606401610294565b73ffffffffffffffffffffffffffffffffffffffff80821660009081526015602052604081208054919055600b5490916107519116838361187e565b5050565b600260125460ff16600381111561076e5761076e61471d565b14156107d6576040517f08c379a000000000000000000000000000000000000000000000000000000000815260206004820152600e60248201527f524546554e445f535543434553530000000000000000000000000000000000006044820152606401610294565b6000816040516020016107e99190614b89565b604080517fffffffffffffffffffffffffffffffffffffffffffffffffffffffffffffffe081840301815291815281516020928301203360009081526013845282812082825290935291205490915060ff166108a1576040517f08c379a000000000000000000000000000000000000000000000000000000000815260206004820152600f60248201527f494e56414c49445f5245434549505400000000000000000000000000000000006044820152606401610294565b336000908152601360209081526040808320848452909152812080547fffffffffffffffffffffffffffffffffffffffffffffffffffffffffffffff00169055670de0b6b3a76400006108fc60608501356080860135614bc6565b6109069190614c32565b905080600e600082825461091a9190614c46565b925050819055508260600135600d60008282546109379190614c5d565b909155505060408301803590601590600090610956906020880161465c565b73ffffffffffffffffffffffffffffffffffffffff1673ffffffffffffffffffffffffffffffffffffffff168152602001908152602001600020600082825461099f9190614c46565b909155506000905060125460ff1660038111156109be576109be61471d565b14156109cc576109cc611952565b7f92f85a40e83c8d882fe8d6e484c07c775950072962f3b22dd739834849a5a32433846040516109fd929190614c75565b60405180910390a1600c54610a2e9073ffffffffffffffffffffffffffffffffffffffff1633306060870135611af1565b61069033610a40604086013584614c5d565b600b5473ffffffffffffffffffffffffffffffffffffffff16919061187e565b6007546000908190610a879073ffffffffffffffffffffffffffffffffffffffff16611b55565b9050610aa460405180602001604052806000815250826000611ba9565b6000816020015160018360000151610abc9190614c46565b81518110610acc57610acc614c9f565b60200260200101511191505090565b6008546000908190610b029073ffffffffffffffffffffffffffffffffffffffff16611b55565b9050610b3183604051602001610b1a91815260200190565b604051602081830303815290604052826000611ba9565b60208101518151610b4490600190614c46565b81518110610b5457610b54614c9f565b6020026020010151915050919050565b600060125460ff166003811115610b7d57610b7d61471d565b14610be4576040517f08c379a000000000000000000000000000000000000000000000000000000000815260206004820152600b60248201527f4e4f545f50454e44494e470000000000000000000000000000000000000000006044820152606401610294565b610bec6113ee565b610c52576040517f08c379a000000000000000000000000000000000000000000000000000000000815260206004820152600a60248201527f43414e545f5354415254000000000000000000000000000000000000000000006044820152606401610294565b601280547fffffffffffffffffffffffffffffffffffffffffffffffffffffffffffffff001660011790556040513381527f84d0447ca38875fa61115673259a210915bc1dd53a3c112d6f0790f15956a9659060200160405180910390a1565b60035460009073ffffffffffffffffffffffffffffffffffffffff1615610cf15760035473ffffffffffffffffffffffffffffffffffffffff16610d1f565b600380547fffffffffffffffffffffffff000000000000000000000000000000000000000016339081179091555b73ffffffffffffffffffffffffffffffffffffffff8116600090815260026020526040902054909150431015610db1576040517f08c379a000000000000000000000000000000000000000000000000000000000815260206004820152600860248201527f434f4f4c444f574e0000000000000000000000000000000000000000000000006044820152606401610294565b600060015443610dc19190614c5d565b73ffffffffffffffffffffffffffffffffffffffff8316600081815260026020908152604091829020849055815192835282018390529192507fdd9ec76fd04aab7ee6b385c04a7bdf966620500e72b134bfc3f19654fae20f25910160405180910390a160026004541415610e92576040517f08c379a000000000000000000000000000000000000000000000000000000000815260206004820152601f60248201527f5265656e7472616e637947756172643a207265656e7472616e742063616c6c006044820152606401610294565b60026004556060830151610f02576040517f08c379a000000000000000000000000000000000000000000000000000000000815260206004820152600960248201527f305f4445534952454400000000000000000000000000000000000000000000006044820152606401610294565b826060015183604001511115610f74576040517f08c379a000000000000000000000000000000000000000000000000000000000815260206004820152601460248201527f4d494e494d554d5f4f5645525f444553495245440000000000000000000000006044820152606401610294565b600160125460ff166003811115610f8d57610f8d61471d565b14610ff4576040517f08c379a000000000000000000000000000000000000000000000000000000000815260206004820152600a60248201527f4e4f545f414354495645000000000000000000000000000000000000000000006044820152606401610294565b600061101d8460400151611017600d548760600151611d3e90919063ffffffff16565b90611d56565b9050600d5481111561108b576040517f08c379a000000000000000000000000000000000000000000000000000000000815260206004820152601260248201527f494e53554646494349454e545f53544f434b00000000000000000000000000006044820152606401610294565b600061109682610adb565b90508460800151811115611106576040517f08c379a000000000000000000000000000000000000000000000000000000000815260206004820152600d60248201527f4d4158494d554d5f5052494345000000000000000000000000000000000000006044820152606401610294565b6000670de0b6b3a764000061111b8484614bc6565b6111259190614c32565b6040805160a081018252601480548083528a5173ffffffffffffffffffffffffffffffffffffffff166020808501919091528b015193830193909352606082018790526080820186905292935091600061117e83614cce565b9091555050336000908152601360209081526040808320905160019391926111a891869101614d07565b604080518083037fffffffffffffffffffffffffffffffffffffffffffffffffffffffffffffffe00181529181528151602092830120835282820193909352908201600090812080547fffffffffffffffffffffffffffffffffffffffffffffffffffffffffffffff001694151594909417909355898101518a5173ffffffffffffffffffffffffffffffffffffffff1684526015909152908220805491929091611254908490614c5d565b9250508190555083600d600082825461126d9190614c46565b9250508190555081600e60008282546112869190614c5d565b909155505043600f556010849055601183905560208701516112d190339030906112b09086614c5d565b600b5473ffffffffffffffffffffffffffffffffffffffff16929190611af1565b600c546112f59073ffffffffffffffffffffffffffffffffffffffff16338661187e565b6001600d54101561130d57611308611415565b61137d565b600a54600d54101561137d576040517f08c379a00000000000000000000000000000000000000000000000000000000081526004016102949060208082526004908201527f4455535400000000000000000000000000000000000000000000000000000000604082015260600190565b7fde28bbdf409354cf811d2e1f52147a0a2a1b89be5848c4b5a41587f63b7cfa6a3388836040516113b093929190614d56565b60405180910390a1505060016004555050600380547fffffffffffffffffffffffff0000000000000000000000000000000000000000169055505050565b6006546000908190610a879073ffffffffffffffffffffffffffffffffffffffff16611b55565b600160125460ff16600381111561142e5761142e61471d565b14611495576040517f08c379a000000000000000000000000000000000000000000000000000000000815260206004820152600a60248201527f4e4f545f414354495645000000000000000000000000000000000000000000006044820152606401610294565b6001600d5410806114a957506114a9610a60565b61150f576040517f08c379a000000000000000000000000000000000000000000000000000000000815260206004820152600860248201527f43414e545f454e440000000000000000000000000000000000000000000000006044820152606401610294565b6000600d819055600954600e541015908161152b57600361152e565b60025b90507f9aef4e6c636914c533cde859f632ab5e2b68cfd8f06b6a2e18f89783f00072cd3382604051611561929190614df9565b60405180910390a1601280548291907fffffffffffffffffffffffffffffffffffffffffffffffffffffffffffffff001660018360038111156115a6576115a661471d565b0217905550600c546040517f8b24259b00000000000000000000000000000000000000000000000000000000815230600482015273ffffffffffffffffffffffffffffffffffffffff90911690638b24259b90602401600060405180830381600087803b15801561161657600080fd5b505af115801561162a573d6000803e3d6000fd5b50505050811561075157600554600e54600b546107519273ffffffffffffffffffffffffffffffffffffffff9182169291169061187e565b600081116116cc576040517f08c379a000000000000000000000000000000000000000000000000000000000815260206004820152600a60248201527f434f4f4c444f574e5f30000000000000000000000000000000000000000000006044820152606401610294565b600154156116dc576116dc614e23565b600181905560408051338152602081018390527f6153539ba1c54ed4ef5b6f1fda4b7183eeaa1b5707c152abed56f61e09452521910160405180910390a150565b61174f6040518060a0016040528060008152602001606081526020016060815260200160608152602001606081525090565b6040518060a0016040528060008152602001836040015167ffffffffffffffff81111561177e5761177e6140fb565b6040519080825280602002602001820160405280156117a7578160200160208202803683370190505b5081526020018360000151815260200183602001518152602001836060015167ffffffffffffffff8111156117de576117de6140fb565b604051908082528060200260200182016040528015611807578160200160208202803683370190505b50905292915050565b60008061183b836040516020016118279190614ebe565b604051602081830303815290604052611d66565b90507ff95eed63f55d96a35306669cc3b5f652f8d44552e3e4b17b2f78f13571114abd33828560405161187093929190614ed1565b60405180910390a192915050565b60405173ffffffffffffffffffffffffffffffffffffffff83166024820152604481018290526106909084907fa9059cbb00000000000000000000000000000000000000000000000000000000906064015b604080517fffffffffffffffffffffffffffffffffffffffffffffffffffffffffffffffe08184030181529190526020810180517bffffffffffffffffffffffffffffffffffffffffffffffffffffffff167fffffffff0000000000000000000000000000000000000000000000000000000090931692909217909152611df1565b60035460009073ffffffffffffffffffffffffffffffffffffffff16156119915760035473ffffffffffffffffffffffffffffffffffffffff166119bf565b600380547fffffffffffffffffffffffff000000000000000000000000000000000000000016339081179091555b73ffffffffffffffffffffffffffffffffffffffff8116600090815260026020526040902054909150431015611a51576040517f08c379a000000000000000000000000000000000000000000000000000000000815260206004820152600860248201527f434f4f4c444f574e0000000000000000000000000000000000000000000000006044820152606401610294565b600060015443611a619190614c5d565b73ffffffffffffffffffffffffffffffffffffffff8316600081815260026020908152604091829020849055815192835282018390529192507fdd9ec76fd04aab7ee6b385c04a7bdf966620500e72b134bfc3f19654fae20f25910160405180910390a15050600380547fffffffffffffffffffffffff0000000000000000000000000000000000000000169055565b60405173ffffffffffffffffffffffffffffffffffffffff80851660248301528316604482015260648101829052611b4f9085907f23b872dd00000000000000000000000000000000000000000000000000000000906084016118d0565b50505050565b611b876040518060a0016040528060008152602001606081526020016060815260200160608152602001606081525090565b611b9082611efd565b806020019051810190611ba39190615021565b92915050565b602082810151604084015183830201909101516060840151608085015182516000948594859492939092915b84881015611d31576002880197508784015180601e1a975080601f1a9650506004871015611d25576001871415611c38578160808716611c125750825b8a516020607f89160260200182015160208202602001840152600181018c525050611bd5565b6002871415611c635789516020870260200182015160208202602001830152600181018b5250611bd5565b6003871415611c7c57611c778b8b88611f2b565b611bd5565b607f6101fe600188901b161786166080871615611ce8578a517fffffffffffffffffffffffffffffffffffffffffffffffffffffffffffffffff01808c5260208c015180519091908110611cd257611cd2614c9f565b602002602001015160001415611ce85750611bd5565b8060000b600014611d1f5760008160000b1215611d1357801960020160020260ff1689039850611d1f565b8060020260ff16890198505b50611bd5565b611c778b8b8989612091565b5050505050505050505050565b6000818310611d4d5781611d4f565b825b9392505050565b600081831015611d4d5781611d4f565b600080611d9183604051602001611d7d9190615104565b604051602081830303815290604052612570565b90508051602082016000f0915073ffffffffffffffffffffffffffffffffffffffff8216611deb576040517f08d4abb600000000000000000000000000000000000000000000000000000000815260040160405180910390fd5b50919050565b6000611e53826040518060400160405280602081526020017f5361666545524332303a206c6f772d6c6576656c2063616c6c206661696c65648152508573ffffffffffffffffffffffffffffffffffffffff1661259c9092919063ffffffff16565b8051909150156106905780806020019051810190611e71919061512a565b610690576040517f08c379a000000000000000000000000000000000000000000000000000000000815260206004820152602a60248201527f5361666545524332303a204552433230206f7065726174696f6e20646964206e60448201527f6f742073756363656564000000000000000000000000000000000000000000006064820152608401610294565b6060611ba38260017fffffffffffffffffffffffffffffffffffffffffffffffffffffffffffffffff6125b3565b81517fffffffffffffffffffffffffffffffffffffffffffffffffffffffffffffffff600583901c918290030183526007821690610100600384811c1681901c91908290039060010160008167ffffffffffffffff811115611f8f57611f8f6140fb565b604051908082528060200260200182016040528015611fb8578160200160208202803683370190505b50905060005b8281101561200f5787602001518189600001510181518110611fe257611fe2614c9f565b6020026020010151828281518110611ffc57611ffc614c9f565b6020908102919091010152600101611fbe565b5060005b6101008110156120865760005b83811015612073578482860384838151811061203e5761203e614c9f565b6020026020010151901b901c8960800151828151811061206057612060614c9f565b6020908102919091010152600101612020565b5061207f898988611ba9565b8401612013565b505050505050505050565b7f00000000000000000000000000000000000000000000000000000000000000008210156120ec576120e784847f000000000000000000000000000000000000000000000000000000000000000085038461269b565b611b4f565b7f0000000000000000000000000000000000000000000000000000000000000000821015612142576120e784847f0000000000000000000000000000000000000000000000000000000000000000850384612760565b7f0000000000000000000000000000000000000000000000000000000000000000821015612198576120e784847f00000000000000000000000000000000000000000000000000000000000000008503846127e5565b7f00000000000000000000000000000000000000000000000000000000000000008210156121ee576120e784847f00000000000000000000000000000000000000000000000000000000000000008503846129f5565b7f0000000000000000000000000000000000000000000000000000000000000000821015612244576120e784847f0000000000000000000000000000000000000000000000000000000000000000850384612d3f565b7f000000000000000000000000000000000000000000000000000000000000000082101561229a576120e784847f000000000000000000000000000000000000000000000000000000000000000085038461323c565b7f00000000000000000000000000000000000000000000000000000000000000008210156122f0576120e784847f00000000000000000000000000000000000000000000000000000000000000008503846134c3565b7f0000000000000000000000000000000000000000000000000000000000000000821015612346576120e784847f0000000000000000000000000000000000000000000000000000000000000000850384613672565b7f000000000000000000000000000000000000000000000000000000000000000082039150600882106123d5576040517f08c379a000000000000000000000000000000000000000000000000000000000815260206004820152600a60248201527f4d41585f4f50434f4445000000000000000000000000000000000000000000006044820152606401610294565b8161240557600d5460208401518451815181106123f4576123f4614c9f565b602002602001018181525050612564565b600182141561242857600e5460208401518451815181106123f4576123f4614c9f565b600282141561244b57600f5460208401518451815181106123f4576123f4614c9f565b600382141561246e5760105460208401518451815181106123f4576123f4614c9f565b60048214156124915760115460208401518451815181106123f4576123f4614c9f565b60058214156124df576000848060200190518101906124b0919061514c565b90508084602001518560000151815181106124cd576124cd614c9f565b60200260200101818152505050612564565b600682141561251b57600c5460208401518451815173ffffffffffffffffffffffffffffffffffffffff9093169281106123f4576123f4614c9f565b600782141561256457600b5460208401518451815173ffffffffffffffffffffffffffffffffffffffff90931692811061255757612557614c9f565b6020026020010181815250505b50508051600101905250565b6060815182604051602001612586929190615165565b6040516020818303038152906040529050919050565b60606125ab8484600085613afb565b949350505050565b6060833b806125d2575050604080516020810190915260008152611d4f565b808411156125f0575050604080516020810190915260008152611d4f565b8383101561263b576040517f2c4a89fa000000000000000000000000000000000000000000000000000000008152600481018290526024810185905260448101849052606401610294565b83830384820360008282106126505782612652565b815b60408051603f83017fffffffffffffffffffffffffffffffffffffffffffffffffffffffffffffffe0168101909152818152955090508087602087018a3c505050509392505050565b60028210612705576040517f08c379a000000000000000000000000000000000000000000000000000000000815260206004820152600a60248201527f4d41585f4f50434f4445000000000000000000000000000000000000000000006044820152606401610294565b8161273c5743836020015184600001518151811061272557612725614c9f565b602090810291909101015282516001018352611b4f565b6001821415611b4f5742836020015184600001518151811061255757612557614c9f565b600182106127ca576040517f08c379a000000000000000000000000000000000000000000000000000000000815260206004820152600a60248201527f4d41585f4f50434f4445000000000000000000000000000000000000000000006044820152606401610294565b60208301518351815133929190811061255757612557614c9f565b6007821061284f576040517f08c379a000000000000000000000000000000000000000000000000000000000815260206004820152600a60248201527f4d41585f4f50434f4445000000000000000000000000000000000000000000006044820152606401610294565b8251602080850151818302010183801561289857600181146128c55760028114612930576003811461294a5760048114612964576005811461297e57600681146129b6576129ec565b7fffffffffffffffffffffffffffffffffffffffffffffffffffffffffffffffe0820180511590526129ec565b7ffffffffffffffffffffffffffffffffffffffffffffffffffffffffffffffffe830186527fffffffffffffffffffffffffffffffffffffffffffffffffffffffffffffffa08201805180156129215760208201518252612929565b604082015182525b50506129ec565b6001830386526040820360208101518151148152506129ec565b6001830386526040820360208101518151108152506129ec565b6001830386526040820360208101518151118152506129ec565b83156129b1576001840383038652602084028203805b838110156129295780516129a9575060008152825b602001612994565b6129ec565b83156129ec576001840383038652602084028203805b8381101561208657805180156129e3578491508083525b506020016129cc565b50505050505050565b60088210612a5f576040517f08c379a000000000000000000000000000000000000000000000000000000000815260206004820152600a60248201527f4d41585f4f50434f4445000000000000000000000000000000000000000000006044820152606401610294565b8251818103808552602085015180517fffffffffffffffffffffffffffffffffffffffffffffffffffffffffffffffff90930192829160009183908110612aa857612aa8614c9f565b602002602001015190506000861415612b00575b83821015612afb576020870151805160019093019283908110612ae157612ae1614c9f565b602002602001015181612af49190614c5d565b9050612abc565b612d0c565b6001861415612b49575b83821015612afb576020870151805160019093019283908110612b2f57612b2f614c9f565b602002602001015181612b429190614c46565b9050612b0a565b6002861415612b92575b83821015612afb576020870151805160019093019283908110612b7857612b78614c9f565b602002602001015181612b8b9190614bc6565b9050612b53565b6003861415612bdb575b83821015612afb576020870151805160019093019283908110612bc157612bc1614c9f565b602002602001015181612bd49190614c32565b9050612b9c565b6004861415612c24575b83821015612afb576020870151805160019093019283908110612c0a57612c0a614c9f565b602002602001015181612c1d91906151fc565b9050612be5565b6005861415612c6c575b83821015612afb576020870151805160019093019283908110612c5357612c53614c9f565b602002602001015181612c669190615330565b50612c2e565b6006861415612cbe5760005b84831015612cb8576020880151805160019094019384908110612c9d57612c9d614c9f565b6020026020010151905081811015612cb3578091505b612c78565b50612d0c565b6007861415612d0c5760005b84831015612d0a576020880151805160019094019384908110612cef57612cef614c9f565b6020026020010151905081811115612d05578091505b612cca565b505b8087602001518481518110612d2357612d23614c9f565b6020908102919091010152505084516001019094525050505050565b60068210612da9576040517f08c379a000000000000000000000000000000000000000000000000000000000815260206004820152600a60248201527f4d41585f4f50434f4445000000000000000000000000000000000000000000006044820152606401610294565b600082612ef8575082517fffffffffffffffffffffffffffffffffffffffffffffffffffffffffffffffff81018452602084015180517ffffffffffffffffffffffffffffffffffffffffffffffffffffffffffffffffe9092019182908110612e1457612e14614c9f565b602002602001015173ffffffffffffffffffffffffffffffffffffffff1663e053ea3185602001518360010181518110612e5057612e50614c9f565b60200260200101516040518263ffffffff1660e01b8152600401612e90919073ffffffffffffffffffffffffffffffffffffffff91909116815260200190565b602060405180830381865afa158015612ead573d6000803e3d6000fd5b505050506040513d601f19601f82011682018060405250810190612ed1919061514c565b84602001518281518110612ee757612ee7614c9f565b602002602001018181525050613235565b6001831415612f53577fffffffffffffffffffffffffffffffffffffffffffffffffffffffffffffffff8460200151856000015181518110612f3c57612f3c614c9f565b602090810291909101015283516001018452613235565b6002831415612f785760008460200151856000015181518110612f3c57612f3c614c9f565b600383141561302c575082517ffffffffffffffffffffffffffffffffffffffffffffffffffffffffffffffffe01808452602084015180516000919083908110612fc457612fc4614c9f565b60200260200101519050600085602001518360010181518110612fe957612fe9614c9f565b60200260200101519050612ffd8282613c91565b8660200151848151811061301357613013614c9f565b6020908102919091010152505083516001018452613235565b60048314156130f4575082517ffffffffffffffffffffffffffffffffffffffffffffffffffffffffffffffffe0180845260208401518051600f80851692600486901c90911691600091908590811061308757613087614c9f565b602002602001015190506000876020015185600101815181106130ac576130ac614c9f565b602002602001015190506130c282858584613cf0565b886020015186815181106130d8576130d8614c9f565b6020908102919091010152505085516001018652506132359050565b6005831415613235575082517fffffffffffffffffffffffffffffffffffffffffffffffffffffffffffffffff601f8316918290030180855290600783901c906003600585901c16908360008267ffffffffffffffff811115613159576131596140fb565b604051908082528060200260200182016040528015613182578160200160208202803683370190505b50905060005b838110156131d757896020015183815181106131a6576131a6614c9f565b60200260200101518282815181106131c0576131c0614c9f565b602090810291909101015260019283019201613188565b506000896020015183815181106131f0576131f0614c9f565b6020026020010151905061320682828888613e03565b8a60200151888151811061321c5761321c614c9f565b6020908102919091010152505087516001018852505050505b5050505050565b600282106132a6576040517f08c379a000000000000000000000000000000000000000000000000000000000815260206004820152600a60248201527f4d41585f4f50434f4445000000000000000000000000000000000000000000006044820152606401610294565b816133f85782517fffffffffffffffffffffffffffffffffffffffffffffffffffffffffffffffff810184526020840151805190917ffffffffffffffffffffffffffffffffffffffffffffffffffffffffffffffffe0190811061330c5761330c614c9f565b602002602001015173ffffffffffffffffffffffffffffffffffffffff166370a08231846020015185600001518151811061334957613349614c9f565b60200260200101516040518263ffffffff1660e01b8152600401613389919073ffffffffffffffffffffffffffffffffffffffff91909116815260200190565b602060405180830381865afa1580156133a6573d6000803e3d6000fd5b505050506040513d601f19601f820116820180604052508101906133ca919061514c565b83602001516001856000015103815181106133e7576133e7614c9f565b602002602001018181525050611b4f565b6001821415611b4f57826020015160018460000151038151811061341e5761341e614c9f565b602002602001015173ffffffffffffffffffffffffffffffffffffffff166318160ddd6040518163ffffffff1660e01b8152600401602060405180830381865afa158015613470573d6000803e3d6000fd5b505050506040513d601f19601f82011682018060405250810190613494919061514c565b83602001516001856000015103815181106134b1576134b1614c9f565b60200260200101818152505050505050565b6002821061352d576040517f08c379a000000000000000000000000000000000000000000000000000000000815260206004820152600a60248201527f4d41585f4f50434f4445000000000000000000000000000000000000000000006044820152606401610294565b82517fffffffffffffffffffffffffffffffffffffffffffffffffffffffffffffffff0183528161357557826020015160018460000151038151811061330c5761330c614c9f565b6001821415611b4f57826020015160018460000151038151811061359b5761359b614c9f565b602002602001015173ffffffffffffffffffffffffffffffffffffffff16636352211e84602001518560000151815181106135d8576135d8614c9f565b60200260200101516040518263ffffffff1660e01b81526004016135fe91815260200190565b602060405180830381865afa15801561361b573d6000803e3d6000fd5b505050506040513d601f19601f8201168201806040525081019061363f9190614920565b73ffffffffffffffffffffffffffffffffffffffff1683602001516001856000015103815181106134b1576134b1614c9f565b600282106136dc576040517f08c379a000000000000000000000000000000000000000000000000000000000815260206004820152600a60248201527f4d41585f4f50434f4445000000000000000000000000000000000000000000006044820152606401610294565b8161384f5782517ffffffffffffffffffffffffffffffffffffffffffffffffffffffffffffffffe81018452602084015180517ffffffffffffffffffffffffffffffffffffffffffffffffffffffffffffffffd909201918290811061374457613744614c9f565b602002602001015173ffffffffffffffffffffffffffffffffffffffff1662fdd58e8560200151836001018151811061377f5761377f614c9f565b6020026020010151866020015184600201815181106137a0576137a0614c9f565b60200260200101516040518363ffffffff1660e01b81526004016137e692919073ffffffffffffffffffffffffffffffffffffffff929092168252602082015260400190565b602060405180830381865afa158015613803573d6000803e3d6000fd5b505050506040513d601f19601f82011682018060405250810190613827919061514c565b8460200151828151811061383d5761383d614c9f565b60200260200101818152505050611b4f565b6001821415611b4f576001810160008167ffffffffffffffff811115613877576138776140fb565b6040519080825280602002602001820160405280156138a0578160200160208202803683370190505b50905060008267ffffffffffffffff8111156138be576138be6140fb565b6040519080825280602002602001820160405280156138e7578160200160208202803683370190505b5086518490037fffffffffffffffffffffffffffffffffffffffffffffffffffffffffffffffff818101895260208901518051939450918690030191600091908390811061393757613937614c9f565b6020026020010151905060005b858110156139ee5788602001518184016001018151811061396757613967614c9f565b602002602001015185828151811061398157613981614c9f565b73ffffffffffffffffffffffffffffffffffffffff909216602092830291909101820152890151805160018589018401019081106139c1576139c1614c9f565b60200260200101518482815181106139db576139db614c9f565b6020908102919091010152600101613944565b506040517f4e1273f400000000000000000000000000000000000000000000000000000000815260009073ffffffffffffffffffffffffffffffffffffffff831690634e1273f490613a46908890889060040161533c565b600060405180830381865afa158015613a63573d6000803e3d6000fd5b505050506040513d6000823e601f3d9081017fffffffffffffffffffffffffffffffffffffffffffffffffffffffffffffffe0168201604052613aa991908101906153a9565b905060005b86811015611d3157818181518110613ac857613ac8614c9f565b60200260200101518a6020015182860181518110613ae857613ae8614c9f565b6020908102919091010152600101613aae565b606082471015613b8d576040517f08c379a000000000000000000000000000000000000000000000000000000000815260206004820152602660248201527f416464726573733a20696e73756666696369656e742062616c616e636520666f60448201527f722063616c6c00000000000000000000000000000000000000000000000000006064820152608401610294565b73ffffffffffffffffffffffffffffffffffffffff85163b613c0b576040517f08c379a000000000000000000000000000000000000000000000000000000000815260206004820152601d60248201527f416464726573733a2063616c6c20746f206e6f6e2d636f6e74726163740000006044820152606401610294565b6000808673ffffffffffffffffffffffffffffffffffffffff168587604051613c3491906153de565b60006040518083038185875af1925050503d8060008114613c71576040519150601f19603f3d011682016040523d82523d6000602084013e613c76565b606091505b5091509150613c86828286613f53565b979650505050505050565b60008060015b60088111613ce8576000613cab8683613fa6565b90506000613cb98684613fa6565b90506000613cc7838361405b565b9050613cd7856001860383614071565b94505060019092019150613c979050565b509392505050565b6000836008811115613d5e576040517f08c379a000000000000000000000000000000000000000000000000000000000815260206004820152600860248201527f4d41585f544945520000000000000000000000000000000000000000000000006044820152606401610294565b836008811115613dca576040517f08c379a000000000000000000000000000000000000000000000000000000000815260206004820152600860248201527f4d41585f544945520000000000000000000000000000000000000000000000006044820152606401610294565b6000865b86811015613df65763ffffffff6020820290811b1999909916868a1b17989150600101613dce565b5096979650505050505050565b835160009081908190819060015b60088111613f4557600092508287613e4a57507fffffffffffffffffffffffffffffffffffffffffffffffffffffffffffffffff613e4e565b5060005b60005b83811015613f0357613e7c8c8281518110613e6e57613e6e614c9f565b602002602001015184613fa6565b95508a8611613ece5788613e9b57613e948683611d3e565b9150613ec5565b6001891415613eae57613e948683611d56565b600289148015613ebc575084155b15613ec5578591505b60019450613efb565b89613efb577fffffffffffffffffffffffffffffffffffffffffffffffffffffffffffffffff9150613f03565b600101613e51565b5083613f2c57507fffffffffffffffffffffffffffffffffffffffffffffffffffffffffffffffff5b613f3a866001840383614071565b955050600101613e11565b509298975050505050505050565b60608315613f62575081611d4f565b825115613f725782518084602001fd5b816040517f08c379a0000000000000000000000000000000000000000000000000000000008152600401610294919061490d565b6000816008811115614014576040517f08c379a000000000000000000000000000000000000000000000000000000000815260206004820152600860248201527f4d41585f544945520000000000000000000000000000000000000000000000006044820152606401610294565b826140225760009150614054565b63ffffffff60207fffffffffffffffffffffffffffffffffffffffffffffffffffffffffffffffff85010285901c1691505b5092915050565b600081831161406b576000611d4f565b50900390565b60008260088111156140df576040517f08c379a000000000000000000000000000000000000000000000000000000000815260206004820152600860248201527f4d41585f544945520000000000000000000000000000000000000000000000006044820152606401610294565b505060209190910290811b63ffffffff90911b19919091161790565b7f4e487b7100000000000000000000000000000000000000000000000000000000600052604160045260246000fd5b6040516080810167ffffffffffffffff8111828210171561414d5761414d6140fb565b60405290565b604051610100810167ffffffffffffffff8111828210171561414d5761414d6140fb565b60405160a0810167ffffffffffffffff8111828210171561414d5761414d6140fb565b604051601f82017fffffffffffffffffffffffffffffffffffffffffffffffffffffffffffffffe016810167ffffffffffffffff811182821017156141e1576141e16140fb565b604052919050565b600067ffffffffffffffff821115614203576142036140fb565b5060051b60200190565b600067ffffffffffffffff821115614227576142276140fb565b50601f017fffffffffffffffffffffffffffffffffffffffffffffffffffffffffffffffe01660200190565b60006142666142618461420d565b61419a565b905082815283838301111561427a57600080fd5b828260208301376000602084830101529392505050565b600082601f8301126142a257600080fd5b813560206142b2614261836141e9565b82815260059290921b840181019181810190868411156142d157600080fd5b8286015b848110156142ec57803583529183019183016142d5565b509695505050505050565b60006080828403121561430957600080fd5b61431161412a565b9050813567ffffffffffffffff8082111561432b57600080fd5b818401915084601f83011261433f57600080fd5b8135602061434f614261836141e9565b82815260059290921b8401810191818101908884111561436e57600080fd5b8286015b848110156143bb5780358681111561438a5760008081fd5b8701603f81018b1361439c5760008081fd5b6143ad8b8683013560408401614253565b845250918301918301614372565b50865250858101359350828411156143d257600080fd5b6143de87858801614291565b8186015250505050604082013560408201526060820135606082015292915050565b73ffffffffffffffffffffffffffffffffffffffff8116811461442257600080fd5b50565b803561443081614400565b919050565b600082601f83011261444657600080fd5b611d4f83833560208501614253565b60006080828403121561446757600080fd5b61446f61412a565b9050813567ffffffffffffffff8082111561448957600080fd5b908301906080828603121561449d57600080fd5b6144a561412a565b8235828111156144b457600080fd5b6144c087828601614435565b8252506020830135828111156144d557600080fd5b6144e187828601614435565b602083015250604083013591506144f782614400565b8160408201526060830135606082015280845250505061451960208301614425565b60208201526040820135604082015261453460608301614425565b606082015292915050565b6000806040838503121561455257600080fd5b823567ffffffffffffffff8082111561456a57600080fd5b90840190610100828703121561457f57600080fd5b614587614153565b82358281111561459657600080fd5b6145a2888286016142f7565b8252506020830135828111156145b757600080fd5b6145c3888286016142f7565b6020830152506040830135828111156145db57600080fd5b6145e7888286016142f7565b6040830152506145f960608401614425565b606082015261460a60808401614425565b608082015260a083013560a082015260c083013560c082015260e083013560e082015280945050602085013591508082111561464557600080fd5b5061465285828601614455565b9150509250929050565b60006020828403121561466e57600080fd5b8135611d4f81614400565b600060a08284031215611deb57600080fd5b60006020828403121561469d57600080fd5b5035919050565b600060a082840312156146b657600080fd5b60405160a0810181811067ffffffffffffffff821117156146d9576146d96140fb565b60405282356146e781614400565b80825250602083013560208201526040830135604082015260608301356060820152608083013560808201528091505092915050565b7f4e487b7100000000000000000000000000000000000000000000000000000000600052602160045260246000fd5b60048110614783577f4e487b7100000000000000000000000000000000000000000000000000000000600052602160045260246000fd5b9052565b60208101611ba3828461474c565b60005b838110156147b0578181015183820152602001614798565b83811115611b4f5750506000910152565b600081518084526147d9816020860160208601614795565b601f017fffffffffffffffffffffffffffffffffffffffffffffffffffffffffffffffe0169290920160200192915050565b60208152600073ffffffffffffffffffffffffffffffffffffffff808451166020840152602084015160a060408501528051608060c08601526148526101408601826147c1565b905060208201517fffffffffffffffffffffffffffffffffffffffffffffffffffffffffffffff408683030160e087015261488d82826147c1565b915050826040830151166101008601526060820151610120860152604086015192506148d1606086018473ffffffffffffffffffffffffffffffffffffffff169052565b606086015160808601526080860151925061490460a086018473ffffffffffffffffffffffffffffffffffffffff169052565b95945050505050565b602081526000611d4f60208301846147c1565b60006020828403121561493257600080fd5b8151611d4f81614400565b6000815180845260208085019450848260051b860182860160005b858110156149825783830389526149708383516147c1565b98850198925090840190600101614958565b5090979650505050505050565b600081518084526020808501945080840160005b838110156149bf578151875295820195908201906001016149a3565b509495945050505050565b60008151608084526149df608085018261493d565b9050602083015184820360208601526149f8828261498f565b91505060408301516040850152606083015160608501528091505092915050565b73ffffffffffffffffffffffffffffffffffffffff841681526060602082015260008351610100806060850152614a546101608501836149ca565b915060208601517fffffffffffffffffffffffffffffffffffffffffffffffffffffffffffffffa080868503016080870152614a9084836149ca565b935060408801519150808685030160a087015250614aae83826149ca565b9250506060860151614ad860c086018273ffffffffffffffffffffffffffffffffffffffff169052565b50608086015173ffffffffffffffffffffffffffffffffffffffff811660e08601525060a08601519084015260c085015161012084015260e085015161014084015273ffffffffffffffffffffffffffffffffffffffff8416604084015290506125ab565b803582526020810135614b4f81614400565b73ffffffffffffffffffffffffffffffffffffffff1660208301526040818101359083015260608082013590830152608090810135910152565b60a08101611ba38284614b3d565b7f4e487b7100000000000000000000000000000000000000000000000000000000600052601160045260246000fd5b6000817fffffffffffffffffffffffffffffffffffffffffffffffffffffffffffffffff0483118215151615614bfe57614bfe614b97565b500290565b7f4e487b7100000000000000000000000000000000000000000000000000000000600052601260045260246000fd5b600082614c4157614c41614c03565b500490565b600082821015614c5857614c58614b97565b500390565b60008219821115614c7057614c70614b97565b500190565b73ffffffffffffffffffffffffffffffffffffffff8316815260c08101611d4f6020830184614b3d565b7f4e487b7100000000000000000000000000000000000000000000000000000000600052603260045260246000fd5b60007fffffffffffffffffffffffffffffffffffffffffffffffffffffffffffffffff821415614d0057614d00614b97565b5060010190565b60a08101611ba382848051825273ffffffffffffffffffffffffffffffffffffffff60208201511660208301526040810151604083015260608101516060830152608081015160808301525050565b60006101608201905073ffffffffffffffffffffffffffffffffffffffff808616835280855116602084015250602084015160408301526040840151606083015260608401516080830152608084015160a08301526125ab60c08301848051825273ffffffffffffffffffffffffffffffffffffffff60208201511660208301526040810151604083015260608101516060830152608081015160808301525050565b73ffffffffffffffffffffffffffffffffffffffff8316815260408101611d4f602083018461474c565b7f4e487b7100000000000000000000000000000000000000000000000000000000600052600160045260246000fd5b805182526000602082015160a06020850152614e7160a085018261498f565b905060408301518482036040860152614e8a828261493d565b91505060608301518482036060860152614ea4828261498f565b91505060808301518482036080860152614904828261498f565b602081526000611d4f6020830184614e52565b600073ffffffffffffffffffffffffffffffffffffffff8086168352808516602084015250606060408301526149046060830184614e52565b600082601f830112614f1b57600080fd5b81516020614f2b614261836141e9565b82815260059290921b84018101918181019086841115614f4a57600080fd5b8286015b848110156142ec5780518352918301918301614f4e565b600082601f830112614f7657600080fd5b81516020614f86614261836141e9565b82815260059290921b84018101918181019086841115614fa557600080fd5b8286015b848110156142ec57805167ffffffffffffffff811115614fc95760008081fd5b8701603f81018913614fdb5760008081fd5b848101516040614fed6142618361420d565b8281528b828486010111156150025760008081fd5b61501183898301848701614795565b8652505050918301918301614fa9565b60006020828403121561503357600080fd5b815167ffffffffffffffff8082111561504b57600080fd5b9083019060a0828603121561505f57600080fd5b615067614177565b8251815260208301518281111561507d57600080fd5b61508987828601614f0a565b6020830152506040830151828111156150a157600080fd5b6150ad87828601614f65565b6040830152506060830151828111156150c557600080fd5b6150d187828601614f0a565b6060830152506080830151828111156150e957600080fd5b6150f587828601614f0a565b60808301525095945050505050565b600081526000825161511d816001850160208701614795565b9190910160010192915050565b60006020828403121561513c57600080fd5b81518015158114611d4f57600080fd5b60006020828403121561515e57600080fd5b5051919050565b7f630000000000000000000000000000000000000000000000000000000000000081527fffffffff000000000000000000000000000000000000000000000000000000008360e01b1660018201527f80600e6000396000f300000000000000000000000000000000000000000000006005820152600082516151ee81600e850160208701614795565b91909101600e019392505050565b60008261520b5761520b614c03565b500690565b600181815b8085111561526957817fffffffffffffffffffffffffffffffffffffffffffffffffffffffffffffffff0482111561524f5761524f614b97565b8085161561525c57918102915b93841c9390800290615215565b509250929050565b60008261528057506001611ba3565b8161528d57506000611ba3565b81600181146152a357600281146152ad576152c9565b6001915050611ba3565b60ff8411156152be576152be614b97565b50506001821b611ba3565b5060208310610133831016604e8410600b84101617156152ec575081810a611ba3565b6152f68383615210565b807fffffffffffffffffffffffffffffffffffffffffffffffffffffffffffffffff0482111561532857615328614b97565b029392505050565b6000611d4f8383615271565b604080825283519082018190526000906020906060840190828701845b8281101561538b57815173ffffffffffffffffffffffffffffffffffffffff1684529284019290840190600101615359565b5050508381038285015261539f818661498f565b9695505050505050565b6000602082840312156153bb57600080fd5b815167ffffffffffffffff8111156153d257600080fd5b6125ab84828501614f0a565b600082516153f0818460208701614795565b919091019291505056fea26469706673582212201cdbd1eadbd43b1ccf5ff10bfaf631eab99218d1d330ed4e47474633ee176aca64736f6c634300080a0033",
  "linkReferences": {},
  "deployedLinkReferences": {}
}