{
  "_format": "hh-sol-artifact-1",
  "contractName": "RedeemableERC20ClaimEscrow",
  "sourceName": "contracts/escrow/RedeemableERC20ClaimEscrow.sol",
  "abi": [
    {
      "anonymous": false,
      "inputs": [
        {
          "indexed": false,
          "internalType": "address",
          "name": "depositor",
          "type": "address"
        },
        {
          "indexed": false,
          "internalType": "address",
          "name": "trust",
          "type": "address"
        },
        {
          "indexed": false,
          "internalType": "address",
          "name": "redeemable",
          "type": "address"
        },
        {
          "indexed": false,
          "internalType": "address",
          "name": "token",
          "type": "address"
        },
        {
          "indexed": false,
          "internalType": "uint256",
          "name": "supply",
          "type": "uint256"
        },
        {
          "indexed": false,
          "internalType": "uint256",
          "name": "amount",
          "type": "uint256"
        }
      ],
      "name": "Deposit",
      "type": "event"
    },
    {
      "anonymous": false,
      "inputs": [
        {
          "indexed": false,
          "internalType": "address",
          "name": "sender",
          "type": "address"
        },
        {
          "indexed": false,
          "internalType": "address",
          "name": "trust",
          "type": "address"
        },
        {
          "indexed": false,
          "internalType": "address",
          "name": "redeemable",
          "type": "address"
        },
        {
          "indexed": false,
          "internalType": "address",
          "name": "token",
          "type": "address"
        },
        {
          "indexed": false,
          "internalType": "uint256",
          "name": "amount",
          "type": "uint256"
        }
      ],
      "name": "PendingDeposit",
      "type": "event"
    },
    {
      "anonymous": false,
      "inputs": [
        {
          "indexed": false,
          "internalType": "address",
          "name": "sender",
          "type": "address"
        },
        {
          "indexed": false,
          "internalType": "address",
          "name": "trust",
          "type": "address"
        },
        {
          "indexed": false,
          "internalType": "address",
          "name": "token",
          "type": "address"
        },
        {
          "indexed": false,
          "internalType": "uint256",
          "name": "supply",
          "type": "uint256"
        },
        {
          "indexed": false,
          "internalType": "uint256",
          "name": "amount",
          "type": "uint256"
        }
      ],
      "name": "Undeposit",
      "type": "event"
    },
    {
      "anonymous": false,
      "inputs": [
        {
          "indexed": false,
          "internalType": "address",
          "name": "withdrawer",
          "type": "address"
        },
        {
          "indexed": false,
          "internalType": "address",
          "name": "trust",
          "type": "address"
        },
        {
          "indexed": false,
          "internalType": "address",
          "name": "redeemable",
          "type": "address"
        },
        {
          "indexed": false,
          "internalType": "address",
          "name": "token",
          "type": "address"
        },
        {
          "indexed": false,
          "internalType": "uint256",
          "name": "supply",
          "type": "uint256"
        },
        {
          "indexed": false,
          "internalType": "uint256",
          "name": "amount",
          "type": "uint256"
        }
      ],
      "name": "Withdraw",
      "type": "event"
    },
    {
      "inputs": [
        {
          "internalType": "address",
          "name": "sale_",
          "type": "address"
        },
        {
          "internalType": "address",
          "name": "token_",
          "type": "address"
        },
        {
          "internalType": "uint256",
          "name": "amount_",
          "type": "uint256"
        }
      ],
      "name": "deposit",
      "outputs": [],
      "stateMutability": "nonpayable",
      "type": "function"
    },
    {
      "inputs": [
        {
          "internalType": "address",
          "name": "sale_",
          "type": "address"
        },
        {
          "internalType": "address",
          "name": "token_",
          "type": "address"
        },
        {
          "internalType": "uint256",
          "name": "amount_",
          "type": "uint256"
        }
      ],
      "name": "depositPending",
      "outputs": [],
      "stateMutability": "nonpayable",
      "type": "function"
    },
    {
      "inputs": [
        {
          "internalType": "address",
          "name": "sale_",
          "type": "address"
        },
        {
          "internalType": "address",
          "name": "token_",
          "type": "address"
        },
        {
          "internalType": "address",
          "name": "depositor_",
          "type": "address"
        }
      ],
      "name": "sweepPending",
      "outputs": [],
      "stateMutability": "nonpayable",
      "type": "function"
    },
    {
      "inputs": [
        {
          "internalType": "address",
          "name": "sale_",
          "type": "address"
        },
        {
          "internalType": "address",
          "name": "token_",
          "type": "address"
        },
        {
          "internalType": "uint256",
          "name": "supply_",
          "type": "uint256"
        },
        {
          "internalType": "uint256",
          "name": "amount_",
          "type": "uint256"
        }
      ],
      "name": "undeposit",
      "outputs": [],
      "stateMutability": "nonpayable",
      "type": "function"
    },
    {
      "inputs": [
        {
          "internalType": "address",
          "name": "sale_",
          "type": "address"
        },
        {
          "internalType": "address",
          "name": "token_",
          "type": "address"
        },
        {
          "internalType": "uint256",
          "name": "supply_",
          "type": "uint256"
        }
      ],
      "name": "withdraw",
      "outputs": [],
      "stateMutability": "nonpayable",
      "type": "function"
    }
  ],
  "bytecode": "0x608060405234801561001057600080fd5b50611633806100206000396000f3fe608060405234801561001057600080fd5b50600436106100675760003560e01c80637e56cda8116100505780637e56cda8146100945780638340f549146100a7578063d9caed12146100ba57600080fd5b8063248a85721461006c5780635fc85b7d14610081575b600080fd5b61007f61007a366004611314565b6100cd565b005b61007f61008f36600461135a565b610345565b61007f6100a23660046113a5565b610394565b61007f6100b53660046113a5565b610569565b61007f6100c83660046113a5565b61059c565b60016100d8856108c3565b60028111156100e9576100e96113e6565b14610155576040517f08c379a000000000000000000000000000000000000000000000000000000000815260206004820152600860248201527f4e4f545f4641494c00000000000000000000000000000000000000000000000060448201526064015b60405180910390fd5b600081116101bf576040517f08c379a000000000000000000000000000000000000000000000000000000000815260206004820152600b60248201527f5a45524f5f414d4f554e54000000000000000000000000000000000000000000604482015260640161014c565b73ffffffffffffffffffffffffffffffffffffffff80851660009081526005602090815260408083209387168352928152828220338352815282822085835290529081208054839290610213908490611444565b909155505073ffffffffffffffffffffffffffffffffffffffff8085166000908152600660209081526040808320938716835292815282822085835290529081208054839290610264908490611444565b909155505073ffffffffffffffffffffffffffffffffffffffff80851660009081526007602090815260408083209387168352928152828220858352905290812080548392906102b5908490611444565b90915550506040805133815273ffffffffffffffffffffffffffffffffffffffff8681166020830152851681830152606081018490526080810183905290517f107f4d8e9faacc388bad03c81d03071a09d00504318454bde76c7a0b90cbe9549181900360a00190a161033f73ffffffffffffffffffffffffffffffffffffffff84163383610a67565b50505050565b73ffffffffffffffffffffffffffffffffffffffff8381166000908152600460209081526040808320868516845282528083209385168352929052908120805491905561033f84848484610b3b565b600081116103fe576040517f08c379a000000000000000000000000000000000000000000000000000000000815260206004820152600c60248201527f5a45524f5f4445504f5349540000000000000000000000000000000000000000604482015260640161014c565b6000610409846108c3565b600281111561041a5761041a6113e6565b14610481576040517f08c379a000000000000000000000000000000000000000000000000000000000815260206004820152600b60248201527f4e4f545f50454e44494e47000000000000000000000000000000000000000000604482015260640161014c565b73ffffffffffffffffffffffffffffffffffffffff80841660009081526004602090815260408083209386168352928152828220338352905290812080548392906104cd90849061145b565b90915550600090506104de84610e1e565b6040805133815273ffffffffffffffffffffffffffffffffffffffff878116602083015283811682840152861660608201526080810185905290519192507feabec77378d088e5df884cdb5fb2b55858355c2f6284148d4a30177eb54b52e6919081900360a00190a161033f73ffffffffffffffffffffffffffffffffffffffff8416333085610f99565b61057583833384610b3b565b61059773ffffffffffffffffffffffffffffffffffffffff8316333084610f99565b505050565b60026105a7846108c3565b60028111156105b8576105b86113e6565b1461061f576040517f08c379a000000000000000000000000000000000000000000000000000000000815260206004820152600b60248201527f4e4f545f53554343455353000000000000000000000000000000000000000000604482015260640161014c565b73ffffffffffffffffffffffffffffffffffffffff8084166000818152600660209081526040808320948716808452948252808320868452825280832054938352600382528083209483529381528382208583528152838220338352905291822054909161068c86610e1e565b73ffffffffffffffffffffffffffffffffffffffff87811660009081526003602090815260408083208a8516845282528083208984528252808320338085529252808320889055517f70a0823100000000000000000000000000000000000000000000000000000000815260048101919091529293509186918416906370a0823190602401602060405180830381865afa15801561072e573d6000803e3d6000fd5b505050506040513d601f19601f820116820180604052508101906107529190611473565b61075c8587611444565b610766919061148c565b61077091906114c9565b73ffffffffffffffffffffffffffffffffffffffff8089166000908152600760209081526040808320938b1683529281528282208983529052908120805492935083929091906107c1908490611444565b90915550508061082d576040517f08c379a000000000000000000000000000000000000000000000000000000000815260206004820152600d60248201527f5a45524f5f574954484452415700000000000000000000000000000000000000604482015260640161014c565b6040805133815273ffffffffffffffffffffffffffffffffffffffff898116602083015284811682840152881660608201526080810187905260a0810183905290517f16976c9767f5174e5289de7594402a1e174ebd2a9622aa3ebafd14e5af4e2ab99181900360c00190a16108ba73ffffffffffffffffffffffffffffffffffffffff87163383610a67565b50505050505050565b73ffffffffffffffffffffffffffffffffffffffff811660009081526002602052604081205460ff16818160028111156108ff576108ff6113e6565b111561090b5792915050565b60008373ffffffffffffffffffffffffffffffffffffffff1663f9020e336040518163ffffffff1660e01b8152600401602060405180830381865afa158015610958573d6000803e3d6000fd5b505050506040513d601f19601f8201168201806040525081019061097c9190611504565b90506002816003811115610992576109926113e6565b14156109ed5750505073ffffffffffffffffffffffffffffffffffffffff16600090815260026020819052604090912080547fffffffffffffffffffffffffffffffffffffffffffffffffffffffffffffff00168217905590565b6003816003811115610a0157610a016113e6565b1415610a5d5750505073ffffffffffffffffffffffffffffffffffffffff16600090815260026020526040902080547fffffffffffffffffffffffffffffffffffffffffffffffffffffffffffffff0016600190811790915590565b5060009392505050565b60405173ffffffffffffffffffffffffffffffffffffffff83166024820152604481018290526105979084907fa9059cbb00000000000000000000000000000000000000000000000000000000906064015b604080517fffffffffffffffffffffffffffffffffffffffffffffffffffffffffffffffe08184030181529190526020810180517bffffffffffffffffffffffffffffffffffffffffffffffffffffffff167fffffffff0000000000000000000000000000000000000000000000000000000090931692909217909152610ff7565b6000610b46856108c3565b6002811115610b5757610b576113e6565b11610bbe576040517f08c379a000000000000000000000000000000000000000000000000000000000815260206004820152600760248201527f50454e44494e4700000000000000000000000000000000000000000000000000604482015260640161014c565b60008111610c28576040517f08c379a000000000000000000000000000000000000000000000000000000000815260206004820152600c60248201527f5a45524f5f4445504f5349540000000000000000000000000000000000000000604482015260640161014c565b6000610c3385610e1e565b905060008173ffffffffffffffffffffffffffffffffffffffff166318160ddd6040518163ffffffff1660e01b8152600401602060405180830381865afa158015610c82573d6000803e3d6000fd5b505050506040513d601f19601f82011682018060405250810190610ca69190611473565b73ffffffffffffffffffffffffffffffffffffffff80881660009081526005602090815260408083208a8516845282528083209389168352928152828220848352905290812080549293508592909190610d0190849061145b565b909155505073ffffffffffffffffffffffffffffffffffffffff8087166000908152600660209081526040808320938916835292815282822084835290529081208054859290610d5290849061145b565b909155505073ffffffffffffffffffffffffffffffffffffffff8087166000908152600760209081526040808320938916835292815282822084835290529081208054859290610da390849061145b565b90915550506040805173ffffffffffffffffffffffffffffffffffffffff8681168252888116602083015284811682840152871660608201526080810183905260a0810185905290517fe354026b0ea4d7022834b4903ab420cdc10b109a8506dc68061124854cd353c89181900360c00190a1505050505050565b73ffffffffffffffffffffffffffffffffffffffff80821660009081526001602052604081205490911680610f935760008373ffffffffffffffffffffffffffffffffffffffff1663fc0c546a6040518163ffffffff1660e01b8152600401602060405180830381865afa158015610e9a573d6000803e3d6000fd5b505050506040513d601f19601f82011682018060405250810190610ebe9190611525565b905073ffffffffffffffffffffffffffffffffffffffff8116610f3d576040517f08c379a000000000000000000000000000000000000000000000000000000000815260206004820152600760248201527f305f544f4b454e00000000000000000000000000000000000000000000000000604482015260640161014c565b73ffffffffffffffffffffffffffffffffffffffff848116600090815260016020526040902080547fffffffffffffffffffffffff00000000000000000000000000000000000000001691831691909117905590505b92915050565b60405173ffffffffffffffffffffffffffffffffffffffff8085166024830152831660448201526064810182905261033f9085907f23b872dd0000000000000000000000000000000000000000000000000000000090608401610ab9565b6000611059826040518060400160405280602081526020017f5361666545524332303a206c6f772d6c6576656c2063616c6c206661696c65648152508573ffffffffffffffffffffffffffffffffffffffff166111039092919063ffffffff16565b80519091501561059757808060200190518101906110779190611542565b610597576040517f08c379a000000000000000000000000000000000000000000000000000000000815260206004820152602a60248201527f5361666545524332303a204552433230206f7065726174696f6e20646964206e60448201527f6f74207375636365656400000000000000000000000000000000000000000000606482015260840161014c565b6060611112848460008561111c565b90505b9392505050565b6060824710156111ae576040517f08c379a000000000000000000000000000000000000000000000000000000000815260206004820152602660248201527f416464726573733a20696e73756666696369656e742062616c616e636520666f60448201527f722063616c6c0000000000000000000000000000000000000000000000000000606482015260840161014c565b843b611216576040517f08c379a000000000000000000000000000000000000000000000000000000000815260206004820152601d60248201527f416464726573733a2063616c6c20746f206e6f6e2d636f6e7472616374000000604482015260640161014c565b6000808673ffffffffffffffffffffffffffffffffffffffff16858760405161123f9190611590565b60006040518083038185875af1925050503d806000811461127c576040519150601f19603f3d011682016040523d82523d6000602084013e611281565b606091505b509150915061129182828661129c565b979650505050505050565b606083156112ab575081611115565b8251156112bb5782518084602001fd5b816040517f08c379a000000000000000000000000000000000000000000000000000000000815260040161014c91906115ac565b73ffffffffffffffffffffffffffffffffffffffff8116811461131157600080fd5b50565b6000806000806080858703121561132a57600080fd5b8435611335816112ef565b93506020850135611345816112ef565b93969395505050506040820135916060013590565b60008060006060848603121561136f57600080fd5b833561137a816112ef565b9250602084013561138a816112ef565b9150604084013561139a816112ef565b809150509250925092565b6000806000606084860312156113ba57600080fd5b83356113c5816112ef565b925060208401356113d5816112ef565b929592945050506040919091013590565b7f4e487b7100000000000000000000000000000000000000000000000000000000600052602160045260246000fd5b7f4e487b7100000000000000000000000000000000000000000000000000000000600052601160045260246000fd5b60008282101561145657611456611415565b500390565b6000821982111561146e5761146e611415565b500190565b60006020828403121561148557600080fd5b5051919050565b6000817fffffffffffffffffffffffffffffffffffffffffffffffffffffffffffffffff04831182151516156114c4576114c4611415565b500290565b6000826114ff577f4e487b7100000000000000000000000000000000000000000000000000000000600052601260045260246000fd5b500490565b60006020828403121561151657600080fd5b81516004811061111557600080fd5b60006020828403121561153757600080fd5b8151611115816112ef565b60006020828403121561155457600080fd5b8151801515811461111557600080fd5b60005b8381101561157f578181015183820152602001611567565b8381111561033f5750506000910152565b600082516115a2818460208701611564565b9190910192915050565b60208152600082518060208401526115cb816040850160208701611564565b601f017fffffffffffffffffffffffffffffffffffffffffffffffffffffffffffffffe016919091016040019291505056fea26469706673582212206d85e9c8600877085959696ce9313a75fefaa07b5d2b0b660ccd79ef65ec15d064736f6c634300080a0033",
  "linkReferences": {},
  "deployedLinkReferences": {}
}